:020000040800F2
:1000000000000420994F0008B14B0008B74B0008CE
:10001000BD4B0008C34B0008C94B0008000000009E
:10002000000000000000000000000000CF4B0008AE
:10003000DD4B000800000000EB4B0008F94B000806
:10004000E94F0008E94F0008E94F0008E94F0008B0
:10005000E94F0008E94F0008E94F0008E94F0008A0
:10006000E94F0008E94F0008E94F0008054C000877
:10007000194C0008E94F0008E94F0008E94F000853
:100080002D4C0008E94F0008E94F0008E94F00082F
:10009000E94F0008E94F0008E94F0008E94F000860
:1000A000E94F0008414C0008E94F0008E94F0008FB
:1000B0005D4C0008854C0008E94F0008E94F000836
:1000C000E94F0008E94F0008E94F0008E94F000830
:1000D000E94F0008AD4C0008E94F0008C14C00088A
:1000E000E94F0008E94F0008E94F0008E94F000810
:1000F000D54C0008154D0008E94F0008E94F0008ED
:10010000E94F0008E94F0008314D0008E94F0008A9
:10011000E94F0008E94F0008E94F00089D4D00082D
:10012000F14D0008054E0008194E0008E94F00087F
:10013000E94F00080000000000000000000000007F
:10014000000000000000000000000000E94F00086F
:10015000E94F0008E94F0008E94F0008E94F00089F
:10016000E94F0008E94F0008E94F0008E94F00088F
:10017000E94F0008E94F00080000000000000000FF
:10018000E94F0008E94F0008E94F0008E94F00086F
:10019000E94F0008E94F000800000000E94F00089F
:1001A000000000000000000000000000E94F00080F
:1001B000E94F0008E94F00080000000000000000BF
:1001C000000000000000000000000000000000002F
:1001D000000000000000000000000000E94F0008DF
:1001E00010B5054C237833B9044B13B10448AFF371
:1001F00000800123237010BDEC00002000000000EF
:1002000094B1000808B5034B1BB103490348AFF391
:10021000008008BD00000000F000002094B100083C
:1002200053B94AB9002908BF00281CBF4FF0FF315D
:100230004FF0FF3000F074B9ADF1080C6DE904CE59
:1002400000F006F8DDF804E0DDE9022304B07047B1
:100250002DE9F047089D04468E46002B4DD18A4279
:10026000944669D9B2FA82F252B101FA02F3C2F1AC
:10027000200120FA01F10CFA02FC41EA030E94403D
:100280004FEA1C48210CBEFBF8F61FFA8CF708FB5E
:1002900016E341EA034306FB07F199420AD91CEB36
:1002A000030306F1FF3080F01F81994240F21C8168
:1002B000023E63445B1AA4B2B3FBF8F008FB1033B0
:1002C00044EA034400FB07F7A7420AD91CEB0404E5
:1002D00000F1FF3380F00A81A74240F207816444B5
:1002E000023840EA0640E41B00261DB1D44000233A
:1002F000C5E900433146BDE8F0878B4209D9002D9E
:1003000000F0EF800026C5E9000130463146BDE827
:10031000F087B3FA83F6002E4AD18B4202D3824291
:1003200000F2F980841A61EB030301209E46002D40
:10033000E0D0C5E9004EDDE702B9FFDEB2FA82F295
:10034000002A40F09280A1EB0C014FEA1C471FFAF3
:100350008CFE0126200CB1FBF7F307FB131140EADA
:1003600001410EFB03F0884208D91CEB010103F1A7
:10037000FF3802D2884200F2CB804346091AA4B269
:10038000B1FBF7F007FB101144EA01440EFB00FE3D
:10039000A64508D91CEB040400F1FF3102D2A645A2
:1003A00000F2BB800846A4EB0E0440EA03409CE741
:1003B000C6F12007B34022FA07FC4CEA030C20FAEE
:1003C00007F401FA06F31C43F9404FEA1C4900FA0E
:1003D00006F3B1FBF9F8200C1FFA8CFE09FB18118B
:1003E00040EA014108FB0EF0884202FA06F20BD9FE
:1003F0001CEB010108F1FF3A80F08880884240F24E
:100400008580A8F102086144091AA4B2B1FBF9F091
:1004100009FB101144EA014100FB0EFE8E4508D98C
:100420001CEB010100F1FF346CD28E456AD9023811
:10043000614440EA0840A0FB0294A1EB0E01A142F6
:10044000C846A64656D353D05DB1B3EB080261EB64
:100450000E0101FA07F722FA06F3F1401F43C5E93E
:10046000007100263146BDE8F087C2F12003D84074
:100470000CFA02FC21FA03F3914001434FEA1C47B6
:100480001FFA8CFEB3FBF7F007FB10360B0C43EAA8
:10049000064300FB0EF69E4204FA02F408D91CEB58
:1004A000030300F1FF382FD29E422DD90238634456
:1004B0009B1B89B2B3FBF7F607FB163341EA0341F6
:1004C00006FB0EF38B4208D91CEB010106F1FF3845
:1004D00016D28B4214D9023E6144C91A46EA00463C
:1004E00038E72E46284605E70646E3E61846F8E6CE
:1004F0004B45A9D2B9EB020864EB0C0E0138A3E717
:100500004646EAE7204694E74046D1E7D0467BE7F7
:10051000023B614432E7304609E76444023842E76F
:10052000704700BF80B400AF084B00221A60074B31
:100530000222DA60054B04225A60044B01229A60C1
:1005400000BFBD465DF8047B704700BF0C01002072
:10055000B0B586B000AFF8607A603B600B46FB72C6
:1005600005F0D6FB1D491E4805F042FD0346002B51
:100570002ED10023FB753B68022B02D10423FB75AF
:1005800004E03B68012B01D10223FB750023BB75FE
:1005900017E0BB7D9B00FA6813441B6800221C46D1
:1005A000154622462B467968386805F057FB034606
:1005B000002B0FD1FB7D7A6813447B60BB7D013338
:1005C000BB75BA7DFB7A9A42E3D305F0C3FB02E028
:1005D00000BF00E000BF1837BD46B0BD08010020D5
:1005E0000C01002080B487B000AFF8607A603B60F7
:1005F0000B46FB720023FB7500233B613B68022B1B
:1006000002D10423FB7504E03B68012B01D10223D6
:10061000FB750023BB820FE07B681B683B61BB8AD4
:100620009B00FA6813443A691A60FB7D7A681344A8
:100630007B60BB8A0133BB82FB7A9BB2BA8A9A4247
:10064000EAD300BF00BF1C37BD465DF8047B70478E
:1006500080B483B000AF0346FB80094B1B680022C7
:100660005A6200BF064B1B685A6AFB889A42F9D34C
:1006700000BF00BF0C37BD465DF8047B704700BF6C
:100680004804002080B582B000AF0346FB71FB79BF
:10069000022B02DC002B2CDC64E0043B012B61D834
:1006A000002203210B2004F020FE0B2004F039FE71
:1006B00001220321102004F018FE102004F031FE66
:1006C00000220321382004F010FE382004F029FE17
:1006D00001220321392004F008FE392004F021FE14
:1006E00000220121192004F000FE192004F019FE57
:1006F00039E0012200213A2004F0F7FD3A2004F00D
:1007000010FE01220021252004F0EFFD252004F039
:1007100008FE01220221372004F0E7FD372004F013
:1007200000FE002203210B2004F0DFFD0B2004F06B
:10073000F8FD01220321102004F0D7FD102004F061
:10074000F0FD00220321382004F0CFFD382004F012
:10075000E8FD01220321392004F0C7FD392004F00F
:10076000E0FD00E000BF00BF0837BD4680BD80B59A
:1007700000AF002201210B2004F0B7FD0B2004F094
:10078000D0FD002201210C2004F0AFFD0C2004F06C
:10079000C8FD00220121102004F0A7FD102004F064
:1007A000C0FD01220121382004F09FFD382004F013
:1007B000B8FD01220121392004F097FD392004F011
:1007C000B0FD002201213A2004F08FFD3A2004F010
:1007D000A8FD00220121252004F087FD252004F03A
:1007E000A0FD00220221372004F07FFD372004F015
:1007F00098FD00BF80BD80B485B000AF78600B4627
:10080000FB700023FB7307E0FB7B7A681344002234
:100810001A70FB7B0133FB73FA7BFB789A42F3D3AC
:1008200000BF00BF1437BD465DF8047B704780B43D
:1008300085B000AF78600B46FB701346BB70BB7889
:10084000FB7307E0FB7B7A68134400221A70FB7B82
:100850000133FB73FA7BFB789A42F3D300BF00BFEE
:100860001437BD465DF8047B70472DE9B04F86B064
:1008700000AF78600B467B8013467B707B88DAB2D2
:100880007B78D31ADBB2013B7B734FF000024FF051
:100890000003C7E904237B78FB8112E0FB899B00FE
:1008A0007A6813441B6800221C461546D7E90423C6
:1008B00012EB040843EB0509C7E90489FB890133FE
:1008C000FB817B7B9BB2FA899A42E7D97A887B7855
:1008D0005B00D31ADA179A46934652465B46D7E92D
:1008E0000401FFF79DFC02460B461346BB60BB6844
:1008F00018461837BD46BDE8B08F80B485B000AF4C
:10090000786039607B681B68FB603B681A687B68AD
:100910001A603B68FA681A6000BF1437BD465DF87C
:10092000047B704780B584B000AF78600B467B8055
:100930002CE00023FB730023BB601DE0BB689B0021
:100940007A6813441A68BB6801339B0079680B44CA
:100950001B689A420DD9BB689B007A68D018BB68A7
:1009600001339B007A6813441946FFF7C6FF012341
:10097000FB73BB680133BB607B88BA689A42DDDBDE
:10098000FB7B83F00103DBB2002B05D17B885A1E71
:100990007A80002BCDD100E000BF00BF1037BD46EC
:1009A00080BD000080B582B000AF04F01EFB00F0F7
:1009B0007FFB00F0EFFE00F09BFE00F05DFE00F01C
:1009C00023FE00F01FFC00F0DFFB00F059FC00F0FC
:1009D000A5FC00F041FD00F075FD00F0A9FD00F060
:1009E000EBFC00F0EDFD00F0C7FD514807F0CCFE38
:1009F000504807F0B9FD4FF47A7004F053FB06221B
:100A00004D494E4808F0F4FB05224D494D4806F08B
:100A1000A7FF05224C494D4806F0A2FFFFF782FDD3
:100A200002234B4A02214B48FFF7DCFD494B1B6870
:100A3000494A1360474B5B68484A1360484B0122A0
:100A40001A70484B1B78002B01D000F031FF464B49
:100A50001B78002B00F03781444B1B8801339AB27E
:100A6000424B1A8002F0D6FB414B1B78012B0BD076
:100A70003F4B1B78022B07D03D4B1B78032B03D039
:100A80003B4B1B78042B46D13A4B1B78002B42D0B2
:100A90000023FB7110E0FB79374A12781146374A80
:100AA000D25C374B5A54FB790133FB71324B1B78C4
:100AB0000133DAB2304B1A70FB79022BEBD92D4B94
:100AC00000221A702F4B1B780133DAB22D4B1A70AB
:100AD0002C4B1B789AB22C4B1A802C4B1B68013381
:100AE0002A4A13602A4B1B8801339AB2284B1A807A
:100AF000244B1B780A2B0ED1224B00221A701E4B5E
:100B000001221A70234B01221A70234B1B880133D8
:100B10009AB2214B1A80164B1B78052B40F0D080DF
:100B2000144B1B78002B00F0BA800023BB7146E009
:100B30006403002048040020940800204C06002094
:100B400094070020800100209C0700201C01002049
:100B5000008001082C080020680800206C08002094
:100B6000220A00201D0A00201C0A0020F407002091
:100B7000230A00203D08002005000020B4080020C2
:100B8000C8070020E907002092080020180800206C
:100B9000EE070020250A002000080020BB798F4ABC
:100BA000127811468E4AD25C8E4B5A54BB7901336F
:100BB000BB718A4B1B780133DAB2884B1A70BB7950
:100BC000022BEBD9884B00221A70884B1B7801331B
:100BD000DAB2864B1A70854B1B789AB2844B1A8016
:100BE000844B1B680133834A1360834B1B8801339A
:100BF0009AB2814B1A807D4B1B78322B4FD17F48A4
:100C000007F0C2FD794B1B789BB21A465200134481
:100C10009BB21946734803F0D7FA744B1B789BB20A
:100C200019467748FFF77EFE704B1B789BB20C226B
:100C300019467348FFF719FE0346724A13606B4B5F
:100C400000221A70654B00221A706F4B00221A7036
:100C500021216E48FFF7CFFD6A4B1B68DAB26B4B60
:100C60005A70684B1B681B0ADAB2684B9A70654B66
:100C70001B681B0CDAB2654BDA70644B5A78634B15
:100C80001A71624B9A78614B5A71604BDA785F4BFC
:100C90009A715F4B01221A705E4B01221A705D4BF4
:100CA0001B78002B0CD05A4B1B78002B08D15A4BC9
:100CB00000221A70594B01221A70564B00221A70EA
:100CC000574B00221A70574B1B78002B2DD0524BDC
:100CD0001B78013B082B24D801A252F823F000BF57
:100CE000170D00081D0D0008230D0008230D000836
:100CF000230D00080B0D0008230D0008050D00084A
:100D0000110D000802F0F8FA0CE002F0A1FB09E076
:100D100002F042FB06E002F0E9FB03E002F0E6FB32
:100D200000E000BF3F4B00221A703F4B1B78002BA6
:100D30002DD0394B1B78013B082B24D801A252F847
:100D400023F000BF7B0D0008810D0008870D00080F
:100D5000870D0008870D00086F0D0008870D00083B
:100D6000690D0008750D000802F0C6FA0CE002F0EB
:100D70006FFB09E002F010FB06E002F033FD03E038
:100D800002F0ACFE00E000BF274B00221A70274B98
:100D90001B78002B6DD0154B1B78002B4AD01C4BB9
:100DA0001B78002B46D1104B00221A700F4B1B787A
:100DB0001A4652001344DBB20133DBB21A4621213A
:100DC0001248FFF734FD124B01221A70074B002224
:100DD0001A70174B01221A704BE000BFEA0700207F
:100DE000B4080020BC0800203D080020E9070020CE
:100DF0009208002018080020EE070020E0040020E0
:100E0000540900202808002034080020C8070020CA
:100E1000250A002049080020230A0020220A002079
:100E20001C0A00201E0A00201F0A00203C08002087
:100E300005000020834B1B78002B1AD1824B1B78B6
:100E4000002B16D1814B00221A70814B00221A70A0
:100E5000804B01221A70804B00221A707F4B0022B7
:100E60001A707F4B00221A60FFF781FC7D4807F063
:100E70008BFC7D4B1B78002B1FD07C4B1B78002BF1
:100E80001BD07B4B1B78052B17D1774B00221A7098
:100E9000764B00221A70764BFF221A706B4B04229D
:100EA0001A706C4B02221A70724B01221A700420C5
:100EB000FFF7E8FB704807F0EFFB644B1B78052B4E
:100EC00039D1694B1B78002B13D0684B1B78002B52
:100ED0000FD0654B00221A70644B00221A70052057
:100EE000FFF7D0FB654B1B6800225A62634807F08E
:100EF000D3FB634B1B78002B1DD0614B00221A7073
:100F000005226049604808F073F901224FF400613E
:100F10005E4805F0E1FB514B01221A700A20FFF7F1
:100F200097FB00224FF40061584805F0D5FB534B66
:100F30001B6800225A62564B1B78002B3FF481AD90
:100F4000534B00221A704B4B1B78002B2AD0514B6D
:100F500000221A80504B00221A80052249494A4833
:100F600008F046F901224FF40061484805F0B4FB4F
:100F70003A4B01221A700A20FFF76AFB00224FF455
:100F80000061424805F0A8FB3B4B1B6800225A62F7
:100F9000424807F081FB374B00221A70314807F0B6
:100FA0007BFB48E005223749374808F021F9012248
:100FB0004FF40061354805F08FFB284B01221A7071
:100FC0000A20FFF745FB00224FF400612F4805F08F
:100FD00083FB244807F0D8FB314B1B881A46134685
:100FE0001B049B1A1A462F4B1A601E4B1B685A6A29
:100FF0002C4B1B6813442B4A1360294B00221A8088
:10100000184B1B6800225A62164807F045FB03F094
:101010004DF80346244A1360174807F015FB164B9A
:101020001B68214A1268DA62134B1B6800225A625D
:10103000114807F031FB1D4B1B8801339AB21B4B43
:101040001A80FEE4E9070020250A0020230A002078
:1010500034080020220A00203C0800203D0800201F
:10106000180800202C050020430800204408002018
:10107000760000204208002078050020E0040020CF
:1010800046080020A4080020C405002000000240FB
:1010900045080020F2070020F4070020FC03002090
:1010A000FA0700200808002010080020F807002098
:1010B00080B594B000AF07F120033022002118461C
:1010C00009F062FB07F10C0300221A605A609A6073
:1010D000DA601A612A4B1B6C294A43F0805313646F
:1010E000274B1B6C03F08053BB60BB68254B1B6810
:1010F000244A43F440431360224B1B6803F44043EB
:101100007B607B6801233B624FF480337B62022368
:10111000BB634FF48003FB6304233B64D8237B64ED
:101120000223BB640223FB6407F12003184605F089
:1011300057FB0346002B01D003F074F905F000FBC8
:101140000346002B01D003F06DF90F23FB6002234F
:101150003B6100237B614FF4A053BB614FF4A0536C
:10116000FB6107F10C030721184605F0DDFD03467E
:10117000002B01D003F056F900BF5037BD4680BDAB
:10118000003802400070004080B500AF1B4B1C4A85
:101190001A601A4B4FF482725A60184B00229A6000
:1011A000164B4FF4E062DA60144B02221A61134BC3
:1011B00000225A61114B4FF400729A610F4B382292
:1011C000DA610E4B00221A620C4B00225A620B4B62
:1011D00000229A62094B0722DA62084B00221A6346
:1011E000064B08225A63054806F00EFB0346002B07
:1011F00001D003F017F900BF80BD00BF1C01002023
:10120000003C004080B500AF1B4B1C4A1A601A4BD3
:101210004FF482725A60184B00229A60164B4FF4BA
:10122000E062DA60144B02221A61134B00225A6109
:10123000114B4FF400729A610F4B3822DA610E4B5A
:1012400000221A620C4B00225A620B4B00229A6257
:10125000094B0722DA62084B00221A63064B082268
:101260005A63054806F0D0FA0346002B01D003F07C
:10127000D9F800BF80BD00BF8001002000340140CC
:1012800080B588B000AF07F1100300221A605A60E1
:101290009A60DA603B1D00221A605A609A601E4B09
:1012A0004FF080421A601C4B6B225A601A4B00228E
:1012B0009A60194B46F2A712DA60174B00221A61A6
:1012C000154B00229A61144807F0F6F80346002BEC
:1012D00001D003F0A7F84FF480533B6107F11003EE
:1012E00019460D4807F088FB0346002B01D003F098
:1012F00099F800237B600023FB603B1D19460648DC
:1013000007F0B6FD0346002B01D003F08BF800BFB9
:101310002037BD4680BD00BF6403002080B588B083
:1013200000AF07F1100300221A605A609A60DA6079
:101330003B1D00221A605A609A601D4B1D4A1A60BC
:101340001B4B6B225A601A4B00229A60184B43F6D3
:101350007F62DA60164B00221A61154B00229A61F7
:10136000134807F0A9F80346002B01D003F05AF800
:101370004FF480533B6107F1100319460C4807F006
:101380003BFB0346002B01D003F04CF800237B60AD
:101390000023FB603B1D1946054807F069FD034625
:1013A000002B01D003F03EF800BF2037BD4680BDC2
:1013B000B00300200004004080B588B000AF07F102
:1013C000100300221A605A609A60DA603B1D002206
:1013D0001A605A609A601E4B1E4A1A601C4B42F6F5
:1013E0002F225A601A4B00229A60194B4FF0FF329D
:1013F000DA60174B00221A61154B00229A611448DB
:1014000007F05AF80346002B01D003F00BF84FF415
:1014100080533B6107F1100319460D4807F0ECFAC1
:101420000346002B01D002F0FDFF00237B60002368
:10143000FB603B1D1946064807F01AFD0346002BCA
:1014400001D002F0EFFF00BF2037BD4680BD00BFD6
:10145000FC030020000C004080B584B000AF3B1DB1
:1014600000221A605A609A60144B154A1A60134B96
:101470006B225A60114B00229A60104B4FF6FF729C
:10148000DA600E4B00229A610C4807F015F803460B
:10149000002B01D002F0C6FF00237B600023FB601D
:1014A0003B1D1946054807F0E3FC0346002B01D01D
:1014B00002F0B8FF00BF1037BD4680BD48040020D1
:1014C0000010004080B584B000AF3B1D00221A60C0
:1014D0005A609A60144B154A1A60134B6B225A607B
:1014E000114B00229A60104B6322DA600E4B0022EF
:1014F0009A610D4806F0E0FF0346002B01D002F090
:1015000091FF00237B600023FB603B1D19460648CA
:1015100007F0AEFC0346002B01D002F083FF00BFB2
:101520001037BD4680BD00BF940400200014004069
:1015300080B500AF0E4B0F4A1A600D4B45F25F426B
:101540005A600B4B00229A60094B4FF6FF72DA602B
:10155000074B00221A61064B00229A61044806F0EC
:10156000ABFF0346002B01D002F05CFF00BF80BD43
:10157000E00400200044014080B500AF0E4B0F4A4C
:101580001A600D4B40F237425A600B4B00229A60B2
:10159000094B4FF6FF72DA60074B00221A61064BC7
:1015A00000229A61044806F087FF0346002B01D011
:1015B00002F038FF00BF80BD2C050020001C004059
:1015C00080B500AF0E4B0F4A1A600D4B45F25F42DB
:1015D0005A600B4B00229A60094B4FF6FF72DA609B
:1015E000074B00221A61064B00229A61044806F05C
:1015F00063FF0346002B01D002F014FF00BF80BD43
:10160000780500200020004080B500AF184B1B6813
:101610009A68174B1B6842F001029A60144B154AF6
:101620001A60134B4FF416425A60114B00229A6015
:101630000F4B0022DA600E4B00221A610C4B0C2279
:101640005A610B4B00229A61094B0022DA61084B68
:1016500000221A62064B00225A62054807F0B4FCC9
:101660000346002B01D002F0DDFE00BF80BD00BFAD
:10167000C40500200010014080B500AF194B1B6865
:101680009A68184B1B6842F001029A60164B174A81
:101690001A60154B4FF4E1325A60134B00229A60E6
:1016A000114B0022DA60104B00221A610E4B0C2203
:1016B0005A610D4B00229A610B4B0022DA610A4BF2
:1016C00000221A62084B00225A62002300220021E5
:1016D000054808F0C7FF0346002B01D002F0A2FE28
:1016E00000BF80BDC40500204C060020004800401B
:1016F00080B582B000AF264B1B6B254A43F4001324
:101700001363234B1B6B03F400137B607B68204B3C
:101710001B6B1F4A43F4800313631D4B1B6B03F4C5
:1017200080033B603B68002201210B2003F0DDFDBC
:101730000B2003F0F6FD002201210C2003F0D5FD63
:101740000C2003F0EEFD00220121102003F0CDFD5E
:10175000102003F0E6FD01220121382003F0C5FD31
:10176000382003F0DEFD01220121392003F0BDFD08
:10177000392003F0D6FD002201213A2003F0B5FD07
:101780003A2003F0CEFD00BF0837BD4680BD00BF44
:101790000038024080B58AB000AF07F11403002280
:1017A0001A605A609A60DA601A613D4B1B6B3C4AC2
:1017B00043F0100313633A4B1B6B03F010033B61C0
:1017C0003B69374B1B6B364A43F080031363344B42
:1017D0001B6B03F08003FB60FB68314B1B6B304AD3
:1017E00043F0010313632E4B1B6B03F00103BB603B
:1017F000BB682B4B1B6B2A4A43F004031363284B33
:101800001B6B03F004037B607B68254B1B6B244A36
:1018100043F002031363224B1B6B03F002033B6094
:101820003B6800224FF407611E4804F055FF002278
:1018300020211D4804F050FF002203211B4804F022
:101840004BFF4FF407637B610123BB610023FB6106
:1018500000233B6207F114031946124804F0A4FC6C
:1018600020237B610123BB610023FB6100233B62DA
:1018700007F1140319460C4804F096FC03237B611E
:101880000123BB610023FB6100233B6207F11403CA
:101890001946064804F088FC00BF2837BD4680BDC5
:1018A00000380240000002400008024000040240EC
:1018B00080B584B000AFAA4B1B78013B1F2B01F20F
:1018C000B68001A252F823F049190008B51C00089F
:1018D000BB1900082F2A0008632100089D22000878
:1018E000232300081124000873250008C3250008DD
:1018F000F1250008092600082F2A00081B260008E9
:10190000652600087D260008552700088D27000859
:10191000052800083B280008A32800082F2A0008F3
:101920002F2A0008CD2800086F290008C7290008C1
:101930002F2A00082F2A00082F2A00082F2A000823
:101940002F2A0008AD29000805228649864806F09E
:1019500007F805228549864806F002F8854B1B7872
:1019600083F00103DBB2002B21D0834B1B7883F083
:101970000103DBB2002B1AD0804B5B6F93F835303C
:10198000DBB2012B13D105227D497C4807F030FCE6
:1019900001224FF400617B4804F09EFE0A20FEF70E
:1019A00057FE00224FF40061764804F095FE0021B6
:1019B000012001F06FFA01F03AB80121032001F093
:1019C00069FA714B00221A80704B00221A806A4B10
:1019D00001221A706E4B00221A70664B00221A7098
:1019E0006C4B00221A706C4B00221A706B4B5C4AD5
:1019F00092E80300186004331980684B5B78013B60
:101A0000674A13441B7AB43B002BB8BF5B421AB23F
:101A1000644B1A80614B9B78013B614A13441B7AEB
:101A20009BB2B4339BB21AB25F4B1A805D4BB3F9D1
:101A30000030002B08D15C4BB3F90030B3F5B47F14
:101A400002D1534B01221A70544BDB78013B574AA9
:101A5000083332F81320564B1A80554B1B88184612
:101A600002F0FAFB4F4BB3F90030042B11DC4D4B65
:101A7000B3F90030053B002BB8BF5B429AB24D4B27
:101A80001A804C4B1B88C3F5B4739AB2494B1A8029
:101A900007E0444BB3F900309BB2053B9AB2454B8B
:101AA0001A80454B00221A70444B00221A70444B96
:101AB00000221A70434B00221A70434B00221A7006
:101AC000424B00221A703B4B1B885B04404A82FB4E
:101AD00003121A441212DB17D31A1A463D4B1A602E
:101AE0003C4B1B682B4A12781146184601F0D8FA75
:101AF0000346384A1360274B1B78364A1268114652
:101B0000184601F043F8274BB3F900305B04304A24
:101B100082FB03121A441212DB17D31A1A462E4BF9
:101B20001A602D4B1B681B4A12781146184601F0AB
:101B3000B7FA0346284A13601D4B1B881A46264BEA
:101B40001B681344B3F5003F4AD9194B1B881A464A
:101B5000214B1B681344A3F50033204A136047E070
:101B60009408002094070020800100209C0700209A
:101B70001C0100203408002048080020C405002073
:101B8000A408002000000240EE070020F807002013
:101B90004A08002074000020250A00209C0800202C
:101BA000080000208C0800208E080020180000206B
:101BB00088080020900800203608002038080020FF
:101BC00037080020390800203A0800203B08002090
:101BD000B7600BB6600800204C080020300A0020D7
:101BE000A64B1B881A46A64B1B681344A54A1360D4
:101BF000A54B1B78002B33D0A44BB3F900305B040A
:101C0000A34A82FB03121A441212DB17D31A1A4694
:101C1000A04B1A609F4B1B689F4A127811461846CA
:101C200001F03EFA03469B4A1360984BB3F900302B
:101C3000043B5B04964A82FB03121A441212DB1720
:101C4000D31A1A46954B1A60944B1B68924A127825
:101C50001146184601F024FA0346904A136018E032
:101C60008A4BB3F900305B04894A82FB03121A44A1
:101C70001212DB17D31A1A46884B1A60874B1B685F
:101C8000854A12781146184601F00AFA0346834A3B
:101C90001360834B02221A70824B02221A70824B0D
:101CA00001221A70814806F0F7FC814806F0F4FC26
:101CB00000F0BDBE0121022001F0ECF87D4B0022B6
:101CC0001A80724B00221A807B4B00221A807B4BB9
:101CD00001221A706C4B00221A70794B00221A8074
:101CE000784B00221A80784B00221A70774B1B78B1
:101CF000002B14BF01230023DAB2674B1A70744B18
:101D000000221A700120FEF7BDFC724B724A92E865
:101D100003001860043319806E4B5B78013B6F4AF7
:101D200013441B7AB43B002BB8BF5B421AB2614B21
:101D30001A80684B9B78013B684A13441B7A9BB21C
:101D4000B4339BB21AB2514B1A805A4BB3F90030DC
:101D5000002B08D14D4BB3F90030B3F5B47F02D15D
:101D6000494B01221A70534BB3F90030042B11DC9C
:101D7000504BB3F90030053B002BB8BF5B429AB221
:101D80004D4B1A804C4B1B88C3F5B4739AB24A4B27
:101D90001A8007E0474BB3F900309BB2053B9AB27B
:101DA000454B1A804E4B00221A704E4B00221A707F
:101DB0004D4B00221A70384B1B7883F00103DBB2C5
:101DC000002B00F0FE80434BDB78013B474A083391
:101DD00032F81320294B1A80284B1B88184602F032
:101DE0003BFA354B1B885B04294A82FB03121A44D9
:101DF0001212DB17D31A1A463D4B1A603C4B1B6874
:101E0000254A12781146184601F04AF90346384A25
:101E10001360214B1B78364A12681146184600F0B1
:101E2000B5FE244BB3F900305B04194A82FB031260
:101E30001A441212DB17D31A1A46114B1A60104BB0
:101E40001B68154A12781146184601F029F9034615
:101E50000B4A1360094B1B881A46094B1B68134435
:101E6000B3F5003F46D9054B1B881A46044B1B6847
:101E70001344A3F50033034A136043E088080020AD
:101E80004C080020300A00204A0800208E0800205C
:101E9000B7600BB65C0800207400002054080020D6
:101EA000230A0020220A0020240A00209404002093
:101EB000640300208C0800209008002048080020BF
:101EC000EE070020F807002034080020260A002032
:101ED000250A00209C08002094080020080000200B
:101EE000360800203808002037080020180000209D
:101EF00060080020A64B1B881A46A64B1B6813449B
:101F0000A54A1360A54B1B78002B33D0A44BB3F923
:101F100000305B04A34A82FB03121A441212DB173F
:101F2000D31A1A46A04B1A609F4B1B689F4A12781F
:101F30001146184601F0B4F803469B4A1360984BCB
:101F4000B3F90030043B5B04964A82FB03121A4447
:101F50001212DB17D31A1A46954B1A60944B1B6862
:101F6000924A12781146184601F09AF80346904AB0
:101F7000136018E08A4BB3F900305B04894A82FB96
:101F800003121A441212DB17D31A1A46884B1A602E
:101F9000874B1B68854A12781146184601F080F875
:101FA0000346834A1360834B01221A70824B02223C
:101FB0001A70824806F070FB814806F06DFB00F055
:101FC00033BD7A4B1B78002B00F02E857D4BDB78E0
:101FD000013B7D4A083332F813207C4B1A807B4B3F
:101FE0001B88184602F038F9794B1B885B046D4A50
:101FF00082FB03121A441212DB17D31A1A46754BCE
:102000001A60744B1B68694A12781146184601F031
:1020100047F803466F4A1360644B1B786D4A126899
:102020001146184600F0B2FD6B4BB3F900305B046B
:102030005C4A82FB03121A441212DB17D31A1A46A7
:10204000664B1A60654B1B68584A12781146184651
:1020500001F026F80346614A13605C4B1B881A4660
:102060005E4B1B681344B3F5003F0AD9574B1B88DE
:102070001A465A4B1B681344A3F50033584A1360A1
:1020800007E0524B1B881A46544B1B681344544AB2
:102090001360424B1B78002B33D0414BB3F9003017
:1020A0005B04404A82FB03121A441212DB17D31A54
:1020B0001A463D4B1A603C4B1B683C4A127811464D
:1020C000184600F0EDFF0346374A1360344BB3F96E
:1020D0000030043B5B04334A82FB03121A441212A1
:1020E000DB17D31A1A463F4B1A603E4B1B682F4A28
:1020F00012781146184600F0D3FF0346394A1360A0
:1021000018E0274BB3F900305B04264A82FB031228
:102110001A441212DB17D31A1A46324B1A60314B8B
:102120001B68224A12781146184600F0B9FF034690
:102130002C4A13602B4B1A68284B1B689A4202D218
:10214000294B01221A701B4B01221A701A4B0222D2
:102150001A701A4806F0A0FA244806F09DFA00F01A
:1021600063BC184B224A92E80300186004331980BC
:10217000204B1B6800225A621F4B01221A701F4B12
:102180001B78002B3ED01E4B05221A703DE000BF8D
:10219000880800204C080020300A00204A0800204F
:1021A0008E080020B7600BB65C0800207400002089
:1021B00054080020230A0020220A00209404002052
:1021C000640300209C080020180000208A080020DA
:1021D00090080020640800208C080020500800208F
:1021E000340A00205808002040080020B0030020D6
:1021F000940800202C0500204708002043080020F8
:1022000076000020A04B00221A70A04B00221A700A
:102210009F4B5B78013B9F4A52F823209C4B9B7855
:10222000013B9D4931F813301946104601F01CFF5F
:1022300003469A4A13609A4806F006FA944B5B7874
:102240005A1E974B1B68934951F82220DA62944B2F
:102250001B6800225A62934806F0F6F98C4B9B7873
:10226000013B8D4A32F813208F4B1A808E4B1A880F
:102270008C4B1B68DA628C4B1B881A4613469B00FA
:1022800013449B001A46894B1A60864B1B68002238
:102290005A620121052000F0FDFDC8E3012106205E
:1022A00000F0F8FD824B1B881A46824B1B781946BA
:1022B000104600F0F5FE03467F4A13607E4B1B6814
:1022C0007E4A13607D4B1B6803F59673B3F5003FA0
:1022D00006D97A4B1A687A4B1344784A136005E0A2
:1022E000764B1B6803F59673744A1360754B002296
:1022F0001A7000221021744804F0EEF96F4B1B682D
:102300001946002000F042FC704806F0C5F97048FC
:1023100006F0C2F96F4B06221A706F4B01221A7039
:1023200085E30121072000F0B5FD6A4B1B78022BE5
:1023300002DC002B03DC64E0042B31D061E0644854
:1023400006F022FA654806F01FFA604806F01CFA0B
:10235000634B1B78002B13D0624B1B78002B0FD1E3
:102360005F4B1B781A4652001344DBB20133DBB2D9
:102370001A4621215C48FEF75AFA5A4B01221A707C
:10238000574B00221A70594B01221A70584B0022E9
:102390001A70584B00221A70574B00221A7030E006
:1023A000404806F051F93E4806F04EF9534806F011
:1023B0004BF94B4B1B78002B13D04A4B1B78002B4F
:1023C0000FD1474B1B781A4652001344DBB201333E
:1023D000DBB21A4621214448FEF729FA414B01227B
:1023E0001A703F4B00221A70404B01221A70404B6A
:1023F00000221A703F4B00221A70414B00221A80B3
:1024000000BF344B00221A70334B01221A700EE3C6
:102410000121082000F03EFD0023FB80394BDB78D2
:10242000002B75D0384B00221A60224B01221A7003
:10243000344B9B789BB21B02FB80324B5B789AB289
:10244000FB881343FB80FB885B04304A82FB03124A
:102450001A441212DB17D31A1A462B4B1A602A4B56
:102460001B68144A12781146184600F019FE0346FC
:10247000254A13600F4B1B78234A126811461846F1
:1024800000F084FBD3E200BF760000203C0800206F
:102490009C080020380000205C0000201C08002060
:1024A000FC03002078050020EC0700200C08002029
:1024B0003E080020740000207008002080080020E2
:1024C0002C01FEFF4108002000000240940400207F
:1024D00064030020230A0020220A0020B003002009
:1024E000E9070020250A0020C80700200500002079
:1024F000340800203D080020240A00202C0500207C
:1025000002080020940800207C080020B7600BB669
:10251000A64B00221A60A64B00221A70A54B9B788E
:102520009BB21B02FB80A34B5B789AB2FB881343E0
:10253000FB80FB885B04A04A82FB03121A44121240
:10254000DB17D31A1A46994B1A60984B1B68984AA6
:1025500012781146184600F0A3FD0346934A136013
:10256000934B1B78914A12681146184600F00EFBF7
:102570005DE2904B5B78002B14BF01230023DAB29D
:102580008B4B1A700121092000F084FC8B4B012237
:102590001A708B4B09221A708A4B01221A70854BD4
:1025A0005B78002B06D1884806F076F8874806F05D
:1025B00073F83CE2844806F06FF8854806F06CF842
:1025C00035E2844B7B4A92E803001860043319809B
:1025D00001210A2000F05EFC7E4B5B78002B03D0CB
:1025E0007D4B01221A7022E27B4B00221A701EE200
:1025F00000F00AFD794B00221A70794B1B880133D9
:102600009AB2774B1A8012E200F052FE6B4B012215
:102610001A70744B00221A7009E2664B9B78002BEB
:102620000DD0714B00221A70012210216F4804F066
:1026300053F8012220216E4804F04EF80CE06A4B5A
:1026400001221A7000221021684804F045F8002287
:102650002021674804F040F8564B5B78184600F09C
:1026600029FAE4E1524B1B78002B40F0DF815648F9
:1026700006F012F8554806F00FF8D7E101211020B6
:1026800000F008FC4E4B08221A705A4B00221A60C8
:10269000484B9B781B021A46564B1A60454B5B7899
:1026A0001A46544B1B681343524A1360404B1B7825
:1026B000002B27D0504B00221A603E4BDB78002BBA
:1026C00011D14C4B1B685B04DB084C4AA2FB032373
:1026D0009B08BB60364B1B781946B86800F0E0FCDD
:1026E0000346454A1360324B1B78434A1268114631
:1026F000184600F04BFA344805F0CEFF344805F098
:10270000CBFF94E13E4B00221A602A4BDB78002B72
:1027100011D1384B1B685B04DB08384AA2FB03234A
:102720009B08BB60224B1B781946B86800F0B8FCC8
:102730000346334A13601E4B1B78314A1268114618
:10274000184600F023FA204805F0A6FF1F4805F0C0
:10275000A3FF6CE10121112000F09CFB144B1B78BE
:10276000002B06D01A4806F00FF8174806F00CF8B0
:1027700005E0164806F008F8134806F005F8104B77
:1027800000221A700F4B00221A7050E10121122012
:1027900000F080FB074B5B78002B03D0044B012239
:1027A0001A7044E1024B00221A7040E178080020C0
:1027B0007400002094080020B7600BB6220A0020A5
:1027C000230A0020240A002094040020640300202F
:1027D000B00300209C080020260A0020250A0020C3
:1027E000F607002035080020200A002000000240E3
:1027F000000802408408002074080020176CC116ED
:10280000700800200121132000F044FB8B4B1B6853
:102810008B4A13608B4B1B688B4A1360884B1B6879
:102820008A4A1360884B1B68884A53600223884A8F
:1028300002218648FDF78CFEF9E00121142000F00A
:1028400029FB844B01221A70834B01221A70834B9F
:1028500000221A70824B5B78184600F06DFC03462C
:102860001A46804B1A707E4B9B78012B06D17D4B0C
:102870001B7863F07703DAB27A4B1A70794B1A78C7
:10288000784B5A70784806F0F7FC642301227549AA
:10289000754806F024FC05227449734806F0A8FC2C
:1028A000C5E005227249704806F0A2FC01224FF4EF
:1028B0000061704803F010FF012002F0F3FB0022DA
:1028C0004FF400616B4803F007FFB0E06A4B1B78E0
:1028D00083F00103DBB2002B24D0012210216548D4
:1028E00003F0FAFE654B00221A7001222021614894
:1028F00003F0F2FE642002F0D5FB002220215D48A7
:1029000003F0EAFE05225E495E4805F029F8002141
:10291000012000F0BFFA594B1B780133DAB2574B54
:102920001A70E2E701222021574803F0D5FE534BED
:1029300000221A7001220121544803F0CDFE6420C8
:1029400002F0B0FB00220121504803F0C5FE052231
:102950004F49504805F004F80021012000F09AFA90
:10296000464B1B780133DAB2444B1A70E2E7424B14
:102970001B7883F00103DBB2002B0BD0052240490A
:10298000404804F0EDFF642305223D49424806F02B
:10299000A6FB4CE005223E493E4804F0E1FF6423DB
:1029A00005223B493C4806F09AFB40E00023FB60CF
:1029B00002E0FB680133FB60FB68812BF9DD3748DF
:1029C00007F058FF33E001211A2000F063FA344B7E
:1029D0001B684FF4FA72DA621E4B01221A70314BF7
:1029E00000221A701C4B01221A701C4B00221A7014
:1029F000012000F0A1FB03461A461A4B1A702A4B1D
:102A000005221A70294B02221A70174806F034FC6E
:102A1000642301221349144806F061FB052213497F
:102A2000114806F0E5FB02E000BF00E000BF204BCC
:102A300000221A7000BF1037BD4680BD280A002052
:102A4000680800202C0A00206C0800202C080020B8
:102A500000800108340800204308002044080020BA
:102A600094080020FC070020C4050020000000207E
:102A7000A408002000000240740000200508002087
:102A8000940700208001002000080240000402405A
:102A90009C0700201C0100204C060020ACB100085F
:102AA000E0040020EA070020230A0020220A002078
:102AB0001D0A002080B584B000AF0346FB712A4B8D
:102AC0001B7883F00103DBB2002B29D00023FB60CD
:102AD00021E001222021254803F0FEFD022002F022
:102AE000E1FA00222021214803F0F6FD022002F045
:102AF000D9FA20211D4803F008FE05221C491D4873
:102B000004F02EFF6423052219491B4806F0E7FA5A
:102B1000FB680133FB60FB79FA689A42D9DB1BE062
:102B20000023BB6014E00121144803F0EEFD0420F3
:102B300002F0B8FA05221249124804F011FF64238A
:102B400005220F490C4806F0CAFABB680133BB6086
:102B5000FB79BA689A42E6DB0B4B00221A7000BF81
:102B60001037BD4680BD00BF740000200000024049
:102B700094070020800100204C0600200004024041
:102B80009C0700201C0100200408002080B582B0B2
:102B900000AF03463960FB71FB7983F00103DBB2C0
:102BA000002B40D0424B1B683A689A421DD2404BE2
:102BB0001A683B68D21A3E4B1B683968CB1A03F57A
:102BC00000339A4208D9012210213A4803F084FDCB
:102BD000394B00221A7066E000221021354803F0BC
:102BE0007BFD354B01221A705DE0314B1A683B6862
:102BF000D31A03F500322E4B1B683968CB1A9A4260
:102C000008D2002210212B4803F066FD2A4B012236
:102C10001A7048E001221021264803F05DFD264B82
:102C200000221A703FE0254B1B683A689A421DD279
:102C3000224B1A683B68D21A204B1B683968CB1AA2
:102C400003F500339A4208D9012220211C4803F0E1
:102C500043FD1C4B00221A7025E000222021184859
:102C600003F03AFD174B01221A701CE0134B1A684F
:102C70003B68D31A03F50032104B1B683968CB1A36
:102C80009A4208D2002220210D4803F025FD0D4B69
:102C900001221A7007E001222021094803F01CFDDF
:102CA000084B00221A7000BF0837BD4680BD00BF28
:102CB000280A002000000240200A00202C0A0020E0
:102CC00000080240210A002080B582B000AF786081
:102CD000391D4FF6FF730122034806F000FA7B68A6
:102CE00018460837BD4680BD4C06002080B485B02C
:102CF00000AF78607B681B682B4A934202D12B4B54
:102D000001221A707B681B68294A934245D1294BDE
:102D10001B78002B3ED00023FB60274B1B781A4604
:102D2000254B5B781344244A92781344FB60FB687C
:102D3000DBB2FB60204BDB781A46FB68934203D181
:102D40001D4B1B79A52B03D01C4B00221A700DE0E4
:102D5000194B1A781A4B1B781B09DBB29A4205D023
:102D6000164B00221A70174B01221A70164B1B7853
:102D7000002B09D0144B00221A70144B00221A7039
:102D8000134B00221A7002E0104B01221A70094BFB
:102D900000221A700F4B01221A7000BF1437BD4673
:102DA0005DF8047B704700BF004800401D0A00200A
:102DB000001001403408002000000020220A0020FA
:102DC000FC07002035080020750000204408002082
:102DD000430800201C0A002080B483B000AF786054
:102DE0007B681B68234A93421CD1234B9B785B0969
:102DF000DBB203F00703214A13601F4B5B78DA0054
:102E00001E4B1B6813431D4A13601B4B1B78DB02D0
:102E100003F4FC32194B1B681343184A1360184B18
:102E200001221A707B681B68164A93421CD1164B0C
:102E30009B785B09DBB203F00703144A1360124B63
:102E40005B78DA00114B1B681343104A13600E4B7A
:102E50001B78DB0203F4FC320C4B1B6813430B4A58
:102E600013600B4B01221A7000BF0C37BD465DF892
:102E7000047B70470034014094070020280A00209A
:102E80001E0A0020003C00409C0700202C0A002065
:102E90001F0A002080B584B000AF03460A46FB71CC
:102EA0001346BB714C4B00221A80FB79012B77D162
:102EB0004A4B01221A704A4B1A78484B5A70494BB8
:102EC0001A78464B9A70484B1B781A46434BDA7077
:102ED000464B1A78414B1A71454B1A783F4B5A7141
:102EE000444B1A783D4B9A71424B5A783B4BDA71FE
:102EF000404B9A78394B1A723F4B1B68DAB2374B0A
:102F00005A723D4B1B681B0ADAB2344B9A723A4B29
:102F10001B681B0CDAB2314BDA72384B1B68DAB221
:102F20002E4BDA73354B1B681B0ADAB22B4B1A7423
:102F3000324B1B681B0CDAB2284B5A74274B002209
:102F4000DA77264B002283F820200023FB6016E06E
:102F5000224AFB6813441B789AB2FB6801331F496D
:102F6000CB5C9BB21B029BB213449AB21A4B1B88D8
:102F700013449AB2184B1A80FB680233FB60FB685B
:102F80001D2BE5DD154B9B7F9AB2134B1B88134419
:102F90009AB2114B1A801A4B0F4A12881A8010E00D
:102FA00021210E48FDF727FC0C4AFB7913700B4AD0
:102FB000BB795370094AFB79D377084ABB7982F809
:102FC00020306423212205490E4806F088F800BF0E
:102FD0001037BD4680BD00BFFE070020A4070020BB
:102FE000220A0020230A0020240A0020250A0020AB
:102FF000270A0020AC080020280A00202C0A002004
:10300000C30700204C06002080B582B000AF00232B
:10301000FB801F4B0B221A701D4B0022DA771C4BD2
:10302000002283F8202000233B6013E0184A3B680D
:1030300013441B789AB23B6801331549CB5C9BB2B1
:103040001B029BB213449AB2FB881344FB803B687B
:1030500002333B603B681D2BE8DD0D4B9B7F9AB232
:10306000FB881344FB800B4AFB8813800A4806F058
:1030700003F9642321220649074806F030F80622A6
:103080000649054806F0B4F800BF0837BD4680BDC4
:10309000C8070020E70700204C0600209408002005
:1030A00080B485B000AF78600B46FB700023FB60F6
:1030B000FB78002B14D01E4B1A687B681344B3F5C1
:1030C000003F07D91A4B1A687B681344A3F50033F5
:1030D000FB6019E0164B1B687A681344FB6013E031
:1030E000144B1A687B681344B3F5003F07D9114BA2
:1030F0001A687B681344A3F50033FB6004E00D4BB2
:103100001B687A681344FB60FB68002B01D15C23C9
:10311000FB60FB68B3F5003F02D1FB685C3BFB60E2
:10312000FB6818461437BD465DF8047B704700BF46
:103130006C0800206808002080B483B000AF03460C
:10314000FB71FB79802B5CD0802B5CDC202B47DC77
:10315000002B58DD013B1F2B55D801A252F823F05C
:10316000E7310008EB31000807320008EF310008B2
:10317000073200080732000807320008F331000860
:10318000073200080732000807320008073200083B
:10319000073200080732000807320008F73100083C
:1031A000073200080732000807320008073200081B
:1031B000073200080732000807320008073200080B
:1031C00007320008073200080732000807320008FB
:1031D000073200080732000807320008FB310008F8
:1031E000402B0CD00FE000230EE011230CE0222333
:1031F0000AE0332308E0442306E0552304E0662375
:1032000002E0772300E0012318460C37BD465DF845
:10321000047B704780B400AF1F4B1B781A461E4BCF
:103220005B7813441C4A92781344DBB21A4AD27872
:1032300093422CD1184B1B79A52B28D1174B1B7807
:10324000002B12D0144B1A78154B1A70124B5A7867
:10325000134B5A70104B9A78114B9A70114B1B8874
:1032600001339AB20F4B1A800BE00B4B1A780E4BBE
:103270001A70094B5A780C4B5A70074B9A780A4BC4
:103280009A700A4B1B8801339AB2084B1A8000BF10
:10329000BD465DF8047B7047A40800203D0800206F
:1032A000B4080020F0070020AC080020F20700203E
:1032B00080B500AF21210D48FDF79DFA0B4B0C2284
:1032C0001A700B4B1A78094B5A70084B0C22DA779C
:1032D000074B1A78054B83F82020642321220349E9
:1032E000044805F0FCFE00BF80BD00BFA40700201D
:1032F000350800204C06002080B500AF1D4B1B7820
:103300004B21184600F028FF1A4B1B78002B17D0D2
:10331000194B1B681A1F194B1B689A4227D8164B6A
:103320001B681A1D164B1B689A4220D3154805F0DE
:103330002BFA154805F028FA144B00221A7016E0F3
:10334000134B1B681A1F0E4B1B689A420FD8104B69
:103350001B681A1D0A4B1B689A4208D30D4805F0DA
:1033600013FA094805F010FA084B00221A7000BF42
:1033700080BD00BF74000020740800202C0A0020CB
:10338000280A0020B003002094040020230A002013
:10339000700800206403002080B500AF224B1B782A
:1033A0004B21184600F0D8FE1F4B1B78002B1CD079
:1033B0001E4B1B68A3F12E021D4B1B689A4230D88E
:1033C0001A4B1B6803F12E02194B1B689A4228D333
:1033D000184805F0D9F9184805F0D6F9174B00221E
:1033E0001A70174B00221A701BE0164B1B68A3F1D2
:1033F0002E02154B1B689A4213D8124B1B6803F11F
:103400002E02114B1B689A420BD3104805F0BCF9F1
:10341000094805F0B9F9094B00221A70084B00223F
:103420001A7000BF80BD00BF740000207C0800201F
:103430002C0A0020B003002094040020230A00205E
:10344000240A002078080020280A002064030020B5
:1034500080B500AF1D4B1B786421184600F07CFE40
:103460001B4B1B7883F00103DBB2002B13D0194BED
:103470001B68A3F12E02184B1B689A4224D8154BE7
:103480001B6803F12E02144B1B689A421CD3104B8D
:1034900001221A7018E0114B1B68A3F12E020E4B8B
:1034A0001B689A4210D80D4B1B6803F12E020A4B81
:1034B0001B689A4208D30A4805F066F9094805F0E6
:1034C00063F9094B00221A7000BF80BD7400002010
:1034D0004108002080080020280A002070080020F1
:1034E0006403002094040020230A002080B500AF6C
:1034F0009F4B1B7883F00103DBB2002B2AD09D4B3E
:1035000001221A709C4B1B685A1F9C4B1B689A42E5
:1035100020D8994B1B685A1D984B1B689A4219D3A7
:10352000974805F031F9974B1B78974A1268114676
:103530001846FFF72BFB934B1B78944A127892B2F4
:103540001146184600F008FE894B01221A708C487B
:1035500005F0A2F8864B1B78002B00F0C4808C4B42
:103560001B7883F00103DBB2002B2AD0814B0022B1
:103570001A70854B1B685A1F804B1B689A4220D8D3
:10358000814B1B685A1D7D4B1B689A4219D3804B97
:1035900001221A7005227F497F4805F029FE012289
:1035A0004FF400617D4803F097F87D4B01221A70BB
:1035B0001E20FDF74DF800224FF40061774803F01C
:1035C0008BF8734B1B78002B00F08D80754B1B78AC
:1035D00083F00103DBB2002B00F08580674B1A6893
:1035E000714B1B689A4228D36F4B1B6803F12E0264
:1035F000624B1B689A4220D305226649664805F053
:10360000F7FD01224FF40061644803F065F8644B54
:1036100001221A701E20FDF71BF800224FF40061F2
:103620005E4803F059F8614B1B8801339AB25F4B37
:103630001A805C4B01221A7098E05D4B1B681A1FC0
:103640004E4B1B689A4236D8594B1B681A1D4B4B80
:103650001B689A422FD3574B1B881A46544B1B6842
:103660001344534A1360524B1B68B3F5003F05D314
:103670004F4B1B68A3F500334D4A136005224549A3
:10368000454805F0B5FD01224FF40061434803F0C1
:1036900023F8434B01221A701E20FCF7D9FF0022A9
:1036A0004FF400613D4803F017F8404B1B8801338D
:1036B0009AB23E4B1A80404B1B78002B13D03F4BE5
:1036C0001B6803F2DA222D4B1B689A420BD83B4B46
:1036D0001B6803F2B452294B1B689A4203D3374B41
:1036E0001B68314A13602F4B1B78002B3ED02C4BAC
:1036F0001B7883F00103DBB2002B37D0304B1B78F3
:10370000002B33D12F4B1B78002B0FD02D4B1B7868
:103710001A4652001344DBB20133DBB21A462121B0
:103720002948FDF784F8264B01221A70254B002208
:103730001A70264B01221A70254B00221A70254B55
:1037400000221A70244B01221A70164B01221A70A3
:10375000134B00221A70214B00221A70FDF707F854
:10376000074805F011F81E4805F00EF880BD00BFAF
:1037700038080020240A002060080020280A0020C1
:1037800064030020740000204C0800207700002013
:1037900036080020A4080020C405002000000240D4
:1037A0003D0800203708002054080020F8070020BA
:1037B000300A0020880800204A0800205C08002009
:1037C000250A0020E9070020C80700200500002086
:1037D000230A002034080020220A00204808002084
:1037E0009404002080B500AF9F4B1B7883F0010349
:1037F000DBB2002B2AD09D4B01221A709C4B1B6818
:103800005A1F9C4B1B689A4220D8994B1B685A1D23
:10381000984B1B689A4219D3974804F0B5FF974B11
:103820001B78974A126811461846FFF7AFF9934B79
:103830001B78944A127892B21146184600F08CFC1C
:10384000894B01221A708C4804F026FF864B1B78A6
:10385000002B00F0C6808C4B1B7883F00103DBB299
:10386000002B2AD0814B00221A70854B1B685A1FEF
:10387000804B1B689A4220D8814B1B685A1D7D4B98
:103880001B689A4219D3804B01221A7005227F4986
:103890007F4805F0ADFC01224FF400617D4802F045
:1038A0001BFF7D4B01221A700A20FCF7D1FE00227B
:1038B0004FF40061774802F00FFF734B1B78002B29
:1038C00000F08F80754B1B7883F00103DBB2002B77
:1038D00000F08780724B1B68A3F10802654B1B68E0
:1038E0009A4228D86E4B1B6803F10802614B1B6893
:1038F0009A4220D305226549654805F079FC0122EA
:103900004FF40061634802F0E7FE634B01221A7036
:103910000A20FCF79DFE00224FF400615D4802F092
:10392000DBFE604B1B8801339AB25E4B1A805B4B07
:1039300001221A7096E05C4B1B681A1F4D4B1B68E6
:103940009A4236D8584B1B681A1D4A4B1B689A423C
:103950002FD3564B1B881A46534B1B681344524AAD
:103960001360514B1B68B3F5003F05D34E4B1B68EA
:10397000A3F500334C4A136005224449444805F03E
:1039800037FC01224FF40061424802F0A5FE424B91
:1039900001221A700A20FCF75BFE00224FF400613E
:1039A0003C4802F099FE3F4B1B8801339AB23D4BD5
:1039B0001A803F4B1B78002B13D03E4B1B6803F241
:1039C000DA222C4B1B689A420BD83A4B1B6803F245
:1039D000B452284B1B689A4203D3364B1B68304ABB
:1039E00013602E4B1B78002B3CD02B4B1B7883F0A5
:1039F0000103DBB2002B35D02F4B1B78002B31D1CC
:103A00002E4B1B78002B0FD02C4B1B781A465200E4
:103A10001344DBB20133DBB21A4621212848FCF7FC
:103A200006FF254B01221A70264804F0ADFE12480D
:103A300004F0AAFE214B00221A70234B01221A70B7
:103A4000224B00221A70224B00221A70214B0122B5
:103A50001A70124B01221A700F4B00221A701E4B63
:103A600000221A7080BD00BF38080020240A002000
:103A7000640800202C0A0020B003002074000020FD
:103A8000500800207700002036080020A4080020FD
:103A9000C4050020000002403D0800203708002037
:103AA00058080020F8070020340A00208A08002067
:103AB0004A0800205C080020250A0020E9070020B1
:103AC000C80700209404002005000020230A0020DD
:103AD00034080020220A00204808002080B582B067
:103AE00000AF984B1B7883F00103DBB2002B02D0B0
:103AF000944B01221A70934B1B78002B00F0E3804B
:103B0000914B1B7883F00103DBB2002B00F0DB80CC
:103B10008E4B1B7883F00103DBB2002B21D08C4B42
:103B200001221A708B4B1B685A1F8B4B1B689A42E1
:103B300017D8884B1B685A1D874B1B689A4210D3B5
:103B4000864804F021FE864B1B78864A126811468F
:103B50001846FFF71BF87D4B01221A707F4804F0CE
:103B60009BFD7A4B1B78002B00F0AD807E4B1B78C1
:103B700083F00103DBB2002B2AD0754B00221A70B0
:103B8000784B1B685A1F744B1B689A4220D8754BA0
:103B90001B685A1D704B1B689A4219D3724B012245
:103BA0001A7005227149724805F022FB01224FF478
:103BB0000061704802F090FD6F4B01221A700220E4
:103BC000FCF746FD00224FF400616A4802F084FDD4
:103BD000654B1B78002B76D0684B1B7883F0010374
:103BE000DBB2002B6FD0664B1B68A3F108025A4B67
:103BF0001B689A4234D8624B1B6803F10802564B8B
:103C00001B689A422CD35F4B1B78002B0FD05D4B67
:103C10001B781A4652001344DBB20133DBB21A465A
:103C200021215948FCF703FE584B01221A70554BCD
:103C300000221A70564B01221A70564B00221A703D
:103C40004D4B00221A70454804F09EFD524804F086
:103C50009BFD3D4B01221A703D4B01221A7032E050
:103C60004E4B1B681A1F3C4B1B689A422BD84B4B80
:103C70001B681A1D384B1B689A4224D3484B1B887B
:103C80001A46464B1B681344444A136005223749C1
:103C9000374805F0ADFA01224FF40061354802F0D3
:103CA0001BFD354B01221A700220FCF7D1FC0022CB
:103CB0004FF400612F4802F00FFD3A4B1B8801338F
:103CC0009AB2384B1A80204B1B78002B00F0A5804D
:103CD000354B1B78002B02D000F0B4F89DE01A4B56
:103CE0001B78002B00F099802B4804F04DFD2F48E5
:103CF00004F04AFD1C4B00221A70144B00221A706B
:103D00001E4B00221A70174B1B687B601C4A7B6895
:103D100013601B4B1B68134A1360254BB3F900302B
:103D2000B3F5B27F48DB224BB3F900300533002BEB
:103D3000B8BF5B429AB21F4B1A801E4B4FF6986277
:103D40001A8041E03B080020390800203808002094
:103D5000240A002060080020280A002064030020B4
:103D6000740000204C08002036080020A408002021
:103D7000C4050020000002403D0800203708002054
:103D800054080020E9070020C8070020250A002069
:103D9000050000203408002094040020300A002090
:103DA00088080020F80700203A080020B00300200F
:103DB0008E080020900800201A4BB3F900309BB207
:103DC00005339AB2184B1A80174B1B885B04174AAD
:103DD00082FB03121A441212DB17D31A1A46144B31
:103DE0001A60134B1B68134A127811461846FFF7E6
:103DF00057F903460E4A13600E4B1B780C4A1268A3
:103E000011461846FEF7C2FE0B4B01221A700B48F2
:103E100004F042FC0A4804F03FFC00BF0837BD46EE
:103E200080BD00BF8E08002090080020B7600BB650
:103E300060080020740000203A080020940400204C
:103E40006403002080B500AF6E4B1B7883F0010344
:103E5000DBB2002B21D06C4B01221A706B4B1B681C
:103E60005A1F6B4B1B689A4217D8684B1B685A1D28
:103E7000674B1B689A4210D3664804F085FC664B7A
:103E80001B78664A126811461846FEF77FFE5D4BA6
:103E900001221A705F4804F0FFFB5A4B1B78002B7D
:103EA00000F0AE805E4B1B7883F00103DBB2002B89
:103EB0002AD0554B00221A70584B1B685A1F544B7E
:103EC0001B689A4220D8554B1B685A1D504B1B68E3
:103ED0009A4219D3524B01221A7005225149524875
:103EE00005F086F901224FF40061504802F0F4FB1E
:103EF0004F4B01221A700220FCF7AAFB00224FF45C
:103F000000614A4802F0E8FB454B1B78002B77D054
:103F1000484B1B7883F00103DBB2002B70D0464B7B
:103F20001B681A1F3A4B1B689A4236D8424B1B68D3
:103F30001A1D374B1B689A422FD3404B1B78002B1E
:103F40000FD03E4B1B781A4652001344DBB20133AC
:103F5000DBB21A4621213A48FCF769FC394B0122B1
:103F60001A70364B00221A70374B01221A70374BE9
:103F700000221A70364B00221A70364B01221A703A
:103F80002C4B01221A702A4B00221A70214804F08F
:103F9000FBFB314804F0F8FB32E0304B1B681A1F82
:103FA0001B4B1B689A422BD82C4B1B681A1D184BB5
:103FB0001B689A4224D32A4B1B881A46274B1B683E
:103FC0001344264A136005221649174805F010F9D4
:103FD00001224FF40061154802F07EFB144B0122D0
:103FE0001A700220FCF734FB00224FF400610F48E6
:103FF00002F072FB1B4B1B8801339AB2194B1A80DB
:1040000000BF80BD38080020240A0020600800207E
:10401000280A002064030020740000204C080020BF
:1040200036080020A4080020C4050020000002403B
:104030003D0800203708002054080020E907002030
:10404000C8070020250A002005000020230A0020C0
:1040500034080020220A002094040020300A0020A6
:1040600088080020F807002080B487B000AF78608F
:1040700039607B680C4AA2FB0323DB087B613B6849
:104080005B00094AA2FB0323DB083B617A693B69B9
:10409000B2FBF3F39BB20133FB81FB8918461C375B
:1040A000BD465DF8047B7047CDCCCCCC80B400AF6E
:1040B000224B1A68224B1B689A4238D31F4B1B684D
:1040C0009AB21F4B1B689BB2D31A9AB21D4B1B8826
:1040D00013449AB21B4B1A801A4B1B881A461A4B70
:1040E0001B681344184A1360164B1B88C72B1ED934
:1040F000164B1B881946134B1B88154AA2FB03233A
:104100009B099BB25B00CB1A1A46124B1A600D4BEF
:104110001B880F4AA2FB03129209C82101FB02F27D
:104120009B1A9AB2074B1A800A4B1B6801E0074B97
:104130001B881846BD465DF8047B704708080020C0
:104140000C08002002080020380A0020EC0700209C
:104150001F85EB511408002080B485B000AF0346E2
:104160000A46FB711346BB800023FB60134BFB60C8
:10417000FB79002B0ED0124B1B689B6A0133FA6847
:10418000B2FBF3F2BB88B2FBF3F20D4B1B68013AB2
:10419000DA620DE00A4B1B689B6A0133FA68B2FBD6
:1041A000F3F2BB88B2FBF3F2064B1B68013ADA620A
:1041B00000BF1437BD465DF8047B704700F36F06FF
:1041C000B00300206403002080B485B000AF7860A5
:1041D0000B467B800023FB810023BB812EE0FB8903
:1041E0007A6813441A78BB8911461A4A42F8231098
:1041F000BB89184A52F82320FB89013379680B44A4
:104200001B781B021946BB890A43124941F8232037
:10421000BB89104A52F82320FB89023379680B448A
:104220001B781B041946BB890A430A4941F823201D
:10423000FB890333FB81BB890133BB81FA897B880E
:104240009A42CCD300BF00BF1437BD465DF8047B53
:10425000704700BF5409002080B582B000AF03460C
:10426000FB80FB8840F26D1293424ED0B3F5B77FCE
:104270006DDAB62B54D0B62B69DC1D2B42DC002B3B
:1042800065DD013B1C2B62D801A252F823F000BF70
:10429000374300084F430008374300084F430008E6
:1042A0004F430008374300084F4300084F430008BE
:1042B0004F4300084F4300084F4300084F43000896
:1042C0004F4300084F4300084F4300084F43000886
:1042D0004F4300084F4300084F4300084F43000876
:1042E0004F4300084F4300084F4300084F43000866
:1042F0004F4300084F4300084F4300084F43000856
:10430000374300083C2B16D021E0134B28221A70AB
:10431000114B1A78114B1A70C82000F021F816E0E2
:104320000D4B28221A700C4B1A780C4B1A70C820AF
:1043300000F016F80BE0084B28221A70064B1A788A
:10434000064B1A704FF47A7000F00AF800BF00BFF5
:104350000837BD4680BD00BF7800002077000020F0
:1043600080B483B000AF0346FB80FB885A1E044B29
:104370001B68DA6200BF0C37BD465DF8047B7047EE
:104380009404002080B584B000AF78607B68D3F8D7
:10439000843003F00803002B08D07B681B680822D8
:1043A0001A621B4B1B685B6ADBB2FB737B68194AA2
:1043B000934229D17B68D3F8843003F00803002BA3
:1043C0000ED07B681B6808221A62124B1B685B6A5E
:1043D000DBB2BB73062210490E4804F009FF13E05C
:1043E0007B681B68DB690D4A13607B68D3F88430F7
:1043F0000B4A1360074804F035FEFDF73DF906222D
:104400000549044804F0F4FE00BF1037BD4680BDE6
:10441000C40500204C06002094080020200800203D
:104420002408002080B400AF72B600BFFEE7000091
:1044300080B582B000AF0F4B1B6C0E4A43F0805327
:1044400013640C4B1B6C03F080537B607B68094B3F
:104450005B6C084A43F480435364064B5B6C03F483
:1044600080433B603B68052000F034FF00BF083705
:10447000BD4680BD0038024080B58CB000AF78608A
:1044800007F11C0300221A605A609A60DA601A6110
:104490007B681B68984A934240F0A080974B1B6C46
:1044A000964A43F400431364944B1B6C03F400439B
:1044B000BB61BB69914B1B6B904A43F002031363D2
:1044C0008E4B1B6B03F002037B617B698B4B1B6B79
:1044D0008A4A43F004031363884B1B6B03F0040305
:1044E0003B613B690423FB6102233B6200237B6247
:1044F0000323BB620723FB6207F11C0319468048B4
:1045000001F052FE4FF44063FB6102233B62002343
:104510007B620323BB620623FB6207F11C0319467F
:10452000784801F041FE784B784A1A60764B0022B9
:104530005A60754B00229A60734B0022DA60724B0E
:104540004FF480621A61704B00225A616E4B002258
:104550009A616D4B0022DA616B4B00221A626A4B42
:1045600000225A62684800F005FF0346002B01D084
:10457000FFF758FF7B68644A9A65634A7B689363D8
:10458000634B644A1A60624B00225A60604B4022BF
:104590009A605F4B0022DA605D4B4FF480621A61D3
:1045A0005B4B00225A615A4B00229A61584B002201
:1045B000DA61574B00221A62554B00225A62544866
:1045C00000F0D8FE0346002B01D0FFF72BFF7B68DD
:1045D0004F4A5A654E4A7B68936389E07B681B6843
:1045E0004D4A934240F08480444B5B6C434A43F411
:1045F00000535364414B5B6C03F40053FB60FB6856
:104600003E4B1B6B3D4A43F0100313633B4B1B6B4C
:1046100003F01003BB60BB686423FB6102233B62B1
:1046200000237B620323BB620523FB6207F11C03AB
:1046300019463A4801F0B8FD394B3A4A1A60384BEE
:104640004FF000625A60364B00229A60344B0022D1
:10465000DA60334B4FF480621A61314B00225A61A9
:104660002F4B00229A612E4B0022DA612C4B002244
:104670001A622B4B00225A62294800F07BFE034647
:10468000002B01D0FFF7CEFE7B68254A9A65244AAD
:104690007B689363244B254A1A60234B4FF00062DA
:1046A0005A60214B40229A601F4B0022DA601E4B59
:1046B0004FF480621A611C4B00225A611A4B00228F
:1046C0009A61194B0022DA61174B00221A62164BCD
:1046D00000225A62144800F04DFE0346002B01D020
:1046E000FFF7A0FE7B68104A5A650F4A7B68936308
:1046F00000BF3037BD4680BD003C0040003802405E
:104700000004024000080240E40100201060024062
:104710004402002088600240003401400010024042
:10472000A402002010640240040300202864024018
:1047300080B58AB000AF78607B681B68B3F1804FAA
:1047400014D1634B1B6C624A43F001031364604B4A
:104750001B6C03F001037B627B6A002202211C2098
:1047600000F0C3FD1C2000F0DCFDACE07B681B68A2
:10477000584A934214D1564B1B6C554A43F00203DE
:104780001364534B1B6C03F002033B623B6A002231
:1047900002211D2000F0A9FD1D2000F0C2FD92E0C5
:1047A0007B681B684C4A934214D1494B1B6C484AA6
:1047B00043F008031364464B1B6C03F00803FB61D2
:1047C000FB6900220121322000F08FFD322000F031
:1047D000A8FD78E07B681B68404A93420CD13C4BB3
:1047E0001B6C3B4A43F010031364394B1B6C03F002
:1047F0001003BB61BB6966E07B681B68384A934263
:1048000014D1334B1B6C324A43F020031364304BFA
:104810001B6C03F020037B617B690022022137209F
:1048200000F063FD372000F07CFD4CE07B681B68E6
:104830002C4A934214D1264B5B6C254A43F4003337
:104840005364234B5B6C03F400333B613B690322ED
:104850000321192000F049FD192000F062FD32E02B
:104860007B681B68204A934214D1194B1B6C184A71
:1048700043F080031364164B1B6C03F08003FB6052
:10488000FB68012201212C2000F02FFD2C2000F0DC
:1048900048FD18E07B681B68144A934213D10C4B07
:1048A0001B6C0B4A43F480731364094B1B6C03F4B9
:1048B0008073BB60BB68012201212D2000F015FD33
:1048C0002D2000F02EFD00BF2837BD4680BD00BF63
:1048D0000038024000040040000C0040001000407E
:1048E0000014004000440140001C00400020004033
:1048F00080B5ACB000AF786007F19C0300221A606D
:104900005A609A60DA601A6107F11C038022002164
:10491000184605F039FF7B681B687A4A934273D1C9
:104920004023FB610023BB6507F11C03184602F01E
:1049300021FC0346002B01D0FFF774FD724B5B6C2A
:10494000714A43F0100353646F4B5B6C03F0100328
:10495000BB61BB696C4B1B6B6B4A43F00103136378
:10496000694B1B6B03F001037B617B694FF4C063F0
:10497000C7F89C300223C7F8A0300023C7F8A43042
:104980000323C7F8A8300723C7F8AC3007F19C030E
:1049900019465E4801F008FC5D4B5E4A1A605C4BAC
:1049A0004FF000625A605A4B00229A60584B002226
:1049B000DA60574B4FF480621A61554B00225A61FE
:1049C000534B00229A61524B0022DA61504B4FF454
:1049D00000321A624E4B00225A624D4800F0CAFC67
:1049E0000346002B01D0FFF71DFD7B68484A5A673C
:1049F000474A7B68936300220121252000F075FC63
:104A0000252000F08EFC78E07B681B68424A9342C8
:104A100073D14FF48073FB6100233B6607F11C03E5
:104A2000184602F0A7FB0346002B01D0FFF7FAFC63
:104A3000354B1B6C344A43F480231364324B1B6C9C
:104A400003F480233B613B692F4B1B6B2E4A43F0E1
:104A5000020313632C4B1B6B03F00203FB60FB6828
:104A60004FF49843C7F89C300223C7F8A0300023C6
:104A7000C7F8A4300323C7F8A8300723C7F8AC3021
:104A800007F19C031946254801F08EFB244B254A6B
:104A90001A60234B4FF000625A60214B00229A604B
:104AA0001F4B0022DA601E4B4FF480621A611C4BD0
:104AB00000225A611A4B00229A61194B4FF48072FE
:104AC000DA61174B00221A62154B00225A62144811
:104AD00000F050FC0346002B01D0FFF7A3FC7B68DD
:104AE0000F4A5A670E4A7B689363002201212720F0
:104AF00000F0FBFB272000F014FC00BFB037BD46E0
:104B000080BD00BF0010014000380240000002409C
:104B1000D4060020406402400048004000040240E7
:104B2000340700202860024080B582B000AF786072
:104B30007B681B68194A934213D1194B5B6C184A66
:104B400023F0100353644FF4C061164801F0C8FC11
:104B50007B685B6F184600F0BBFC252000F0EFFB84
:104B600017E07B681B68104A934212D10C4B1B6CF8
:104B70000B4A23F4802313644FF498410B4801F04F
:104B8000AFFC7B685B6F184600F0A2FC272000F0AA
:104B9000D6FB00BF0837BD4680BD00BF00100140F6
:104BA000003802400000024000480040000402407B
:104BB00080B400AFFEE780B400AFFEE780B400AF82
:104BC000FEE780B400AFFEE780B400AFFEE780B43C
:104BD00000AF00BFBD465DF8047B704780B400AFF6
:104BE00000BFBD465DF8047B704780B400AF00BFD6
:104BF000BD465DF8047B704780B500AF00F032FA27
:104C000000BF80BD80B500AF024800F0B1FD00BF1D
:104C100080BD00BFE401002080B500AF024800F075
:104C2000A7FD00BF80BD00BF3407002080B500AFE6
:104C3000024800F09DFD00BF80BD00BF440200207F
:104C400080B500AF034B01221A70034803F0CCFD7E
:104C500000BF80BD46080020E004002080B500AF02
:104C60002021064801F051FD054B1B6800225A62C5
:104C7000034803F0B9FD00BF80BD00BF0000024043
:104C80006403002080B500AF0121064801F03DFD1E
:104C9000054B1B6800225A62034803F0A5FD00BFC4
:104CA00080BD00BF00040240B003002080B500AF0B
:104CB000024804F073FB00BF80BD00BFC4050020A4
:104CC00080B500AF024804F069FB00BF80BD00BFA3
:104CD0004C06002080B500AF0A4B1B680133094A1F
:104CE0001360094B00221A60084B1B685A6A084B74
:104CF0001B681344064A1360044803F075FD00BFA7
:104D000080BD00BFFA070020470800202C050020C6
:104D10000808002080B500AF034B01221A70034839
:104D200003F062FD00BF80BD45080020780500202B
:104D300080B500AF134B1A68134B1B689A4212D20E
:104D4000124B1B881946104B1A680E4B1B68D31A5E
:104D500003FB01F20E4B1B685200DA620C4B1B681E
:104D600000225A6208E00B4803F06EFC084803F08A
:104D70006BFC094B01221A60054803F035FD00BFAA
:104D800080BD00BF180800201C080020EC07002090
:104D9000FC030020780500203C08002080B500AF0F
:104DA0000D4B1B7883F00103DBB2002B05D00522ED
:104DB0000A490B4802F0D4FD04E0052209490A48DB
:104DC00002F0CEFD094B1B6800225A62074803F02F
:104DD0000BFD00BF80BD00BF7400002094070020C1
:104DE000800100209C0700201C010020940400206A
:104DF00080B500AF024800F0BBFC00BF80BD00BF23
:104E0000A402002080B500AF024800F0B1FC00BF52
:104E100080BD00BF0403002080B500AF024800F051
:104E2000A7FC00BF80BD00BFD406002080B586B0BF
:104E300000AFF860B9607A6000237B610AE0AFF3ED
:104E400000800146BB685A1CBA60CAB21A707B69FE
:104E500001337B617A697B689A42F0DB7B68184694
:104E60001837BD4680BD80B586B000AFF860B96028
:104E70007A6000237B6109E0BB685A1CBA601B782A
:104E80001846FDF721FF7B6901337B617A697B68F6
:104E90009A42F1DB7B6818461837BD4680BD80B466
:104EA00083B000AF78604FF0FF3318460C37BD4633
:104EB0005DF8047B704780B483B000AF78603960E0
:104EC0003B684FF400525A60002318460C37BD4629
:104ED0005DF8047B704780B483B000AF7860012335
:104EE00018460C37BD465DF8047B704780B485B02A
:104EF00000AFF860B9607A60002318461437BD46E9
:104F00005DF8047B7047000080B586B000AF786024
:104F1000144A154BD31A7B617B693B61134B1B68A9
:104F2000002B02D1114B124A1A60104B1A687B6891
:104F300013443A699A4207D205F0FCFB03460C225F
:104F40001A604FF0FF3309E0084B1B68FB60074B0A
:104F50001A687B681344054A1360FB6818461837C3
:104F6000BD4680BD00000420000400003C0A002073
:104F7000700A002080B400AF064BD3F88830054A91
:104F800043F47003C2F8883000BFBD465DF8047B6F
:104F9000704700BF00ED00E0DFF834D0FFF7EAFF14
:104FA0000C480D490D4A002302E0D458C450043384
:104FB000C4188C42F9D30A4A0A4C002301E013605A
:104FC0000432A242FBD305F0BBFBFBF7EBFC7047BE
:104FD0000000042000000020EC00002044B2000883
:104FE000EC000020700A0020FEE780B500AF03202F
:104FF00000F070F9002000F005F8FFF719FA00231F
:10500000184680BD80B582B000AF7860124B1A6838
:10501000124B1B7819464FF47A73B3FBF1F3B2FBD2
:10502000F3F3184600F099F90346002B01D0012351
:105030000EE07B680F2B0AD8002279684FF0FF3012
:1050400000F053F9064A7B681360002300E0012357
:1050500018460837BD4680BD7C0000208400002033
:105060008000002080B400AF064B1B781A46064B28
:105070001B681344044A136000BFBD465DF8047BFF
:10508000704700BF84000020400A002080B400AFB9
:10509000034B1B681846BD465DF8047B704700BF94
:1050A000400A002080B584B000AF7860FFF7EEFFC3
:1050B000B8607B68FB60FB68B3F1FF3F05D00A4B2B
:1050C0001B781A46FB681344FB6000BFFFF7DEFF46
:1050D0000246BB68D31AFA689A42F7D800BF00BFED
:1050E0001037BD4680BD00BF8400002080B485B06D
:1050F00000AF78607B6803F00703FB600B4BDB6855
:10510000BB60BA684FF6FF031340BB60FB681A022E
:10511000BB681A43064B1343BB60044ABB68D360A9
:1051200000BF1437BD465DF8047B704700ED00E01A
:105130000000FA0580B400AF044BDB681B0A03F0E3
:1051400007031846BD465DF8047B704700ED00E09C
:1051500080B483B000AF0346FB7197F90730002B92
:105160000BDBFB7903F01F02074997F907305B0956
:10517000012000FA02F241F8232000BF0C37BD469F
:105180005DF8047B704700BF00E100E080B483B0AD
:1051900000AF0346FB7197F90730002B12DBFB7958
:1051A00003F01F020A4997F907305B09012000FA52
:1051B00002F2203341F82320BFF34F8F00BFBFF32B
:1051C0006F8F00BF00BF0C37BD465DF8047B704792
:1051D00000E100E080B483B000AF03463960FB71AA
:1051E00097F90730002B0ADB3B68DAB20C4997F9D4
:1051F00007301201D2B20B4483F800230AE03B6867
:10520000DAB20849FB7903F00F03043B1201D2B272
:105210000B441A7600BF0C37BD465DF8047B70471F
:1052200000E100E000ED00E080B489B000AFF8607C
:10523000B9607A60FB6803F00703FB61FB69C3F1A7
:105240000703042B28BF0423BB61FB690433062B2F
:1052500002D9FB69033B00E000237B614FF0FF3282
:10526000BB6902FA03F3DA43BB681A407B699A40D0
:105270004FF0FF317B6901FA03F3D9437B680B40A0
:10528000134318462437BD465DF8047B7047000081
:1052900080B582B000AF78607B68013BB3F1807F5E
:1052A00001D301230FE00A4A7B68013B53600F21C1
:1052B0004FF0FF30FFF78EFF054B00229A60044B42
:1052C00007221A60002318460837BD4680BD00BF7C
:1052D00010E000E080B582B000AF78607868FFF73A
:1052E00005FF00BF0837BD4680BD80B586B000AF62
:1052F0000346B9607A60FB7300237B61FFF71AFFF6
:1053000078617A68B9687869FFF78EFF024697F985
:105310000F3011461846FFF75DFF00BF1837BD4636
:1053200080BD80B582B000AF0346FB7197F90730AE
:105330001846FFF70DFF00BF0837BD4680BD80B59A
:1053400082B000AF0346FB7197F907301846FFF7AC
:105350001DFF00BF0837BD4680BD80B582B000AFDD
:1053600078607868FFF794FF034618460837BD4613
:1053700080BD000080B586B000AF786000237B61FF
:10538000FFF784FE38617B68002B01D1012399E08F
:105390007B68022283F835207B68002283F8342062
:1053A0007B681B681A687B681B6822F001021A6020
:1053B0000FE0FFF76BFE02463B69D31A052B08D9B5
:1053C0007B6820225A657B68032283F835200323FB
:1053D00078E07B681B681B6803F00103002BE8D1B1
:1053E0007B681B681B687B617A69384B13407B6163
:1053F0007B685A687B689B681A437B68DB681A4342
:105400007B681B691A437B685B691A437B689B69ED
:105410001A437B68DB691A437B681B6A13437A690A
:1054200013437B617B685B6A042B07D17B68DA6A74
:105430007B681B6B13437A6913437B617B681B6832
:105440007A691A607B681B685B697B617B6923F002
:1054500007037B617B685B6A7A6913437B617B68C6
:105460005B6A042B17D17B689B6A7A6913437B6163
:105470007B68DB6A002B0ED0786800F073FB034674
:10548000002B08D07B6840225A657B68002283F895
:105490003520012316E07B681B687A695A617868B9
:1054A00000F02AFB0346FB607B68DB6D3F229A40DD
:1054B000FB689A607B6800225A657B68012283F84A
:1054C0003520002318461837BD4680BD3F8010E0C8
:1054D00080B584B000AF78607B68002B01D10123D8
:1054E00050E07B6893F83530DBB2022B01D1022308
:1054F00048E07B681B681A687B681B6822F0010221
:105500001A607B681B6800221A607B681B68002297
:105510005A607B681B6800229A607B681B680022C7
:10552000DA607B681B6800221A617B681B68212295
:105530005A61786800F0E0FA0346FB607B68DB6D37
:105540003F229A40FB689A607B680022DA637B689E
:1055500000221A647B6800225A647B6800229A64E5
:105560007B680022DA647B6800221A657B6800226F
:105570005A657B68002283F835207B68002283F817
:105580003420002318461037BD4680BD80B586B054
:1055900000AFF860B9607A603B600023FB75FB6880
:1055A0009B6D3B61FB6893F83430012B01D10223E2
:1055B00048E0FB68012283F83420FB6893F835301B
:1055C000DBB2012B37D1FB68022283F83520FB6860
:1055D00000225A653B687A68B968F86800F05EFA9C
:1055E000FB68DB6D3F229A403B699A60FB681B6851
:1055F0001A68FB681B6842F016021A60FB681B6899
:105600005A69FB681B6842F080025A61FB681B6C98
:10561000002B07D0FB681B681A68FB681B6842F008
:1056200008021A60FB681B681A68FB681B6842F076
:1056300001021A6005E0FB68002283F8342002238F
:10564000FB75FB7D18461837BD4680BD80B584B01C
:1056500000AF78607B689B6DFB60FFF717FDB8605B
:105660007B6893F83530DBB2022B08D07B68802250
:105670005A657B68002283F83420012352E07B685E
:105680001B681A687B681B6822F016021A607B6828
:105690001B685A697B681B6822F080025A617B682C
:1056A0001B6C002B03D17B689B6C002B07D07B68A5
:1056B0001B681A687B681B6822F008021A607B6806
:1056C0001B681A687B681B6822F001021A6013E0ED
:1056D000FFF7DCFC0246BB68D31A052B0CD97B68AC
:1056E00020225A657B68032283F835207B680022DC
:1056F00083F83420032315E07B681B681B6803F0E4
:105700000103002BE4D17B68DB6D3F229A40FB68EC
:105710009A607B68012283F835207B68002283F839
:105720003420002318461037BD4680BD80B483B0B6
:1057300000AF78607B6893F83530DBB2022B04D081
:105740007B6880225A6501230CE07B68052283F880
:1057500035207B681B681A687B681B6822F0010291
:105760001A60002318460C37BD465DF8047B70476D
:1057700080B586B000AF78600023BB608E4B1B689D
:105780008E4AA2FB03239B0A7B617B689B6D3B6176
:105790003B691B68FB607B68DB6D08229A40FB68F5
:1057A0001340002B1AD07B681B681B6803F00403AE
:1057B000002B13D07B681B681A687B681B6822F07B
:1057C00004021A607B68DB6D08229A403B699A608C
:1057D0007B685B6D43F001027B685A657B68DB6D1B
:1057E00001229A40FB681340002B12D07B681B6893
:1057F0005B6903F08003002B0BD07B68DB6D01221B
:105800009A403B699A607B685B6D43F002027B685B
:105810005A657B68DB6D04229A40FB681340002BBD
:1058200012D07B681B681B6803F00203002B0BD0AF
:105830007B68DB6D04229A403B699A607B685B6DF4
:1058400043F004027B685A657B68DB6D10229A4046
:10585000FB681340002B43D07B681B681B6803F078
:105860000803002B3CD07B68DB6D10229A403B691B
:105870009A607B681B681B6803F48023002B18D098
:105880007B681B681B6803F40023002B08D17B682E
:105890001B6C002B24D07B681B6C786898471FE03A
:1058A0007B689B6C002B1BD07B689B6C786898474F
:1058B00016E07B681B681B6803F48073002B07D11C
:1058C0007B681B681A687B681B6822F008021A60F4
:1058D0007B681B6C002B03D07B681B6C7868984737
:1058E0007B68DB6D20229A40FB681340002B00F0A0
:1058F0008F807B681B681B6803F01003002B00F08F
:1059000087807B68DB6D20229A403B699A607B68C8
:1059100093F83530DBB2052B36D17B681B681A68EB
:105920007B681B6822F016021A607B681B685A6944
:105930007B681B6822F080025A617B681B6C002B1D
:1059400003D17B689B6C002B07D07B681B681A68AF
:105950007B681B6822F008021A607B68DB6D3F22BF
:105960009A403B699A607B68012283F835207B6806
:10597000002283F834207B681B6D002B7ED07B686F
:105980001B6D7868984779E07B681B681B6803F497
:105990008023002B1DD07B681B681B6803F4002349
:1059A000002B0DD17B685B6C002B31D07B685B6C6E
:1059B000786898472CE000BF7C000020B5814E1B22
:1059C0007B68DB6B002B23D07B68DB6B78689847A8
:1059D0001EE07B681B681B6803F48073002B0FD1EB
:1059E0007B681B681A687B681B6822F010021A60CB
:1059F0007B68012283F835207B68002283F83420FD
:105A00007B68DB6B002B03D07B68DB6B7868984787
:105A10007B685B6D002B32D07B685B6D03F001030C
:105A2000002B22D07B68052283F835207B681B6819
:105A30001A687B681B6822F001021A60BB68013398
:105A4000BB607A699A4207D37B681B681B6803F0C6
:105A50000103002BF2D100E000BF7B68012283F834
:105A600035207B68002283F834207B68DB6C002BB8
:105A700005D07B68DB6C7868984700E000BF18377A
:105A8000BD4680BD80B483B000AF78607B685B6D3D
:105A900018460C37BD465DF8047B704780B485B06E
:105AA00000AFF860B9607A603B60FB681B681A68F9
:105AB000FB681B6822F480221A60FB681B683A6846
:105AC0005A60FB689B68402B08D1FB681B687A68AA
:105AD0009A60FB681B68BA68DA6007E0FB681B68BD
