:020000040800F2
:100000000000042069470008F1430008F743000896
:10001000FD430008034400080944000800000000F4
:100020000000000000000000000000000F44000875
:100030001D440008000000002B440008394400085B
:10004000B9470008B9470008B9470008B947000890
:10005000B9470008B9470008B9470008B947000880
:10006000B9470008B9470008B947000845440008E7
:1000700059440008B9470008B9470008B9470008C3
:100080006D440008B9470008B9470008B94700089F
:10009000B9470008B9470008B9470008B947000840
:1000A000B947000881440008B9470008B94700086B
:1000B00095440008A9440008B9470008B94700085A
:1000C000B9470008B9470008B9470008B947000810
:1000D000B9470008BD440008B9470008D1440008EA
:1000E000B9470008B9470008B9470008B9470008F0
:1000F000E544000825450008B9470008B94700084D
:10010000B9470008B947000841450008B947000849
:10011000B9470008B9470008B9470008AD450008CD
:10012000C1450008D5450008E9450008B947000861
:10013000B9470008000000000000000000000000B7
:10014000000000000000000000000000B9470008A7
:10015000B9470008B9470008B9470008B94700087F
:10016000B9470008B9470008B9470008B94700086F
:10017000B9470008B947000800000000000000006F
:10018000B9470008B9470008B9470008B94700084F
:10019000B9470008B947000800000000B947000847
:1001A000000000000000000000000000B947000847
:1001B000B9470008B947000800000000000000002F
:1001C000000000000000000000000000000000002F
:1001D000000000000000000000000000B947000817
:1001E00010B5054C237833B9044B13B10448AFF371
:1001F00000800123237010BDEC00002000000000EF
:100200005CAF000808B5034B1BB103490348AFF3CB
:10021000008008BD00000000F00000205CAF000876
:1002200001F0FF01102A2BDB10F0070F08D010F8A7
:10023000013B013A8B422DD010F0070F42B3F6D1AB
:10024000F0B441EA012141EA014122F007047FF0C4
:1002500000070023F0E80256083C85EA010586EA1B
:10026000010685FA47F5A3FA87F586FA47F6A5FA57
:1002700087F68EB9EED1F0BC01F0FF0102F0070263
:1002800032B110F8013B013A83EA010313B1F8D10E
:100290000020704701387047002D06BF35460338EF
:1002A000073815F0010F07D1013015F4807F02BF28
:1002B000013015F4C03F0130F0BC0138704700BF79
:1002C00053B94AB9002908BF00281CBF4FF0FF31BD
:1002D0004FF0FF3000F074B9ADF1080C6DE904CEB9
:1002E00000F006F8DDF804E0DDE9022304B0704711
:1002F0002DE9F047089D04468E46002B4DD18A42D9
:10030000944669D9B2FA82F252B101FA02F3C2F10B
:10031000200120FA01F10CFA02FC41EA030E94409C
:100320004FEA1C48210CBEFBF8F61FFA8CF708FBBD
:1003300016E341EA034306FB07F199420AD91CEB95
:10034000030306F1FF3080F01F81994240F21C81C7
:10035000023E63445B1AA4B2B3FBF8F008FB10330F
:1003600044EA034400FB07F7A7420AD91CEB040444
:1003700000F1FF3380F00A81A74240F20781644414
:10038000023840EA0640E41B00261DB1D440002399
:10039000C5E900433146BDE8F0878B4209D9002DFD
:1003A00000F0EF800026C5E9000130463146BDE887
:1003B000F087B3FA83F6002E4AD18B4202D38242F1
:1003C00000F2F980841A61EB030301209E46002DA0
:1003D000E0D0C5E9004EDDE702B9FFDEB2FA82F2F5
:1003E000002A40F09280A1EB0C014FEA1C471FFA53
:1003F0008CFE0126200CB1FBF7F307FB131140EA3A
:1004000001410EFB03F0884208D91CEB010103F106
:10041000FF3802D2884200F2CB804346091AA4B2C8
:10042000B1FBF7F007FB101144EA01440EFB00FE9C
:10043000A64508D91CEB040400F1FF3102D2A64501
:1004400000F2BB800846A4EB0E0440EA03409CE7A0
:10045000C6F12007B34022FA07FC4CEA030C20FA4D
:1004600007F401FA06F31C43F9404FEA1C4900FA6D
:1004700006F3B1FBF9F8200C1FFA8CFE09FB1811EA
:1004800040EA014108FB0EF0884202FA06F20BD95D
:100490001CEB010108F1FF3A80F08880884240F2AD
:1004A0008580A8F102086144091AA4B2B1FBF9F0F1
:1004B00009FB101144EA014100FB0EFE8E4508D9EC
:1004C0001CEB010100F1FF346CD28E456AD9023871
:1004D000614440EA0840A0FB0294A1EB0E01A14256
:1004E000C846A64656D353D05DB1B3EB080261EBC4
:1004F0000E0101FA07F722FA06F3F1401F43C5E99E
:10050000007100263146BDE8F087C2F12003D840D3
:100510000CFA02FC21FA03F3914001434FEA1C4715
:100520001FFA8CFEB3FBF7F007FB10360B0C43EA07
:10053000064300FB0EF69E4204FA02F408D91CEBB7
:10054000030300F1FF382FD29E422DD902386344B5
:100550009B1B89B2B3FBF7F607FB163341EA034155
:1005600006FB0EF38B4208D91CEB010106F1FF38A4
:1005700016D28B4214D9023E6144C91A46EA00469B
:1005800038E72E46284605E70646E3E61846F8E62D
:100590004B45A9D2B9EB020864EB0C0E0138A3E776
:1005A0004646EAE7204694E74046D1E7D0467BE757
:1005B000023B614432E7304609E76444023842E7CF
:1005C000704700BF80B582B000AF04F0F6F800F0CD
:1005D00077FA00F0E7FD00F093FD00F055FD00F024
:1005E0001BFD00F017FB00F0D7FA00F051FB00F004
:1005F0009DFB00F039FC00F06DFC00F0A1FC00F068
:10060000E3FB00F0E5FC00F0BFFC914807F0A4FC20
:10061000904807F091FB4FF47A7004F02BF9062212
:100620008D498E4808F0C2F905228D498D4806F0A3
:100630007FFD05228C498D4806F07AFD02F0ECF929
:100640008B4B1A68022302218A4802F045FA894B33
:100650001B68894A1360874B5B68884A1360884B24
:1006600001221A70874B1B78002B01D000F028FE66
:10067000854B1B78002B61D0844B1B8801339AB2C9
:10068000824B1A8002F020FB814B1B78012B0BD090
:100690007F4B1B78022B07D07D4B1B78032B03D09D
:1006A0007B4B1B78042B46D17A4B1B78002B42D016
:1006B0000023FB7110E0FB79774A12781146774AE4
:1006C000D25C774B5A54FB790133FB71724B1B7828
:1006D0000133DAB2704B1A70FB79022BEBD96D4BF8
:1006E00000221A706F4B1B780133DAB26D4B1A700F
:1006F0006C4B1B789AB26C4B1A806C4B1B680133A5
:100700006A4A13606A4B1B8801339AB2684B1A809D
:10071000644B1B780A2B0ED1624B00221A705E4B81
:1007200001221A70634B01221A70634B1B8801333C
:100730009AB2614B1A80544B00221A705F4B1B789F
:10074000002B2CD0524B1B78013B082B23D801A245
:1007500052F823F08B07000891070008970700085C
:1007600097070008970700087F0700089707000809
:10077000790700088507000802F018FB0CE002F07A
:10078000B5FB09E002F05CFB06E002F0F5FB03E0DC
:1007900002F0F2FB00E000BF484B00221A70484B09
:1007A0001B78002B2DD03A4B1B78013B082B24D80B
:1007B00001A252F823F000BFEF070008F507000878
:1007C000FB070008FB070008FB070008E307000819
:1007D000FB070008DD070008E907000802F0E6FA59
:1007E0000CE002F083FB09E002F02AFB06E002F0D5
:1007F00003FD03E002F042FE00E000BF304B0022A8
:100800001A70304B1B78002B7DD0264B1B78002BA9
:100810005AD0284B1B78002B56D11E4B00221A7041
:10082000204B1B781A4652001344DBB20133DBB273
:100830001A4621211A4802F0A1F91E4B01221A7012
:10084000184B00221A70144B01221A705BE000BF93
:100850006003002044040020840800204806002093
:10086000900700207C01002098070020180100203C
:100870007400002024080020580800205C08002094
:10088000AF080020AA080020A9080020F0070020D7
:10089000B00800203508002005000020A408002032
:1008A000C4070020E507002082080020140800206B
:1008B000EA070020B2080020FC070020AB08002057
:1008C000AC08002034080020644B1B78002B1AD1A0
:1008D000634B1B78002B16D1624B00221A70624BBF
:1008E00000221A70614B01221A70614B00221A70AB
:1008F000604B00221A70604B00221A6003F0D8F897
:100900005E4807F029FB5E4B1B78002B1FD05D4B28
:100910001B78002B1BD05C4B1B78052B17D1584B39
:1009200000221A70574B00221A70574BFF221A7080
:100930004C4B04221A704D4B02221A70534B012269
:100940001A70042003F082F8514807F08DFA514BD9
:100950001B78002B3FF486AE4E4B00221A704B4B97
:100960001B78002B2AD04C4B00221A804B4B0022C4
:100970001A8005224A494B4808F018F801224FF422
:100980000061494805F090FA3A4B01221A700A209A
:1009900002F080F900224FF40061434805F084FA28
:1009A0003B4B1B6800225A62404807F05DFA374B08
:1009B00000221A70314807F057FA48E005223849FA
:1009C000384807F0F3FF01224FF40061364805F084
:1009D0006BFA284B01221A700A2002F05BF9002200
:1009E0004FF40061304805F05FFA244807F0B4FA8C
:1009F0002F4B1B881A4613461B049B1A1A462D4B75
:100A00001A601E4B1B685A6A2A4B1B681344294AFA
:100A10001360274B00221A80184B1B6800225A6271
:100A2000164807F021FA03F077F80346224A1360CC
:100A3000174807F0F1F9164B1B681F4A1268DA6273
:100A4000134B1B6800225A62114807F00DFA1B4B2A
:100A50001B8801339AB2194B1A8003E6E507002080
:100A6000B2080020B00800202C080020AF080020A9
:100A70003408002035080020140800202805002034
:100A80003B0800203C0800207A0000203A080020A3
:100A9000740500203D080020EE070020F00700202C
:100AA00094080020C005002000000240F803002048
:100AB000F6070020040800200C080020F40700209E
:100AC00080B594B000AF07F1200330220021184612
:100AD00009F038FA07F10C0300221A605A609A6094
:100AE000DA601A612A4B1B6C294A43F08053136465
:100AF000274B1B6C03F08053BB60BB68254B1B6806
:100B0000244A43F440431360224B1B6803F44043E0
:100B10007B607B6801233B624FF480337B6202235E
:100B2000BB634FF48003FB6304233B64D8237B64E3
:100B30000223BB640223FB6407F12003184605F07F
:100B400037FA0346002B01D003F08CF805F0E0F9EA
:100B50000346002B01D003F085F80F23FB6002232E
:100B60003B6100237B614FF4A053BB614FF4A05362
:100B7000FB6107F10C030721184605F0BDFC034695
:100B8000002B01D003F06EF800BF5037BD4680BD8A
:100B9000003802400070004080B500AF1B4B1C4A7B
:100BA0001A601A4B4FF482725A60184B00229A60F6
:100BB000164B4FF4E062DA60144B02221A61134BB9
:100BC00000225A61114B4FF400729A610F4B382288
:100BD000DA610E4B00221A620C4B00225A620B4B58
:100BE00000229A62094B0722DA62084B00221A633C
:100BF000064B08225A63054806F0EEF90346002B1F
:100C000001D003F02FF800BF80BD00BF1801002005
:100C1000003C004080B500AF1B4B1C4A1A601A4BC9
:100C20004FF482725A60184B00229A60164B4FF4B0
:100C3000E062DA60144B02221A61134B00225A61FF
:100C4000114B4FF400729A610F4B3822DA610E4B50
:100C500000221A620C4B00225A620B4B00229A624D
:100C6000094B0722DA62084B00221A63064B08225E
:100C70005A63054806F0B0F90346002B01D002F094
:100C8000F1FF00BF80BD00BF7C01002000340140A7
:100C900080B588B000AF07F1100300221A605A60D7
:100CA0009A60DA603B1D00221A605A609A601E4BFF
:100CB0004FF080421A601C4B6B225A601A4B002284
:100CC0009A60194B46F2A712DA60174B00221A619C
:100CD000154B00229A61144806F0D6FF0346002BFC
:100CE00001D002F0BFFF4FF480533B6107F11003C6
:100CF00019460D4807F068FA0346002B01D002F0B0
:100D0000B1FF00237B600023FB603B1D19460648B2
:100D100007F08CFC0346002B01D002F0A3FF00BFBC
:100D20002037BD4680BD00BF6003002080B588B07D
:100D300000AF07F1100300221A605A609A60DA606F
:100D40003B1D00221A605A609A601D4B1D4A1A60B2
:100D50001B4B6B225A601A4B00229A60184B43F6C9
:100D60007F62DA60164B00221A61154B00229A61ED
:100D7000134806F089FF0346002B01D002F072FFF2
:100D80004FF480533B6107F1100319460C4807F0FC
:100D90001BFA0346002B01D002F064FF00237B60A6
:100DA0000023FB603B1D1946054807F03FFC034646
:100DB000002B01D002F056FF00BF2037BD4680BD9A
:100DC000AC0300200004004080B588B000AF07F1FC
:100DD000100300221A605A609A60DA603B1D0022FC
:100DE0001A605A609A601E4B1E4A1A601C4B42F6EB
:100DF0002F225A601A4B00229A60194B4FF0FF3293
:100E0000DA60174B00221A61154B00229A611448D0
:100E100006F03AFF0346002B01D002F023FF4FF407
:100E200080533B6107F1100319460D4807F0CCF9D8
:100E30000346002B01D002F015FF00237B60002346
:100E4000FB603B1D1946064807F0F0FB0346002BEC
:100E500001D002F007FF00BF2037BD4680BD00BFB4
:100E6000F8030020000C004080B584B000AF3B1DAB
:100E700000221A605A609A60144B154A1A60134B8C
:100E80006B225A60114B00229A60104B4FF6FF7292
:100E9000DA600E4B00229A610C4806F0F5FE03461C
:100EA000002B01D002F0DEFE00237B600023FB60FC
:100EB0003B1D1946054807F0B9FB0346002B01D03E
:100EC00002F0D0FE00BF1037BD4680BD44040020B4
:100ED0000010004080B584B000AF3B1D00221A60B6
:100EE0005A609A60144B154A1A60134B6B225A6071
:100EF000114B00229A60104B6322DA600E4B0022E5
:100F00009A610D4806F0C0FE0346002B01D002F0A6
:100F1000A9FE00237B600023FB603B1D19460648A9
:100F200007F084FB0346002B01D002F09BFE00BFBC
:100F30001037BD4680BD00BF900400200014004063
:100F400080B500AF0E4B0F4A1A600D4B42F62F22B0
:100F50005A600B4B00229A60094B4FF6FF72DA6021
:100F6000074B00221A61064B00229A61044806F0E2
:100F70008BFE0346002B01D002F074FE00BF80BD43
:100F8000DC0400200044014080B500AF0E4B0F4A46
:100F90001A600D4B40F237425A600B4B00229A60A8
:100FA000094B4FF6FF72DA60074B00221A61064BBD
:100FB00000229A61044806F067FE0346002B01D028
:100FC00002F050FE00BF80BD28050020001C00403C
:100FD00080B500AF0E4B0F4A1A600D4B45F25F42D1
:100FE0005A600B4B00229A60094B4FF6FF72DA6091
:100FF000074B00221A61064B00229A61044806F052
:1010000043FE0346002B01D002F02CFE00BF80BD42
:10101000740500200020004080B500AF184B1B680D
:101020009A68174B1B6842F001029A60144B154AEC
:101030001A60134B4FF416425A60114B00229A600B
:101040000F4B0022DA600E4B00221A610C4B0C226F
:101050005A610B4B00229A61094B0022DA61084B5E
:1010600000221A62064B00225A62054807F08AFBEA
:101070000346002B01D002F0F5FD00BF80BD00BF8C
:10108000C00500200010014080B500AF194B1B685F
:101090009A68184B1B6842F001029A60164B174A77
:1010A0001A60154B4FF4E1325A60134B00229A60DC
:1010B000114B0022DA60104B00221A610E4B0C22F9
:1010C0005A610D4B00229A610B4B0022DA610A4BE8
:1010D00000221A62084B00225A62002300220021DB
:1010E000054808F09DFE0346002B01D002F0BAFD32
:1010F00000BF80BDC0050020480600200048004019
:1011000080B582B000AF264B1B6B254A43F4001319
:101110001363234B1B6B03F400137B607B68204B32
:101120001B6B1F4A43F4800313631D4B1B6B03F4BB
:1011300080033B603B68002201210B2003F0BDFCD3
:101140000B2003F0D6FC002201210C2003F0B5FC9B
:101150000C2003F0CEFC00220121102003F0ADFC96
:10116000102003F0C6FC01220121382003F0A5FC69
:10117000382003F0BEFC01220121392003F09DFC40
:10118000392003F0B6FC002201213A2003F095FC3F
:101190003A2003F0AEFC00BF0837BD4680BD00BF5B
:1011A0000038024080B58AB000AF07F11403002276
:1011B0001A605A609A60DA601A613D4B1B6B3C4AB8
:1011C00043F0100313633A4B1B6B03F010033B61B6
:1011D0003B69374B1B6B364A43F080031363344B38
:1011E0001B6B03F08003FB60FB68314B1B6B304AC9
:1011F00043F0010313632E4B1B6B03F00103BB6031
:10120000BB682B4B1B6B2A4A43F004031363284B28
:101210001B6B03F004037B607B68254B1B6B244A2C
:1012200043F002031363224B1B6B03F002033B608A
:101230003B6800224FF407611E4804F035FE00228F
:1012400020211D4804F030FE002203211B4804F039
:101250002BFE4FF407637B610123BB610023FB611D
:1012600000233B6207F114031946124804F084FB83
:1012700020237B610123BB610023FB6100233B62D0
:1012800007F1140319460C4804F076FB03237B6135
:101290000123BB610023FB6100233B6207F11403C0
:1012A0001946064804F068FB00BF2837BD4680BDDC
:1012B00000380240000002400008024000040240E2
:1012C00080B584B000AF9F4B1B78013B1F2B00F211
:1012D000DD8701A252F823F05913000825160008F3
:1012E000D11300088D220008A71900086D1A000804
:1012F000F31A0008771C00084F1D00089F1D000806
:10130000CD1D00080D1E00088D2200081F1E0008BC
:10131000E31E0008FB1E0008D71F0008032000087A
:10132000232000085B200008C32000088D2200084D
:10133000ED200008072100082F2200088D22000858
:101340008D2200088D2200088D2200088D220008C1
:101350008D2200086D22000805227B497B4805F09C
:10136000E7FE05227A497B4805F0E2FE7A4B1B78BE
:1013700083F00103DBB2002B1AD0784B5B6F93F83C
:101380003530DBB2012B13D105227549734807F0C4
:101390000DFB01224FF40061724804F085FD0A2024
:1013A00001F078FC00224FF400616E4804F07CFDEF
:1013B0006D4806F0C1FC0021012001F0DBF96A480C
:1013C00006F02AFD684B1B6800225A6200F05EBFDF
:1013D0000121032001F0CEF9644B00221A80644BF6
:1013E00000221A805C4B00221A70624B00221A7095
:1013F000614B00221A70614B524A92E80300186058
:10140000043319805D4B5B78013B5D4A13441B7AC2
:10141000B43B002BB8BF5B421AB25A4B1A80574BF1
:101420009B78013B564A13441B7A9BB2B4339BB260
:101430001AB2554B1A80514BDB78013B534A0833A3
:1014400032F81320524B1A804E4BB3F90030042B64
:1014500011DC4C4BB3F90030053B002BB8BF5B42AD
:101460009AB24C4B1A804B4B1B88C3F5B4739AB29B
:10147000484B1A8007E0434BB3F900309BB2053B61
:101480009AB2444B1A80444B00221A70434B0022FC
:101490001A70434B00221A70424B00221A70424BC2
:1014A00000221A70414B00221A703A4B1B885B04D1
:1014B0003F4A82FB03121A441212DB17D31A1A4650
:1014C0003C4B1A603B4B1B682A4A1278114618465F
:1014D00001F056FA0346374A1360264B1B78354A0B
:1014E00012681146184600F05BFF264BB3F9003036
:1014F0005B042F4A82FB03121A441212DB17D31A21
:101500001A462D4B1A602C4B1B681A4A127811464A
:10151000184601F035FA0346274A13601C4B1B8816
:101520001A46254B1B681344B3F5003F48D9184BA6
:101530001B881A46204B1B681344A3F500331F4A2F
:10154000136045E084080020900700207C01002003
:1015500098070020180100202C080020C00500205A
:101560009408002000000240DC040020EA0700206C
:10157000F407002078000020B20800208C0800202A
:10158000080000207C0800207E08002018000020B1
:1015900078080020800800202E0800203008002055
:1015A0002F080020310800203208002033080020D6
:1015B000B7600BB65008002040080020C00800208B
:1015C000944B1B881A46944B1B681344934A136030
:1015D000934BB3F900305B04924A82FB03121A4426
:1015E0001212DB17D31A1A468F4B1A608E4B1B68E8
:1015F0008E4A12781146184601F0C2F903468A4A0B
:1016000013608B4B02221A708A4B02221A708A4B8B
:1016100001221A70894806F027FC894806F024FC4C
:1016200000F034BE0121022001F0A4F8854B002215
:101630001A807B4B00221A80834B00221A80834B36
:1016400000221A80824B00221A80824B00221A70DC
:10165000814B1B78002B14BF01230023DAB2734B9C
:101660001A707E4B00221A707D4B7E4A92E803006E
:101670001860043319807A4B5B78013B7A4A134433
:101680001B7AB43B002BB8BF5B421AB26D4B1A8079
:10169000734B9B78013B744A13441B7A9BB2B4335F
:1016A0009BB21AB25E4B1A80664BB3F90030042B22
:1016B00011DC644BB3F90030053B002BB8BF5B4233
:1016C0009AB2614B1A80604B1B88C3F5B4739AB20F
:1016D0005D4B1A8007E05B4BB3F900309BB2053BD2
:1016E0009AB2594B1A80614B00221A70604B00224B
:1016F0001A70604B00221A704C4B1B7883F0010368
:10170000DBB2002B00F0BC80554BDB78013B5A4A22
:10171000083332F813203F4B1A804B4B1B885B0475
:10172000404A82FB03121A441212DB17D31A1A46DC
:10173000524B1A60514B1B683C4A127811461846AE
:1017400001F01EF903464D4A1360384B1B784B4A93
:1017500012681146184600F023FE3A4BB3F90030E8
:101760005B04304A82FB03121A441212DB17D31AAD
:101770001A46294B1A60284B1B682C4A12781146CE
:10178000184601F0FDF80346234A1360214B1B88DD
:101790001A46214B1B681344B3F5003F0AD91D4B71
:1017A0001B881A461C4B1B681344A3F500331B4AC5
:1017B000136007E0174B1B881A46174B1B6813442E
:1017C000164A1360164BB3F900305B04154A82FBCE
:1017D00003121A441212DB17D31A1A46124B1A605C
:1017E000114B1B68114A12781146184601F0C8F8CF
:1017F00003460D4A13600E4B01221A700D4B022254
:101800001A700E4806F030FB0D4806F02DFB00F074
:101810003ABD00BF7808002040080020C008002022
:101820007E080020B7600BB6480800207800002032
:10183000B0080020AF080020B1080020900400206C
:10184000600300207C08002080080020EA070020B8
:10185000F40700202C080020B3080020B208002064
:101860008C08002084080020080000202E0800209A
:10187000300800202F080020180000205008002009
:10188000A34B1B78002B00F0FE84A24BDB78013BBE
:10189000A14A083332F81320A04B1A80A04B1B88B2
:1018A0005B04A04A82FB03121A441212DB17D31AFC
:1018B0001A469D4B1A609C4B1B68954A127811463C
:1018C000184601F05DF80346974A1360904B1B7869
:1018D000954A12681146184600F062FD934BB3F921
:1018E00000305B048F4A82FB03121A441212DB178A
:1018F000D31A1A468E4B1A608D4B1B68844A127895
:101900001146184601F03CF80346894A1360834BA0
:101910001B881A46864B1B681344B3F5003F0AD94F
:101920007E4B1B881A46824B1B681344A3F5003379
:10193000804A136007E0794B1B881A467C4B1B6872
:1019400013447C4A13607C4BB3F900305B04754A46
:1019500082FB03121A441212DB17D31A1A46774B72
:101960001A60764B1B686A4A12781146184601F0D5
:1019700007F80346714A1360704B1A686C4B1B687A
:101980009A4202D26E4B01221A706E4B01221A70DB
:101990006D4B02221A706D4806F066FA6C4806F02C
:1019A00063FA00F070BC5B4B6A4A92E8030018606F
:1019B00004331980684B1B6800225A62674B01226E
:1019C0001A70674B1B78002B03D0664B05221A70E8
:1019D00002E0644B00221A70634B00221A704D4BD8
:1019E0005B78013B614A52F823204A4B9B78013BCC
:1019F0005F4931F813301946104602F005F80346E6
:101A00005C4A13605C4806F007FA424B5B785A1E4A
:101A1000594B1B68554951F82220DA62564B1B6816
:101A200000225A62554806F0F7F93A4B9B78013B81
:101A30004F4A32F81320524B1A80514B1A884F4BA1
:101A40001B68DA624E4B1B881A4613469B001344F0
:101A50009B001A464B4B1A60484B1B6800225A6287
:101A60000121052000F086FE00F010BC01210620B7
:101A700000F080FE334B06221A70334B01221A709D
:101A8000414B1B881A46224B1B781946104600F022
:101A900077FF03463D4A13603C4B1B683C4A13608A
:101AA0003B4B1B6803F59673B3F5003F06D9384BE3
:101AB0001A68384B1344364A136005E0344B1B68F0
:101AC00003F59673324A1360334B00221A700022DA
:101AD0001021324804F0E8F92D4B1B68194600200C
:101AE00000F05EFC194806F0BFF92D4806F0BCF97D
:101AF000CCE30121072000F03DFE124B1B78022BA6
:101B000002DC002B4EDCAFE0042B7CD0ACE000BF4D
:101B1000780000208C080020180000207A0800209F
:101B200080080020B7600BB6540800207C08002015
:101B300044080020C40800207E0800204C08002033
:101B400038080020B0080020AF08002090040020D2
:101B5000AC03002084080020280500203E08002057
:101B60003B0800207A0000203408002038000020C4
:101B70005C00002018080020F803002074050020F5
:101B8000E607002008080020360800206008002032
:101B9000700800202C01FEFF3908002000000240E0
:101BA00060030020A74806F0D7F9A74806F0D4F94B
:101BB000A64806F0D1F9A64B1B78002B13D0A54BF5
:101BC0001B78002B0FD1A24B1B781A4652001344EE
:101BD000DBB20133DBB21A4621219F4800F0CEFF71
:101BE0009C4B01221A709A4B00221A709B4B0122C7
:101BF0001A709B4B00221A709A4B00221A709A4B53
:101C000000221A7030E0994806F006F9984806F06C
:101C100003F9984806F000F98D4B1B78002B13D080
:101C20008C4B1B78002B0FD1894B1B781A46520026
:101C30001344DBB20133DBB21A462121864800F09F
:101C40009DFF844B01221A70814B00221A70834B36
:101C500001221A70824B00221A70824B00221A70E5
:101C6000854B00221A8000BF844B00221A70844BDF
:101C700001221A700AE30121082000F07BFD0023F5
:101C8000FB80804BDB78002B30D07F4B00221A602A
:101C90007E4B01221A707B4B9B789BB21B02FB8010
:101CA000784B5B789AB2FB881343FB80FB885B041C
:101CB000774A82FB03121A441212DB17D31A1A4610
:101CC000714B1A60704B1B68704A127811461846A7
:101CD00000F056FE03466C4A13606C4B1B786A4A50
:101CE00012681146184600F05BFBCFE2694B0022F8
:101CF0001A60664B00221A70624B9B789BB21B02E3
:101D0000FB80604B5B789AB2FB881343FB80FB88B7
:101D10005B045F4A82FB03121A441212DB17D31AC8
:101D20001A465C4B1A605B4B1B68584A1278114686
:101D3000184600F025FE0346564A1360534B1B78A5
:101D4000544A12681146184600F02AFB9EE24D4B99
:101D50005B78002B14BF01230023DAB24B4B1A70BF
:101D60000121092000F006FD454B01221A70434B6A
:101D700009221A703C4B01221A70424B5B78002BEF
:101D800006D1324806F070F82E4806F06DF87DE274
:101D90002E4806F069F82C4806F066F876E23E4BCD
:101DA000384A92E8030018600433198001210A20A0
:101DB00000F0E0FC384B5B78002B03D0374B01225E
:101DC0001A7063E2354B00221A705FE2344805F066
:101DD000B3FF00F089FD1F4B00221A70314B1B88A6
:101DE00001339AB22F4B1A802D4806F015F82C4B70
:101DF0001B685B6A9AB22C4B1B8813449AB22A4B1D
:101E00001A80274B1B6800225A623FE200F0AAFFAB
:101E10001B4B01221A70254B00221A7036E2194B17
:101E20009B78002B4AD0224B00221A7001221021ED
:101E3000204804F039F8012220211F4804F034F82A
:101E400049E000BF60030020AC03002090040020A4
:101E5000E5070020B2080020C4070020050000208C
:101E60002C08002035080020B1080020740500204F
:101E7000F803002028050020FE070020B0080020FD
:101E8000AF080020840800206C08002078000020A3
:101E9000B7600BB6680800208C080020B30800204B
:101EA000DC040020F2070020E80700202D080020B5
:101EB000AD0800200000024000080240A84B0122AB
:101EC0001A7000221021A74803F0EEFF0022202103
:101ED000A54803F0E9FFA54B5B78184600F0F4F93C
:101EE000D4E1A34B1B78002B40F0CF81A14805F033
:101EF000BBFFA14805F0B8FFC7E10121102000F0A9
:101F000039FC9E4B08221A709D4B00221A60974B99
:101F10009B781B021A469A4B1A60944B5B781A46C0
:101F2000974B1B681343964A1360914B1B78002B09
:101F300029D0944B00221A608C4BDB78002B13D1F4
:101F40008F4B1B685B04DB088F4AA2FB03239B08B3
:101F5000BB608C4B1B68864A12781146184600F00D
:101F60000FFD0346874A1360814B1B78854A126830
:101F70001146184600F014FA7E4805F075FF8348B4
:101F800005F072FF82E1824B00221A60774BDB780A
:101F9000002B11D17A4B1B685B04DB087A4AA2FB49
:101FA00003239B08BB60724B1B781946B86800F08E
:101FB000E7FC0346764A13606D4B1B78744A12683F
:101FC0001146184600F0ECF96A4805F04DFF6A48E2
:101FD00005F04AFF5AE10121112000F0CBFB644BD0
:101FE0001B78002B06D0694805F0B6FF614805F064
:101FF000B3FF4BE1604805F0AFFF5E4805F0ACFF72
:1020000044E10121122000F0B5FB584B5B78002B16
:1020100003D0574B01221A7038E1554B00221A7039
:1020200034E10121132000F0A5FB5A4B1B685A4AEA
:1020300013605A4B1B685A4A1360574B1B68594A26
:102040001360574B1B68574A5360574B1A6802235B
:102050000221544800F0F6FC18E10121142000F0A0
:1020600089FB524B01221A70514B01221A70514BBD
:1020700000221A703D4B5B78184600F09DFD034628
:102080001A464D4B1A70394B9B78012B06D14A4B9F
:102090001B7863F07703DAB2474B1A70464B1A7815
:1020A000454B5A70454806F0C5FC6423012242495D
:1020B000424806F0F2FB05224149404806F076FC12
:1020C000E4E005223F493D4806F070FC01224FF450
:1020D0000061244803F0E8FE012002F0CBFB00225F
:1020E0004FF400611F4803F0DFFECFE0364B1B6862
:1020F0001946364807F02EFF354B1B681946354800
:1021000007F028FFC2E01A4B1B7883F00103DBB213
:10211000002B67D001221021124803F0C5FE2E4B80
:1021200000221A70012220210E4803F0BDFE642017
:1021300002F0A0FB002220210A4803F0B5FE052290
:102140002649274804F0F4FF0021012000F012FB8B
:10215000214B1B780133DAB21F4B1A70E2E700BF44
:10216000AD08002000000240000802408408002062
:10217000780000209004002060030020B0080020B8
:102180007408002064080020176CC116AC030020FE
:1021900060080020B808002058080020BC08002073
:1021A0005C08002024080020740000202C08002077
:1021B0003B0800203C080020F8070020C005002054
:1021C00000000020940800201C08002074AF0008C4
:1021D000200800207CAF00080108002090070020A4
:1021E0007C010020012220212C4803F05DFE2C4BB5
:1021F00000221A70012201212A4803F055FE6420B2
:1022000002F038FB00220121264803F04DFE052292
:102210002549264804F08CFF0021012000F0AAFA8D
:102220001F4B1B780133DAB21D4B1A70E2E7204BCB
:102230001B7883F00103DBB2002B0BD005221D4974
:102240001D4804F075FF642305221A491B4806F057
:1022500024FB1BE005221449144804F069FF6423A1
:1022600005221149154806F018FB0FE00023FB601A
:1022700002E0FB680133FB60FB68812BF9DD10484D
:1022800007F0EEFE02E000BF00E000BF0D4B0022B1
:102290001A7000BF1037BD4680BD00BF0008024065
:1022A00001080020000402409807002018010020C7
:1022B00078000020900700207C01002048060020C4
:1022C0008CAF0008AA08002080B584B000AF034698
:1022D000FB712A4B1B7883F00103DBB2002B29D062
:1022E0000023FB6021E001222021254803F0DCFDD2
:1022F000022002F0BFFA00222021214803F0D4FD81
:10230000022002F0B7FA20211D4803F0E6FD052265
:102310001C491D4804F00CFF6423052219491B4881
:1023200006F0BBFAFB680133FB60FB79FA689A425E
:10233000D9DB1BE00023BB6014E00121144803F04B
:10234000CCFD042002F096FA05221249124804F04E
:10235000EFFE642305220F490C4806F09EFABB6885
:102360000133BB60FB79BA689A42E6DB0B4B002273
:102370001A7000BF1037BD4680BD00BF7800002036
:1023800000000240900700207C0100204806002049
:1023900000040240980700201801002000080020D7
:1023A00080B582B000AF03463960FB71FB7983F0E2
:1023B0000103DBB2002B40D0424B1B683A689A42C3
:1023C0001DD2404B1A683B68D21A3E4B1B683968D5
:1023D000CB1A03F500339A4208D9012210213A485A
:1023E00003F062FD394B00221A7066E000221021D2
:1023F000354803F059FD354B01221A705DE0314B31
:102400001A683B68D31A03F500322E4B1B683968F3
:10241000CB1A9A4208D2002210212B4803F044FD27
:102420002A4B01221A7048E001221021264803F0AD
:102430003BFD264B00221A703FE0254B1B683A6893
:102440009A421DD2224B1A683B68D21A204B1B6855
:102450003968CB1A03F500339A4208D901222021AA
:102460001C4803F021FD1C4B00221A7025E00022BD
:102470002021184803F018FD174B01221A701CE0A8
:10248000134B1A683B68D31A03F50032104B1B68D4
:102490003968CB1A9A4208D2002220210D4803F055
:1024A00003FD0D4B01221A7007E00122202109488B
:1024B00003F0FAFC084B00221A7000BF0837BD4633
:1024C00080BD00BFB808002000000240AD08002019
:1024D000BC08002000080240AE08002080B582B091
:1024E00000AF7860391D4FF6FF730122034806F0F4
:1024F000D4F97B6818460837BD4680BD48060020E1
:1025000080B485B000AF78607B681B682B4A93422B
:1025100002D12B4B01221A707B681B68294A934217
:1025200045D1294B1B78002B3ED00023FB60274B65
:102530001B781A46254B5B781344244A927813443F
:10254000FB60FB68DBB2FB60204BDB781A46FB6864
:10255000934203D11D4B1B79A52B03D01C4B0022AA
:102560001A700DE0194B1A781A4B1B781B09DBB255
:102570009A4205D0164B00221A70174B01221A708E
:10258000164B1B78002B09D0144B00221A70144BE9
:1025900000221A70134B00221A7002E0104B012225
:1025A0001A70094B00221A700F4B01221A7000BFDB
:1025B0001437BD465DF8047B704700BF00480040FB
:1025C000AA080020001001402C0800200000002074
:1025D000AF080020F80700202D0800207900002017
:1025E0003C0800203B080020A908002080B483B0EC
:1025F00000AF78607B681B68234A93421CD1234B51
:102600009B785B09DBB203F00703214A13601F4B81
:102610005B78DA001E4B1B6813431D4A13601B4B8B
:102620001B78DB0203F4FC32194B1B681343184A76
:102630001360184B01221A707B681B68164A93427C
:102640001CD1164B9B785B09DBB203F00703144ADD
:102650001360124B5B78DA00114B1B681343104A6E
:1026600013600E4B1B78DB0203F4FC320C4B1B682F
:1026700013430B4A13600B4B01221A7000BF0C3737
:10268000BD465DF8047B7047003401409007002090
:10269000B8080020AB080020003C0040980700204C
:1026A000BC080020AC08002080B582B000AF786084
:1026B0007B681B68B3F1804F07D120211F4803F0CE
:1026C0000CFC1F4B1B6800225A627B681B681D4A6A
:1026D000934207D101211C4803F0FFFB1B4B1B68F1
:1026E00000225A627B681B68194A934215D1194B24
:1026F0001B7883F00103DBB2002B05D005221649BD
:10270000164804F015FD04E005221549154804F0AB
:102710000FFD154B1B6800225A627B681B68134A29
:10272000934206D1124805F077FB114B1B6800223B
:102730005A6200BF0837BD4680BD00BF000002409E
:10274000600300200004004000040240AC030020AD
:102750000014004078000020900700207C01002039
:102760009807002018010020900400200044014038
:10277000DC04002080B584B000AF03460A46FB713C
:102780001346BB714C4B00221A80FB79012B77D189
:102790004A4B01221A704A4B1A78484B5A70494BDF
:1027A0001A78464B9A70484B1B781A46434BDA709E
:1027B000464B1A78414B1A71454B1A783F4B5A7168
:1027C000444B1A783D4B9A71424B5A783B4BDA7125
:1027D000404B9A78394B1A723F4B1B68DAB2374B31
:1027E0005A723D4B1B681B0ADAB2344B9A723A4B51
:1027F0001B681B0CDAB2314BDA72384B1B68DAB249
:102800002E4BDA73354B1B681B0ADAB22B4B1A744A
:10281000324B1B681B0CDAB2284B5A74274B002230
:10282000DA77264B002283F820200023FB6016E095
:10283000224AFB6813441B789AB2FB6801331F4994
:10284000CB5C9BB21B029BB213449AB21A4B1B88FF
:1028500013449AB2184B1A80FB680233FB60FB6882
:102860001D2BE5DD154B9B7F9AB2134B1B88134440
:102870009AB2114B1A801A4B0F4A12881A8010E034
:1028800021210E4800F05EF90C4AFB7913700B4AC7
:10289000BB795370094AFB79D377084ABB7982F830
:1028A00020306423212205490E4805F0F6FF00BFC1
:1028B0001037BD4680BD00BFFA070020A0070020EA
:1028C000AF080020B0080020B1080020B2080020A6
:1028D000B40800209C080020B8080020BC08002094
:1028E000BF0700204806002080B582B000AF00235B
:1028F000FB801F4B0B221A701D4B0022DA771C4BFA
:10290000002283F8202000233B6013E0184A3B6834
:1029100013441B789AB23B6801331549CB5C9BB2D8
:102920001B029BB213449AB2FB881344FB803B68A2
:1029300002333B603B681D2BE8DD0D4B9B7F9AB259
:10294000FB881344FB800B4AFB8813800A4806F07F
:1029500071F8642321220649074805F09EFF0622EC
:102960000649054806F022F800BF0837BD4680BD7D
:10297000C4070020E3070020480600208408002048
:1029800080B485B000AF78600B46FB700023FB601D
:10299000FB78002B14D01E4B1A687B681344B3F5E8
:1029A000003F07D91A4B1A687B681344A3F500331C
:1029B000FB6019E0164B1B687A681344FB6013E058
:1029C000144B1A687B681344B3F5003F07D9114BC9
:1029D0001A687B681344A3F50033FB6004E00D4BD9
:1029E0001B687A681344FB60FB68002B01D15C23F1
:1029F000FB60FB68B3F5003F02D1FB685C3BFB600A
:102A0000FB6818461437BD465DF8047B704700BF6D
:102A10005C0800205808002080B400AF084B00225A
:102A20001A60074B0222DA60054B03225A60044BFE
:102A300001229A6000BFBD465DF8047B704700BF6D
:102A400008010020B0B586B000AFF8607A603B6046
:102A50000B46FB7202F044FD1D491E4802F0B0FE19
:102A60000346002B2ED10023FB753B68022B02D1BD
:102A70000423FB7504E03B68012B01D10223FB75A5
:102A80000023BB7517E0BB7D9B00FA6813441B68ED
:102A900000221C46154622462B467968386802F00B
:102AA000C5FC0346002B0FD1FB7D7A6813447B6085
:102AB000BB7D0133BB75BA7DFB7A9A42E3D302F04A
:102AC00031FD02E000BF00E000BF1837BD46B0BDD9
:102AD000CC0800200801002080B487B000AFF86067
:102AE0007A603B600B46FB720023FB7500233B6161
:102AF0003B68022B02D10423FB7504E03B68012BE9
:102B000001D10223FB750023BB820FE07B681B68A9
:102B10003B61BB8A9B00FA6813443A691A60FB7DEB
:102B20007A6813447B60BB8A0133BB82FB7A9BB219
:102B3000BA8A9A42EAD300BF00BF1C37BD465DF88F
:102B4000047B704780B485B000AF78600B46FB70A3
:102B50000023FB7307E0FB7B7A68134400221A70A2
:102B6000FB7B0133FB73FA7BFB789A42F3D300BF04
:102B700000BF1437BD465DF8047B704780B485B054
:102B800000AF78600B46FB701346BB70BB78FB73DD
:102B900007E0FB7B7A68134400221A70FB7B013349
:102BA000FB73FA7BFB789A42F3D300BF00BF143764
:102BB000BD465DF8047B704780B483B000AF034628
:102BC000FB71FB79802B5CD0802B5CDC202B47DCFD
:102BD000002B58DD013B1F2B55D801A252F823F0E2
:102BE000672C00086B2C0008872C00086F2C00084D
:102BF000872C0008872C0008872C0008732C0008FD
:102C0000872C0008872C0008872C0008872C0008D8
:102C1000872C0008872C0008872C0008772C0008D8
:102C2000872C0008872C0008872C0008872C0008B8
:102C3000872C0008872C0008872C0008872C0008A8
:102C4000872C0008872C0008872C0008872C000898
:102C5000872C0008872C0008872C00087B2C000894
:102C6000402B0CD00FE000230EE011230CE02223B8
:102C70000AE0332308E0442306E0552304E06623FA
:102C800002E0772300E0012318460C37BD465DF8CB
:102C9000047B704780B483B000AF0346FB80094BD0
:102CA0001B6800225A6200BF064B1B685A6AFB88E9
:102CB0009A42F9D300BF00BF0C37BD465DF8047BD4
:102CC000704700BF4404002080B400AF1F4B1B7846
:102CD0001A461E4B5B7813441C4A92781344DBB2AD
:102CE0001A4AD27893422CD1184B1B79A52B28D1A4
:102CF000174B1B78002B12D0144B1A78154B1A70F7
:102D0000124B5A78134B5A70104B9A78114B9A7099
:102D1000114B1B8801339AB20F4B1A800BE00B4BFF
:102D20001A780E4B1A70094B5A780C4B5A70074B95
:102D30009A780A4B9A700A4B1B8801339AB2084B57
:102D40001A8000BFBD465DF8047B704794080020E0
:102D500035080020A4080020EC0700209C08002073
:102D6000EE07002080B500AF21210D48FFF7EAFEF5
:102D70000B4B0C221A700B4B1A78094B5A70084BEC
:102D80000C22DA77074B1A78054B83F8202064234E
:102D900021220349044805F080FD00BF80BD00BF2B
:102DA000A00700202D0800204806002080B500AFB5
:102DB0001A4B1B78002B17D0194B1B681A1F194B85
:102DC0001B689A4227D8164B1B681A1D164B1B68A6
:102DD0009A4220D3154805F0BFF8154805F0BCF815
:102DE000144B00221A7016E0134B1B681A1F0E4B6F
:102DF0001B689A420FD8104B1B681A1D0A4B1B68A0
:102E00009A4208D30D4805F0A7F8094805F0A4F840
:102E1000084B00221A7000BF80BD00BF7800002060
:102E200064080020BC080020B8080020AC03002083
:102E300090040020B00800206008002060030020FB
:102E400080B500AF1F4B1B78002B1CD01E4B1B689E
:102E5000A3F12E021D4B1B689A4230D81A4B1B68F7
:102E600003F12E02194B1B689A4228D3184805F02B
:102E700073F8184805F070F8174B00221A70174BBA
:102E800000221A701BE0164B1B68A3F12E02154B93
:102E90001B689A4213D8124B1B6803F12E02114B88
:102EA0001B689A420BD3104805F056F8094805F004
:102EB00053F8094B00221A70084B00221A7000BF09
:102EC00080BD00BF780000206C080020BC080020F6
:102ED000AC03002090040020B0080020B1080020BE
:102EE00068080020B80800206003002080B500AF0B
:102EF0001A4B1B7883F00103DBB2002B13D0184B65
:102F00001B68A3F12E02174B1B689A4224D8144B5E
:102F10001B6803F12E02134B1B689A421CD30F4B04
:102F200001221A7018E0104B1B68A3F12E020D4B02
:102F30001B689A4210D80C4B1B6803F12E02094BF8
:102F40001B689A4208D3094805F006F8084805F0BE
:102F500003F8084B00221A7000BF80BD390800201A
:102F600070080020B80800206008002060030020DE
:102F700090040020B008002080B500AF854B1B787E
:102F800083F00103DBB2002B21D0834B01221A70A6
:102F9000824B1B685A1F824B1B689A4217D87F4B83
:102FA0001B685A1D7E4B1B689A4210D37D4804F063
:102FB000D3FF7D4B1B787D4A126811461846FFF7F8
:102FC000EFF9744B01221A70764804F04DFF714BF3
:102FD0001B78002B00F09F80754B1B7883F001035A
:102FE000DBB2002B2AD06C4B00221A706F4B1B688F
:102FF0005A1F6B4B1B689A4220D86C4B1B685A1D9A
:10300000674B1B689A4219D3694B01221A7005223B
:103010006849694805F0CAFC01224FF4006167481D
:1030200002F042FF664B01221A700A20FFF732FEBF
:1030300000224FF40061614802F036FF5C4B1B78C0
:10304000002B68D05F4B1B7883F00103DBB2002BB1
:1030500061D0534B1A685C4B1B689A4228D35A4B79
:103060001B6803F12E024E4B1B689A4220D30522A7
:103070005049514805F09AFC01224FF400614F4835
:1030800002F012FF4E4B01221A700A20FFF702FED7
:1030900000224FF40061494802F006FF4B4B1B88A9
:1030A00001339AB2494B1A80464B01221A7070E0E4
:1030B000474B1B681A1F3A4B1B689A422BD8444B4C
:1030C0001B681A1D364B1B689A4224D3414B1B8840
:1030D0001A463F4B1B6813443D4A1360052235498D
:1030E000354805F063FC01224FF40061334802F0DB
:1030F000DBFE334B01221A700A20FFF7CBFD0022C2
:103100004FF400612D4802F0CFFE304B1B88013395
:103110009AB22E4B1A802B4B1B78002B39D0284BA0
:103120001B7883F00103DBB2002B32D02A4B1B78D3
:10313000002B2ED1294B1B78002B0FD0274B1B784F
:103140001A4652001344DBB20133DBB21A46212186
:103150002348FFF713FD204B01221A701F4B00225A
:103160001A70204B01221A701F4B00221A701F4B3D
:1031700000221A701E4B01221A70124B01221A7083
:103180000F4B00221A70074804F0E6FE194804F0BD
:10319000E3FE80BD30080020B10800205008002068
:1031A000B8080020600300207800002040080020BC
:1031B0002E08002094080020C005002000000240D6
:1031C000350800202F08002048080020F4070020C0
:1031D000C008002078080020B2080020E507002081
:1031E000C407002005000020B00800202C080020A3
:1031F000AF0800209004002080B500AF864B1B78FC
:1032000083F00103DBB2002B21D0844B01221A7022
:10321000834B1B685A1F834B1B689A4217D8804BFD
:103220001B685A1D7F4B1B689A4210D37E4804F0DE
:1032300093FE7E4B1B787E4A126811461846FFF7B4
:10324000AFF8754B01221A70774804F00DFE724BEF
:103250001B78002B00F0A180764B1B7883F00103D4
:10326000DBB2002B2AD06D4B00221A70704B1B680A
:103270005A1F6C4B1B689A4220D86D4B1B685A1D15
:10328000684B1B689A4219D36A4B01221A700522B7
:1032900069496A4805F08AFB01224FF400616848D9
:1032A00002F002FE674B01221A700220FFF7F2FCC7
:1032B00000224FF40061624802F0F6FD5D4B1B787E
:1032C000002B6AD0604B1B7883F00103DBB2002B2C
:1032D00063D05E4B1B68A3F10802524B1B689A42F5
:1032E00028D85A4B1B6803F108024E4B1B689A42C0
:1032F00020D305225049514805F058FB01224FF4D4
:1033000000614F4802F0D0FD4E4B01221A7002209E
:10331000FFF7C0FC00224FF40061494802F0C4FDF1
:103320004B4B1B8801339AB2494B1A80464B012202
:103330001A7070E0474B1B681A1F3A4B1B689A4281
:103340002BD8444B1B681A1D364B1B689A4224D35A
:10335000414B1B881A463F4B1B6813443D4A136080
:1033600005223549354805F021FB01224FF4006163
:10337000334802F099FD334B01221A700220FFF707
:1033800089FC00224FF400612D4802F08DFD304B86
:103390001B8801339AB22E4B1A802B4B1B78002BC3
:1033A00039D0284B1B7883F00103DBB2002B32D0DD
:1033B0002A4B1B78002B2ED1294B1B78002B0FD0CA
:1033C000274B1B781A4652001344DBB20133DBB2A1
:1033D0001A4621212348FFF7D1FB204B01221A7006
:1033E000214804F0B9FD104804F0B6FD1C4B002242
:1033F0001A701E4B01221A701D4B00221A701D4BB1
:1034000000221A701C4B01221A700F4B01221A70F5
:103410000C4B00221A7080BD30080020B10800203B
:1034200054080020BC080020AC03002078000020D5
:10343000440800202E08002094080020C005002029
:1034400000000240350800202F0800204C08002012
:10345000F4070020C40800207A080020B2080020E9
:10346000E5070020C407002090040020050000208C
:10347000B00800202C080020AF08002080B582B0E2
:1034800000AF984B1B7883F00103DBB2002B02D016
:10349000944B01221A70934B1B78002B00F0E380B1
:1034A000914B1B7883F00103DBB2002B00F0DB8033
:1034B0008E4B1B7883F00103DBB2002B21D08C4BA9
:1034C00001221A708B4B1B685A1F8B4B1B689A4248
:1034D00017D8884B1B685A1D874B1B689A4210D31C
:1034E000864804F039FD864B1B78864A12681146DF
:1034F0001846FEF755FF7D4B01221A707F4804F0F5
:10350000B3FC7A4B1B78002B00F0AD807E4B1B7810
:1035100083F00103DBB2002B2AD0754B00221A7016
:10352000784B1B685A1F744B1B689A4220D8754B06
:103530001B685A1D704B1B689A4219D3724B0122AB
:103540001A7005227149724805F030FA01224FF4D1
:103550000061704802F0A8FC6F4B01221A70022033
:10356000FFF798FB00224FF400616A4802F09CFCD0
:10357000654B1B78002B76D0684B1B7883F00103DA
:10358000DBB2002B6FD0664B1B68A3F108025A4BCD
:103590001B689A4234D8624B1B6803F10802564BF1
:1035A0001B689A422CD35F4B1B78002B0FD05D4BCE
:1035B0001B781A4652001344DBB20133DBB21A46C1
:1035C00021215948FFF7DAFA584B01221A70554B5E
:1035D00000221A70564B01221A70564B00221A70A4
:1035E0004D4B00221A70454804F0B6FC524804F0D6
:1035F000B3FC3D4B01221A703D4B01221A7032E0A0
:103600004E4B1B681A1F3C4B1B689A422BD84B4BE6
:103610001B681A1D384B1B689A4224D3484B1B88E1
:103620001A46464B1B681344444A13600522374927
:10363000374805F0BBF901224FF40061354802F02C
:1036400033FC354B01221A700220FFF723FB0022C6
:103650004FF400612F4802F027FC3A4B1B880133DE
:103660009AB2384B1A80204B1B78002B00F0A580B3
:10367000354B1B78002B02D000F0B4F89DE01A4BBC
:103680001B78002B00F099802B4804F065FC2F4834
:1036900004F062FC1C4B00221A70144B00221A70BA
:1036A0001E4B00221A70174B1B687B601C4A7B68FC
:1036B00013601B4B1B68134A1360254BB3F9003092
:1036C000B3F5B27F48DB224BB3F900300533002B52
:1036D000B8BF5B429AB21F4B1A801E4B4FF69862DE
:1036E0001A8041E033080020310800203008002013
:1036F000B108002050080020B80800206003002016
:1037000078000020400800202E08002094080020A7
:10371000C005002000000240350800202F080020CE
:1037200048080020E5070020C4070020B208002058
:10373000050000202C08002090040020C008002074
:1037400078080020F407002032080020AC03002095
:103750007E080020800800201A4BB3F900309BB28D
:1037600005339AB2184B1A80174B1B885B04174A13
:1037700082FB03121A441212DB17D31A1A46144B97
:103780001A60134B1B68134A127811461846FFF74C
:10379000F7F803460E4A13600E4B1B780C4A12686A
:1037A00011461846FEF7FCFD0B4B01221A700B4820
:1037B00004F05AFB0A4804F057FB00BF0837BD4627
:1037C00080BD00BF7E08002080080020B7600BB6D7
:1037D00050080020780000203208002090040020CB
:1037E0006003002080B500AF6E4B1B7883F00103AF
:1037F000DBB2002B21D06C4B01221A706B4B1B6883
:103800005A1F6B4B1B689A4217D8684B1B685A1D8E
:10381000674B1B689A4210D3664804F09DFB664BC9
:103820001B78664A126811461846FEF7B9FD5D4BD3
:1038300001221A705F4804F017FB5A4B1B78002BCB
:1038400000F0AE805E4B1B7883F00103DBB2002BEF
:103850002AD0554B00221A70584B1B685A1F544BE4
:103860001B689A4220D8554B1B685A1D504B1B6849
:103870009A4219D3524B01221A70052251495248DB
:1038800005F094F801224FF40061504802F00CFB5F
:103890004F4B01221A700220FFF7FCF900224FF46F
:1038A00000614A4802F000FB454B1B78002B77D0A3
:1038B000484B1B7883F00103DBB2002B70D0464BE2
:1038C0001B681A1F3A4B1B689A4236D8424B1B683A
:1038D0001A1D374B1B689A422FD3404B1B78002B85
:1038E0000FD03E4B1B781A4652001344DBB2013313
:1038F000DBB21A4621213A48FFF740F9394B012241
:103900001A70364B00221A70374B01221A70374B4F
:1039100000221A70364B00221A70364B01221A70A0
:103920002C4B01221A702A4B00221A70214804F0F5
:1039300013FB314804F010FB32E0304B1B681A1FB8
:103940001B4B1B689A422BD82C4B1B681A1D184B1B
:103950001B689A4224D32A4B1B881A46274B1B68A4
:103960001344264A136005221649174805F01EF82D
:1039700001224FF40061154802F096FA144B01221F
:103980001A700220FFF786F900224FF400610F48F9
:1039900002F08AFA1B4B1B8801339AB2194B1A802A
:1039A00000BF80BD30080020B10800205008002072
:1039B000B8080020600300207800002040080020A4
:1039C0002E08002094080020C005002000000240BE
:1039D000350800202F08002048080020E5070020B7
:1039E000C4070020B208002005000020B008002015
:1039F0002C080020AF08002090040020C008002000
:103A000078080020F407002080B487B000AF786009
:103A100039607B680C4AA2FB0323DB087B613B68AF
:103A20005B00094AA2FB0323DB083B617A693B691F
:103A3000B2FBF3F39BB20133FB81FB8918461C37C1
:103A4000BD465DF8047B7047CDCCCCCC80B582B050
:103A500000AF0346FB71FB79012B22D0042B22D14E
:103A6000002203210B2001F028F80B2001F041F87F
:103A700001220321102001F020F8102001F039F874
:103A800000220321382001F018F8382001F031F825
:103A900001220321392001F010F8392001F029F822
:103AA00002E000BF00E000BF00BF0837BD4680BD98
:103AB00080B500AF002201210B2000F0FEFF0B209B
:103AC00001F017F8002201210C2000F0F6FF0C2075
:103AD00001F00FF800220121102000F0EEFF10206D
:103AE00001F007F801220121382000F0E6FF38201C
:103AF00000F0FFFF01220121392000F0DEFF392014
:103B000000F0F7FF002201213A2000F0D6FF3A2012
:103B100000F0EFFF00BF80BD80B400AF224B1A68F9
:103B2000224B1B689A4238D31F4B1B689AB21F4B1B
:103B30001B689BB2D31A9AB21D4B1B8813449AB2CE
:103B40001B4B1A801A4B1B881A461A4B1B681344CE
:103B5000184A1360164B1B88C72B1ED9164B1B889F
:103B60001946134B1B88154AA2FB03239B099BB2E2
:103B70005B00CB1A1A46124B1A600D4B1B880F4A7A
:103B8000A2FB03129209C82101FB02F29B1A9AB20E
:103B9000074B1A800A4B1B6801E0074B1B8818462D
:103BA000BD465DF8047B704704080020080800202B
:103BB000FE070020C8080020E60700201F85EB5103
:103BC0001008002080B584B000AF78607B68D3F81F
:103BD000843003F00803002B08D07B681B680822A0
:103BE0001A621B4B1B685B6ADBB2FB737B68194A6A
:103BF000934229D17B68D3F8843003F00803002B6B
:103C00000ED07B681B6808221A62124B1B685B6A25
:103C1000DBB2BB73062210490E4804F0C7FE13E066
:103C20000C4804F0FDFDFDF72FFA06220A49094869
:103C300004F0BCFE7B681B68DB69084A13607B6884
:103C4000D3F88430064A136000BF1037BD4680BDEC
:103C5000C005002048060020840800201C08002021
:103C60002008002080B400AF72B600BFFEE700005D
:103C700080B582B000AF0F4B1B6C0E4A43F08053EF
:103C800013640C4B1B6C03F080537B607B68094B07
:103C90005B6C084A43F480435364064B5B6C03F44B
:103CA00080433B603B68052000F0FCFE00BF083706
:103CB000BD4680BD0038024080B58CB000AF786052
:103CC00007F11C0300221A605A609A60DA601A61D8
:103CD0007B681B68984A934240F0A080974B1B6C0E
:103CE000964A43F400431364944B1B6C03F4004363
:103CF000BB61BB69914B1B6B904A43F0020313639A
:103D00008E4B1B6B03F002037B617B698B4B1B6B40
:103D10008A4A43F004031363884B1B6B03F00403CC
:103D20003B613B690423FB6102233B6200237B620E
:103D30000323BB620723FB6207F11C03194680487B
:103D400001F01AFE4FF44063FB6102233B62002343
:103D50007B620323BB620623FB6207F11C03194647
:103D6000784801F009FE784B784A1A60764B0022B9
:103D70005A60754B00229A60734B0022DA60724BD6
:103D80004FF480621A61704B00225A616E4B002220
:103D90009A616D4B0022DA616B4B00221A626A4B0A
:103DA00000225A62684800F0CDFE0346002B01D085
:103DB000FFF758FF7B68644A9A65634A7B689363A0
:103DC000634B644A1A60624B00225A60604B402287
:103DD0009A605F4B0022DA605D4B4FF480621A619B
:103DE0005B4B00225A615A4B00229A61584B0022C9
:103DF000DA61574B00221A62554B00225A6254482E
:103E000000F0A0FE0346002B01D0FFF72BFF7B68DC
:103E10004F4A5A654E4A7B68936389E07B681B680A
:103E20004D4A934240F08480444B5B6C434A43F4D8
:103E300000535364414B5B6C03F40053FB60FB681D
:103E40003E4B1B6B3D4A43F0100313633B4B1B6B14
:103E500003F01003BB60BB686423FB6102233B6279
:103E600000237B620323BB620523FB6207F11C0373
:103E700019463A4801F080FD394B3A4A1A60384BEE
:103E80004FF000625A60364B00229A60344B002299
:103E9000DA60334B4FF480621A61314B00225A6171
:103EA0002F4B00229A612E4B0022DA612C4B00220C
:103EB0001A622B4B00225A62294800F043FE034647
:103EC000002B01D0FFF7CEFE7B68254A9A65244A75
:103ED0007B689363244B254A1A60234B4FF00062A2
:103EE0005A60214B40229A601F4B0022DA601E4B21
:103EF0004FF480621A611C4B00225A611A4B002257
:103F00009A61194B0022DA61174B00221A62164B94
:103F100000225A62144800F015FE0346002B01D01F
:103F2000FFF7A0FE7B68104A5A650F4A7B689363CF
:103F300000BF3037BD4680BD003C00400038024025
:103F40000004024000080240E0010020106002402E
:103F5000400200208860024000340140001002400E
:103F6000A0020020106402400003002028640240E8
:103F700080B58AB000AF78607B681B68B3F1804F72
:103F800014D1634B1B6C624A43F001031364604B12
:103F90001B6C03F001037B627B6A002202211C2060
:103FA00000F08BFD1C2000F0A4FDACE07B681B68DA
:103FB000584A934214D1564B1B6C554A43F00203A6
:103FC0001364534B1B6C03F002033B623B6A0022F9
:103FD00002211D2000F071FD1D2000F08AFD92E0FD
:103FE0007B681B684C4A934214D1494B1B6C484A6E
:103FF00043F008031364464B1B6C03F00803FB619A
:10400000FB6900220121322000F057FD322000F030
:1040100070FD78E07B681B68404A93420CD13C4BB2
:104020001B6C3B4A43F010031364394B1B6C03F0C9
:104030001003BB61BB6966E07B681B68384A93422A
:1040400014D1334B1B6C324A43F020031364304BC2
:104050001B6C03F020037B617B6900220221372067
:1040600000F02BFD372000F044FD4CE07B681B681E
:104070002C4A934214D1264B5B6C254A43F40033FF
:104080005364234B5B6C03F400333B613B690322B5
:104090000321192000F011FD192000F02AFD32E063
:1040A0007B681B68204A934214D1194B1B6C184A39
:1040B00043F080031364164B1B6C03F08003FB601A
:1040C000FB68012201212C2000F0F7FC2C2000F0DD
:1040D00010FD18E07B681B68144A934213D10C4B07
:1040E0001B6C0B4A43F480731364094B1B6C03F481
:1040F0008073BB60BB68012201212D2000F0DDFC34
:104100002D2000F0F6FC00BF2837BD4680BD00BF63
:104110000038024000040040000C00400010004045
:104120000014004000440140001C004000200040FA
:1041300080B5ACB000AF786007F19C0300221A6034
:104140005A609A60DA601A6107F11C03802200212C
:10415000184605F0F7FE7B681B687A4A934273D1D4
:104160004023FB610023BB6507F11C03184602F0E6
:10417000E9FB0346002B01D0FFF774FD724B5B6C2B
:10418000714A43F0100353646F4B5B6C03F01003F0
:10419000BB61BB696C4B1B6B6B4A43F00103136340
:1041A000694B1B6B03F001037B617B694FF4C063B8
:1041B000C7F89C300223C7F8A0300023C7F8A4300A
:1041C0000323C7F8A8300723C7F8AC3007F19C03D6
:1041D00019465E4801F0D0FB5D4B5E4A1A605C4BAD
:1041E0004FF000625A605A4B00229A60584B0022EE
:1041F000DA60574B4FF480621A61554B00225A61C6
:10420000534B00229A61524B0022DA61504B4FF41B
:1042100000321A624E4B00225A624D4800F092FC66
:104220000346002B01D0FFF71DFD7B68484A5A6703
:10423000474A7B68936300220121252000F03DFC62
:10424000252000F056FC78E07B681B68424A9342C8
:1042500073D14FF48073FB6100233B6607F11C03AD
:10426000184602F06FFB0346002B01D0FFF7FAFC63
:10427000354B1B6C344A43F480231364324B1B6C64
:1042800003F480233B613B692F4B1B6B2E4A43F0A9
:10429000020313632C4B1B6B03F00203FB60FB68F0
:1042A0004FF49843C7F89C300223C7F8A03000238E
:1042B000C7F8A4300323C7F8A8300723C7F8AC30E9
:1042C00007F19C031946254801F056FB244B254A6B
:1042D0001A60234B4FF000625A60214B00229A6013
:1042E0001F4B0022DA601E4B4FF480621A611C4B98
:1042F00000225A611A4B00229A61194B4FF48072C6
:10430000DA61174B00221A62154B00225A621448D8
:1043100000F018FC0346002B01D0FFF7A3FC7B68DC
:104320000F4A5A670E4A7B689363002201212720B7
:1043300000F0C3FB272000F0DCFB00BFB037BD4618
:1043400080BD00BF00100140003802400000024064
:10435000D0060020406402400048004000040240B3
:10436000300700202860024080B582B000AF78603E
:104370007B681B68194A934213D1194B5B6C184A2E
:1043800023F0100353644FF4C061164801F090FC11
:104390007B685B6F184600F083FC252000F0B7FBBC
:1043A00017E07B681B68104A934212D10C4B1B6CC0
:1043B0000B4A23F4802313644FF498410B4801F017
:1043C00077FC7B685B6F184600F06AFC272000F0E2
:1043D0009EFB00BF0837BD4680BD00BF00100140F6
:1043E0000038024000000240004800400004024043
:1043F00080B400AFFEE780B400AFFEE780B400AF4A
:10440000FEE780B400AFFEE780B400AFFEE780B403
:1044100000AF00BFBD465DF8047B704780B400AFBD
:1044200000BFBD465DF8047B704780B400AF00BF9D
:10443000BD465DF8047B704780B500AF00F0FAF927
:1044400000BF80BD80B500AF024800F079FD00BF1D
:1044500080BD00BFE001002080B500AF024800F041
:104460006FFD00BF80BD00BF3007002080B500AFEA
:10447000024800F065FD00BF80BD00BF4002002083
:1044800080B500AF024803F097FD00BF80BD00BFBC
:10449000DC04002080B500AF024803F08DFD00BFB2
:1044A00080BD00BF6003002080B500AF024803F06C
:1044B00083FD00BF80BD00BFAC03002080B500AF0E
:1044C000024804F049FB00BF80BD00BFC0050020CA
:1044D00080B500AF024804F03FFB00BF80BD00BFC5
:1044E0004806002080B500AF0A4B1B680133094A1B
:1044F0001360094B00221A60084B1B685A6A084B6C
:104500001B681344064A1360044803F055FD00BFBE
:1045100080BD00BFF60700203E08002028050020CF
:104520000408002080B500AF034B01221A70034835
:1045300003F042FD00BF80BD3D080020740500204F
:1045400080B500AF134B1A68134B1B689A4212D206
:10455000124B1B881946104B1A680E4B1B68D31A56
:1045600003FB01F20E4B1B685200DA620C4B1B6816
:1045700000225A6208E00B4803F04EFC084803F0A2
:104580004BFC094B01221A60054803F015FD00BFE2
:1045900080BD00BF1408002018080020E607002096
:1045A000F8030020740500203408002080B500AF17
:1045B000024803F001FD00BF80BD00BF9004002051
:1045C00080B500AF024800F0BBFC00BF80BD00BF5B
:1045D000A002002080B500AF024800F0B1FC00BF8F
:1045E00080BD00BF0003002080B500AF024800F08E
:1045F000A7FC00BF80BD00BFD006002080B586B0FC
:1046000000AFF860B9607A6000237B610AE0AFF325
:1046100000800146BB685A1CBA60CAB21A707B6936
:1046200001337B617A697B689A42F0DB7B681846CC
:104630001837BD4680BD80B586B000AFF860B96060
:104640007A6000237B6109E0BB685A1CBA601B7862
:104650001846FDF743FF7B6901337B617A697B680C
:104660009A42F1DB7B6818461837BD4680BD80B49E
:1046700083B000AF78604FF0FF3318460C37BD466B
:104680005DF8047B704780B483B000AF7860396018
:104690003B684FF400525A60002318460C37BD4661
:1046A0005DF8047B704780B483B000AF786001236D
:1046B00018460C37BD465DF8047B704780B485B062
:1046C00000AFF860B9607A60002318461437BD4621
:1046D0005DF8047B7047000080B586B000AF78605D
:1046E000144A154BD31A7B617B693B61134B1B68E2
:1046F000002B02D1114B124A1A60104B1A687B68CA
:1047000013443A699A4207D205F0F2FB03460C22A1
:104710001A604FF0FF3309E0084B1B68FB60074B42
:104720001A687B681344054A1360FB6818461837FB
:10473000BD4680BD0000042000040000D008002019
:104740000809002080B400AF064BD3F88830054A32
:1047500043F47003C2F8883000BFBD465DF8047BA7
:10476000704700BF00ED00E0DFF834D0FFF7EAFF4C
:104770000C480D490D4A002302E0D458C4500433BC
:10478000C4188C42F9D30A4A0A4C002301E0136092
:104790000432A242FBD305F0B1FBFBF713FF7047D5
:1047A0000000042000000020EC00002058B00008A9
:1047B000EC00002004090020FEE780B500AF0320D4
:1047C00000F070F9002000F005F8FFF751FA00231F
:1047D000184680BD80B582B000AF7860124B1A6871
:1047E000124B1B7819464FF47A73B3FBF1F3B2FB0B
:1047F000F3F3184600F099F90346002B01D001238A
:104800000EE07B680F2B0AD8002279684FF0FF304A
:1048100000F053F9064A7B681360002300E001238F
:1048200018460837BD4680BD7C000020840000206B
:104830008000002080B400AF064B1B781A46064B60
:104840001B681344044A136000BFBD465DF8047B37
:10485000704700BF84000020D408002080B400AF5F
:10486000034B1B681846BD465DF8047B704700BFCC
:10487000D408002080B584B000AF7860FFF7EEFF69
:10488000B8607B68FB60FB68B3F1FF3F05D00A4B63
:104890001B781A46FB681344FB6000BFFFF7DEFF7E
:1048A0000246BB68D31AFA689A42F7D800BF00BF25
:1048B0001037BD4680BD00BF8400002080B485B0A5
:1048C00000AF78607B6803F00703FB600B4BDB688D
:1048D000BB60BA684FF6FF031340BB60FB681A0267
:1048E000BB681A43064B1343BB60044ABB68D360E2
:1048F00000BF1437BD465DF8047B704700ED00E053
:104900000000FA0580B400AF044BDB681B0A03F01B
:1049100007031846BD465DF8047B704700ED00E0D4
:1049200080B483B000AF0346FB7197F90730002BCA
:104930000BDBFB7903F01F02074997F907305B098E
:10494000012000FA02F241F8232000BF0C37BD46D7
:104950005DF8047B704700BF00E100E080B483B0E5
:1049600000AF0346FB7197F90730002B12DBFB7990
:1049700003F01F020A4997F907305B09012000FA8A
:1049800002F2203341F82320BFF34F8F00BFBFF363
:104990006F8F00BF00BF0C37BD465DF8047B7047CA
:1049A00000E100E080B483B000AF03463960FB71E2
:1049B00097F90730002B0ADB3B68DAB20C4997F90C
:1049C00007301201D2B20B4483F800230AE03B689F
:1049D000DAB20849FB7903F00F03043B1201D2B2AB
:1049E0000B441A7600BF0C37BD465DF8047B704758
:1049F00000E100E000ED00E080B489B000AFF860B5
:104A0000B9607A60FB6803F00703FB61FB69C3F1DF
:104A10000703042B28BF0423BB61FB690433062B67
:104A200002D9FB69033B00E000237B614FF0FF32BA
:104A3000BB6902FA03F3DA43BB681A407B699A4008
:104A40004FF0FF317B6901FA03F3D9437B680B40D8
:104A5000134318462437BD465DF8047B70470000B9
:104A600080B582B000AF78607B68013BB3F1807F96
:104A700001D301230FE00A4A7B68013B53600F21F9
:104A80004FF0FF30FFF78EFF054B00229A60044B7A
:104A900007221A60002318460837BD4680BD00BFB4
:104AA00010E000E080B582B000AF78607868FFF772
:104AB00005FF00BF0837BD4680BD80B586B000AF9A
:104AC0000346B9607A60FB7300237B61FFF71AFF2E
:104AD00078617A68B9687869FFF78EFF024697F9BE
:104AE0000F3011461846FFF75DFF00BF1837BD466F
:104AF00080BD80B582B000AF0346FB7197F90730E7
:104B00001846FFF70DFF00BF0837BD4680BD80B5D2
:104B100082B000AF0346FB7197F907301846FFF7E4
:104B20001DFF00BF0837BD4680BD80B582B000AF15
:104B300078607868FFF794FF034618460837BD464B
:104B400080BD000080B586B000AF786000237B6137
:104B5000FFF784FE38617B68002B01D1012399E0C7
:104B60007B68022283F835207B68002283F834209A
:104B70007B681B681A687B681B6822F001021A6058
:104B80000FE0FFF76BFE02463B69D31A052B08D9ED
:104B90007B6820225A657B68032283F83520032333
:104BA00078E07B681B681B6803F00103002BE8D1E9
:104BB0007B681B681B687B617A69384B13407B619B
:104BC0007B685A687B689B681A437B68DB681A437A
:104BD0007B681B691A437B685B691A437B689B6926
:104BE0001A437B68DB691A437B681B6A13437A6943
:104BF00013437B617B685B6A042B07D17B68DA6AAD
:104C00007B681B6B13437A6913437B617B681B686A
:104C10007A691A607B681B685B697B617B6923F03A
:104C200007037B617B685B6A7A6913437B617B68FE
:104C30005B6A042B17D17B689B6A7A6913437B619B
:104C40007B68DB6A002B0ED0786800F073FB0346AC
:104C5000002B08D07B6840225A657B68002283F8CD
:104C60003520012316E07B681B687A695A617868F1
:104C700000F02AFB0346FB607B68DB6D3F229A4015
:104C8000FB689A607B6800225A657B68012283F882
:104C90003520002318461837BD4680BD3F8010E000
:104CA00080B584B000AF78607B68002B01D1012310
:104CB00050E07B6893F83530DBB2022B01D1022340
:104CC00048E07B681B681A687B681B6822F0010259
:104CD0001A607B681B6800221A607B681B680022D0
:104CE0005A607B681B6800229A607B681B68002200
:104CF000DA607B681B6800221A617B681B682122CE
:104D00005A61786800F0E0FA0346FB607B68DB6D6F
:104D10003F229A40FB689A607B680022DA637B68D6
:104D200000221A647B6800225A647B6800229A641D
:104D30007B680022DA647B6800221A657B680022A7
:104D40005A657B68002283F835207B68002283F84F
:104D50003420002318461037BD4680BD80B586B08C
:104D600000AFF860B9607A603B600023FB75FB68B8
:104D70009B6D3B61FB6893F83430012B01D102231A
:104D800048E0FB68012283F83420FB6893F8353053
:104D9000DBB2012B37D1FB68022283F83520FB6898
:104DA00000225A653B687A68B968F86800F05EFAD4
:104DB000FB68DB6D3F229A403B699A60FB681B6889
:104DC0001A68FB681B6842F016021A60FB681B68D1
:104DD0005A69FB681B6842F080025A61FB681B6CD1
:104DE000002B07D0FB681B681A68FB681B6842F041
:104DF00008021A60FB681B681A68FB681B6842F0AF
:104E000001021A6005E0FB68002283F834200223C7
:104E1000FB75FB7D18461837BD4680BD80B584B054
:104E200000AF78607B689B6DFB60FFF717FDB86093
:104E30007B6893F83530DBB2022B08D07B68802288
:104E40005A657B68002283F83420012352E07B6896
:104E50001B681A687B681B6822F016021A607B6860
:104E60001B685A697B681B6822F080025A617B6864
:104E70001B6C002B03D17B689B6C002B07D07B68DD
:104E80001B681A687B681B6822F008021A607B683E
:104E90001B681A687B681B6822F001021A6013E025
:104EA000FFF7DCFC0246BB68D31A052B0CD97B68E4
:104EB00020225A657B68032283F835207B68002214
:104EC00083F83420032315E07B681B681B6803F01C
:104ED0000103002BE4D17B68DB6D3F229A40FB6825
:104EE0009A607B68012283F835207B68002283F872
:104EF0003420002318461037BD4680BD80B483B0EF
:104F000000AF78607B6893F83530DBB2022B04D0B9
:104F10007B6880225A6501230CE07B68052283F8B8
:104F200035207B681B681A687B681B6822F00102C9
:104F30001A60002318460C37BD465DF8047B7047A5
:104F400080B586B000AF78600023BB608E4B1B68D5
:104F50008E4AA2FB03239B0A7B617B689B6D3B61AE
:104F60003B691B68FB607B68DB6D08229A40FB682D
:104F70001340002B1AD07B681B681B6803F00403E6
:104F8000002B13D07B681B681A687B681B6822F0B3
:104F900004021A607B68DB6D08229A403B699A60C4
:104FA0007B685B6D43F001027B685A657B68DB6D53
:104FB00001229A40FB681340002B12D07B681B68CB
:104FC0005B6903F08003002B0BD07B68DB6D012253
:104FD0009A403B699A607B685B6D43F002027B6894
:104FE0005A657B68DB6D04229A40FB681340002BF6
:104FF00012D07B681B681B6803F00203002B0BD0E8
:105000007B68DB6D04229A403B699A607B685B6D2C
:1050100043F004027B685A657B68DB6D10229A407E
:10502000FB681340002B43D07B681B681B6803F0B0
:105030000803002B3CD07B68DB6D10229A403B6953
:105040009A607B681B681B6803F48023002B18D0D0
:105050007B681B681B6803F40023002B08D17B6866
:105060001B6C002B24D07B681B6C786898471FE072
:105070007B689B6C002B1BD07B689B6C7868984787
:1050800016E07B681B681B6803F48073002B07D154
:105090007B681B681A687B681B6822F008021A602C
:1050A0007B681B6C002B03D07B681B6C786898476F
:1050B0007B68DB6D20229A40FB681340002B00F0D8
:1050C0008F807B681B681B6803F01003002B00F0C7
:1050D00087807B68DB6D20229A403B699A607B6801
:1050E00093F83530DBB2052B36D17B681B681A6824
:1050F0007B681B6822F016021A607B681B685A697D
:105100007B681B6822F080025A617B681B6C002B55
:1051100003D17B689B6C002B07D07B681B681A68E7
:105120007B681B6822F008021A607B68DB6D3F22F7
:105130009A403B699A607B68012283F835207B683E
:10514000002283F834207B681B6D002B7ED07B68A7
:105150001B6D7868984779E07B681B681B6803F4CF
:105160008023002B1DD07B681B681B6803F4002381
:10517000002B0DD17B685B6C002B31D07B685B6CA6
:10518000786898472CE000BF7C000020B5814E1B5A
:105190007B68DB6B002B23D07B68DB6B78689847E0
:1051A0001EE07B681B681B6803F48073002B0FD123
:1051B0007B681B681A687B681B6822F010021A6003
:1051C0007B68012283F835207B68002283F8342035
:1051D0007B68DB6B002B03D07B68DB6B78689847C0
:1051E0007B685B6D002B32D07B685B6D03F0010345
:1051F000002B22D07B68052283F835207B681B6852
:105200001A687B681B6822F001021A60BB680133D0
:10521000BB607A699A4207D37B681B681B6803F0FE
:105220000103002BF2D100E000BF7B68012283F86C
:1052300035207B68002283F834207B68DB6C002BF0
:1052400005D07B68DB6C7868984700E000BF1837B2
:10525000BD4680BD80B483B000AF78607B685B6D75
:1052600018460C37BD465DF8047B704780B485B0A6
:1052700000AFF860B9607A603B60FB681B681A6831
:10528000FB681B6822F480221A60FB681B683A687E
:105290005A60FB689B68402B08D1FB681B687A68E2
:1052A0009A60FB681B68BA68DA6007E0FB681B68F5
:1052B000BA689A60FB681B687A68DA6000BF1437C6
:1052C000BD465DF8047B704780B485B000AF786060
:1052D0007B681B68DBB2103B134AA2FB03231B094C
:1052E000FB60124AFB6813441B781A467B68DA6538
:1052F000FB68032B08D97B681B681A460C4B1340CC
:105300001A1D7B689A6506E07B681B681A46084B85
:1053100013407A6893657B689B6D18461437BD46C9
:105320005DF8047B704700BFABAAAAAAA8AF00082B
:1053300000FCFFFF80B485B000AF78600023FB73F2
:105340007B689B6ABB607B689B69002B1FD1BB6835
:10535000032B56D801A252F823F000BF6D5300086A
:105360007F5300086D530008035400087B68DB6A14
:1053700003F08073002B46D00123FB7343E07B686E
:10538000DB6AB3F1C07F40D10123FB733DE07B6852
:105390009B69B3F5005F21D1BB68032B37D801A20D
:1053A00052F823F0B5530008BB530008B55300086A
:1053B000CD5300080123FB7330E07B68DB6A03F008
:1053C0008073002B25D00123FB7322E07B68DB6A0E
:1053D000B3F1C07F1FD10123FB731CE0BB68022B1C
:1053E00003D9BB68032B03D018E00123FB7315E03E
:1053F0007B68DB6A03F08073002B0ED00123FB7304
:105400000BE000BF0AE000BF08E000BF06E000BFFD
:1054100004E000BF02E000BF00E000BFFB7B1846D5
:105420001437BD465DF8047B704700BF80B586B079
:1054300000AFF860B960C7E90023274B1B7D012B43
:1054400001D1022343E0244B01221A754CF2503063
:1054500000F078F80346FB75FB7D002B33D1FB6829
:10546000032B23D801A252F823F000BF7D5400087B
:105470008954000895540008A15400083B78194647
:10548000B86800F021F912E03B881946B86800F0CE
:10549000F5F80CE03B681946B86800F0C9F806E07A
:1054A000D7E90023B86800F08DF800E000BF4CF2A7
:1054B000503000F047F80346FB75084B1B69074A5C
:1054C00023F001031361044B00221A75FB7D18467B
:1054D0001837BD4680BD00BFD8080020003C024000
:1054E00080B483B000AF0023FB710B4B1B69002B12
:1054F0000BDA094B094A5A60074B094A5A60064BB6
:105500001B69002B01DA0123FB71FB7918460C376C
:10551000BD465DF8047B7047003C024023016745AF
:10552000AB89EFCD80B400AF054B1B69044A43F053
:105530000043136100231846BD465DF8047B7047A5
:10554000003C024080B584B000AF78600023FB606F
:105550001A4B00229A61FFF781F9F86010E07B682E
:10556000B3F1FF3F0CD07B68002B07D0FFF776F933
:105570000246FB68D31A7A689A4201D2032319E0E3
:105580000F4BDB6803F48033002BE8D10C4BDB6856
:1055900003F4F973002B03D000F0BAF8012309E0FB
:1055A000074BDB6803F00103002B02D0044B012200
:1055B000DA60002318461037BD4680BDD8080020A9
:1055C000003C024080B485B000AFF860C7E900231A
:1055D000164B1B69154A23F440731361134B1B6967
:1055E000124A43F440731361104B1B690F4A43F096
:1055F00001031361FB683A681A60BFF36F8F00BF45
:10560000D7E900014FF000024FF000030A00002329
:10561000F968043113460B60BFF34F8F00BF00BF22
:105620001437BD465DF8047B704700BF003C024064
:1056300080B483B000AF786039600F4B1B690E4AAD
:1056400023F4407313610C4B1B690B4A43F4007342
:105650001361094B1B69084A43F0010313617B681E
:105660003A681A60BFF34F8F00BF00BF0C37BD46CA
:105670005DF8047B704700BF003C024080B483B0FB
:1056800000AF78600B467B800E4B1B690D4A23F4FC
:10569000407313610B4B1B690A4A43F48073136117
:1056A000084B1B69074A43F0010313617B687A8842
:1056B0001A80BFF34F8F00BF00BF0C37BD465DF8A7
:1056C000047B7047003C024080B483B000AF786038
:1056D0000B46FB700D4B1B690C4A23F4407313619E
:1056E0000A4B0A4A1B691361084B1B69074A43F0BE
:1056F000010313617B68FA781A70BFF34F8F00BF04
:1057000000BF0C37BD465DF8047B7047003C02408B
:1057100080B400AF284BDB6803F00203002B05D0F8
:10572000264B9B6943F02003244A9361224BDB689C
:1057300003F01003002B05D0204B9B6943F01003AE
:105740001E4A93611C4BDB6803F02003002B05D03D
:105750001A4B9B6943F00803184A9361164BDB68A8
:1057600003F04003002B05D0144B9B6943F0040366
:10577000124A9361104BDB6803F08003002B05D0C5
:105780000E4B9B6943F002030C4A93610A4BDB68A2
:1057900003F48073002B05D0084B9B6943F0400352
:1057A000064A9361044B4FF4F972DA6000BFBD46BC
:1057B0005DF8047B704700BF003C0240D808002021
:1057C00080B584B000AF786039600023BB602F4B98
:1057D0001B7D012B01D1022353E02C4B01221A75B2
:1057E0004CF25030FFF7AEFE0346FB73FB7B002B01
:1057F00043D13B684FF0FF321A607B681B68012B76
:1058000012D17B68DB68DBB2184600F043F84CF23B
:105810005030FFF797FE0346FB731D4B1B691C4A74
:1058200023F00403136128E07B685B68BB601CE025
:105830007B68DB68DBB21946B86800F051F84CF2BF
:105840005030FFF77FFE0346FB73114B1B69104A74
:1058500023F07A031361FB7B002B03D03B68BA680B
:105860001A600AE0BB680133BB607B689A687B689A
:105870005B681344BA689A42DAD3044B00221A7563
:10588000FB7B18461037BD4680BD00BFD8080020FE
:10589000003C024080B483B000AF0346FB710F4B65
:1058A0001B690E4A23F4407313610C4B1B690B4AAE
:1058B00043F004031361094B1A69FB791B0213437C
:1058C000064A43F480331361BFF34F8F00BF00BF1C
:1058D0000C37BD465DF8047B704700BF003C0240BA
:1058E00080B485B000AF78600B46FB700023FB608E
:1058F000FB78002B02D10023FB6010E0FB78012B2A
:1059000003D14FF48073FB6009E0FB78022B03D1D5
:105910004FF40073FB6002E04FF44073FB60154BE3
:105920001B69144A23F440731361124B1A6911491D
:10593000FB6813430B610F4B1B690E4A23F0F803FE
:1059400013610C4B1A697B68DB001343094A43F06F
:1059500002031361074B1B69064A43F4803313614A
:10596000BFF34F8F00BF00BF1437BD465DF8047B07
:10597000704700BF003C024080B489B000AF78603F
:1059800039600023FB6100237B6100233B6100231E
:10599000BB610023FB6169E10122FB6902FA03F3A9
:1059A0007B613B681B687A6913403B613A697B699C
:1059B0009A4240F058813B685B6803F00303012B77
:1059C00005D03B685B6803F00303022B30D17B6892
:1059D0009B68BB61FB695B00032202FA03F3DB43B4
:1059E000BA691340BB613B68DA68FB695B0002FA85
:1059F00003F3BA691343BB617B68BA699A607B6839
:105A00005B68BB610122FB6902FA03F3DB43BA69FD
:105A10001340BB613B685B681B0903F00102FB6933
:105A200002FA03F3BA691343BB617B68BA695A602F
:105A30003B685B6803F00303032B17D07B68DB68CC
:105A4000BB61FB695B00032202FA03F3DB43BA6923
:105A50001340BB613B689A68FB695B0002FA03F381
:105A6000BA691343BB617B68BA69DA603B685B68FB
:105A700003F00303022B23D1FB69DA087B680832A9
:105A800053F82230BB61FB6903F007039B000F2230
:105A900002FA03F3DB43BA691340BB613B681A693E
:105AA000FB6903F007039B0002FA03F3BA6913438F
:105AB000BB61FB69DA087B680832B96943F82210D8
:105AC0007B681B68BB61FB695B00032202FA03F37E
:105AD000DB43BA691340BB613B685B6803F00302B8
