:020000040800F2
:1000000000000420394F0008514B0008574B0008EE
:100010005D4B0008634B0008694B000800000000BE
:100020000000000000000000000000006F4B00080E
:100030007D4B0008000000008B4B0008994B000826
:10004000894F0008894F0008894F0008894F000830
:10005000894F0008894F0008894F0008894F000820
:10006000894F0008894F0008894F0008A54B0008F8
:10007000B94B0008894F0008894F0008894F0008D4
:10008000CD4B0008894F0008894F0008894F0008B0
:10009000894F0008894F0008894F0008894F0008E0
:1000A000894F0008E14B0008894F0008894F00087C
:1000B000FD4B0008254C0008894F0008894F0008B7
:1000C000894F0008894F0008894F0008894F0008B0
:1000D000894F00084D4C0008894F0008614C00080A
:1000E000894F0008894F0008894F0008894F000890
:1000F000754C0008B54C0008894F0008894F00086E
:10010000894F0008894F0008D14C0008894F00082A
:10011000894F0008894F0008894F00083D4D0008AD
:10012000914D0008A54D0008B94D0008894F000801
:10013000894F0008000000000000000000000000DF
:10014000000000000000000000000000894F0008CF
:10015000894F0008894F0008894F0008894F00081F
:10016000894F0008894F0008894F0008894F00080F
:10017000894F0008894F00080000000000000000BF
:10018000894F0008894F0008894F0008894F0008EF
:10019000894F0008894F000800000000894F0008BF
:1001A000000000000000000000000000894F00086F
:1001B000894F0008894F000800000000000000007F
:1001C000000000000000000000000000000000002F
:1001D000000000000000000000000000894F00083F
:1001E00010B5054C237833B9044B13B10448AFF371
:1001F00000800123237010BDEC00002000000000EF
:1002000040B7000808B5034B1BB103490348AFF3DF
:10021000008008BD00000000F000002040B700088A
:1002200001F0FF01102A2BDB10F0070F08D010F8A7
:10023000013B013A8B422DD010F0070F42B3F6D1AB
:10024000F0B441EA012141EA014122F007047FF0C4
:1002500000070023F0E80256083C85EA010586EA1B
:10026000010685FA47F5A3FA87F586FA47F6A5FA57
:1002700087F68EB9EED1F0BC01F0FF0102F0070263
:1002800032B110F8013B013A83EA010313B1F8D10E
:100290000020704701387047002D06BF35460338EF
:1002A000073815F0010F07D1013015F4807F02BF28
:1002B000013015F4C03F0130F0BC0138704700BF79
:1002C00053B94AB9002908BF00281CBF4FF0FF31BD
:1002D0004FF0FF3000F074B9ADF1080C6DE904CEB9
:1002E00000F006F8DDF804E0DDE9022304B0704711
:1002F0002DE9F047089D04468E46002B4DD18A42D9
:10030000944669D9B2FA82F252B101FA02F3C2F10B
:10031000200120FA01F10CFA02FC41EA030E94409C
:100320004FEA1C48210CBEFBF8F61FFA8CF708FBBD
:1003300016E341EA034306FB07F199420AD91CEB95
:10034000030306F1FF3080F01F81994240F21C81C7
:10035000023E63445B1AA4B2B3FBF8F008FB10330F
:1003600044EA034400FB07F7A7420AD91CEB040444
:1003700000F1FF3380F00A81A74240F20781644414
:10038000023840EA0640E41B00261DB1D440002399
:10039000C5E900433146BDE8F0878B4209D9002DFD
:1003A00000F0EF800026C5E9000130463146BDE887
:1003B000F087B3FA83F6002E4AD18B4202D38242F1
:1003C00000F2F980841A61EB030301209E46002DA0
:1003D000E0D0C5E9004EDDE702B9FFDEB2FA82F2F5
:1003E000002A40F09280A1EB0C014FEA1C471FFA53
:1003F0008CFE0126200CB1FBF7F307FB131140EA3A
:1004000001410EFB03F0884208D91CEB010103F106
:10041000FF3802D2884200F2CB804346091AA4B2C8
:10042000B1FBF7F007FB101144EA01440EFB00FE9C
:10043000A64508D91CEB040400F1FF3102D2A64501
:1004400000F2BB800846A4EB0E0440EA03409CE7A0
:10045000C6F12007B34022FA07FC4CEA030C20FA4D
:1004600007F401FA06F31C43F9404FEA1C4900FA6D
:1004700006F3B1FBF9F8200C1FFA8CFE09FB1811EA
:1004800040EA014108FB0EF0884202FA06F20BD95D
:100490001CEB010108F1FF3A80F08880884240F2AD
:1004A0008580A8F102086144091AA4B2B1FBF9F0F1
:1004B00009FB101144EA014100FB0EFE8E4508D9EC
:1004C0001CEB010100F1FF346CD28E456AD9023871
:1004D000614440EA0840A0FB0294A1EB0E01A14256
:1004E000C846A64656D353D05DB1B3EB080261EBC4
:1004F0000E0101FA07F722FA06F3F1401F43C5E99E
:10050000007100263146BDE8F087C2F12003D840D3
:100510000CFA02FC21FA03F3914001434FEA1C4715
:100520001FFA8CFEB3FBF7F007FB10360B0C43EA07
:10053000064300FB0EF69E4204FA02F408D91CEBB7
:10054000030300F1FF382FD29E422DD902386344B5
:100550009B1B89B2B3FBF7F607FB163341EA034155
:1005600006FB0EF38B4208D91CEB010106F1FF38A4
:1005700016D28B4214D9023E6144C91A46EA00469B
:1005800038E72E46284605E70646E3E61846F8E62D
:100590004B45A9D2B9EB020864EB0C0E0138A3E776
:1005A0004646EAE7204694E74046D1E7D0467BE757
:1005B000023B614432E7304609E76444023842E7CF
:1005C000704700BF80B582B000AF04F0DEFC00F0E1
:1005D0006FFB00F0DFFE00F08BFE00F04DFE00F040
:1005E00013FE00F00FFC00F0CFFB00F049FC00F020
:1005F00095FC00F031FD00F065FD00F099FD00F084
:10060000DBFC00F0DDFD00F0B7FD514808F08CF890
:10061000504807F079FF4FF47A7004F013FD06227A
:100620004D494E4808F0B4FD05224D494D4807F0AC
:1006300067F905224C494D4807F062F902F014FBB6
:1006400002234B4A02214B4802F06EFB494B1B68C8
:10065000494A1360474B5B68484A1360484B012284
:100660001A70484B1B78002B01D000F021FF464B3D
:100670001B78002B00F02981444B1B8801339AB270
:10068000424B1A8002F048FC414B1B78012B0BD0E7
:100690003F4B1B78022B07D03D4B1B78032B03D01D
:1006A0003B4B1B78042B46D13A4B1B78002B42D096
:1006B0000023FB7110E0FB79374A12781146374A64
:1006C000D25C374B5A54FB790133FB71324B1B78A8
:1006D0000133DAB2304B1A70FB79022BEBD92D4B78
:1006E00000221A702F4B1B780133DAB22D4B1A708F
:1006F0002C4B1B789AB22C4B1A802C4B1B68013365
:100700002A4A13602A4B1B8801339AB2284B1A805D
:10071000244B1B780A2B0ED1224B00221A701E4B41
:1007200001221A70234B01221A70234B1B880133BC
:100730009AB2214B1A80164B1B78052B40F0C280D1
:10074000144B1B78002B00F0BD800023BB7146E0EA
:100750006003002044040020900800204806002088
:10076000900700207C01002098070020180100203D
:100770000080010828080020640800206808002084
:100780001E0A0020190A0020180A0020F007002085
:100790001F0A00203908002005000020B0080020B2
:1007A000C4070020E50700208E0800201408002060
:1007B000EA070020210A0020FC070020BB79884AB4
:1007C00012781146874AD25C874B5A54BB79013361
:1007D000BB71834B1B780133DAB2814B1A70BB7942
:1007E000022BEBD9814B00221A70814B1B7801330D
:1007F000DAB27F4B1A707E4B1B789AB27D4B1A800F
:100800007D4B1B6801337C4A13607C4B1B88013392
:100810009AB27A4B1A80764B1B78322B52D1784899
:1008200007F082FF724B1B789BB21A4652001344AA
:100830009BB219466C4803F0FBFB6D4B1B789BB2D7
:100840001946704803F051FC694B1B789BB20C228F
:1008500019466C4803F088FC03466B4A1360644BEE
:1008600000221A705E4B00221A70684B00221A7028
:100870002121674802F08EFA634B1B68DAB2644BA1
:100880005A70614B1B681B0ADAB2614B9A705E4B5F
:100890001B681B0CDAB25E4BDA705D4B5A785C4B0E
:1008A0001A715B4B9A785A4B5A71594BDA78584BFC
:1008B0009A71584B01221A70574B00221A70574BED
:1008C00001221A70564B00221A70564B1B78002BCF
:1008D0002DD0514B1B78013B082B24D801A252F894
:1008E00023F000BF1B0900082109000827090008A0
:1008F00027090008270900080F0900082709000830
:10090000090900081509000802F078FB0CE002F064
:1009100021FC09E002F0C2FB06E002F069FC03E002
:1009200002F066FC00E000BF3E4B00221A703E4B16
:100930001B78002B2DD0384B1B78013B082B24D87B
:1009400001A252F823F000BF7F09000885090008C2
:100950008B0900088B0900088B090008730900083F
:100960008B0900086D0900087909000802F046FBB0
:100970000CE002F0EFFB09E002F090FB06E002F071
:10098000ADFD03E002F024FF00E000BF264B002293
:100990001A70264B1B78002B6BD0154B1B78002B45
:1009A00048D01C4B1B78002B44D1104B00221A70EE
:1009B0000F4B1B781A4652001344DBB20133DBB2F3
:1009C0001A462121124802F001FA124B01221A7034
:1009D000074B00221A70164B01221A7049E000BF23
:1009E000E6070020B0080020B808002039080020E1
:1009F000E50700208E08002014080020EA070020E8
:100A0000DC040020500900202408002030080020C9
:100A1000C4070020210A00201F0A00201E0A00200F
:100A2000180A00201A0A00201B0A0020380800209B
:100A300005000020834B1B78002B1AD1824B1B78BA
:100A4000002B16D1814B00221A70814B00221A70A4
:100A5000804B01221A70804B00221A707F4B0022BB
:100A60001A707F4B00221A6003F00FFA7D4807F0DE
:100A70005BFE7D4B1B78002B1FD07C4B1B78002B23
:100A80001BD07B4B1B78052B17D1774B00221A709C
:100A9000764B00221A70764BFF221A706B4B0422A1
:100AA0001A706C4B02221A70724B01221A700420C9
:100AB00003F076F9704807F0BFFD644B1B78052BF7
:100AC00039D1694B1B78002B13D0684B1B78002B56
:100AD0000FD0654B00221A70644B00221A7005205B
:100AE00003F05EF9654B1B6800225A62634807F009
:100AF000A3FD634B1B78002B1DD0614B00221A70A5
:100B000005226049604808F043FB01224FF4006170
:100B10005E4805F0B1FD514B01221A700A2002F027
:100B2000E1F900224FF40061584805F0A5FD534B50
:100B30001B6800225A62564B1B78002B3FF491AD84
:100B4000534B00221A704B4B1B78002B2AD0514B71
:100B500000221A80504B00221A80052249494A4837
:100B600008F016FB01224FF40061484805F084FDAF
:100B70003A4B01221A700A2002F0B4F900224FF415
:100B80000061424805F078FD3B4B1B6800225A6229
:100B9000424807F051FD374B00221A70314807F0E8
:100BA0004BFD48E005223749374808F0F1FA0122A9
:100BB0004FF40061354805F05FFD284B01221A70A3
:100BC0000A2002F08FF900224FF400612F4805F04F
:100BD00053FD244807F0A8FD314B1B881A461346E5
:100BE0001B049B1A1A462F4B1A601E4B1B685A6A2D
:100BF0002C4B1B6813442B4A1360294B00221A808C
:100C0000184B1B6800225A62164807F015FD03F0C6
:100C100081F90346244A1360174807F0E5FC164B98
:100C20001B68214A1268DA62134B1B6800225A6261
:100C3000114807F001FD1D4B1B8801339AB21B4B75
:100C40001A800EE5E5070020210A00201F0A002077
:100C5000300800201E0A0020380800203908002033
:100C600014080020280500203F080020400800202C
:100C7000760000203E08002074050020DC040020DF
:100C800042080020A0080020C0050020000002400B
:100C900041080020EE070020F0070020F8030020A4
:100CA000F6070020040800200C080020F4070020AC
:100CB00080B594B000AF07F1200330220021184620
:100CC00009F032FD07F10C0300221A605A609A60A5
:100CD000DA601A612A4B1B6C294A43F08053136473
:100CE000274B1B6C03F08053BB60BB68254B1B6814
:100CF000244A43F440431360224B1B6803F44043EF
:100D00007B607B6801233B624FF480337B6202236C
:100D1000BB634FF48003FB6304233B64D8237B64F1
:100D20000223BB640223FB6407F12003184605F08D
:100D300027FD0346002B01D003F044FB05F0D0FC57
:100D40000346002B01D003F03DFB0F23FB60022381
:100D50003B6100237B614FF4A053BB614FF4A05370
:100D6000FB6107F10C030721184605F0ADFF0346B0
:100D7000002B01D003F026FB00BF5037BD4680BDDD
:100D8000003802400070004080B500AF1B4B1C4A89
:100D90001A601A4B4FF482725A60184B00229A6004
:100DA000164B4FF4E062DA60144B02221A61134BC7
:100DB00000225A61114B4FF400729A610F4B382296
:100DC000DA610E4B00221A620C4B00225A620B4B66
:100DD00000229A62094B0722DA62084B00221A634A
:100DE000064B08225A63054806F0DEFC0346002B3A
:100DF00001D003F0E7FA00BF80BD00BF180100205A
:100E0000003C004080B500AF1B4B1C4A1A601A4BD7
:100E10004FF482725A60184B00229A60164B4FF4BE
:100E2000E062DA60144B02221A61134B00225A610D
:100E3000114B4FF400729A610F4B3822DA610E4B5E
:100E400000221A620C4B00225A620B4B00229A625B
:100E5000094B0722DA62084B00221A63064B08226C
:100E60005A63054806F0A0FC0346002B01D003F0AE
:100E7000A9FA00BF80BD00BF7C0100200034014002
:100E800080B588B000AF07F1100300221A605A60E5
:100E90009A60DA603B1D00221A605A609A601E4B0D
:100EA0004FF080421A601C4B6B225A601A4B002292
:100EB0009A60194B46F2A712DA60174B00221A61AA
:100EC000154B00229A61144807F0C6FA0346002B1E
:100ED00001D003F077FA4FF480533B6107F1100320
:100EE00019460D4807F058FD0346002B01D003F0CA
:100EF00069FA00237B600023FB603B1D194606480E
:100F000007F086FF0346002B01D003F05BFA00BF19
:100F10002037BD4680BD00BF6003002080B588B08B
:100F200000AF07F1100300221A605A609A60DA607D
:100F30003B1D00221A605A609A601D4B1D4A1A60C0
:100F40001B4B6B225A601A4B00229A60184B43F6D7
:100F50007F62DA60164B00221A61154B00229A61FB
:100F6000134807F079FA0346002B01D003F02AFA60
:100F70004FF480533B6107F1100319460C4807F00A
:100F80000BFD0346002B01D003F01CFA00237B600D
:100F90000023FB603B1D1946054807F039FF034657
:100FA000002B01D003F00EFA00BF2037BD4680BDF4
:100FB000AC0300200004004080B588B000AF07F10A
:100FC000100300221A605A609A60DA603B1D00220A
:100FD0001A605A609A601E4B1E4A1A601C4B42F6F9
:100FE0002F225A601A4B00229A60194B4FF0FF32A1
:100FF000DA60174B00221A61154B00229A611448DF
:1010000007F02AFA0346002B01D003F0DBF94FF476
:1010100080533B6107F1100319460D4807F0BCFCF3
:101020000346002B01D003F0CDF900237B600023A1
:10103000FB603B1D1946064807F0EAFE0346002BFD
:1010400001D003F0BFF900BF2037BD4680BD00BF0F
:10105000F8030020000C004080B584B000AF3B1DB9
:1010600000221A605A609A60144B154A1A60134B9A
:101070006B225A60114B00229A60104B4FF6FF72A0
:10108000DA600E4B00229A610C4807F0E5F903463E
:10109000002B01D003F096F900237B600023FB6056
:1010A0003B1D1946054807F0B3FE0346002B01D04F
:1010B00003F088F900BF1037BD4680BD440400200E
:1010C0000010004080B584B000AF3B1D00221A60C4
:1010D0005A609A60144B154A1A60134B6B225A607F
:1010E000114B00229A60104B6322DA600E4B0022F3
:1010F0009A610D4807F0B0F90346002B01D003F0C8
:1011000061F900237B600023FB603B1D1946064804
:1011100007F07EFE0346002B01D003F053F900BF19
:101120001037BD4680BD00BF900400200014004071
:1011300080B500AF0E4B0F4A1A600D4B45F25F426F
:101140005A600B4B00229A60094B4FF6FF72DA602F
:10115000074B00221A61064B00229A61044807F0EF
:101160007BF90346002B01D003F02CF900BF80BDB2
:10117000DC0400200044014080B500AF0E4B0F4A54
:101180001A600D4B40F237425A600B4B00229A60B6
:10119000094B4FF6FF72DA60074B00221A61064BCB
:1011A00000229A61044807F057F90346002B01D04A
:1011B00003F008F900BF80BD28050020001C004096
:1011C00080B500AF0E4B0F4A1A600D4B45F25F42DF
:1011D0005A600B4B00229A60094B4FF6FF72DA609F
:1011E000074B00221A61064B00229A61044807F05F
:1011F00033F90346002B01D003F0E4F800BF80BDB3
:10120000740500200020004080B500AF184B1B681B
:101210009A68174B1B6842F001029A60144B154AFA
:101220001A60134B4FF416425A60114B00229A6019
:101230000F4B0022DA600E4B00221A610C4B0C227D
:101240005A610B4B00229A61094B0022DA61084B6C
:1012500000221A62064B00225A62054807F084FEFB
:101260000346002B01D003F0ADF800BF80BD00BFE6
:10127000C00500200010014080B500AF194B1B686D
:101280009A68184B1B6842F001029A60164B174A85
:101290001A60154B4FF4E1325A60134B00229A60EA
:1012A000114B0022DA60104B00221A610E4B0C2207
:1012B0005A610D4B00229A610B4B0022DA610A4BF6
:1012C00000221A62084B00225A62002300220021E9
:1012D000054809F097F90346002B01D003F072F896
:1012E00000BF80BDC0050020480600200048004027
:1012F00080B582B000AF264B1B6B254A43F4001328
:101300001363234B1B6B03F400137B607B68204B40
:101310001B6B1F4A43F4800313631D4B1B6B03F4C9
:1013200080033B603B68002201210B2003F0ADFFEE
:101330000B2003F0C6FF002201210C2003F0A5FFC3
:101340000C2003F0BEFF00220121102003F09DFFBE
:10135000102003F0B6FF01220121382003F095FF91
:10136000382003F0AEFF01220121392003F08DFF68
:10137000392003F0A6FF002201213A2003F085FF67
:101380003A2003F09EFF00BF0837BD4680BD00BF76
:101390000038024080B58AB000AF07F11403002284
:1013A0001A605A609A60DA601A613D4B1B6B3C4AC6
:1013B00043F0100313633A4B1B6B03F010033B61C4
:1013C0003B69374B1B6B364A43F080031363344B46
:1013D0001B6B03F08003FB60FB68314B1B6B304AD7
:1013E00043F0010313632E4B1B6B03F00103BB603F
:1013F000BB682B4B1B6B2A4A43F004031363284B37
:101400001B6B03F004037B607B68254B1B6B244A3A
:1014100043F002031363224B1B6B03F002033B6098
:101420003B6800224FF407611E4805F025F90022B1
:1014300020211D4805F020F9002203211B4805F05A
:101440001BF94FF407637B610123BB610023FB6140
:1014500000233B6207F114031946124804F074FE9E
:1014600020237B610123BB610023FB6100233B62DE
:1014700007F1140319460C4804F066FE03237B6150
:101480000123BB610023FB6100233B6207F11403CE
:101490001946064804F058FE00BF2837BD4680BDF7
:1014A00000380240000002400008024000040240F0
:1014B00080B586B002AFA24B1B78013B1F2B01F217
:1014C0004A8001A252F823F0491500085518000877
:1014D000BB15000857250008671C00089D1D000863
:1014E000231E0008111F000873200008C3200008F5
:1014F000F120000809210008572500081B210008D9
:10150000652100087D210008552200088D22000871
:10151000052300083B230008A323000857250008E3
:10152000CD230008F523000897240008EF240008C5
:10153000572500085725000857250008572500089B
:1015400057250008D524000805227E497E4806F06C
:10155000D7F905227D497E4806F0D2F97D4B1B78EC
:1015600083F00103DBB2002B21D07B4B1B7883F08F
:101570000103DBB2002B1AD0784B5B6F93F8353048
:10158000DBB2012B13D105227549744807F000FE28
:1015900001224FF40061734805F06EF80A2001F053
:1015A000A1FC00224FF400616E4805F065F80021AF
:1015B000012001F007FA00F0CEBF0121032001F065
:1015C00001FA694B00221A80684B00221A80624B94
:1015D00001221A705F4B00221A70654B00221A70AC
:1015E000644B00221A70644B554A92E8030018605D
:1015F00004331980604B5B78013B604A13441B7ACB
:10160000B43B002BB8BF5B421AB25D4B1A805A4BF9
:101610009B78013B594A13441B7A9BB2B4339BB26B
:101620001AB2584B1A80544BDB78013B564A0833A8
:1016300032F81320554B1A80544B1B88184602F081
:10164000DBFD4F4BB3F90030042B11DC4C4BB3F9ED
:101650000030053B002BB8BF5B429AB24C4B1A805E
:101660004B4B1B88C3F5B4739AB2494B1A8007E001
:10167000434BB3F900309BB2053B9AB2444B1A80FE
:10168000444B00221A70444B00221A70434B002234
:101690001A70434B00221A70424B00221A70424BC0
:1016A00000221A703A4B1B885B04404A82FB0312EB
:1016B0001A441212DB17D31A1A463D4B1A603C4BE0
:1016C0001B682B4A12781146184601F081FA03462E
:1016D000374A1360264B1B78354A12681146184664
:1016E00000F0ECFF264BB3F900305B042F4A82FB7D
:1016F00003121A441212DB17D31A1A462D4B1A6022
:101700002C4B1B681A4A12781146184601F060FAF1
:101710000346284A13601D4B1B881A46254B1B683D
:101720001344B3F5003F49D9184B1B881A46214B87
:101730001B681344A3F500331F4A136046E000BF43
:1017400090080020900700207C01002098070020CE
:10175000180100203008002044080020C0050020A7
:10176000A008002000000240EA070020F407002043
:1017700074000020210A00209808002008000020A2
:10178000880800208A080020180000208408002013
:101790008C08002032080020340800203308002084
:1017A000350800203608002037080020B7600BB647
:1017B0005C080020480800202C0A00208F4B1B8862
:1017C0001A468F4B1B6813448E4A13608E4BB3F935
:1017D00000305B048D4A82FB03121A441212DB179D
:1017E000D31A1A468A4B1A60894B1B68894A1278A9
:1017F0001146184601F0ECF90346854A1360824B06
:10180000B3F90030043B5B04804A82FB03121A44A4
:101810001212DB17D31A1A467F4B1A607E4B1B68D5
:101820007C4A12781146184601F0D2F903467A4AEA
:1018300013607A4B02221A70794B02221A70794B8C
:1018400001221A70784806F0F7FE784806F0F4FE98
:1018500000F081BE0121022001F0B4F8744B002297
:101860001A80694B00221A80724B00221A80724B38
:1018700001221A70714B00221A80714B00221A80CB
:10188000704B00221A70704B1B78002B14BF012381
:101890000023DAB25F4B1A706C4B00221A700120E1
:1018A00002F07EFA6A4B6B4A92E803001860043338
:1018B0001980674B5B78013B674A13441B7AB43B42
:1018C000002BB8BF5B421AB2594B1A80604B9B7811
:1018D000013B614A13441B7A9BB2B4339BB21AB2E8
:1018E000494B1A80524BB3F90030042B11DC504B9A
:1018F000B3F90030053B002BB8BF5B429AB24D4BA9
:101900001A804C4B1B88C3F5B4739AB2494B1A80AA
:1019100007E0474BB3F900309BB2053B9AB2454B09
:101920001A804E4B00221A704D4B00221A704D4BFC
:1019300000221A70374B1B7883F00103DBB2002BB7
:1019400000F0DF80424BDB78013B474A083332F836
:1019500013202A4B1A80294B1B88184602F04CFC96
:10196000344B1B885B04294A82FB03121A4412126F
:10197000DB17D31A1A463D4B1A603C4B1B68254AAD
:1019800012781146184601F023F90346374A1360CE
:10199000204B1B78354A12681146184600F08EFE1F
:1019A000234BB3F900305B04184A82FB03121A443C
:1019B0001212DB17D31A1A46114B1A60104B1B6810
:1019C000144A12781146184601F002F903460C4AEF
:1019D00013600A4B1B881A46094B1B681344B3F566
:1019E000003F45D9054B1B881A46054B1B6813441D
:1019F000A3F50033034A136042E000BF84080020CF
:101A0000480800202C0A00208A080020B7600BB686
:101A10005808002074000020500800201F0A0020F1
:101A20001E0A0020200A00209004002060030020ED
:101A3000880800208C08002044080020EA070020C5
:101A4000F407002030080020220A0020210A00208C
:101A5000980800209008002008000020320800208C
:101A60003408002033080020180000205C08002003
:101A7000884B1B881A46884B1B681344874A13609F
:101A8000874BB3F900305B04864A82FB03121A4489
:101A90001212DB17D31A1A46834B1A60824B1B684B
:101AA000824A12781146184601F092F803467E4A9F
:101AB00013607B4BB3F90030043B5B04794A82FB33
:101AC00003121A441212DB17D31A1A46784B1A6003
:101AD000774B1B68754A12781146184601F078F862
:101AE0000346734A1360734B01221A70724B022231
:101AF0001A70724806F0A0FD714806F09DFD00F0D6
:101B000027BD6A4B1B78002B00F022856D4BDB78DC
:101B1000013B6D4A083332F813206C4B1A806B4B33
:101B20001B88184602F068FB694B1B885B045D4A02
:101B300082FB03121A441212DB17D31A1A46654BA2
:101B40001A60644B1B68594A12781146184601F016
:101B50003FF803465F4A1360544B1B785D4A126896
:101B60001146184600F0AAFD5B4BB3F900305B0448
:101B70004C4A82FB03121A441212DB17D31A1A467C
:101B8000564B1A60554B1B68484A12781146184646
:101B900001F01EF80346514A13604C4B1B881A464D
:101BA0004E4B1B681344B3F5003F0AD9474B1B88C3
:101BB0001A464A4B1B681344A3F50033484A136086
:101BC00007E0424B1B881A46444B1B681344444AA7
:101BD0001360334BB3F900305B04324A82FB0312CB
:101BE0001A441212DB17D31A1A462F4B1A602E4BC7
:101BF0001B682E4A12781146184600F0E9FF03468A
:101C0000294A1360264BB3F90030043B5B04254A94
:101C100082FB03121A441212DB17D31A1A46314BF5
:101C20001A60304B1B68214A12781146184600F0A2
:101C3000CFFF03462B4A13602A4B1A68274B1B68B9
:101C40009A4202D2284B01221A701A4B01221A70B2
:101C5000194B02221A70194806F0EEFC234806F0D0
:101C6000EBFC00F075BC174B214A92E803001860AA
:101C7000043319801F4B1B6800225A621E4B01223D
:101C80001A701E4B1B78002B3CD01D4B05221A707E
:101C90003BE000BF84080020480800202C0A0020F8
:101CA0008A080020B7600BB6580800207400002096
:101CB000500800201F0A00201E0A00209004002067
:101CC00060030020980800201800002086080020EB
:101CD0008C08002060080020880800204C080020A4
:101CE000300A0020540800203C080020AC030020EB
:101CF0009008002028050020430800203F0800200D
:101D000076000020A04B00221A70A04B00221A700F
:101D10009F4B5B78013B9F4A52F823209C4B9B785A
:101D2000013B9D4931F813301946104602F016F870
:101D300003469A4A13609A4806F056FC944B5B7827
:101D40005A1E974B1B68934951F82220DA62944B34
:101D50001B6800225A62934806F046FC8C4B9B7825
:101D6000013B8D4A32F813208F4B1A808E4B1A8814
:101D70008C4B1B68DA628C4B1B881A4613469B00FF
:101D800013449B001A46894B1A60864B1B6800223D
:101D90005A620121052000F015FEDCE30121062036
:101DA00000F010FE824B1B881A46824B1B781946A6
:101DB000104600F00DFF03467F4A13607E4B1B6800
:101DC0007E4A13607D4B1B6803F59673B3F5003FA5
:101DD00006D97A4B1A687A4B1344784A136005E0A7
:101DE000764B1B6803F59673744A1360754B00229B
:101DF0001A7000221021744804F03EFC6F4B1B68DF
:101E00001946002000F05AFC704806F015FC704896
:101E100006F012FC6F4B06221A706F4B01221A70EB
:101E200099E30121072000F0CDFD6A4B1B78022BBE
:101E300002DC002B03DC64E0042B31D061E0644859
:101E400006F072FC654806F06FFC604806F06CFC1A
:101E5000634B1B78002B13D0624B1B78002B0FD1E8
:101E60005F4B1B781A4652001344DBB20133DBB2DE
:101E70001A4621215C4800F0A9FF5A4B01221A7032
:101E8000574B00221A70594B01221A70584B0022EE
:101E90001A70584B00221A70574B00221A7030E00B
:101EA000404806F0A1FB3E4806F09EFB534806F072
:101EB0009BFB4B4B1B78002B13D04A4B1B78002B02
:101EC0000FD1474B1B781A4652001344DBB2013343
:101ED000DBB21A462121444800F078FF414B012231
:101EE0001A703F4B00221A70404B01221A70404B6F
:101EF00000221A703F4B00221A70414B00221A80B8
:101F000000BF344B00221A70334B01221A7022E3B7
:101F10000121082000F056FD0023FB80394BDB78BF
:101F2000002B75D0384B00221A60224B01221A7008
:101F3000344B9B789BB21B02FB80324B5B789AB28E
:101F4000FB881343FB80FB885B04304A82FB03124F
:101F50001A441212DB17D31A1A462B4B1A602A4B5B
:101F60001B68144A12781146184600F031FE0346E9
:101F7000254A13600F4B1B78234A126811461846F6
:101F800000F09CFBE7E200BF76000020380800204C
:101F900098080020380000205C000020180800206D
:101FA000F803002074050020E8070020080800203E
:101FB0003A080020740000206C0800207C080020F3
:101FC0002C01FEFF3D08002000000240900400208C
:101FD000600300201F0A00201E0A0020AC0300201E
:101FE000E5070020210A0020C4070020050000208A
:101FF0003008002039080020200A00202805002091
:10200000FE0700209008002078080020B7600BB67B
:10201000A64B00221A60A64B00221A70A54B9B7893
:102020009BB21B02FB80A34B5B789AB2FB881343E5
:10203000FB80FB885B04A04A82FB03121A44121245
:10204000DB17D31A1A46994B1A60984B1B68984AAB
:1020500012781146184600F0BBFD0346934A136000
:10206000934B1B78914A12681146184600F026FBE4
:1020700071E2904B5B78002B14BF01230023DAB28E
:102080008B4B1A700121092000F09CFC8B4B012224
:102090001A708B4B09221A708A4B01221A70854BD9
:1020A0005B78002B06D1884806F0C6FA874806F010
:1020B000C3FA50E2844806F0BFFA854806F0BCFA3D
:1020C00049E2844B7B4A92E803001860043319808C
:1020D00001210A2000F076FC7E4B5B78002B03D0B8
:1020E0007D4B01221A7036E27B4B00221A7032E2DD
:1020F00000F022FD794B00221A70794B1B880133C6
:102100009AB2774B1A8026E200F054FF6B4B012203
:102110001A70744B00221A701DE2664B9B78002BDC
:102120000DD0714B00221A70012210216F4804F06B
:10213000A3FA012220216E4804F09EFA0CE06A4BBB
:1021400001221A7000221021684804F095FA00223A
:102150002021674804F090FA564B5B78184600F04F
:1021600041FAF8E1524B1B78002B40F0F3815648BE
:1021700006F062FA554806F05FFAEBE10121102003
:1021800000F020FC4E4B08221A705A4B00221A60B5
:10219000484B9B781B021A46564B1A60454B5B789E
:1021A0001A46544B1B681343524A1360404B1B782A
:1021B000002B27D0504B00221A603E4BDB78002BBF
:1021C00011D14C4B1B685B04DB084C4AA2FB032378
:1021D0009B08BB60364B1B781946B86800F0F8FCCA
:1021E0000346454A1360324B1B78434A1268114636
:1021F000184600F063FA344806F01EFA344806F038
:102200001BFAA8E13E4B00221A602A4BDB78002B18
:1022100011D1384B1B685B04DB08384AA2FB03234F
:102220009B08BB60224B1B781946B86800F0D0FCB5
:102230000346334A13601E4B1B78314A126811461D
:10224000184600F03BFA204806F0F6F91F4806F061
:10225000F3F980E10121112000F0B4FB144B1B784D
:10226000002B06D01A4806F05FFA174806F05CFA11
:1022700005E0164806F058FA134806F055FA104BD8
:1022800000221A700F4B00221A7064E10121122003
:1022900000F098FB074B5B78002B03D0044B012226
:1022A0001A7058E1024B00221A7054E174080020A1
:1022B0007400002090080020B7600BB61E0A0020B2
:1022C0001F0A0020200A0020900400206003002044
:1022D000AC03002098080020220A0020210A0020D8
:1022E000F2070020310800201C0A002000000240F4
:1022F000000802408008002070080020176CC116FA
:102300006C0800200121132000F05CFB954B1B683A
:10231000954A1360954B1B68954A1360924B1B6856
:10232000944A1360924B1B68924A53600223924A6C
:102330000221904800F0AEFC0DE10121142000F0D4
:1023400041FB8E4B01221A708D4B01221A708D4B6E
:1023500000221A708C4B5B78184600F055FD03463E
:102360001A468A4B1A70884B9B78012B06D1874BF3
:102370001B7863F07703DAB2844B1A70834B1A78B8
:10238000824B5A70824806F047FF642301227F493E
:102390007F4806F074FE05227E497D4806F0F8FE6F
:1023A000D9E005227C497A4806F0F2FE01224FF47A
:1023B00000617A4804F060F9012002F043FE002237
:1023C0004FF40061754804F057F9C4E002236A4AEB
:1023D0000421734800F0A8FC714B1968704B5A68CF
:1023E0006F4B98686E4BDB68009303466D4808F0AE
:1023F000A3F9B0E06C4B1B7883F00103DBB2002B38
:1024000024D001221021654804F036F9674B0022E0
:102410001A7001222021614804F02EF9642002F094
:1024200011FE002220215D4804F026F905226049B2
:10243000604805F065FA0021012000F0C3FA5B4B0B
:102440001B780133DAB2594B1A70E2E701222021DE
:10245000594804F011F9554B00221A70012201214C
:10246000564804F009F9642002F0ECFD0022012135
:10247000524804F001F905225149524805F040FA4A
:102480000021012000F09EFA484B1B780133DAB29C
:10249000464B1A70E2E7444B1B7883F00103DBB232
:1024A000002B0BD005224249424805F029FA64234B
:1024B00005223F49444806F0E2FD4CE00522404930
:1024C000404805F01DFA642305223D493E4806F0C8
:1024D000D6FD40E00023FB6002E0FB680133FB60B7
:1024E000FB68812BF9DD394808F0ACF933E00121B4
:1024F0001A2000F067FA364B1B684FF4FA72DA6262
:102500001E4B01221A70334B00221A701C4B012201
:102510001A701C4B00221A70012000F075FC034653
:102520001A461A4B1A702C4B05221A702B4B02229A
:102530001A70174806F070FE6423012213491448EC
:1025400006F09DFD05221349114806F021FE02E028
:1025500000BF00E000BF224B00221A7000BF1037FE
:10256000BD4680BD240A002064080020280A0020FF
:10257000680800202808002000800108300800209A
:102580003F0800204008002090080020F8070020A5
:10259000C005002000000020A0080020000002402C
:1025A000380A002058B700087400002001080020F5
:1025B000900700207C010020000802400004024037
:1025C00098070020180100204806002070B7000876
:1025D000DC040020E60700201F0A00201E0A00205D
:1025E000190A002080B584B000AF0346FB712A4B66
:1025F0001B7883F00103DBB2002B29D00023FB60A2
:1026000021E001222021254804F036F8022002F0C2
:1026100019FD00222021214804F02EF8022002F0AA
:1026200011FD20211D4804F040F805221C491D48D9
:1026300005F066F96423052219491B4806F01FFDC1
:10264000FB680133FB60FB79FA689A42D9DB1BE037
:102650000023BB6014E00121144804F026F8042094
:1026600002F0F0FC05221249124805F049F96423F2
:1026700005220F490C4806F002FDBB680133BB6020
:10268000FB79BA689A42E6DB0B4B00221A7000BF56
:102690001037BD4680BD00BF74000020000002401E
:1026A000900700207C010020480600200004024022
:1026B00098070020180100200008002080B582B093
:1026C00000AF03463960FB71FB7983F00103DBB295
:1026D000002B40D0424B1B683A689A421DD2404BB7
:1026E0001A683B68D21A3E4B1B683968CB1A03F54F
:1026F00000339A4208D9012210213A4803F0BCFF66
:10270000394B00221A7066E000221021354803F090
:10271000B3FF354B01221A705DE0314B1A683B68FC
:10272000D31A03F500322E4B1B683968CB1A9A4234
:1027300008D2002210212B4803F09EFF2A4B0122D1
:102740001A7048E001221021264803F095FF264B1D
:1027500000221A703FE0254B1B683A689A421DD24E
:10276000224B1A683B68D21A204B1B683968CB1A77
:1027700003F500339A4208D9012220211C4803F0B6
:102780007BFF1C4B00221A7025E0002220211848F4
:1027900003F072FF174B01221A701CE0134B1A68EA
:1027A0003B68D31A03F50032104B1B683968CB1A0B
:1027B0009A4208D2002220210D4803F05DFF0D4B04
:1027C00001221A7007E001222021094803F054FF7A
:1027D000084B00221A7000BF0837BD4680BD00BFFD
:1027E000240A0020000002401C0A0020280A0020C1
:1027F000000802401D0A002080B582B000AF78605A
:10280000391D4FF6FF730122034806F038FC7B6840
:1028100018460837BD4680BD4806002080B485B004
:1028200000AF78607B681B682B4A934202D12B4B28
:1028300001221A707B681B68294A934245D1294BB3
:102840001B78002B3ED00023FB60274B1B781A46D9
:10285000254B5B781344244A92781344FB60FB6851
:10286000DBB2FB60204BDB781A46FB68934203D156
:102870001D4B1B79A52B03D01C4B00221A700DE0B9
:10288000194B1A781A4B1B781B09DBB29A4205D0F8
:10289000164B00221A70174B01221A70164B1B7828
:1028A000002B09D0144B00221A70144B00221A700E
:1028B000134B00221A7002E0104B01221A70094BD0
:1028C00000221A700F4B01221A7000BF1437BD4648
:1028D0005DF8047B704700BF00480040190A0020E3
:1028E0000010014030080020000000201E0A0020D7
:1028F000F807002031080020750000204008002063
:102900003F080020180A002080B483B000AF786030
:102910007B681B68234A93421CD1234B9B785B093D
:10292000DBB203F00703214A13601F4B5B78DA0028
:102930001E4B1B6813431D4A13601B4B1B78DB02A5
:1029400003F4FC32194B1B681343184A1360184BED
:1029500001221A707B681B68164A93421CD1164BE1
:102960009B785B09DBB203F00703144A1360124B38
:102970005B78DA00114B1B681343104A13600E4B4F
:102980001B78DB0203F4FC320C4B1B6813430B4A2D
:1029900013600B4B01221A7000BF0C37BD465DF867
:1029A000047B70470034014090070020240A002077
:1029B0001A0A0020003C004098070020280A002046
:1029C0001B0A002080B584B000AF03460A46FB71A5
:1029D0001346BB714C4B00221A80FB79012B77D137
:1029E0004A4B01221A704A4B1A78484B5A70494B8D
:1029F0001A78464B9A70484B1B781A46434BDA704C
:102A0000464B1A78414B1A71454B1A783F4B5A7115
:102A1000444B1A783D4B9A71424B5A783B4BDA71D2
:102A2000404B9A78394B1A723F4B1B68DAB2374BDE
:102A30005A723D4B1B681B0ADAB2344B9A723A4BFE
:102A40001B681B0CDAB2314BDA72384B1B68DAB2F6
:102A50002E4BDA73354B1B681B0ADAB22B4B1A74F8
:102A6000324B1B681B0CDAB2284B5A74274B0022DE
:102A7000DA77264B002283F820200023FB6016E043
:102A8000224AFB6813441B789AB2FB6801331F4942
:102A9000CB5C9BB21B029BB213449AB21A4B1B88AD
:102AA00013449AB2184B1A80FB680233FB60FB6830
:102AB0001D2BE5DD154B9B7F9AB2134B1B881344EE
:102AC0009AB2114B1A801A4B0F4A12881A8010E0E2
:102AD00021210E4800F05EF90C4AFB7913700B4A75
:102AE000BB795370094AFB79D377084ABB7982F8DE
:102AF00020306423212205490E4806F0C0FA00BFA9
:102B00001037BD4680BD00BFFA070020A007002097
:102B10001E0A00201F0A0020200A0020210A00208F
:102B2000230A0020A8080020240A0020280A0020E8
:102B3000BF0700204806002080B582B000AF002308
:102B4000FB801F4B0B221A701D4B0022DA771C4BA7
:102B5000002283F8202000233B6013E0184A3B68E2
:102B600013441B789AB23B6801331549CB5C9BB286
:102B70001B029BB213449AB2FB881344FB803B6850
:102B800002333B603B681D2BE8DD0D4B9B7F9AB207
:102B9000FB881344FB800B4AFB8813800A4806F02D
:102BA0003BFB642321220649074806F068FA062207
:102BB0000649054806F0ECFA00BF0837BD4680BD5F
:102BC000C4070020E30700204806002090080020EA
:102BD00080B485B000AF78600B46FB700023FB60CB
:102BE000FB78002B14D01E4B1A687B681344B3F596
:102BF000003F07D91A4B1A687B681344A3F50033CA
:102C0000FB6019E0164B1B687A681344FB6013E005
:102C1000144B1A687B681344B3F5003F07D9114B76
:102C20001A687B681344A3F50033FB6004E00D4B86
:102C30001B687A681344FB60FB68002B01D15C239E
:102C4000FB60FB68B3F5003F02D1FB685C3BFB60B7
:102C5000FB6818461437BD465DF8047B704700BF1B
:102C6000680800206408002080B400AF084B0022F0
:102C70001A60074B0222DA60054B04225A60044BAB
:102C800001229A6000BFBD465DF8047B704700BF1B
:102C900008010020B0B586B000AFF8607A603B60F4
:102CA0000B46FB7203F004F81D491E4803F070F94F
:102CB0000346002B2ED10023FB753B68022B02D16B
:102CC0000423FB7504E03B68012B01D10223FB7553
:102CD0000023BB7517E0BB7D9B00FA6813441B689B
:102CE00000221C46154622462B467968386802F0B9
:102CF00085FF0346002B0FD1FB7D7A6813447B6070
:102D0000BB7D0133BB75BA7DFB7A9A42E3D302F0F7
:102D1000F1FF02E000BF00E000BF1837BD46B0BDC4
:102D2000480A00200801002080B487B000AFF86096
:102D30007A603B600B46FB720023FB7500233B610E
:102D40003B68022B02D10423FB7504E03B68012B96
:102D500001D10223FB750023BB820FE07B681B6857
:102D60003B61BB8A9B00FA6813443A691A60FB7D99
:102D70007A6813447B60BB8A0133BB82FB7A9BB2C7
:102D8000BA8A9A42EAD300BF00BF1C37BD465DF83D
:102D9000047B704780B485B000AF78600B46FB7051
:102DA0000023FB7307E0FB7B7A68134400221A7050
:102DB000FB7B0133FB73FA7BFB789A42F3D300BFB2
:102DC00000BF1437BD465DF8047B704780B485B002
:102DD00000AF78600B46FB701346BB70BB78FB738B
:102DE00007E0FB7B7A68134400221A70FB7B0133F7
:102DF000FB73FA7BFB789A42F3D300BF00BF143712
:102E0000BD465DF8047B704780B483B000AF0346D5
:102E1000FB71FB79802B5CD0802B5CDC202B47DCAA
:102E2000002B58DD013B1F2B55D801A252F823F08F
:102E3000B72E0008BB2E0008D72E0008BF2E0008B2
:102E4000D72E0008D72E0008D72E0008C32E000862
:102E5000D72E0008D72E0008D72E0008D72E00083E
:102E6000D72E0008D72E0008D72E0008C72E00083E
:102E7000D72E0008D72E0008D72E0008D72E00081E
:102E8000D72E0008D72E0008D72E0008D72E00080E
:102E9000D72E0008D72E0008D72E0008D72E0008FE
:102EA000D72E0008D72E0008D72E0008CB2E0008FA
:102EB000402B0CD00FE000230EE011230CE0222366
:102EC0000AE0332308E0442306E0552304E06623A8
:102ED00002E0772300E0012318460C37BD465DF879
:102EE000047B704780B483B000AF0346FB80094B7E
:102EF0001B6800225A6200BF064B1B685A6AFB8897
:102F00009A42F9D300BF00BF0C37BD465DF8047B81
:102F1000704700BF4404002080B400AF1F4B1B78F3
:102F20001A461E4B5B7813441C4A92781344DBB25A
:102F30001A4AD27893422CD1184B1B79A52B28D151
:102F4000174B1B78002B12D0144B1A78154B1A70A4
:102F5000124B5A78134B5A70104B9A78114B9A7047
:102F6000114B1B8801339AB20F4B1A800BE00B4BAD
:102F70001A780E4B1A70094B5A780C4B5A70074B43
:102F80009A780A4B9A700A4B1B8801339AB2084B05
:102F90001A8000BFBD465DF8047B7047A008002082
:102FA00039080020B0080020EC070020A808002005
:102FB000EE07002080B500AF21210D48FFF7EAFEA3
:102FC0000B4B0C221A700B4B1A78094B5A70084B9A
:102FD0000C22DA77074B1A78054B83F820206423FC
:102FE00021220349044806F04AF800BF80BD00BF13
:102FF000A0070020310800204806002080B500AF5F
:103000001D4B1B784B21184600F0DAFF1A4B1B783A
:10301000002B17D0194B1B681A1F194B1B689A42BB
:1030200027D8164B1B681A1D164B1B689A4220D3D3
:10303000154805F079FB154805F076FB144B002286
:103040001A7016E0134B1B681A1F0E4B1B689A422E
:103050000FD8104B1B681A1D0A4B1B689A4208D3E5
:103060000D4805F061FB094805F05EFB084B0022A6
:103070001A7000BF80BD00BF7400002070080020DF
:10308000280A0020240A0020AC030020900400201D
:103090001F0A00206C0800206003002080B500AFEC
:1030A000224B1B784B21184600F08AFF1F4B1B78E0
:1030B000002B1CD01E4B1B68A3F12E021D4B1B685E
:1030C0009A4230D81A4B1B6803F12E02194B1B6829
:1030D0009A4228D3184805F027FB184805F024FB2E
:1030E000174B00221A70174B00221A701BE0164B68
:1030F0001B68A3F12E02154B1B689A4213D8124B82
:103100001B6803F12E02114B1B689A420BD3104827
:1031100005F00AFB094805F007FB094B00221A706D
:10312000084B00221A7000BF80BD00BF7400002051
:1031300078080020280A0020AC030020900400201A
:103140001F0A0020200A002074080020240A002002
:103150006003002080B500AF1D4B1B78642118462A
:1031600000F02EFF1B4B1B7883F00103DBB2002B1A
:1031700013D0194B1B68A3F12E02184B1B689A42FF
:1031800024D8154B1B6803F12E02144B1B689A427E
:103190001CD3104B01221A7018E0114B1B68A3F1CD
:1031A0002E020E4B1B689A4210D80D4B1B6803F180
:1031B0002E020A4B1B689A4208D30A4805F0B4FA5B
:1031C000094805F0B1FA094B00221A7000BF80BD12
:1031D000740000203D0800207C080020240A002004
:1031E0006C08002060030020900400201F0A0020CB
:1031F00080B500AF9D4B1B7883F00103DBB2002B41
:103200002AD09B4B01221A709A4B1B685A1F9A4B6B
:103210001B689A4220D8974B1B685A1D964B1B6817
:103220009A4219D3954805F07FFA954B1B78954A39
:10323000126811461846FFF741FA914B1B78924AE3
:10324000127892B21146184600F0BAFE874B01225E
:103250001A708A4805F0F0F9844B1B78002B00F0B7
:10326000C0808A4B1B7883F00103DBB2002B2AD08D
:103270007F4B00221A70834B1B685A1F7E4B1B68C2
:103280009A4220D87F4B1B685A1D7B4B1B689A4281
:1032900019D37E4B01221A7005227D497D4805F025
:1032A00077FF01224FF400617B4803F0E5F97B4B87
:1032B00001221A701E20FFF715FE00224FF4006154
:1032C000754803F0D9F9714B1B78002B00F0898009
:1032D000734B1B7883F00103DBB2002B00F081807D
:1032E000654B1A686F4B1B689A4228D36D4B1B685D
:1032F00003F12E02604B1B689A4220D305226449D9
:10330000644805F045FF01224FF40061624803F074
:10331000B3F9624B01221A701E20FFF7E3FD002271
:103320004FF400615C4803F0A7F95F4B1B88013341
:103330009AB25D4B1A805A4B01221A7094E05B4B93
:103340001B681A1F4C4B1B689A4236D8574B1B6898
:103350001A1D494B1B689A422FD3554B1B881A469E
:10336000524B1B681344514A1360504B1B68B3F512
:10337000003F05D34D4B1B68A3F500334B4A136048
:1033800005224349434805F003FF01224FF4006141
:10339000414803F071F9414B01221A701E20FFF7DA
:1033A000A1FD00224FF400613B4803F065F93E4B5C
:1033B0001B8801339AB23C4B1A803E4B1B6803F2C8
:1033C000DA222D4B1B689A420BD83A4B1B6803F24A
:1033D000B452294B1B689A4203D3364B1B68314ABF
:1033E00013602F4B1B78002B3ED02C4B1B7883F0A7
:1033F0000103DBB2002B37D02F4B1B78002B33D1CE
:103400002E4B1B78002B0FD02C4B1B781A465200EA
:103410001344DBB20133DBB21A4621212848FFF7FF
:10342000D5FC254B01221A70244B00221A70254B23
:1034300001221A70244B00221A70244B00221A70A9
:10344000234B01221A70164B01221A70134B0022D3
:103450001A70204B00221A7000F017FD074805F083
:1034600063F91D4805F060F980BD00BF34080020F5
:10347000200A00205C080020240A002060030020AD
:103480007400002048080020770000203208002047
:10349000A0080020C00500200000024039080020DC
:1034A0003308002050080020F40700202C0A0020D8
:1034B0008408002058080020210A0020E507002089
:1034C000C4070020050000201F0A0020300800204B
:1034D0001E0A0020440800209004002080B500AFA0
:1034E0009D4B1B7883F00103DBB2002B2AD09B4B52
:1034F00001221A709A4B1B685A1F9A4B1B689A42FA
:1035000020D8974B1B685A1D964B1B689A4219D3BB
:10351000954805F009F9954B1B78954A12681146B4
:103520001846FFF7CBF8914B1B78924A127892B26B
:103530001146184600F044FD874B01221A708A4854
:1035400005F07AF8844B1B78002B00F0C2808A4B80
:103550001B7883F00103DBB2002B2AD07F4B0022C3
:103560001A70834B1B685A1F7E4B1B689A4220D8E7
:103570007F4B1B685A1D7B4B1B689A4219D37E4BAD
:1035800001221A7005227D497D4805F001FE0122C5
:103590004FF400617B4803F06FF87B4B01221A70F7
:1035A0000A20FFF79FFC00224FF40061754803F0EA
:1035B00063F8714B1B78002B00F08B80734B1B78EA
:1035C00083F00103DBB2002B00F08380704B1B689B
:1035D000A3F10802634B1B689A4228D86C4B1B6806
:1035E00003F108025F4B1B689A4220D3052263490E
:1035F000634805F0CDFD01224FF40061614803F0FE
:103600003BF8614B01221A700A20FFF76BFC002285
:103610004FF400615B4803F02FF85E4B1B880133C9
:103620009AB25C4B1A80594B01221A7092E05A4BA5
:103630001B681A1F4B4B1B689A4236D8564B1B68A7
:103640001A1D484B1B689A422FD3544B1B881A46AD
:10365000514B1B681344504A13604F4B1B68B3F522
:10366000003F05D34C4B1B68A3F500334A4A136057
:1036700005224249424805F08BFD01224FF40061CA
:10368000404802F0F9FF404B01221A700A20FFF770
:1036900029FC00224FF400613A4802F0EDFF3D4B57
:1036A0001B8801339AB23B4B1A803D4B1B6803F2D7
:1036B000DA223C4B1B689A420BD8394B1B6803F249
:1036C000B452384B1B689A4203D3354B1B68364AB9
:1036D00013602E4B1B78002B3CD02B4B1B7883F0B8
:1036E0000103DBB2002B35D0304B1B78002B31D1DE
:1036F0002F4B1B78002B0FD02D4B1B781A465200F6
:103700001344DBB20133DBB21A4621212948FFF70B
:103710005DFB264B01221A70274805F005F8124878
:1037200005F002F8224B00221A70244B01221A7075
:10373000234B00221A70234B00221A70224B0122C5
:103740001A70124B01221A700F4B00221A701F4B75
:1037500000221A7080BD00BF34080020200A00201B
:1037600060080020280A0020AC030020740000201C
:103770004C0800207700002032080020A00800201C
:10378000C005002000000240390800203308002056
:1037900054080020F4070020300A0020860800208A
:1037A00058080020240A002050080020210A002088
:1037B000E5070020C4070020900400200500002039
:1037C0001F0A0020300800201E0A002044080020A4
:1037D00080B582B000AF984B1B7883F00103DBB259
:1037E000002B02D0944B01221A70934B1B78002BB4
:1037F00000F0E380914B1B7883F00103DBB2002BD8
:1038000000F0DB808E4B1B7883F00103DBB2002BD2
:1038100021D08C4B01221A708B4B1B685A1F8B4B8B
:103820001B689A4217D8884B1B685A1D874B1B6828
:103830009A4210D3864804F077FF864B1B78864A5D
:10384000126811461846FEF739FF7D4B01221A70A7
:103850007F4804F0F1FE7A4B1B78002B00F0AD801E
:103860007E4B1B7883F00103DBB2002B2AD0754B13
:1038700000221A70784B1B685A1F744B1B689A42BF
:1038800020D8754B1B685A1D704B1B689A4219D380
:10389000724B01221A7005227149724805F078FCBA
:1038A00001224FF40061704802F0E6FE6F4B0122E6
:1038B0001A700220FFF716FB00224FF400616A48DD
:1038C00002F0DAFE654B1B78002B76D0684B1B7834
:1038D00083F00103DBB2002B6FD0664B1B68A3F1B2
:1038E00008025A4B1B689A4234D8624B1B6803F19A
:1038F0000802564B1B689A422CD35F4B1B78002B57
:103900000FD05D4B1B781A4652001344DBB20133D3
:10391000DBB21A4621215948FFF758FA584B0122C9
:103920001A70554B00221A70564B01221A70564BD2
:1039300000221A704D4B00221A70454804F0F4FE24
:10394000524804F0F1FE3D4B01221A703D4B01221A
:103950001A7032E04E4B1B681A1F3C4B1B689A4290
:103960002BD84B4B1B681A1D384B1B689A4224D32B
:10397000484B1B881A46464B1B681344444A136045
:1039800005223749374805F003FC01224FF4006156
:10399000354802F071FE354B01221A700220FFF704
:1039A000A1FA00224FF400612F4802F065FE3A4B65
:1039B0001B8801339AB2384B1A80204B1B78002B9E
:1039C00000F0A580354B1B78002B02D000F0B4F836
:1039D0009DE01A4B1B78002B00F099802B4804F0D7
:1039E000A3FE2F4804F0A0FE1C4B00221A70144BBB
:1039F00000221A701E4B00221A70174B1B687B6046
:103A00001C4A7B6813601B4B1B68134A1360254BD1
:103A1000B3F90030B3F5B27F48DB224BB3F9003085
:103A20000533002BB8BF5B429AB21F4B1A801E4B66
:103A30004FF698621A8041E03708002035080020D0
:103A400034080020200A00205C080020240A0020FE
:103A50006003002074000020480800203208002085
:103A6000A0080020C0050020000002403908002006
:103A70003308002050080020E5070020C40700207C
:103A8000210A0020050000203008002090040020BA
:103A90002C0A002084080020F407002036080020AB
:103AA000AC0300208A0800208C0800201A4BB3F9D0
:103AB00000309BB205339AB2184B1A80174B1B8803
:103AC0005B04174A82FB03121A441212DB17D31A43
:103AD0001A46144B1A60134B1B68134A127811468E
:103AE0001846FFF775F803460E4A13600E4B1B7815
:103AF0000C4A126811461846FEF7E0FD0B4B0122F6
:103B00001A700B4804F098FD0A4804F095FD00BFB8
:103B10000837BD4680BD00BF8A0800208C08002001
:103B2000B7600BB65C080020740000203608002047
:103B3000900400206003002080B500AF6E4B1B781E
:103B400083F00103DBB2002B21D06C4B01221A70F1
:103B50006B4B1B685A1F6B4B1B689A4217D8684BFC
:103B60001B685A1D674B1B689A4210D3664804F0C5
:103B7000DBFD664B1B78664A126811461846FEF755
:103B80009DFD5D4B01221A705F4804F055FD5A4BB4
:103B90001B78002B00F0AE805E4B1B7883F0010396
:103BA000DBB2002B2AD0554B00221A70584B1B68F1
:103BB0005A1F544B1B689A4220D8554B1B685A1DFC
:103BC000504B1B689A4219D3524B01221A7005229E
:103BD0005149524805F0DCFA01224FF40061504887
:103BE00002F04AFD4F4B01221A700220FFF77AF9CA
:103BF00000224FF400614A4802F03EFD454B1B781D
:103C0000002B77D0484B1B7883F00103DBB2002BED
:103C100070D0464B1B681A1F3A4B1B689A4236D825
:103C2000424B1B681A1D374B1B689A422FD3404BDF
:103C30001B78002B0FD03E4B1B781A4652001344C2
:103C4000DBB20133DBB21A4621213A48FFF7BEF856
:103C5000394B01221A70364B00221A70374B012261
:103C60001A70374B00221A70364B00221A70364BEE
:103C700001221A702C4B01221A702A4B00221A7052
:103C8000214804F051FD314804F04EFD32E0304B44
:103C90001B681A1F1B4B1B689A422BD82C4B1B68A6
:103CA0001A1D184B1B689A4224D32A4B1B881A46AC
:103CB000274B1B681344264A1360052216491748F0
:103CC00005F066FA01224FF40061154802F0D4FCB9
:103CD000144B01221A700220FFF704F900224FF45E
:103CE00000610F4802F0C8FC1B4B1B8801339AB2DD
:103CF000194B1A8000BF80BD34080020200A002024
:103D00005C080020240A00206003002074000020CA
:103D10004808002032080020A0080020C00500202C
:103D2000000002403908002033080020500800201D
:103D3000E5070020C4070020210A0020050000201C
:103D40001F0A0020300800201E0A002090040020D6
:103D50002C0A002084080020F407002080B487B0DB
:103D600000AF786039607B680C4AA2FB0323DB0854
:103D70007B613B685B00094AA2FB0323DB083B61D4
:103D80007A693B69B2FBF3F39BB20133FB81FB8998
:103D900018461C37BD465DF8047B7047CDCCCCCCB3
:103DA00080B582B000AF0346FB71FB79022B02DCC9
:103DB000002B2CDC64E0043B012B61D800220321A2
:103DC0000B2001F062FA0B2001F07BFA01220321A3
:103DD000102001F05AFA102001F073FA002203219A
:103DE000382001F052FA382001F06BFA0122032149
:103DF000392001F04AFA392001F063FA002201214A
:103E0000192001F042FA192001F05BFA39E0012291
:103E100000213A2001F039FA3A2001F052FA012249
:103E20000021252001F031FA252001F04AFA012273
:103E30000221372001F029FA372001F042FA00224E
:103E400003210B2001F021FA0B2001F03AFA0122A4
:103E50000321102001F019FA102001F032FA00229B
:103E60000321382001F011FA382001F02AFA01224A
:103E70000321392001F009FA392001F022FA00E08B
:103E800000BF00BF0837BD4680BD80B500AF00222F
:103E900001210B2001F0F9F90B2001F012FA0022A8
:103EA00001210C2001F0F1F90C2001F00AFA0022A6
:103EB0000121102001F0E9F9102001F002FA01229D
:103EC0000121382001F0E1F9382001F0FAF901224E
:103ED0000121392001F0D9F9392001F0F2F900224D
:103EE00001213A2001F0D1F93A2001F0EAF900224B
:103EF0000121252001F0C9F9252001F0E2F9002275
:103F00000221372001F0C1F9372001F0DAF900BFB2
:103F100080BD000080B400AF224B1A68224B1B68A2
:103F20009A4238D31F4B1B689AB21F4B1B689BB237
:103F3000D31A9AB21D4B1B8813449AB21B4B1A809A
:103F40001A4B1B881A461A4B1B681344184A1360F5
:103F5000164B1B88C72B1ED9164B1B881946134BB3
:103F60001B88154AA2FB03239B099BB25B00CB1A5B
:103F70001A46124B1A600D4B1B880F4AA2FB031204
:103F80009209C82101FB02F29B1A9AB2074B1A80D0
:103F90000A4B1B6801E0074B1B881846BD465DF8BD
:103FA000047B70470408002008080020FE0700205A
:103FB000340A0020E80700201F85EB51100800207C
:103FC00080B485B000AF03460A46FB711346BB8040
:103FD0000023FB60134BFB60FB79002B0ED0124BD0
:103FE0001B689B6A0133FA68B2FBF3F2BB88B2FB31
:103FF000F3F20D4B1B68013ADA620DE00A4B1B68C5
:104000009B6A0133FA68B2FBF3F2BB88B2FBF3F2AE
:10401000064B1B68013ADA6200BF1437BD465DF8F3
:10402000047B704700F36F06AC03002060030020A0
:1040300080B485B000AF78600B467B800023FB81A5
:104040000023BB812EE0FB897A6813441A78BB8970
:1040500011461A4A42F82310BB89184A52F8232005
:10406000FB89013379680B441B781B021946BB8915
:104070000A43124941F82320BB89104A52F82320F1
:10408000FB89023379680B441B781B041946BB89F2
:104090000A430A4941F82320FB890333FB81BB898A
:1040A0000133BB81FA897B889A42CCD300BF00BF21
:1040B0001437BD465DF8047B704700BF50090020EF
:1040C00080B485B000AF786039607B681B68FB60A6
:1040D0003B681A687B681A603B68FA681A6000BF20
:1040E0001437BD465DF8047B704780B584B000AFDF
:1040F00078600B467B802CE00023FB730023BB60C1
:104100001DE0BB689B007A6813441A68BB680133E2
:104110009B0079680B441B689A420DD9BB689B00D1
:104120007A68D018BB6801339B007A68134419463B
:10413000FFF7C6FF0123FB73BB680133BB607B88BD
:10414000BA689A42DDDBFB7B83F00103DBB2002B14
:1041500005D17B885A1E7A80002BCDD100E000BFAC
:1041600000BF1037BD4680BD2DE9B04F86B000AF0F
:1041700078600B467B8013467B707B88DAB27B7855
:10418000D31ADBB2013B7B734FF000024FF0000308
:10419000C7E904237B78FB8112E0FB899B007A68E6
:1041A00013441B6800221C461546D7E9042312EB72
:1041B000040843EB0509C7E90489FB890133FB8146
:1041C0007B7B9BB2FA899A42E7D97A887B785B003D
:1041D000D31ADA179A46934652465B46D7E904014A
:1041E000FCF76EF802460B461346BB60BB681846E8
:1041F0001837BD46BDE8B08F80B582B000AF03462A
:10420000FB80FB8840F26D1293424ED0B3F5B77F2E
:104210006DDAB62B54D0B62B69DC1D2B42DC002B9B
:1042200065DD013B1C2B62D801A252F823F000BFD0
:10423000D7420008EF420008D7420008EF420008CA
:10424000EF420008D7420008EF420008EF420008A2
:10425000EF420008EF420008EF420008EF4200087A
:10426000EF420008EF420008EF420008EF4200086A
:10427000EF420008EF420008EF420008EF4200085A
:10428000EF420008EF420008EF420008EF4200084A
:10429000EF420008EF420008EF420008EF4200083A
:1042A000D74200083C2B16D021E0134B28221A706D
:1042B000114B1A78114B1A70C82000F021F816E043
:1042C0000D4B28221A700C4B1A780C4B1A70C82010
:1042D00000F016F80BE0084B28221A70064B1A78EB
:1042E000064B1A704FF47A7000F00AF800BF00BF56
:1042F0000837BD4680BD00BF780000207700002051
:1043000080B483B000AF0346FB80FB885A1E044B89
:104310001B68DA6200BF0C37BD465DF8047B70474E
:104320009004002080B584B000AF78607B68D3F83B
:10433000843003F00803002B08D07B681B68082238
:104340001A621B4B1B685B6ADBB2FB737B68194A02
:10435000934229D17B68D3F8843003F00803002B03
:104360000ED07B681B6808221A62124B1B685B6ABE
:10437000DBB2BB73062210490E4804F009FF13E0BC
:104380007B681B68DB690D4A13607B68D3F8843057
:104390000B4A1360074804F035FEFCF76DFF062258
:1043A0000549044804F0F4FE00BF1037BD4680BD47
:1043B000C005002048060020900800201C080020AE
:1043C0002008002080B400AF72B600BFFEE70000F6
:1043D00080B582B000AF0F4B1B6C0E4A43F0805388
:1043E00013640C4B1B6C03F080537B607B68094BA0
:1043F0005B6C084A43F480435364064B5B6C03F4E4
:1044000080433B603B68052000F034FF00BF083765
:10441000BD4680BD0038024080B58CB000AF7860EA
:1044200007F11C0300221A605A609A60DA601A6170
:104430007B681B68984A934240F0A080974B1B6CA6
:10444000964A43F400431364944B1B6C03F40043FB
:10445000BB61BB69914B1B6B904A43F00203136332
:104460008E4B1B6B03F002037B617B698B4B1B6BD9
:104470008A4A43F004031363884B1B6B03F0040365
:104480003B613B690423FB6102233B6200237B62A7
:104490000323BB620723FB6207F11C031946804814
:1044A00001F052FE4FF44063FB6102233B620023A4
:1044B0007B620323BB620623FB6207F11C031946E0
:1044C000784801F041FE784B784A1A60764B00221A
:1044D0005A60754B00229A60734B0022DA60724B6F
:1044E0004FF480621A61704B00225A616E4B0022B9
:1044F0009A616D4B0022DA616B4B00221A626A4BA3
:1045000000225A62684800F005FF0346002B01D0E4
:10451000FFF758FF7B68644A9A65634A7B68936338
:10452000634B644A1A60624B00225A60604B40221F
:104530009A605F4B0022DA605D4B4FF480621A6133
:104540005B4B00225A615A4B00229A61584B002261
:10455000DA61574B00221A62554B00225A625448C6
:1045600000F0D8FE0346002B01D0FFF72BFF7B683D
:104570004F4A5A654E4A7B68936389E07B681B68A3
:104580004D4A934240F08480444B5B6C434A43F471
:1045900000535364414B5B6C03F40053FB60FB68B6
:1045A0003E4B1B6B3D4A43F0100313633B4B1B6BAD
:1045B00003F01003BB60BB686423FB6102233B6212
:1045C00000237B620323BB620523FB6207F11C030C
:1045D00019463A4801F0B8FD394B3A4A1A60384B4F
:1045E0004FF000625A60364B00229A60344B002232
:1045F000DA60334B4FF480621A61314B00225A610A
:104600002F4B00229A612E4B0022DA612C4B0022A4
:104610001A622B4B00225A62294800F07BFE0346A7
:10462000002B01D0FFF7CEFE7B68254A9A65244A0D
:104630007B689363244B254A1A60234B4FF000623A
:104640005A60214B40229A601F4B0022DA601E4BB9
:104650004FF480621A611C4B00225A611A4B0022EF
:104660009A61194B0022DA61174B00221A62164B2D
:1046700000225A62144800F04DFE0346002B01D080
:10468000FFF7A0FE7B68104A5A650F4A7B68936368
:1046900000BF3037BD4680BD003C004000380240BE
:1046A0000004024000080240E001002010600240C7
:1046B00040020020886002400034014000100240A7
:1046C000A002002010640240000300202864024081
:1046D00080B58AB000AF78607B681B68B3F1804F0B
:1046E00014D1634B1B6C624A43F001031364604BAB
:1046F0001B6C03F001037B627B6A002202211C20F9
:1047000000F0C3FD1C2000F0DCFDACE07B681B6802
:10471000584A934214D1564B1B6C554A43F002033E
:104720001364534B1B6C03F002033B623B6A002291
:1047300002211D2000F0A9FD1D2000F0C2FD92E025
:104740007B681B684C4A934214D1494B1B6C484A06
:1047500043F008031364464B1B6C03F00803FB6132
:10476000FB6900220121322000F08FFD322000F091
:10477000A8FD78E07B681B68404A93420CD13C4B13
:104780001B6C3B4A43F010031364394B1B6C03F062
:104790001003BB61BB6966E07B681B68384A9342C3
:1047A00014D1334B1B6C324A43F020031364304B5B
:1047B0001B6C03F020037B617B6900220221372000
:1047C00000F063FD372000F07CFD4CE07B681B6847
:1047D0002C4A934214D1264B5B6C254A43F4003398
:1047E0005364234B5B6C03F400333B613B6903224E
:1047F0000321192000F049FD192000F062FD32E08C
:104800007B681B68204A934214D1194B1B6C184AD1
:1048100043F080031364164B1B6C03F08003FB60B2
:10482000FB68012201212C2000F02FFD2C2000F03C
:1048300048FD18E07B681B68144A934213D10C4B67
:104840001B6C0B4A43F480731364094B1B6C03F419
:104850008073BB60BB68012201212D2000F015FD93
:104860002D2000F02EFD00BF2837BD4680BD00BFC3
:104870000038024000040040000C004000100040DE
:104880000014004000440140001C00400020004093
:1048900080B5ACB000AF786007F19C0300221A60CD
:1048A0005A609A60DA601A6107F11C0380220021C5
:1048B000184605F039FF7B681B687A4A934273D12A
:1048C0004023FB610023BB6507F11C03184602F07F
:1048D00021FC0346002B01D0FFF774FD724B5B6C8B
:1048E000714A43F0100353646F4B5B6C03F0100389
:1048F000BB61BB696C4B1B6B6B4A43F001031363D9
:10490000694B1B6B03F001037B617B694FF4C06350
:10491000C7F89C300223C7F8A0300023C7F8A430A2
:104920000323C7F8A8300723C7F8AC3007F19C036E
:1049300019465E4801F008FC5D4B5E4A1A605C4B0C
:104940004FF000625A605A4B00229A60584B002286
:10495000DA60574B4FF480621A61554B00225A615E
:10496000534B00229A61524B0022DA61504B4FF4B4
:1049700000321A624E4B00225A624D4800F0CAFCC7
:104980000346002B01D0FFF71DFD7B68484A5A679C
:10499000474A7B68936300220121252000F075FCC3
:1049A000252000F08EFC78E07B681B68424A934229
:1049B00073D14FF48073FB6100233B6607F11C0346
:1049C000184602F0A7FB0346002B01D0FFF7FAFCC4
:1049D000354B1B6C344A43F480231364324B1B6CFD
:1049E00003F480233B613B692F4B1B6B2E4A43F042
:1049F000020313632C4B1B6B03F00203FB60FB6889
:104A00004FF49843C7F89C300223C7F8A030002326
:104A1000C7F8A4300323C7F8A8300723C7F8AC3081
:104A200007F19C031946254801F08EFB244B254ACB
:104A30001A60234B4FF000625A60214B00229A60AB
:104A40001F4B0022DA601E4B4FF480621A611C4B30
:104A500000225A611A4B00229A61194B4FF480725E
:104A6000DA61174B00221A62154B00225A62144871
:104A700000F050FC0346002B01D0FFF7A3FC7B683D
:104A80000F4A5A670E4A7B68936300220121272050
:104A900000F0FBFB272000F014FC00BFB037BD4640
:104AA00080BD00BF001001400038024000000240FD
:104AB000D00600204064024000480040000402404C
:104AC000300700202860024080B582B000AF7860D7
:104AD0007B681B68194A934213D1194B5B6C184AC7
:104AE00023F0100353644FF4C061164801F0C8FC72
:104AF0007B685B6F184600F0BBFC252000F0EFFBE5
:104B000017E07B681B68104A934212D10C4B1B6C58
:104B10000B4A23F4802313644FF498410B4801F0AF
:104B2000AFFC7B685B6F184600F0A2FC272000F00A
:104B3000D6FB00BF0837BD4680BD00BF0010014056
:104B400000380240000002400048004000040240DB
:104B500080B400AFFEE780B400AFFEE780B400AFE2
:104B6000FEE780B400AFFEE780B400AFFEE780B49C
:104B700000AF00BFBD465DF8047B704780B400AF56
:104B800000BFBD465DF8047B704780B400AF00BF36
:104B9000BD465DF8047B704780B500AF00F032FA87
:104BA00000BF80BD80B500AF024800F0B1FD00BF7E
:104BB00080BD00BFE001002080B500AF024800F0DA
:104BC000A7FD00BF80BD00BF3007002080B500AF4B
:104BD000024800F09DFD00BF80BD00BF40020020E4
:104BE00080B500AF034B01221A70034803F0CCFDDF
:104BF00000BF80BD42080020DC04002080B500AF6B
:104C00002021064801F051FD054B1B6800225A6225
:104C1000034803F0B9FD00BF80BD00BF00000240A3
:104C20006003002080B500AF0121064801F03DFD82
:104C3000054B1B6800225A62034803F0A5FD00BF24
:104C400080BD00BF00040240AC03002080B500AF6F
:104C5000024804F073FB00BF80BD00BFC005002008
:104C600080B500AF024804F069FB00BF80BD00BF03
:104C70004806002080B500AF0A4B1B680133094A83
:104C80001360094B00221A60084B1B685A6A084BD4
:104C90001B681344064A1360044803F075FD00BF07
:104CA00080BD00BFF6070020430800202805002033
:104CB0000408002080B500AF034B01221A7003489E
:104CC00003F062FD00BF80BD410800207405002094
:104CD00080B500AF134B1A68134B1B689A4212D26F
:104CE000124B1B881946104B1A680E4B1B68D31ABF
:104CF00003FB01F20E4B1B685200DA620C4B1B687F
:104D000000225A6208E00B4803F06EFC084803F0EA
:104D10006BFC094B01221A60054803F035FD00BF0A
:104D200080BD00BF1408002018080020E8070020FC
:104D3000F8030020740500203808002080B500AF7B
:104D40000D4B1B7883F00103DBB2002B05D005224D
:104D50000A490B4802F0D4FD04E0052209490A483B
:104D600002F0CEFD094B1B6800225A62074803F08F
:104D70000BFD00BF80BD00BF740000209007002025
:104D80007C010020980700201801002090040020DA
:104D900080B500AF024800F0BBFC00BF80BD00BF83
:104DA000A002002080B500AF024800F0B1FC00BFB7
:104DB00080BD00BF0003002080B500AF024800F0B6
:104DC000A7FC00BF80BD00BFD006002080B586B024
:104DD00000AFF860B9607A6000237B610AE0AFF34E
:104DE00000800146BB685A1CBA60CAB21A707B695F
:104DF00001337B617A697B689A42F0DB7B681846F5
:104E00001837BD4680BD80B586B000AFF860B96088
:104E10007A6000237B6109E0BB685A1CBA601B788A
:104E20001846FDF7E9FC7B6901337B617A697B6891
:104E30009A42F1DB7B6818461837BD4680BD80B4C6
:104E400083B000AF78604FF0FF3318460C37BD4693
:104E50005DF8047B704780B483B000AF7860396040
:104E60003B684FF400525A60002318460C37BD4689
:104E70005DF8047B704780B483B000AF7860012395
:104E800018460C37BD465DF8047B704780B485B08A
:104E900000AFF860B9607A60002318461437BD4649
:104EA0005DF8047B7047000080B586B000AF786085
:104EB000144A154BD31A7B617B693B61134B1B680A
:104EC000002B02D1114B124A1A60104B1A687B68F2
:104ED00013443A699A4207D205F0FCFB03460C22C0
:104EE0001A604FF0FF3309E0084B1B68FB60074B6B
:104EF0001A687B681344054A1360FB681846183724
:104F0000BD4680BD00000420000400004C0A0020C3
:104F1000800A002080B400AF064BD3F88830054AE1
:104F200043F47003C2F8883000BFBD465DF8047BCF
:104F3000704700BF00ED00E0DFF834D0FFF7EAFF74
:104F40000C480D490D4A002302E0D458C4500433E4
:104F5000C4188C42F9D30A4A0A4C002301E01360BA
:104F60000432A242FBD305F0BBFBFBF72BFB7047DF
:104F70000000042000000020EC0000203CB80008E5
:104F8000EC000020800A0020FEE780B500AF03207F
:104F900000F070F9002000F005F8FFF719FA00237F
:104FA000184680BD80B582B000AF7860124B1A6899
:104FB000124B1B7819464FF47A73B3FBF1F3B2FB33
:104FC000F3F3184600F099F90346002B01D00123B2
:104FD0000EE07B680F2B0AD8002279684FF0FF3073
:104FE00000F053F9064A7B681360002300E00123B8
:104FF00018460837BD4680BD7C0000208400002094
:105000008000002080B400AF064B1B781A46064B88
:105010001B681344044A136000BFBD465DF8047B5F
:10502000704700BF84000020500A002080B400AF09
:10503000034B1B681846BD465DF8047B704700BFF4
:10504000500A002080B584B000AF7860FFF7EEFF13
:10505000B8607B68FB60FB68B3F1FF3F05D00A4B8B
:105060001B781A46FB681344FB6000BFFFF7DEFFA6
:105070000246BB68D31AFA689A42F7D800BF00BF4D
:105080001037BD4680BD00BF8400002080B485B0CD
:1050900000AF78607B6803F00703FB600B4BDB68B5
:1050A000BB60BA684FF6FF031340BB60FB681A028F
:1050B000BB681A43064B1343BB60044ABB68D3600A
:1050C00000BF1437BD465DF8047B704700ED00E07B
:1050D0000000FA0580B400AF044BDB681B0A03F044
:1050E00007031846BD465DF8047B704700ED00E0FD
:1050F00080B483B000AF0346FB7197F90730002BF3
:105100000BDBFB7903F01F02074997F907305B09B6
:10511000012000FA02F241F8232000BF0C37BD46FF
:105120005DF8047B704700BF00E100E080B483B00D
:1051300000AF0346FB7197F90730002B12DBFB79B8
:1051400003F01F020A4997F907305B09012000FAB2
:1051500002F2203341F82320BFF34F8F00BFBFF38B
:105160006F8F00BF00BF0C37BD465DF8047B7047F2
:1051700000E100E080B483B000AF03463960FB710A
:1051800097F90730002B0ADB3B68DAB20C4997F934
:1051900007301201D2B20B4483F800230AE03B68C7
:1051A000DAB20849FB7903F00F03043B1201D2B2D3
:1051B0000B441A7600BF0C37BD465DF8047B704780
:1051C00000E100E000ED00E080B489B000AFF860DD
:1051D000B9607A60FB6803F00703FB61FB69C3F108
:1051E0000703042B28BF0423BB61FB690433062B90
:1051F00002D9FB69033B00E000237B614FF0FF32E3
:10520000BB6902FA03F3DA43BB681A407B699A4030
:105210004FF0FF317B6901FA03F3D9437B680B4000
:10522000134318462437BD465DF8047B70470000E1
:1052300080B582B000AF78607B68013BB3F1807FBE
:1052400001D301230FE00A4A7B68013B53600F2121
:105250004FF0FF30FFF78EFF054B00229A60044BA2
:1052600007221A60002318460837BD4680BD00BFDC
:1052700010E000E080B582B000AF78607868FFF79A
:1052800005FF00BF0837BD4680BD80B586B000AFC2
:105290000346B9607A60FB7300237B61FFF71AFF56
:1052A00078617A68B9687869FFF78EFF024697F9E6
:1052B0000F3011461846FFF75DFF00BF1837BD4697
:1052C00080BD80B582B000AF0346FB7197F907300F
:1052D0001846FFF70DFF00BF0837BD4680BD80B5FB
:1052E00082B000AF0346FB7197F907301846FFF70D
:1052F0001DFF00BF0837BD4680BD80B582B000AF3E
:1053000078607868FFF794FF034618460837BD4673
:1053100080BD000080B586B000AF786000237B615F
:10532000FFF784FE38617B68002B01D1012399E0EF
:105330007B68022283F835207B68002283F83420C2
:105340007B681B681A687B681B6822F001021A6080
:105350000FE0FFF76BFE02463B69D31A052B08D915
:105360007B6820225A657B68032283F8352003235B
:1053700078E07B681B681B6803F00103002BE8D111
:105380007B681B681B687B617A69384B13407B61C3
:105390007B685A687B689B681A437B68DB681A43A2
:1053A0007B681B691A437B685B691A437B689B694E
:1053B0001A437B68DB691A437B681B6A13437A696B
:1053C00013437B617B685B6A042B07D17B68DA6AD5
:1053D0007B681B6B13437A6913437B617B681B6893
:1053E0007A691A607B681B685B697B617B6923F063
:1053F00007037B617B685B6A7A6913437B617B6827
:105400005B6A042B17D17B689B6A7A6913437B61C3
:105410007B68DB6A002B0ED0786800F073FB0346D4
:10542000002B08D07B6840225A657B68002283F8F5
:105430003520012316E07B681B687A695A61786819
:1054400000F02AFB0346FB607B68DB6D3F229A403D
:10545000FB689A607B6800225A657B68012283F8AA
:105460003520002318461837BD4680BD3F8010E028
:1054700080B584B000AF78607B68002B01D1012338
:1054800050E07B6893F83530DBB2022B01D1022368
:1054900048E07B681B681A687B681B6822F0010281
:1054A0001A607B681B6800221A607B681B680022F8
:1054B0005A607B681B6800229A607B681B68002228
:1054C000DA607B681B6800221A617B681B682122F6
:1054D0005A61786800F0E0FA0346FB607B68DB6D98
:1054E0003F229A40FB689A607B680022DA637B68FF
:1054F00000221A647B6800225A647B6800229A6446
:105500007B680022DA647B6800221A657B680022CF
:105510005A657B68002283F835207B68002283F877
:105520003420002318461037BD4680BD80B586B0B4
:1055300000AFF860B9607A603B600023FB75FB68E0
:105540009B6D3B61FB6893F83430012B01D1022342
:1055500048E0FB68012283F83420FB6893F835307B
:10556000DBB2012B37D1FB68022283F83520FB68C0
:1055700000225A653B687A68B968F86800F05EFAFC
:10558000FB68DB6D3F229A403B699A60FB681B68B1
:105590001A68FB681B6842F016021A60FB681B68F9
:1055A0005A69FB681B6842F080025A61FB681B6CF9
:1055B000002B07D0FB681B681A68FB681B6842F069
:1055C00008021A60FB681B681A68FB681B6842F0D7
:1055D00001021A6005E0FB68002283F834200223F0
:1055E000FB75FB7D18461837BD4680BD80B584B07D
:1055F00000AF78607B689B6DFB60FFF717FDB860BC
:105600007B6893F83530DBB2022B08D07B688022B0
:105610005A657B68002283F83420012352E07B68BE
:105620001B681A687B681B6822F016021A607B6888
:105630001B685A697B681B6822F080025A617B688C
:105640001B6C002B03D17B689B6C002B07D07B6805
:105650001B681A687B681B6822F008021A607B6866
:105660001B681A687B681B6822F001021A6013E04D
:10567000FFF7DCFC0246BB68D31A052B0CD97B680C
:1056800020225A657B68032283F835207B6800223C
:1056900083F83420032315E07B681B681B6803F044
:1056A0000103002BE4D17B68DB6D3F229A40FB684D
:1056B0009A607B68012283F835207B68002283F89A
:1056C0003420002318461037BD4680BD80B483B017
:1056D00000AF78607B6893F83530DBB2022B04D0E2
:1056E0007B6880225A6501230CE07B68052283F8E1
:1056F00035207B681B681A687B681B6822F00102F2
:105700001A60002318460C37BD465DF8047B7047CD
:1057100080B586B000AF78600023BB608E4B1B68FD
:105720008E4AA2FB03239B0A7B617B689B6D3B61D6
:105730003B691B68FB607B68DB6D08229A40FB6855
:105740001340002B1AD07B681B681B6803F004030E
:10575000002B13D07B681B681A687B681B6822F0DB
:1057600004021A607B68DB6D08229A403B699A60EC
:105770007B685B6D43F001027B685A657B68DB6D7B
:1057800001229A40FB681340002B12D07B681B68F3
:105790005B6903F08003002B0BD07B68DB6D01227B
:1057A0009A403B699A607B685B6D43F002027B68BC
:1057B0005A657B68DB6D04229A40FB681340002B1E
:1057C00012D07B681B681B6803F00203002B0BD010
:1057D0007B68DB6D04229A403B699A607B685B6D55
:1057E00043F004027B685A657B68DB6D10229A40A7
:1057F000FB681340002B43D07B681B681B6803F0D9
:105800000803002B3CD07B68DB6D10229A403B697B
:105810009A607B681B681B6803F48023002B18D0F8
:105820007B681B681B6803F40023002B08D17B688E
:105830001B6C002B24D07B681B6C786898471FE09A
:105840007B689B6C002B1BD07B689B6C78689847AF
:1058500016E07B681B681B6803F48073002B07D17C
:105860007B681B681A687B681B6822F008021A6054
:105870007B681B6C002B03D07B681B6C7868984797
:105880007B68DB6D20229A40FB681340002B00F000
:105890008F807B681B681B6803F01003002B00F0EF
:1058A00087807B68DB6D20229A403B699A607B6829
:1058B00093F83530DBB2052B36D17B681B681A684C
:1058C0007B681B6822F016021A607B681B685A69A5
:1058D0007B681B6822F080025A617B681B6C002B7E
:1058E00003D17B689B6C002B07D07B681B681A6810
:1058F0007B681B6822F008021A607B68DB6D3F2220
:105900009A403B699A607B68012283F835207B6866
:10591000002283F834207B681B6D002B7ED07B68CF
:105920001B6D7868984779E07B681B681B6803F4F7
:105930008023002B1DD07B681B681B6803F40023A9
:10594000002B0DD17B685B6C002B31D07B685B6CCE
:10595000786898472CE000BF7C000020B5814E1B82
:105960007B68DB6B002B23D07B68DB6B7868984708
:105970001EE07B681B681B6803F48073002B0FD14B
:105980007B681B681A687B681B6822F010021A602B
:105990007B68012283F835207B68002283F834205D
:1059A0007B68DB6B002B03D07B68DB6B78689847E8
:1059B0007B685B6D002B32D07B685B6D03F001036D
:1059C000002B22D07B68052283F835207B681B687A
:1059D0001A687B681B6822F001021A60BB680133F9
:1059E000BB607A699A4207D37B681B681B6803F027
:1059F0000103002BF2D100E000BF7B68012283F895
:105A000035207B68002283F834207B68DB6C002B18
:105A100005D07B68DB6C7868984700E000BF1837DA
:105A2000BD4680BD80B483B000AF78607B685B6D9D
:105A300018460C37BD465DF8047B704780B485B0CE
:105A400000AFF860B9607A603B60FB681B681A6859
:105A5000FB681B6822F480221A60FB681B683A68A6
:105A60005A60FB689B68402B08D1FB681B687A680A
:105A70009A60FB681B68BA68DA6007E0FB681B681D
:105A8000BA689A60FB681B687A68DA6000BF1437EE
:105A9000BD465DF8047B704780B485B000AF786088
:105AA0007B681B68DBB2103B134AA2FB03231B0974
:105AB000FB60124AFB6813441B781A467B68DA6560
:105AC000FB68032B08D97B681B681A460C4B1340F4
:105AD0001A1D7B689A6506E07B681B681A46084BAE
