:020000040800F2
:100000000000042035560008D9510008DF510008CF
:10001000E5510008EB510008F15100080000000014
:10002000000000000000000000000000F751000880
:100030000552000800000000135200082152000879
:100040008556000885560008855600088556000824
:100050008556000885560008855600088556000814
:100060008556000885560008855600082D52000860
:10007000415200088556000885560008855600083C
:100080005552000885560008855600088556000818
:1000900085560008855600088556000885560008D4
:1000A000695200087D5200088556000885560008F0
:1000B00099520008C1520008E9520008855600080C
:1000C00085560008855600088556000885560008A4
:1000D0008556000805530008855600081953000886
:1000E0008556000885560008855600088556000884
:1000F0002D5300086D5300088556000885560008EA
:100100008556000885560008895300088556000862
:10011000855600088556000885560008F5530008E6
:10012000495400085D5400087154000885560008C1
:1001300085560008000000000000000000000000DC
:1001400000000000000000000000000085560008CC
:100150008556000885560008855600088556000813
:100160008556000885560008855600088556000803
:1001700085560008855600080000000000000000B9
:1001800085560008855600088556000885560008E3
:1001900085560008855600080000000085560008B6
:1001A000000000000000000000000000855600086C
:1001B0008556000885560008000000000000000079
:1001C000000000000000000000000000000000002F
:1001D000000000000000000000000000855600083C
:1001E00010B5054C237833B9044B13B10448AFF371
:1001F00000800123237010BD2401002000000000B6
:100200002CC0000808B5034B1BB103490348AFF3EA
:10021000008008BD00000000280100202CC000085C
:1002200001F0FF01102A2BDB10F0070F08D010F8A7
:10023000013B013A8B422DD010F0070F42B3F6D1AB
:10024000F0B441EA012141EA014122F007047FF0C4
:1002500000070023F0E80256083C85EA010586EA1B
:10026000010685FA47F5A3FA87F586FA47F6A5FA57
:1002700087F68EB9EED1F0BC01F0FF0102F0070263
:1002800032B110F8013B013A83EA010313B1F8D10E
:100290000020704701387047002D06BF35460338EF
:1002A000073815F0010F07D1013015F4807F02BF28
:1002B000013015F4C03F0130F0BC0138704700BF79
:1002C00053B94AB9002908BF00281CBF4FF0FF31BD
:1002D0004FF0FF3000F074B9ADF1080C6DE904CEB9
:1002E00000F006F8DDF804E0DDE9022304B0704711
:1002F0002DE9F047089D04468E46002B4DD18A42D9
:10030000944669D9B2FA82F252B101FA02F3C2F10B
:10031000200120FA01F10CFA02FC41EA030E94409C
:100320004FEA1C48210CBEFBF8F61FFA8CF708FBBD
:1003300016E341EA034306FB07F199420AD91CEB95
:10034000030306F1FF3080F01F81994240F21C81C7
:10035000023E63445B1AA4B2B3FBF8F008FB10330F
:1003600044EA034400FB07F7A7420AD91CEB040444
:1003700000F1FF3380F00A81A74240F20781644414
:10038000023840EA0640E41B00261DB1D440002399
:10039000C5E900433146BDE8F0878B4209D9002DFD
:1003A00000F0EF800026C5E9000130463146BDE887
:1003B000F087B3FA83F6002E4AD18B4202D38242F1
:1003C00000F2F980841A61EB030301209E46002DA0
:1003D000E0D0C5E9004EDDE702B9FFDEB2FA82F2F5
:1003E000002A40F09280A1EB0C014FEA1C471FFA53
:1003F0008CFE0126200CB1FBF7F307FB131140EA3A
:1004000001410EFB03F0884208D91CEB010103F106
:10041000FF3802D2884200F2CB804346091AA4B2C8
:10042000B1FBF7F007FB101144EA01440EFB00FE9C
:10043000A64508D91CEB040400F1FF3102D2A64501
:1004400000F2BB800846A4EB0E0440EA03409CE7A0
:10045000C6F12007B34022FA07FC4CEA030C20FA4D
:1004600007F401FA06F31C43F9404FEA1C4900FA6D
:1004700006F3B1FBF9F8200C1FFA8CFE09FB1811EA
:1004800040EA014108FB0EF0884202FA06F20BD95D
:100490001CEB010108F1FF3A80F08880884240F2AD
:1004A0008580A8F102086144091AA4B2B1FBF9F0F1
:1004B00009FB101144EA014100FB0EFE8E4508D9EC
:1004C0001CEB010100F1FF346CD28E456AD9023871
:1004D000614440EA0840A0FB0294A1EB0E01A14256
:1004E000C846A64656D353D05DB1B3EB080261EBC4
:1004F0000E0101FA07F722FA06F3F1401F43C5E99E
:10050000007100263146BDE8F087C2F12003D840D3
:100510000CFA02FC21FA03F3914001434FEA1C4715
:100520001FFA8CFEB3FBF7F007FB10360B0C43EA07
:10053000064300FB0EF69E4204FA02F408D91CEBB7
:10054000030300F1FF382FD29E422DD902386344B5
:100550009B1B89B2B3FBF7F607FB163341EA034155
:1005600006FB0EF38B4208D91CEB010106F1FF38A4
:1005700016D28B4214D9023E6144C91A46EA00469B
:1005800038E72E46284605E70646E3E61846F8E62D
:100590004B45A9D2B9EB020864EB0C0E0138A3E776
:1005A0004646EAE7204694E74046D1E7D0467BE757
:1005B000023B614432E7304609E76444023842E7CF
:1005C000704700BF80B400AF084B00221A60074B91
:1005D0000222DA60054B04225A60044B01229A6021
:1005E00000BFBD465DF8047B704700BF440100209A
:1005F000B0B586B000AFF8607A603B600B46FB7226
:1006000005F0D4FE1D491E4806F040F80346002BB5
:100610002ED10023FB753B68022B02D10423FB750E
:1006200004E03B68012B01D10223FB750023BB755D
:1006300017E0BB7D9B00FA6813441B6800221C4630
:10064000154622462B467968386805F055FE034664
:10065000002B0FD1FB7D7A6813447B60BB7D013397
:10066000BB75BA7DFB7A9A42E3D305F0C1FE02E086
:1006700000BF00E000BF1837BD46B0BD40010020FC
:100680004401002080B487B000AFF8607A603B601E
:100690000B46FB720023FB7500233B613B68022B7A
:1006A00002D10423FB7504E03B68012B01D1022336
:1006B000FB750023BB820FE07B681B683B61BB8A34
:1006C0009B00FA6813443A691A60FB7D7A68134408
:1006D0007B60BB8A0133BB82FB7A9BB2BA8A9A42A7
:1006E000EAD300BF00BF1C37BD465DF8047B7047EE
:1006F00080B483B000AF0346FB80094B1B68002227
:100700005A6200BF064B1B685A6AFB889A42F9D3AB
:1007100000BF00BF0C37BD465DF8047B704700BFCB
:100720004005002080B582B000AF0346FB71FB7925
:10073000022B02DC002B2CDC64E0043B012B61D893
:10074000002203210B2005F01EF90B2005F037F9DC
:1007500001220321102005F016F9102005F02FF9D1
:1007600000220321382005F00EF9382005F027F982
:1007700001220321392005F006F9392005F01FF97F
:1007800000220121192005F0FEF8192005F017F9C3
:1007900039E0012200213A2005F0F5F83A2005F071
:1007A0000EF901220021252005F0EDF8252005F0A5
:1007B00006F901220221372005F0E5F8372005F07F
:1007C000FEF8002203210B2005F0DDF80B2005F0D8
:1007D000F6F801220321102005F0D5F8102005F0CD
:1007E000EEF800220321382005F0CDF8382005F07E
:1007F000E6F801220321392005F0C5F8392005F07B
:10080000DEF800E000BF00BF0837BD4680BD80B500
:1008100000AF002201210B2005F0B5F80B2005F0F8
:10082000CEF8002201210C2005F0ADF80C2005F0D7
:10083000C6F800220121102005F0A5F8102005F0CF
:10084000BEF801220121382005F09DF8382005F07E
:10085000B6F801220121392005F095F8392005F07C
:10086000AEF8002201213A2005F08DF83A2005F07B
:10087000A6F800220121252005F085F8252005F0A5
:100880009EF800220221372005F07DF8372005F080
:1008900096F800BF80BD000080B582B000AF03466F
:1008A0003960FB71FB79002B14BF01230023DBB2FD
:1008B0000A21184600F0AAF81C4A3B68136001227E
:1008C0001921386800F046F80346194A13600022DF
:1008D0001921386800F03EF80346164A136016489E
:1008E00008F026FAFB79002B03D0144808F020FA10
:1008F00002E0134808F01CFA124B01221A70124B46
:100900001B78002B14BF01230023DBB283F001030B
:10091000DBB203F00103DAB20C4B1A700C4B00226D
:100920001A7000BF0837BD4680BD00BFB801002067
:10093000C0010020BC0100208C0500205C040020C8
:1009400010040020B4010020B6010020B5010020F1
:10095000B701002080B485B000AF78600B467B8083
:1009600013467B707B78002B0FD07A887B6813440A
:10097000B3F5003F05D37A887B681344A3F50033B1
:1009800012E07A887B6813440EE07B887A689A428A
:1009900007D87A887B68D31AFB60FB68C3F50033FD
:1009A00002E07B887A68D31A18461437BD465DF892
:1009B000047B704780B582B000AF0346FB71FB79C2
:1009C000002B03D00B4808F02BFA02E00A4808F08D
:1009D00027FA0A4808F024FA094B00221A70094B3A
:1009E00000221A70084BC8221A8000BF0837BD4683
:1009F00080BD00BF5C040020100400208C05002096
:100A0000B4010020B7010020C601002080B485B0E9
:100A100000AF03460A46FB711346BB800023FB6010
:100A2000194BFB60194B1B6800225A62184B1B685C
:100A300000225A62FB79002B0ED0144B1B689B6A74
:100A40000133FA68B2FBF3F2BB88B2FBF3F20F4B4F
:100A50001B68013ADA620DE00D4B1B689B6A01339B
:100A6000FA68B2FBF3F2BB88B2FBF3F2084B1B68E7
:100A7000013ADA62074ABB88138000BF1437BD46CB
:100A80005DF8047B704700BF00F36F065C04002034
:100A900010040020C401002080B483B000AF0346DE
:100AA000FB80FB885A1E044B1B68DA6200BF0C37C0
:100AB000BD465DF8047B70478C05002080B485B08E
:100AC00000AF78600B467B800023FB60144BFB601B
:100AD0007B681B78002B0ED0124B1B689B6A01337E
:100AE000FA68B2FBF3F27B88B2FBF3F20D4B1B68A2
:100AF000013ADA620DE00C4B1B689B6A0133FA681D
:100B0000B2FBF3F27B88B2FBF3F2074B1B68013AAE
:100B1000DA6200BF1437BD465DF8047B704700BF42
:100B200000F36F065C0400201004002080B485B040
:100B300000AF78600B46FB700023FB7307E0FB7B84
:100B40007A68134400221A70FB7B0133FB73FA7B33
:100B5000FB789A42F3D300BF00BF1437BD465DF85F
:100B6000047B704780B485B000AF78600B46FB70A3
:100B70001346BB70BB78FB7307E0FB7B7A681344BA
:100B800000221A70FB7B0133FB73FA7BFB789A42DD
:100B9000F3D300BF00BF1437BD465DF8047B704738
:100BA0002DE9B04F86B000AF78600B467B801346CE
:100BB0007B707B88DAB27B78D31ADBB2013B7B7324
:100BC0004FF000024FF00003C7E904237B78FB815C
:100BD00012E0FB899B007A6813441B6800221C46C4
:100BE0001546D7E9042312EB040843EB0509C7E9CE
:100BF0000489FB890133FB817B7B9BB2FA899A4292
:100C0000E7D97A887B785B00D31ADA179A4693463D
:100C100052465B46D7E90401FFF752FB02460B46FA
:100C20001346BB60BB6818461837BD46BDE8B08F99
:100C300080B485B000AF786039607B681B68FB606A
:100C40003B681A687B681A603B68FA681A6000BFE4
:100C50001437BD465DF8047B704780B584B000AFA3
:100C600078600B467B802CE00023FB730023BB6085
:100C70001DE0BB689B007A6813441A68BB680133A7
:100C80009B0079680B441B689A420DD9BB689B0096
:100C90007A68D018BB6801339B007A681344194600
:100CA000FFF7C6FF0123FB73BB680133BB607B8882
:100CB000BA689A42DDDBFB7B83F00103DBB2002BD9
:100CC00005D17B885A1E7A80002BCDD100E000BF71
:100CD00000BF1037BD4680BD80B582B000AF04F0C4
:100CE000D2FC00F083FB00F069FF00F015FF00F07C
:100CF000D7FE00F09DFE00F023FC00F0E3FB00F0C7
:100D00005DFC00F0A9FC00F095FD00F0C9FD00F0CD
:100D100023FE00F03FFD00F067FE00F041FE00F012
:100D2000F5FD00F0E7FC03F089FD994B1B78002BE3
:100D300001D000F0D1FF974B1B78002B00F0FA8018
:100D4000954B1B8801339AB2934B1A8002F0FAFC40
:100D5000924B1B78012B07D0904B1B78022B03D0B2
:100D60008E4B1B78032B46D18D4B1B78002B42D02A
:100D70000023FB7110E0FB798A4A127811468A4AF7
:100D8000D25C8A4B5A54FB790133FB71854B1B783B
:100D90000133DAB2834B1A70FB79022BEBD9804B0B
:100DA00000221A70824B1B780133DAB2804B1A7022
:100DB0007F4B1B789AB27F4B1A807F4B1B680133A5
:100DC0007D4A13607D4B1B8801339AB27B4B1A809E
:100DD000774B1B780A2B0ED1754B00221A70714B82
:100DE00001221A70764B01221A70764B1B88013350
:100DF0009AB2744B1A80694B1B78052B40F0978090
:100E0000674B1B78002B00F084800023BB7110E03F
:100E1000BB796D4A12781146634AD25C6B4B5A54C7
:100E2000BB790133BB71684B1B780133DAB2664B77
:100E30001A70BB79022BEBD9594B00221A705C4B0C
:100E40001B780133DAB25A4B1A70594B1B789AB29D
:100E5000584B1A80584B1B680133574A1360574B45
:100E60001B8801339AB2554B1A80514B1B78322B99
:100E70004FD1574807F0D4FF4D4B1B789BB21A4611
:100E8000520013449BB21946504803F00BFC484BE8
:100E90001B789BB219464F48FFF7DFFE444B1B7887
:100EA0009BB20C2219464B48FFF77AFE03464A4A8A
:100EB00013603F4B00221A70434B00221A70474BBD
:100EC00000221A7021213948FFF730FE424B1B687F
:100ED000DAB2364B5A70404B1B681B0ADAB2334BFE
:100EE0009A703D4B1B681B0CDAB2304BDA702F4BFB
:100EF0005A782E4B1A712D4B9A782C4B5A712B4BDA
:100F0000DA782A4B9A712E4B01221A70344B012247
:100F10001A70334B1B78002B09D0294B1B78002B00
:100F200005D1304B01221A702D4B00221A70194B3B
:100F300000221A702C4B1B78002B5BD0174B1B78B0
:100F4000013B082B52D801A252F823F0830F00086E
:100F5000890F0008ED0F0008ED0F0008ED0F0008E5
:100F6000770F0008ED0F0008710F00087D0F0008D3
:100F700002F05AFC3BE002F0F5FC38E002F096FC8F
:100F800035E002F035FD32E002F032FD2FE000BF27
:100F90003D0B00203C0B002012090020440B0020D8
:100FA0005601002000000020D4090020600100202C
:100FB0005D010020BA090020380900200C0900203A
:100FC000550100202009002009090020DC0900202B
:100FD00024060020740A0020480900208101002016
:100FE00068090020430B00203E0B002000BF874B08
:100FF00000221A70864B1B78002B2CD0854B1B7857
:10100000013B082B23D801A252F823F0431000081B
:10101000491000084F1000084F1000084F1000083A
:10102000371000084F100008311000083D1000086C
:1010300002F0FAFB0CE002F095FC09E002F036FC4D
:1010400006E002F06FFE03E002F0EAFF00E000BFFE
:101050006F4B00221A70704B1B78002B3DD06F4BEA
:101060001B78002B1DD06E4B1B78002B19D16D4BBC
:1010700000221A70694B1B781A4652001344DBB2E7
:101080000133DBB21A4621216748FFF76BFD644B41
:1010900001221A70614B00221A70644B01221A70EF
:1010A0001BE05E4B1B78002B17D15D4B1B78002B90
:1010B00013D15F4B00221A705E4B01221A70564BFF
:1010C00000221A70574B00221A705B4B00221A60E4
:1010D000FFF79DFB594807F0A3FE594B1B78002BE7
:1010E0001FD0584B1B78002B1BD0574B1B78052B60
:1010F00017D1534B00221A70524B00221A70524BD8
:10110000FF221A70434B04221A704A4B02221A70B3
:101110004E4B01221A700420FFF704FB4C4807F0E5
:1011200007FE3C4B1B78052B39D1454B1B78002B18
:1011300013D0444B1B78002B0FD0414B00221A7068
:10114000404B00221A700520FFF7ECFA414B1B6858
:1011500000225A623F4807F0EBFD3F4B1B78002B03
:101160001DD03D4B00221A7005223C493C4808F036
:10117000DBFB01224FF400613A4805F0FBFD294BEF
:1011800001221A700A20FFF7B3FA00224FF400611F
:10119000344805F0EFFD2F4B1B6800225A62324B9A
:1011A0001B78002B00F0B7802F4B00221A70274BC2
:1011B0001B78002B60D02D4B00221A802C4B002274
:1011C0001A8005222549264808F0AEFB01224FF47B
:1011D0000061244805F0CEFD124B01221A700A204E
:1011E000FFF786FA00224FF400611E4805F0C2FDA9
:1011F000174B1B6800225A621E4807F099FD134BDB
:1012000000221A700D4807F093FD7EE03E0B00208F
:101210003F0B0020440B00205F0900205D010020EF
:101220005501002056010020600100200000002030
:1012300081010020430B00203809002070060020A7
:101240006309002064090020AE000020620900202C
:10125000BC0600202406002066090020580100205A
:101260000807002000000240650900201009002046
:1012700012090020F404002005224A494A4808F0D7
:1012800053FB01224FF40061484805F073FD484BC1
:1012900001221A700A20FFF72BFA00224FF4006196
:1012A000424805F067FD434807F0BAFD424B1B88F2
:1012B0001A4613461B049B1A1A46404B1A603D4BB4
:1012C0001B685A6A3D4B1B6813443C4A13603A4BF7
:1012D00000221A80374B1B6800225A62354807F0FB
:1012E00027FD03F089F90346354A1360354807F0B6
:1012F000F7FC344B1B68324A1268DA62314B1B68C8
:1013000000225A622F4807F013FD2F4B1B88013330
:101310009AB22D4B1A802D4B1B78002B09D02C4BE9
:101320001B7883F00103DBB2002B02D0294807F0C1
:10133000FFFC294B1B78002B3FF4F7AC274B1B8895
:101340001A46274B1B881946264B1B880B449A428A
:1013500015DD254B1878224B1A88224B1B88134425
:101360009BB21946FFF752FB1B4B00221A70194B18
:101370001B6800225A62174807F0DAFCD5E41A4BC2
:101380001B78164A128811461846FFF73FFB114892
:1013900007F046FD104B00221A700D4B01221A7007
:1013A000C3E400BF580100200807002000000240ED
:1013B000560100207006002018090020280900208E
:1013C00030090020BC06002016090020B4010020CE
:1013D000B7010020A8040020420B0020C601002015
:1013E000C401002034000020AC00002080B594B07F
:1013F00000AF07F1200330220021184609F060FDFC
:1014000007F10C0300221A605A609A60DA601A61D0
:101410002A4B1B6C294A43F080531364274B1B6CE7
:1014200003F08053BB60BB68254B1B68244A43F420
:1014300040431360224B1B6803F440437B607B688E
:1014400001233B624FF480337B620223BB634FF482
:101450008003FB6308233B64D8237B640223BB64C3
:101460000223FB6407F12003184605F007FD03463D
:10147000002B01D003F0A8FA05F0B0FC0346002BC6
:1014800001D003F0A1FA0F23FB6002233B6100238C
:101490007B614FF4A053BB614FF4A053FB6107F194
:1014A0000C030721184605F08DFF0346002B01D0E1
:1014B00003F08AFA00BF5037BD4680BD00380240B5
:1014C0000070004080B500AF1B4B1C4A1A601A4BDD
:1014D0004FF482725A60184B00229A60164B4FF4F8
:1014E000E062DA60144B02221A61134B00225A6147
:1014F000114B4FF400729A610F4B3822DA610E4B98
:1015000000221A620C4B00225A620B4B00229A6294
:10151000094B0722DA62084B00221A63064B0822A5
:101520005A63054806F0BCFC0346002B01D003F0CB
:101530004BFA00BF80BD00BFC8010020003C004046
:1015400080B500AF1B4B1C4A1A601A4B4FF48272D5
:101550005A60184B00229A60164B4FF4E062DA6032
:10156000144B02221A61134B00225A61114B4FF4A3
:1015700000729A610F4B3822DA610E4B00221A6218
:101580000C4B00225A620B4B00229A62094B072235
:10159000DA62084B00221A63064B08225A63054898
:1015A00006F07EFC0346002B01D003F00DFA00BFCD
:1015B00080BD00BF2C0200200034014080B588B0FF
:1015C00000AF07F1100300221A605A609A60DA60D7
:1015D0003B1D00221A605A609A601E4B4FF08042F9
:1015E0001A601C4B6B225A601A4B00229A60194BEE
:1015F00046F2A712DA60174B00221A61154B00223F
:101600009A61144807F0A4FA0346002B01D003F0B6
:10161000DBF94FF480533B6107F1100319460D4885
:1016200007F086FD0346002B01D003F0CDF900231F
:101630007B600023FB603B1D1946064807F0B4FFA2
:101640000346002B01D003F0BFF900BF2037BD4691
:1016500080BD00BF1004002080B588B000AF07F146
:10166000100300221A605A609A60DA603B1D002263
:101670001A605A609A601D4B1D4A1A601B4B6B2200
:101680005A601A4B00229A60184B43F67F62DA6068
:10169000164B00221A61154B00229A61134807F07D
:1016A00057FA0346002B01D003F08EF94FF4805314
:1016B0003B6107F1100319460C4807F039FD03465A
:1016C000002B01D003F080F900237B600023FB6036
:1016D0003B1D1946054807F067FF0346002B01D064
:1016E00003F072F900BF2037BD4680BD5C040020C6
:1016F0000004004080B588B000AF07F1100300225D
:101700001A605A609A60DA603B1D00221A605A60C3
:101710009A601E4B1E4A1A601C4B42F62F225A60DA
:101720001A4B00229A60194B41F28732DA60174B4C
:1017300000221A61154B00229A61144807F008FA3A
:101740000346002B01D003F03FF94FF480533B6177
:1017500007F1100319460D4807F0EAFC0346002B79
:1017600001D003F031F900237B600023FB603B1DB7
:101770001946064807F018FF0346002B01D003F076
:1017800023F900BF2037BD4680BD00BFA80400205C
:101790000008004080B588B000AF07F110030022B8
:1017A0001A605A609A60DA603B1D00221A605A6023
:1017B0009A601E4B1E4A1A601C4B42F62F225A603A
:1017C0001A4B00229A60194B4FF0FF32DA60174B28
:1017D00000221A61154B00229A61144807F0B8F9EB
:1017E0000346002B01D003F0EFF84FF480533B6128
:1017F00007F1100319460D4807F09AFC0346002B29
:1018000001D003F0E1F800237B600023FB603B1D67
:101810001946064807F0C8FE0346002B01D003F026
:10182000D3F800BF2037BD4680BD00BFF4040020C0
:10183000000C004080B584B000AF3B1D00221A6050
:101840005A609A60144B154A1A60134B6B225A6007
:10185000114B00229A60104B4FF6FF72DA600E4B6C
:1018600000229A610C4807F073F90346002B01D05F
:1018700003F0AAF800237B600023FB603B1D1946A0
:10188000054807F091FE0346002B01D003F09CF8B9
:1018900000BF1037BD4680BD40050020001000404D
:1018A00080B584B000AF3B1D00221A605A609A6078
:1018B000144B154A1A60134B6B225A60114B0022CD
:1018C0009A60104B6322DA600E4B00229A610D4839
:1018D00007F03EF90346002B01D003F075F8002312
:1018E0007B600023FB603B1D1946064807F05CFE49
:1018F0000346002B01D003F067F800BF1037BD4648
:1019000080BD00BF8C0500200014004080B500AFF2
:101910000F4B104A1A600E4B42F62F225A600C4BA6
:1019200000229A600A4B41F28732DA60084B0022AB
:101930001A61074B00229A610821054807F0A0FAB6
:101940000346002B01D003F03FF800BF80BD00BF6D
:10195000D80500200040014080B500AF0E4B0F4A73
:101960001A600D4B45F25F425A600B4B00229A60A1
:10197000094B4FF6FF72DA60074B00221A61064BE3
:1019800000229A61044807F0E3F80346002B01D0D7
:1019900003F01AF800BF80BD240600200044014077
:1019A00080B500AF0E4B0F4A1A600D4B40F2374224
:1019B0005A600B4B00229A60094B4FF6FF72DA60B7
:1019C000074B00221A61064B00229A61044807F077
:1019D000BFF80346002B01D002F0F6FF00BF80BD28
:1019E00070060020001C004080B500AF0E4B0F4A6F
:1019F0001A600D4B45F25F425A600B4B00229A6011
:101A0000094B4FF6FF72DA60074B00221A61064B52
:101A100000229A61044807F09BF80346002B01D08E
:101A200002F0D2FF00BF80BDBC06002000200040B5
:101A300080B500AF184B1B689A68174B1B6842F0C3
:101A400001029A60144B154A1A60134B4FF4164268
:101A50005A60114B00229A600F4B0022DA600E4B45
:101A600000221A610C4B0C225A610B4B00229A6126
:101A7000094B0022DA61084B00221A62064B002251
:101A80005A62054807F03CFE0346002B01D002F0E5
:101A90009BFF00BF80BD00BF080700200010014071
:101AA00080B500AF194B1B689A68184B1B6842F051
:101AB00001029A60164B174A1A60154B4FF4E13237
:101AC0005A60134B00229A60114B0022DA60104BCF
:101AD00000221A610E4B0C225A610D4B00229A61B2
:101AE0000B4B0022DA610A4B00221A62084B0022DB
:101AF0005A62002300220021054809F04FF90346ED
:101B0000002B01D002F060FF00BF80BD080700205D
:101B1000900700200048004080B582B000AF264BFF
:101B20001B6B254A43F400131363234B1B6B03F415
:101B300000137B607B68204B1B6B1F4A43F48003C0
:101B400013631D4B1B6B03F480033B603B68002257
:101B500001210B2003F017FF0B2003F030FF0022C0
:101B600001210C2003F00FFF0C2003F028FF0022BE
:101B70000121102003F007FF102003F020FF0122B5
:101B80000121382003F0FFFE382003F018FF012266
:101B90000121392003F0F7FE392003F010FF002265
:101BA00001213A2003F0EFFE3A2003F008FF00BFC6
:101BB0000837BD4680BD00BF0038024080B58AB0FE
:101BC00000AF07F1140300221A605A609A60DA60CD
:101BD0001A613D4B1B6B3C4A43F0100313633A4BB5
:101BE0001B6B03F010033B613B69374B1B6B364AA1
:101BF00043F080031363344B1B6B03F08003FB60E3
:101C0000FB68314B1B6B304A43F0010313632E4BCF
:101C10001B6B03F00103BB60BB682B4B1B6B2A4A99
:101C200043F004031363284B1B6B03F004037B6036
:101C30007B68254B1B6B244A43F002031363224B42
:101C40001B6B03F002033B603B6800224FF407610B
:101C50001E4805F08FF8002220211D4805F08AF863
:101C6000002203211B4805F085F84FF407637B61D0
:101C70000123BB610023FB6100233B6207F11403D6
:101C80001946124804F0DEFD20237B610123BB616D
:101C90000023FB6100233B6207F1140319460C4843
:101CA00004F0D0FD03237B610123BB610023FB61B2
:101CB00000233B6207F114031946064804F0C2FDF5
:101CC00000BF2837BD4680BD0038024000000240FA
:101CD000000802400004024080B584B000AF9D4B74
:101CE0001B78013B1F2B01F20E8101A252F823F059
:101CF000711D0008FB200008E31D0008072F0008E5
:101D000067260008A5270008F5270008F528000821
:101D1000532A0008B72A0008E52A0008FD2A00080F
:101D2000072F00080F2B0008592B0008712B000803
:101D30004B2C0008652C0008DD2C0008132D000832
:101D40007B2D0008072F0008072F0008A52D00088D
:101D5000472E00089F2E0008072F0008072F0008B5
:101D6000072F0008072F0008072F0008852E0008FE
:101D700005227949794806F03FF9052278497948E2
:101D800006F03AF9784B1B7883F00103DBB2002BA5
:101D900021D0764B1B7883F00103DBB2002B1AD0E5
:101DA000734B5B6F93F83530DBB2012B13D10522F7
:101DB00070496F4807F0B8FD01224FF400616E488A
:101DC00004F0D8FF0A20FEF793FC00224FF40061D4
:101DD000694804F0CFFF0021012001F0D3FA01F09F
:101DE00092B80121032001F0CDFA644B00221A8041
:101DF000634B00221A805D4B01221A70614B002256
:101E00001A70594B00221A705F4B00221A705F4BF8
:101E100000221A705E4B4F4A92E8030018600433A8
:101E200019805B4B9B78013B5A4A13441B7A1AB2C8
:101E3000594B1A80564B5B78013B564A13441B7A28
:101E40009BB2C3F5B4739BB21AB2544B1A80524B77
:101E5000B3F90030B42B07D1504BB3F90030B42B99
:101E600002D1484B01221A70494BDB78013B4C4AA6
:101E7000083332F813204B4B1A804A4B1B88184604
:101E800002F058FC444BB3F900309BB205339AB2D0
:101E9000454B1A80454B00221A70454B00221A70A0
:101EA000444B00221A70444B00221A70434B00220C
:101EB0001A70434B00221A703B4B1B885B04414A4B
:101EC00082FB03121A441212DB17D31A1A463E4B36
:101ED0001A603D4B1B682C4A12781146184601F0D7
:101EE00077FB0346384A1360274B1B78364A126843
:101EF0001146184601F0B6F8274BB3F900305B04E1
:101F0000304A82FB03121A441212DB17D31A1A4604
:101F10002E4B1A602D4B1B681B4A1278114618462F
:101F200001F056FB0346294A13601E4B1B881A46D4
:101F3000264B1B681344B3F5003F4BD9194B1B8844
:101F40001A46224B1B681344A3F500331A46204B54
:101F50001A6048E0BC090020D80800202C020020AC
:101F6000E0080020C8010020810100205401002069
:101F70000807002058010020000002400C09002042
:101F80001609002069090020AC000020550100203E
:101F9000C409002040000020B4090020B609002038
:101FA00050000020B0090020B80900205909002085
:101FB0005B0900205A0900205C0900205D0900200F
:101FC0005E090020B7600BB67C0900206C09002078
:101FD000880900207F4B1B881A467F4B1B681344DF
:101FE0001A467E4B1A607C4B1B687A4A12889B1AF1
:101FF0001A467A4B1A607A4B1B78002B4DD0794BDE
:10200000B3F900305B04784A82FB03121A441212BF
:10201000DB17D31A754A1360744B1B681A46744B4E
:102020001B781946104601F0D3FA03461A466F4B47
:102030001A606E4B1B68B3F5347F0CDA6B4B1B6870
:10204000A3F53473002BB8BF5B42C3F500331A46C7
:10205000684B1A6006E0654B1B68A3F534731A469B
:10206000644B1A605F4BB3F9003004335B045E4A83
:1020700082FB03121A441212DB17D31A1A465E4B64
:102080001A605D4B1B685A4A12781146184601F0D7
:102090009FFA0346584A136018E0524BB3F90030D8
:1020A0005B04514A82FB03121A441212DB17D31A43
:1020B0001A46514B1A60504B1B684D4A1278114614
:1020C000184601F085FA03464B4A13604B4B022237
:1020D0001A704B4B02221A704A4B01221A704A4B5B
:1020E000C8221A80424B1B781A46484B1B68194677
:1020F0001046FEF7D1FB00F006BF0121022001F0DF
:1021000041F9434B00221A80364B00221A80414B82
:1021100000221A80404B01221A70314B00221A70A3
:102120003E4B00221A803E4B00221A803D4B00227B
:102130001A703D4B1B78002B14BF01230023DAB229
:102140002B4B1A70394B00221A700120FEF7EAFA65
:10215000374B384A92E80300186004331980344B37
:102160005B78013B344A13441B7A9BB2C3F5B473CA
:102170009BB21AB2264B1A802D4B9B78013B2E4AFC
:1021800013441B7A1AB2174B1A80214BB3F9003053
:10219000B42B07D1134BB3F90030B42B02D1104B41
:1021A00001221A701A4BB3F90030042B46DC184B8D
:1021B000B3F90030053B002BB8BF5B429AB2154B18
:1021C0001A80144B1B88C3F5B4739AB2114B1A8052
:1021D0003CE000BFB00900206C0900208809002005
:1021E00069090020B6090020B7600BB684090020F9
:1021F000AC0000204C09002074090020440B002092
:10220000430B0020450B0020C6010020480B002096
:10221000B4090020B8090020540100200C09002056
:102220001609002081010020460B002055010020E6
:10223000C4090020BC090020400000207B4BB3F9FA
:1022400000309BB2053B9AB2794B1A80794B002241
:102250001A70794B00221A70784B00221A70784B52
:102260001B7883F00103DBB2002B00F00F81754B6C
:10227000DB78013B744A083332F81320734B1A8021
:10228000724B1B88184602F055FA694B1B885B0499
:102290006F4A82FB03121A441212DB17D31A1A4632
:1022A0006C4B1A606B4B1B68654A127811461846D6
:1022B00001F08EF90346674A1360614B1B78654A4B
:1022C00012681146184600F0CDFE584BB3F90030A5
:1022D0005B045F4A82FB03121A441212DB17D31A03
:1022E0001A465D4B1A605C4B1B68554A12781146C2
:1022F000184601F06DF90346574A1360534B1B888B
:102300001A46554B1B681344B3F5003F0BD94F4B8E
:102310001B881A46504B1B681344A3F500331A461A
:102320004E4B1A6008E0494B1B881A464A4B1B6803
:1023300013441A46494B1A60494B1B78002B48D06E
:10234000484BB3F900305B04414A82FB03121A4444
:102350001212DB17D31A444A1360434B1B681A4608
:10236000374B1B781946104601F032F903461A46DE
:102370003D4B1A603C4B1B683C4A934207DD3A4B8D
:102380001A683B4B13441A463A4B1A6006E0364B28
:102390001B6803F534731A46364B1A60314BB3F998
:1023A0000030043B5B042A4A82FB03121A441212D7
:1023B000DB17D31A1A46304B1A602F4B1B68204A82
:1023C00012781146184601F003F903462A4A1360B1
:1023D00018E0244BB3F900305B041D4A82FB031262
:1023E0001A441212DB17D31A1A46234B1A60224BD7
:1023F0001B68134A12781146184601F0E9F80346A3
:102400001D4A13601D4B01221A701D4B02221A70C7
:102410001C4BC8221A800A4B1B781A461A4B1B68A1
:1024200019461046FEF738FA00F06ABDB4090020DC
:10243000B8090020590900205B0900205A09002032
:10244000AC000020C409002050000020B00900208A
:10245000B7600BB67C0900206C09002088090020B9
:1024600069090020B6090020840900202FFD010021
:10247000D002FEFF4C09002074090020440B00200C
:10248000430B0020C6010020480B0020814B1B7825
:10249000002B00F03585804BDB78013B7F4A083309
:1024A00032F813207E4B1A807D4B1B88184602F0B1
:1024B00041F97C4B1B885B047B4A82FB03121A4464
:1024C0001212DB17D31A1A46784B1A60774B1B6827
:1024D000704A12781146184601F07AF80346734A9A
:1024E00013606C4B1B78714A12681146184600F055
:1024F000B9FD6F4BB3F900305B046B4A82FB0312EA
:102500001A441212DB17D31A1A466A4B1A60694B27
:102510001B68604A12781146184601F059F80346C4
:10252000644A13605E4B1B881A46624B1B68134457
:10253000B3F5003F0BD95A4B1B881A465D4B1B68FD
:102540001344A3F500331A465B4B1A6008E0544B62
:102550001B881A46574B1B6813441A46564B1A6081
:10256000564B1B78002B48D0554BB3F900305B0419
:102570004D4A82FB03121A441212DB17D31A514A36
:102580001360504B1B681A46424B1B781946104685
:1025900001F01EF803461A464A4B1A60494B1B6865
:1025A000494A934207DD474B1A68484B13441A4681
:1025B000474B1A6006E0434B1B6803F534731A4619
:1025C000434B1A603E4BB3F90030043B5B04364A80
:1025D00082FB03121A441212DB17D31A1A463D4B20
:1025E0001A603C4B1B682B4A12781146184600F0C3
:1025F000EFFF0346374A136018E0314BB3F9003060
:102600005B04294A82FB03121A441212DB17D31A05
:102610001A46304B1A602F4B1B681E4A127811461F
:10262000184600F0D5FF03462A4A1360294B1A6862
:10263000204B1B689A4202D2274B01221A70274B6B
:1026400001221A70264B02221A70264BC8221A80C9
:10265000104B1B781A46244B1B6819461046FEF790
:102660001BF900F04DBC0C4B204A92E803001860A7
:10267000043319801E4B1B6800225A621D4B012235
:102680001A701D4B1B78002B3AD01C4B05221A7078
:1026900039E000BFAC000020C40900205000002039
:1026A000B2090020B8090020B7600BB680090020ED
:1026B000B4090020700900208C090020690900205D
:1026C000B6090020840900202FFD0100D002FEFF82
:1026D0004C0900207809002060090020440B0020EC
:1026E000430B0020C60100204C0B0020BC09002039
:1026F000700600206709002063090020AE0000205A
:102700009A4B00221A709A4B00221A70994B5B78F0
:10271000013B994A52F82320964B9B78013B9749FD
:1027200031F813301946104601F044FF0346944A2D
:102730001360944806F0D4FA8E4B5B785A1E914B86
:102740001B688D4951F82220DA628E4B1B680022EB
:102750005A628D4806F0C4FA864B9B78013B874A43
:1027600032F81320894B1A80884B1A88864B1B68D5
:10277000DA62864B1B881A4613469B0013449B0063
:102780001A46834B1A60804B1B6800225A62012153
:10279000052000F0F7FD7F4B00221A707E4B0422CB
:1027A0001A70B0E30121062000F0ECFD7B4B1B68A2
:1027B0007B4A13607B4B00221A70002210217A485A
:1027C00004F0D8FA794B1B681946002000F04AFC47
:1027D0004FF4C8710020FEF719F9754806F0A8FA01
:1027E000744806F0A5FA6C4B06221A70724B01224F
:1027F0001A7088E30121072000F0C4FD664B1B78A6
:10280000062B68D0062B70DC022B02DC002B03DCCD
:102810006BE0042B2ED068E00120FEF7CBF80020FF
:10282000FEF7C8F8654B1B78002B13D0594B1B786B
:10283000002B0FD1614B1B781A4652001344DBB2B8
:102840000133DBB21A4621215D48FEF78BF9514B6B
:1028500001221A70594B00221A705A4B01221A7029
:10286000594B00221A70594B00221A70584B002203
:102870001A703BE0444806F033FA424806F030FA5A
:10288000544806F02DFA4D4B1B78002B13D0414BCA
:102890001B78002B0FD1494B1B781A46520013446A
:1028A000DBB20133DBB21A4621214548FEF75AF963
:1028B000384B01221A70414B00221A70414B012201
:1028C0001A70414B00221A70404B00221A70424B82
:1028D00000221A800AE0374806F0A2FA3F4806F0C4
:1028E0009FFA334806F09CFA00E000BF324B012209
:1028F0001A7008E30121082000F044FD0023FB804A
:10290000374BDB78002B73D0364B00221A60364BE6
:1029100001221A70324B9B789BB21B02FB80304B1A
:102920005B789AB2FB881343FB80FB885B042F4AD9
:1029300082FB03121A441212DB17D31A1A46294BD0
:102940001A60284B1B68284A12781146184600F076
:102950003FFE0346234A1360234B1B78214A12682B
:102960001146184600F07EFBCDE200BFAE0000200D
:102970005F090020C409002070000020940000209E
:102980003C090020F4040020BC0600200A090020B5
:102990002C09002055010020440B0020480B00208A
:1029A000980900206109002000000240A8090020C9
:1029B0008C05002010040020430B00205D01002046
:1029C000600100200000002081010020560100204D
:1029D000450B002070060020220900205C04002026
:1029E000BC090020A4090020AC000020B7600BB691
:1029F000A44B00221A60A44B00221A70A34B9B78B0
:102A00009BB21B02FB80A14B5B789AB2FB881343FD
:102A1000FB80FB885B049E4A82FB03121A4412125D
:102A2000DB17D31A1A46974B1A60964B1B68964AC7
:102A300012781146184600F0CBFD0346914A136008
:102A4000914B1B788F4A12681146184600F00AFB1A
:102A500059E28E4B5B78002B14BF01230023DAB2BE
:102A6000894B1A700121092000F08CFC894B01224E
:102A70001A70894B09221A70884B01221A70834BF5
:102A80005B78002B0BD14FF4C8710020FDF7BEFF1F
:102A9000834806F04DF9834806F04AF933E24FF4D3
:102AA000C8710120FDF7B2FF7D4806F041F97E486C
:102AB00006F03EF927E27D4B744A92E80300186065
:102AC0000433198001210A2000F05CFC774B5B780D
:102AD000002B03D0764B01221A7014E2744B0022B3
:102AE0001A7010E200F016FD724B00221A70724B41
:102AF0001B8801339AB2704B1A8004E200F070FE1A
:102B0000644B01221A706D4B00221A70FBE15F4B7F
:102B10009B78002B0DD06A4B00221A7001221021E5
:102B2000684804F027F901222021674804F022F9BF
:102B30000CE0634B01221A7000221021614804F05E
:102B400019F900222021604804F014F94F4B5B78FA
:102B5000184600F01BFAD6E14B4B1B78002B40F0D7
:102B6000D1814F4806F0E4F84E4806F0E1F8C9E19B
:102B70000121102000F006FC474B08221A70534B2D
:102B800000221A60414B9B781B021A464F4B1A6079
:102B90003E4B5B781A464D4B1B6813434B4A136000
:102BA000394B1B78002B27D096210120FDF72EFFF3
:102BB000474B00221A60454B1B685B04DB08454A03
:102BC000A2FB03239B08BB602F4B1B781946B868F8
:102BD00000F0FEFC03463E4A13602B4B1B783C4A38
:102BE00012681146184600F03DFA2D4806F0A0F88C
:102BF0002D4806F09DF886E14FF4C8710020FDF7DE
:102C000005FF354B00221A60304B1B685B04DB0864
:102C1000304AA2FB03239B08BB601B4B1B78194661
:102C2000B86800F0D5FC03462B4A1360164B1B789E
:102C3000294A12681146184600F014FA184806F09E
:102C400077F8184806F074F85DE10121112000F0D2
:102C500099FB0D4B1B781846FDF7ACFE0F4B00227D
:102C60001A7050E10121122000F08CFB074B5B78B9
:102C7000002B03D0044B01221A7044E1024B0022C6
:102C80001A7040E1A0090020AC000020BC0900201F
:102C9000B7600BB6430B0020440B0020450B00200F
:102CA0008C050020100400205C040020C4090020D2
:102CB000460B00205501002014090020580900206F
:102CC000400B00200000024000080240AC09002038
:102CD0009C090020176CC1169809002001211320BF
:102CE00000F050FB8B4B1B688B4A13608B4B1B68AF
:102CF0008B4A1360884B1B688A4A1360884B1B6899
:102D0000884A53600223884A02218648FDF770FCF6
:102D1000F9E00121142000F035FB844B01221A70E8
:102D2000834B01221A70834B00221A70824B5B780E
:102D3000184600F099FC03461A46804B1A707E4BE9
:102D40009B78012B06D17D4B1B7863F07703DAB2B9
:102D50007A4B1A70794B1A78784B5A70784806F08B
:102D600027FE642301227549754806F054FD0522AB
:102D70007449734806F0D8FDC5E0052272497048D1
:102D800006F0D2FD01224FF40061704803F0F2FF1B
:102D9000012002F0D5FC00224FF400616B4803F0E3
:102DA000E9FFB0E06A4B1B7883F00103DBB2002B34
:102DB00024D001221021654803F0DCFF654B00227E
:102DC0001A7001222021614803F0D4FF642002F030
:102DD000B7FC002220215D4803F0CCFF05225E49AC
:102DE0005E4805F009F90021012000F0CBFA594BAB
:102DF0001B780133DAB2574B1A70E2E70122202127
:102E0000574803F0B7FF534B00221A7001220121EB
:102E1000544803F0AFFF642002F092FC002201212D
:102E2000504803F0A7FF05224F49504805F0E4F849
:102E30000021012000F0A6FA464B1B780133DAB2DC
:102E4000444B1A70E2E7424B1B7883F00103DBB27C
:102E5000002B0BD005224049404805F0CDF86423F3
:102E600005223D49424806F0D6FC4CE005223E4989
:102E70003E4805F0C1F8642305223B493C4806F072
:102E8000CAFC40E00023FB6002E0FB680133FB600A
:102E9000FB68812BF9DD374808F088F833E0012121
:102EA0001A2000F06FFA344B1B684FF4FA72DA62A2
:102EB0001E4B01221A70314B00221A701C4B01224A
:102EC0001A701C4B00221A70012000F0CDFB034643
:102ED0001A461A4B1A702A4B05221A70294B0222E5
:102EE0001A70174806F064FD642301221349144840
:102EF00006F091FC05221349114806F015FD02E089
:102F000000BF00E000BF204B00221A7000BF103746
:102F1000BD4680BD480B0020900900204C0B0020CE
:102F20009409002050090020008001088101002040
:102F30006309002064090020BC0900201C0900204E
:102F4000080700203800002058010020000002403F
:102F5000AC00002025090020D80800202C02002009
:102F60000008024000040240E0080020C8010020E0
:102F70009007002044C00008240600200909002012
:102F8000440B0020430B00203D0B002080B584B093
:102F900000AF0346FB712A4B1B7883F00103DBB2C1
:102FA000002B29D00023FB6021E0012220212548AD
:102FB00003F0E0FE022002F0C3FB002220212148A2
:102FC00003F0D8FE022002F0BBFB20211D4803F0D5
:102FD000EAFE05221C491D4805F00EF8642305226F
:102FE00019491B4806F017FCFB680133FB60FB79AD
:102FF000FA689A42D9DB1BE00023BB6014E0012190
:10300000144803F0D0FE042002F09AFB0522124976
:10301000124804F0F1FF642305220F490C4806F022
:10302000FAFBBB680133BB60FB79BA689A42E6DB06
:103030000B4B00221A7000BF1037BD4680BD00BF89
:10304000AC00002000000240D80800202C02002024
:103050009007002000040240E0080020C801002082
:103060002409002080B582B000AF03463960FB71AF
:10307000FB7983F00103DBB2002B40D0424B1B688D
:103080003A689A421DD2404B1A683B68D21A3E4BAE
:103090001B683968CB1A03F500339A4208D901221C
:1030A00010213A4803F066FE394B00221A7066E0A0
:1030B00000221021354803F05DFE354B01221A70C5
:1030C0005DE0314B1A683B68D31A03F500322E4B92
:1030D0001B683968CB1A9A4208D2002210212B486B
:1030E00003F048FE2A4B01221A7048E00122102109
:1030F000264803F03FFE264B00221A703FE0254B86
:103100001B683A689A421DD2224B1A683B68D21A51
:10311000204B1B683968CB1A03F500339A4208D953
:10312000012220211C4803F025FE1C4B00221A70AE
:1031300025E000222021184803F01CFE174B012235
:103140001A701CE0134B1A683B68D31A03F500325F
:10315000104B1B683968CB1A9A4208D200222021F2
:103160000D4803F007FE0D4B01221A7007E0012203
:103170002021094803F0FEFD084B00221A7000BF11
:103180000837BD4680BD00BF480B0020000002404C
:10319000400B00204C0B002000080240410B002097
:1031A00080B582B000AF7860391D4FF6FF73012201
:1031B000034806F030FB7B6818460837BD4680BDE3
:1031C0009007002080B485B000AF78607B681B68F2
:1031D0002B4A934202D12B4B01221A707B681B6849
:1031E000294A934245D1294B1B78002B3ED000231E
:1031F000FB60274B1B781A46254B5B781344244A07
:1032000092781344FB60FB68DBB2FB60204BDB78F9
:103210001A46FB68934203D11D4B1B79A52B03D0A3
:103220001C4B00221A700DE0194B1A781A4B1B78B0
:103230001B09DBB29A4205D0164B00221A70174BBD
:1032400001221A70164B1B78002B09D0144B002258
:103250001A70144B00221A70134B00221A7002E0ED
:10326000104B01221A70094B00221A700F4B0122D9
:103270001A7000BF1437BD465DF8047B704700BF6D
:10328000004800403D0B002000100140810100205B
:1032900038000020430B00201C09002058090020A2
:1032A000AD00002064090020630900203C0B0020D1
:1032B00080B483B000AF78607B681B68274A934274
:1032C00020D1274B9B785B09DBB203F00703254A2B
:1032D0001360234B5B78DA00224B1B681343214AAF
:1032E00013601F4B1B78DB0203F4FC321D4B1B6881
:1032F00013431C4A13601B4B1B681B4A53611B4B37
:1033000001221A707B681B68194A934220D1194B1D
:103310009B785B09DBB203F00703174A1360154B78
:103320005B78DA00144B1B681343134A1360114B8C
:103330001B78DB0203F4FC320F4B1B6813430E4A6D
:1033400013600D4B1B680D4A53610D4B01221A701F
:1033500000BF0C37BD465DF8047B70470034014068
:10336000D8080020480B0020840100203E0B0020DC
:10337000003C0040E00800204C0B0020040000202E
:103380003F0B002080B584B000AF03460A46FB71B6
:103390001346BB714E4B00221A8000F0AFF8B860A4
:1033A000FB79012B79D14B4B01221A704A4B1A78C9
:1033B000484B5A70494B1A78464B9A70484B1B78C9
:1033C0001A46444BDA70474B1A78424B1A71464BF7
:1033D0001A78404B5A71BB681B0CDAB23D4B9A719C
:1033E000BB681B0ADAB23B4BDA71BB68DAB2394B05
:1033F0001A723E4B1B68DAB2364B5A723B4B1B6853
:103400001B0ADAB2334B9A72384B1B681B0CDAB2C8
:10341000304BDA72364B1B68DAB22E4BDA73344B10
:103420001B681B0ADAB22B4B1A74314B1B681B0C3E
:10343000DAB2284B5A74274B0022DA77254B002248
:1034400083F820200023FB6016E0224AFB68134427
:103450001B789AB2FB6801331E49CB5C9BB21B02FE
:103460009BB213449AB21A4B1B8813449AB2184B5E
:103470001A80FB680233FB60FB681D2BE5DD154BF2
:103480009B7F9AB2124B1B8813449AB2104B1A803E
:10349000184B0F4A12881A8010E021210D48FDF7C1
:1034A00045FB0C4AFB7913700A4ABB795370094AF1
:1034B000FB79D377074ABB7982F820306423212235
:1034C00004490D4806F0A7F900BF1037BD4680BD7E
:1034D0001E090020E8080020430B0020440B0020B8
:1034E000450B002055010020470B0020480B002011
:1034F0004C0B0020070900209007002098B500AF72
:1035000007F05CFD03461C0407F058FD0346234307
:10351000184698BD80B584B000AF0023FB81284BCE
:103520000B221A70264B0022DA77254B002283F8F3
:1035300020200123BB600BE0FFF7E0FF0346D9B278
:103540001F4ABB6813440A461A70BB680133BB604C
:10355000BB681D2BF0DD00237B6013E0184A7B68FD
:1035600013441B789AB27B6801331549CB5C9BB23C
:103570001B029BB213449AB2FB891344FB817B6804
:1035800002337B607B681D2BE8DD0D4B9B7F9AB27D
:10359000FB891344FB810B4AFB8913800A4806F020
:1035A00007FA642321220649074806F034F9062267
:1035B0000649054806F0B8F900BF1037BD4680BD82
:1035C000600100207F01002090070020BC0900203E
:1035D00080B485B000AF78600B46FB700023FB60C1
:1035E000FB78002B14D01E4B1A687B681344B3F58C
:1035F000003F07D91A4B1A687B681344A3F50033C0
:10360000FB6019E0164B1B687A681344FB6013E0FB
:10361000144B1A687B681344B3F5003F07D9114B6C
:103620001A687B681344A3F50033FB6004E00D4B7C
:103630001B687A681344FB60FB68002B01D15C2394
:10364000FB60FB68B3F5003F02D1FB685C3BFB60AD
:10365000FB6818461437BD465DF8047B704700BF11
:10366000940900209009002080B483B000AF034685
:10367000FB71FB79802B5CD0802B5CDC202B47DC42
:10368000002B58DD013B1F2B55D801A252F823F027
:10369000173700081B370008373700081F370008A6
:1036A0003737000837370008373700082337000856
:1036B0003737000837370008373700083737000832
:1036C0003737000837370008373700082737000832
:1036D0003737000837370008373700083737000812
:1036E0003737000837370008373700083737000802
:1036F00037370008373700083737000837370008F2
:103700003737000837370008373700082B370008ED
:10371000402B0CD00FE000230EE011230CE02223FD
:103720000AE0332308E0442306E0552304E066233F
:1037300002E0772300E0012318460C37BD465DF810
:10374000047B704780B400AF1F4B1B781A461E4B9A
:103750005B7813441C4A92781344DBB21A4AD2783D
:1037600093422CD1184B1B79A52B28D1174B1B78D2
:10377000002B12D0144B1A78154B1A70124B5A7832
:10378000134B5A70104B9A78114B9A70114B1B883F
:1037900001339AB20F4B1A800BE00B4B1A780E4B89
:1037A0001A70094B5A780C4B5A70074B9A780A4B8F
:1037B0009A700A4B1B8801339AB2084B1A8000BFDB
:1037C000BD465DF8047B704758010020560100207B
:1037D000D40900200E090020CC0900201009002087
:1037E00080B500AF21210D48FDF7A0F90B4B0C224D
:1037F0001A700B4B1A78094B5A70084B0C22DA7767
:10380000074B1A78054B83F82020642321220349B3
:10381000044806F000F800BF80BD00BFE8080020A3
:10382000580900209007002080B500AF194B1B7885
:10383000002B16D0184B1B681A1F184B1B689A4296
:1038400025D8154B1B681A1D144B1B689A421ED3B2
:10385000104B1B781846FDF7ADF8114B00221A707B
:1038600015E0104B1B681A1F0F4B1B689A420ED8AD
:103870000C4B1B681A1D0C4B1B689A4207D3054B57
:103880001B781846FDF796F8054B00221A7000BF0A
:1038900080BD00BFAC0000209C0900204C0B002024
:1038A000440B002098090020480B002080B500AF91
:1038B000224B1B784B211846FDF7A8F81F4B1B78AD
:1038C000002B1CD01E4B1B68A3F12E021D4B1B6846
:1038D0009A4230D81A4B1B6803F12E02194B1B6811
:1038E0009A4228D3184805F09BFA184805F098FA30
:1038F000174B00221A70174B00221A701BE0164B50
:103900001B68A3F12E02154B1B689A4213D8124B69
:103910001B6803F12E02114B1B689A420BD310480F
:1039200005F07EFA094805F07BFA094B00221A706F
:10393000084B00221A7000BF80BD00BFAC00002001
:10394000A40900204C0B00205C0400208C05002002
:10395000440B0020450B0020A0090020480B00204C
:103960001004002080B500AF1A4B1B7883F00103D0
:10397000DBB2002B13D0184B1B68A3F12E02174BA0
:103980001B689A4224D8144B1B6803F12E02134B78
:103990001B689A421CD30F4B01221A7018E0104B7F
:1039A0001B68A3F12E020D4B1B689A4210D80C4BDA
:1039B0001B6803F12E02094B1B689A4208D3094881
:1039C00005F02EFA084805F02BFA084B00221A7071
:1039D00000BF80BD61090020A8090020480B00201D
:1039E00098090020100400208C050020440B0020C2
:1039F00080B500AF664B1B7883F00103DBB2002B70
:103A00002ED0644B01221A70634B1B685A1F634B04
:103A10001B689A4224D8604B1B685A1D5F4B1B6879
:103A20009A421DD35E4B1B781846FCF7C3FF5C4BD4
:103A30001B785C4A126811461846FFF713FB544B7B
:103A400001221A70584B1B789AB2584B1A80544B6B
:103A50001B781A46514B1B6819461046FCF71CFF91
:103A60004B4B1B78002B00F0F380514B1B7883F0FD
:103A70000103DBB2002B2AD0464B00221A70494BBF
:103A80001B685A1F454B1B689A4220D8454B1B6840
:103A90005A1D424B1B689A4219D3454B01221A709A
:103AA00005224449444805F03FFF01224FF40061DC
:103AB000424803F05FF9424B01221A701E20FCF7C6
:103AC00017FE00224FF400613C4803F053F9384BD5
:103AD0001B78002B00F0BC803A4B1B7883F001036D
:103AE000DBB2002B00F0B4802C4B1A68364B1B68FD
:103AF0009A4228D3344B1B6803F12E02274B1B68D4
:103B00009A4220D305222B492B4805F00DFF0122B4
:103B10004FF40061294803F02DF9294B01221A7056
:103B20001E20FCF7E5FD00224FF40061234803F05E
:103B300021F9264B1B8801339AB2244B1A80214B62
:103B400001221A70C3E0224B1B68043B1A46134B38
:103B50001B689A4264D81E4B1B6804331A460F4BED
:103B60001B689A425CD31A4B1B681A4A12889B1A2C
:103B7000002B31DA164B1B68164A12889B1A002B51
:103B8000B8BF5B42C3F50033114A13602BE000BF9E
:103B90005B090020450B00207C090020480B002019
:103BA000AC0000206C090020AF000020C6010020FE
:103BB0005909002058010020080700200000024099
:103BC000560100205A09002074090020160900201F
:103BD00088090020B00900203D4B1B683D4A12882F
:103BE0009B1A3B4A136005223B493C4805F09CFE6A
:103BF00001224FF400613A4803F0BCF8394B01222E
:103C00001A701E20FCF774FD00224FF40061344846
:103C100003F0B0F8344B1B8801339AB2324B1A8050
:103C2000324B1B78002B13D0314B1B68A3F13C02A5
:103C3000304B1B689A420BD82D4B1B6803F13C029A
:103C40002C4B1B689A4203D32B4B1B682B4A1360E7
:103C50002B4B1B78002B3AD0224B1B7883F00103AF
:103C6000DBB2002B33D0274B1B78002B2FD1264BF8
:103C70001B78002B0FD0244B1B781A46520013449C
:103C8000DBB20133DBB21A4621212048FCF76AFF80
:103C90001C4B01221A701C4B00221A701C4B012273
:103CA0001A701C4B00221A701B4B01221A70144B05
:103CB00001221A700B4B00221A70184B00221A7046
:103CC000FCF7A5FD164B1B781846FCF773FE80BD6C
:103CD00088090020B00900205801002008070020B2
:103CE000000002405601002016090020690900204A
:103CF0004C090020480B00206C09002074090020AA
:103D00005A090020550100205D01002060010020BB
:103D10000000002081010020430B002054010020FE
:103D2000AC00002080B500AFA14B1B7883F00103ED
:103D3000DBB2002B2ED09F4B01221A709E4B1B68CA
:103D40005A1F9E4B1B689A4224D89B4B1B685A1DD6
:103D50009A4B1B689A421DD3994B1B781846FCF767
:103D600029FE974B1B78974A126811461846FFF7B1
:103D700079F98F4B01221A70934B1B789AB2934BAF
:103D80001A808F4B1B781A468C4B1B6819461046BD
:103D9000FCF782FD864B1B78002B00F0C8808C4B13
:103DA0001B7883F00103DBB2002B2AD0814B002269
:103DB0001A70844B1B685A1F804B1B689A4220D88C
:103DC000804B1B685A1D7D4B1B689A4219D3804B50
:103DD00001221A7005227F497F4805F0A5FD0122C6
:103DE0004FF400617D4802F0C5FF7D4B01221A703F
:103DF0000A20FCF77DFC00224FF40061774802F0B6
:103E0000B9FF734B1B78002B00F09180754B1B782A
:103E100083F00103DBB2002B00F08980724B1B683A
:103E2000A3F10802654B1B689A4228D86E4B1B68A9
:103E300003F10802614B1B689A4220D305226549B1
:103E4000654805F071FD01224FF40061634802F0FE
:103E500091FF634B01221A700A20FCF749FC0022F3
:103E60004FF400615D4802F085FF604B1B88013311
:103E70009AB25E4B1A805B4B01221A7097E05C4B42
:103E80001B68043B1A464D4B1B689A4237D8584B67
:103E90001B6804331A46494B1B689A422FD3554B73
:103EA0001B881A46524B1B681344514A1360504BEF
:103EB0001B68B3F5003F05DB4D4B1B68A3F50033D2
:103EC0004B4A136005224349434805F02DFD01226A
:103ED0004FF40061414802F04DFF414B01221A703E
:103EE0000A20FCF705FC00224FF400613B4802F079
:103EF00041FF3E4B1B8801339AB23C4B1A803E4B2C
:103F00001B78002B13D03D4B1B68A3F13C022B4BBD
:103F10001B689A420BD8394B1B6803F13C02274BB4
:103F20001B689A4203D3274B1B682F4A13602D4B03
:103F30001B78002B3BD02A4B1B7883F00103DBB2AC
:103F4000002B34D02E4B1B78002B30D12D4B1B78FF
:103F5000002B0FD02B4B1B781A4652001344DBB2B8
:103F60000133DBB21A4621212748FCF7FBFD244B25
:103F700001221A70234B00221A70244B01221A705E
:103F8000234B00221A70234B00221A70224B01226D
:103F90001A70144B01221A70114B00221A701F4B19
:103FA00000221A70064B1B781846FCF703FD80BDF3
:103FB0005B090020450B0020800900204C0B0020ED
:103FC000AC00002070090020B0000020C6010020D5
:103FD0005909002058010020080700200000024075
:103FE000560100205A0900207809002016090020F7
:103FF0008C090020B2090020690900204C0900202A
:10400000550100205D01002060010020000000201B
:10401000440B002081010020430B002054010020AC
:1040200080B582B000AF994B1B7883F00103DBB2FF
:10403000002B02D0954B01221A70944B1B78002B59
:1040400000F0E580924B1B7883F00103DBB2002B7C
:1040500000F0DD808F4B1B7883F00103DBB2002B77
:1040600021D08D4B01221A708C4B1B685A1F8C4B30
:104070001B689A4217D8894B1B685A1D884B1B68CE
:104080009A4210D3874804F0CBFE874B1B78874AAF
:10409000126811461846FEF7E5FF7E4B01221A70A2
:1040A000804804F045FE7B4B1B78002B00F0AF806E
:1040B0007F4B1B7883F00103DBB2002B2AD0764BB9
:1040C00000221A70794B1B685A1F754B1B689A4265
:1040D00020D8764B1B685A1D714B1B689A4219D326
:1040E000734B01221A7005227249734805F01CFCBB
:1040F00001224FF40061714802F03CFE704B012236
:104100001A700220FCF7F4FA00224FF400616B48A9
:1041100002F030FE664B1B78002B78D0694B1B7881
:1041200083F00103DBB2002B71D0674B1B68A3F156
:1041300008025B4B1B689A4234D8634B1B6803F13F
:104140000802574B1B689A422CD3604B1B78002BFC
:104150000FD05E4B1B781A4652001344DBB201337A
:10416000DBB21A4621215A48FCF7FCFC594B0122CC
:104170001A70564B00221A70574B01221A70574B77
:1041800000221A704E4B00221A70464804F048FE76
:10419000534804F045FE3E4B01221A703E4B01226B
:1041A0001A7034E04F4B1B68043B1A463C4B1B68AB
:1041B0009A422CD84B4B1B6804331A46384B1B6869
:1041C0009A4224D3484B1B881A46464B1B6813441B
:1041D000444A136005223749374805F0A5FB012200
:1041E0004FF40061354802F0C5FD354B01221A70CD
:1041F0000220FCF77DFA00224FF400612F4802F004
:10420000B9FD3A4B1B8801339AB2384B1A80204BC8
:104210001B78002B00F0A580354B1B78002B02D0BB
:1042200000F0B4F89DE01A4B1B78002B00F0998049
:104230002B4804F0F5FD2F4804F0F2FD1C4B002242
:104240001A70144B00221A701E4B00221A70174B62
:104250001B687B601C4A7B6813601B4B1B68134AFE
:104260001360254BB3F90030B3F5B27F48DB224B26
:10427000B3F900300533002BB8BF5B429AB21F4B35
:104280001A801E4B4FF698621A8041E05E090020AA
:104290005C0900205B090020450B00207C09002000
:1042A000480B002010040020AC0000206C09002006
:1042B0005909002058010020080700200000024092
:1042C000560100205A090020740900205D010020D9
:1042D0006001002055010020000000208101002025
:1042E0008C05002088090020B00900201609002054
:1042F0005D0900205C040020B6090020B8090020F8
:104300001A4BB3F900309BB205339AB2184B1A809E
:10431000174B1B885B04174A82FB03121A441212C4
:10432000DB17D31A1A46144B1A60134B1B68134A37
:10433000127811461846FFF74BF903460E4A1360F0
:104340000E4B1B780C4A126811461846FEF78AFE7F
:104350000B4B01221A700B4804F0EAFC0A4804F0E7
:10436000E7FC00BF0837BD4680BD00BFB60900208E
:10437000B8090020B7600BB67C090020AC00002013
:104380005D0900208C0500201004002080B500AFDE
:104390006F4B1B7883F00103DBB2002B21D06D4BF8
:1043A00001221A706C4B1B685A1F6C4B1B689A4297
:1043B00017D8694B1B685A1D684B1B689A4210D36B
:1043C000674804F02DFD674B1B78674A1268114659
:1043D0001846FEF747FE5E4B01221A70604804F053
:1043E000A7FC5B4B1B78002B00F0B0805F4B1B7869
:1043F00083F00103DBB2002B2AD0564B00221A7047
:10440000594B1B685A1F554B1B689A4220D8564B74
:104410001B685A1D514B1B689A4219D3534B0122FA
:104420001A7005225249534805F07EFA01224FF4D2
:104430000061514802F09EFC504B01221A7002208C
:10444000FCF756F900224FF400614B4802F092FC51
:10445000464B1B78002B79D0494B1B7883F0010326
:10446000DBB2002B72D0474B1B681A1F3B4B1B68FB
:104470009A4236D8434B1B681A1D384B1B689A4228
:104480002FD3414B1B78002B0FD03F4B1B781A4684
:1044900052001344DBB20133DBB21A4621213B4800
:1044A000FCF760FB3A4B01221A70374B00221A705E
:1044B000384B01221A70384B00221A70374B0022F9
:1044C0001A70374B01221A702D4B01221A702B4B98
:1044D00000221A70224804F0A3FC324804F0A0FC29
:1044E00034E0314B1B68043B1A461C4B1B689A4254
:1044F0002CD82D4B1B6804331A46184B1B689A4264
:1045000024D32A4B1B881A46274B1B681344264A80
:10451000136005221649174805F006FA01224FF4E8
:104520000061154802F026FC144B01221A7002208B
:10453000FCF7DEF800224FF400610F4802F01AFC8D
:104540001B4B1B8801339AB2194B1A8000BF80BDE8
:104550005B090020450B00207C090020480B00204F
:1045600010040020AC0000206C0900205909002034
:1045700058010020080700200000024056010020DA
:104580005A090020740900205D010020600100200C
:104590005501002000000020440B00208101002074
:1045A000430B00208C05002088090020B009002062
:1045B0001609002080B487B000AF786039607B684E
:1045C0000C4AA2FB0323DB087B613B685B00094AC2
:1045D000A2FB0323DB083B617A693B69B2FBF3F37F
:1045E0009BB20133FB81FB8918461C37BD465DF841
:1045F000047B7047CDCCCCCC80B400AF224B1A6882
:10460000224B1B689A4238D31F4B1B689AB21F4B30
:104610001B689BB2D31A9AB21D4B1B8813449AB2E3
:104620001B4B1A801A4B1B881A461A4B1B681344E3
:10463000184A1360164B1B88C72B1ED9164B1B88B4
:104640001946134B1B88154AA2FB03239B099BB2F7
:104650005B00CB1A1A46124B1A600D4B1B880F4A8F
:10466000A2FB03129209C82101FB02F29B1A9AB223
:10467000074B1A800A4B1B6801E0074B1B88184642
:10468000BD465DF8047B7047280900202C090020F6
:1046900022090020500B00200A0900201F85EB5141
:1046A0003409002080B485B000AF78600B467B8071
:1046B0000023FB810023BB812EE0FB897A68134431
:1046C0001A78BB8911461A4A42F82310BB89184A46
:1046D00052F82320FB89013379680B441B781B02B5
:1046E0001946BB890A43124941F82320BB89104A65
:1046F00052F82320FB89023379680B441B781B0492
:104700001946BB890A430A4941F82320FB89033330
:10471000FB81BB890133BB81FA897B889A42CCD368
:1047200000BF00BF1437BD465DF8047B704700BF73
:10473000740A002080B582B000AF0346FB80FB887E
:1047400040F26D1293424ED0B3F5B77F6DDAB62BBF
:1047500054D0B62B69DC1D2B42DC002B65DD013B00
:104760001C2B62D801A252F823F000BF13480008A6
:104770002B480008134800082B4800082B48000865
:10478000134800082B4800082B4800082B48000855
:104790002B4800082B4800082B4800082B4800082D
:1047A0002B4800082B4800082B4800082B4800081D
:1047B0002B4800082B4800082B4800082B4800080D
:1047C0002B4800082B4800082B4800082B480008FD
:1047D0002B4800082B4800082B4800081348000805
:1047E0003C2B16D021E0134B28221A70114B1A785B
:1047F000114B1A70C820FCF74FF916E00D4B282218
:104800001A700C4B1A780C4B1A70C820FCF744F93C
:104810000BE0084B28221A70064B1A78064B1A70C8
:104820004FF47A70FCF738F900BF00BF0837BD4677
:1048300080BD00BFB0000020AF00002080B500AFF9
:10484000284804F0EDFA284804F0DAF94FF47A70B9
:1048500000F076FF06222549254805F065F8052277
:104860002449254803F0C8FB05222449244803F0C5
:10487000C3FBFBF7A7FE0223224A02212248FBF7D3
:1048800001FF214B1B68214A13611F4B5B68204AC3
:1048900013611D4B1B681F4A13601B4B5B681E4A4C
:1048A00013601A4B0F4ADA60194B1C4ADA60174B37
:1048B000C822DA80164BC822DA80144BDB881946EE
:1048C0001248FCF7FBF8124BDB8819461048FCF73E
:1048D000F5F8134BC8221A80124B01221A7000BF40
:1048E00080BD00BF1004002040050020BC0900204E
:1048F00090070020D80800202C020020E0080020AB
:10490000C801002000800108500900208401002017
:104910000400002090090020940900205C0400207D
:10492000C6010020430B002080B584B000AF786042
:104930007B68D3F8843003F00803002B08D07B6831
:104940001B6808221A621B4B1B685B6ADBB2FB7395
:104950007B68194A934229D17B68D3F8843003F0ED
:104960000803002B0ED07B681B6808221A62124BCA
:104970001B685B6ADBB2BB73062210490E4804F069
:10498000D3FF13E07B681B68DB690D4A13607B680B
:10499000D3F884300B4A1360074804F0FFFEFDF79C
:1049A0007FF806220549044804F0BEFF00BF103717
:1049B000BD4680BD0807002090070020BC090020EC
:1049C000400900204409002080B400AF72B600BF47
:1049D000FEE7000080B582B000AF0F4B1B6C0E4AA3
:1049E00043F0805313640C4B1B6C03F080537B60CB
:1049F0007B68094B5B6C084A43F480435364064B65
:104A00005B6C03F480433B603B68052000F0B0FF23
:104A100000BF0837BD4680BD0038024080B58CB06D
:104A200000AF786007F11C0300221A605A609A6098
:104A3000DA601A617B681B68984A934240F0A08054
:104A4000974B1B6C964A43F400431364944B1B6CC6
:104A500003F40043BB61BB69914B1B6B904A43F06D
:104A6000020313638E4B1B6B03F002037B617B69B4
:104A70008B4B1B6B8A4A43F004031363884B1B6BFD
:104A800003F004033B613B690423FB6102233B62A7
:104A900000237B620323BB620723FB6207F11C0335
:104AA0001946804801F0CEFE4FF44063FB610223BB
:104AB0003B6200237B620323BB620623FB6207F198
:104AC0001C031946784801F0BDFE784B784A1A60FD
:104AD000764B00225A60754B00229A60734B00227D
:104AE000DA60724B4FF480621A61704B00225A6197
:104AF0006E4B00229A616D4B0022DA616B4B0022F3
:104B00001A626A4B00225A62684800F081FF03462D
:104B1000002B01D0FFF758FF7B68644A9A65634A0F
:104B20007B689363634B644A1A60624B00225A604D
:104B3000604B40229A605F4B0022DA605D4B4FF47D
:104B400080621A615B4B00225A615A4B00229A61C3
:104B5000584B0022DA61574B00221A62554B002253
:104B60005A62544800F054FF0346002B01D0FFF76F
:104B70002BFF7B684F4A5A654E4A7B68936389E0F6
:104B80007B681B684D4A934240F08480444B5B6CC9
:104B9000434A43F400535364414B5B6C03F40053AA
:104BA000FB60FB683E4B1B6B3D4A43F010031363F5
:104BB0003B4B1B6B03F01003BB60BB686423FB61C2
:104BC00002233B6200237B620323BB620523FB625B
:104BD00007F11C0319463A4801F034FE394B3A4AB2
:104BE0001A60384B4FF000625A60364B00229A60D0
:104BF000344B0022DA60334B4FF480621A61314B40
:104C000000225A612F4B00229A612E4B0022DA615A
:104C10002C4B00221A622B4B00225A62294800F0CA
:104C2000F7FE0346002B01D0FFF7CEFE7B68254A36
:104C30009A65244A7B689363244B254A1A60234B68
:104C40004FF000625A60214B40229A601F4B0022B5
:104C5000DA601E4B4FF480621A611C4B00225A61CD
:104C60001A4B00229A61194B0022DA61174B00227D
:104C70001A62164B00225A62144800F0C9FE03461D
:104C8000002B01D0FFF7A0FE7B68104A5A650F4A3F
:104C90007B68936300BF3037BD4680BD003C004059
:104CA0000038024000040240000802409002002048
:104CB00010600240F0020020886002400034014091
:104CC000001002405003002010640240B003002096
:104CD0002864024080B58CB000AF78607B681B68A8
:104CE000B3F1804F14D1704B1B6C6F4A43F001033A
:104CF00013646D4B1B6C03F00103FB62FB6A002223
:104D000002211C2000F03FFE1C2000F058FEC6E0EF
:104D10007B681B68654A934214D1634B1B6C624AE3
:104D200043F002031364604B1B6C03F00203BB628D
:104D3000BB6A002202211D2000F025FE1D2000F08C
:104D40003EFEACE07B681B68594A934214D1564B37
:104D50001B6C554A43F004031364534B1B6C03F064
:104D600004037B627B6A002200211E2000F00BFE00
:104D70001E2000F024FE92E07B681B684D4A93429F
:104D800014D1494B1B6C484A43F008031364464B4B
:104D90001B6C03F008033B623B6A002201213220B6
:104DA00000F0F1FD322000F00AFE78E07B681B681D
:104DB000414A93420CD13C4B1B6C3B4A43F01003DD
:104DC0001364394B1B6C03F01003FB61FB6966E055
:104DD0007B681B68394A934214D1334B1B6C324AAF
:104DE00043F020031364304B1B6C03F02003BB61C2
:104DF000BB6900220221372000F0C5FD372000F0FA
:104E0000DEFD4CE07B681B682D4A934214D1264B93
:104E10005B6C254A43F400335364234B5B6C03F40F
:104E200000337B617B6903220321192000F0ABFD75
:104E3000192000F0C4FD32E07B681B68214A9342D0
:104E400014D1194B1B6C184A43F080031364164BA2
:104E50001B6C03F080033B613B69012201212C2084
:104E600000F091FD2C2000F0AAFD18E07B681B6883
:104E7000154A934213D10C4B1B6C0B4A43F48073BD
:104E80001364094B1B6C03F48073FB60FB68012205
:104E900001212D2000F077FD2D2000F090FD00BFB6
:104EA0003037BD4680BD00BF0038024000040040DE
:104EB00000080040000C00400010004000140040BA
:104EC00000440140001C00400020004080B584B038
:104ED00000AF78607B681B680D4A934213D10D4B7D
:104EE0005B6C0C4A43F4803353640A4B5B6C03F4F1
:104EF0008033FB60FB6801220121182000F043FD94
:104F0000182000F05CFD00BF1037BD4680BD00BF1B
:104F1000004001400038024080B5ACB000AF78607E
:104F200007F19C0300221A605A609A60DA601A61E5
:104F300007F11C0380220021184605F0C1FF7B68A1
:104F40001B687A4A934273D14023FB610023BB65FF
:104F500007F11C03184602F059FC0346002B01D050
:104F6000FFF732FD724B5B6C714A43F010035364E0
:104F70006F4B5B6C03F01003BB61BB696C4B1B6B2D
:104F80006B4A43F001031363694B1B6B03F001038E
:104F90007B617B694FF4C063C7F89C300223C7F87C
:104FA000A0300023C7F8A4300323C7F8A830072394
:104FB000C7F8AC3007F19C0319465E4801F042FC8B
:104FC0005D4B5E4A1A605C4B4FF000625A605A4B70
:104FD00000229A60584B0022DA60574B4FF48062EF
:104FE0001A61554B00225A61534B00229A61524B71
:104FF0000022DA61504B4FF400321A624E4B00220D
:105000005A624D4800F004FD0346002B01D0FFF723
:10501000DBFC7B68484A5A67474A7B6893630022F7
:105020000121252000F0AFFC252000F0C8FC78E02D
:105030007B681B68424A934273D14FF48073FB61D3
:1050400000233B6607F11C03184602F0DFFB034612
:10505000002B01D0FFF7B8FC354B1B6C344A43F4EE
:1050600080231364324B1B6C03F480233B613B6948
:105070002F4B1B6B2E4A43F0020313632C4B1B6B0D
:1050800003F00203FB60FB684FF49843C7F89C30C1
:105090000223C7F8A0300023C7F8A4300323C7F8C1
:1050A000A8300723C7F8AC3007F19C031946254800
:1050B00001F0C8FB244B254A1A60234B4FF00062D5
:1050C0005A60214B00229A601F4B0022DA601E4B6F
:1050D0004FF480621A611C4B00225A611A4B002265
:1050E0009A61194B4FF48072DA61174B00221A62F1
:1050F000154B00225A62144800F08AFC0346002B2C
:1051000001D0FFF761FC7B680F4A5A670E4A7B6843
:10511000936300220121272000F035FC272000F0B6
:105120004EFC00BFB037BD4680BD00BF001001403F
:10513000003802400000024018080020406402408D
:105140000048004000040240780800202860024027
:1051500080B582B000AF78607B681B68194A9342C3
:1051600013D1194B5B6C184A23F0100353644FF4AE
:10517000C061164801F002FD7B685B6F184600F0C5
:10518000F5FC252000F029FC17E07B681B68104A1D
:10519000934212D10C4B1B6C0B4A23F480231364F3
:1051A0004FF498410B4801F0E9FC7B685B6F1846AF
:1051B00000F0DCFC272000F010FC00BF0837BD46E3
:1051C00080BD00BF001001400038024000000240D6
:1051D000004800400004024080B400AFFEE780B405
:1051E00000AFFEE780B400AFFEE780B400AFFEE79B
:1051F00080B400AFFEE780B400AF00BFBD465DF8ED
:10520000047B704780B400AF00BFBD465DF8047BEF
:10521000704780B400AF00BFBD465DF8047B7047A7
:1052200080B500AF00F06CFA00BF80BD80B500AF64
:10523000024800F0EBFD00BF80BD00BF90020020DF
:1052400080B500AF024800F0E1FD00BF80BD00BFA7
:105250007808002080B500AF024800F0D7FD00BFFD
:1052600080BD00BFF002002080B500AF024803F00F
:1052700057FE00BF80BD00BFD805002080B500AF3D
:10528000034B01221A70034803F04AFE00BF80BDA1
:10529000660900202406002080B500AF20210648C2
:1052A00001F081FD054B1B6800225A62034803F0A0
:1052B00037FE00BF80BD00BF000002401004002088
:1052C00080B500AF0121064801F06DFD054B1B685C
:1052D00000225A62034803F023FE00BF80BD00BFD6
:1052E000000402405C04002080B500AF034B0122A3
:1052F0001A70034803F014FE00BF80BD420B00206B
:10530000A804002080B500AF024804F0E3FB00BF12
:1053100080BD00BF0807002080B500AF024804F040
:10532000D9FB00BF80BD00BF9007002080B500AF53
:105330000A4B1B680133094A1360094B00221A60AB
:10534000084B1B685A6A084B1B681344064A1360D3
:10535000044803F0E5FD00BF80BD00BF1809002030
:1053600067090020700600202809002080B500AFE2
:10537000034B01221A70034803F0D2FD00BF80BD29
:1053800065090020BC06002080B500AF134B1A68E9
:10539000134B1B689A4212D2124B1B881946104BB2
:1053A0001A680E4B1B68D31A03FB01F20E4B1B68E5
:1053B0005200DA620C4B1B6800225A6208E00B486C
:1053C00003F08EFC084803F08BFC094B01221A60A5
:1053D000054803F0A5FD00BF80BD00BF38090020CF
:1053E0003C0900200A090020F4040020BC0600202B
:1053F0005F09002080B500AF0D4B1B7883F00103DF
:10540000DBB2002B05D005220A490B4802F0F4FD5F
:1054100004E0052209490A4802F0EEFD094B1B6829
:1054200000225A62074803F07BFD00BF80BD00BF29
:10543000AC000020D80800202C020020E00800204A
:10544000C80100208C05002080B500AF024800F0A4
:10545000DDFC00BF80BD00BF5003002080B500AF61
:10546000024800F0D3FC00BF80BD00BFB0030020A5
:1054700080B500AF024800F0C9FC00BF80BD00BF8E
:105480001808002080B400AF01231846BD465DF81F
:10549000047B704780B582B000AF7860396005F05A
:1054A000E5FC034616221A604FF0FF331846083712
:1054B000BD4680BD80B582B000AF78604FF0FF314F
:1054C0007868FFF7E7FFFEE780B586B000AFF860C9
:1054D000B9607A6000237B610AE0AFF30080014687
:1054E000BB685A1CBA60CAB21A707B6901337B610F
:1054F0007A697B689A42F0DB7B6818461837BD46AC
:1055000080BD80B586B000AFF860B9607A600023D6
:105510007B6109E0BB685A1CBA601B781846FDF72E
:105520003FFE7B6901337B617A697B689A42F1DBDC
:105530007B6818461837BD4680BD80B483B000AF85
:1055400078604FF0FF3318460C37BD465DF8047B9A
:10555000704780B483B000AF786039603B684FF427
:1055600000525A60002318460C37BD465DF8047B94
:10557000704780B483B000AF7860012318460C37C1
:10558000BD465DF8047B704780B485B000AFF8601D
:10559000B9607A60002318461437BD465DF8047B75
:1055A0007047000080B586B000AF7860144A154B94
:1055B000D31A7B617B693B61134B1B68002B02D1C3
:1055C000114B124A1A60104B1A687B6813443A69EF
:1055D0009A4207D205F04AFC03460C221A604FF0AB
:1055E000FF3309E0084B1B68FB60074B1A687B68B8
:1055F0001344054A1360FB6818461837BD4680BD42
:105600000000042000040000540B0020880B002040
:1056100080B400AF064BD3F88830054A43F47003DA
:10562000C2F8883000BFBD465DF8047B704700BFFC
:1056300000ED00E0DFF834D0FFF7EAFF0C480D4939
:105640000D4A002302E0D458C4500433C4188C42DD
:10565000F9D30A4A0A4C002301E013600432A24243
:10566000FBD305F009FCFBF737FB70470000042073
:105670000000002024010020C0C1000824010020F7
:10568000880B0020FEE780B500AF032000F070F922
:10569000002000F005F8FFF79DF90023184680BDB3
:1056A00080B582B000AF7860124B1A68124B1B783D
:1056B00019464FF47A73B3FBF1F3B2FBF3F31846D8
:1056C00000F099F90346002B01D001230EE07B681E
:1056D0000F2B0AD8002279684FF0FF3000F053F901
:1056E000064A7B681360002300E001231846083750
:1056F000BD4680BDB4000020BC000020B8000020E2
:1057000080B400AF064B1B781A46064B1B68134447
:10571000044A136000BFBD465DF8047B704700BFBC
:10572000BC000020580B002080B400AF034B1B6866
:105730001846BD465DF8047B704700BF580B00203B
:1057400080B584B000AF7860FFF7EEFFB8607B688B
:10575000FB60FB68B3F1FF3F05D00A4B1B781A468C
:10576000FB681344FB6000BFFFF7DEFF0246BB6827
:10577000D31AFA689A42F7D800BF00BF1037BD4667
:1057800080BD00BFBC00002080B485B000AF786051
:105790007B6803F00703FB600B4BDB68BB60BA68F8
:1057A0004FF6FF031340BB60FB681A02BB681A4345
:1057B000064B1343BB60044ABB68D36000BF143779
:1057C000BD465DF8047B704700ED00E00000FA057F
:1057D00080B400AF044BDB681B0A03F007031846D4
:1057E000BD465DF8047B704700ED00E080B483B0F7
:1057F00000AF0346FB7197F90730002B0BDBFB79F9
:1058000003F01F02074997F907305B09012000FAEE
:1058100002F241F8232000BF0C37BD465DF8047B3F
:10582000704700BF00E100E080B483B000AF0346E2
:10583000FB7197F90730002B12DBFB7903F01F0295
:105840000A4997F907305B09012000FA02F2203378
:1058500041F82320BFF34F8F00BFBFF36F8F00BF0E
:1058600000BF0C37BD465DF8047B704700E100E0E7
:1058700080B483B000AF03463960FB7197F90730FD
:10588000002B0ADB3B68DAB20C4997F907301201AA
:10589000D2B20B4483F800230AE03B68DAB208492D
:1058A000FB7903F00F03043B1201D2B20B441A76CA
:1058B00000BF0C37BD465DF8047B704700E100E097
:1058C00000ED00E080B489B000AFF860B9607A60A4
:1058D000FB6803F00703FB61FB69C3F10703042BBB
:1058E00028BF0423BB61FB690433062B02D9FB6983
:1058F000033B00E000237B614FF0FF32BB6902FAFB
:1059000003F3DA43BB681A407B699A404FF0FF31DA
:105910007B6901FA03F3D9437B680B4013431846B4
:105920002437BD465DF8047B7047000080B582B027
:1059300000AF78607B68013BB3F1807F01D3012326
:105940000FE00A4A7B68013B53600F214FF0FF30A4
:10595000FFF78EFF054B00229A60044B07221A6066
:10596000002318460837BD4680BD00BF10E000E0A8
:1059700080B582B000AF78607868FFF705FF00BFA0
:105980000837BD4680BD80B586B000AF0346B9601C
:105990007A60FB7300237B61FFF71AFF78617A68F6
:1059A000B9687869FFF78EFF024697F90F30114604
:1059B0001846FFF75DFF00BF1837BD4680BD80B5B4
:1059C00082B000AF0346FB7197F907301846FFF726
:1059D0000DFF00BF0837BD4680BD80B582B000AF67
:1059E0000346FB7197F907301846FFF71DFF00BF0C
:1059F0000837BD4680BD80B582B000AF786078685A
:105A0000FFF794FF034618460837BD4680BD0000E7
:105A100080B586B000AF786000237B61FFF784FE1D
:105A200038617B68002B01D1012399E07B68022259
:105A300083F835207B68002283F834207B681B685C
:105A40001A687B681B6822F001021A600FE0FFF7FA
:105A50006BFE02463B69D31A052B08D97B682022CE
:105A60005A657B68032283F83520032378E07B683E
:105A70001B681B6803F00103002BE8D17B681B68DF
:105A80001B687B617A69384B13407B617B685A687D
:105A90007B689B681A437B68DB681A437B681B69D9
:105AA0001A437B685B691A437B689B691A437B686E
:105AB000DB691A437B681B6A13437A6913437B6172
:105AC0007B685B6A042B07D17B68DA6A7B681B6B97
:105AD00013437A6913437B617B681B687A691A6098
