:020000040800F2
:1000000000000420514300085140000857400008F8
:100010005D400008634000086940000800000000DF
:100020000000000000000000000000006F40000819
:100030007D400008000000008B4000089940000847
:10004000A1430008A1430008A1430008A143000800
:10005000A1430008A1430008A1430008A1430008F0
:10006000A1430008A1430008A1430008A5400008DF
:10007000B9400008A1430008CD400008A143000892
:10008000E1400008A1430008A1430008A143000883
:10009000A1430008A1430008A1430008A1430008B0
:1000A000A1430008F5400008A1430008A14300084F
:1000B000094100081D410008A1430008A1430008B0
:1000C000A1430008A1430008A1430008A143000880
:1000D000A143000831410008A14300084541000840
:1000E000A1430008A1430008A1430008A143000860
:1000F000A143000859410008A1430008A14300089A
:10010000A1430008A14300086D410008A143000875
:10011000A1430008A1430008A14300088141000851
:1001200095410008A9410008BD410008A14300080D
:10013000A1430008000000000000000000000000D3
:10014000000000000000000000000000A1430008C3
:10015000A1430008A1430008D1410008A1430008C1
:10016000A1430008A1430008A1430008A1430008DF
:10017000A1430008A14300080000000000000000A7
:10018000A1430008A1430008A1430008A1430008BF
:10019000A1430008A143000800000000A14300089B
:1001A000000000000000000000000000A143000863
:1001B000A1430008A1430008000000000000000067
:1001C000000000000000000000000000000000002F
:1001D000000000000000000000000000A143000833
:1001E00010B5054C237833B9044B13B10448AFF371
:1001F00000800123237010BDEC00002000000000EF
:1002000038A5000808B5034B1BB103490348AFF3F9
:10021000008008BD00000000F000002038A50008A4
:1002200053B94AB9002908BF00281CBF4FF0FF315D
:100230004FF0FF3000F074B9ADF1080C6DE904CE59
:1002400000F006F8DDF804E0DDE9022304B07047B1
:100250002DE9F047089D04468E46002B4DD18A4279
:10026000944669D9B2FA82F252B101FA02F3C2F1AC
:10027000200120FA01F10CFA02FC41EA030E94403D
:100280004FEA1C48210CBEFBF8F61FFA8CF708FB5E
:1002900016E341EA034306FB07F199420AD91CEB36
:1002A000030306F1FF3080F01F81994240F21C8168
:1002B000023E63445B1AA4B2B3FBF8F008FB1033B0
:1002C00044EA034400FB07F7A7420AD91CEB0404E5
:1002D00000F1FF3380F00A81A74240F207816444B5
:1002E000023840EA0640E41B00261DB1D44000233A
:1002F000C5E900433146BDE8F0878B4209D9002D9E
:1003000000F0EF800026C5E9000130463146BDE827
:10031000F087B3FA83F6002E4AD18B4202D3824291
:1003200000F2F980841A61EB030301209E46002D40
:10033000E0D0C5E9004EDDE702B9FFDEB2FA82F295
:10034000002A40F09280A1EB0C014FEA1C471FFAF3
:100350008CFE0126200CB1FBF7F307FB131140EADA
:1003600001410EFB03F0884208D91CEB010103F1A7
:10037000FF3802D2884200F2CB804346091AA4B269
:10038000B1FBF7F007FB101144EA01440EFB00FE3D
:10039000A64508D91CEB040400F1FF3102D2A645A2
:1003A00000F2BB800846A4EB0E0440EA03409CE741
:1003B000C6F12007B34022FA07FC4CEA030C20FAEE
:1003C00007F401FA06F31C43F9404FEA1C4900FA0E
:1003D00006F3B1FBF9F8200C1FFA8CFE09FB18118B
:1003E00040EA014108FB0EF0884202FA06F20BD9FE
:1003F0001CEB010108F1FF3A80F08880884240F24E
:100400008580A8F102086144091AA4B2B1FBF9F091
:1004100009FB101144EA014100FB0EFE8E4508D98C
:100420001CEB010100F1FF346CD28E456AD9023811
:10043000614440EA0840A0FB0294A1EB0E01A142F6
:10044000C846A64656D353D05DB1B3EB080261EB64
:100450000E0101FA07F722FA06F3F1401F43C5E93E
:10046000007100263146BDE8F087C2F12003D84074
:100470000CFA02FC21FA03F3914001434FEA1C47B6
:100480001FFA8CFEB3FBF7F007FB10360B0C43EAA8
:10049000064300FB0EF69E4204FA02F408D91CEB58
:1004A000030300F1FF382FD29E422DD90238634456
:1004B0009B1B89B2B3FBF7F607FB163341EA0341F6
:1004C00006FB0EF38B4208D91CEB010106F1FF3845
:1004D00016D28B4214D9023E6144C91A46EA00463C
:1004E00038E72E46284605E70646E3E61846F8E6CE
:1004F0004B45A9D2B9EB020864EB0C0E0138A3E717
:100500004646EAE7204694E74046D1E7D0467BE7F7
:10051000023B614432E7304609E76444023842E76F
:10052000704700BF80B582B000AF03F03AFF00F023
:10053000AFF900F003FD00F09FFC00F06BFC00F051
:1005400031FC00F051FA00F011FA00F08BFA00F0E3
:10055000D7FA00F073FB00F0A7FB00F0DBFB00F024
:100560001DFB00F0FBFBA84807F0EAFAA74807F0DC
:10057000D7F94FF47A7003F071FF0622A449A54819
:1005800008F008F80522A449A44806F0C5FB052296
:10059000A349A44806F0C0FB02F01CF9A24B1A685C
:1005A00002230221A14802F075F9A04B1B68A04A62
:1005B00013609E4B5B689F4A13609F4B01221A7029
:1005C0009E4B1B78002B01D000F046FD9C4B1B7806
:1005D000002B56D09B4B1B8801339AB2994B1A8043
:1005E00002F050FA984B1B78012B0BD0964B1B78DE
:1005F000022B07D0944B1B78032B03D0924B1B7814
:10060000042B3BD1914B1B78002B37D00023FB717F
:1006100010E0FB798E4A127811468E4AD25C8E4BDE
:100620005A54FB790133FB71894B1B780133DAB2E1
:10063000874B1A70FB79022BEBD9844B00221A707E
:10064000864B1B780133DAB2844B1A70834B1B78CC
:100650009AB2834B1A80834B1B8801339AB2814B29
:100660001A807E4B1B780A2B08D17C4B00221A7013
:10067000774B01221A707C4B01221A70704B0022BA
:100680001A707A4B1B78002B2DD06F4B1B78013BD7
:10069000082B24D801A252F823F000BFD30600088B
:1006A000D9060008DF060008DF060008DF0600089C
:1006B000C7060008DF060008C1060008CD060008CE
:1006C00002F05CFA0CE002F0F9FA09E002F0A0FA9C
:1006D00006E002F039FB03E002F036FB00E000BF69
:1006E000624B00221A70624B1B78002B2DD0564BA8
:1006F0001B78013B082B24D801A252F823F000BF3D
:10070000370700083D0700084307000843070008B3
:10071000430700082B0700084307000825070008C7
:100720003107000802F02AFA0CE002F0C7FA09E0EB
:1007300002F06EFA06E002F049FC03E002F088FDE8
:1007400000E000BF4A4B00221A704A4B1B78002B76
:1007500034D0424B1B78002B19D03C4B00221A702E
:100760003E4B1B781A4652001344DBB20133DBB216
:100770001A462121384802F0DFF83B4B01221A705B
:10078000364B00221A70324B01221A7016E0334B9E
:100790001B78002B12D1344B1B78002B0ED12A4B27
:1007A00000221A70344B00221A70234B01221A7057
:1007B000304B00221A70254B00221A702F4B1B78E9
:1007C000002B3FF4FDAE2E4B1B78002B3FF4F8AE10
:1007D0002C4B1B78052B7FF4F3AE284B00221A70AC
:1007E000274B00221A70274BFF221A70164B042247
:1007F0001A70114B02221A70234B01221A702348DF
:1008000007F026F9DCE600BF600300204404002066
:10081000D0080020FC050020040800207C010020F6
:100820000C0800201801002074000020700800202F
:10083000A4080020A8080020FB080020F6080020DB
:10084000F508002060080020FC0800208108002036
:1008500005000020F008002038080020590800207A
:10086000CE0800205A080020FE080020F7080020CB
:10087000F808002080080020780800208708002061
:10088000880800207A000020860800202805002023
:1008900080B594B000AF07F1200330220021184644
:1008A00009F044F907F10C0300221A605A609A60BB
:1008B000DA601A612B4B1B6C2A4A43F08053136495
:1008C000284B1B6C03F08053BB60BB68264B1B6836
:1008D00023F44043244A43F480431360224B1B68B3
:1008E00003F440437B607B6801233B624FF4803319
:1008F0007B620223BB634FF48003FB6308233B64EA
:10090000D8237B640223BB640223FB6407F120032A
:10091000184605F041F90346002B01D002F07AFF9A
:1009200005F0EAF80346002B01D002F073FF0F2315
:10093000FB6002233B6100237B614FF48053BB616A
:100940004FF48053FB6107F10C030321184605F0B7
:10095000C7FB0346002B01D002F05CFF00BF5037FD
:10096000BD4680BD003802400070004080B500AF39
:100970001B4B1C4A1A601A4B4FF482725A60184B78
:1009800000229A60164B4FF4E062DA60144B0222A8
:100990001A61134B00225A61114B4FF400729A6195
:1009A0000F4B3822DA610E4B00221A620C4B0022E8
:1009B0005A620B4B00229A62094B0722DA62084BFB
:1009C00000221A63064B08225A63054806F0F8F81D
:1009D0000346002B01D002F01DFF00BF80BD00BF09
:1009E00018010020003C004080B500AF1B4B1C4AA2
:1009F0001A601A4B4FF482725A60184B00229A60A8
:100A0000164B4FF4E062DA60144B02221A61134B6A
:100A100000225A61114B4FF400729A610F4B382239
:100A2000DA610E4B00221A620C4B00225A620B4B09
:100A300000229A62094B0722DA62084B00221A63ED
:100A4000064B08225A63054806F0BAF80346002B05
:100A500001D002F0DFFE00BF80BD00BF7C0100209E
:100A60000034014080B588B000AF07F110030022C8
:100A70001A605A609A60DA603B1D00221A605A6060
:100A80009A601E4B4FF080421A601C4B6B225A60DA
:100A90001A4B00229A60194B43F67F62DA60174BBB
:100AA00000221A61154B00229A61144806F0E0FEFC
:100AB0000346002B01D002F0ADFE4FF480533B61A2
:100AC00007F1100319460D4807F072F90346002B91
:100AD00001D002F09FFE00237B600023FB603B1DE2
:100AE0001946064807F096FB0346002B01D002F09A
:100AF00091FE00BF2037BD4680BD00BF60030020CF
:100B000080B588B000AF07F1100300221A605A6068
:100B10009A60DA603B1D00221A605A609A601D4B91
:100B20001D4A1A601B4B6B225A601A4B00229A60B6
:100B3000184B43F67F62DA60164B00221A61154BA0
:100B400000229A61134806F093FE0346002B01D061
:100B500002F060FE4FF480533B6107F11003194629
:100B60000C4807F025F90346002B01D002F052FE95
:100B700000237B600023FB603B1D1946054807F0FE
:100B800049FB0346002B01D002F044FE00BF203792
:100B9000BD4680BDAC0300200004004080B588B095
:100BA00000AF07F1100300221A605A609A60DA6001
:100BB0003B1D00221A605A609A601E4B1E4A1A6042
:100BC0001C4B42F62F225A601A4B00229A60194B96
:100BD0004FF0FF32DA60174B00221A61154B0022EA
:100BE0009A61144806F044FE0346002B01D002F03F
:100BF00011FE4FF480533B6107F1100319460D4875
:100C000007F0D6F80346002B01D002F003FE0023C4
:100C10007B600023FB603B1D1946064807F0FAFA8B
:100C20000346002B01D002F0F5FD00BF2037BD4682
:100C300080BD00BFF8030020000C004080B584B0E8
:100C400000AF3B1D00221A605A609A60144B154A8F
:100C50001A60134B6B225A60114B00229A60104BA2
:100C60004FF6FF72DA600E4B00229A610C4806F0D4
:100C7000FFFD0346002B01D002F0CCFD00237B607A
:100C80000023FB603B1D1946054807F0C3FA0346E5
:100C9000002B01D002F0BEFD00BF1037BD4680BD65
:100CA000440400200010004080B584B000AF3B1D1C
:100CB00000221A605A609A60144B154A1A60134B4E
:100CC0006B225A60114B00229A60104B6322DA604B
:100CD0000E4B00229A610D4806F0CAFD0346002B18
:100CE00001D002F097FD00237B600023FB603B1DD9
:100CF0001946064807F08EFA0346002B01D002F091
:100D000089FD00BF1037BD4680BD00BF90040020A4
:100D10000014004080B500AF0E4B0F4A1A600D4B17
:100D200042F62F225A600B4B00229A60094B41F683
:100D30003F72DA60074B00221A61064B00229A616B
:100D4000044806F095FD0346002B01D002F062FD39
:100D500000BF80BDDC0400200044014080B500AF2E
:100D60000E4B0F4A1A600D4B45F25F425A600B4B17
:100D700000229A60094B4FF6FF72DA60074B00229F
:100D80001A61064B00229A61044806F071FD034681
:100D9000002B01D002F03EFD00BF80BD28050020E1
:100DA0000020004080B500AF184B1B689A68174BB5
:100DB0001B6842F001029A60144B154A1A60134BEB
:100DC0004FF416425A60114B00229A600F4B0022DA
:100DD000DA600E4B00221A610C4B0C225A610B4B4D
:100DE00000229A61094B0022DA61084B00221A6244
:100DF000064B00225A62054807F0B8FA0346002B5A
:100E000001D002F007FD00BF80BD00BF74050020C7
:100E10000010014080B500AF154B164A1A60144B04
:100E20004FF416425A60124B00229A60104B002277
:100E3000DA600F4B00221A610D4B0C225A610C4BE9
:100E400000229A610A4B0022DA61094B00221A62E1
:100E5000074B00225A62002300220021044808F0B8
:100E6000D3FD0346002B01D002F0D4FC00BF80BDAF
:100E7000FC0500200048004080B582B000AF2E4B3A
:100E80001B6B2D4A43F4001313632B4B1B6B03F4B2
:100E900000137B607B68284B1B6B274A43F480035D
:100EA0001363254B1B6B03F480033B603B680022FC
:100EB00000210B2003F0F5FB0B2003F00EFC0022B9
:100EC00000210C2003F0EDFB0C2003F006FC0022B7
:100ED00000210E2003F0E5FB0E2003F0FEFB0022B4
:100EE0000021102003F0DDFB102003F0F6FB0022B0
:100EF0000021382003F0D5FB382003F0EEFB002260
:100F00000021392003F0CDFB392003F0E6FB00225D
:100F100000213A2003F0C5FB3A2003F0DEFB00225B
:100F20000021462003F0BDFB462003F0D6FB00BFA6
:100F30000837BD4680BD00BF0038024080B58AB08A
:100F400000AF07F1140300221A605A609A60DA6059
:100F50001A613D4B1B6B3C4A43F0100313633A4B41
:100F60001B6B03F010033B613B69374B1B6B364A2D
:100F700043F080031363344B1B6B03F08003FB606F
:100F8000FB68314B1B6B304A43F0010313632E4B5C
:100F90001B6B03F00103BB60BB682B4B1B6B2A4A26
:100FA00043F004031363284B1B6B03F004037B60C3
:100FB0007B68254B1B6B244A43F002031363224BCF
:100FC0001B6B03F002033B603B6800224FF4076198
:100FD0001E4804F05DFD002220211D4804F058FD4C
:100FE000002203211B4804F053FD4FF407637B618B
:100FF0000123BB610023FB6100233B6207F1140363
:101000001946124804F0ACFA20237B610123BB612E
:101010000023FB6100233B6207F1140319460C48CF
:1010200004F09EFA03237B610123BB610023FB6173
:1010300000233B6207F114031946064804F090FAB6
:1010400000BF2837BD4680BD003802400000024086
:10105000000802400004024080B584B000AFB04BED
:101060001B78013B1F2B00F27E8701A252F823F070
:10107000F1100008B113000847110008671F0008AD
:101080002F170008A3170008291800089D19000849
:10109000751A0008C51A0008F31A00080B1B00088F
:1010A000671F00081D1B0008671B0008E91B0008DC
:1010B000C51C0008F11C0008111D0008491D00088E
:1010C000AB1D0008671F0008D51D0008EF1D0008B4
:1010D000091F0008671F0008671F0008671F000836
:1010E000671F0008671F0008671F0008471F0008E8
:1010F00005228C498C4805F00FFE05228B498C484F
:1011000005F00AFE8B4B1B7883F00103DBB2002B4A
:1011100013D005228849894807F03CFA01224FF490
:101120000061874804F0B4FC0A2001F091FC002221
:101130004FF40061824804F0ABFC0021012001F073
:10114000F7F900F010BF0121032001F0F1F97D4B08
:1011500000221A807C4B00221A80764B00221A70E3
:101160007A4B00221A707A4B00221A70794B6C4A23
:1011700092E80300186004331980764B5B78013BDA
:10118000754A13441B7AB43B002BB8BF5B421AB2BA
:10119000724B1A806F4B9B78013B6F4A13441B7A4A
:1011A0009BB2B4339BB21AB26D4B1A80694BDB7899
:1011B000013B6C4A083332F813206B4B1A80674BA3
:1011C000B3F90030042B11DC644BB3F90030053B5C
:1011D000002BB8BF5B429AB2644B1A80634B1B88EA
:1011E000C3F5B4739AB2614B1A8007E05B4BB3F955
:1011F00000309BB2053B9AB25C4B1A805C4B0022DC
:101200001A705C4B00221A705B4B00221A705B4B09
:1012100000221A705A4B00221A705A4B00221A7080
:10122000524B1B885B04584A82FB03121A44121269
:10123000DB17D31A1A46554B1A60544B1B68434AA6
:1012400012781146184601F079FA03464F4A1360A6
:101250003E4B1B784D4A12681146184600F006FFB7
:101260003E4BB3F900305B04474A82FB03121A4439
:101270001212DB17D31A1A46454B1A60444B1B68EF
:10128000324A12781146184601F058FA0346404A8D
:101290001360354B1B881A463D4B1B681344B3F54E
:1012A000003F0AD9304B1B881A46394B1B68134440
:1012B000A3F50033374A136007E02B4B1B881A460F
:1012C000334B1B681344334A1360254BB3F900308A
:1012D0005B042D4A82FB03121A441212DB17D31A45
:1012E0001A462D4B1A602C4B1B68184A127811466F
:1012F000184601F023FA0346274A1360274B0222BF
:101300001A70274B02221A70264B01221A702648A7
:1013100006F09EFB254806F09BFB00F024BE00BFB4
:10132000D0080020040800207C0100200C080020C8
:101330001801002078080020E00800207405002033
:10134000000002405A0800206408002078000020B5
:10135000FE080020D808002008000020C80800204F
:10136000CA08002018000020C4080020CC08002073
:101370007A0800207C0800207B0800207D080020DF
:101380007E0800207F080020B7600BB69C08002074
:101390008C0800200C09002094080020FC08002084
:1013A000FB080020FD0800209004002060030020BE
:1013B0000121022001F0BCF8794B00221A80794B00
:1013C00000221A80784B00221A80784B00221A8063
:1013D000774B00221A80774B00221A70764B1B78CD
:1013E000002B14BF01230023DAB2744B1A70744B24
:1013F00000221A70734B744A92E803001860043399
:101400001980704B5B78013B704A13441B7AB43BE4
:10141000002BB8BF5B421AB2614B1A80694B9B78B4
:10142000013B6A4A13441B7A9BB2B4339BB21AB293
:101430005C4B1A805A4BB3F90030042B11DC584B2B
:10144000B3F90030053B002BB8BF5B429AB2564B54
:101450001A80554B1B88C3F5B4739AB2524B1A804D
:1014600007E04F4BB3F900309BB2053B9AB24E4BAD
:101470001A80574B00221A70564B00221A70564B96
:1014800000221A704D4B1B7883F00103DBB2002B56
:1014900000F0BA804B4BDB78013B504A083332F8FE
:1014A00013204F4B1A80404B1B885B044D4A82FB34
:1014B00003121A441212DB17D31A1A464A4B1A6047
:1014C000494B1B683D4A12781146184601F036F91F
:1014D0000346454A1360394B1B78434A126811464C
:1014E000184600F0C3FD2E4BB3F900305B043D4AB3
:1014F00082FB03121A441212DB17D31A1A463B4B13
:101500001A603A4B1B682D4A12781146184601F0B2
:1015100015F90346354A1360314B1B881A46334B85
:101520001B681344B3F5003F0AD92D4B1B881A469C
:101530002E4B1B681344A3F500332D4A136007E0BC
:10154000274B1B881A46294B1B681344284A1360F3
:10155000144BB3F900305B04224A82FB03121A4495
:101560001212DB17D31A1A46224B1A60214B1B6842
:10157000124A12781146184601F0E0F803461D4A57
:1015800013601D4B01221A701C4B02221A701C485A
:1015900006F05EFA1B4806F05BFA00F0E1BC00BF03
:1015A000C8080020CA080020CC0800205A080020E3
:1015B0006408002078080020FF0800207800002040
:1015C000FE080020D8080020D008002008000020D5
:1015D0007A0800207C0800207B08002018000020EA
:1015E000C4080020B7600BB69C0800208C080020BF
:1015F0000C09002094080020FC080020FB080020B3
:101600009004002060030020A54B1B78002B00F005
:10161000A784A44BDB78013BA34A083332F813209C
:10162000A24B1A80A24B1B885B04A24A82FB0312C6
:101630001A441212DB17D31A1A469F4B1A609E4B9C
:101640001B68974A12781146184601F077F803464E
:10165000994A1360924B1B78974A126811461846B4
:1016600000F004FD954BB3F900305B04914A82FB16
:1016700003121A441212DB17D31A1A46904B1A603F
:101680008F4B1B68864A12781146184601F056F8AF
:1016900003468B4A1360854B1B881A46884B1B6890
:1016A0001344B3F5003F0AD9804B1B881A46844B7C
:1016B0001B681344A3F50033824A136007E07B4B99
:1016C0001B881A467E4B1B6813447E4A13607E4B70
:1016D000B3F900305B04774A82FB03121A441212FA
:1016E000DB17D31A1A46794B1A60784B1B686C4A81
:1016F00012781146184601F021F80346734A136028
:10170000724B1A686E4B1B689A4202D2704B0122D0
:101710001A70704B01221A706F4B02221A706F48B8
:1017200006F096F96E4806F093F900F019BC5D4B8F
:101730006C4A92E803001860043319806A4B1B78E6
:10174000002B03D0694B05221A7002E0674B002280
:101750001A70674B00221A70664806F051F9514B17
:101760005B785A1E634B1B68634951F82220DA628A
:10177000604B1B6800225A62604806F041F9494BF1
:101780009B78013B5E4A32F813205C4B1B68DA629F
:101790005A4B1B6800225A620121052000F0C8FE46
:1017A000E1E30121062000F0C3FE4A4B06221A7035
:1017B000494B01221A70534B1B881A46384B1B7831
:1017C0001946104600F0BAFF03464F4A13604E4BCD
:1017D0001B684E4A13604D4B1B6803F59673B3F5B7
:1017E000003F06D9494B1A68494B1344474A1360D6
:1017F00005E0464B1B6803F59673444A1360454B5E
:1018000000221A7000221021434804F041F93F4B96
:101810001B681946002000F029FC304806F018F932
:101820003E4806F015F99EE30121072000F080FEF6
:10183000284B1B78022B02DC002B03DCA7E0042BD7
:101840007AD0A4E0354806F07BF9254806F078F90F
:10185000224806F075F9324B1B78002B13D0314B20
:101860001B78002B0FD12E4B1B781A4652001344C5
:10187000DBB20133DBB21A4621212B4801F05CF8C0
:10188000284B01221A70264B00221A70274B012286
:101890001A70274B00221A70264B00221A7076E02D
:1018A00078000020D808002018000020C60800207A
:1018B000CC080020B7600BB6A0080020C8080020A4
:1018C0009008002010090020CA0800209808002075
:1018D00084080020FC080020FB0800209004002061
:1018E000AC030020D0080020870800207A000020E8
:1018F00080080020F8030020380000202805002080
:101900005C00002082080020AC080020BC080020F9
:101910002C01FEFF8508002000000240600300202B
:1019200059080020FE08002038080020050000208B
:101930007808002081080020914806F061F891485D
:1019400006F05EF8904B1B78002B13D08F4B1B7862
:10195000002B0FD18C4B1B781A4652001344DBB27C
:101960000133DBB21A462121894800F0E5FF874B9D
:1019700001221A70844B00221A70864B01221A70C1
:10198000854B00221A70854B00221A7000BF844BD1
:1019900000221A70834B01221A70E4E20121082010
:1019A00000F0C6FD0023FB807F4BDB78002B30D09E
:1019B0007E4B00221A607E4B01221A707A4B9B7874
:1019C0009BB21B02FB80784B5B789AB2FB88134377
:1019D000FB80FB885B04774A82FB03121A441212D5
:1019E000DB17D31A1A46714B1A60704B1B68704A8A
:1019F00012781146184600F0A1FE03466B4A1360A8
:101A00006B4B1B78694A12681146184600F02EFB92
:101A1000A9E2694B00221A60654B00221A70624BE2
:101A20009B789BB21B02FB805F4B5B789AB2FB8872
:101A30001343FB80FB885B045E4A82FB03121A445B
:101A40001212DB17D31A1A465B4B1A605A4B1B68EB
:101A5000574A12781146184600F070FE0346564A5F
:101A60001360534B1B78544A12681146184600F015
:101A7000FDFA78E24C4B5B78002B14BF0123002366
:101A8000DAB24B4B1A700121092000F051FD454B91
:101A900001221A70424B09221A70484B01221A7017
:101AA000414B5B78002B06D1454805F0D1FF4548F6
:101AB00005F0CEFF57E2424805F0CAFF424805F064
:101AC000C7FF50E2414B384A92E8030018600433E4
:101AD000198001210A2000F02BFD3C4B5B78002B84
:101AE00003D03B4B01221A703DE2394B00221A70A1
:101AF00039E200F0D7FD254B00221A70354B1B88C8
:101B000001339AB2334B1A802DE201F013F8254BC2
:101B100001221A70304B00221A7024E2224B9B786B
:101B2000002B0DD02D4B00221A70012210212C48C1
:101B300003F0AEFF012220212A4803F0A9FF0CE0A8
:101B4000264B01221A7000221021254803F0A0FF25
:101B500000222021234803F09BFF134B5B7818469B
:101B600000F018FAFFE1124B1B78002B40F0FA81CD
:101B7000134805F06DFF134805F06AFFF2E100BF5E
:101B800028050020F803002059080020FE08002046
:101B90003808002005000020780800208108002077
:101BA000FC080020FB080020D0080020B808002016
:101BB00078000020B7600BB6B4080020FD080020B4
:101BC0009004002060030020AC030020D80800200F
:101BD000FF0800206208002079080020F908002092
:101BE00000000240000802400121102000F0A0FC8B
:101BF000A74B08221A70A74B00221A60A64B9B78AD
:101C00001B021A46A34B1A60A34B5B781A46A14BE2
:101C10001B6813439F4A1360A04B1B78002B29D0ED
:101C20009F4B00221A609C4BDB78002B13D1994B01
:101C30001B685B04DB089B4AA2FB03239B08BB6079
:101C4000974B1B68954A12781146184600F076FDAE
:101C50000346934A1360914B1B78914A12681146D0
:101C6000184600F003FA904805F0F2FE8F4805F0A0
:101C7000EFFE78E18E4B00221A60874BDB78002B59
:101C800011D1844B1B685B04DB08864AA2FB03234B
:101C90009B08BB60814B1B781946B86800F04EFD6D
:101CA0000346834A13607D4B1B78814A12681146B4
:101CB000184600F0DBF97C4805F0CAFE7D4805F0C7
:101CC000C7FE50E10121112000F032FC734B1B785C
:101CD000002B06D0754805F033FF734805F030FF40
:101CE00041E1744805F02CFF6F4805F029FF3AE107
:101CF0000121122000F01CFC674B5B78002B03D005
:101D0000664B01221A702EE1644B00221A702AE100
:101D10000121132000F00CFC674B1B68674A13601D
:101D2000674B1B68674A1360644B1B68664A136005
:101D3000644B1B68644A5360644B1A680223022197
:101D4000614800F05DFD0EE10121142000F0F0FB80
:101D50005F4B01221A705F4B01221A704E4B5B7869
:101D6000184600F007FE03461A465B4B1A704A4BB2
:101D70009B78012B06D1584B1B7863F07703DAB2BE
:101D8000554B1A70544B1A78534B5A70534806F0FF
:101D900045FC642301225049504806F072FB05229D
:101DA0004F494E4806F0F6FBDDE005224D494B4811
:101DB00006F0F0FB01224FF400614B4803F068FE8F
:101DC000012002F04BFB00224FF40061464803F073
:101DD0005FFEC8E03D4B1A68022302213A4800F03A
:101DE00059FD3E4806F010FBFEF7DCFFBBE02B4B35
:101DF0001B7883F00103DBB2002B24D001221021D9
:101E0000394803F045FE394B00221A700122202187
:101E1000354803F03DFE642002F020FB0022202123
:101E2000314803F035FE05223149324804F074FF91
:101E30000021012000F07CFB2C4B1B780133DAB22F
:101E40002A4B1A70E2E7012220212B4803F020FEE2
:101E5000264B00221A7001220121284803F018FEA7
:101E6000642002F0FBFA00220121244803F010FE56
:101E700005222349234804F04FFF0021012000F0F0
:101E800057FB1A4B1B780133DAB2184B1A70E2E792
:101E9000FC080020C0080020D008002078000020A6
:101EA000B0080020176CC11690040020AC0300207D
:101EB000AC0800206003002004090020A4080020D2
:101EC00008090020A80800207008002074000020E5
:101ED000780800208708002068080020740500208A
:101EE00000000020E0080020000002406D080020F3
:101EF000040800207C010020000802400004024089
:101F00000C080020180100201A4B1B7883F00103F5
:101F1000DBB2002B0BD005221749184804F0FCFE59
:101F2000642305221449164806F0ABFA1BE005228B
:101F30001449154804F0F0FE6423052211491048A5
:101F400006F09FFA0FE00023FB6002E0FB6801331C
:101F5000FB60FB68812BF9DD0C4807F05DFE02E0B9
:101F600000BF00E000BF0A4B00221A7000BF10370C
:101F7000BD4680BD78000020040800207C010020C0
:101F8000FC0500200C0800201801002050A50008C6
:101F9000F608002080B584B000AF0346FB712A4BE1
:101FA0001B7883F00103DBB2002B29D00023FB60F8
:101FB00021E001222021254803F06AFD022002F0E1
:101FC0004DFA00222021214803F062FD022002F098
:101FD00045FA20211D4803F074FD05221C491D48C7
:101FE00004F09AFE6423052219491B4806F049FAB9
:101FF000FB680133FB60FB79FA689A42D9DB1BE08E
:102000000023BB6014E00121144803F05AFD0420B2
:1020100002F024FA05221249124804F07DFE6423DE
:1020200005220F490C4806F02CFABB680133BB604F
:10203000FB79BA689A42E6DB0B4B00221A7000BFAC
:102040001037BD4680BD00BF780000200000024070
:10205000040800207C010020FC0500200004024050
:102060000C080020180100206C08002080B582B008
:1020700000AF03463960FB71FB7983F00103DBB2EB
:10208000002B40D0424B1B683A689A421DD2404B0D
:102090001A683B68D21A3E4B1B683968CB1A03F5A5
:1020A00000339A4208D9012210213A4803F0F0FC8B
:1020B000394B00221A7066E000221021354803F0E7
:1020C000E7FC354B01221A705DE0314B1A683B6822
:1020D000D31A03F500322E4B1B683968CB1A9A428B
:1020E00008D2002210212B4803F0D2FC2A4B0122F7
:1020F0001A7048E001221021264803F0C9FC264B43
:1021000000221A703FE0254B1B683A689A421DD2A4
:10211000224B1A683B68D21A204B1B683968CB1ACD
:1021200003F500339A4208D9012220211C4803F00C
:10213000AFFC1C4B00221A7025E000222021184819
:1021400003F0A6FC174B01221A701CE0134B1A680F
:102150003B68D31A03F50032104B1B683968CB1A61
:102160009A4208D2002220210D4803F091FC0D4B29
:1021700001221A7007E001222021094803F088FC9F
:10218000084B00221A7000BF0837BD4680BD00BF53
:102190000409002000000240F9080020080900207E
:1021A00000080240FA08002080B582B000AF7860D5
:1021B000391D4FF6FF730122034806F062F97B6870
:1021C00018460837BD4680BDFC05002080B485B0A8
:1021D00000AF78607B681B682B4A934202D12B4B7F
:1021E00001221A707B681B68294A934245D1294B0A
:1021F0001B78002B3ED00023FB60274B1B781A4630
:10220000254B5B781344244A92781344FB60FB68A7
:10221000DBB2FB60204BDB781A46FB68934203D1AC
:102220001D4B1B79A52B03D01C4B00221A700DE00F
:10223000194B1A781A4B1B781B09DBB29A4205D04E
:10224000164B00221A70174B01221A70164B1B787E
:10225000002B09D0144B00221A70144B00221A7064
:10226000134B00221A7002E0104B01221A70094B26
:1022700000221A700F4B01221A7000BF1437BD469E
:102280005DF8047B704700BF00480040F60800205E
:10229000001001407808002000000020FB0800200A
:1022A00068080020790800207900002088080020B4
:1022B00087080020F508002080B483B000AF786064
:1022C0007B681B68234A93421CD1234B9B785B0994
:1022D000DBB203F00703214A13601F4B5B78DA007F
:1022E0001E4B1B6813431D4A13601B4B1B78DB02FC
:1022F00003F4FC32194B1B681343184A1360184B44
:1023000001221A707B681B68164A93421CD1164B37
:102310009B785B09DBB203F00703144A1360124B8E
:102320005B78DA00114B1B681343104A13600E4BA5
:102330001B78DB0203F4FC320C4B1B6813430B4A83
:1023400013600B4B01221A7000BF0C37BD465DF8BD
:10235000047B704700340140040800200409002079
:10236000F7080020003C00400C080020080900206D
:10237000F808002080B582B000AF78607B681B68E9
:10238000B3F1804F07D120214F4803F09AFB4F4B08
:102390001B6800225A627B681B684D4A934207D132
:1023A00001214C4803F08DFB4B4B1B6800225A6205
:1023B0007B681B68494A934215D1494B1B7883F0CF
:1023C0000103DBB2002B05D005224649464804F044
:1023D000A3FC04E005224549454804F09DFC454B1B
:1023E0001B6800225A627B681B68434A934206D1ED
:1023F000424805F005FB414B1B6800225A627B688E
:102400001B683F4A934208D13E4805F0F9FA3E481E
:1024100005F0F6FA3D4B01221A707B681B683C4AB6
:1024200093424CD13B4B1B78002B27D03A4B0022D8
:102430001A803A4B00221A8005223949394806F0A1
:10244000A9F801224FF400611F4803F021FB364B2D
:1024500001221A70022000F0FBFA00224FF4006102
:10246000194803F015FB274B1B6800225A622648C7
:1024700005F0EEFA274B00221A701AE005222849CF
:10248000284806F087F801224FF400610E4803F057
:10249000FFFA254B01221A70022000F0D9FA00221F
:1024A0004FF40061084803F0F3FA164B1B68002252
:1024B0005A621E4B1B8801339AB21C4B1A8000BF14
:1024C0000837BD4680BD00BF000002406003002009
:1024D0000004004000040240AC030020001400404F
:1024E00078000020040800207C0100200C08002057
:1024F000180100209004002000440140DC0400206A
:10250000000C004028050020F8030020800800206F
:1025100000200040860800205E080020600800209F
:10252000E0080020740500208108002064080020D5
:1025300080B584B000AF03460A46FB711346BB71F9
:102540004C4B00221A80FB79012B77D14A4B012298
:102550001A704A4B1A78484B5A70494B1A78464BB6
:102560009A70484B1B781A46434BDA70464B1A78E0
:10257000414B1A71454B1A783F4B5A71444B1A78AC
:102580003D4B9A71424B5A783B4BDA71404B9A78EB
:10259000394B1A723F4B1B68DAB2374B5A723D4BBC
:1025A0001B681B0ADAB2344B9A723A4B1B681B0C3D
:1025B000DAB2314BDA72384B1B68DAB22E4BDA736F
:1025C000354B1B681B0ADAB22B4B1A74324B1B6853
:1025D0001B0CDAB2284B5A74274B0022DA77264BB1
:1025E000002283F820200023FB6016E0224AFB68CB
:1025F00013441B789AB2FB6801331F49CB5C9BB232
:102600001B029BB213449AB21A4B1B8813449AB212
:10261000184B1A80FB680233FB60FB681D2BE5DD5D
:10262000154B9B7F9AB2134B1B8813449AB2114BE4
:102630001A801A4B0F4A12881A8010E021210E4886
:1026400000F05EF90C4AFB7913700B4ABB795370AA
:10265000094AFB79D377084ABB7982F82030642392
:10266000212205490E4805F00CFF00BF1037BD467A
:1026700080BD00BF6A08002014080020FB0800206D
:10268000FC080020FD080020FE08002000090020B2
:10269000E808002004090020080900203308002071
:1026A000FC05002080B582B000AF0023FB801F4BEB
:1026B0000B221A701D4B0022DA771C4B002283F884
:1026C000202000233B6013E0184A3B6813441B782A
:1026D0009AB23B6801331549CB5C9BB21B029BB29B
:1026E00013449AB2FB881344FB803B6802333B607F
:1026F0003B681D2BE8DD0D4B9B7F9AB2FB88134492
:10270000FB800B4AFB8813800A4805F087FF64238F
:1027100021220649074805F0B4FE0622064905486D
:1027200005F038FF00BF0837BD4680BD38080020DF
:1027300057080020FC050020D008002080B485B098
:1027400000AF78600B46FB700023FB60FB78002B2A
:1027500014D01E4B1A687B681344B3F5003F07D9A9
:102760001A4B1A687B681344A3F50033FB6019E029
:10277000164B1B687A681344FB6013E0144B1A680D
:102780007B681344B3F5003F07D9114B1A687B6887
:102790001344A3F50033FB6004E00D4B1B687A681B
:1027A0001344FB60FB68002B01D15C23FB60FB68DA
:1027B000B3F5003F02D1FB685C3BFB60FB68184649
:1027C0001437BD465DF8047B704700BFA8080020A1
:1027D000A408002080B400AF084B00221A60074B09
:1027E0000222DA60054B03225A60044B01229A60F0
:1027F00000BFBD465DF8047B704700BF08010020A4
:10280000B0B586B000AFF8607A603B600B46FB72F3
:1028100002F05AFC1D491E4802F0C6FD0346002B7B
:102820002ED10023FB753B68022B02D10423FB75DC
:1028300004E03B68012B01D10223FB750023BB752B
:1028400017E0BB7D9B00FA6813441B6800221C46FE
:10285000154622462B467968386802F0DBFB0346B2
:10286000002B0FD1FB7D7A6813447B60BB7D013365
:10287000BB75BA7DFB7A9A42E3D302F047FC02E0D3
:1028800000BF00E000BF1837BD46B0BD14090020EE
:102890000801002080B487B000AFF8607A603B6028
:1028A0000B46FB720023FB7500233B613B68022B48
:1028B00002D10423FB7504E03B68012B01D1022304
:1028C000FB750023BB820FE07B681B683B61BB8A02
:1028D0009B00FA6813443A691A60FB7D7A681344D6
:1028E0007B60BB8A0133BB82FB7A9BB2BA8A9A4275
:1028F000EAD300BF00BF1C37BD465DF8047B7047BC
:1029000080B485B000AF78600B46FB700023FB738A
:1029100007E0FB7B7A68134400221A70FB7B0133CB
:10292000FB73FA7BFB789A42F3D300BF00BF1437E6
:10293000BD465DF8047B704780B485B000AF786019
:102940000B46FB701346BB70BB78FB7307E0FB7B49
:102950007A68134400221A70FB7B0133FB73FA7B05
:10296000FB789A42F3D300BF00BF1437BD465DF831
:10297000047B704780B483B000AF0346FB71FB79E2
:10298000802B5CD0802B5CDC202B47DC002B58DDBF
:10299000013B1F2B55D801A252F823F0232A00082F
:1029A000272A0008432A00082B2A0008432A000887
:1029B000432A0008432A00082F2A0008432A000857
:1029C000432A0008432A0008432A0008432A000833
:1029D000432A0008432A0008332A0008432A000833
:1029E000432A0008432A0008432A0008432A000813
:1029F000432A0008432A0008432A0008432A000803
:102A0000432A0008432A0008432A0008432A0008F2
:102A1000432A0008432A0008372A0008402B0CD01C
:102A20000FE000230EE011230CE022230AE0332301
:102A300008E0442306E0552304E0662302E0772300
:102A400000E0012318460C37BD465DF8047B704753
:102A500080B483B000AF0346FB80094B1B680022A3
:102A60005A6200BF064B1B685A6AFB889A42F9D328
:102A700000BF00BF0C37BD465DF8047B704700BF48
:102A80004404002080B483B000AF00237B60234B5C
:102A90001B781A46214B5B781344204A92781344E2
:102AA0007B607B68DBB27B601C4BDB781A467B6803
:102AB00093422CD1194B1B79A52B28D1184B1B788D
:102AC000002B12D0154B1A78164B1A70134B5A78EC
:102AD000144B5A70114B9A78124B9A70124B1B88F8
:102AE00001339AB2104B1A800BE00C4B1A780F4B43
:102AF0001A700A4B5A780D4B5A70084B9A780B4B48
:102B00009A700B4B1B8801339AB2094B1A8000BF95
:102B10000C37BD465DF8047B704700BFE00800201D
:102B200081080020F00800205C080020E808002050
:102B30005E08002080B500AF21210D48FFF7E0FEC0
:102B40000B4B0C221A700B4B1A78094B5A70084B1E
:102B50000C22DA77074B1A78054B83F82020642380
:102B600021220349044805F08CFC00BF80BD00BF52
:102B70001408002079080020FC05002080B500AF73
:102B80001A4B1B78002B17D0194B1B681A1F194BB7
:102B90001B689A4227D8164B1B681A1D164B1B68D8
:102BA0009A4220D3154804F0CBFF154804F0C8FF23
:102BB000144B00221A7016E0134B1B681A1F0E4BA1
:102BC0001B689A420FD8104B1B681A1D0A4B1B68D2
:102BD0009A4208D30D4804F0B3FF094804F0B0FF4F
:102BE000084B00221A7000BF80BD00BF7800002093
:102BF000B00800200809002004090020AC030020D0
:102C000090040020FC080020AC0800206003002095
:102C100080B500AF1F4B1B78002B1CD01E4B1B68D0
:102C2000A3F12E021D4B1B689A4230D81A4B1B6829
:102C300003F12E02194B1B689A4228D3184804F05E
:102C40007FFF184804F07CFF174B00221A70174BC7
:102C500000221A701BE0164B1B68A3F12E02154BC5
:102C60001B689A4213D8124B1B6803F12E02114BBA
:102C70001B689A420BD3104804F062FF094804F025
:102C80005FFF094B00221A70084B00221A7000BF28
:102C900080BD00BF78000020B8080020080900208F
:102CA000AC03002090040020FC080020FD08002058
:102CB000B4080020040900206003002080B500AFA4
:102CC0001A4B1B7883F00103DBB2002B13D0184B97
:102CD0001B68A3F12E02174B1B689A4224D8144B91
:102CE0001B6803F12E02134B1B689A421CD30F4B37
:102CF00001221A7018E0104B1B68A3F12E020D4B35
:102D00001B689A4210D80C4B1B6803F12E02094B2A
:102D10001B689A4208D3094804F012FF084804F0DF
:102D20000FFF084B00221A7000BF80BD85080020ED
:102D3000BC08002004090020AC080020600300202B
:102D400090040020FC08002080B500AF864B1B7863
:102D500083F00103DBB2002B21D0844B01221A70D7
:102D6000834B1B685A1F834B1B689A4217D8804BB2
:102D70001B685A1D7F4B1B689A4210D37E4804F093
:102D8000DFFE7E4B1B787E4A126811461846FFF71D
:102D90006DF9754B01221A70774804F059FE724B99
:102DA0001B78002B00F0A180764B1B7883F0010389
:102DB000DBB2002B2AD06D4B00221A70704B1B68BF
:102DC0005A1F6C4B1B689A4220D86D4B1B685A1DCA
:102DD000684B1B689A4219D36A4B01221A7005226C
:102DE00069496A4805F0D6FB01224FF40061684842
:102DF00002F04EFE674B01221A700220FFF728FEF8
:102E000000224FF40061624802F042FE5D4B1B78E5
:102E1000002B6AD0604B1B7883F00103DBB2002BE0
:102E200063D05E4B1B68A3F10802524B1B689A42A9
:102E300028D85A4B1B6803F108024E4B1B689A4274
:102E400020D305225049514805F0A4FB01224FF43C
:102E500000614F4802F01CFE4E4B01221A70022006
:102E6000FFF7F6FD00224FF40061494802F010FE22
:102E70004B4B1B8801339AB2494B1A80464B0122B7
:102E80001A7070E0474B1B681A1F3A4B1B689A4236
:102E90002BD8444B1B681A1D364B1B689A4224D30F
:102EA000414B1B881A463F4B1B6813443D4A136035
:102EB00005223549354805F06DFB01224FF40061CC
:102EC000334802F0E5FD334B01221A700220FFF770
:102ED000BFFD00224FF400612D4802F0D9FD304BB8
:102EE0001B8801339AB22E4B1A802B4B1B78002B78
:102EF00039D0284B1B7883F00103DBB2002B32D092
:102F00002A4B1B78002B2ED1294B1B78002B0FD07E
:102F1000274B1B781A4652001344DBB20133DBB255
:102F20001A4621212348FFF707FD204B01221A7082
:102F30001F4B00221A70204B01221A701F4B0022D7
:102F40001A701F4B00221A701E4B01221A70124B6E
:102F500001221A700F4B00221A70074804F0F0FD8E
:102F6000194804F0EDFD80BD7C080020FD0800201C
:102F70009C08002004090020600300207800002045
:102F80008C0800207A080020E0080020740500204A
:102F900000000240810800207B08002094080020E7
:102FA000640800200C090020C4080020FE0800204E
:102FB000590800203808002005000020FC080020E7
:102FC00078080020FB0800209004002080B500AFA6
:102FD000864B1B7883F00103DBB2002B21D0844B9E
:102FE00001221A70834B1B685A1F834B1B689A423D
:102FF00017D8804B1B685A1D7F4B1B689A4210D311
:103000007E4804F09DFD7E4B1B787E4A1268114677
:103010001846FFF72BF8754B01221A70774804F019
:1030200017FD724B1B78002B00F0A180764B1B78AC
:1030300083F00103DBB2002B2AD06D4B00221A7003
:10304000704B1B685A1F6C4B1B689A4220D86D4B03
:103050001B685A1D684B1B689A4219D36A4B0122A0
:103060001A70052269496A4805F094FA01224FF462
:103070000061684802F00CFD674B01221A700220C3
:10308000FFF7E6FC00224FF40061624802F000FD09
:103090005D4B1B78002B6AD0604B1B7883F00103DB
:1030A000DBB2002B63D05E4B1B68A3F10802524BCE
:1030B0001B689A4228D85A4B1B6803F108024E4BF2
:1030C0001B689A4220D305225049514805F062FA04
:1030D00001224FF400614F4802F0DAFC4E4B01220E
:1030E0001A700220FFF7B4FC00224FF40061494837
:1030F00002F0CEFC4B4B1B8801339AB2494B1A802D
:10310000464B01221A7070E0474B1B681A1F3A4B5E
:103110001B689A422BD8444B1B681A1D364B1B6800
:103120009A4224D3414B1B881A463F4B1B681344D9
:103130003D4A136005223549354805F02BFA012236
:103140004FF40061334802F0A3FC334B01221A70A4
:103150000220FFF77DFC00224FF400612D4802F0B1
:1031600097FC304B1B8801339AB22E4B1A802B4BA5
:103170001B78002B39D0284B1B7883F00103DBB27E
:10318000002B32D02A4B1B78002B2ED1294B1B78D9
:10319000002B0FD0274B1B781A4652001344DBB28A
:1031A0000133DBB21A4621212348FFF7C5FB204B30
:1031B00001221A70214804F0C3FC104804F0C0FC3E
:1031C0001C4B00221A701E4B01221A701D4B00224C
:1031D0001A701D4B00221A701C4B01221A700F4BE3
:1031E00001221A700C4B00221A7080BD7C0800204E
:1031F000FD080020A008002008090020AC030020E2
:1032000078000020900800207A080020E0080020C4
:103210007405002000000240810800207B08002087
:10322000980800206408002010090020C60800202B
:10323000FE080020590800203808002090040020D3
:1032400005000020FC08002078080020FB08002072
:1032500080B582B000AF984B1B7883F00103DBB2DE
:10326000002B02D0944B01221A70934B1B78002B39
:1032700000F0E380914B1B7883F00103DBB2002B5D
:1032800000F0DB808E4B1B7883F00103DBB2002B58
:1032900021D08C4B01221A708B4B1B685A1F8B4B11
:1032A0001B689A4217D8884B1B685A1D874B1B68AE
:1032B0009A4210D3864804F043FC864B1B78864A1A
:1032C000126811461846FEF7D1FE7D4B01221A7096
:1032D0007F4804F0BDFB7A4B1B78002B00F0AD80DB
:1032E0007E4B1B7883F00103DBB2002B2AD0754B99
:1032F00000221A70784B1B685A1F744B1B689A4245
:1033000020D8754B1B685A1D704B1B689A4219D305
:10331000724B01221A7005227149724805F03AF980
:1033200001224FF40061704802F0B2FB6F4B0122A2
:103330001A700220FFF78CFB00224FF400616A48EC
:1033400002F0A6FB654B1B78002B76D0684B1B78F0
:1033500083F00103DBB2002B6FD0664B1B68A3F137
:1033600008025A4B1B689A4234D8624B1B6803F11F
:103370000802564B1B689A422CD35F4B1B78002BDC
:103380000FD05D4B1B781A4652001344DBB2013359
:10339000DBB21A4621215948FFF7CEFA584B0122D9
:1033A0001A70554B00221A70564B01221A70564B58
:1033B00000221A704D4B00221A70454804F0C0FBE1
:1033C000524804F0BDFB3D4B01221A703D4B0122D7
:1033D0001A7032E04E4B1B681A1F3C4B1B689A4216
:1033E0002BD84B4B1B681A1D384B1B689A4224D3B1
:1033F000484B1B881A46464B1B681344444A1360CB
:1034000005223749374805F0C5F801224FF400611D
:10341000354802F03DFB354B01221A700220FFF7C0
:1034200017FB00224FF400612F4802F031FB3A4BAA
:103430001B8801339AB2384B1A80204B1B78002B23
:1034400000F0A580354B1B78002B02D000F0B4F8BB
:103450009DE01A4B1B78002B00F099802B4804F05C
:103460006FFB2F4804F06CFB1C4B00221A70144BAE
:1034700000221A701E4B00221A70174B1B687B60CB
:103480001C4A7B6813601B4B1B68134A1360254B57
:10349000B3F90030B3F5B27F48DB224BB3F900300B
:1034A0000533002BB8BF5B429AB21F4B1A801E4BEC
:1034B0004FF698621A8041E07F0800207D080020C6
:1034C0007C080020FD0800209C0800200409002042
:1034D00060030020780000208C0800207A0800207B
:1034E000E008002074050020000002408108002050
:1034F0007B0800209408002059080020380800208C
:10350000FE0800200500002078080020900400201C
:103510000C090020C4080020640800207E08002058
:10352000AC030020CA080020CC0800201A4BB3F9D5
:1035300000309BB205339AB2184B1A80174B1B8888
:103540005B04174A82FB03121A441212DB17D31AC8
:103550001A46144B1A60134B1B68134A1278114613
:103560001846FFF7EBF803460E4A13600E4B1B7824
:103570000C4A126811461846FEF778FD0B4B0122E3
:103580001A700B4804F064FA0A4804F061FA00BFAC
:103590000837BD4680BD00BFCA080020CC08002007
:1035A000B7600BB69C080020780000207E08002041
:1035B000900400206003002080B500AF6E4B1B78A4
:1035C00083F00103DBB2002B21D06C4B01221A7077
:1035D0006B4B1B685A1F6B4B1B689A4217D8684B82
:1035E0001B685A1D674B1B689A4210D3664804F04B
:1035F000A7FA664B1B78664A126811461846FEF712
:1036000035FD5D4B01221A705F4804F021FA5A4BD8
:103610001B78002B00F0AE805E4B1B7883F001031B
:10362000DBB2002B2AD0554B00221A70584B1B6876
:103630005A1F544B1B689A4220D8554B1B685A1D81
:10364000504B1B689A4219D3524B01221A70052223
:103650005149524804F09EFF01224FF40061504846
:1036600002F016FA4F4B01221A700220FFF7F0F910
:1036700000224FF400614A4802F00AFA454B1B78D9
:10368000002B77D0484B1B7883F00103DBB2002B73
:1036900070D0464B1B681A1F3A4B1B689A4236D8AB
:1036A000424B1B681A1D374B1B689A422FD3404B65
:1036B0001B78002B0FD03E4B1B781A465200134448
:1036C000DBB20133DBB21A4621213A48FFF734F965
:1036D000394B01221A70364B00221A70374B0122E7
:1036E0001A70374B00221A70364B00221A70364B74
:1036F00001221A702C4B01221A702A4B00221A70D8
:10370000214804F01DFA314804F01AFA32E0304B37
:103710001B681A1F1B4B1B689A422BD82C4B1B682B
:103720001A1D184B1B689A4224D32A4B1B881A4631
:10373000274B1B681344264A136005221649174875
:1037400004F028FF01224FF40061154802F0A0F9AF
:10375000144B01221A700220FFF77AF900224FF46D
:1037600000610F4802F094F91B4B1B8801339AB299
:10377000194B1A8000BF80BD7C080020FD08002086
:103780009C0800200409002060030020780000202D
:103790008C0800207A080020E00800207405002032
:1037A00000000240810800207B08002094080020CF
:1037B0005908002038080020FE08002005000020DD
:1037C000FC08002078080020FB080020900400205E
:1037D0000C090020C40800206408002080B485B0D3
:1037E00000AF78607B68D3F8843003F00803002BC7
:1037F00008D07B681B6808221A62054B1B685B6A4D
:10380000DBB2FB7300BF1437BD465DF8047B704725
:103810007405002080B400AF72B600BFFEE7000060
:1038200080B483B000AF0F4B1B6C0E4A43F0805343
:1038300013640C4B1B6C03F080537B607B68094B5B
:103840005B6C084A43F480435364064B5B6C03F49F
:1038500080433B603B6800BF0C37BD465DF8047B8E
:10386000704700BF0038024080B58CB000AF786070
:1038700007F11C0300221A605A609A60DA601A612C
:103880007B681B68984A934240F0A080974B1B6C62
:10389000964A43F400431364944B1B6C03F40043B7
:1038A000BB61BB69914B1B6B904A43F002031363EE
:1038B0008E4B1B6B03F002037B617B698B4B1B6B95
:1038C0008A4A43F004031363884B1B6B03F0040321
:1038D0003B613B690423FB6102233B6200237B6263
:1038E0000323BB620723FB6207F11C0319468048D0
:1038F00001F036FE4FF44063FB6102233B6200237C
:103900007B620323BB620623FB6207F11C0319469B
:10391000784801F025FE784B784A1A60764B0022F1
:103920005A60754B00229A60734B0022DA60724B2A
:103930004FF480621A61704B00225A616E4B002274
:103940009A616D4B0022DA616B4B00221A626A4B5E
:1039500000225A62684800F0E9FE0346002B01D0BD
:10396000FFF758FF7B68644A9A65634A7B689363F4
:10397000634B644A1A60624B00225A60604B4022DB
:103980009A605F4B0022DA605D4B4FF480621A61EF
:103990005B4B00225A615A4B00229A61584B00221D
:1039A000DA61574B00221A62554B00225A62544882
:1039B00000F0BCFE0346002B01D0FFF72BFF7B6815
:1039C0004F4A5A654E4A7B68936389E07B681B685F
:1039D0004D4A934240F08480444B5B6C434A43F42D
:1039E00000535364414B5B6C03F40053FB60FB6872
:1039F0003E4B1B6B3D4A43F0100313633B4B1B6B69
:103A000003F01003BB60BB686423FB6102233B62CD
:103A100000237B620323BB620523FB6207F11C03C7
:103A200019463A4801F09CFD394B3A4A1A60384B26
:103A30004FF000625A60364B00229A60344B0022ED
:103A4000DA60334B4FF480621A61314B00225A61C5
:103A50002F4B00229A612E4B0022DA612C4B002260
:103A60001A622B4B00225A62294800F05FFE03467F
:103A7000002B01D0FFF7CEFE7B68254A9A65244AC9
:103A80007B689363244B254A1A60234B4FF00062F6
:103A90005A60214B40229A601F4B0022DA601E4B75
:103AA0004FF480621A611C4B00225A611A4B0022AB
:103AB0009A61194B0022DA61174B00221A62164BE9
:103AC00000225A62144800F031FE0346002B01D058
:103AD000FFF7A0FE7B68104A5A650F4A7B68936324
:103AE00000BF3037BD4680BD003C0040003802407A
:103AF0000004024000080240E00100201060024083
:103B00004002002088600240003401400010024062
:103B1000A00200201064024000030020286402403C
:103B200080B58AB000AF78607B681B68B3F1804FC6
:103B300014D1564B1B6C554A43F001031364534B8D
:103B40001B6C03F001037B627B6A002200211C20B6
:103B500000F0A7FD1C2000F0C0FD92E07B681B6810
:103B60004B4A934214D1494B1B6C484A43F0020321
:103B70001364464B1B6C03F002033B623B6A00225A
:103B800000211D2000F08DFD1D2000F0A6FD78E035
:103B90007B681B683F4A934214D13C4B1B6C3B4AE9
:103BA00043F008031364394B1B6C03F00803FB61FB
:103BB000FB6900220021322000F073FD322000F06A
:103BC0008CFD5EE07B681B68334A93420CD12F4B1F
:103BD0001B6C2E4A43F0100313642C4B1B6C03F038
:103BE0001003BB61BB694CE07B681B682B4A9342A6
:103BF00014D1264B1B6C254A43F020031364234B3E
:103C00001B6C03F020037B617B69002200213720BD
:103C100000F047FD372000F060FD32E07B681B6854
:103C20001F4A934214D1194B5B6C184A43F400337A
:103C30005364164B5B6C03F400333B613B69002219
:103C40000021192000F02DFD192000F046FD18E09C
:103C50007B681B68134A934213D10C4B1B6C0B4AB5
:103C600043F480731364094B1B6C03F48073FB6093
:103C7000FB68002200212D2000F013FD2D2000F014
:103C80002CFD00BF2837BD4680BD00BF0038024074
:103C900000040040000C00400010004000140040F0
:103CA000004401400020004080B5ACB000AF786017
:103CB00007F19C0300221A605A609A60DA601A6168
:103CC00007F11C0380220021184605F02FFF7B68B6
:103CD0001B68534A934240F0B1804023FB610023AC
:103CE000BB6507F11C03184602F020FC0346002BBD
:103CF00001D0FFF78FFD4B4B5B6C4A4A43F010033A
:103D00005364484B5B6C03F01003BB61BB69454BCC
:103D10001B6B444A43F001031363424B1B6B03F0DC
:103D200001037B617B694FF4C063C7F89C300223B9
:103D3000C7F8A0300023C7F8A4300323C7F8A83081
:103D40000723C7F8AC3007F19C031946364801F049
:103D500007FC364B364A1A60344B4FF000625A600B
:103D6000324B00229A60314B0022DA602F4B4FF425
:103D700080621A612D4B00225A612C4B00229A61FD
:103D80002A4B0022DA61294B4FF400321A62274B8A
:103D900000225A62254800F0C9FC0346002B01D0DE
:103DA000FFF738FD7B68214A5A67204A7B68936396
:103DB000204B214A1A601F4B4FF000625A601D4B86
:103DC00040229A601B4B0022DA601A4B4FF480624B
:103DD0001A61184B00225A61164B00229A61154B4A
:103DE0000022DA61134B4FF480321A62114B002229
:103DF0005A62104800F09AFC0346002B01D0FFF7EE
:103E000009FD7B680B4A1A670A4A7B6893630022A4
:103E10000021252000F045FC252000F05EFCB6E0E6
:103E200000100140003802400000024084060020DB
:103E300040640240E4060020B86402407B681B68CE
:103E4000554A934240F0A3804FF48073FB610023F6
:103E50003B6607F11C03184602F068FB0346002B83
:103E600001D0FFF7D7FC4D4B1B6C4C4A43F4802329
:103E700013644A4B1B6C03F480233B613B69474B43
:103E80001B6B464A43F002031363444B1B6B03F066
:103E90000203FB60FB684FF49843C7F89C30022391
:103EA000C7F8A0300023C7F8A4300323C7F8A83010
:103EB0000723C7F8AC3007F19C031946384801F0D6
:103EC0004FFB384B384A1A60364B4FF000625A604D
:103ED000344B00229A60334B0022DA60314B4FF4AE
:103EE00080621A612F4B00225A612E4B00229A6188
:103EF0002C4B4FF48072DA612A4B00221A62294B54
:103F000000225A62274800F011FC0346002B01D022
:103F1000FFF780FC7B68234A5A67224A7B689363D9
:103F2000224B234A1A60214B4FF000625A601F4B0C
:103F300040229A601D4B0022DA601C4B4FF48062D5
:103F40001A611A4B00225A61184B00229A61174BD2
:103F50004FF48072DA61154B00221A62134B002273
:103F60005A62124800F0E2FB0346002B01D0FFF733
:103F700051FC7B680D4A1A670C4A7B6893630022E8
:103F80000021272000F08DFB272000F0A6FB00BFBA
:103F9000B037BD4680BD00BF004800400038024039
:103FA000000402404407002028600240A4070020CB
:103FB0005860024080B582B000AF78607B681B68B3
:103FC0001E4A934218D11E4B5B6C1D4A23F010030E
:103FD00053644FF4C0611B4801F05EFC7B685B6F6B
:103FE000184600F051FC7B681B6F184600F04CFC33
:103FF000252000F080FB1CE07B681B68124A93427E
:1040000017D10F4B1B6C0E4A23F4802313644FF41B
:1040100098410E4801F040FC7B685B6F184600F049
:1040200033FC7B681B6F184600F02EFC272000F045
:1040300062FB00BF0837BD4680BD00BF00100140D5
:1040400000380240000002400048004000040240E6
:1040500080B400AFFEE780B400AFFEE780B400AFED
:10406000FEE780B400AFFEE780B400AFFEE780B4A7
:1040700000AF00BFBD465DF8047B704780B400AF61
:1040800000BFBD465DF8047B704780B400AF00BF41
:10409000BD465DF8047B704780B500AF00F0BEF907
:1040A00000BF80BD80B500AF024800F03DFD00BFFD
:1040B00080BD00BFE001002080B500AF024800F0E5
:1040C00033FD00BF80BD00BF4407002080B500AFB6
:1040D000024800F029FD00BF80BD00BFA4070020FA
:1040E00080B500AF024800F01FFD00BF80BD00BFDB
:1040F0004002002080B500AF024803F051FD00BF30
:1041000080BD00BFDC04002080B500AF024803F092
:1041100047FD00BF80BD00BF6003002080B500AF39
:10412000024803F03DFD00BF80BD00BFAC0300208E
:1041300080B500AF024804F003FB00BF80BD00BFA4
:104140007405002080B500AF024804F0F9FA00BF02
:1041500080BD00BFFC05002080B500AF024803F021
:104160001FFD00BF80BD00BF2805002080B500AF47
:10417000024803F015FD00BF80BD00BFF80300201A
:1041800080B500AF024803F00BFD00BF80BD00BF4B
:104190009004002080B500AF024800F0C5FC00BFCD
:1041A00080BD00BFA002002080B500AF024800F033
:1041B000BBFC00BF80BD00BF0003002080B500AF86
:1041C000024800F0B1FC00BF80BD00BF84060020A3
:1041D00080B500AF024800F0A7FC00BF80BD00BF63
:1041E000E406002080B586B000AFF860B9607A6060
:1041F00000237B610AE0AFF300800146BB685A1CD4
:10420000BA60CAB21A707B6901337B617A697B68D4
:104210009A42F0DB7B6818461837BD4680BD80B5F2
:1042200086B000AFF860B9607A6000237B6109E076
:10423000BB685A1CBA601B781846FDF7B5FF7B694E
:1042400001337B617A697B689A42F1DB7B681846AF
:104250001837BD4680BD80B483B000AF78604FF0A2
:10426000FF3318460C37BD465DF8047B704780B4B9
:1042700083B000AF786039603B684FF400525A60F9
:10428000002318460C37BD465DF8047B704780B4A8
:1042900083B000AF7860012318460C37BD465DF847
:1042A000047B704780B485B000AFF860B9607A6075
:1042B000002318461437BD465DF8047B70470000A4
:1042C00080B586B000AF7860144A154BD31A7B6175
:1042D0007B693B61134B1B68002B02D1114B124AC7
:1042E0001A60104B1A687B6813443A699A4207D2E5
:1042F00005F0F2FB03460C221A604FF0FF3309E091
:10430000084B1B68FB60074B1A687B681344054A1F
:104310001360FB6818461837BD4680BD00000420B6
:1043200000040000180900205009002080B400AFEC
:10433000064BD3F88830054A43F47003C2F888303E
:1043400000BFBD465DF8047B704700BF00ED00E094
:10435000DFF834D0FFF7EAFF0C480D490D4A00237F
:1043600002E0D458C4500433C4188C42F9D30A4A2A
:104370000A4C002301E013600432A242FBD305F093
:10438000B1FBFCF7CFF870470000042000000020CC
:10439000EC000020E8A50008EC0000204C090020FB
:1043A000FEE780B500AF032000F070F9002000F0B8
:1043B00005F8FFF735FA0023184680BD80B582B0B6
:1043C00000AF7860124B1A68124B1B7819464FF4F5
:1043D0007A73B3FBF1F3B2FBF3F3184600F099F9EB
:1043E0000346002B01D001230EE07B680F2B0AD877
:1043F000002279684FF0FF3000F053F9064A7B68DD
:104400001360002300E0012318460837BD4680BD35
:104410007C000020840000208000002080B400AFD9
:10442000064B1B781A46064B1B681344044A13605C
:1044300000BFBD465DF8047B704700BF84000020CC
:104440001C09002080B400AF034B1B681846BD4612
:104450005DF8047B704700BF1C09002080B584B064
:1044600000AF7860FFF7EEFFB8607B68FB60FB6829
:10447000B3F1FF3F05D00A4B1B781A46FB68134483
:10448000FB6000BFFFF7DEFF0246BB68D31AFA6885
:104490009A42F7D800BF00BF1037BD4680BD00BFAD
:1044A0008400002080B485B000AF78607B6803F0A2
:1044B0000703FB600B4BDB68BB60BA684FF6FF037A
:1044C0001340BB60FB681A02BB681A43064B1343D8
:1044D000BB60044ABB68D36000BF1437BD465DF8BB
:1044E000047B704700ED00E00000FA0580B400AFE7
:1044F000044BDB681B0A03F007031846BD465DF852
:10450000047B704700ED00E080B483B000AF034649
:10451000FB7197F90730002B0BDBFB7903F01F02CF
:10452000074997F907305B09012000FA02F241F8C8
:10453000232000BF0C37BD465DF8047B704700BFE9
:1045400000E100E080B483B000AF0346FB7197F94F
:104550000730002B12DBFB7903F01F020A4997F9A1
:1045600007305B09012000FA02F2203341F82320D2
:10457000BFF34F8F00BFBFF36F8F00BF00BF0C377B
:10458000BD465DF8047B704700E100E080B483B075
:1045900000AF03463960FB7197F90730002B0ADB47
:1045A0003B68DAB20C4997F907301201D2B20B44DA
:1045B00083F800230AE03B68DAB20849FB7903F08C
:1045C0000F03043B1201D2B20B441A7600BF0C3722
:1045D000BD465DF8047B704700E100E000ED00E0BF
:1045E00080B489B000AFF860B9607A60FB6803F00E
:1045F0000703FB61FB69C3F10703042B28BF0423F6
:10460000BB61FB690433062B02D9FB69033B00E065
:1046100000237B614FF0FF32BB6902FA03F3DA43F8
:10462000BB681A407B699A404FF0FF317B6901FA01
:1046300003F3D9437B680B40134318462437BD4628
:104640005DF8047B7047000080B582B000AF7860F1
:104650007B68013BB3F1807F01D301230FE00A4A5D
:104660007B68013B53600F214FF0FF30FFF78EFF57
:10467000054B00229A60044B07221A60002318465B
:104680000837BD4680BD00BF10E000E080B582B0B5
:1046900000AF78607868FFF705FF00BF0837BD46B8
:1046A00080BD80B586B000AF0346B9607A60FB7309
:1046B00000237B61FFF71AFF78617A68B96878692F
:1046C000FFF78EFF024697F90F3011461846FFF7A5
:1046D0005DFF00BF1837BD4680BD80B582B000AF1A
:1046E0000346FB7197F907301846FFF70DFF00BF2F
:1046F0000837BD4680BD80B582B000AF0346FB7170
:1047000097F907301846FFF71DFF00BF0837BD4671
:1047100080BD80B582B000AF78607868FFF794FF05
:10472000034618460837BD4680BD000080B586B0F8
:1047300000AF786000237B61FFF784FE38617B68FF
:10474000002B01D1012399E07B68022283F83520F8
:104750007B68002283F834207B681B681A687B68BA
:104760001B6822F001021A600FE0FFF76BFE0246A1
:104770003B69D31A052B08D97B6820225A657B68D0
:10478000032283F83520032378E07B681B681B68CD
:1047900003F00103002BE8D17B681B681B687B6179
:1047A0007A69384B13407B617B685A687B689B68E9
:1047B0001A437B68DB681A437B681B691A437B6872
:1047C0005B691A437B689B691A437B68DB691A4300
:1047D0007B681B6A13437A6913437B617B685B6A5E
:1047E000042B07D17B68DA6A7B681B6B13437A69F9
:1047F00013437B617B681B687A691A607B681B685E
:104800005B697B617B6923F007037B617B685B6A83
:104810007A6913437B617B685B6A042B17D17B68E1
:104820009B6A7A6913437B617B68DB6A002B0ED03D
:10483000786800F073FB0346002B08D07B684022A9
:104840005A657B68002283F83520012316E07B68D7
:104850001B687A695A61786800F02AFB0346FB609E
:104860007B68DB6D3F229A40FB689A607B68002280
:104870005A657B68012283F83520002318461837D3
:10488000BD4680BD3F8010E080B584B000AF786049
:104890007B68002B01D1012350E07B6893F8353011
:1048A000DBB2022B01D1022348E07B681B681A6847
:1048B0007B681B6822F001021A607B681B6800227B
:1048C0001A607B681B6800225A607B681B680022A4
:1048D0009A607B681B680022DA607B681B68002294
:1048E0001A617B681B6821225A61786800F0E0FA3F
:1048F0000346FB607B68DB6D3F229A40FB689A6051
:104900007B680022DA637B6800221A647B680022DD
:104910005A647B6800229A647B680022DA647B68B0
:1049200000221A657B6800225A657B68002283F8A2
:1049300035207B68002283F8342000231846103786
:10494000BD4680BD80B586B000AFF860B9607A60C2
:104950003B600023FB75FB689B6D3B61FB6893F834
:104960003430012B01D1022348E0FB68012283F897
:104970003420FB6893F83530DBB2012B37D1FB686C
:10498000022283F83520FB6800225A653B687A686A
:10499000B968F86800F05EFAFB68DB6D3F229A4068
:1049A0003B699A60FB681B681A68FB681B6842F0E9
:1049B00016021A60FB681B685A69FB681B6842F0A4
:1049C00080025A61FB681B6C002B07D0FB681B68D8
:1049D0001A68FB681B6842F008021A60FB681B68D3
:1049E0001A68FB681B6842F001021A6005E0FB6868
:1049F000002283F834200223FB75FB7D184618370C
:104A0000BD4680BD80B584B000AF78607B689B6D8B
:104A1000FB60FFF717FDB8607B6893F83530DBB2B9
:104A2000022B08D07B6880225A657B68002283F8BD
:104A30003420012352E07B681B681A687B681B687E
:104A400022F016021A607B681B685A697B681B6833
:104A500022F080025A617B681B6C002B03D17B68BB
:104A60009B6C002B07D07B681B681A687B681B68EF
:104A700022F008021A607B681B681A687B681B6852
:104A800022F001021A6013E0FFF7DCFC0246BB686B
:104A9000D31A052B0CD97B6820225A657B68032228
:104AA00083F835207B68002283F83420032315E047
:104AB0007B681B681B6803F00103002BE4D17B6853
:104AC000DB6D3F229A40FB689A607B68012283F885
:104AD00035207B68002283F83420002318461037E5
:104AE000BD4680BD80B483B000AF78607B6893F82A
:104AF0003530DBB2022B04D07B6880225A6501235B
:104B00000CE07B68052283F835207B681B681A68F7
:104B10007B681B6822F001021A60002318460C37DC
:104B2000BD465DF8047B704780B586B000AF786005
:104B30000023BB608E4B1B688E4AA2FB03239B0A9B
:104B40007B617B689B6D3B613B691B68FB607B689D
:104B5000DB6D08229A40FB681340002B1AD07B685B
:104B60001B681B6803F00403002B13D07B681B68D1
:104B70001A687B681B6822F004021A607B68DB6D90
:104B800008229A403B699A607B685B6D43F00102A2
:104B90007B685A657B68DB6D01229A40FB68134095
:104BA000002B12D07B681B685B6903F08003002B2D
:104BB0000BD07B68DB6D01229A403B699A607B6871
:104BC0005B6D43F002027B685A657B68DB6D0422F3
:104BD0009A40FB681340002B12D07B681B681B684F
:104BE00003F00203002B0BD07B68DB6D04229A409C
:104BF0003B699A607B685B6D43F004027B685A6591
:104C00007B68DB6D10229A40FB681340002B43D079
:104C10007B681B681B6803F00803002B3CD07B6893
:104C2000DB6D10229A403B699A607B681B681B68A9
:104C300003F48023002B18D07B681B681B6803F4E7
:104C40000023002B08D17B681B6C002B24D07B68D1
:104C50001B6C786898471FE07B689B6C002B1BD00F
:104C60007B689B6C7868984716E07B681B681B68BC
:104C700003F48073002B07D17B681B681A687B687C
:104C80001B6822F008021A607B681B6C002B03D0A3
:104C90007B681B6C786898477B68DB6D20229A40A4
:104CA000FB681340002B00F08F807B681B681B683B
:104CB00003F01003002B00F087807B68DB6D20225F
:104CC0009A403B699A607B6893F83530DBB2052BDC
:104CD00036D17B681B681A687B681B6822F0160255
:104CE0001A607B681B685A697B681B6822F0800227
:104CF0005A617B681B6C002B03D17B689B6C002B7B
:104D000007D07B681B681A687B681B6822F0080262
:104D10001A607B68DB6D3F229A403B699A607B6832
:104D2000012283F835207B68002283F834207B68D9
:104D30001B6D002B7ED07B681B6D7868984779E0EF
:104D40007B681B681B6803F48023002B1DD07B68E5
:104D50001B681B6803F40023002B0DD17B685B6C80
:104D6000002B31D07B685B6C786898472CE000BFE3
:104D70007C000020B5814E1B7B68DB6B002B23D0B1
:104D80007B68DB6B786898471EE07B681B681B6854
:104D900003F48073002B0FD17B681B681A687B6853
:104DA0001B6822F010021A607B68012283F835200C
:104DB0007B68002283F834207B68DB6B002B03D0F8
:104DC0007B68DB6B786898477B685B6D002B32D023
:104DD0007B685B6D03F00103002B22D07B6805220A
:104DE00083F835207B681B681A687B681B6822F093
:104DF00001021A60BB680133BB607A699A4207D32B
:104E00007B681B681B6803F00103002BF2D100E0F4
:104E100000BF7B68012283F835207B68002283F87D
:104E200034207B68DB6C002B05D07B68DB6C7868FA
:104E3000984700E000BF1837BD4680BD80B483B0FE
:104E400000AF78607B685B6D18460C37BD465DF837
:104E5000047B704780B485B000AFF860B9607A60B9
:104E60003B60FB681B681A68FB681B6822F48022A1
:104E70001A60FB681B683A685A60FB689B68402BA5
:104E800008D1FB681B687A689A60FB681B68BA687F
:104E9000DA6007E0FB681B68BA689A60FB681B6809
:104EA0007A68DA6000BF1437BD465DF8047B70474E
:104EB00080B485B000AF78607B681B68DBB2103BC4
:104EC000134AA2FB03231B09FB60124AFB6813442D
:104ED0001B781A467B68DA65FB68032B08D97B6868
:104EE0001B681A460C4B13401A1D7B689A6506E036
:104EF0007B681B681A46084B13407A6893657B6889
:104F00009B6D18461437BD465DF8047B704700BFA3
:104F1000ABAAAAAA6CA5000800FCFFFF80B485B06C
:104F200000AF78600023FB737B689B6ABB607B6883
:104F30009B69002B1FD1BB68032B56D801A252F8E6
:104F400023F000BF554F0008674F0008554F000879
:104F5000EB4F00087B68DB6A03F08073002B46D0C0
:104F60000123FB7343E07B68DB6AB3F1C07F40D170
:104F70000123FB733DE07B689B69B3F5005F21D1A2
:104F8000BB68032B37D801A252F823F09D4F0008CD
:104F9000A34F00089D4F0008B54F00080123FB7385
:104FA00030E07B68DB6A03F08073002B25D001239F
:104FB000FB7322E07B68DB6AB3F1C07F1FD1012362
:104FC000FB731CE0BB68022B03D9BB68032B03D027
:104FD00018E00123FB7315E07B68DB6A03F0807344
:104FE000002B0ED00123FB730BE000BF0AE000BFD3
:104FF00008E000BF06E000BF04E000BF02E000BF21
:1050000000E000BFFB7B18461437BD465DF8047B0B
:10501000704700BF80B586B000AFF860B960C7E9DF
:105020000023274B1B7D012B01D1022343E0244B9E
:1050300001221A754CF2503000F078F80346FB75E7
:10504000FB7D002B33D1FB68032B23D801A252F840
:1050500023F000BF65500008715000087D50000823
:10506000895000083B781946B86800F021F912E031
:105070003B881946B86800F0F5F80CE03B68194623
:10508000B86800F0C9F806E0D7E90023B86800F076
:105090008DF800E000BF4CF2503000F047F80346B6
:1050A000FB75084B1B69074A23F001031361044B8E
:1050B00000221A75FB7D18461837BD4680BD00BF1B
:1050C00020090020003C024080B483B000AF0023E0
:1050D000FB710B4B1B69002B0BDA094B094A5A6019
:1050E000074B094A5A60064B1B69002B01DA012362
:1050F000FB71FB7918460C37BD465DF8047B7047A1
:10510000003C024023016745AB89EFCD80B400AF7E
:10511000054B1B69044A43F0004313610023184602
:10512000BD465DF8047B7047003C024080B584B00A
:1051300000AF78600023FB601A4B00229A61FFF7F2
:1051400081F9F86010E07B68B3F1FF3F0CD07B6819
:10515000002B07D0FFF776F90246FB68D31A7A686E
:105160009A4201D2032319E00F4BDB6803F480332A
:10517000002BE8D10C4BDB6803F4F973002B03D050
:1051800000F0BAF8012309E0074BDB6803F00103E4
:10519000002B02D0044B0122DA600023184610379E
:1051A000BD4680BD20090020003C024080B485B08F
:1051B00000AFF860C7E90023164B1B69154A23F4BA
:1051C00040731361134B1B69124A43F4407313611C
:1051D000104B1B690F4A43F001031361FB683A68E7
:1051E0001A60BFF36F8F00BFD7E900014FF00002D4
:1051F0004FF000030A000023F968043113460B60E6
:10520000BFF34F8F00BF00BF1437BD465DF8047B6E
:10521000704700BF003C024080B483B000AF7860AC
:1052200039600F4B1B690E4A23F4407313610C4B1A
:105230001B690B4A43F400731361094B1B69084A4D
:1052400043F0010313617B683A681A60BFF34F8F24
:1052500000BF00BF0C37BD465DF8047B704700BF40
:10526000003C024080B483B000AF78600B467B8086
:105270000E4B1B690D4A23F4407313610B4B1B69E2
:105280000A4A43F480731361084B1B69074A43F0D1
:10529000010313617B687A881A80BFF34F8F00BFC8
:1052A00000BF0C37BD465DF8047B7047003C0240F0
:1052B00080B483B000AF78600B46FB700D4B1B6968
:1052C0000C4A23F4407313610A4B0A4A1B691361A9
:1052D000084B1B69074A43F0010313617B68FA78A6
:1052E0001A70BFF34F8F00BF00BF0C37BD465DF88B
:1052F000047B7047003C024080B400AF284BDB6861
:1053000003F00203002B05D0264B9B6943F02003DA
:10531000244A9361224BDB6803F01003002B05D075
:10532000204B9B6943F010031E4A93611C4BDB68C2
:1053300003F02003002B05D01A4B9B6943F00803B0
:10534000184A9361164BDB6803F04003002B05D02D
:10535000144B9B6943F00403124A9361104BDB68C2
:1053600003F08003002B05D00E4B9B6943F0020332
:105370000C4A93610A4BDB6803F48073002B05D061
:10538000084B9B6943F04003064A9361044B4FF47A
:10539000F972DA6000BFBD465DF8047B704700BF5C
:1053A000003C02402009002080B584B000AF786046
:1053B00039600023BB602F4B1B7D012B01D10223E1
:1053C00053E02C4B01221A754CF25030FFF7AEFE21
:1053D0000346FB73FB7B002B43D13B684FF0FF324E
:1053E0001A607B681B68012B12D17B68DB68DBB21B
:1053F000184600F043F84CF25030FFF797FE034692
:10540000FB731D4B1B691C4A23F00403136128E046
:105410007B685B68BB601CE07B68DB68DBB21946BD
:10542000B86800F051F84CF25030FFF77FFE0346A9
:10543000FB73114B1B69104A23F07A031361FB7B4A
:10544000002B03D03B68BA681A600AE0BB680133DE
:10545000BB607B689A687B685B681344BA689A4251
:10546000DAD3044B00221A75FB7B18461037BD4671
:1054700080BD00BF20090020003C024080B483B002
:1054800000AF0346FB710F4B1B690E4A23F44073B8
:1054900013610C4B1B690B4A43F004031361094B66
:1054A0001A69FB791B021343064A43F480331361E4
:1054B000BFF34F8F00BF00BF0C37BD465DF8047BC4
:1054C000704700BF003C024080B485B000AF7860F8
:1054D0000B46FB700023FB60FB78002B02D10023FE
:1054E000FB6010E0FB78012B03D14FF48073FB606D
:1054F00009E0FB78022B03D14FF40073FB6002E05C
:105500004FF44073FB60154B1B69144A23F440733E
:105510001361124B1A691149FB6813430B610F4B5E
:105520001B690E4A23F0F80313610C4B1A697B6860
:10553000DB001343094A43F002031361074B1B6965
:10554000064A43F480331361BFF34F8F00BF00BF9F
:105550001437BD465DF8047B704700BF003C024035
:1055600080B489B000AF786039600023FB6100230C
:105570007B6100233B610023BB610023FB6169E188
:105580000122FB6902FA03F37B613B681B687A69BD
:1055900013403B613A697B699A4240F058813B680D
:1055A0005B6803F00303012B05D03B685B6803F0E5
:1055B0000303022B30D17B689B68BB61FB695B00F6
:1055C000032202FA03F3DB43BA691340BB613B6871
:1055D000DA68FB695B0002FA03F3BA691343BB6143
:1055E0007B68BA699A607B685B68BB610122FB6972
:1055F00002FA03F3DB43BA691340BB613B685B68A3
:105600001B0903F00102FB6902FA03F3BA691343B1
:10561000BB617B68BA695A603B685B6803F003034F
:10562000032B17D07B68DB68BB61FB695B0003223F
:1056300002FA03F3DB43BA691340BB613B689A6823
:10564000FB695B0002FA03F3BA691343BB617B6831
:10565000BA69DA603B685B6803F00303022B23D16D
:10566000FB69DA087B68083253F82230BB61FB69BA
:1056700003F007039B000F2202FA03F3DB43BA692E
:105680001340BB613B681A69FB6903F007039B0089
:1056900002FA03F3BA691343BB61FB69DA087B685A
:1056A0000832B96943F822107B681B68BB61FB694B
:1056B0005B00032202FA03F3DB43BA691340BB61C8
:1056C0003B685B6803F00302FB695B0002FA03F3CB
:1056D000BA691343BB617B68BA691A603B685B684F
:1056E00003F44033002B00F0B280604B5B6C5F4AE8
:1056F00043F4804353645D4B5B6C03F48043FB6075
:10570000FB685B4AFB699B08023352F82330BB619C
:10571000FB6903F003039B000F2202FA03F3DB4350
:10572000BA691340BB617B68524A93422BD07B68B5
:10573000514A934225D07B68504A93421FD07B68E0
:105740004F4A934219D07B684E4A934213D07B68EC
:105750004D4A93420DD07B684C4A934207D07B68F8
:105760004B4A934201D107230EE008230CE00623A5
:105770000AE0052308E0042306E0032304E00223F3
:1057800002E0012300E00023FA6902F00302920024
:105790009340BA691343BB613549FB699B080233E7
:1057A000BA6941F823203B4B9B68BB613B69DB43F3
:1057B000BA691340BB613B685B6803F48013002B3C
:1057C00003D0BA693B691343BB61324ABB6993603A
:1057D000304BDB68BB613B69DB43BA691340BB619B
:1057E0003B685B6803F40013002B03D0BA693B6984
:1057F0001343BB61274ABB69D360264B5B68BB611F
:105800003B69DB43BA691340BB613B685B6803F4E7
:105810000033002B03D0BA693B691343BB611D4AB7
:10582000BB6953601B4B1B68BB613B69DB43BA69B7
:105830001340BB613B685B6803F48033002B03D0EB
:10584000BA693B691343BB61124ABB691360FB69C8
:105850000133FB61FB690F2B7FF692AE00BF00BFE7
:105860002437BD465DF8047B704700BF0038024016
:1058700000380140000002400004024000080240DD
:10588000000C0240001002400014024000180240C8
:10589000001C0240003C014080B487B000AF78603B
:1058A000396000233B610023FB600023BB600023C1
:1058B0007B61CDE001227B6902FA03F33B613A6828
:1058C0003B691340FB60FA683B699A4240F0BD8037
:1058D000654A7B699B08023352F82330BB607B69C1
:1058E00003F003039B000F2202FA03F3BA6813408C
:1058F000BB607B685D4A93422BD07B685C4A9342D5
:1059000025D07B685B4A93421FD07B685A4A9342FA
:1059100019D07B68594A934213D07B68584A934206
:105920000DD07B68574A934207D07B68564A934212
:1059300001D107230EE008230CE006230AE005232B
:1059400008E0042306E0032304E0022302E001232D
:1059500000E000237A6902F0030292009340BA68E3
:105960009A4232D1494B1A68FB68DB4347491340DE
:105970000B60464B5A68FB68DB43444913404B605D
:10598000424BDA68FB68DB4340491340CB603F4B36
:105990009A68FB68DB433D4913408B607B6903F0E9
:1059A00003039B000F2202FA03F3BB602E4A7B69BC
:1059B0009B08023352F82310BB68DA432A487B69FC
:1059C0009B080A40023340F823207B681A687B69F1
:1059D0005B00032101FA03F3DB431A407B681A6082
:1059E0007B69DA087B68083253F822107B6903F080
:1059F00007039B000F2202FA03F3DB437A69D20804
:105A000019407B68083243F822107B68DA687B69AA
:105A10005B00032101FA03F3DB431A407B68DA6081
:105A20007B685A6801217B6901FA03F3DB431A4062
:105A30007B685A607B689A687B695B00032101FA86
:105A400003F3DB431A407B689A607B6901337B6117
:105A50007B690F2B7FF62EAF00BF00BF1C37BD4602
:105A60005DF8047B704700BF003801400000024031
:105A70000004024000080240000C024000100240F6
:105A80000014024000180240001C0240003C01408B
:105A900080B483B000AF78600B467B8013467B7088
:105AA0007B78002B03D07A887B689A6103E07B883F
:105AB0001A047B689A6100BF0C37BD465DF8047B11
:105AC000704780B485B000AF78600B467B807B6800
:105AD0005B69FB607A88FB6813401A04FB68D94352
