:020000040800F2
:1000000000000420DD3D0008053B00080B3B000814
:10001000113B0008173B00081D3B000800000000D2
:10002000000000000000000000000000233B00086A
:10003000313B0008000000003F3B00084D3B00083A
:100040002D3E00082D3E00082D3E00082D3E0008E4
:100050002D3E00082D3E00082D3E00082D3E0008D4
:100060002D3E00082D3E00082D3E0008593B00089B
:100070006D3B00082D3E0008813B00082D3E000826
:10008000953B00082D3E00082D3E00082D3E00083F
:100090002D3E00082D3E00082D3E00082D3E000894
:1000A0002D3E0008A93B00082D3E00082D3E00080B
:1000B000BD3B0008D13B00082D3E00082D3E000846
:1000C0002D3E00082D3E00082D3E00082D3E000864
:1000D0002D3E0008E53B00082D3E0008F93B0008D6
:1000E0002D3E00082D3E00082D3E00082D3E000844
:1000F0002D3E00082D3E00082D3E00082D3E000834
:100100002D3E00082D3E00082D3E00082D3E000823
:100110002D3E00082D3E00082D3E00080D3C000835
:10012000213C0008353C0008493C00082D3E0008F1
:100130002D3E00080000000000000000000000004C
:100140000000000000000000000000002D3E00083C
:100150002D3E00082D3E00085D3C00082D3E0008A5
:100160002D3E00082D3E00082D3E00082D3E0008C3
:100170002D3E00082D3E0008000000000000000099
:100180002D3E00082D3E00082D3E00082D3E0008A3
:100190002D3E00082D3E0008000000002D3E000806
:1001A0000000000000000000000000002D3E0008DC
:1001B0002D3E00082D3E0008000000000000000059
:1001C000000000000000000000000000000000002F
:1001D0000000000000000000000000002D3E0008AC
:1001E00010B5054C237833B9044B13B10448AFF371
:1001F00000800123237010BDB0000020000000002B
:10020000C49F000808B5034B1BB103490348AFF373
:10021000008008BD00000000B4000020C49F00085A
:1002200053B94AB9002908BF00281CBF4FF0FF315D
:100230004FF0FF3000F074B9ADF1080C6DE904CE59
:1002400000F006F8DDF804E0DDE9022304B07047B1
:100250002DE9F047089D04468E46002B4DD18A4279
:10026000944669D9B2FA82F252B101FA02F3C2F1AC
:10027000200120FA01F10CFA02FC41EA030E94403D
:100280004FEA1C48210CBEFBF8F61FFA8CF708FB5E
:1002900016E341EA034306FB07F199420AD91CEB36
:1002A000030306F1FF3080F01F81994240F21C8168
:1002B000023E63445B1AA4B2B3FBF8F008FB1033B0
:1002C00044EA034400FB07F7A7420AD91CEB0404E5
:1002D00000F1FF3380F00A81A74240F207816444B5
:1002E000023840EA0640E41B00261DB1D44000233A
:1002F000C5E900433146BDE8F0878B4209D9002D9E
:1003000000F0EF800026C5E9000130463146BDE827
:10031000F087B3FA83F6002E4AD18B4202D3824291
:1003200000F2F980841A61EB030301209E46002D40
:10033000E0D0C5E9004EDDE702B9FFDEB2FA82F295
:10034000002A40F09280A1EB0C014FEA1C471FFAF3
:100350008CFE0126200CB1FBF7F307FB131140EADA
:1003600001410EFB03F0884208D91CEB010103F1A7
:10037000FF3802D2884200F2CB804346091AA4B269
:10038000B1FBF7F007FB101144EA01440EFB00FE3D
:10039000A64508D91CEB040400F1FF3102D2A645A2
:1003A00000F2BB800846A4EB0E0440EA03409CE741
:1003B000C6F12007B34022FA07FC4CEA030C20FAEE
:1003C00007F401FA06F31C43F9404FEA1C4900FA0E
:1003D00006F3B1FBF9F8200C1FFA8CFE09FB18118B
:1003E00040EA014108FB0EF0884202FA06F20BD9FE
:1003F0001CEB010108F1FF3A80F08880884240F24E
:100400008580A8F102086144091AA4B2B1FBF9F091
:1004100009FB101144EA014100FB0EFE8E4508D98C
:100420001CEB010100F1FF346CD28E456AD9023811
:10043000614440EA0840A0FB0294A1EB0E01A142F6
:10044000C846A64656D353D05DB1B3EB080261EB64
:100450000E0101FA07F722FA06F3F1401F43C5E93E
:10046000007100263146BDE8F087C2F12003D84074
:100470000CFA02FC21FA03F3914001434FEA1C47B6
:100480001FFA8CFEB3FBF7F007FB10360B0C43EAA8
:10049000064300FB0EF69E4204FA02F408D91CEB58
:1004A000030300F1FF382FD29E422DD90238634456
:1004B0009B1B89B2B3FBF7F607FB163341EA0341F6
:1004C00006FB0EF38B4208D91CEB010106F1FF3845
:1004D00016D28B4214D9023E6144C91A46EA00463C
:1004E00038E72E46284605E70646E3E61846F8E6CE
:1004F0004B45A9D2B9EB020864EB0C0E0138A3E717
:100500004646EAE7204694E74046D1E7D0467BE7F7
:10051000023B614432E7304609E76444023842E76F
:10052000704700BF80B582B000AF03F080FC00F0E0
:100530002FF900F00FFC00F0ABFB00F077FB00F0B0
:100540003DFB00F0D1F900F091F900F00BFA00F05A
:1005500057FA00F0A3FA00F0D7FA00F00BFB73484B
:1005600007F034F8724806F021FF4FF47A7003F078
:10057000BBFC06226F49704807F052FD05226F4907
:100580006F4806F00FF905226E496F4806F00AF928
:1005900001F0C4FE6D4B1A68022302216C4801F081
:1005A0001DFF6B4B1B686B4A1360694B5B686A4AA3
:1005B00013606A4B01221A70694B1B78002B01D023
:1005C00000F056FC674B1B78002B4BD001F0FEFF70
:1005D000654B1B78012B0BD0634B1B78022B07D08C
:1005E000614B1B78032B03D05F4B1B78042B36D158
:1005F0005E4B1B78002B32D00023FB7110E0FB799F
:100600005B4A127811465B4AD25C5B4B5A54FB79C9
:100610000133FB71564B1B780133DAB2544B1A701D
:10062000FB79022BEBD9514B00221A70534B1B78EC
:100630000133DAB2514B1A70514B1B8801339AB215
:100640004F4B1A804D4B1B780A2B08D14B4B002285
:100650001A70474B01221A704A4B01221A70414B03
:1006600000221A70484B1B78002B2CD03E4B1B7875
:10067000013B082B23D801A252F823F0B30600084F
:10068000B9060008BF060008BF060008BF0600083C
:10069000A7060008BF060008A1060008AD0600086E
:1006A00002F000F80CE002F09DF809E002F044F8D6
:1006B00006E002F0DBF803E002F0D8F800E000BF4B
:1006C000314B00221A70314B1B78002B3FF474AF72
:1006D000254B1B78013B082B23D801A252F823F0AD
:1006E000170700081D070008230700082307000854
:1006F000230700080B070008230700080507000868
:100700001107000801F0CEFF0CE002F06BF809E0E1
:1007100002F012F806E002F0EBF903E002F02AFB27
:1007200000E000BF194B00221A7045E724030020A7
:10073000BC030020F007002028050020300700201F
:100740004001002038070020DC0000203800002095
:1007500094070020C4070020C80700201B080020C1
:1007600016080020150800201C080020A4070020FF
:1007700005000020100800206407002085070020E5
:10078000860700201E0800201708002018080020F7
:1007900080B594B000AF07F1200330220021184645
:1007A00008F00AFF07F10C0300221A605A609A60F1
:1007B000DA601A612B4B1B6C2A4A43F08053136496
:1007C000284B1B6C03F08053BB60BB68264B1B6837
:1007D00023F44043244A43F480431360224B1B68B4
:1007E00003F440437B607B6801233B624FF480331A
:1007F0007B620223BB634FF48003FB6308233B64EB
:10080000D8237B640223BB640223FB6407F120032B
:10081000184604F007FF0346002B01D002F08CFDC0
:1008200004F0B0FE0346002B01D002F085FD0F233B
:10083000FB6002233B6100237B614FF48053BB616B
:100840004FF48053FB6107F10C030321184605F0B8
:100850008DF90346002B01D002F06EFD00BF50372A
:10086000BD4680BD003802400070004080B500AF3A
:100870001B4B1C4A1A601A4B4FF482725A60184B79
:1008800000229A60164B4FF4E062DA60144B0222A9
:100890001A61134B00225A61114B4FF400729A6196
:1008A0000F4B3822DA610E4B00221A620C4B0022E9
:1008B0005A620B4B00229A62094B0722DA62084BFC
:1008C00000221A63064B08225A63054805F0BEFE53
:1008D0000346002B01D002F02FFD00BF80BD00BFFA
:1008E000DC000020003C004080B500AF1B4B1C4AE0
:1008F0001A601A4B4FF482725A60184B00229A60A9
:10090000164B4FF4E062DA60144B02221A61134B6B
:1009100000225A61114B4FF400729A610F4B38223A
:10092000DA610E4B00221A620C4B00225A620B4B0A
:1009300000229A62094B0722DA62084B00221A63EE
:10094000064B08225A63054805F080FE0346002B3B
:1009500001D002F0F1FC00BF80BD00BF40010020CB
:100960000034014080B588B000AF07F110030022C9
:100970001A605A609A60DA603B1D00221A605A6061
:100980009A601E4B4FF080421A601C4B6B225A60DB
:100990001A4B00229A60194B43F67F62DA60174BBC
:1009A00000221A61154B00229A61144806F0A6FC39
:1009B0000346002B01D002F0BFFC4FF480533B6193
:1009C00007F1100319460D4806F038FF0346002BC7
:1009D00001D002F0B1FC00237B600023FB603B1DD3
:1009E0001946064807F05CF90346002B01D002F0D7
:1009F000A3FC00BF2037BD4680BD00BF24030020FC
:100A000080B588B000AF07F1100300221A605A6069
:100A10009A60DA603B1D00221A605A609A601D4B92
:100A20001D4A1A601B4B6B225A601A4B00229A60B7
:100A3000184B40F69F72DA60164B00221A61154B74
:100A400000229A61134806F059FC0346002B01D09E
:100A500002F072FC4FF480533B6107F1100319461A
:100A60000C4806F0EBFE0346002B01D002F064FCBC
:100A700000237B600023FB603B1D1946054807F0FF
:100A80000FF90346002B01D002F056FC00BF2037BF
:100A9000BD4680BD700300200004004080B584B0D6
:100AA00000AF3B1D00221A605A609A60144B154A31
:100AB0001A60134B6B225A60114B00229A60104B44
:100AC0004FF6FF72DA600E4B00229A610C4806F076
:100AD00015FC0346002B01D002F02EFC00237B60A6
:100AE0000023FB603B1D1946054807F0D9F8034673
:100AF000002B01D002F020FC00BF1037BD4680BDA6
:100B0000BC0300200010004080B584B000AF3B1D46
:100B100000221A605A609A60144B154A1A60134BEF
:100B20006B225A60114B00229A60104B6322DA60EC
:100B30000E4B00229A610D4806F0E0FB0346002BA5
:100B400001D002F0F9FB00237B600023FB603B1D1A
:100B50001946064807F0A4F80346002B01D002F01E
:100B6000EBFB00BF1037BD4680BD00BF080400206E
:100B70000014004080B500AF0E4B0F4A1A600D4BB9
:100B800042F62F225A600B4B00229A60094B41F625
:100B90003F72DA60074B00221A61064B00229A610D
:100BA000044806F0ABFB0346002B01D002F0C4FB67
:100BB00000BF80BD540400200044014080B500AF58
:100BC000184B1B689A68174B1B6842F001029A6029
:100BD000144B154A1A60134B4FF416425A60114BCE
:100BE00000229A600F4B0022DA600E4B00221A613D
:100BF0000C4B0C225A610B4B00229A61094B0022CC
:100C0000DA61084B00221A62064B00225A6205483C
:100C100007F0F2F80346002B01D002F08DFB00BF75
:100C200080BD00BFA00400200010014080B500AFCF
:100C3000154B164A1A60144B4FF416425A60124B69
:100C400000229A60104B0022DA600F4B00221A61DA
:100C50000D4B0C225A610C4B00229A610A4B002268
:100C6000DA61094B00221A62074B00225A62002304
:100C700000220021044808F00DFC0346002B01D09F
:100C800002F05AFB00BF80BD28050020004800404C
:100C900080B582B000AF2E4B1B6B2D4A43F400137E
:100CA00013632B4B1B6B03F400137B607B68284B97
:100CB0001B6B274A43F480031363254B1B6B03F420
:100CC00080033B603B68002200210B2003F02FFAD9
:100CD0000B2003F048FA002200210C2003F027FA31
:100CE0000C2003F040FA002200210E2003F01FFA2E
:100CF0000E2003F038FA00220021102003F017FA2A
:100D0000102003F030FA00220021382003F00FFAFF
:100D1000382003F028FA00220021392003F007FAD6
:100D2000392003F020FA002200213A2003F0FFF9D5
:100D30003A2003F018FA00220021462003F0F7F9C8
:100D4000462003F010FA00BF0837BD4680BD00BF43
:100D50000038024080B58AB000AF07F114030022CA
:100D60001A605A609A60DA601A613D4B1B6B3C4A0C
:100D700043F0100313633A4B1B6B03F010033B610A
:100D80003B69374B1B6B364A43F080031363344B8C
:100D90001B6B03F08003FB60FB68314B1B6B304A1D
:100DA00043F0010313632E4B1B6B03F00103BB6085
:100DB000BB682B4B1B6B2A4A43F004031363284B7D
:100DC0001B6B03F004037B607B68254B1B6B244A81
:100DD00043F002031363224B1B6B03F002033B60DF
:100DE0003B6800224FF407611E4804F097FB002285
:100DF00020211D4804F092FB002203211B4804F02F
:100E00008DFB4FF407637B610123BB610023FB6112
:100E100000233B6207F114031946124804F0E6F878
:100E200020237B610123BB610023FB6100233B6224
:100E300007F1140319460C4804F0D8F803237B612A
:100E40000123BB610023FB6100233B6207F1140314
:100E50001946064804F0CAF800BF2837BD4680BDD1
:100E60000038024000000240000802400004024036
:100E700080B584B000AFB04B1B78013B1F2B00F254
:100E8000798601A252F823F0090F0008C911000861
:100E90005F0F0008751B0008751B00085915000836
:100EA000751B0008DF1500082517000875170008D6
:100EB00095170008A1170008751B0008B317000854
:100EC000FD17000815180008F11800081D19000882
:100ED0003D190008D5190008311A0008751B0008D3
:100EE0005B1A0008751A0008171B0008751B00081C
:100EF000751B0008751B0008751B0008751B000892
:100F0000751B0008551B000805228C498C4805F00C
:100F100049FC05228B498C4805F044FC8B4B1B781F
:100F200083F00103DBB2002B13D0052288498948E6
:100F300007F076F801224FF40061874804F0EEFADA
:100F4000642001F029FB00224FF40061824804F084
:100F5000E5FA0021012001F08FF800F00BBE01211D
:100F6000032001F089F87D4B00221A807C4B00227F
:100F70001A80764B00221A707A4B00221A707A4B34
:100F800000221A70794B6C4A92E80300186004330F
:100F90001980764B5B78013B754A13441B7AB43B4E
:100FA000002BB8BF5B421AB2724B1A806F4B9B7812
:100FB000013B6F4A13441B7A9BB2B4339BB21AB203
:100FC0006D4B1A80694BDB78013B6C4A083332F871
:100FD00013206B4B1A80674BB3F90030042B11DCE4
:100FE000644BB3F90030053B002BB8BF5B429AB2AB
:100FF000644B1A80634B1B88C3F5B4739AB2614B80
:101000001A8007E05B4BB3F900309BB2053B9AB204
:101010005C4B1A805C4B00221A705C4B00221A70E9
:101020005B4B00221A705B4B00221A705A4B002255
:101030001A705A4B00221A70524B1B885B04584A94
:1010400082FB03121A441212DB17D31A1A46554BAD
:101050001A60544B1B68434A12781146184601F037
:1010600011F903464F4A13603E4B1B784D4A1268F4
:101070001146184600F01AFE3E4BB3F900305B04EF
:10108000474A82FB03121A441212DB17D31A1A467C
:10109000454B1A60444B1B68324A12781146184679
:1010A00001F0F0F80346404A1360354B1B881A469E
:1010B0003D4B1B681344B3F5003F0AD9304B1B88E6
:1010C0001A46394B1B681344A3F50033374A1360A3
:1010D00007E02B4B1B881A46334B1B681344334ADB
:1010E0001360254BB3F900305B042D4A82FB0312D9
:1010F0001A441212DB17D31A1A462D4B1A602C4BC6
:101100001B68184A12781146184601F0BBF80346CE
:10111000274A1360274B02221A70274B02221A70AB
:10112000264B01221A70264806F0D8F9254806F009
:10113000D5F900F01FBD00BFF007002030070020E8
:101140004001002038070020DC0000209C07002020
:1011500000080020A00400200000024086070020B4
:10116000880700203C0000201E080020F80700200F
:1011700008000020E8070020EA07002018000020EF
:10118000E4070020EC0700209E070020A0070020B5
:101190009F070020A1070020A2070020A30700202E
:1011A000B7600BB6BC070020AC0700202C0800205D
:1011B000B40700201C0800201B0800201D08002088
:1011C00008040020240300200121022000F054FF25
:1011D0007D4B00221A807D4B00221A807C4B00221E
:1011E0001A807C4B00221A807B4B00221A807B4B9A
:1011F00000221A707A4B1B78002B14BF01230023A6
:10120000DAB2784B1A70784B00221A70774B784A12
:1012100092E80300186004331980744B5B78013B3B
:10122000744A13441B7AB43B002BB8BF5B421AB21A
:10123000654B1A806D4B9B78013B6E4A13441B7AB9
:101240009BB2B4339BB21AB2604B1A805E4BB3F9B7
:101250000030042B11DC5C4BB3F90030053B002B54
:10126000B8BF5B429AB25A4B1A80594B1B88C3F5E0
:10127000B4739AB2564B1A8007E0534BB3F900305F
:101280009BB2053B9AB2524B1A805B4B00221A70FC
:101290005A4B00221A705A4B00221A70514B1B787D
:1012A00083F00103DBB2002B00F0C4804F4BDB78EE
:1012B000013B544A083332F81320534B1A80444BF5
:1012C0001B885B04514A82FB03121A441212DB177B
:1012D000D31A1A464E4B1A604D4B1B68414A12787E
:1012E0001146184600F0CEFF0346494A13603D4BB5
:1012F0001B78474A12681146184600F0D7FC324B5B
:10130000B3F900305B04414A82FB03121A44121203
:10131000DB17D31A1A463F4B1A603E4B1B68314A03
:1013200012781146184600F0ADFF0346394A1360A3
:10133000354B1B881A46374B1B681344B3F5003FE7
:101340000AD9314B1B881A46324B1B681344A3F54C
:101350000033314A136007E02B4B1B881A462D4B94
:101360001B6813442C4A1360184BB3F900305B041C
:10137000264A82FB03121A441212DB17D31A1A46AA
:10138000264B1A60254B1B68164A127811461846E0
:1013900000F078FF0346214A1360204B1A681D4B6A
:1013A0001B689A4202D21E4B01221A701D4B012269
:1013B0001A701D4B02221A701C4806F08FF81C4848
:1013C00006F08CF8D3E300BFE8070020EA0700200E
:1013D000EC07002086070020880700209C070020DB
:1013E0001F0800203C0000201E080020F8070020F5
:1013F000F0070020080000209E070020A007002022
:101400009F07002018000020E4070020B7600BB6FB
:10141000BC070020AC0700202C080020B4070020E7
:10142000A80700201C0800201B080020080400203A
:1014300024030020A04B1B78002B00F098839F4BC7
:10144000DB78013B9E4A083332F813209D4B1A800B
:101450009D4B1B885B049D4A82FB03121A441212A7
:10146000DB17D31A1A469A4B1A60994B1B68924A9B
:1014700012781146184600F005FF0346944A13609F
:101480008D4B1B78924A12681146184600F00EFCEC
:10149000904BB3F900305B048C4A82FB03121A4470
:1014A0001212DB17D31A1A468B4B1A608A4B1B6831
:1014B000814A12781146184600F0E4FE0346864A37
:1014C0001360804B1B881A46834B1B681344B3F58B
:1014D000003F0AD97B4B1B881A467F4B1B6813447D
:1014E000A3F500337D4A136007E0764B1B881A464C
:1014F000794B1B681344794A1360794BB3F9003078
:101500005B04724A82FB03121A441212DB17D31ACD
:101510001A46744B1A60734B1B68674A127811465F
:10152000184600F0AFFE03466E4A13606D4B1A6812
:10153000694B1B689A4202D26B4B01221A706B4BAB
:1015400001221A706A4B02221A706A4805F0C6FF1F
:10155000694805F0C3FF0AE30121062000F08CFD75
:10156000624B06221A70624B01221A70634B1B8871
:101570001A46514B1B781946104600F083FE03466D
:101580005F4A13605E4B1B685E4A13605D4B1B68CD
:1015900003F59673B3F5003F06D95A4B1A685A4BB8
:1015A0001344584A136005E0564B1B6803F59673C5
:1015B000544A1360554B00221A70002210215448DF
:1015C00003F0ACFF4F4B1B681946002000F06EFB88
:1015D000484805F083FF4F4805F080FFCAE201212B
:1015E000082000F049FD0023FB804B4BDB78002BEB
:1015F00030D04A4B00221A602F4B01221A70464B02
:101600009B789BB21B02FB80434B5B789AB2FB88B2
:101610001343FB80FB885B042C4A82FB03121A44B1
:101620001212DB17D31A1A463C4B1A603B4B1B684D
:10163000214A12781146184600F024FE0346374A24
:1016400013601D4B1B78354A12681146184600F08E
:101650002DFB8FE2324B00221A60174B00221A70CA
:101660002D4B9B789BB21B02FB802B4B5B789AB275
:10167000FB881343FB80FB885B04144A82FB031244
:101680001A441212DB17D31A1A46254B1A60244B40
:101690001B68094A12781146184600F0F3FD03460C
:1016A0001F4A1360044B1B781D4A126811461846E6
:1016B00000F0FCFA5EE200BF3C000020F8070020CA
:1016C00018000020E6070020EC070020B7600BB6EA
:1016D000C0070020E8070020B007002030080020E5
:1016E000EA070020B8070020A80700201C080020F7
:1016F0001B0800200804002070030020A60700201B
:10170000CC070020DC0700202C01FEFFA9070020E9
:101710000000024024030020F0070020D80700202A
:10172000D4070020934B5B78002B14BF01230023C8
:10173000DAB2914B1A700121092000F09DFC8F4B09
:1017400001221A708E4B09221A708E4B01221A70D8
:10175000884B5B78002B06D18B4805F0BFFE8B4889
:1017600005F0BCFE06E2884805F0B8FE884805F0A2
:10177000B5FEFFE101210A2000F07EFC7D4BDB7805
:10178000002B03D0834B01221A70F3E1814B00221E
:101790001A70EFE100F02AFD7F4B00221A70E9E198
:1017A00000F05CFF754B01221A707C4B00221A700E
:1017B000E0E1704B9B78002B0DD0794B00221A7022
:1017C00001221021774803F0A9FE0122202176484A
:1017D00003F0A4FE0CE0724B01221A7000221021CB
:1017E000704803F09BFE002220216F4803F096FE14
:1017F000604B5B78184600F0EDF9BBE15E4B1B785F
:10180000002B40F0B681604805F068FE5F4805F0A7
:1018100065FEAEE10121102000F02EFC584B08229D
:101820001A70624B00221A60524B9B781B021A46B8
:101830005E4B1A604F4B5B781A465C4B1B68134338
:101840005A4A13604C4B1B78002B29D0584B00226E
:101850001A60484BDB78002B13D1544B1B685B0498
:10186000DB08544AA2FB03239B08BB60504B1B6858
:10187000414A12781146184600F004FD03464C4ACE
:1018800013603D4B1B784A4A12681146184600F017
:101890000DFA3D4805F022FE3D4805F01FFE69E1C6
:1018A000454B00221A60334BDB78002B11D13F4BA4
:1018B0001B685B04DB083F4AA2FB03239B08BB6059
:1018C0002D4B1B781946B86800F0DCFC03463A4AF9
:1018D0001360294B1B78384A12681146184600F0ED
:1018E000E5F9294805F0FAFD284805F0F7FD41E142
:1018F0000121112000F0C0FB1F4B1B78002B06D0EC
:10190000234805F063FE204805F060FE32E11F48E1
:1019100005F05CFE1C4805F059FE2BE10121122068
:1019200000F0AAFB134B5B78002B03D0124B012273
:101930001A701FE1104B00221A701BE101211320C5
:1019400000F09AFB1D4B1B681D4A13601D4B1B6862
:101950001D4A13601A4B1B681C4A13601A4B1B6804
:101960001A4A53601A4B1A6802230221174800F0E2
:10197000EBFCFFE0F00700203C0000201B080020EB
:101980001C0800201D08002008040020240300205B
:10199000700300201F0800201E0800209D07002063
:1019A000190800200000024000080240E007002063
:1019B000D0070020176CC116CC0700202408002097
:1019C000C407002028080020C80700209407002032
:1019D000380000200121142000F04EFB694B012249
:1019E0001A70694B5B78184600F068FD03461A468A
:1019F000664B1A70644B9B78012B06D1634B1B78A6
:101A000063F07703DAB2614B1A70604B1A785F4B60
:101A10005A705F4806F048FB642301225B495C482A
:101A200006F075FA05225B49594806F0F9FAA1E07B
:101A300005225949564806F0F3FA01224FF4006195
:101A4000564803F06BFD012002F04EFA00224FF4DD
:101A50000061524803F062FD8CE0514B1A6802238A
:101A60000221504800F0BAFC494806F013FAFFF78B
:101A7000A5F87FE04C4B1B7883F00103DBB2002B11
:101A800024D001221021454803F048FD474B002295
:101A90001A7001222021414803F040FD642002F029
:101AA00023FA002220213D4803F038FD0522404959
:101AB000404804F077FE0021012000F0DDFA3B4BA6
:101AC0001B780133DAB2394B1A70E2E70122202188
:101AD000394803F023FD354B00221A700122012101
:101AE000364803F01BFD642002F0FEF900220121BC
:101AF000324803F013FD05223149324804F052FE0A
:101B00000021012000F0B8FA284B1B780133DAB22B
:101B1000264B1A70E2E7244B1B7883F00103DBB2FB
:101B2000002B0BD005222249224804F03BFE6423FF
:101B300005221F49244806F0EAF91BE00522204946
:101B4000204804F02FFE642305221D491E4806F09C
:101B5000DEF90FE00023FB6002E0FB680133FB606D
:101B6000FB68812BF9DD194807F09CFD02E000BFFE
:101B700000E000BF164B00221A7000BF1037BD46B0
:101B800080BD00BF9C070020F00700208C070020CC
:101B9000A0040020000000200008002000000240F7
:101BA00038000020940700203C000020910700200E
:101BB00030070020400100200008024000040240DD
:101BC00038070020DC00002028050020DC9F0008EA
:101BD0001608002080B584B000AF0346FB712A4B85
:101BE0001B7883F00103DBB2002B29D00023FB60BC
:101BF00021E001222021254803F090FC022002F080
:101C000073F900222021214803F088FC022002F011
:101C10006BF920211D4803F09AFC05221C491D4840
:101C200004F0C0FD6423052219491B4806F06FF932
:101C3000FB680133FB60FB79FA689A42D9DB1BE051
:101C40000023BB6014E00121144803F080FC042051
:101C500002F04AF905221249124804F0A3FD642358
:101C600005220F490C4806F052F9BB680133BB60EE
:101C7000FB79BA689A42E6DB0B4B00221A7000BF70
:101C80001037BD4680BD00BF3C0000200000024070
:101C900030070020400100202805002000040240F9
:101CA00038070020DC0000209007002080B582B0BB
:101CB00000AF03463960FB71FB7983F00103DBB2AF
:101CC000002B40D0424B1B683A689A421DD2404BD1
:101CD0001A683B68D21A3E4B1B683968CB1A03F569
:101CE00000339A4208D9012210213A4803F016FC29
:101CF000394B00221A7066E000221021354803F0AB
:101D00000DFC354B01221A705DE0314B1A683B68BF
:101D1000D31A03F500322E4B1B683968CB1A9A424E
:101D200008D2002210212B4803F0F8FB2A4B012295
:101D30001A7048E001221021264803F0EFFB264BE1
:101D400000221A703FE0254B1B683A689A421DD268
:101D5000224B1A683B68D21A204B1B683968CB1A91
:101D600003F500339A4208D9012220211C4803F0D0
:101D7000D5FB1C4B00221A7025E0002220211848B8
:101D800003F0CCFB174B01221A701CE0134B1A68AE
:101D90003B68D31A03F50032104B1B683968CB1A25
:101DA0009A4208D2002220210D4803F0B7FB0D4BC8
:101DB00001221A7007E001222021094803F0AEFB3E
:101DC000084B00221A7000BF0837BD4680BD00BF17
:101DD00024080020000002401908002028080020E4
:101DE000000802401A08002080B582B000AF786079
:101DF000391D4FF6FF730122034806F088F87B680F
:101E000018460837BD4680BD2805002080B485B03F
:101E100000AF78607B681B68224A934202D1224B54
:101E200001221A707B681B68204A934234D1204BF0
:101E30001B78002B2DD00023FB601E4B1B781A460D
:101E40001C4B5B7813441B4A92781344FB60FB687D
:101E5000DBB2FB60174BDB781A46FB68934203D179
:101E6000144B1B79A52B03D0134B00221A700DE0E5
:101E7000104B1A78114B1B781B09DBB29A4205D024
:101E80000D4B00221A700E4B01221A70084B0022D3
:101E90001A700C4B01221A7000BF1437BD465DF852
:101EA000047B7047004800401608002000100140E5
:101EB0009C070020000000201B0800208C07002049
:101EC0009D0700201508002080B582B000AF786023
:101ED0007B681B682B4A93421CD12B4B9B785B0978
:101EE000DBB203F00703294A1360274B5B78DA0063
:101EF000264B1B681343254A1360234B1B78DB02D8
:101F000003F4FC32214B1B681343204A1360204B1F
:101F100001221A707B681B681E4A93422DD11E4B0A
:101F20009B785B09DBB203F007031C4A13601A4B72
:101F30005B78DA00194B1B681343184A1360164B81
:101F40001B78DB0203F4FC32144B1B681343134A67
:101F50001360134B1B685A1E104B1B689A420CD817
:101F60000F4B1B685A1C0D4B1B689A4205D30D483A
:101F700005F02CFB0C4805F029FB00BF0837BD46D7
:101F800080BD00BF0034014030070020240800203D
:101F900017080020003C00403807002028080020D7
:101FA000B0070020700300200804002080B582B034
:101FB00000AF78607B681B68B3F1804F07D12021A8
:101FC0001F4803F0C4FA1F4B1B6800225A627B684B
:101FD0001B681D4A934207D101211C4803F0B7FA40
:101FE0001B4B1B6800225A627B681B68194A93428C
:101FF00015D1194B1B7883F00103DBB2002B05D000
:1020000005221649164804F0CDFB04E005221549C7
:10201000154804F0C7FB154B1B6800225A627B6809
:102020001B68134A934206D1124805F02FFA114B50
:102030001B6800225A6200BF0837BD4680BD00BF42
:10204000000002402403002000040040000402407D
:1020500070030020001400403C00002030070020E6
:102060004001002038070020DC0000200804002088
:10207000004401405404002080B584B000AF034602
:102080000A46FB711346BB714C4B00221A80FB7948
:10209000012B77D14A4B01221A704A4B1A78484BD0
:1020A0005A70494B1A78464B9A70484B1B781A461F
:1020B000434BDA70464B1A78414B1A71454B1A78EC
:1020C0003F4B5A71444B1A783D4B9A71424B5A78A8
:1020D0003B4BDA71404B9A78394B1A723F4B1B6875
:1020E000DAB2374B5A723D4B1B681B0ADAB2344BDB
:1020F0009A723A4B1B681B0CDAB2314BDA72384BCE
:102100001B68DAB22E4BDA73354B1B681B0ADAB246
:102110002B4B1A74324B1B681B0CDAB2284B5A74C7
:10212000274B0022DA77264B002283F82020002359
:10213000FB6016E0224AFB6813441B789AB2FB68E6
:1021400001331F49CB5C9BB21B029BB213449AB272
:102150001A4B1B8813449AB2184B1A80FB6802333F
:10216000FB60FB681D2BE5DD154B9B7F9AB2134B83
:102170001B8813449AB2114B1A801A4B0F4A1288CB
:102180001A8010E021210E4800F05EF90C4AFB791C
:1021900013700B4ABB795370094AFB79D377084A0D
:1021A000BB7982F820306423212205490E4805F0CE
:1021B000AEFE00BF1037BD4680BD00BF8E070020B9
:1021C000400700201B0800201C0800201D080020DC
:1021D0001E080020200800200808002024080020F5
:1021E000280800205F0700202805002080B582B065
:1021F00000AF0023FB801F4B0B221A701D4B0022E7
:10220000DA771C4B002283F8202000233B6013E088
:10221000184A3B6813441B789AB23B68013315494E
:10222000CB5C9BB21B029BB213449AB2FB88134453
:10223000FB803B6802333B603B681D2BE8DD0D4BA8
:102240009B7F9AB2FB881344FB800B4AFB88138068
:102250000A4805F029FF642321220649074805F0B2
:1022600056FE06220649054805F0DAFE00BF08378B
:10227000BD4680BD6407002083070020280500209C
:10228000F007002080B485B000AF78600B46FB708B
:102290000023FB60FB78002B14D01E4B1A687B6870
:1022A0001344B3F5003F07D91A4B1A687B681344EF
:1022B000A3F50033FB6019E0164B1B687A681344E2
:1022C000FB6013E0144B1A687B681344B3F5003FBE
:1022D00007D9114B1A687B681344A3F50033FB60E0
:1022E00004E00D4B1B687A681344FB60FB68002B0D
:1022F00001D15C23FB60FB68B3F5003F02D1FB68B2
:102300005C3BFB60FB6818461437BD465DF8047BF8
:10231000704700BFC8070020C407002080B400AF8A
:10232000084B00221A60074B0222DA60054B032299
:102330005A60044B01229A6000BFBD465DF8047BE1
:10234000704700BFCC000020B0B586B000AFF86089
:102350007A603B600B46FB7202F0FCFB1D491E4895
:1023600002F068FD0346002B2ED10023FB753B686D
:10237000022B02D10423FB7504E03B68012B01D141
:102380000223FB750023BB7517E0BB7D9B00FA6839
:1023900013441B6800221C46154622462B467968CA
:1023A000386802F07DFB0346002B0FD1FB7D7A6875
:1023B00013447B60BB7D0133BB75BA7DFB7A9A42C7
:1023C000E3D302F0E9FB02E000BF00E000BF1837F2
:1023D000BD46B0BD34080020CC00002080B487B0DA
:1023E00000AFF8607A603B600B46FB720023FB7520
:1023F00000233B613B68022B02D10423FB7504E000
:102400003B68012B01D10223FB750023BB820FE047
:102410007B681B683B61BB8A9B00FA6813443A697E
:102420001A60FB7D7A6813447B60BB8A0133BB82F0
:10243000FB7A9BB2BA8A9A42EAD300BF00BF1C372C
:10244000BD465DF8047B704780B485B000AF78600E
:102450000B46FB700023FB7307E0FB7B7A68134499
:1024600000221A70FB7B0133FB73FA7BFB789A42E4
:10247000F3D300BF00BF1437BD465DF8047B70473F
:1024800080B485B000AF78600B46FB701346BB701C
:10249000BB78FB7307E0FB7B7A68134400221A7059
:1024A000FB7B0133FB73FA7BFB789A42F3D300BFCB
:1024B00000BF1437BD465DF8047B704780B483B01D
:1024C00000AF0346FB71FB79802B5CD0802B5CDC7A
:1024D000202B47DC002B58DD013B1F2B55D801A2D8
:1024E00052F823F06B2500086F2500088B250008A3
:1024F000732500088B2500088B2500088B25000814
:10250000772500088B2500088B2500088B250008FF
:102510008B2500088B2500088B2500088B250008DB
:102520007B2500088B2500088B2500088B250008DB
:102530008B2500088B2500088B2500088B250008BB
:102540008B2500088B2500088B2500088B250008AB
:102550008B2500088B2500088B2500088B2500089B
:102560007F250008402B0CD00FE000230EE0112344
:102570000CE022230AE0332308E0442306E055233D
:1025800004E0662302E0772300E0012318460C37BD
:10259000BD465DF8047B704780B483B000AF03464E
:1025A000FB80094B1B6800225A6200BF064B1B6868
:1025B0005A6AFB889A42F9D300BF00BF0C37BD4668
:1025C0005DF8047B704700BFBC03002080B483B07B
:1025D00000AF00237B601D4B1B781A461B4B5B78BA
:1025E00013441A4A927813447B607B68DBB27B60A9
:1025F000164BDB781A467B68934220D1134B1B792C
:10260000A52B1CD1124B1B78002B0CD00F4B1A782A
:10261000104B1A700D4B5A780E4B5A700B4B9A7820
:102620000C4B9A700BE0094B1A780B4B1A70074B46
:102630005A78094B5A70054B9A78074B9A7000BF2D
:102640000C37BD465DF8047B704700BF00080020D2
:10265000A4070020100800200808002080B500AF63
:1026600021210D48FFF7F0FE0B4B0C221A700B4B8B
:102670001A78094B5A70084B0C22DA77074B1A78F4
:10268000054B83F82020642321220349044805F0E8
:102690003EFC00BF80BD00BF400700209D0700201A
:1026A0002805002080B500AF1A4B1B78002B17D0EF
:1026B000194B1B681A1F194B1B689A4227D8164BD7
:1026C0001B681A1D164B1B689A4220D3154804F04C
:1026D0007DFF154804F07AFF144B00221A7016E0B3
:1026E000134B1B681A1F0E4B1B689A420FD8104BD6
:1026F0001B681A1D0A4B1B689A4208D30D4804F048
:1027000065FF094804F062FF084B00221A7000BF01
:1027100080BD00BF3C000020D0070020280800201A
:102720002408002070030020080400201C0800205A
:10273000CC0700202403002080B500AF1F4B1B787E
:10274000002B1CD01E4B1B68A3F12E021D4B1B68D7
:102750009A4230D81A4B1B6803F12E02194B1B68A2
:102760009A4228D3184804F031FF184804F02EFF8D
:10277000174B00221A70174B00221A701BE0164BE1
:102780001B68A3F12E02154B1B689A4213D8124BFB
:102790001B6803F12E02114B1B689A420BD31048A1
:1027A00004F014FF094804F011FF094B00221A70CD
:1027B000084B00221A7000BF80BD00BF3C00002003
:1027C000D8070020280800207003002008040020FB
:1027D0001C0800201D080020D40700202408002029
:1027E0002403002080B500AF194B1B7883F0010350
:1027F000DBB2002B13D0174B1B68A3F12E02164B34
:102800001B689A4222D8134B1B6803F12E02124B0D
:102810001B689A421AD30E4B01221A7016E00F4B16
:102820001B681A1F0C4B1B689A420FD80B4B1B6876
:102830001A1D094B1B689A4208D3094804F0C6FECA
:10284000084804F0C3FE084B00221A7000BF80BD88
:10285000A9070020DC07002024080020CC07002066
:1028600024030020080400201C08002080B500AFCD
:10287000864B1B7883F00103DBB2002B21D0844B05
:1028800001221A70834B1B685A1F834B1B689A42A4
:1028900017D8804B1B685A1D7F4B1B689A4210D378
:1028A0007E4804F093FE7E4B1B787E4A12681146E8
:1028B0001846FFF7FBF9754B01221A70774804F0B0
:1028C0000DFE724B1B78002B00F0A180764B1B781D
:1028D00083F00103DBB2002B2AD06D4B00221A706B
:1028E000704B1B685A1F6C4B1B689A4220D86D4B6B
:1028F0001B685A1D684B1B689A4219D36A4B012208
:102900001A70052269496A4805F08AFB01224FF4D2
:102910000061684802F002FE674B01221A70022033
:10292000FFF73AFE00224FF40061624802F0F6FD24
:102930005D4B1B78002B6AD0604B1B7883F0010342
:10294000DBB2002B63D05E4B1B68A3F10802524B35
:102950001B689A4228D85A4B1B6803F108024E4B59
:102960001B689A4220D305225049514805F058FB74
:1029700001224FF400614F4802F0D0FD4E4B01227E
:102980001A700220FFF708FE00224FF40061494848
:1029900002F0C4FD4B4B1B8801339AB2494B1A809D
:1029A000464B01221A7070E0474B1B681A1F3A4BC6
:1029B0001B689A422BD8444B1B681A1D364B1B6868
:1029C0009A4224D3414B1B881A463F4B1B68134441
:1029D0003D4A136005223549354805F021FB0122A7
:1029E0004FF40061334802F099FD334B01221A7015
:1029F0000220FFF7D1FD00224FF400612D4802F0C4
:102A00008DFD304B1B8801339AB22E4B1A802B4B15
:102A10001B78002B39D0284B1B7883F00103DBB2E5
:102A2000002B32D02A4B1B78002B2ED1294B1B7840
:102A3000002B0FD0274B1B781A4652001344DBB2F1
:102A40000133DBB21A4621212348FFF719FD204B41
:102A500001221A701F4B00221A70204B01221A709B
:102A60001F4B00221A701F4B00221A701E4B0122AE
:102A70001A70124B01221A700F4B00221A7007486D
:102A800004F0A4FD194804F0A1FD80BDA0070020BA
:102A90001D080020BC07002024080020240300207B
:102AA0003C000020AC0700209E070020000800200A
:102AB000A004002000000240A40700209F0700207F
:102AC000B4070020880700202C080020E40700201D
:102AD0001E08002085070020640700200500002054
:102AE0001C0800209C0700201B0800200804002070
:102AF00080B500AF864B1B7883F00103DBB2002B5F
:102B000021D0844B01221A70834B1B685A1F834BC0
:102B10001B689A4217D8804B1B685A1D7F4B1B6855
:102B20009A4210D37E4804F051FD7E4B1B787E4ABA
:102B3000126811461846FFF7B9F8754B01221A7052
:102B4000774804F0CBFC724B1B78002B00F0A1807F
:102B5000764B1B7883F00103DBB2002B2AD06D4B40
:102B600000221A70704B1B685A1F6C4B1B689A42EC
:102B700020D86D4B1B685A1D684B1B689A4219D3AD
:102B80006A4B01221A70052269496A4805F048FA21
:102B900001224FF40061684802F0C0FC674B01223B
:102BA0001A700220FFF7F8FC00224FF4006162481F
:102BB00002F0B4FC5D4B1B78002B6AD0604B1B7895
:102BC00083F00103DBB2002B63D05E4B1B68A3F1E3
:102BD0000802524B1B689A4228D85A4B1B6803F1D3
:102BE00008024E4B1B689A4220D305225049514897
:102BF00005F016FA01224FF400614F4802F08EFCF6
:102C00004E4B01221A700220FFF7C6FC00224FF43F
:102C10000061494802F082FC4B4B1B8801339AB299
:102C2000494B1A80464B01221A7070E0474B1B68D3
:102C30001A1F3A4B1B689A422BD8444B1B681A1D2B
:102C4000364B1B689A4224D3414B1B881A463F4B94
:102C50001B6813443D4A136005223549354805F089
:102C6000DFF901224FF40061334802F057FC334B87
:102C700001221A700220FFF78FFC00224FF400613E
:102C80002D4802F04BFC304B1B8801339AB22E4B7F
:102C90001A802B4B1B78002B39D0284B1B7883F0E4
:102CA0000103DBB2002B32D02A4B1B78002B2ED134
:102CB000294B1B78002B0FD0274B1B781A4652004C
:102CC0001344DBB20133DBB21A4621212348FFF75C
:102CD000D7FB204B01221A701F4B00221A70204B89
:102CE00001221A701F4B00221A701F4B00221A700B
:102CF0001E4B01221A70124B01221A700F4B002238
:102D00001A70074804F062FC194804F05FFC80BDAB
:102D1000A00700201D080020C00700202808002070
:102D2000700300203C000020B00700209E07002018
:102D300000080020A004002000000240A40700209A
:102D40009F070020B80700208807002030080020D7
:102D5000E60700201E0800208507002064070020E9
:102D6000050000201C0800209C0700201B080020F4
:102D70000804002080B582B000AF984B1B7883F028
:102D80000103DBB2002B02D0944B01221A70934B4B
:102D90001B78002B00F0E380914B1B7883F001033C
:102DA000DBB2002B00F0DB808E4B1B7883F001033D
:102DB000DBB2002B21D08C4B01221A708B4B1B688D
:102DC0005A1F8B4B1B689A4217D8884B1B685A1D99
:102DD000874B1B689A4210D3864804F0F7FB864B5A
:102DE0001B78864A126811461846FEF75FFF7D4B36
:102DF00001221A707F4804F071FB7A4B1B78002B7C
:102E000000F0AD807E4B1B7883F00103DBB2002B1A
:102E10002AD0754B00221A70784B1B685A1F744BCE
:102E20001B689A4220D8754B1B685A1D704B1B6853
:102E30009A4219D3724B01221A70052271497248C5
:102E400005F0EEF801224FF40061704802F066FBD5
:102E50006F4B01221A700220FFF79EFB00224FF4F5
:102E600000616A4802F05AFB654B1B78002B76D054
:102E7000684B1B7883F00103DBB2002B6FD0664BED
:102E80001B68A3F108025A4B1B689A4234D8624B64
:102E90001B6803F10802564B1B689A422CD35F4B08
:102EA0001B78002B0FD05D4B1B781A465200134441
:102EB000DBB20133DBB21A4621215948FFF7E0FAB1
:102EC000584B01221A70554B00221A70564B0122A2
:102ED0001A70564B00221A704D4B00221A7045484A
:102EE00004F074FB524804F071FB3D4B01221A7050
:102EF0003D4B01221A7032E04E4B1B681A1F3C4BAF
:102F00001B689A422BD84B4B1B681A1D384B1B6809
:102F10009A4224D3484B1B881A46464B1B681344DD
:102F2000444A136005223749374805F079F80122F1
:102F30004FF40061354802F0F1FA354B01221A7066
:102F40000220FFF729FB00224FF400612F4802F016
:102F5000E5FA3A4B1B8801339AB2384B1A80204B62
:102F60001B78002B00F0A580354B1B78002B02D07E
:102F700000F0B4F89DE01A4B1B78002B00F099800C
:102F80002B4804F023FB2F4804F020FB1C4B0022AD
:102F90001A70144B00221A701E4B00221A70174B25
:102FA0001B687B601C4A7B6813601B4B1B68134AC1
:102FB0001360254BB3F90030B3F5B27F48DB224BE9
:102FC000B3F900300533002BB8BF5B429AB21F4BF8
:102FD0001A801E4B4FF698621A8041E0A30700202A
:102FE000A1070020A00700201D080020BC0700202A
:102FF00024080020240300203C000020AC0700200F
:103000009E07002000080020A004002000000240CD
:10301000A40700209F070020B40700208507002098
:10302000640700201E080020050000209C070020E7
:10303000080400202C080020E40700208807002056
:10304000A207002070030020EA070020EC07002000
:103050001A4BB3F900309BB205339AB2184B1A8061
:10306000174B1B885B04174A82FB03121A44121287
:10307000DB17D31A1A46144B1A60134B1B68134AFA
:10308000127811461846FFF7FDF803460E4A136002
:103090000E4B1B780C4A126811461846FEF706FEC6
:1030A0000B4B01221A700B4804F018FA0A4804F07E
:1030B00015FA00BF0837BD4680BD00BFEA070020F3
:1030C000EC070020B7600BB6BC0700203C000020D6
:1030D000A2070020080400202403002080B500AFD0
:1030E0006E4B1B7883F00103DBB2002B21D06C4BBD
:1030F00001221A706B4B1B685A1F6B4B1B689A425C
:1031000017D8684B1B685A1D674B1B689A4210D32F
:10311000664804F05BFA664B1B78664A12681146F3
:103120001846FEF7C3FD5D4B01221A705F4804F09C
:10313000D5F95A4B1B78002B00F0AE805E4B1B7804
:1031400083F00103DBB2002B2AD0554B00221A700A
:10315000584B1B685A1F544B1B689A4220D8554B3A
:103160001B685A1D504B1B689A4219D3524B0122BF
:103170001A7005225149524804F052FF01224FF4BF
:103180000061504802F0CAF94F4B01221A70022028
:10319000FFF702FA00224FF400614A4802F0BEF93C
:1031A000454B1B78002B77D0484B1B7883F00103ED
:1031B000DBB2002B70D0464B1B681A1F3A4B1B68C2
:1031C0009A4236D8424B1B681A1D374B1B689A42ED
:1031D0002FD3404B1B78002B0FD03E4B1B781A4649
:1031E00052001344DBB20133DBB21A4621213A48C4
:1031F000FFF746F9394B01221A70364B00221A703C
:10320000374B01221A70374B00221A70364B0022BE
:103210001A70364B01221A702C4B01221A702A4B5D
:1032200000221A70214804F0D1F9314804F0CEF997
:1032300032E0304B1B681A1F1B4B1B689A422BD87D
:103240002C4B1B681A1D184B1B689A4224D32A4B1F
:103250001B881A46274B1B681344264A1360052215
:103260001649174804F0DCFE01224FF400611548AE
:1032700002F054F9144B01221A700220FFF78CF966
:1032800000224FF400610F4802F048F91B4B1B88E5
:1032900001339AB2194B1A8000BF80BDA0070020ED
:1032A0001D080020BC070020240800202403002063
:1032B0003C000020AC0700209E07002000080020F2
:1032C000A004002000000240A40700209F07002067
:1032D000B407002085070020640700201E08002096
:1032E000050000201C0800209C0700201B0800206F
:1032F000080400202C080020E40700208807002094
:1033000080B485B000AF78607B68D3F8843003F078
:103310000803002B08D07B681B6808221A62054B43
:103320001B685B6ADBB2FB7300BF1437BD465DF8F8
:10333000047B7047A004002080B400AF72B600BFC9
:10334000FEE7000080B483B000AF0F4B1B6C0E4A49
:1033500043F0805313640C4B1B6C03F080537B6071
:103360007B68094B5B6C084A43F480435364064B0B
:103370005B6C03F480433B603B6800BF0C37BD4689
:103380005DF8047B704700BF0038024080B58CB008
:1033900000AF786007F11C0300221A605A609A603F
:1033A000DA601A617B681B68984A934240F0A080FB
:1033B000974B1B6C964A43F400431364944B1B6C6D
:1033C00003F40043BB61BB69914B1B6B904A43F014
:1033D000020313638E4B1B6B03F002037B617B695B
:1033E0008B4B1B6B8A4A43F004031363884B1B6BA4
:1033F00003F004033B613B690423FB6102233B624E
:1034000000237B620323BB620723FB6207F11C03DB
:103410001946804801F0EAFD4FF44063FB61022346
:103420003B6200237B620323BB620623FB6207F13E
:103430001C031946784801F0D9FD784B784A1A6088
:10344000764B00225A60754B00229A60734B002223
:10345000DA60724B4FF480621A61704B00225A613D
:103460006E4B00229A616D4B0022DA616B4B002299
:103470001A626A4B00225A62684800F09DFE0346B9
:10348000002B01D0FFF758FF7B68644A9A65634AB6
:103490007B689363634B644A1A60624B00225A60F4
:1034A000604B40229A605F4B0022DA605D4B4FF424
:1034B00080621A615B4B00225A615A4B00229A616A
:1034C000584B0022DA61574B00221A62554B0022FA
:1034D0005A62544800F070FE0346002B01D0FFF7FB
:1034E0002BFF7B684F4A5A654E4A7B68936389E09D
:1034F0007B681B684D4A934240F08480444B5B6C70
:10350000434A43F400535364414B5B6C03F4005350
:10351000FB60FB683E4B1B6B3D4A43F0100313639B
:103520003B4B1B6B03F01003BB60BB686423FB6168
:1035300002233B6200237B620323BB620523FB6201
:1035400007F11C0319463A4801F050FD394B3A4A3D
:103550001A60384B4FF000625A60364B00229A6076
:10356000344B0022DA60334B4FF480621A61314BE6
:1035700000225A612F4B00229A612E4B0022DA6101
:103580002C4B00221A622B4B00225A62294800F071
:1035900013FE0346002B01D0FFF7CEFE7B68254AC1
:1035A0009A65244A7B689363244B254A1A60234B0F
:1035B0004FF000625A60214B40229A601F4B00225C
:1035C000DA601E4B4FF480621A611C4B00225A6174
:1035D0001A4B00229A61194B0022DA61174B002224
:1035E0001A62164B00225A62144800F0E5FD0346A9
:1035F000002B01D0FFF7A0FE7B68104A5A650F4AE6
:103600007B68936300BF3037BD4680BD003C0040FF
:10361000003802400004024000080240A4010020DB
:103620001060024004020020886002400034014023
:10363000001002406402002010640240C402002016
:103640002864024080B588B000AF78607B681B6852
:10365000B3F1804F14D13C4B1B6C3B4A43F0010348
:103660001364394B1B6C03F00103FB61FB690022FF
:1036700000211C2000F05BFD1C2000F074FD5EE0CA
:103680007B681B68314A934214D12F4B1B6C2E4A26
:1036900043F0020313642C4B1B6C03F00203BB6169
:1036A000BB69002200211D2000F041FD1D2000F01B
:1036B0005AFD44E07B681B68254A93420CD1224B9B
:1036C0001B6C214A43F0100313641F4B1B6C03F067
:1036D00010037B617B6932E07B681B681D4A934263
:1036E00014D1194B1B6C184A43F020031364164B7A
:1036F0001B6C03F020033B613B6900220021372053
:1037000000F015FD372000F02EFD18E07B681B68E7
:10371000114A934213D10C4B5B6C0B4A43F40033B8
:103720005364094B5B6C03F40033FB60FB680022BD
:103730000021192000F0FBFC192000F014FD00BF4F
:103740002037BD4680BD00BF003802400004004065
:1037500000100040001400400044014080B5ACB0AF
:1037600000AF786007F19C0300221A605A609A60EB
:10377000DA601A6107F11C0380220021184605F067
:103780001BFF7B681B68534A934240F0B180402383
:10379000FB610023BB6507F11C03184602F00CFC1B
:1037A0000346002B01D0FFF7C7FD4B4B5B6C4A4A29
:1037B00043F010035364484B5B6C03F01003BB6190
:1037C000BB69454B1B6B444A43F001031363424BF7
:1037D0001B6B03F001037B617B694FF4C063C7F887
:1037E0009C300223C7F8A0300023C7F8A43003237D
:1037F000C7F8A8300723C7F8AC3007F19C03194677
:10380000364801F0F3FB364B364A1A60344B4FF022
:1038100000625A60324B00229A60314B0022DA601B
:103820002F4B4FF480621A612D4B00225A612C4BB2
:1038300000229A612A4B0022DA61294B4FF40032B0
:103840001A62274B00225A62254800F0B5FC034655
:10385000002B01D0FFF770FD7B68214A5A67204A90
:103860007B689363204B214A1A601F4B4FF0006224
:103870005A601D4B40229A601B4B0022DA601A4BA3
:103880004FF480621A61184B00225A61164B0022D5
:103890009A61154B0022DA61134B4FF480321A62A1
:1038A000114B00225A62104800F086FC0346002BA0
:1038B00001D0FFF741FD7B680B4A1A670A4A7B6813
:1038C000936300220021252000F031FC252000F028
:1038D0004AFCB6E0001001400038024000000240FF
:1038E000B00500204064024010060020B864024089
:1038F0007B681B68554A934240F0A3804FF4807365
:10390000FB6100233B6607F11C03184602F054FBE1
:103910000346002B01D0FFF70FFD4D4B1B6C4C4AAB
:1039200043F4802313644A4B1B6C03F480233B61F4
:103930003B69474B1B6B464A43F002031363444BFE
:103940001B6B03F00203FB60FB684FF49843C7F85E
:103950009C300223C7F8A0300023C7F8A43003230B
:10396000C7F8A8300723C7F8AC3007F19C03194605
:10397000384801F03BFB384B384A1A60364B4FF061
:1039800000625A60344B00229A60334B0022DA60A6
:10399000314B4FF480621A612F4B00225A612E4B3B
:1039A00000229A612C4B4FF48072DA612A4B00227C
:1039B0001A62294B00225A62274800F0FDFB034699
:1039C000002B01D0FFF7B8FC7B68234A5A67224AD4
:1039D0007B689363224B234A1A60214B4FF00062AD
:1039E0005A601F4B40229A601D4B0022DA601C4B2C
:1039F0004FF480621A611A4B00225A61184B002260
:103A00009A61174B4FF48072DA61154B00221A62EB
:103A1000134B00225A62124800F0CEFB0346002BE3
:103A200001D0FFF789FC7B680D4A1A670C4A7B6856
:103A3000936300220021272000F079FB272000F06B
:103A400092FB00BFB037BD4680BD00BF00480040BC
:103A50000038024000040240700600202860024046
:103A6000D00600205860024080B582B000AF786078
:103A70007B681B681E4A934218D11E4B5B6C1D4A23
:103A800023F0100353644FF4C0611B4801F04AFC5B
:103A90007B685B6F184600F03DFC7B681B6F184627
:103AA00000F038FC252000F06CFB1CE07B681B68F4
:103AB000124A934217D10F4B1B6C0E4A23F48023FA
:103AC00013644FF498410E4801F02CFC7B685B6F47
:103AD000184600F01FFC7B681B6F184600F01AFCAC
:103AE000272000F04EFB00BF0837BD4680BD00BF59
:103AF0000010014000380240000002400048004031
:103B00000004024080B400AFFEE780B400AFFEE7DF
:103B100080B400AFFEE780B400AFFEE780B400AF32
:103B2000FEE780B400AF00BFBD465DF8047B704780
:103B300080B400AF00BFBD465DF8047B704780B421
:103B400000AF00BFBD465DF8047B704780B500AF95
:103B500000F0AAF900BF80BD80B500AF024800F0B8
:103B600029FD00BF80BD00BFA401002080B500AFCB
:103B7000024800F01FFD00BF80BD00BF700600209E
:103B800080B500AF024800F015FD00BF80BD00BF4A
:103B9000D006002080B500AF024800F00BFD00BF4A
:103BA00080BD00BF0402002080B500AF024803F0D2
:103BB0003DFD00BF80BD00BF5404002080B500AFB4
:103BC000024803F033FD00BF80BD00BF2403002086
:103BD00080B500AF024803F029FD00BF80BD00BFE3
:103BE0007003002080B500AF024804F0EFFA00BF78
:103BF00080BD00BFA004002080B500AF024804F0E3
:103C0000E5FA00BF80BD00BF2805002080B500AFE9
:103C1000024803F00BFD00BF80BD00BF0804002078
:103C200080B500AF024800F0C5FC00BF80BD00BFFA
:103C30006402002080B500AF024800F0BBFC00BF6A
:103C400080BD00BFC402002080B500AF024800F074
:103C5000B1FC00BF80BD00BFB005002080B500AF43
:103C6000024800F0A7FC00BF80BD00BF1006002086
:103C700080B586B000AFF860B9607A6000237B61E0
:103C80000AE0AFF300800146BB685A1CBA60CAB2B2
:103C90001A707B6901337B617A697B689A42F0DB39
:103CA0007B6818461837BD4680BD80B586B000AF2A
:103CB000F860B9607A6000237B6109E0BB685A1C38
:103CC000BA601B781846FEF78FF87B6901337B6179
:103CD0007A697B689A42F1DB7B6818461837BD46E3
:103CE00080BD80B483B000AF78604FF0FF331846DA
:103CF0000C37BD465DF8047B704780B483B000AFDD
:103D0000786039603B684FF400525A6000231846CF
:103D10000C37BD465DF8047B704780B483B000AFBC
:103D20007860012318460C37BD465DF8047B704768
:103D300080B485B000AFF860B9607A60002318469F
:103D40001437BD465DF8047B7047000080B586B02F
:103D500000AF7860144A154BD31A7B617B693B61D5
:103D6000134B1B68002B02D1114B124A1A60104BE7
:103D70001A687B6813443A699A4207D205F0F2FB4D
:103D800003460C221A604FF0FF3309E0084B1B6812
:103D9000FB60074B1A687B681344054A1360FB6895
:103DA00018461837BD4680BD0000042000040000FE
:103DB000380800207008002080B400AF064BD3F80C
:103DC0008830054A43F47003C2F8883000BFBD460E
:103DD0005DF8047B704700BF00ED00E0DFF834D0F1
:103DE000FFF7EAFF0C480D490D4A002302E0D458C2
:103DF000C4500433C4188C42F9D30A4A0A4C002335
:103E000001E013600432A242FBD305F0B1FBFCF7E2
:103E100089FB70470000042000000020B000002053
:103E200074A00008B00000206C080020FEE780B5F8
:103E300000AF032000F070F9002000F005F8FFF754
:103E400081FA0023184680BD80B582B000AF78604B
:103E5000124B1A68124B1B7819464FF47A73B3FB56
:103E6000F1F3B2FBF3F3184600F099F90346002B87
:103E700001D001230EE07B680F2B0AD8002279685D
:103E80004FF0FF3000F053F9064A7B6813600023BF
:103E900000E0012318460837BD4680BD40000020E1
:103EA000480000204400002080B400AF064B1B787F
:103EB0001A46064B1B681344044A136000BFBD46F4
:103EC0005DF8047B704700BF480000203C080020DC
:103ED00080B400AF034B1B681846BD465DF8047BF9
:103EE000704700BF3C08002080B584B000AF786008
:103EF000FFF7EEFFB8607B68FB60FB68B3F1FF3F44
:103F000005D00A4B1B781A46FB681344FB6000BFC0
:103F1000FFF7DEFF0246BB68D31AFA689A42F7D869
:103F200000BF00BF1037BD4680BD00BF4800002065
:103F300080B485B000AF78607B6803F00703FB6056
:103F40000B4BDB68BB60BA684FF6FF031340BB60E6
:103F5000FB681A02BB681A43064B1343BB60044A52
:103F6000BB68D36000BF1437BD465DF8047B704763
:103F700000ED00E00000FA0580B400AF044BDB6800
:103F80001B0A03F007031846BD465DF8047B704723
:103F900000ED00E080B483B000AF0346FB7197F9F9
:103FA0000730002B0BDBFB7903F01F02074997F961
:103FB00007305B09012000FA02F241F8232000BF1C
:103FC0000C37BD465DF8047B704700BF00E100E0A0
:103FD00080B483B000AF0346FB7197F90730002B24
:103FE00012DBFB7903F01F020A4997F907305B09DE
:103FF000012000FA02F2203341F82320BFF34F8F53
:1040000000BFBFF36F8F00BF00BF0C37BD465DF828
:10401000047B704700E100E080B483B000AF03464A
:104020003960FB7197F90730002B0ADB3B68DAB285
:104030000C4997F907301201D2B20B4483F80023E0
:104040000AE03B68DAB20849FB7903F00F03043B4E
:104050001201D2B20B441A7600BF0C37BD465DF890
:10406000047B704700E100E000ED00E080B489B01F
:1040700000AFF860B9607A60FB6803F00703FB618A
:10408000FB69C3F10703042B28BF0423BB61FB6951
:104090000433062B02D9FB69033B00E000237B615C
:1040A0004FF0FF32BB6902FA03F3DA43BB681A40F0
:1040B0007B699A404FF0FF317B6901FA03F3D943E2
:1040C0007B680B40134318462437BD465DF8047BDC
:1040D0007047000080B582B000AF78607B68013B1C
:1040E000B3F1807F01D301230FE00A4A7B68013BD3
:1040F00053600F214FF0FF30FFF78EFF054B00227A
:104100009A60044B07221A60002318460837BD4600
:1041100080BD00BF10E000E080B582B000AF7860E5
:104120007868FFF705FF00BF0837BD4680BD80B542
:1041300086B000AF0346B9607A60FB7300237B61F1
:10414000FFF71AFF78617A68B9687869FFF78EFF20
:10415000024697F90F3011461846FFF75DFF00BF82
:104160001837BD4680BD80B582B000AF0346FB71F5
:1041700097F907301846FFF70DFF00BF0837BD4617
:1041800080BD80B582B000AF0346FB7197F9073060
:104190001846FFF71DFF00BF0837BD4680BD80B53C
:1041A00082B000AF78607868FFF794FF0346184646
:1041B0000837BD4680BD000080B586B000AF78608E
:1041C00000237B61FFF784FE38617B68002B01D1FF
:1041D000012399E07B68022283F835207B68002266
:1041E00083F834207B681B681A687B681B6822F0A0
:1041F00001021A600FE0FFF76BFE02463B69D31A1B
:10420000052B08D97B6820225A657B68032283F836
:104210003520032378E07B681B681B6803F00103EB
:10422000002BE8D17B681B681B687B617A69384B7F
:1042300013407B617B685A687B689B681A437B6884
:10424000DB681A437B681B691A437B685B691A4306
:104250007B689B691A437B68DB691A437B681B6A2E
:1042600013437A6913437B617B685B6A042B07D134
:104270007B68DA6A7B681B6B13437A6913437B6143
:104280007B681B687A691A607B681B685B697B6165
:104290007B6923F007037B617B685B6A7A69134360
:1042A0007B617B685B6A042B17D17B689B6A7A69A8
:1042B00013437B617B68DB6A002B0ED0786800F0CB
:1042C00073FB0346002B08D07B6840225A657B684D
:1042D000002283F83520012316E07B681B687A6989
:1042E0005A61786800F02AFB0346FB607B68DB6D4F
:1042F0003F229A40FB689A607B6800225A657B687F
:10430000012283F83520002318461837BD4680BDAA
:104310003F8010E080B584B000AF78607B68002BF0
:1043200001D1012350E07B6893F83530DBB2022BDA
:1043300001D1022348E07B681B681A687B681B6810
:1043400022F001021A607B681B6800221A607B68F9
:104350001B6800225A607B681B6800229A607B6899
:104360001B680022DA607B681B6800221A617B6888
:104370001B6821225A61786800F0E0FA0346FB606E
:104380007B68DB6D3F229A40FB689A607B68002265
:10439000DA637B6800221A647B6800225A647B68B7
:1043A00000229A647B680022DA647B6800221A6526
:1043B0007B6800225A657B68002283F835207B6881
:1043C000002283F83420002318461037BD4680BDF4
:1043D00080B586B000AFF860B9607A603B600023BA
:1043E000FB75FB689B6D3B61FB6893F83430012BD8
:1043F00001D1022348E0FB68012283F83420FB68E6
:1044000093F83530DBB2012B37D1FB68022283F8F9
:104410003520FB6800225A653B687A68B968F868FD
:1044200000F05EFAFB68DB6D3F229A403B699A60C0
:10443000FB681B681A68FB681B6842F016021A606A
:10444000FB681B685A69FB681B6842F080025A616E
:10445000FB681B6C002B07D0FB681B681A68FB68A5
:104460001B6842F008021A60FB681B681A68FB6848
:104470001B6842F001021A6005E0FB68002283F825
:1044800034200223FB75FB7D18461837BD4680BDDE
:1044900080B584B000AF78607B689B6DFB60FFF7F0
:1044A00017FDB8607B6893F83530DBB2022B08D07B
:1044B0007B6880225A657B68002283F834200123C0
:1044C00052E07B681B681A687B681B6822F0160242
:1044D0001A607B681B685A697B681B6822F080023F
:1044E0005A617B681B6C002B03D17B689B6C002B93
:1044F00007D07B681B681A687B681B6822F008027B
:104500001A607B681B681A687B681B6822F00102CE
:104510001A6013E0FFF7DCFC0246BB68D31A052BD8
:104520000CD97B6820225A657B68032283F83520EA
:104530007B68002283F83420032315E07B681B6826
:104540001B6803F00103002BE4D17B68DB6D3F2285
:104550009A40FB689A607B68012283F835207B686B
:10456000002283F83420002318461037BD4680BD52
:1045700080B483B000AF78607B6893F83530DBB2ED
:10458000022B04D07B6880225A6501230CE07B68F3
:10459000052283F835207B681B681A687B681B68D6
:1045A00022F001021A60002318460C37BD465DF860
:1045B000047B704780B586B000AF78600023BB6095
:1045C0008E4B1B688E4AA2FB03239B0A7B617B6890
:1045D0009B6D3B613B691B68FB607B68DB6D082260
:1045E0009A40FB681340002B1AD07B681B681B683D
:1045F00003F00403002B13D07B681B681A687B68E8
:104600001B6822F004021A607B68DB6D08229A4066
:104610003B699A607B685B6D43F001027B685A6579
:104620007B68DB6D01229A40FB681340002B12D09F
:104630007B681B685B6903F08003002B0BD07B68F1
:10464000DB6D01229A403B699A607B685B6D43F0A9
:1046500002027B685A657B68DB6D04229A40FB6826
:104660001340002B12D07B681B681B6803F0020309
:10467000002B0BD07B68DB6D04229A403B699A606B
:104680007B685B6D43F004027B685A657B68DB6D79
:1046900010229A40FB681340002B43D07B681B68B4
:1046A0001B6803F00803002B3CD07B68DB6D1022F5
:1046B0009A403B699A607B681B681B6803F48023FF
:1046C000002B18D07B681B681B6803F40023002BA9
:1046D00008D17B681B6C002B24D07B681B6C78682E
:1046E00098471FE07B689B6C002B1BD07B689B6C02
:1046F0007868984716E07B681B681B6803F4807332
:10470000002B07D17B681B681A687B681B6822F046
:1047100008021A607B681B6C002B03D07B681B6C43
:10472000786898477B68DB6D20229A40FB681340CD
:10473000002B00F08F807B681B681B6803F0100360
:10474000002B00F087807B68DB6D20229A403B695C
:104750009A607B6893F83530DBB2052B36D17B68E5
:104760001B681A687B681B6822F016021A607B6857
:104770001B685A697B681B6822F080025A617B685B
:104780001B6C002B03D17B689B6C002B07D07B68D4
:104790001B681A687B681B6822F008021A607B6835
:1047A000DB6D3F229A403B699A607B68012283F867
:1047B00035207B68002283F834207B681B6D002B3A
:1047C0007ED07B681B6D7868984779E07B681B68B2
:1047D0001B6803F48023002B1DD07B681B681B68BB
:1047E00003F40023002B0DD17B685B6C002B31D0D0
:1047F0007B685B6C786898472CE000BF4000002025
:10480000B5814E1B7B68DB6B002B23D07B68DB6B99
:10481000786898471EE07B681B681B6803F4807308
:10482000002B0FD17B681B681A687B681B6822F01D
:1048300010021A607B68012283F835207B68002211
:1048400083F834207B68DB6B002B03D07B68DB6B49
:10485000786898477B685B6D002B32D07B685B6D16
:1048600003F00103002B22D07B68052283F835205A
:104870007B681B681A687B681B6822F001021A605B
:10488000BB680133BB607A699A4207D37B681B68B7
:104890001B6803F00103002BF2D100E000BF7B682E
:1048A000012283F835207B68002283F834207B685E
:1048B000DB6C002B05D07B68DB6C7868984700E0E8
:1048C00000BF1837BD4680BD80B483B000AF7860AC
:1048D0007B685B6D18460C37BD465DF8047B7047FE
:1048E00080B485B000AFF860B9607A603B60FB6867
:1048F0001B681A68FB681B6822F480221A60FB6838
:104900001B683A685A60FB689B68402B08D1FB68BB
:104910001B687A689A60FB681B68BA68DA6007E00F
:10492000FB681B68BA689A60FB681B687A68DA6083
:1049300000BF1437BD465DF8047B704780B485B076
:1049400000AF78607B681B68DBB2103B134AA2FBA8
:1049500003231B09FB60124AFB6813441B781A46A9
:104960007B68DA65FB68032B08D97B681B681A46ED
:104970000C4B13401A1D7B689A6506E07B681B6828
:104980001A46084B13407A6893657B689B6D1846FE
:104990001437BD465DF8047B704700BFABAAAAAAD6
:1049A000F89F000800FCFFFF80B485B000AF78607E
:1049B0000023FB737B689B6ABB607B689B69002B51
:1049C0001FD1BB68032B56D801A252F823F000BFB9
:1049D000E1490008F3490008E1490008774A000866
:1049E0007B68DB6A03F08073002B46D00123FB73E6
:1049F00043E07B68DB6AB3F1C07F40D10123FB73E6
:104A00003DE07B689B69B3F5005F21D1BB68032B58
:104A100037D801A252F823F0294A00082F4A00088B
:104A2000294A0008414A00080123FB7330E07B68F3
:104A3000DB6A03F08073002B25D00123FB7322E097
:104A40007B68DB6AB3F1C07F1FD10123FB731CE0DD
:104A5000BB68022B03D9BB68032B03D018E00123EA
:104A6000FB7315E07B68DB6A03F08073002B0ED0CC
:104A70000123FB730BE000BF0AE000BF08E000BFAA
:104A800006E000BF04E000BF02E000BF00E000BF9E
:104A9000FB7B18461437BD465DF8047B704700BFAA
:104AA00080B586B000AFF860B960C7E90023274B36
:104AB0001B7D012B01D1022343E0244B01221A75F7
:104AC0004CF2503000F078F80346FB75FB7D002B6C
:104AD00033D1FB68032B23D801A252F823F000BF87
:104AE000F14A0008FD4A0008094B0008154B000870
:104AF0003B781946B86800F021F912E03B88194666
:104B0000B86800F0F5F80CE03B681946B86800F0AA
:104B1000C9F806E0D7E90023B86800F08DF800E096
:104B200000BF4CF2503000F047F80346FB75084BCD
:104B30001B69074A23F001031361044B00221A7515
:104B4000FB7D18461837BD4680BD00BF40080020D9
:104B5000003C024080B483B000AF0023FB710B4BDC
:104B60001B69002B0BDA094B094A5A60074B094AAB
:104B70005A60064B1B69002B01DA0123FB71FB799C
:104B800018460C37BD465DF8047B7047003C024078
:104B900023016745AB89EFCD80B400AF054B1B699E
:104BA000044A43F00043136100231846BD465DF8F4
:104BB000047B7047003C024080B584B000AF786051
:104BC0000023FB601A4B00229A61FFF781F9F8601D
:104BD00010E07B68B3F1FF3F0CD07B68002B07D05F
:104BE000FFF776F90246FB68D31A7A689A4201D237
:104BF000032319E00F4BDB6803F48033002BE8D16B
:104C00000C4BDB6803F4F973002B03D000F0BAF807
:104C1000012309E0074BDB6803F00103002B02D0FE
:104C2000044B0122DA60002318461037BD4680BDD0
:104C300040080020003C024080B485B000AFF8601E
:104C4000C7E90023164B1B69154A23F4407313610F
:104C5000134B1B69124A43F440731361104B1B69D9
:104C60000F4A43F001031361FB683A681A60BFF30F
:104C70006F8F00BFD7E900014FF000024FF0000333
:104C80000A000023F968043113460B60BFF34F8F0D
:104C900000BF00BF1437BD465DF8047B704700BFFE
:104CA000003C024080B483B000AF786039600F4BA5
:104CB0001B690E4A23F4407313610C4B1B690B4AAA
:104CC00043F400731361094B1B69084A43F0010365
:104CD00013617B683A681A60BFF34F8F00BF00BF53
:104CE0000C37BD465DF8047B704700BF003C0240B6
:104CF00080B483B000AF78600B467B800E4B1B699D
:104D00000D4A23F4407313610B4B1B690A4A43F4A9
:104D100080731361084B1B69074A43F00103136159
:104D20007B687A881A80BFF34F8F00BF00BF0C37B3
:104D3000BD465DF8047B7047003C024080B483B000
:104D400000AF78600B46FB700D4B1B690C4A23F4D7
:104D5000407313610A4B0A4A1B691361084B1B69B4
:104D6000074A43F0010313617B68FA781A70BFF3B6
:104D70004F8F00BF00BF0C37BD465DF8047B704706
:104D8000003C024080B400AF284BDB6803F0020314
:104D9000002B05D0264B9B6943F02003244A9361E6
:104DA000224BDB6803F01003002B05D0204B9B69DE
:104DB00043F010031E4A93611C4BDB6803F0200391
:104DC000002B05D01A4B9B6943F00803184A9361E6
:104DD000164BDB6803F04003002B05D0144B9B6996
:104DE00043F00403124A9361104BDB6803F0800325
:104DF000002B05D00E4B9B6943F002030C4A9361D4
:104E00000A4BDB6803F48073002B05D0084B9B69C9
:104E100043F04003064A9361044B4FF4F972DA60A1
:104E200000BFBD465DF8047B704700BF003C0240F8
:104E30004008002080B584B000AF7860396000235E
:104E4000BB602F4B1B7D012B01D1022353E02C4B68
:104E500001221A754CF25030FFF7AEFE0346FB7389
:104E6000FB7B002B43D13B684FF0FF321A607B681D
:104E70001B68012B12D17B68DB68DBB2184600F09F
:104E800043F84CF25030FFF797FE0346FB731D4B7F
:104E90001B691C4A23F00403136128E07B685B68EC
:104EA000BB601CE07B68DB68DBB21946B86800F0C9
:104EB00051F84CF25030FFF77FFE0346FB73114B65
:104EC0001B69104A23F07A031361FB7B002B03D08C
:104ED0003B68BA681A600AE0BB680133BB607B6854
:104EE0009A687B685B681344BA689A42DAD3044BC9
:104EF00000221A75FB7B18461037BD4680BD00BFE7
:104F000040080020003C024080B483B000AF03465C
:104F1000FB710F4B1B690E4A23F4407313610C4B5A
:104F20001B690B4A43F004031361094B1A69FB79AF
:104F30001B021343064A43F480331361BFF34F8FC0
:104F400000BF00BF0C37BD465DF8047B704700BF53
:104F5000003C024080B485B000AF78600B46FB7027
:104F60000023FB60FB78002B02D10023FB6010E0E4
:104F7000FB78012B03D14FF48073FB6009E0FB78D1
:104F8000022B03D14FF40073FB6002E04FF4407337
:104F9000FB60154B1B69144A23F440731361124BD9
:104FA0001A691149FB6813430B610F4B1B690E4AC9
:104FB00023F0F80313610C4B1A697B68DB00134381
:104FC000094A43F002031361074B1B69064A43F485
:104FD00080331361BFF34F8F00BF00BF1437BD464E
:104FE0005DF8047B704700BF003C024080B489B08C
:104FF00000AF786039600023FB6100237B610023F0
:105000003B610023BB610023FB6169E10122FB6975
:1050100002FA03F37B613B681B687A6913403B61CA
:105020003A697B699A4240F058813B685B6803F0BB
:105030000303012B05D03B685B6803F00303022BDD
:1050400030D17B689B68BB61FB695B00032202FA7D
:1050500003F3DB43BA691340BB613B68DA68FB6961
:105060005B0002FA03F3BA691343BB617B68BA6958
:105070009A607B685B68BB610122FB6902FA03F3FB
:10508000DB43BA691340BB613B685B681B0903F0F3
:105090000102FB6902FA03F3BA691343BB617B683F
:1050A000BA695A603B685B6803F00303032B17D0AF
:1050B0007B68DB68BB61FB695B00032202FA03F3D8
:1050C000DB43BA691340BB613B689A68FB695B00CC
:1050D00002FA03F3BA691343BB617B68BA69DA6009
:1050E0003B685B6803F00303022B23D1FB69DA08FA
:1050F0007B68083253F82230BB61FB6903F0070379
:105100009B000F2202FA03F3DB43BA691340BB6131
:105110003B681A69FB6903F007039B0002FA03F37B
:10512000BA691343BB61FB69DA087B680832B96965
:1051300043F822107B681B68BB61FB695B0003229C
:1051400002FA03F3DB43BA691340BB613B685B6857
:1051500003F00302FB695B0002FA03F3BA6913432D
:10516000BB617B68BA691A603B685B6803F44033D3
:10517000002B00F0B280604B5B6C5F4A43F48043CD
:1051800053645D4B5B6C03F48043FB60FB685B4ADC
:10519000FB699B08023352F82330BB61FB6903F0C3
:1051A00003039B000F2202FA03F3DB43BA691340A7
:1051B000BB617B68524A93422BD07B68514A934231
:1051C00025D07B68504A93421FD07B684F4A934258
:1051D00019D07B684E4A934213D07B684D4A934264
:1051E0000DD07B684C4A934207D07B684B4A934270
:1051F00001D107230EE008230CE006230AE0052373
:1052000008E0042306E0032304E0022302E0012374
:1052100000E00023FA6902F0030292009340BA69A9
:105220001343BB613549FB699B080233BA6941F8F6
:1052300023203B4B9B68BB613B69DB43BA6913404E
:10524000BB613B685B6803F48013002B03D0BA6931
:105250003B691343BB61324ABB699360304BDB68E7
:10526000BB613B69DB43BA691340BB613B685B6868
:1052700003F40013002B03D0BA693B691343BB61ED
:10528000274ABB69D360264B5B68BB613B69DB4344
:10529000BA691340BB613B685B6803F40033002BC1
:1052A00003D0BA693B691343BB611D4ABB695360B4
:1052B0001B4B1B68BB613B69DB43BA691340BB6195
:1052C0003B685B6803F48033002B03D0BA693B6909
:1052D0001343BB61124ABB691360FB690133FB6175
:1052E000FB690F2B7FF692AE00BF00BF2437BD468F
:1052F0005DF8047B704700BF003802400038014071
:10530000000002400004024000080240000C02407D
:10531000001002400014024000180240001C02402D
:10532000003C014080B487B000AF78603960002352
:105330003B610023FB600023BB6000237B61CDE069
:1053400001227B6902FA03F33B613A683B6913402F
:10535000FB60FA683B699A4240F0BD80654A7B6910
:105360009B08023352F82330BB607B6903F00303D0
:105370009B000F2202FA03F3BA681340BB607B68FC
:105380005D4A93422BD07B685C4A934225D07B6870
:105390005B4A93421FD07B685A4A934219D07B687C
:1053A000594A934213D07B68584A93420DD07B6888
:1053B000574A934207D07B68564A934201D107234C
:1053C0000EE008230CE006230AE0052308E004238E
:1053D00006E0032304E0022302E0012300E00023AF
:1053E0007A6902F0030292009340BA689A4232D17D
:1053F000494B1A68FB68DB43474913400B60464B37
:105400005A68FB68DB43444913404B60424BDA68FF
:10541000FB68DB4340491340CB603F4B9A68FB6815
:10542000DB433D4913408B607B6903F003039B0022
:105430000F2202FA03F3BB602E4A7B699B080233FA
:1054400052F82310BB68DA432A487B699B080A405C
:10545000023340F823207B681A687B695B000321D4
:1054600001FA03F3DB431A407B681A607B69DA08B0
:105470007B68083253F822107B6903F007039B0016
:105480000F2202FA03F3DB437A69D20819407B68E2
:10549000083243F822107B68DA687B695B000321DD
:1054A00001FA03F3DB431A407B68DA607B685A68D1
:1054B00001217B6901FA03F3DB431A407B685A60E0
:1054C0007B689A687B695B00032101FA03F3DB4385
:1054D0001A407B689A607B6901337B617B690F2B83
:1054E0007FF62EAF00BF00BF1C37BD465DF8047BC2
:1054F000704700BF00380140000002400004024035
:1055000000080240000C024000100240001402405B
:1055100000180240001C0240003C014080B483B0EF
:1055200000AF78600B467B8013467B707B78002B46
:1055300003D07A887B689A6103E07B881A047B68D1
:105540009A6100BF0C37BD465DF8047B704780B49C
:1055500085B000AF78600B467B807B685B69FB6041
:105560007A88FB6813401A04FB68D9437B880B4098
:105570001A437B689A6100BF1437BD465DF8047B0F
:105580007047000080B582B000AF00237B60234BE2
:105590001B6C224A43F080531364204B1B6C03F0B6
:1055A00080533B603B681E4B1B681D4A43F48033AD
:1055B0001360FEF78DFC786009E0FEF789FC024677
:1055C0007B68D31AB3F57A7F01D9032322E0144B09
:1055D0005B6803F48033B3F5803FEED1104B1B685A
:1055E0000F4A43F400331360FEF772FC786009E061
:1055F000FEF76EFC02467B68D31AB3F57A7F01D9B9
:10560000032307E0064B5B6803F40033B3F5003F68
:10561000EED1002318460837BD4680BD0038024051
:105620000070004080B586B000AF78600023FB7545
:105630007B68002B01D1012391E27B681B6803F09A
:105640000103002B00F08780964B9B6803F00C034E
:10565000042B0CD0934B9B6803F00C03082B12D146
:10566000904B5B6803F48003B3F5800F0BD18D4B37
:105670001B6803F40033002B6CD07B685B68002B45
:1056800068D101236BE27B685B68B3F5803F06D18C
:10569000844B1B68834A43F4803313602EE07B689D
:1056A0005B68002B0CD17F4B1B687E4A23F4803350
:1056B00013607C4B1B687B4A23F4802313601DE03E
:1056C0007B685B68B3F5A02F0CD1764B1B68754ADD
:1056D00043F480231360734B1B68724A43F4803396
:1056E00013600BE06F4B1B686E4A23F4803313602A
:1056F0006C4B1B686B4A23F4802313607B685B68E8
:10570000002B13D0FEF7E4FB386108E0FEF7E0FB66
:1057100002463B69D31A642B01D903231FE2614B74
:105720001B6803F40033002BF0D014E0FEF7D0FB2D
:10573000386108E0FEF7CCFB02463B69D31A642BC4
:1057400001D903230BE2574B1B6803F40033002BF2
:10575000F0D100E000BF7B681B6803F00203002B60
:1057600069D0504B9B6803F00C03002B0BD04D4BC2
:105770009B6803F00C03082B1CD14A4B5B6803F4B5
:105780008003002B16D1474B1B6803F00203002B4C
:1057900005D07B68DB68012B01D00123DFE1414BA1
:1057A0001B6823F0F8027B681B69DB003D4913434B
:1057B0000B6040E07B68DB68002B23D0394B1B6813
:1057C000384A43F001031360FEF782FB386108E0BA
:1057D000FEF77EFB02463B69D31A022B01D9032355
:1057E000BDE1304B1B6803F00203002BF0D02D4BC2
:1057F0001B6823F0F8027B681B69DB00294913430F
:105800000B6018E0274B1B68264A23F00103136046
:10581000FEF75EFB386108E0FEF75AFB02463B6983
:10582000D31A022B01D9032399E11E4B1B6803F005
:105830000203002BF0D17B681B6803F00803002BE8
:1058400038D07B685B69002B19D0164B5B6F154A0B
:1058500043F001035367FEF73BFB386108E0FEF7B6
:1058600037FB02463B69D31A022B01D9032376E1A9
:105870000C4B5B6F03F00203002BF0D01AE0094BD6
:105880005B6F084A23F001035367FEF721FB386181
:105890000AE0FEF71DFB02463B69D31A022B03D92F
:1058A00003235CE100380240914B5B6F03F002037D
:1058B000002BEED17B681B6803F00403002B00F083
:1058C000A4808B4B1B6C03F08053002B0DD1884BB5
:1058D0001B6C874A43F080531364854B1B6C03F0A9
:1058E0008053BB60BB680123FB75824B1B6803F4CC
:1058F0008073002B18D17F4B1B687E4A43F4807362
:105900001360FEF7E5FA386108E0FEF7E1FA0246B7
:105910003B69D31A642B01D9032320E1754B1B6823
:1059200003F48073002BF0D07B689B68012B06D1B9
:105930006F4B1B6F6E4A43F0010313672DE07B68CA
:105940009B68002B0CD16A4B1B6F694A23F0010343
:105950001367674B1B6F664A23F0040313671CE051
:105960007B689B68052B0CD1614B1B6F604A43F031
:10597000040313675E4B1B6F5D4A43F0010313671B
:105980000BE05B4B1B6F5A4A23F001031367584B24
:105990001B6F574A23F0040313677B689B68002B37
:1059A00015D0FEF795FA38610AE0FEF791FA024643
:1059B0003B69D31A41F28832934201D90323CEE0E6
:1059C0004B4B1B6F03F00203002BEED014E0FEF7ED
:1059D0007FFA38610AE0FEF77BFA02463B69D31A88
:1059E00041F28832934201D90323B8E0404B1B6F48
:1059F00003F00203002BEED1FB7D012B05D13C4BC4
:105A00001B6C3B4A23F0805313647B689B69002B1B
:105A100000F0A480364B9B6803F00C03082B6BD07E
:105A20007B689B69022B49D1314B1B68304A23F0BC
:105A300080731360FEF74CFA386108E0FEF748FA0D
:105A400002463B69D31A022B01D9032387E0284B76
:105A50001B6803F00073002BF0D17B68DA697B6868
:105A60001B6A1A437B685B6A9B011A437B689B6ACB
:105A70005B08013B1B041A437B68DB6A1B0613436C
:105A80001B4A43F000535360194B1B68184A43F0FC
:105A900080731360FEF71CFA386108E0FEF718FA0D
:105AA00002463B69D31A022B01D9032357E0104B5E
:105AB0001B6803F00073002BF0D04FE00C4B1B6809
:105AC0000B4A23F080731360FEF702FA386108E096
:105AD000FEF7FEF902463B69D31A022B01D90323D4
