:020000040800F2
:1000000000000420FD540008E5500008EB500008F3
:10001000F1500008F7500008FD50000800000000F3
:100020000000000000000000000000000351000874
:1000300011510008000000001F5100082D51000858
:100040004D5500084D5500084D5500084D55000808
:100050004D5500084D5500084D5500084D550008F8
:100060004D5500084D5500084D5500083951000800
:100070004D5100084D5500084D5500084D550008DC
:10008000615100084D5500084D5500084D550008B8
:100090004D5500084D5500084D5500084D550008B8
:1000A00075510008895100084D5500084D5500084C
:1000B000A5510008CD510008F55100084D55000824
:1000C0004D5500084D5500084D5500084D55000888
:1000D0004D550008115200084D55000825520008E2
:1000E0004D5500084D5500084D5500084D55000868
:1000F00039520008795200084D5500084D55000846
:100100004D5500084D550008955200084D55000802
:100110004D5500084D5500084D5500080153000885
:1001200055530008695300087D5300084D550008D9
:100130004D55000800000000000000000000000015
:100140000000000000000000000000004D55000805
:100150004D5500084D5500084D5500084D550008F7
:100160004D5500084D5500084D5500084D550008E7
:100170004D5500084D55000800000000000000002B
:100180004D5500084D5500084D5500084D550008C7
:100190004D5500084D550008000000004D55000861
:1001A0000000000000000000000000004D550008A5
:1001B0004D5500084D5500080000000000000000EB
:1001C000000000000000000000000000000000002F
:1001D0000000000000000000000000004D55000875
:1001E00010B5054C237833B9044B13B10448AFF371
:1001F00000800123237010BD2401002000000000B6
:1002000094B7000808B5034B1BB103490348AFF38B
:10021000008008BD000000002801002094B70008FD
:1002200053B94AB9002908BF00281CBF4FF0FF315D
:100230004FF0FF3000F074B9ADF1080C6DE904CE59
:1002400000F006F8DDF804E0DDE9022304B07047B1
:100250002DE9F047089D04468E46002B4DD18A4279
:10026000944669D9B2FA82F252B101FA02F3C2F1AC
:10027000200120FA01F10CFA02FC41EA030E94403D
:100280004FEA1C48210CBEFBF8F61FFA8CF708FB5E
:1002900016E341EA034306FB07F199420AD91CEB36
:1002A000030306F1FF3080F01F81994240F21C8168
:1002B000023E63445B1AA4B2B3FBF8F008FB1033B0
:1002C00044EA034400FB07F7A7420AD91CEB0404E5
:1002D00000F1FF3380F00A81A74240F207816444B5
:1002E000023840EA0640E41B00261DB1D44000233A
:1002F000C5E900433146BDE8F0878B4209D9002D9E
:1003000000F0EF800026C5E9000130463146BDE827
:10031000F087B3FA83F6002E4AD18B4202D3824291
:1003200000F2F980841A61EB030301209E46002D40
:10033000E0D0C5E9004EDDE702B9FFDEB2FA82F295
:10034000002A40F09280A1EB0C014FEA1C471FFAF3
:100350008CFE0126200CB1FBF7F307FB131140EADA
:1003600001410EFB03F0884208D91CEB010103F1A7
:10037000FF3802D2884200F2CB804346091AA4B269
:10038000B1FBF7F007FB101144EA01440EFB00FE3D
:10039000A64508D91CEB040400F1FF3102D2A645A2
:1003A00000F2BB800846A4EB0E0440EA03409CE741
:1003B000C6F12007B34022FA07FC4CEA030C20FAEE
:1003C00007F401FA06F31C43F9404FEA1C4900FA0E
:1003D00006F3B1FBF9F8200C1FFA8CFE09FB18118B
:1003E00040EA014108FB0EF0884202FA06F20BD9FE
:1003F0001CEB010108F1FF3A80F08880884240F24E
:100400008580A8F102086144091AA4B2B1FBF9F091
:1004100009FB101144EA014100FB0EFE8E4508D98C
:100420001CEB010100F1FF346CD28E456AD9023811
:10043000614440EA0840A0FB0294A1EB0E01A142F6
:10044000C846A64656D353D05DB1B3EB080261EB64
:100450000E0101FA07F722FA06F3F1401F43C5E93E
:10046000007100263146BDE8F087C2F12003D84074
:100470000CFA02FC21FA03F3914001434FEA1C47B6
:100480001FFA8CFEB3FBF7F007FB10360B0C43EAA8
:10049000064300FB0EF69E4204FA02F408D91CEB58
:1004A000030300F1FF382FD29E422DD90238634456
:1004B0009B1B89B2B3FBF7F607FB163341EA0341F6
:1004C00006FB0EF38B4208D91CEB010106F1FF3845
:1004D00016D28B4214D9023E6144C91A46EA00463C
:1004E00038E72E46284605E70646E3E61846F8E6CE
:1004F0004B45A9D2B9EB020864EB0C0E0138A3E717
:100500004646EAE7204694E74046D1E7D0467BE7F7
:10051000023B614432E7304609E76444023842E76F
:10052000704700BF80B400AF084B00221A60074B31
:100530000222DA60054B04225A60044B01229A60C1
:1005400000BFBD465DF8047B704700BF440100203A
:10055000B0B586B000AFF8607A603B600B46FB72C6
:1005600005F088FE1D491E4805F0F4FF0346002BE8
:100570002ED10023FB753B68022B02D10423FB75AF
:1005800004E03B68012B01D10223FB750023BB75FE
:1005900017E0BB7D9B00FA6813441B6800221C46D1
:1005A000154622462B467968386805F009FE034651
:1005B000002B0FD1FB7D7A6813447B60BB7D013338
:1005C000BB75BA7DFB7A9A42E3D305F075FE02E073
:1005D00000BF00E000BF1837BD46B0BD400100209D
:1005E0004401002080B487B000AFF8607A603B60BF
:1005F0000B46FB720023FB7500233B613B68022B1B
:1006000002D10423FB7504E03B68012B01D10223D6
:10061000FB750023BB820FE07B681B683B61BB8AD4
:100620009B00FA6813443A691A60FB7D7A681344A8
:100630007B60BB8A0133BB82FB7A9BB2BA8A9A4247
:10064000EAD300BF00BF1C37BD465DF8047B70478E
:1006500080B483B000AF0346FB80094B1B680022C7
:100660005A6200BF064B1B685A6AFB889A42F9D34C
:1006700000BF00BF0C37BD465DF8047B704700BF6C
:100680004005002080B582B000AF0346FB71FB79C6
:10069000022B02DC002B2CDC64E0043B012B61D834
:1006A000002203210B2005F0D2F80B2005F0EBF817
:1006B00001220321102005F0CAF8102005F0E3F80C
:1006C00000220321382005F0C2F8382005F0DBF8BD
:1006D00001220321392005F0BAF8392005F0D3F8BA
:1006E00000220121192005F0B2F8192005F0CBF8FD
:1006F00039E0012200213A2005F0A9F83A2005F05E
:10070000C2F801220021252005F0A1F8252005F0DE
:10071000BAF801220221372005F099F8372005F0B8
:10072000B2F8002203210B2005F091F80B2005F010
:10073000AAF801220321102005F089F8102005F005
:10074000A2F800220321382005F081F8382005F0B6
:100750009AF801220321392005F079F8392005F0B3
:1007600092F800E000BF00BF0837BD4680BD80B5ED
:1007700000AF002201210B2005F069F80B2005F0E5
:1007800082F8002201210C2005F061F80C2005F010
:100790007AF800220121102005F059F8102005F008
:1007A00072F801220121382005F051F8382005F0B7
:1007B0006AF801220121392005F049F8392005F0B5
:1007C00062F8002201213A2005F041F83A2005F0B4
:1007D0005AF800220121252005F039F8252005F0DE
:1007E00052F800220221372005F031F8372005F0B9
:1007F0004AF800BF80BD000080B582B000AF03465C
:100800003960FB71FB79002B14BF01230023DBB29D
:100810000A21184600F0AAF81C4A3B68136001221E
:100820001921386800F046F80346194A136000227F
:100830001921386800F03EF80346164A136016483E
:1008400008F0DAF9FB79002B03D0144808F0D4F94A
:1008500002E0134808F0D0F9124B01221A70124B33
:100860001B78002B14BF01230023DBB283F00103AC
:10087000DBB203F00103DAB20C4B1A700C4B00220E
:100880001A7000BF0837BD4680BD00BFB801002008
:10089000C0010020BC0100208C0500205C04002069
:1008A00010040020B4010020B6010020B501002092
:1008B000B701002080B485B000AF78600B467B8024
:1008C00013467B707B78002B0FD07A887B681344AB
:1008D000B3F5003F05D37A887B681344A3F5003352
:1008E00012E07A887B6813440EE07B887A689A422B
:1008F00007D87A887B68D31AFB60FB68C3F500339E
:1009000002E07B887A68D31A18461437BD465DF832
:10091000047B704780B582B000AF0346FB71FB7962
:10092000002B03D00B4808F0DFF902E00A4808F07A
:10093000DBF90A4808F0D8F9094B00221A70094B74
:1009400000221A70084BC8221A8000BF0837BD4623
:1009500080BD00BF5C040020100400208C05002036
:10096000B4010020B7010020C601002080B485B08A
:1009700000AF03460A46FB711346BB800023FB60B1
:10098000194BFB60194B1B6800225A62184B1B68FD
:1009900000225A62FB79002B0ED0144B1B689B6A15
:1009A0000133FA68B2FBF3F2BB88B2FBF3F20F4BF0
:1009B0001B68013ADA620DE00D4B1B689B6A01333C
:1009C000FA68B2FBF3F2BB88B2FBF3F2084B1B6888
:1009D000013ADA62074ABB88138000BF1437BD466C
:1009E0005DF8047B704700BF00F36F065C040020D5
:1009F00010040020C401002080B483B000AF03467F
:100A0000FB80FB885A1E044B1B68DA6200BF0C3760
:100A1000BD465DF8047B70478C05002080B485B02E
:100A200000AF78600B467B800023FB60144BFB60BB
:100A30007B681B78002B0ED0124B1B689B6A01331E
:100A4000FA68B2FBF3F27B88B2FBF3F20D4B1B6842
:100A5000013ADA620DE00C4B1B689B6A0133FA68BD
:100A6000B2FBF3F27B88B2FBF3F2074B1B68013A4F
:100A7000DA6200BF1437BD465DF8047B704700BFE3
:100A800000F36F065C0400201004002080B485B0E1
:100A900000AF78600B46FB700023FB7307E0FB7B25
:100AA0007A68134400221A70FB7B0133FB73FA7BD4
:100AB000FB789A42F3D300BF00BF1437BD465DF800
:100AC000047B704780B485B000AF78600B46FB7044
:100AD0001346BB70BB78FB7307E0FB7B7A6813445B
:100AE00000221A70FB7B0133FB73FA7BFB789A427E
:100AF000F3D300BF00BF1437BD465DF8047B7047D9
:100B00002DE9B04F86B000AF78600B467B8013466E
:100B10007B707B88DAB27B78D31ADBB2013B7B73C4
:100B20004FF000024FF00003C7E904237B78FB81FC
:100B300012E0FB899B007A6813441B6800221C4664
:100B40001546D7E9042312EB040843EB0509C7E96E
:100B50000489FB890133FB817B7B9BB2FA899A4232
:100B6000E7D97A887B785B00D31ADA179A469346DE
:100B700052465B46D7E90401FFF752FB02460B469B
:100B80001346BB60BB6818461837BD46BDE8B08F3A
:100B900080B485B000AF786039607B681B68FB600B
:100BA0003B681A687B681A603B68FA681A6000BF85
:100BB0001437BD465DF8047B704780B584B000AF44
:100BC00078600B467B802CE00023FB730023BB6026
:100BD0001DE0BB689B007A6813441A68BB68013348
:100BE0009B0079680B441B689A420DD9BB689B0037
:100BF0007A68D018BB6801339B007A6813441946A1
:100C0000FFF7C6FF0123FB73BB680133BB607B8822
:100C1000BA689A42DDDBFB7B83F00103DBB2002B79
:100C200005D17B885A1E7A80002BCDD100E000BF11
:100C300000BF1037BD4680BD80B582B000AF04F064
:100C400086FC00F08FFB00F075FF00F021FF00F044
:100C5000E3FE00F0A9FE00F02FFC00F0EFFB00F037
:100C600069FC00F0B5FC00F0A1FD00F0D5FD00F03E
:100C70002FFE00F04BFD00F073FE00F04DFE00F083
:100C800001FE00F0F3FC03F05FFD9D4B1B78002B91
:100C900001D000F0DDFF9B4B1B78002B00F00181A1
:100CA000994B1B8801339AB2974B1A8002F0A8FC2B
:100CB000964B1B78012B0BD0944B1B78022B07D043
:100CC000924B1B78032B03D0904B1B78042B46D1FF
:100CD0008F4B1B78002B42D00023FB7110E0FB7977
:100CE0008C4A127811468C4AD25C8C4B5A54FB7950
:100CF0000133FB71874B1B780133DAB2854B1A70D5
:100D0000FB79022BEBD9824B00221A70844B1B78A3
:100D10000133DAB2824B1A70814B1B789AB2814B45
:100D20001A80814B1B6801337F4A13607F4B1B88FD
:100D300001339AB27D4B1A80794B1B780A2B0ED166
:100D4000774B00221A70734B01221A70784B0122E4
:100D50001A70784B1B8801339AB2764B1A806B4B12
:100D60001B78052B40F09A80694B1B78002B00F014
:100D700084800023BB7110E0BB796F4A1278114662
:100D8000654AD25C6D4B5A54BB790133BB716A4BD7
:100D90001B780133DAB2684B1A70BB79022BEBD99E
:100DA0005B4B00221A705E4B1B780133DAB25C4B4E
:100DB0001A705B4B1B789AB25A4B1A805A4B1B68BD
:100DC0000133594A1360594B1B8801339AB2574B70
:100DD0001A80534B1B78322B4FD1594807F084FFB0
:100DE0004F4B1B789BB21A46520013449BB21946D4
:100DF000524803F0DDFB4A4B1B789BB21946514821
:100E0000FFF7DBFE464B1B789BB20C2219464D4880
:100E1000FFF776FE03464C4A1360414B00221A70DE
:100E2000454B00221A70494B00221A7021213B4881
:100E3000FFF72CFE444B1B68DAB2384B5A70424B1A
:100E40001B681B0ADAB2354B9A703F4B1B681B0CB0
:100E5000DAB2324BDA70314B5A78304B1A712F4B71
:100E60009A782E4B5A712D4BDA782C4B9A71304B65
:100E700001221A70364B01221A70354B1B78002B59
:100E80000CD02B4B1B78002B08D1204B00221A7062
:100E9000304B01221A702E4B00221A70194B00227F
:100EA0001A702D4B1B78002B5CD0184B1B78013B24
:100EB000082B53D801A252F823F000BFF30E00080C
:100EC000F90E00085D0F00085D0F00085D0F0008B7
:100ED000E70E00085D0F0008E10E0008ED0E0008A7
:100EE00002F000FC3BE002F09BFC38E002F03CFC2E
:100EF00035E002F0DBFC32E002F0D8FC2FE000BF6E
:100F00003D0B00203C0B002012090020440B002068
:100F10005601002000000020D409002060010020BC
:100F20005D010020BA090020380900200C090020CA
:100F3000550100202009002009090020DC090020BB
:100F400024060020740A00204809002081010020A6
:100F500068090020430B00203E0B002000BF894B96
:100F600000221A70884B1B78002B2CD0874B1B78E3
:100F7000013B082B23D801A252F823F0B30F00083D
:100F8000B90F0008BF0F0008BF0F0008BF0F00080F
:100F9000A70F0008BF0F0008A10F0008AD0F000841
:100FA00002F0A0FB0CE002F03BFC09E002F0DCFBED
:100FB00006E002F01BFE03E002F0B8FF00E000BF15
:100FC000714B00221A70724B1B78002B40D0714B72
:100FD0001B78002B1DD0704B1B78002B19D16F4B49
:100FE00000221A706B4B1B781A4652001344DBB276
:100FF0000133DBB21A4621216948FFF763FD664BD6
:1010000001221A70634B00221A70664B01221A707B
:101010001EE0604B1B78002B1AD15F4B1B78002B16
:1010200016D15A4B00221A705F4B00221A705F4B88
:1010300001221A70564B00221A70584B00221A7067
:101040005B4B00221A60FFF792FB5A4807F04CFEF8
:10105000594B1B78002B1FD0584B1B78002B1BD0F3
:10106000574B1B78052B17D1534B00221A70534B4B
:1010700000221A70524BFF221A70444B04221A703D
:101080004A4B02221A704F4B01221A700420FFF7BC
:10109000F9FA4D4807F0B0FD3C4B1B78052B39D1D0
:1010A000454B1B78002B13D0444B1B78002B0FD0E3
:1010B000414B00221A70414B00221A700520FFF7A5
:1010C000E1FA424B1B6800225A62404807F094FD47
:1010D0003F4B1B78002B1DD03D4B00221A70052280
:1010E0003C493D4808F084FB01224FF400613B4835
:1010F00005F0A4FD294B01221A700A20FFF7A8FA77
:1011000000224FF40061354805F098FD2F4B1B6815
:1011100000225A62324B1B78002B00F0B880304B13
:1011200000221A70274B1B78002B61D02D4B002218
:101130001A802D4B00221A8005222649264808F0E5
:1011400057FB01224FF40061244805F077FD134B53
:1011500001221A700A20FFF77BFA00224FF4006187
:101160001E4805F06BFD184B1B6800225A621F4891
:1011700007F042FD134B00221A700E4807F03CFDA9
:101180007FE000BF3E0B00203F0B0020440B0020FF
:101190005F0900205D01002055010020560100205C
:1011A000600100200000002081010020430B00208E
:1011B000380900207006002063090020640900201F
:1011C000AE00002062090020BC060020240600209A
:1011D0006609002058010020080700200000024096
:1011E000650900201009002012090020F4040020E5
:1011F00005224A494A4808F0FBFA01224FF40061EF
:10120000484805F01BFD484B01221A700A20FFF7E1
:101210001FFA00224FF40061424805F00FFD4348D9
:1012200007F062FD424B1B881A4613461B049B1AAB
:101230001A46404B1A603D4B1B685A6A3D4B1B686F
:1012400013443C4A13603A4B00221A80374B1B6808
:1012500000225A62354807F0CFFC03F053F90346E9
:10126000354A1360354807F09FFC344B1B68324AFF
:101270001268DA62314B1B6800225A622F4807F06D
:10128000BBFC2F4B1B8801339AB22D4B1A802D4B80
:101290001B78002B09D02C4B1B7883F00103DBB2A9
:1012A000002B02D0294807F0A7FC294B1B78002B04
:1012B0003FF4EBAC274B1B881A46274B1B8819467B
:1012C000264B1B880B449A4215DD254B1878224B80
:1012D0001A88224B1B8813449BB21946FFF746FB22
:1012E0001B4B00221A70194B1B6800225A621748C8
:1012F00007F082FCC9E41A4B1B78164A1288114683
:101300001846FFF733FB114807F0EEFC104B0022A4
:101310001A700D4B01221A70B7E400BF580100206B
:10132000080700200000024056010020700600203F
:10133000180900202809002030090020BC060020E0
:1013400016090020B4010020B7010020A8040020E5
:10135000420B0020C6010020C40100203400002000
:10136000AC00002080B594B000AF07F1200330221C
:101370000021184609F008FD07F10C0300221A604D
:101380005A609A60DA601A612A4B1B6C294A43F052
:1013900080531364274B1B6C03F08053BB60BB6806
:1013A000254B1B68244A43F440431360224B1B68BF
:1013B00003F440437B607B6801233B624FF480333E
:1013C0007B620223BB634FF48003FB6308233B640F
:1013D000D8237B640223BB640223FB6407F1200350
:1013E000184605F0AFFC0346002B01D003F072FA5B
:1013F00005F058FC0346002B01D003F06BFA0F23D5
:10140000FB6002233B6100237B614FF4A053BB616F
:101410004FF4A053FB6107F10C030721184605F0B8
:1014200035FF0346002B01D003F054FA00BF5037BC
:10143000BD4680BD003802400070004080B500AF5E
:101440001B4B1C4A1A601A4B4FF482725A60184B9D
:1014500000229A60164B4FF4E062DA60144B0222CD
:101460001A61134B00225A61114B4FF400729A61BA
:101470000F4B3822DA610E4B00221A620C4B00220D
:101480005A620B4B00229A62094B0722DA62084B20
:1014900000221A63064B08225A63054806F064FCD2
:1014A0000346002B01D003F015FA00BF80BD00BF3A
:1014B000C8010020003C004080B500AF1B4B1C4A17
:1014C0001A601A4B4FF482725A60184B00229A60CD
:1014D000164B4FF4E062DA60144B02221A61134B90
:1014E00000225A61114B4FF400729A610F4B38225F
:1014F000DA610E4B00221A620C4B00225A620B4B2F
:1015000000229A62094B0722DA62084B00221A6312
:10151000064B08225A63054806F026FC0346002BBA
:1015200001D003F0D7F900BF80BD00BF2C0200201E
:101530000034014080B588B000AF07F110030022ED
:101540001A605A609A60DA603B1D00221A605A6085
:101550009A601E4B4FF080421A601C4B6B225A60FF
:101560001A4B00229A60194B46F2A712DA60174B09
:1015700000221A61154B00229A61144807F04CFAB8
:101580000346002B01D003F0A5F94FF480533B61D3
:1015900007F1100319460D4807F02EFD0346002BF6
:1015A00001D003F097F900237B600023FB603B1D13
:1015B0001946064807F05CFF0346002B01D003F0F4
:1015C00089F900BF2037BD4680BD00BF1004002050
:1015D00080B588B000AF07F1100300221A605A608E
:1015E0009A60DA603B1D00221A605A609A601D4BB7
:1015F0001D4A1A601B4B6B225A601A4B00229A60DC
:10160000184B43F67F62DA60164B00221A61154BC5
:1016100000229A61134807F0FFF90346002B01D01E
:1016200003F058F94FF480533B6107F1100319465A
:101630000C4807F0E1FC0346002B01D003F04AF907
:1016400000237B600023FB603B1D1946054807F023
:101650000FFF0346002B01D003F03CF900BF2037F9
:10166000BD4680BD5C0400200004004080B588B009
:1016700000AF07F1100300221A605A609A60DA6026
:101680003B1D00221A605A609A601E4B1E4A1A6067
:101690001C4B42F62F225A601A4B00229A60194BBB
:1016A00041F28732DA60174B00221A61154B002293
:1016B0009A61144807F0B0F90346002B01D003F0FB
:1016C00009F94FF480533B6107F1100319460D48A7
:1016D00007F092FC0346002B01D003F0FBF8002337
:1016E0007B600023FB603B1D1946064807F0C0FEE7
:1016F0000346002B01D003F0EDF800BF2037BD46B4
:1017000080BD00BFA80400200008004080B588B05C
:1017100000AF07F1100300221A605A609A60DA6085
:101720003B1D00221A605A609A601E4B1E4A1A60C6
:101730001C4B42F62F225A601A4B00229A60194B1A
:101740004FF0FF32DA60174B00221A61154B00226E
:101750009A61144807F060F90346002B01D003F0AA
:10176000B9F84FF480533B6107F1100319460D4857
:1017700007F042FC0346002B01D003F0ABF8002336
:101780007B600023FB603B1D1946064807F070FE96
:101790000346002B01D003F09DF800BF2037BD4663
:1017A00080BD00BFF4040020000C004080B584B070
:1017B00000AF3B1D00221A605A609A60144B154A14
:1017C0001A60134B6B225A60114B00229A60104B27
:1017D0004FF6FF72DA600E4B00229A610C4807F058
:1017E0001BF90346002B01D003F074F800237B6043
:1017F0000023FB603B1D1946054807F039FE0346F0
:10180000002B01D003F066F800BF1037BD4680BD45
:10181000400500200010004080B584B000AF3B1DA3
:1018200000221A605A609A60144B154A1A60134BD2
:101830006B225A60114B00229A60104B6322DA60CF
:101840000E4B00229A610D4807F0E6F80346002B84
:1018500001D003F03FF800237B600023FB603B1DB9
:101860001946064807F004FE0346002B01D003F09A
:1018700031F800BF1037BD4680BD00BF8C05002089
:101880000014004080B500AF0F4B104A1A600E4B99
:1018900042F62F225A600C4B00229A600A4B41F20A
:1018A0008732DA60084B00221A61074B00229A61E6
:1018B0000821054807F048FA0346002B01D003F041
:1018C00009F800BF80BD00BFD805002000400140DE
:1018D00080B500AF0E4B0F4A1A600D4B45F25F42C8
:1018E0005A600B4B00229A60094B4FF6FF72DA6088
:1018F000074B00221A61064B00229A61044807F048
:101900008BF80346002B01D002F0E4FF00BF80BD3E
:10191000240600200044014080B500AF0E4B0F4A62
:101920001A600D4B40F237425A600B4B00229A600E
:10193000094B4FF6FF72DA60074B00221A61064B23
:1019400000229A61044807F067F80346002B01D093
:1019500002F0C0FF00BF80BD70060020001C0040E8
:1019600080B500AF0E4B0F4A1A600D4B45F25F4237
:101970005A600B4B00229A60094B4FF6FF72DA60F7
:10198000074B00221A61064B00229A61044807F0B7
:1019900043F80346002B01D002F09CFF00BF80BD3E
:1019A000BC0600200020004080B500AF184B1B682B
:1019B0009A68174B1B6842F001029A60144B154A53
:1019C0001A60134B4FF416425A60114B00229A6072
:1019D0000F4B0022DA600E4B00221A610C4B0C22D6
:1019E0005A610B4B00229A61094B0022DA61084BC5
:1019F00000221A62064B00225A62054807F0E4FDF5
:101A00000346002B01D002F065FF00BF80BD00BF80
:101A1000080700200010014080B500AF194B1B687B
:101A20009A68184B1B6842F001029A60164B174ADD
:101A30001A60154B4FF4E1325A60134B00229A6042
:101A4000114B0022DA60104B00221A610E4B0C225F
:101A50005A610D4B00229A610B4B0022DA610A4B4E
:101A600000221A62084B00225A6200230022002141
:101A7000054809F0F7F80346002B01D002F02AFFD1
:101A800000BF80BD080700209007002000480040EC
:101A900080B582B000AF264B1B6B254A43F4001380
:101AA0001363234B1B6B03F400137B607B68204B99
:101AB0001B6B1F4A43F4800313631D4B1B6B03F422
:101AC00080033B603B68002201210B2003F0BFFE36
:101AD0000B2003F0D8FE002201210C2003F0B7FEFA
:101AE0000C2003F0D0FE00220121102003F0AFFEF5
:101AF000102003F0C8FE01220121382003F0A7FEC8
:101B0000382003F0C0FE01220121392003F09FFE9E
:101B1000392003F0B8FE002201213A2003F097FE9D
:101B20003A2003F0B0FE00BF0837BD4680BD00BFBD
:101B30000038024080B58AB000AF07F114030022DC
:101B40001A605A609A60DA601A613D4B1B6B3C4A1E
:101B500043F0100313633A4B1B6B03F010033B611C
:101B60003B69374B1B6B364A43F080031363344B9E
:101B70001B6B03F08003FB60FB68314B1B6B304A2F
:101B800043F0010313632E4B1B6B03F00103BB6097
:101B9000BB682B4B1B6B2A4A43F004031363284B8F
:101BA0001B6B03F004037B607B68254B1B6B244A93
:101BB00043F002031363224B1B6B03F002033B60F1
:101BC0003B6800224FF407611E4805F037F80022F9
:101BD00020211D4805F032F8002203211B4805F0A2
:101BE0002DF84FF407637B610123BB610023FB6188
:101BF00000233B6207F114031946124804F086FDE6
:101C000020237B610123BB610023FB6100233B6236
:101C100007F1140319460C4804F078FD03237B6197
:101C20000123BB610023FB6100233B6207F1140326
:101C30001946064804F06AFD00BF2837BD4680BD3E
:101C40000038024000000240000802400004024048
:101C500080B584B000AF9D4B1B78013B1F2B01F278
:101C6000E08001A252F823F0E91C0008B12000082E
:101C70005B1D0008232E000859250008A526000832
:101C8000F5260008FB270008D3280008A129000832
:101C9000CF290008E7290008232E0008F9290008A9
:101CA000432A00085B2A0008352B0008552B000842
:101CB000752B0008AB2B0008132C0008232E0008FE
:101CC000232E0008C12C0008632D0008BB2D00083E
:101CD000232E0008232E0008232E0008232E0008A0
:101CE000232E0008A12D000805227949794806F025
:101CF000E7F805227849794806F0E2F8784B1B7836
:101D000083F00103DBB2002B21D0764B1B7883F0EC
:101D10000103DBB2002B1AD0734B5B6F93F83530A5
:101D2000DBB2012B13D1052270496F4807F060FD2B
:101D300001224FF400616E4804F080FF0A20FEF794
:101D400087FC00224FF40061694804F077FF00210E
:101D5000012001F095FA01F064B80121032001F09F
:101D60008FFA644B00221A80634B00221A805D4B6D
:101D700001221A70614B00221A70594B00221A700E
:101D80005F4B00221A705F4B00221A705E4B4F4A65
:101D900092E803001860043319805B4B9B78013B89
:101DA0005A4A13441B7A1AB2594B1A80564B5B7825
:101DB000013B564A13441B7A9BB2C3F5B4739BB2E2
:101DC0001AB2544B1A80524BB3F90030B42B07D1DE
:101DD000504BB3F90030B42B02D1484B01221A709A
:101DE000494BDB78013B4C4A083332F813204B4B0C
:101DF0001A804A4B1B88184602F022FC444BB3F968
:101E000000309BB205339AB2454B1A80454B0022F5
:101E10001A70454B00221A70444B00221A70444B32
:101E200000221A70434B00221A70434B00221A7092
:101E30003B4B1B885B04414A82FB03121A4412127B
:101E4000DB17D31A1A463E4B1A603D4B1B682C4ACF
:101E500012781146184601F019FB0346384A136000
:101E6000274B1B78364A12681146184601F078F85D
:101E7000274BB3F900305B04304A82FB03121A444B
:101E80001212DB17D31A1A462E4B1A602D4B1B6801
:101E90001B4A12781146184601F0F8FA0346294AFF
:101EA00013601E4B1B881A46264B1B681344B3F560
:101EB000003F4BD9194B1B881A46224B1B68134411
:101EC000A3F500331A46204B1A6048E0BC090020F5
:101ED000D80800202C020020E0080020C8010020C3
:101EE0008101002054010020080700205801002033
:101EF000000002400C09002016090020690900209A
:101F0000AC00002055010020C40900204000002042
:101F1000B4090020B609002050000020B0090020BC
:101F2000B8090020590900205B0900205A09002047
:101F30005C0900205D0900205E090020B7600BB637
:101F40007C0900206C09002088090020494B1B886F
:101F50001A46494B1B6813441A46484B1A60464BB5
:101F60001B68444A12889B1A1A46444B1A60444B19
:101F70001B78002B4DD0434BB3F900305B04424A31
:101F800082FB03121A441212DB17D31A3F4A136062
:101F90003E4B1B681A463E4B1B781946104601F013
:101FA00075FA03461A46394B1A60384B1B68B3F56D
:101FB000347F0CDA354B1B68A3F53473002BB8BFA4
:101FC0005B42C3F500331A46324B1A6006E02F4BD2
:101FD0001B68A3F534731A462E4B1A60294BB3F9CC
:101FE000003004335B04284A82FB03121A441212A5
:101FF000DB17D31A1A46284B1A60274B1B68244A52
:1020000012781146184601F041FA0346224A13603D
:1020100018E01C4BB3F900305B041B4A82FB03122F
:102020001A441212DB17D31A1A461B4B1A601A4BAA
:102030001B68174A12781146184601F027FA034622
:10204000154A1360154B02221A70154B02221A70A2
:10205000144B01221A70144BC8221A800C4B1B78A7
:102060001A46124B1B6819461046FEF7C5FB00F0D6
:10207000D8BE00BFB00900206C09002088090020EC
:1020800069090020B6090020B7600BB6840900205A
:10209000AC0000204C09002074090020440B0020F3
:1020A000430B0020450B0020C6010020480B0020F8
:1020B0000121022001F0E4F89B4B00221A809B4B87
:1020C00000221A809A4B00221A809A4B01221A7021
:1020D000994B00221A70994B00221A80984B0022CB
:1020E0001A80984B00221A70974B1B78002B14BF54
:1020F00001230023DAB2954B1A70954B00221A7017
:102100000120FEF7BFFA934B934A92E80300186050
:10211000043319808F4B9B78013B904A13441B7A00
:102120001AB2814B1A808B4B5B78013B8B4A13446C
:102130001B7A9BB2C3F5B4739BB21AB27B4B1A8065
:10214000794BB3F90030B42B07D1784BB3F9003099
:10215000B42B02D1784B01221A70734BB3F90030C3
:102160009BB205339AB2724B1A807D4B00221A70D3
:102170007C4B00221A707C4B00221A70734B1B7828
:1021800083F00103DBB2002B00F00A81714BDB7896
:10219000013B764A083332F81320754B1A80744B92
:1021A0001B88184602F04CFA614B1B885B04714A8D
:1021B00082FB03121A441212DB17D31A1A466E4B13
:1021C0001A606D4B1B68614A12781146184601F07F
:1021D0005DF90346684A13605C4B1B78664A1268D7
:1021E0001146184600F0BCFE4F4BB3F900305B04BB
:1021F000604A82FB03121A441212DB17D31A1A46E2
:102200005E4B1A605D4B1B68504A127811461846A7
:1022100001F03CF90346594A1360584B1B68544A75
:1022200012889B1A1A46564B1A60434B1B78002B98
:102230004DD03E4BB3F900305B044E4A82FB031293
:102240001A441212DB17D31A4E4A13604D4B1B6807
:102250001A463E4B1B781946104601F017F9034603
:102260001A46484B1A60474B1B68B3F5347F0CDAAB
:10227000444B1B68A3F53473002BB8BF5B42C3F516
:1022800000331A46404B1A6006E03E4B1B68A3F52C
:1022900034731A463C4B1A60244BB3F900300433B4
:1022A0005B04344A82FB03121A441212DB17D31A5E
:1022B0001A46364B1A60354B1B68244A1278114671
:1022C000184601F0E3F80346304A136018E0174B54
:1022D000B3F900305B04274A82FB03121A4412123E
:1022E000DB17D31A1A46294B1A60284B1B68174A6A
:1022F00012781146184601F0C9F80346234A1360C4
:10230000234B01221A70234B02221A70224BC8223F
:102310001A800E4B1B781A46204B1B681946104634
:10232000FEF76AFA00F07ABDB4090020B609002071
:10233000B809002054010020690900200C09002080
:102340001609002081010020460B0020AC0000206F
:1023500055010020C4090020BC09002040000020D5
:10236000590900205B0900205A0900205000002074
:10237000B0090020B7600BB67C0900206C09002072
:1023800088090020840900204C09002074090020DD
:10239000440B0020430B0020C6010020480B002006
:1023A0009F4B1B78002B00F039859E4BDB78013B5F
:1023B0009D4A083332F813209C4B1A809B4B1B8894
:1023C000184602F03DF99A4B1B885B04994A82FB40
:1023D00003121A441212DB17D31A1A46964B1A60CC
:1023E000954B1B688E4A12781146184601F04EF83C
:1023F0000346914A13608A4B1B788F4A1268114634
:10240000184600F0ADFD8D4BB3F900305B04894AEE
:1024100082FB03121A441212DB17D31A1A46884B96
:102420001A60874B1B687E4A12781146184601F0E5
:102430002DF80346824A1360814B1B687B4A128841
:102440009B1A1A467F4B1A607F4B1B78002B4DD08E
:102450007E4BB3F900305B04764A82FB03121A44C8
:102460001212DB17D31A7A4A1360794B1B681A468B
:102470006B4B1B781946104601F008F803461A46C4
:10248000734B1A60724B1B68B3F5347F0CDA704BD8
:102490001B68A3F53473002BB8BF5B42C3F5003350
:1024A0001A466C4B1A6006E0694B1B68A3F534733F
:1024B0001A46684B1A60654BB3F9003004335B046D
:1024C0005C4A82FB03121A441212DB17D31A1A4613
:1024D000614B1A60604B1B68514A127811461846CE
:1024E00000F0D4FF03465C4A136018E0574BB3F981
:1024F00000305B044F4A82FB03121A441212DB17AE
:10250000D31A1A46544B1A60534B1B68444A12782C
:102510001146184600F0BAFF03464F4A13604E4B6F
:102520001A68474B1B689A4202D24C4B01221A7020
:102530004B4B01221A704B4B02221A704A4BC82295
:102540001A80374B1B781A46484B1B6819461046B1
:10255000FEF752F900F062BC324B454A92E80300A4
:10256000186004331980434B1B6800225A62424BA7
:1025700001221A70414B1B78002B03D0404B0522DF
:102580001A7002E03E4B00221A703E4B00221A7075
:10259000244B5B78013B3C4A52F82320214B9B782B
:1025A000013B3A4931F813301946104601F088FFD3
:1025B0000346374A1360374806F0F6FA194B5B7842
:1025C0005A1E344B1B68304951F82220DA62314BD5
:1025D0001B6800225A62304806F0E6FA114B9B78DD
:1025E000013B2A4A32F813202C4B1A802B4B1A88B5
:1025F000294B1B68DA62294B1B881A4613469B003D
:1026000013449B001A46264B1A60234B1B6800227A
:102610005A620121052000F033FE00F002BC00BF29
:10262000AC000020C409002050000020B2090020A6
:10263000B8090020B7600BB680090020B40900205B
:10264000700900208C09002069090020B6090020CB
:10265000840900204C09002078090020600900202E
:10266000440B0020430B0020C60100204C0B00202F
:10267000BC090020700600206709002063090020C3
:10268000AE0000205F0900207000002094000020B0
:102690003C090020F4040020BC0600200A090020A8
:1026A0002C0900200121062000F0EAFDA24B1B6846
:1026B000A24A1360A24B00221A7000221021A148E6
:1026C00004F0BCFAA04B1B681946002000F048FC3F
:1026D0004FF4C8710020FEF749F99C4806F08CFAC7
:1026E0009B4806F089FA9B4B06221A709A4B0122EE
:1026F0001A7096E30121072000F0C2FD954B1B786C
:10270000062B68D0062B70DC022B02DC002B03DCCE
:102710006BE0042B2ED068E00120FEF7FBF80020D0
:10272000FEF7F8F88D4B1B78002B13D08C4B1B78E1
:10273000002B0FD1894B1B781A4652001344DBB291
:102740000133DBB21A4621218648FEF7BBF9844BE0
:1027500001221A70814B00221A70834B01221A70D9
:10276000824B00221A70824B00221A70814B002289
:102770001A703BE0804806F017FA804806F014FA19
:102780007F4806F011FA754B1B78002B13D0744B61
:102790001B78002B0FD1714B1B781A465200134443
:1027A000DBB20133DBB21A4621216E48FEF78AF90B
:1027B0006B4B01221A70694B00221A706A4B01227E
:1027C0001A706A4B00221A70694B00221A706D4B06
:1027D00000221A800AE05E4806F086FA6A4806F08F
:1027E00083FA5A4806F080FA00E000BF594B0022F5
:1027F0001A70594B01221A7013E30121082000F0CE
:102800003FFD0023FB80614BDB78002B30D0604B19
:1028100000221A605F4B01221A705C4B9B789BB2BE
:102820001B02FB80594B5B789AB2FB881343FB80F9
:10283000FB885B04584A82FB03121A441212DB170E
:10284000D31A1A46524B1A60514B1B68514A1278E0
:102850001146184600F01AFE03464D4A13604D4BD0
:102860001B784B4A12681146184600F079FBD8E2F3
:102870004A4B00221A60474B00221A70434B9B7848
:102880009BB21B02FB80414B5B789AB2FB881343DF
:10289000FB80FB885B04404A82FB03121A4412123D
:1028A000DB17D31A1A463D4B1A603C4B1B68394A5A
:1028B00012781146184600F0E9FD0346374A1360C6
:1028C000344B1B78354A12681146184600F048FB15
:1028D000A7E22E4B5B78002B14BF01230023DAB252
:1028E0002C4B1A700121092000F0CAFC1A4B01225E
:1028F0001A70184B09221A701E4B01221A70234BB2
:102900005B78002B0BD14FF4C8710020FEF72EF836
:102910000E4806F071F90E4806F06EF981E24FF4A8
:10292000C8710120FEF722F8084806F065F916483C
:1029300006F062F975E200BF480B002098090020FC
:102940006109002000000240A80900208C05002039
:1029500010040020440B0020430B00205D010020E8
:1029600055010020600100200000002081010020AE
:1029700056010020450B0020BC060020F404002076
:1029800070060020220900205C040020BC09002001
:10299000A4090020AC000020B7600BB6A0090020FD
:1029A000A64BA74A92E8030018600433198001215E
:1029B0000A2000F065FCA14B5B78002B03D0A14BF3
:1029C00001221A702DE29F4B00221A7029E200F0BA
:1029D00011FD9D4B00221A709C4B1B8801339AB24B
:1029E0009A4B1A801DE200F059FE994B01221A7091
:1029F000984B00221A7014E2914B9B78002B0DD05B
:102A0000954B00221A7001221021944804F016F907
:102A100001222021924804F011F90CE08E4B012292
:102A20001A70002210218D4804F008F9002220219C
:102A30008B4804F003F9824B5B78184600F024FAC7
:102A4000EFE1884B1B78002B40F0EA81864806F0C6
:102A5000D3F8864806F0D0F8E2E10121102000F01A
:102A60000FFC834B08221A70824B00221A60744BB1
:102A70009B781B021A467F4B1A60714B5B781A4693
:102A80007C4B1B6813437B4A1360764B1B78002BEF
:102A900027D096210120FDF769FF774B00221A60AD
:102AA000744B1B685B04DB08744AA2FB03239B087E
:102AB000BB606C4B1B781946B86800F0E7FC034616
:102AC0006D4A1360674B1B786B4A126811461846B3
:102AD00000F046FA644806F08FF8694806F08CF872
:102AE0009FE14FF4C8710020FDF740FF654B0022C5
:102AF0001A60604B1B685B04DB08604AA2FB03237F
:102B00009B08BB60574B1B781946B86800F0BEFCA9
:102B100003465C4A1360534B1B785A4A12681146AD
:102B2000184600F01DFA504806F066F84F4806F0C7
:102B300063F876E10121112000F0A2FB494B1B78DC
:102B40001846FDF7E7FE4A4B00221A704E4B002252
:102B50001A7066E10121122000F092FB384B5B787D
:102B6000002B03D03F4B01221A705AE13D4B00224B
:102B70001A7056E10121132000F082FB434B1B68C1
:102B8000434A1360434B1B68434A1360404B1B6826
:102B9000424A1360404B1B68404A53600223404A3C
:102BA00002213E48FDF7D4FC3BE10121142000F056
:102BB00067FB3C4B01221A703B4B01221A703B4BC6
:102BC00000221A701E4B5B78184600F0ABFC0346DF
:102BD0001A46374B1A701A4B9B78012B06D1344B8F
:102BE0001B7863F07703DAB2314B1A70304B1A78E6
:102BF0002F4B5A702F4806F03FFE642301222C49C8
:102C00002C4806F06CFD05222B492A4806F0F0FD01
:102C100007E105222949274806F0EAFD01224FF481
:102C200000610E4804F00AF8012002F0EDFC0022D9
:102C30004FF40061094804F001F8F2E0C4090020F3
:102C4000BC090020460B002055010020140900207B
:102C5000430B002058090020400B002000000240D8
:102C600000080240AC0000208C0500201004002069
:102C7000440B0020AC0900209C090020176CC116F1
:102C80005C04002098090020450B0020480B002020
:102C9000900900204C0B00209409002050090020CE
:102CA00000800108810100206309002064090020E0
:102CB0001C090020080700203800002058010020CF
:102CC0005B4B1B7883F00103DBB2002B24D0012285
:102CD0001021584803F0B2FF574B00221A7001220E
:102CE0002021544803F0AAFF642002F08DFC00224A
:102CF0002021504803F0A2FF05225049504805F01A
:102D0000DFF80021012000F0BBFA4B4B1B780133A8
:102D1000DAB2494B1A70E2E701222021494803F058
:102D20008DFF454B00221A7001220121464803F015
:102D300085FF642002F068FC00220121424803F074
:102D40007DFF05224149424805F0BAF800210120E3
:102D500000F096FA384B1B780133DAB2364B1A7012
:102D6000E2E7334B1B7883F00103DBB2002B0BD07F
:102D700005223249324805F0A3F8642305222F4981
:102D8000344806F0ACFC4CE005223049304805F0F0
:102D900097F8642305222D492E4806F0A0FC40E058
:102DA0000023FB6002E0FB680133FB60FB68812BC2
:102DB000F9DD294808F05EF833E001211A2000F01F
:102DC0005FFA264B1B684FF4FA72DA62244B012239
:102DD0001A70244B00221A70234B01221A70234BC5
:102DE00000221A70012000F09DFB03461A46204B7A
:102DF0001A70204B05221A701F4B02221A701F48AE
:102E000006F03AFD6423012219491C4806F067FCCC
:102E100005221B49194806F0EBFC02E000BF00E068
:102E200000BF184B00221A7000BF1037BD4680BD8E
:102E3000AC0000200000024025090020D808002036
:102E40002C0200200008024000040240E00800209C
:102E5000C801002090070020ACB70008240600201D
:102E60008101002009090020630900206409002075
:102E70001C090020440B0020430B00200807002001
:102E8000380000203D0B002080B584B000AF034621
:102E9000FB712A4B1B7883F00103DBB2002B29D096
:102EA0000023FB6021E001222021254803F0C6FE1B
:102EB000022002F0A9FB00222021214803F0BEFEDF
:102EC000022002F0A1FB20211D4803F0D0FE0522C4
:102ED0001C491D4804F0F4FF6423052219491B48CE
:102EE00006F0FDFBFB680133FB60FB79FA689A4250
:102EF000D9DB1BE00023BB6014E00121144803F080
:102F0000B6FE042002F080FB05221249124804F0AC
:102F1000D7FF642305220F490C4806F0E0FBBB688D
:102F20000133BB60FB79BA689A42E6DB0B4B0022A7
:102F30001A7000BF1037BD4680BD00BFAC00002036
:102F400000000240D80800202C020020900700203A
:102F500000040240E0080020C801002024090020ED
:102F600080B582B000AF03463960FB71FB7983F016
:102F70000103DBB2002B40D0424B1B683A689A42F7
:102F80001DD2404B1A683B68D21A3E4B1B68396809
:102F9000CB1A03F500339A4208D9012210213A488E
:102FA00003F04CFE394B00221A7066E0002210211B
:102FB000354803F043FE354B01221A705DE0314B7A
:102FC0001A683B68D31A03F500322E4B1B68396828
:102FD000CB1A9A4208D2002210212B4803F02EFE71
:102FE0002A4B01221A7048E001221021264803F0E2
:102FF00025FE264B00221A703FE0254B1B683A68DD
:103000009A421DD2224B1A683B68D21A204B1B6889
:103010003968CB1A03F500339A4208D901222021DE
:103020001C4803F00BFE1C4B00221A7025E0002206
:103030002021184803F002FE174B01221A701CE0F1
:10304000134B1A683B68D31A03F50032104B1B6808
:103050003968CB1A9A4208D2002220210D4803F089
:10306000EDFD0D4B01221A7007E0012220210948D5
:1030700003F0E4FD084B00221A7000BF0837BD467C
:1030800080BD00BF480B002000000240400B002024
:103090004C0B002000080240410B002080B582B09C
:1030A00000AF7860391D4FF6FF730122034806F028
:1030B00016FB7B6818460837BD4680BD9007002088
:1030C00080B485B000AF78607B681B682B4A934260
:1030D00002D12B4B01221A707B681B68294A93424C
:1030E00045D1294B1B78002B3ED00023FB60274B9A
:1030F0001B781A46254B5B781344244A9278134474
:10310000FB60FB68DBB2FB60204BDB781A46FB6898
:10311000934203D11D4B1B79A52B03D01C4B0022DE
:103120001A700DE0194B1A781A4B1B781B09DBB289
:103130009A4205D0164B00221A70174B01221A70C2
:10314000164B1B78002B09D0144B00221A70144B1D
:1031500000221A70134B00221A7002E0104B012259
:103160001A70094B00221A700F4B01221A7000BF0F
:103170001437BD465DF8047B704700BF004800402F
:103180003D0B00200010014081010020380000208C
:10319000430B00201C09002058090020AD0000202E
:1031A00064090020630900203C0B002080B483B038
:1031B00000AF78607B681B68274A934220D1274B79
:1031C0009B785B09DBB203F00703254A1360234BAE
:1031D0005B78DA00224B1B681343214A13601F4BB4
:1031E0001B78DB0203F4FC321D4B1B6813431C4AA3
:1031F00013601B4B1B681B4A53611B4B01221A7047
:103200007B681B68194A934220D1194B9B785B0954
:10321000DBB203F00703174A1360154B5B78DA0043
:10322000144B1B681343134A1360114B1B78DB02CA
:1032300003F4FC320F4B1B6813430E4A13600D4B13
:103240001B680D4A53610D4B01221A7000BF0C37E9
:10325000BD465DF8047B704700340140D80800206B
:10326000480B0020840100203E0B0020003C004061
:10327000E00800204C0B0020040000203F0B002041
:1032800080B584B000AF03460A46FB711346BB719C
:103290004C4B00221A80FB79012B77D14A4B01223B
:1032A0001A704A4B1A78484B5A70494B1A78464B59
:1032B0009A70484B1B781A46434BDA70464B1A7883
:1032C000414B1A71454B1A783F4B5A71444B1A784F
:1032D0003D4B9A71424B5A783B4BDA71404B9A788E
:1032E000394B1A723F4B1B68DAB2374B5A723D4B5F
:1032F0001B681B0ADAB2344B9A723A4B1B681B0CE0
:10330000DAB2314BDA72384B1B68DAB22E4BDA7311
:10331000354B1B681B0ADAB22B4B1A74324B1B68F5
:103320001B0CDAB2284B5A74274B0022DA77264B53
:10333000002283F820200023FB6016E0224AFB686D
:1033400013441B789AB2FB6801331F49CB5C9BB2D4
:103350001B029BB213449AB21A4B1B8813449AB2B5
:10336000184B1A80FB680233FB60FB681D2BE5DD00
:10337000154B9B7F9AB2134B1B8813449AB2114B87
:103380001A801A4B0F4A12881A8010E021210E4829
:10339000FDF77CFB0C4AFB7913700B4ABB79537029
:1033A000094AFB79D377084ABB7982F82030642335
:1033B000212205490E4806F092F900BF1037BD469C
:1033C00080BD00BF1E090020E8080020430B00203C
:1033D000440B0020450B002055010020470B002026
:1033E000CC090020480B00204C0B002007090020CE
:1033F0009007002080B582B000AF0023FB801F4BF8
:103400000B221A701D4B0022DA771C4B002283F826
:10341000202000233B6013E0184A3B6813441B78CC
:103420009AB23B6801331549CB5C9BB21B029BB23D
:1034300013449AB2FB881344FB803B6802333B6021
:103440003B681D2BE8DD0D4B9B7F9AB2FB88134434
:10345000FB800B4AFB8813800A4806F00DFA6423B0
:1034600021220649074806F03AF90622064905488E
:1034700006F0BEF900BF0837BD4680BD60010020E0
:103480007F01002090070020BC09002080B485B097
:1034900000AF78600B46FB700023FB60FB78002BCD
:1034A00014D01E4B1A687B681344B3F5003F07D94C
:1034B0001A4B1A687B681344A3F50033FB6019E0CC
:1034C000164B1B687A681344FB6013E0144B1A68B0
:1034D0007B681344B3F5003F07D9114B1A687B682A
:1034E0001344A3F50033FB6004E00D4B1B687A68BE
:1034F0001344FB60FB68002B01D15C23FB60FB687D
:10350000B3F5003F02D1FB685C3BFB60FB681846EB
:103510001437BD465DF8047B704700BF9409002056
:103520009009002080B483B000AF0346FB71FB79A3
:10353000802B5CD0802B5CDC202B47DC002B58DD03
:10354000013B1F2B55D801A252F823F0D3350008B8
:10355000D7350008F3350008DB350008F3350008DF
:10356000F3350008F3350008DF350008F3350008AF
:10357000F3350008F3350008F3350008F33500088B
:10358000F3350008F3350008E3350008F33500088B
:10359000F3350008F3350008F3350008F33500086B
:1035A000F3350008F3350008F3350008F33500085B
:1035B000F3350008F3350008F3350008F33500084B
:1035C000F3350008F3350008E7350008402B0CD030
:1035D0000FE000230EE011230CE022230AE0332346
:1035E00008E0442306E0552304E0662302E0772345
:1035F00000E0012318460C37BD465DF8047B704798
:1036000080B400AF1F4B1B781A461E4B5B781344E7
:103610001C4A92781344DBB21A4AD27893422CD1D6
:10362000184B1B79A52B28D1174B1B78002B12D0D8
:10363000144B1A78154B1A70124B5A78134B5A7058
:10364000104B9A78114B9A70114B1B8801339AB228
:103650000F4B1A800BE00B4B1A780E4B1A70094B6C
:103660005A780C4B5A70074B9A780A4B9A700A4B4F
:103670001B8801339AB2084B1A8000BFBD465DF823
:10368000047B70475801002056010020D409002017
:103690000E090020CC0900201009002080B500AFE1
:1036A00021210D48FDF7F2F90B4B0C221A700B4B40
:1036B0001A78094B5A70084B0C22DA77074B1A78A4
:1036C000054B83F82020642321220349044806F097
:1036D00006F800BF80BD00BFE808002058090020A0
:1036E0009007002080B500AF194B1B78002B16D037
:1036F000184B1B681A1F184B1B689A4225D8154B8C
:103700001B681A1D144B1B689A421ED3104B1B7862
:103710001846FDF7FFF8114B00221A7015E0104B08
:103720001B681A1F0F4B1B689A420ED80C4B1B6864
:103730001A1D0C4B1B689A4207D3054B1B78184681
:10374000FDF7E8F8054B00221A7000BF80BD00BFEE
:10375000AC0000209C0900204C0B0020440B0020F2
:1037600098090020480B002080B500AF224B1B7841
:103770004B211846FDF7FAF81F4B1B78002B1CD085
:103780001E4B1B68A3F12E021D4B1B689A4230D8BA
:103790001A4B1B6803F12E02194B1B689A4228D35F
:1037A000184805F0A1FA184805F09EFA174B0022B8
:1037B0001A70174B00221A701BE0164B1B68A3F1FE
:1037C0002E02154B1B689A4213D8124B1B6803F14B
:1037D0002E02114B1B689A420BD3104805F084FA55
:1037E000094805F081FA094B00221A70084B0022A3
:1037F0001A7000BF80BD00BFAC000020A4090020EB
:103800004C0B00205C0400208C050020440B0020A1
:10381000450B0020A0090020480B002010040020C8
:1038200080B500AF1A4B1B7883F00103DBB2002B8D
:1038300013D0184B1B68A3F12E02174B1B689A423A
:1038400024D8144B1B6803F12E02134B1B689A42B9
:103850001CD30F4B01221A7018E0104B1B68A3F108
:103860002E020D4B1B689A4210D80C4B1B6803F1BB
:103870002E02094B1B689A4208D3094805F034FA16
:10388000084805F031FA084B00221A7000BF80BDCD
:1038900061090020A8090020480B00209809002099
:1038A000100400208C050020440B002080B500AFE0
:1038B000664B1B7883F00103DBB2002B2ED0644BE8
:1038C00001221A70634B1B685A1F634B1B689A4294
:1038D00024D8604B1B685A1D5F4B1B689A421DD34E
:1038E0005E4B1B781846FDF715F85C4B1B785C4A5D
:1038F000126811461846FFF733FB544B01221A7029
:10390000584B1B789AB2584B1A80544B1B781A4666
:10391000514B1B6819461046FCF76EFF4B4B1B784A
:10392000002B00F0F380514B1B7883F00103DBB2D6
:10393000002B2AD0464B00221A70494B1B685A1F95
:10394000454B1B689A4220D8454B1B685A1D424B79
:103950001B689A4219D3454B01221A70052244492B
:10396000444805F045FF01224FF40061424803F04E
:1039700065F9424B01221A701E20FCF769FE0022F5
:103980004FF400613C4803F059F9384B1B78002B89
:1039900000F0BC803A4B1B7883F00103DBB2002BB4
:1039A00000F0B4802C4B1A68364B1B689A4228D31F
:1039B000344B1B6803F12E02274B1B689A4220D31D
:1039C00005222B492B4805F013FF01224FF400611B
:1039D000294803F033F9294B01221A701E20FCF705
:1039E00037FE00224FF40061234803F027F9264BED
:1039F0001B8801339AB2244B1A80214B01221A7082
:103A0000C6E0224B1B68043B1A46134B1B689A42C4
:103A100064D81E4B1B6804331A460F4B1B689A422E
:103A20005CD31A4B1B681A4A12889B1A002B31DA96
:103A3000164B1B68164A12889B1A002BB8BF5B42B4
:103A4000C3F50033114A13602BE000BF5B0900206F
:103A5000450B00207C090020480B0020AC00002012
:103A60006C090020AF000020C60100205909002089
:103A700058010020080700200000024056010020E5
:103A80005A09002074090020160900208809002026
:103A9000B00900203F4B1B683F4A12889B1A3D4AE1
:103AA000136005223D493E4805F0A2FE01224FF475
:103AB00000613C4803F0C2F83B4B01221A701E2003
:103AC000FCF7C6FD00224FF40061364803F0B6F85B
:103AD000364B1B8801339AB2344B1A80344B1B7817
:103AE000002B13D0334B1B68A3F13C02324B1B68F5
:103AF0009A420BD82F4B1B6803F13C022E4B1B68DC
:103B00009A4203D32D4B1B682D4A13602D4B1B7813
:103B1000002B3DD0244B1B7883F00103DBB2002B3C
:103B200036D0294B1B78002B32D1284B1B78002B29
:103B30000FD0264B1B781A4652001344DBB20133D8
:103B4000DBB21A4621212248FCF7BCFF1E4B0122A2
:103B50001A701E4B00221A701E4B01221A701E4B47
:103B600000221A701D4B00221A701D4B01221A7080
:103B7000144B01221A700C4B00221A70194B0022B0
:103B80001A70FCF7F4FD184B1B781846FCF7C2FEC0
:103B900080BD00BF88090020B00900205801002026
:103BA00008070020000002405601002016090020EE
:103BB000690900204C090020480B00206C090020F6
:103BC000740900205A090020550100205D010020E1
:103BD0006001002000000020440B00208101002033
:103BE000430B002054010020AC00002080B500AF42
:103BF000674B1B7883F00103DBB2002B2ED0654BA3
:103C000001221A70644B1B685A1F644B1B689A424E
:103C100024D8614B1B685A1D604B1B689A421DD308
:103C20005F4B1B781846FCF775FE5D4B1B785D4AB1
:103C3000126811461846FFF793F9554B01221A7086
:103C4000594B1B789AB2594B1A80554B1B781A4620
:103C5000524B1B6819461046FCF7CEFD4C4B1B78A7
:103C6000002B00F0F580524B1B7883F00103DBB290
:103C7000002B2AD0474B00221A704A4B1B685A1F50
:103C8000464B1B689A4220D8464B1B685A1D434B33
:103C90001B689A4219D3464B01221A7005224549E6
:103CA000454805F0A5FD01224FF40061434802F0AC
:103CB000C5FF434B01221A700A20FCF7C9FC002201
:103CC0004FF400613D4802F0B9FF394B1B78002BDF
:103CD00000F0BE803B4B1B7883F00103DBB2002B6E
:103CE00000F0B680384B1B68A3F108022B4B1B6811
:103CF0009A4228D8344B1B6803F10802274B1B68F3
:103D00009A4220D305222B492B4805F071FD012250
:103D10004FF40061294802F091FF294B01221A70EB
:103D20000A20FCF795FC00224FF40061234802F0C2
:103D300085FF264B1B8801339AB2244B1A80214BF6
:103D400001221A70C4E0224B1B68043B1A46134B35
:103D50001B689A4264D81E4B1B6804331A460F4BEB
:103D60001B689A425CD31A4B1B681A4A12889B1A2A
:103D7000002B31DA164B1B68164A12889B1A002B4F
:103D8000B8BF5B42C3F50033114A13602BE000BF9C
:103D90005B090020450B0020800900204C0B00200F
:103DA000AC00002070090020B0000020C6010020F7
:103DB0005909002058010020080700200000024097
:103DC000560100205A090020780900201609002019
:103DD0008C090020B20900203E4B1B683E4A128825
:103DE0009B1A3C4A136005223C493D4805F000FD02
:103DF00001224FF400613B4802F020FF3A4B0122C0
:103E00001A700A20FCF724FC00224FF400613548A8
:103E100002F014FF354B1B8801339AB2334B1A80E2
:103E2000334B1B78002B13D0324B1B68A3F13C02A1
:103E3000314B1B689A420BD82E4B1B6803F13C0296
:103E40002D4B1B689A4203D32C4B1B682C4A1360E2
:103E50002C4B1B78002B3BD0234B1B7883F00103AA
:103E6000DBB2002B34D0284B1B78002B30D1274BF2
:103E70001B78002B0FD0254B1B781A465200134499
:103E8000DBB20133DBB21A4621212148FCF71AFECE
:103E90001D4B01221A701D4B00221A701D4B01226E
:103EA0001A701D4B00221A701C4B00221A701C4BFA
:103EB00001221A70134B01221A700B4B00221A7048
:103EC000184B00221A70184B1B781846FCF722FD7D
:103ED00080BD00BF8C090020B209002058010020DD
:103EE00008070020000002405601002016090020AB
:103EF000690900204C0900204C0B002070090020AB
:103F0000780900205A090020550100205D01002099
:103F10006001002000000020440B002081010020EF
:103F2000430B002054010020AC00002080B582B07B
:103F300000AF994B1B7883F00103DBB2002B02D05A
:103F4000954B01221A70944B1B78002B00F0E580F2
:103F5000924B1B7883F00103DBB2002B00F0DD8075
:103F60008F4B1B7883F00103DBB2002B21D08D4BEC
:103F700001221A708C4B1B685A1F8C4B1B689A428B
:103F800017D8894B1B685A1D884B1B689A4210D35F
:103F9000874804F0A9FE874B1B78874A12681146B0
:103FA0001846FEF7DDFF7E4B01221A70804804F0B0
:103FB00023FE7B4B1B78002B00F0AF807F4B1B78E0
:103FC00083F00103DBB2002B2AD0764B00221A705B
:103FD000794B1B685A1F754B1B689A4220D8764B49
:103FE0001B685A1D714B1B689A4219D3734B0122EF
:103FF0001A7005227249734805F0FAFB01224FF44A
:104000000061714802F01AFE704B01221A70022002
:10401000FCF71EFB00224FF400616B4802F00EFE1D
:10402000664B1B78002B78D0694B1B7883F001031B
:10403000DBB2002B71D0674B1B68A3F108025B4B0E
:104040001B689A4234D8634B1B6803F10802574B34
:104050001B689A422CD3604B1B78002B0FD05E4B11
:104060001B781A4652001344DBB20133DBB21A4606
:1040700021215A48FCF726FD594B01221A70564B54
:1040800000221A70574B01221A70574B00221A70E7
:104090004E4B00221A70464804F026FE534804F0A6
:1040A00023FE3E4B01221A703E4B01221A7034E06F
:1040B0004F4B1B68043B1A463C4B1B689A422CD85A
:1040C0004B4B1B6804331A46384B1B689A4224D367
:1040D000484B1B881A46464B1B681344444A1360DE
:1040E00005223749374805F083FB01224FF4006170
:1040F000354802F0A3FD354B01221A700220FCF76F
:10410000A7FA00224FF400612F4802F097FD3A4BC6
:104110001B8801339AB2384B1A80204B1B78002B36
:1041200000F0A580354B1B78002B02D000F0B4F8CE
:104130009DE01A4B1B78002B00F099802B4804F06F
:10414000D3FD2F4804F0D0FD1C4B00221A70144BF5
:1041500000221A701E4B00221A70174B1B687B60DE
:104160001C4A7B6813601B4B1B68134A1360254B6A
:10417000B3F90030B3F5B27F48DB224BB3F900301E
:104180000533002BB8BF5B429AB21F4B1A801E4BFF
:104190004FF698621A8041E05E0900205C09002019
:1041A0005B090020450B00207C090020480B002003
:1041B00010040020AC0000206C09002059090020E8
:1041C000580100200807002000000240560100208E
:1041D0005A090020740900205D01002060010020C0
:1041E0005501002000000020810100208C050020E6
:1041F00088090020B0090020160900205D09002070
:104200005C040020B6090020B80900201A4BB3F95D
:1042100000309BB205339AB2184B1A80174B1B889B
:104220005B04174A82FB03121A441212DB17D31ADB
:104230001A46144B1A60134B1B68134A1278114626
:104240001846FFF723F903460E4A13600E4B1B78FE
:104250000C4A126811461846FEF782FE0B4B0122EB
:104260001A700B4804F0C8FC0A4804F0C5FC00BFF3
:104270000837BD4680BD00BFB6090020B809002040
:10428000B7600BB67C090020AC0000205D0900205F
:104290008C0500201004002080B500AF6F4B1B7808
:1042A00083F00103DBB2002B21D06D4B01221A7089
:1042B0006C4B1B685A1F6C4B1B689A4217D8694B92
:1042C0001B685A1D684B1B689A4210D3674804F05C
:1042D0000BFD674B1B78674A126811461846FEF7BC
:1042E0003FFE5E4B01221A70604804F085FC5B4B78
:1042F0001B78002B00F0B0805F4B1B7883F001032C
:10430000DBB2002B2AD0564B00221A70594B1B6887
:104310005A1F554B1B689A4220D8564B1B685A1D92
:10432000514B1B689A4219D3534B01221A70052234
:104330005249534805F05CFA01224FF4006151489C
:1043400002F07CFC504B01221A700220FCF780F92D
:1043500000224FF400614B4802F070FC464B1B7882
:10436000002B79D0494B1B7883F00103DBB2002B83
:1043700072D0474B1B681A1F3B4B1B689A4236D8BA
:10438000434B1B681A1D384B1B689A422FD3414B75
:104390001B78002B0FD03F4B1B781A46520013445A
:1043A000DBB20133DBB21A4621213B48FCF78AFB22
:1043B0003A4B01221A70374B00221A70384B0122F7
:1043C0001A70384B00221A70374B00221A70374B84
:1043D00001221A702D4B01221A702B4B00221A70E9
:1043E000224804F081FC324804F07EFC34E0314B7A
:1043F0001B68043B1A461C4B1B689A422CD82D4B59
:104400001B6804331A46184B1B689A4224D32A4B64
:104410001B881A46274B1B681344264A1360052243
:104420001649174805F0E4F901224FF400611548D8
:1044300002F004FC144B01221A700220FCF708F968
:1044400000224FF400610F4802F0F8FB1B4B1B8861
:1044500001339AB2194B1A8000BF80BD5B0900205E
:10446000450B00207C090020480B00201004002090
:10447000AC0000206C0900205909002058010020E0
:104480000807002000000240560100205A090020C1
:10449000740900205D01002060010020550100200A
:1044A00000000020440B002081010020430B00206D
:1044B0008C05002088090020B00900201609002082
:1044C00080B487B000AF786039607B680C4AA2FB8B
:1044D0000323DB087B613B685B00094AA2FB0323E3
:1044E000DB083B617A693B69B2FBF3F39BB20133B2
:1044F000FB81FB8918461C37BD465DF8047B70477D
:10450000CDCCCCCC80B400AF224B1A68224B1B68B8
:104510009A4238D31F4B1B689AB21F4B1B689BB241
:10452000D31A9AB21D4B1B8813449AB21B4B1A80A4
:104530001A4B1B881A461A4B1B681344184A1360FF
:10454000164B1B88C72B1ED9164B1B881946134BBD
:104550001B88154AA2FB03239B099BB25B00CB1A65
:104560001A46124B1A600D4B1B880F4AA2FB03120E
:104570009209C82101FB02F29B1A9AB2074B1A80DA
:104580000A4B1B6801E0074B1B881846BD465DF8C7
:10459000047B7047280900202C09002022090020F4
:1045A000500B00200A0900201F85EB513409002020
:1045B00080B485B000AF78600B467B800023FB8120
:1045C0000023BB812EE0FB897A6813441A78BB89EB
:1045D00011461A4A42F82310BB89184A52F8232080
:1045E000FB89013379680B441B781B021946BB8990
:1045F0000A43124941F82320BB89104A52F823206C
:10460000FB89023379680B441B781B041946BB896C
:104610000A430A4941F82320FB890333FB81BB8904
:104620000133BB81FA897B889A42CCD300BF00BF9B
:104630001437BD465DF8047B704700BF740A002044
:1046400080B582B000AF0346FB80FB8840F26D125C
:1046500093424ED0B3F5B77F6DDAB62B54D0B62B5C
:1046600069DC1D2B42DC002B65DD013B1C2B62D875
:1046700001A252F823F000BF1F4700083747000887
:104680001F47000837470008374700081F47000842
:104690003747000837470008374700083747000802
:1046A00037470008374700083747000837470008F2
:1046B00037470008374700083747000837470008E2
:1046C00037470008374700083747000837470008D2
:1046D00037470008374700083747000837470008C2
:1046E00037470008374700081F4700083C2B16D003
:1046F00021E0134B28221A70114B1A78114B1A70B3
:10470000C820FCF779F916E00D4B28221A700C4BE3
:104710001A780C4B1A70C820FCF76EF90BE0084BA6
:1047200028221A70064B1A78064B1A704FF47A70CA
:10473000FCF762F900BF00BF0837BD4680BD00BF6F
:10474000B0000020AF00002080B500AF284804F082
:10475000CBFA284804F0B8F94FF47A7000F054FF0F
:1047600006222549254805F043F805222449254815
:1047700003F0A6FB05222449244803F0A1FBFBF724
:10478000D1FE0223224A02212248FBF72BFF214BB4
:104790001B68214A13611F4B5B68204A13611D4B44
:1047A0001B681F4A13601B4B5B681E4A13601A4B41
:1047B0000F4ADA60194B1C4ADA60174BC822DA80BC
:1047C000164BC822DA80144BDB8819461248FCF7D6
:1047D00025F9124BDB8819461048FCF71FF9134BDB
:1047E000C8221A80124B01221A7000BF80BD00BF80
:1047F0001004002040050020BC0900209007002084
:10480000D80800202C020020E0080020C801002069
:1048100000800108500900208401002004000020CD
:1048200090090020940900205C040020C6010020AB
:10483000430B002080B584B000AF78607B68D3F86C
:10484000843003F00803002B08D07B681B68082223
:104850001A621B4B1B685B6ADBB2FB737B68194AED
:10486000934229D17B68D3F8843003F00803002BEE
:104870000ED07B681B6808221A62124B1B685B6AA9
:10488000DBB2BB73062210490E4804F0B1FF13E0FF
:104890007B681B68DB690D4A13607B68D3F8843042
:1048A0000B4A1360074804F0DDFEFDF7B5F8062259
:1048B0000549044804F09CFF00BF1037BD4680BD89
:1048C0000807002090070020BC09002040090020B4
:1048D0004409002080B400AF72B600BFFEE70000BC
:1048E00080B582B000AF0F4B1B6C0E4A43F0805373
:1048F00013640C4B1B6C03F080537B607B68094B8B
:104900005B6C084A43F480435364064B5B6C03F4CE
:1049100080433B603B68052000F08EFF00BF0837F6
:10492000BD4680BD0038024080B58CB000AF7860D5
:1049300007F11C0300221A605A609A60DA601A615B
:104940007B681B68984A934240F0A080974B1B6C91
:10495000964A43F400431364944B1B6C03F40043E6
:10496000BB61BB69914B1B6B904A43F0020313631D
:104970008E4B1B6B03F002037B617B698B4B1B6BC4
:104980008A4A43F004031363884B1B6B03F0040350
:104990003B613B690423FB6102233B6200237B6292
:1049A0000323BB620723FB6207F11C0319468048FF
:1049B00001F0ACFE4FF44063FB6102233B62002335
:1049C0007B620323BB620623FB6207F11C031946CB
:1049D000784801F09BFE784B784A1A60764B0022AB
:1049E0005A60754B00229A60734B0022DA60724B5A
:1049F0004FF480621A61704B00225A616E4B0022A4
:104A00009A616D4B0022DA616B4B00221A626A4B8D
:104A100000225A62684800F05FFF0346002B01D075
:104A2000FFF758FF7B68644A9A65634A7B68936323
:104A3000634B644A1A60624B00225A60604B40220A
:104A40009A605F4B0022DA605D4B4FF480621A611E
:104A50005B4B00225A615A4B00229A61584B00224C
:104A6000DA61574B00221A62554B00225A625448B1
:104A700000F032FF0346002B01D0FFF72BFF7B68CD
:104A80004F4A5A654E4A7B68936389E07B681B688E
:104A90004D4A934240F08480444B5B6C434A43F45C
:104AA00000535364414B5B6C03F40053FB60FB68A1
:104AB0003E4B1B6B3D4A43F0100313633B4B1B6B98
:104AC00003F01003BB60BB686423FB6102233B62FD
:104AD00000237B620323BB620523FB6207F11C03F7
:104AE00019463A4801F012FE394B3A4A1A60384BDF
:104AF0004FF000625A60364B00229A60344B00221D
:104B0000DA60334B4FF480621A61314B00225A61F4
:104B10002F4B00229A612E4B0022DA612C4B00228F
:104B20001A622B4B00225A62294800F0D5FE034638
:104B3000002B01D0FFF7CEFE7B68254A9A65244AF8
:104B40007B689363244B254A1A60234B4FF0006225
:104B50005A60214B40229A601F4B0022DA601E4BA4
:104B60004FF480621A611C4B00225A611A4B0022DA
:104B70009A61194B0022DA61174B00221A62164B18
:104B800000225A62144800F0A7FE0346002B01D011
:104B9000FFF7A0FE7B68104A5A650F4A7B68936353
:104BA00000BF3037BD4680BD003C004000380240A9
:104BB0000004024000080240900200201060024001
:104BC000F0020020886002400034014000100240E2
:104BD0005003002010640240B0030020286402400B
:104BE00080B58CB000AF78607B681B68B3F1804FF4
:104BF00014D1704B1B6C6F4A43F0010313646D4B6F
:104C00001B6C03F00103FB62FB6A002202211C20E3
:104C100000F01DFE1C2000F036FEC6E07B681B681D
:104C2000654A934214D1634B1B6C624A43F0020302
:104C30001364604B1B6C03F00203BB62BB6A00226F
:104C400002211D2000F003FE1D2000F01CFEACE040
:104C50007B681B68594A934214D1564B1B6C554ACA
:104C600043F004031364534B1B6C03F004037B6297
:104C70007B6A002200211E2000F0E9FD1E2000F0CA
:104C800002FE92E07B681B684D4A934214D1494B67
:104C90001B6C484A43F008031364464B1B6C03F03B
:104CA00008033B623B6A00220121322000F0CFFD65
:104CB000322000F0E8FD78E07B681B68414A9342AF
:104CC0000CD13C4B1B6C3B4A43F010031364394B33
:104CD0001B6C03F01003FB61FB6966E07B681B68DB
:104CE000394A934214D1334B1B6C324A43F02003B0
:104CF0001364304B1B6C03F02003BB61BB690022C3
:104D00000221372000F0A3FD372000F0BCFD4CE06D
:104D10007B681B682D4A934214D1264B5B6C254A55
:104D200043F400335364234B5B6C03F400337B6127
:104D30007B6903220321192000F089FD192000F06E
:104D4000A2FD32E07B681B68214A934214D1194BC3
:104D50001B6C184A43F080031364164B1B6C03F062
:104D600080033B613B69012201212C2000F06FFD93
:104D70002C2000F088FD18E07B681B68154A9342E0
:104D800013D10C4B1B6C0B4A43F480731364094B17
:104D90001B6C03F48073FB60FB68012201212D2052
:104DA00000F055FD2D2000F06EFD00BF3037BD46F0
:104DB00080BD00BF003802400004004000080040F1
:104DC000000C00400010004000140040004401406E
:104DD000001C00400020004080B584B000AF786027
:104DE0007B681B680D4A934213D10D4B5B6C0C4AD8
:104DF00043F4803353640A4B5B6C03F48033FB60F1
:104E0000FB6801220121182000F021FD182000F08C
:104E10003AFD00BF1037BD4680BD00BF00400140D5
:104E20000038024080B5ACB000AF786007F19C0359
:104E300000221A605A609A60DA601A6107F11C0356
:104E400080220021184605F09FFF7B681B687A4A84
:104E5000934273D14023FB610023BB6507F11C0320
:104E6000184602F037FC0346002B01D0FFF732FD55
:104E7000724B5B6C714A43F0100353646F4B5B6C75
:104E800003F01003BB61BB696C4B1B6B6B4A43F0B7
:104E900001031363694B1B6B03F001037B617B69A7
:104EA0004FF4C063C7F89C300223C7F8A03000233A
:104EB000C7F8A4300323C7F8A8300723C7F8AC30DD
:104EC00007F19C0319465E4801F020FC5D4B5E4AE9
:104ED0001A605C4B4FF000625A605A4B00229A6095
:104EE000584B0022DA60574B4FF480621A61554BE1
:104EF00000225A61534B00229A61524B0022DA6120
:104F0000504B4FF400321A624E4B00225A624D4809
:104F100000F0E2FC0346002B01D0FFF7DBFC7B68CE
:104F2000484A5A67474A7B6893630022012125203B
:104F300000F08DFC252000F0A6FC78E07B681B6863
:104F4000424A934273D14FF48073FB6100233B6666
:104F500007F11C03184602F0BDFB0346002B01D0ED
:104F6000FFF7B8FC354B1B6C344A43F480231364C1
:104F7000324B1B6C03F480233B613B692F4B1B6B53
:104F80002E4A43F0020313632C4B1B6B03F0020306
:104F9000FB60FB684FF49843C7F89C300223C7F8C6
:104FA000A0300023C7F8A4300323C7F8A830072394
:104FB000C7F8AC3007F19C031946254801F0A6FB61
:104FC000244B254A1A60234B4FF000625A60214B54
:104FD00000229A601F4B0022DA601E4B4FF4806261
:104FE0001A611C4B00225A611A4B00229A61194B1C
:104FF0004FF48072DA61174B00221A62154B0022BF
:105000005A62144800F068FC0346002B01D0FFF7F9
:1050100061FC7B680F4A5A670E4A7B6893630022E3
:105020000121272000F013FC272000F02CFC00BFFA
:10503000B037BD4680BD00BF0010014000380240BF
:105040000000024018080020406402400048004070
:1050500000040240780800202860024080B582B039
:1050600000AF78607B681B68194A934213D1194BD3
:105070005B6C184A23F0100353644FF4C061164868
:1050800001F0E0FC7B685B6F184600F0D3FC252044
:1050900000F007FC17E07B681B68104A934212D1AE
:1050A0000C4B1B6C0B4A23F4802313644FF4984180
:1050B0000B4801F0C7FC7B685B6F184600F0BAFC38
:1050C000272000F0EEFB00BF0837BD4680BD00BFC3
:1050D000001001400038024000000240004800403B
:1050E0000004024080B400AFFEE780B400AFFEE7EA
:1050F00080B400AFFEE780B400AFFEE780B400AF3D
:10510000FEE780B400AF00BFBD465DF8047B70478A
:1051100080B400AF00BFBD465DF8047B704780B42B
:1051200000AF00BFBD465DF8047B704780B500AF9F
:1051300000F04AFA00BF80BD80B500AF024800F021
:10514000C9FD00BF80BD00BF9002002080B500AF48
:10515000024800F0BFFD00BF80BD00BF78080020FE
:1051600080B500AF024800F0B5FD00BF80BD00BFB4
:10517000F002002080B500AF024803F035FE00BF0A
:1051800080BD00BFD805002080B500AF034B0122D1
:105190001A70034803F028FE00BF80BD6609002096
:1051A0002406002080B500AF2021064801F05FFDF5
:1051B000054B1B6800225A62034803F015FE00BF2E
:1051C00080BD00BF000002401004002080B500AF89
:1051D0000121064801F04BFD054B1B6800225A6275
:1051E000034803F001FE00BF80BD00BF0004024081
:1051F0005C04002080B500AF034B01221A70034805
:1052000003F0F2FD00BF80BD420B0020A804002087
:1052100080B500AF024804F0C1FB00BF80BD00BFF5
:105220000807002080B500AF024804F0B7FB00BFBC
:1052300080BD00BF9007002080B500AF0A4B1B68FF
:105240000133094A1360094B00221A60084B1B689E
:105250005A6A084B1B681344064A1360044803F05B
:10526000C3FD00BF80BD00BF1809002067090020F2
:10527000700600202809002080B500AF034B0122F2
:105280001A70034803F0B0FD00BF80BD650900201F
:10529000BC06002080B500AF134B1A68134B1B6887
:1052A0009A4212D2124B1B881946104B1A680E4BA9
:1052B0001B68D31A03FB01F20E4B1B685200DA6223
:1052C0000C4B1B6800225A6208E00B4803F06CFC90
:1052D000084803F069FC094B01221A60054803F0F5
:1052E00083FD00BF80BD00BF380900203C090020BD
:1052F0000A090020F4040020BC0600205F090020F9
:1053000080B500AF0D4B1B7883F00103DBB2002B9F
:1053100005D005220A490B4802F0D2FD04E005221F
:1053200009490A4802F0CCFD094B1B6800225A6269
:10533000074803F059FD00BF80BD00BFAC0000204E
:10534000D80800202C020020E0080020C80100201E
:105350008C05002080B500AF024800F0BBFC00BF08
:1053600080BD00BF5003002080B500AF024800F0B0
:10537000B1FC00BF80BD00BFB003002080B500AF0E
:10538000024800F0A7FC00BF80BD00BF1808002045
:1053900080B586B000AFF860B9607A6000237B61A9
:1053A0000AE0AFF300800146BB685A1CBA60CAB27B
:1053B0001A707B6901337B617A697B689A42F0DB02
:1053C0007B6818461837BD4680BD80B586B000AFF3
:1053D000F860B9607A6000237B6109E0BB685A1C01
:1053E000BA601B781846FDF759FE7B6901337B6173
:1053F0007A697B689A42F1DB7B6818461837BD46AC
:1054000080BD80B483B000AF78604FF0FF331846A2
:105410000C37BD465DF8047B704780B483B000AFA5
:10542000786039603B684FF400525A600023184698
:105430000C37BD465DF8047B704780B483B000AF85
:105440007860012318460C37BD465DF8047B704731
:1054500080B485B000AFF860B9607A600023184668
:105460001437BD465DF8047B7047000080B586B0F8
:1054700000AF7860144A154BD31A7B617B693B619E
:10548000134B1B68002B02D1114B124A1A60104BB0
:105490001A687B6813443A699A4207D205F04AFCBD
:1054A00003460C221A604FF0FF3309E0084B1B68DB
:1054B000FB60074B1A687B681344054A1360FB685E
:1054C00018461837BD4680BD0000042000040000C7
:1054D000540B0020880B002080B400AF064BD3F89B
:1054E0008830054A43F47003C2F8883000BFBD46D7
:1054F0005DF8047B704700BF00ED00E0DFF834D0BA
:10550000FFF7EAFF0C480D490D4A002302E0D4588A
:10551000C4500433C4188C42F9D30A4A0A4C0023FD
:1055200001E013600432A242FBD305F009FCFBF753
:1055300083FB7047000004200000002024010020AD
:1055400044B8000824010020880B0020FEE780B545
:1055500000AF032000F070F9002000F005F8FFF71D
:10556000BFF90023184680BD80B582B000AF7860D7
:10557000124B1A68124B1B7819464FF47A73B3FB1F
:10558000F1F3B2FBF3F3184600F099F90346002B50
:1055900001D001230EE07B680F2B0AD80022796826
:1055A0004FF0FF3000F053F9064A7B681360002388
:1055B00000E0012318460837BD4680BDB400002036
:1055C000BC000020B800002080B400AF064B1B7860
:1055D0001A46064B1B681344044A136000BFBD46BD
:1055E0005DF8047B704700BFBC000020580B002012
:1055F00080B400AF034B1B681846BD465DF8047BC2
:10560000704700BF580B002080B584B000AF7860B1
:10561000FFF7EEFFB8607B68FB60FB68B3F1FF3F0C
:1056200005D00A4B1B781A46FB681344FB6000BF89
:10563000FFF7DEFF0246BB68D31AFA689A42F7D832
:1056400000BF00BF1037BD4680BD00BFBC000020BA
:1056500080B485B000AF78607B6803F00703FB601F
:105660000B4BDB68BB60BA684FF6FF031340BB60AF
:10567000FB681A02BB681A43064B1343BB60044A1B
:10568000BB68D36000BF1437BD465DF8047B70472C
:1056900000ED00E00000FA0580B400AF044BDB68C9
:1056A0001B0A03F007031846BD465DF8047B7047EC
:1056B00000ED00E080B483B000AF0346FB7197F9C2
:1056C0000730002B0BDBFB7903F01F02074997F92A
:1056D00007305B09012000FA02F241F8232000BFE5
:1056E0000C37BD465DF8047B704700BF00E100E069
:1056F00080B483B000AF0346FB7197F90730002BED
:1057000012DBFB7903F01F020A4997F907305B09A6
:10571000012000FA02F2203341F82320BFF34F8F1B
:1057200000BFBFF36F8F00BF00BF0C37BD465DF8F1
:10573000047B704700E100E080B483B000AF034613
:105740003960FB7197F90730002B0ADB3B68DAB24E
:105750000C4997F907301201D2B20B4483F80023A9
:105760000AE03B68DAB20849FB7903F00F03043B17
:105770001201D2B20B441A7600BF0C37BD465DF859
:10578000047B704700E100E000ED00E080B489B0E8
:1057900000AFF860B9607A60FB6803F00703FB6153
:1057A000FB69C3F10703042B28BF0423BB61FB691A
:1057B0000433062B02D9FB69033B00E000237B6125
:1057C0004FF0FF32BB6902FA03F3DA43BB681A40B9
:1057D0007B699A404FF0FF317B6901FA03F3D943AB
:1057E0007B680B40134318462437BD465DF8047BA5
:1057F0007047000080B582B000AF78607B68013BE5
:10580000B3F1807F01D301230FE00A4A7B68013B9B
:1058100053600F214FF0FF30FFF78EFF054B002242
:105820009A60044B07221A60002318460837BD46C9
:1058300080BD00BF10E000E080B582B000AF7860AE
:105840007868FFF705FF00BF0837BD4680BD80B50B
:1058500086B000AF0346B9607A60FB7300237B61BA
:10586000FFF71AFF78617A68B9687869FFF78EFFE9
:10587000024697F90F3011461846FFF75DFF00BF4B
:105880001837BD4680BD80B582B000AF0346FB71BE
:1058900097F907301846FFF70DFF00BF0837BD46E0
:1058A00080BD80B582B000AF0346FB7197F9073029
:1058B0001846FFF71DFF00BF0837BD4680BD80B505
:1058C00082B000AF78607868FFF794FF034618460F
:1058D0000837BD4680BD000080B586B000AF786057
:1058E00000237B61FFF784FE38617B68002B01D1C8
:1058F000012399E07B68022283F835207B6800222F
:1059000083F834207B681B681A687B681B6822F068
:1059100001021A600FE0FFF76BFE02463B69D31AE3
:10592000052B08D97B6820225A657B68032283F8FF
:105930003520032378E07B681B681B6803F00103B4
:10594000002BE8D17B681B681B687B617A69384B48
:1059500013407B617B685A687B689B681A437B684D
:10596000DB681A437B681B691A437B685B691A43CF
:105970007B689B691A437B68DB691A437B681B6AF7
:1059800013437A6913437B617B685B6A042B07D1FD
:105990007B68DA6A7B681B6B13437A6913437B610C
:1059A0007B681B687A691A607B681B685B697B612E
:1059B0007B6923F007037B617B685B6A7A69134329
:1059C0007B617B685B6A042B17D17B689B6A7A6971
:1059D00013437B617B68DB6A002B0ED0786800F094
:1059E00073FB0346002B08D07B6840225A657B6816
:1059F000002283F83520012316E07B681B687A6952
:105A00005A61786800F02AFB0346FB607B68DB6D17
:105A10003F229A40FB689A607B6800225A657B6847
:105A2000012283F83520002318461837BD4680BD73
:105A30003F8010E080B584B000AF78607B68002BB9
:105A400001D1012350E07B6893F83530DBB2022BA3
:105A500001D1022348E07B681B681A687B681B68D9
:105A600022F001021A607B681B6800221A607B68C2
:105A70001B6800225A607B681B6800229A607B6862
:105A80001B680022DA607B681B6800221A617B6851
:105A90001B6821225A61786800F0E0FA0346FB6037
:105AA0007B68DB6D3F229A40FB689A607B6800222E
:105AB000DA637B6800221A647B6800225A647B6880
:105AC00000229A647B680022DA647B6800221A65EF
:105AD0007B6800225A657B68002283F835207B684A
