:020000040800F2
:1000000000000420655C00082D58000833580008E3
:10001000395800083F580008455800080000000003
:100020000000000000000000000000004B58000825
:10003000595800080000000067580008755800086B
:10004000B55C0008B55C0008B55C0008B55C00084C
:10005000B55C0008B55C0008B55C0008B55C00083C
:10006000B55C0008B55C0008B55C00088158000864
:1000700095580008B55C0008B55C0008B55C000840
:10008000A9580008B55C0008B55C0008B55C00081C
:10009000B55C0008B55C0008B55C0008B55C0008FC
:1000A000B55C0008BD580008D9580008B55C0008C8
:1000B000F15800081959000841590008B55C0008BA
:1000C000B55C0008B55C0008B55C0008B55C0008CC
:1000D000B55C00085D590008B55C0008715900085E
:1000E000B55C0008B55C0008B55C000885590008DF
:1000F000A1590008E1590008B55C0008B55C00088A
:10010000B55C0008B55C0008FD590008B55C000846
:10011000B55C0008B55C0008B55C0008695A0008C9
:10012000BD5A0008D15A0008E55A0008B55C00081D
:10013000B55C0008000000000000000000000000A6
:10014000000000000000000000000000B55C000896
:10015000B55C0008B55C0008B55C0008B55C00083B
:10016000B55C0008B55C0008B55C0008B55C00082B
:10017000B55C0008B55C000800000000000000004D
:10018000B55C0008B55C0008B55C0008B55C00080B
:10019000B55C0008B55C000800000000B55C000814
:1001A000000000000000000000000000B55C000836
:1001B000B55C0008B55C000800000000000000000D
:1001C000000000000000000000000000000000002F
:1001D000000000000000000000000000B55C000806
:1001E00010B5054C237833B9044B13B10448AFF371
:1001F00000800123237010BD2801002000000000B2
:100200001CBF000808B5034B1BB103490348AFF3FB
:10021000008008BD000000002C0100201CBF000869
:1002200053B94AB9002908BF00281CBF4FF0FF315D
:100230004FF0FF3000F074B9ADF1080C6DE904CE59
:1002400000F006F8DDF804E0DDE9022304B07047B1
:100250002DE9F047089D04468E46002B4DD18A4279
:10026000944669D9B2FA82F252B101FA02F3C2F1AC
:10027000200120FA01F10CFA02FC41EA030E94403D
:100280004FEA1C48210CBEFBF8F61FFA8CF708FB5E
:1002900016E341EA034306FB07F199420AD91CEB36
:1002A000030306F1FF3080F01F81994240F21C8168
:1002B000023E63445B1AA4B2B3FBF8F008FB1033B0
:1002C00044EA034400FB07F7A7420AD91CEB0404E5
:1002D00000F1FF3380F00A81A74240F207816444B5
:1002E000023840EA0640E41B00261DB1D44000233A
:1002F000C5E900433146BDE8F0878B4209D9002D9E
:1003000000F0EF800026C5E9000130463146BDE827
:10031000F087B3FA83F6002E4AD18B4202D3824291
:1003200000F2F980841A61EB030301209E46002D40
:10033000E0D0C5E9004EDDE702B9FFDEB2FA82F295
:10034000002A40F09280A1EB0C014FEA1C471FFAF3
:100350008CFE0126200CB1FBF7F307FB131140EADA
:1003600001410EFB03F0884208D91CEB010103F1A7
:10037000FF3802D2884200F2CB804346091AA4B269
:10038000B1FBF7F007FB101144EA01440EFB00FE3D
:10039000A64508D91CEB040400F1FF3102D2A645A2
:1003A00000F2BB800846A4EB0E0440EA03409CE741
:1003B000C6F12007B34022FA07FC4CEA030C20FAEE
:1003C00007F401FA06F31C43F9404FEA1C4900FA0E
:1003D00006F3B1FBF9F8200C1FFA8CFE09FB18118B
:1003E00040EA014108FB0EF0884202FA06F20BD9FE
:1003F0001CEB010108F1FF3A80F08880884240F24E
:100400008580A8F102086144091AA4B2B1FBF9F091
:1004100009FB101144EA014100FB0EFE8E4508D98C
:100420001CEB010100F1FF346CD28E456AD9023811
:10043000614440EA0840A0FB0294A1EB0E01A142F6
:10044000C846A64656D353D05DB1B3EB080261EB64
:100450000E0101FA07F722FA06F3F1401F43C5E93E
:10046000007100263146BDE8F087C2F12003D84074
:100470000CFA02FC21FA03F3914001434FEA1C47B6
:100480001FFA8CFEB3FBF7F007FB10360B0C43EAA8
:10049000064300FB0EF69E4204FA02F408D91CEB58
:1004A000030300F1FF382FD29E422DD90238634456
:1004B0009B1B89B2B3FBF7F607FB163341EA0341F6
:1004C00006FB0EF38B4208D91CEB010106F1FF3845
:1004D00016D28B4214D9023E6144C91A46EA00463C
:1004E00038E72E46284605E70646E3E61846F8E6CE
:1004F0004B45A9D2B9EB020864EB0C0E0138A3E717
:100500004646EAE7204694E74046D1E7D0467BE7F7
:10051000023B614432E7304609E76444023842E76F
:10052000704700BF80B483B000AF7860084B0022F2
:100530001A60074B0222DA60054A7B685360044B5D
:1005400001229A6000BF0C37BD465DF8047B7047FE
:1005500048010020B0B586B000AFF8607A603B601B
:100560000B46FB72B86AFFF7DDFF06F037FA1E494B
:100570001E4806F0A3FB0346002B2ED10023FB757B
:100580003B68022B02D10423FB7504E03B68012B7E
:1005900001D10223FB750023BB7517E0BB7D9B00D7
:1005A000FA6813441B6800221C46154622462B4657
:1005B0007968386806F0B8F90346002B0FD1FB7D47
:1005C0007A6813447B60BB7D0133BB75BA7DFB7ACF
:1005D0009A42E3D306F024FA02E000BF00E000BF35
:1005E0001837BD46B0BD00BF4401002048010020BF
:1005F00080B487B000AFF8607A603B600B46FB7256
:100600000023FB7500233B613B68022B02D10423CE
:10061000FB7504E03B68012B01D10223FB7500232D
:10062000BB820FE07B681B683B61BB8A9B00FA685A
:1006300013443A691A60FB7D7A6813447B60BB8A75
:100640000133BB82FB7A9BB2BA8A9A42EAD300BFDB
:1006500000BF1C37BD465DF8047B704780B483B093
:1006600000AF0346FB80094B1B6800225A6200BFA3
:10067000064B1B685A6AFB889A42F9D300BF00BF39
:100680000C37BD465DF8047B704700BF5405002061
:1006900080B582B000AF0346FB71FB79022B02DC10
:1006A000002B2CDC64E0043B012B61D800220321E9
:1006B0000B2005F080FC0B2005F099FC01220321A2
:1006C000102005F078FC102005F091FC0022032199
:1006D000382005F070FC382005F089FC0122032148
:1006E000392005F068FC392005F081FC0022012149
:1006F000192005F060FC192005F079FC39E0012291
:1007000000213A2005F057FC3A2005F070FC012248
:100710000021252005F04FFC252005F068FC012272
:100720000221372005F047FC372005F060FC00224D
:1007300003210B2005F03FFC0B2005F058FC0122A3
:100740000321102005F037FC102005F050FC00229A
:100750000321382005F02FFC382005F048FC012249
:100760000321392005F027FC392005F040FC00E08A
:1007700000BF00BF0837BD4680BD80B500AF002276
:1007800001210B2005F017FC0B2005F030FC0022A6
:1007900001210C2005F00FFC0C2005F028FC0022A4
:1007A0000121102005F007FC102005F020FC01229B
:1007B0000121382005F0FFFB382005F018FC01224C
:1007C0000121392005F0F7FB392005F010FC00224B
:1007D00001213A2005F0EFFB3A2005F008FC002249
:1007E0000121252005F0E7FB252005F000FC002273
:1007F0000221372005F0DFFB372005F0F8FB00BFB2
:1008000080BD000080B582B000AF03463960FB7147
:10081000FB79002B14BF01230023DBB20A21184609
:1008200000F01EF91E4B1B88184600F0C5F81D4A43
:100830003B68136001221921386800F047F803462D
:10084000194A136000221921386800F03FF8034666
:10085000164A1360164808F0E3FDFB79002B03D01D
:10086000144808F0DDFD02E0134808F0D9FD134BF1
:1008700001221A70124B1B78002B14BF0123002396
:10088000DBB283F00103DBB203F00103DAB20D4BFC
:100890001A700D4B00221A7000BF0837BD4680BD8C
:1008A000CA010020BC010020C4010020C0010020BA
:1008B000A00500207004002024040020B8010020BE
:1008C000BA010020B9010020BB01002080B485B02E
:1008D00000AF78600B467B8013467B707B78002BE3
:1008E0000FD07A887B681344B3F5003F05D37A882C
:1008F0007B681344A3F5003312E07A887B681344C5
:100900000EE07B887A689A4207D87A887B68D31A87
:10091000FB60FB68C3F5003302E07B887A68D31A7A
:1009200018461437BD465DF8047B704780B582B029
:1009300000AF0346FB71054B1B78002B02D0044827
:1009400008F06EFD00BF0837BD4680BDB80100202D
:100950008406002080B582B000AF0346FB71FB79AE
:10096000002B03D00D4808F0D3FD02E00C4808F03E
:10097000CFFD0C4808F0CCFD0B4B00221A700B4B3E
:1009800000221A700A4B40F2DC521A80094B0022F6
:100990001A8000BF0837BD4680BD00BF700400202C
:1009A00024040020A0050020B8010020BB01002085
:1009B000CA010020C801002080B487B000AF034600
:1009C000FB80234B7B61234B1B885B089BB207EEAC
:1009D000903AF8EEE77AC7ED047A1F4B1B7807EEE2
:1009E000903AF8EEE77A97ED047A67EE277AC7ED4A
:1009F000047AFB8807EE903AB8EEE77AD7ED046AFE
:100A0000C6EE877AC7ED047AF7EE006A97ED047AAE
:100A1000C6EE877AFCEEE77A17EE903AFB600F4B52
:100A20001B6800225A620D4B1B689B6A01337A696E
:100A3000B2FBF3F2FB68B2FBF3F2084B1B68013A1E
:100A4000DA6200BF1C37BD465DF8047B704700BF0B
:100A500000F36F063400002036000020BC040020A4
:100A600080B485B000AF03460A46FB711346BB80D5
:100A70000023FB60194BFB60194B1B6800225A6274
:100A8000184B1B6800225A62FB79002B0ED0144BC6
:100A90001B689B6A0133FA68B2FBF3F2BB88B2FBB6
:100AA000F3F20F4B1B68013ADA620DE00D4B1B6845
:100AB0009B6A0133FA68B2FBF3F2BB88B2FBF3F234
:100AC000084B1B68013ADA62074ABB88138000BFF3
:100AD0001437BD465DF8047B704700BF00F36F0616
:100AE0007004002024040020C801002080B483B0DA
:100AF00000AF0346FB80FB885A1E044B1B68DA627A
:100B000000BF0C37BD465DF8047B7047A005002090
:100B100080B485B000AF78600B467B800023FB601B
:100B2000144BFB607B681B78002B0ED0124B1B68AC
:100B30009B6A0133FA68B2FBF3F27B88B2FBF3F2F3
:100B40000D4B1B68013ADA620DE00C4B1B689B6A87
:100B50000133FA68B2FBF3F27B88B2FBF3F2074B86
:100B60001B68013ADA6200BF1437BD465DF8047BAA
:100B7000704700BF00F36F067004002024040020BB
:100B800080B485B000AF78600B46FB700023FB7328
:100B900007E0FB7B7A68134400221A70FB7B013369
:100BA000FB73FA7BFB789A42F3D300BF00BF143784
:100BB000BD465DF8047B704780B485B000AF7860B7
:100BC0000B46FB701346BB70BB78FB7307E0FB7BE7
:100BD0007A68134400221A70FB7B0133FB73FA7BA3
:100BE000FB789A42F3D300BF00BF1437BD465DF8CF
:100BF000047B70472DE9B04F86B000AF78600B469C
:100C00007B8013467B707B88DAB27B78D31ADBB2A9
:100C1000013B7B734FF000024FF00003C7E9042350
:100C20007B78FB8112E0FB899B007A6813441B6888
:100C300000221C461546D7E9042312EB040843EBB7
:100C40000509C7E90489FB890133FB817B7B9BB2E2
:100C5000FA899A42E7D97A887B785B00D31ADA1747
:100C60009A46934652465B46D7E90401FFF7D8FA05
:100C700002460B461346BB60BB6818461837BD4694
:100C8000BDE8B08F80B485B000AF786039607B6814
:100C90001B68FB603B681A687B681A603B68FA68EF
:100CA0001A6000BF1437BD465DF8047B704780B5FD
:100CB00084B000AF78600B467B802CE00023FB7390
:100CC0000023BB601DE0BB689B007A6813441A6870
:100CD000BB6801339B0079680B441B689A420DD9AD
:100CE000BB689B007A68D018BB6801339B007A68A8
:100CF00013441946FFF7C6FF0123FB73BB6801339A
:100D0000BB607B88BA689A42DDDBFB7B83F0010322
:100D1000DBB2002B05D17B885A1E7A80002BCDD107
:100D200000E000BF00BF1037BD4680BD80B582B077
:100D300000AF04F0C0FF00F0E5FB01F023F800F085
:100D4000CFFF00F091FF00F057FF00F0A5FC00F08E
:100D500065FC00F0DFFC00F02BFD00F017FE00F05A
:100D60004BFE00F07FFE00F0C1FD00F021FF00F01F
:100D7000FBFE00F06DFD00F099FE00F0BBFE00F000
:100D80002FFC454B9B68444A43F48053936003F027
:100D90003FFF424806F08AFB414B1B78002B0AD0EC
:100DA000404B1B6800225A6204F07CF80346002B7B
:100DB00001D001F075F83C4B1B78002B00F023812B
:100DC0003A4B1B8801339AB2384B1A8002F04AFE24
:100DD000374B1B78012B0BD0354B1B78022B07D0E0
:100DE000334B1B78032B03D0314B1B78042B46D19C
:100DF000304B1B78002B42D00023FB7110E0FB79B5
:100E00002D4A127811462D4AD25C2D4B5A54FB794B
:100E10000133FB71284B1B780133DAB2264B1A7071
:100E2000FB79022BEBD9234B00221A70254B1B7840
:100E30000133DAB2234B1A70224B1B789AB2224B41
:100E40001A80224B1B680133204A1360204B1B88F9
:100E500001339AB21E4B1A801A4B1B780A2B0ED103
:100E6000184B00221A70144B01221A70194B0122E0
:100E70001A70194B1B8801339AB2174B1A800C4B0E
:100E80001B78052B40F0BC800A4B1B78002B00F030
:100E9000A6800023BB7132E0002004E0CC010020DA
:100EA000AD0B002038060020AC0B0020720900209A
:100EB000B50B00205A01002000000020440A002049
:100EC00064010020610100202A0A00209809002006
:100ED0006C0900205901002080090020BB798F4A4D
:100EE000127811468E4AD25C8E4B5A54BB7901332C
:100EF000BB718A4B1B780133DAB2884B1A70BB790D
:100F0000022BEBD9884B00221A70884B1B780133D7
:100F1000DAB2864B1A70854B1B789AB2844B1A80D2
:100F2000844B1B680133834A1360834B1B88013356
:100F30009AB2814B1A807D4B1B78322B4FD17F4860
:100F400008F0E6FA794B1B789BB21A46520013441C
:100F50009BB21946734803F059FD744B1B789BB242
:100F600019467748FFF7A3FE704B1B789BB20C2203
:100F700019467348FFF73EFE0346724A13606B4BF7
:100F800000221A70654B00221A706F4B00221A70F3
:100F900021216E48FFF7F4FD6A4B1B68DAB26B4BF8
:100FA0005A70684B1B681B0ADAB2684B9A70654B23
:100FB0001B681B0CDAB2654BDA70644B5A78634BD2
:100FC0001A71624B9A78614B5A71604BDA785F4BB9
:100FD0009A715F4B01221A705E4B01221A705D4BB1
:100FE0001B78002B0CD05A4B1B78002B08D15A4B86
:100FF00000221A70594B01221A70564B00221A70A7
:10100000574B00221A70574B1B78002B2DD0524B98
:101010001B78013B082B24D801A252F823F000BF13
:10102000571000085D1000086310000863100008E6
:10103000631000084B1000086310000845100008FA
:101040005110000802F080FD0CE002F01BFE09E0E8
:1010500002F0BCFD06E002F05BFE03E002F058FE89
:1010600000E000BF3F4B00221A703F4B1B78002B63
:101070002DD0394B1B78013B082B24D801A252F804
:1010800023F000BFBB100008C1100008C710000803
:10109000C7100008C7100008AF100008C7100008EC
:1010A000A9100008B510000802F04EFD0CE002F097
:1010B000E9FD09E002F08AFD06E002F0C7FF03E067
:1010C00003F062F900E000BF274B00221A70274BA3
:1010D0001B78002B6DD0154B1B78002B4AD01C4B76
:1010E0001B78002B46D1104B00221A700F4B1B7837
:1010F0001A4652001344DBB20133DBB21A462121F7
:101100001248FFF759FD124B01221A70074B0022BB
:101110001A70174B01221A704BE000BF69090020BA
:10112000440A00204C0A00205A01002061010020DE
:101130002A0A0020980900206C090020EC050020F4
:10114000E40A0020A8090020850100206401002095
:1011500059010020D0090020B50B0020B40B00205D
:10116000AC0B0020AE0B0020AF0B0020C709002005
:10117000000000209C4B1B78002B1AD19B4B1B7846
:10118000002B16D19A4B00221A709A4B00221A702B
:10119000994B01221A70994B00221A70984B002229
:1011A0001A70984B00221A60FFF7E7FA964808F089
:1011B000AFF9964B1B78002B1FD0954B1B78002B5B
:1011C0001BD0944B1B78052B17D1904B00221A7023
:1011D0008F4B00221A708F4BFF221A70844B04220F
:1011E0001A70854B02221A708B4B01221A70042050
:1011F000FFF74EFA894808F013F97D4B1B78052B51
:1012000039D1824B1B78002B13D0814B1B78002BDC
:101210000FD07E4B00221A707D4B00221A700520E1
:10122000FFF736FA7E4B1B6800225A627C4808F0B2
:10123000F7F87C4B1B78002B1DD07A4B00221A70DC
:1012400005227949794808F097FE01224FF40061A0
:10125000774806F0A7F86A4B01221A700A20FFF7B8
:10126000FDF900224FF40061714806F09BF86C4BC9
:101270001B6800225A626F4B1B78002B00F08180A4
:101280006C4B00221A70644B1B78002B2AD06A4BDF
:1012900000221A80694B00221A80052262496348A5
:1012A00008F06AFE01224FF40061614806F07AF806
:1012B000534B01221A700A20FFF7D0F900224FF495
:1012C00000615B4806F06EF8544B1B6800225A62BE
:1012D0005B4808F0A5F8504B00221A704A4808F005
:1012E0009FF848E005225049504808F045FE012289
:1012F0004FF400614E4806F055F8414B01221A7038
:101300000A20FFF7ABF900224FF40061484806F0CD
:1013100049F83D4808F0FCF84A4B1B881A4613462A
:101320001B049B1A1A46484B1A60374B1B685A6AB3
:10133000454B1B681344444A1360424B00221A80F9
:10134000314B1B6800225A622F4808F069F803F0FD
:1013500007FB03463D4A1360304808F039F82F4B2D
:101360001B683A4A1268DA622C4B1B6800225A62E8
:101370002A4808F055F8364B1B8801339AB2344B93
:101380001A80344B1B78002B09D0334B1B7883F029
:101390000103DBB2002B02D0304808F041F8304B9B
:1013A0001B78002B77D02F4B1B881A462E4B1B889F
:1013B00019462E4B1B880B449A425BDD2C4B187848
:1013C000294B1A88294B1B8813449BB21946FFF7F7
:1013D00047FB234B00221A70204B1B6800225A62E5
:1013E0001E4808F01DF856E0610100205901002058
:1013F000B50B002085010020B40B0020C709002098
:101400005A01002098090020D0060020CB090020B6
:10141000CC090020B2000020CA0900201C070020CF
:10142000EC050020CE0900205C01002068070020A8
:1014300000000240CD090020700900207209002040
:101440000805002078090020880900209009002064
:1014500076090020B8010020BB010020BC04002058
:10146000B20B0020CA010020C80100203400002077
:10147000B00000201B4B1B781B4A128811461846EF
:10148000FFF7EEFA194808F043F8194B00221A70DA
:10149000184B01221A70184B1B78002B3FF479ACC3
:1014A000164B1B88322B0BD80E4B1B781846FFF7B8
:1014B00051FA134808F02CF80F4B00221A7068E418
:1014C000084B1A780D4B1B88323B9BB219461046CD
:1014D000FFF7C6FA0A4B1B6800225A62064B00222D
:1014E0001A7056E4B0000020CA010020BC0400209D
:1014F000B20B0020BB010020B30B0020C80100206C
:101500008406002080B594B000AF07F1200330229C
:101510000021184609F0FCFF07F10C0300221A60B5
:101520005A609A60DA601A612B4B1B6C2A4A43F0AE
:1015300080531364284B1B6C03F08053BB60BB6863
:10154000264B1B68254A43F440431360234B1B681A
:1015500003F440437B607B6809233B624FF4803394
:101560007B6201237B630223BB634FF48003FB6335
:1015700008233B64D8237B640223BB640223FB64FF
:1015800007F12003184605F0F1FF0346002B01D0B8
:1015900003F032FD05F09AFF0346002B01D003F063
:1015A0002BFD0F23FB6002233B6100237B614FF483
:1015B000A053BB614FF4A053FB6107F10C0307215B
:1015C000184606F077FA0346002B01D003F014FD0D
:1015D00000BF5037BD4680BD00380240007000405B
:1015E00080B500AF0B4B0C4A1A600A4B02225A60BE
:1015F000084B40F6FF72DA60064B40F6FF729A60C5
:10160000044805F002FF0346002B01D003F0F4FC70
:1016100000BF80BDCC0100200030004080B500AF8D
:101620001B4B1C4A1A601A4B4FF482725A60184BBB
:1016300000229A60164B4FF4E062DA60144B0222EB
:101640001A61134B00225A61114B4FF400729A61D8
:101650000F4B3822DA610E4B00221A620C4B00222B
:101660005A620B4B00229A62094B0722DA62084B3E
:1016700000221A63064B08225A63054806F088FFC9
:101680000346002B01D003F0B7FC00BF80BD00BFB4
:10169000DC010020003C004080B500AF1B4B1C4A21
:1016A0001A601A4B4FF482725A60184B00229A60EB
:1016B000164B4FF4E062DA60144B02221A61134BAE
:1016C00000225A61114B4FF400729A610F4B38227D
:1016D000DA610E4B00221A620C4B00225A620B4B4D
:1016E00000229A62094B0722DA62084B00221A6331
:1016F000064B08225A63054806F04AFF0346002BB2
:1017000001D003F079FC00BF80BD00BF4002002083
:101710000034014080B588B000AF07F1100300220B
:101720001A605A609A60DA603B1D00221A605A60A3
:101730009A601E4B4FF080421A601C4B6B225A601D
:101740001A4B00229A60194B46F2A712DA60174B27
:1017500000221A61154B00229A61144807F070FDAF
:101760000346002B01D003F047FC4FF480533B614C
:1017700007F1100319460D4808F002F80346002B44
:1017800001D003F039FC00237B600023FB603B1D8C
:101790001946064808F030FA0346002B01D003F042
:1017A0002BFC00BF2037BD4680BD00BF24040020B5
:1017B00080B588B000AF07F1100300221A605A60AC
:1017C0009A60DA603B1D00221A605A609A601E4BD4
:1017D0001E4A1A601C4B40F237425A601A4B0022D4
:1017E0009A60194B43F67F62DA60174B00221A6148
:1017F000154B00229A61144807F022FD0346002B86
:1018000001D003F0F9FB4FF480533B6107F1100363
:1018100019460D4807F0B4FF0346002B01D003F032
:10182000EBFB00237B600023FB603B1D1946064851
:1018300008F0E2F90346002B01D003F0DDFB00BF06
:101840002037BD4680BD00BF70040020000400406A
:1018500080B588B000AF07F1100300221A605A600B
:101860009A60DA603B1D00221A605A609A601D4B34
:101870001D4A1A601B4B42F62F225A60194B002258
:101880009A60184BC822DA60164B00221A61154B79
:1018900000229A61134807F0D3FC0346002B01D0C5
:1018A00003F0AAFB4FF480533B6107F11003194684
:1018B0000C4807F065FF0346002B01D003F09CFBAA
:1018C00000237B600023FB603B1D1946054808F0A0
:1018D00093F90346002B01D003F08EFB00BF2037A5
:1018E000BD4680BDBC0400200008004080B588B023
:1018F00000AF07F1100300221A605A609A60DA60A4
:101900003B1D00221A605A609A601E4B1E4A1A60E4
:101910001C4B42F62F225A601A4B00229A60194B38
:101920004FF0FF32DA60174B00221A61154B00228C
:101930009A61144807F084FC0346002B01D003F0A1
:101940005BFB4FF480533B6107F1100319460D48D0
:1019500007F016FF0346002B01D003F04DFB0023D8
:101960007B600023FB603B1D1946064808F044F9E4
:101970000346002B01D003F03FFB00BF2037BD46DC
:1019800080BD00BF08050020000C004080B584B079
:1019900000AF3B1D00221A605A609A60144B154A32
:1019A0001A60134B6B225A60114B00229A60104B45
:1019B0004FF6FF72DA600E4B00229A610C4807F076
:1019C0003FFC0346002B01D003F016FB00237B6095
:1019D0000023FB603B1D1946054808F00DF903463E
:1019E000002B01D003F008FB00BF1037BD4680BDBF
:1019F000540500200010004080B584B000AF3B1DAE
:101A000000221A605A609A60144B154A1A60134BF0
:101A10006B225A60114B00229A60104B6322DA60ED
:101A20000E4B00229A610D4807F00AFC0346002B7A
:101A300001D003F0E1FA00237B600023FB603B1D33
:101A40001946064808F0D8F80346002B01D003F0E9
:101A5000D3FA00BF1037BD4680BD00BFA0050020EF
:101A60000014004080B500AF0E4B0F4A1A600D4BBA
:101A700045F25F425A600B4B00229A60094B4FF6C9
:101A8000FF72DA60074B00221A61064B00229A614E
:101A9000044807F0D5FB0346002B01D003F0ACFA55
:101AA00000BF80BDEC0500200044014080B500AFC0
:101AB0000E4B0F4A1A600D4B42F62F225A600B4B09
:101AC00000229A60094B47F23052DA60074B00223D
:101AD0001A61064B00229A61044807F0B1FB0346E5
:101AE000002B01D003F088FA00BF80BD380600202B
:101AF0000048014080B584B000AF3B4600221A6028
:101B00005A609A60DA60164B164A1A60144B42F615
:101B10002F225A60124B00229A60114B4FF4FA7236
:101B2000DA600F4B00221A610D4B00229A610C48BB
:101B300007F086FB0346002B01D003F05DFA4FF45B
:101B400080533B603B461946054807F019FE0346A3
:101B5000002B01D003F050FA00BF1037BD4680BD06
:101B6000840600200018004080B500AF0E4B0F4ADD
:101B70001A600D4B40F237425A600B4B00229A60BC
:101B8000094B4FF6FF72DA60074B00221A61064BD1
:101B900000229A61044807F053FB0346002B01D052
:101BA00003F02AFA00BF80BDD0060020001C0040D0
:101BB00080B500AF0E4B0F4A1A600D4B45F25F42E5
:101BC0005A600B4B00229A60094B4FF6FF72DA60A5
:101BD000074B00221A61064B00229A61044807F065
:101BE0002FFB0346002B01D003F006FA00BF80BD97
:101BF0001C0700200020004080B500AF184B1B6878
:101C00009A68174B1B6842F001029A60144B154A00
:101C10001A60134B4FF416425A60114B00229A601F
:101C20000F4B0022DA600E4B00221A610C4B0C2283
:101C30005A610B4B00229A61094B0022DA61084B72
:101C400000221A62064B00225A62054808F080F80A
:101C50000346002B01D003F0CFF900BF80BD00BFC9
:101C6000680700200010014080B500AF194B1B68C9
:101C70009A68184B1B6842F001029A60164B174A8B
:101C80001A60154B4FF4E1325A60134B00229A60F0
:101C9000114B0022DA60104B00221A610E4B0C220D
:101CA0005A610D4B00229A610B4B0022DA610A4BFC
:101CB00000221A62084B00225A62002300220021EF
:101CC000054809F093FB0346002B01D003F094F97B
:101CD00000BF80BD68070020F007002000480040DA
:101CE00080B582B000AF264B1B6B254A43F400132E
:101CF0001363234B1B6B03F400137B607B68204B47
:101D00001B6B1F4A43F4800313631D4B1B6B03F4CF
:101D100080033B603B68002201210B2004F04BF95B
:101D20000B2004F064F9002201210C2004F043F997
:101D30000C2004F05CF900220121102004F03BF992
:101D4000102004F054F901220121382004F033F965
:101D5000382004F04CF901220121392004F02BF93C
:101D6000392004F044F9002201213A2004F023F93B
:101D70003A2004F03CF900BF0837BD4680BD00BFE3
:101D80000038024080B58AB000AF07F1140300228A
:101D90001A605A609A60DA601A613D4B1B6B3C4ACC
:101DA00043F0100313633A4B1B6B03F010033B61CA
:101DB0003B69374B1B6B364A43F080031363344B4C
:101DC0001B6B03F08003FB60FB68314B1B6B304ADD
:101DD00043F0010313632E4B1B6B03F00103BB6045
:101DE000BB682B4B1B6B2A4A43F004031363284B3D
:101DF0001B6B03F004037B607B68254B1B6B244A41
:101E000043F002031363224B1B6B03F002033B609E
:101E10003B6800224FF407611E4805F0C3FA002218
:101E200020211D4805F0BEFA002203211B4805F0C1
:101E3000B9FA4FF407637B610123BB610023FB61A7
:101E400000233B6207F114031946124805F012F80B
:101E500020237B610123BB610023FB6100233B62E4
:101E600007F1140319460C4805F004F803237B61BD
:101E70000123BB610023FB6100233B6207F11403D4
:101E80001946064804F0F6FF00BF2837BD4680BD5E
:101E900000380240000002400008024000040240F6
:101EA00080B586B002AFA24B1B78202B01F23B819C
:101EB00001A252F823F000BF3D1F00084B1F00088D
:101EC00019230008BD1F000827310008C727000894
:101ED0001129000861290008CF2A0008112C0008E8
:101EE000752C0008A32C0008BB2C00082731000823
:101EF000CD2C0008172D00082F2D0008152E0008E6
:101F0000352E0008552E0008F92E0008712F000804
:101F1000273100089B2F0008C52F000867300008F4
:101F2000BF3000082731000827310008273100089A
:101F30002731000827310008A53000087D4807F048
:101F400055FFFFF791FE01F0EEB805227A497B4874
:101F500006F0CAFB05227A497A4806F0C5FB7A4B9F
:101F60001B7883F00103DBB2002B21D0774B1B7869
:101F700083F00103DBB2002B1AD0754B5B6F93F833
:101F80003530DBB2012B13D105227249704807F0BE
:101F9000F3FF01224FF400616F4805F003FA0A20B5
:101FA000FEF75CFB00224FF400616B4805F0FAF984
:101FB0000021012001F004FB01F0B5B8012103204C
:101FC00001F0FEFA654B00221A80654B00221A8050
:101FD0005E4B01221A70634B00221A705A4B00228A
:101FE0001A70614B00221A70604B00221A70604B0D
:101FF0004F4A92E803001860043319805C4B9B78C9
:10200000013B5C4A13441B7A1AB25B4B1A80584B53
:102010005B78013B574A13441B7A9BB2C3F5B473F8
:102020009BB21AB2554B1A80534BB3F90030B42B04
:1020300007D1524BB3F90030B42B02D1494B0122E6
:102040001A704B4BDB78013B4D4A093332F81320B1
:102050004C4B1A804B4B1B88184602F01FFD464B19
:10206000B3F900309BB205339AB2474B1A80474B05
:1020700000221A70464B00221A70464B00221A703A
:10208000454B00221A70454B00221A70444B002227
:102090001A703D4B1B885B04424A82FB03121A44B0
:1020A0001212DB17D31A1A463F4B1A603E4B1B68BD
:1020B0002D4A12781146184601F0ACFB03463A4A05
:1020C0001360294B1B78384A12681146184601F0F4
:1020D000D5F8294BB3F900305B04324A82FB031276
:1020E0001A441212DB17D31A1A46304B1A602F4BC0
:1020F0001B681D4A12781146184601F08BFB0346F7
:102100002A4A13601F4B1B881A46284B1B6813442E
:10211000B3F5003F4ED91B4B1B881A46234B1B6857
:102120001344A3F500331A46214B1A604BE000BF5D
:102130002C0A0020F007002038090020400200206F
:1021400040090020DC01002085010020580100200A
:10215000680700205C010020000002406C0900209C
:1021600076090020D1090020B0000020590100208C
:10217000340A002040000020240A0020260A002003
:1021800050000020200A0020280A0020C109002059
:10219000C3090020C2090020C4090020C50900208D
:1021A000C6090020B7600BB6EC090020DC0900204E
:1021B000F8090020494B1B881A46494B1B681344F9
:1021C0001A46484B1A60464B1B68444A12889B1AB1
:1021D0001A46444B1A60444B1B78002B4DD0434B9E
:1021E000B3F900305B04424A82FB03121A44121214
:1021F000DB17D31A3F4A13603E4B1B681A463E4B0F
:102200001B781946104601F005FB03461A46394B68
:102210001A60384B1B68B3F5347F0CDA354B1B68FA
:10222000A3F53473002BB8BF5B42C3F500331A46E5
:10223000324B1A6006E02F4B1B68A3F534731A4625
:102240002E4B1A60294BB3F9003004335B04284A43
:1022500082FB03121A441212DB17D31A1A46284BB8
:102260001A60274B1B68244A12781146184601F061
:10227000D1FA0346224A136018E01C4BB3F9003030
:102280005B041B4A82FB03121A441212DB17D31A97
:102290001A461B4B1A601A4B1B68174A12781146D4
:1022A000184601F0B7FA0346154A1360154B02228F
:1022B0001A70154B02221A70144B01221A70144B1B
:1022C00040F2DC521A800C4B1B781A46114B1B68EB
:1022D00019461046FEF796FA00F025BF200A0020A6
:1022E000DC090020F8090020D1090020260A00207E
:1022F000B7600BB6F4090020B0000020AC09002044
:10230000E4090020B50B0020B40B0020B60B002020
:10231000CA010020BC0B00200121022001F050F96D
:102320009C4B00221A809C4B00221A809B4B00225F
:102330001A809B4B01221A709A4B00221A709A4BFA
:1023400000221A80994B00221A80994B00221A70A1
:10235000984B1B78002B14BF01230023DAB2964B55
:102360001A70964B00221A700120FEF791F9944BD7
:10237000944A92E80300186004331980904B9B78CC
:10238000013B914A13441B7A1AB2824B1A808C4B40
:102390005B78013B8C4A13441B7A9BB2C3F5B47340
:1023A0009BB21AB27C4B1A807A4BB3F90030B42B33
:1023B00007D1794BB3F90030B42B02D1794B01220C
:1023C0001A70744BB3F900309BB205339AB2734B59
:1023D0001A807E4B00221A707D4B00221A707D4BB2
:1023E00000221A70744B1B7883F00103DBB2002BC0
:1023F00000F00C81724BDB78013B774A093332F8ED
:102400001320764B1A80754B1B88184602F046FB4A
:10241000624B1B885B04724A82FB03121A4412123D
:10242000DB17D31A1A466F4B1A606E4B1B68624A51
:1024300012781146184601F0EDF90346694A136017
:102440005D4B1B78674A12681146184600F016FF6C
:10245000504BB3F900305B04614A82FB03121A440B
:102460001212DB17D31A1A465F4B1A605E4B1B68B9
:10247000514A12781146184601F0CCF903465A4ADF
:102480001360594B1B68554A12889B1A1A46574BC2
:102490001A60444B1B78002B4DD03F4BB3F90030F2
:1024A0005B044F4A82FB03121A441212DB17D31A41
:1024B0004F4A13604E4B1B681A463F4B1B78194618
:1024C000104601F0A7F903461A46494B1A60484BDB
:1024D0001B68B3F5347F0CDA454B1B68A3F53473E6
:1024E000002BB8BF5B42C3F500331A46414B1A605C
:1024F00006E03F4B1B68A3F534731A463D4B1A6048
:10250000254BB3F9003004335B04354A82FB0312D8
:102510001A441212DB17D31A1A46374B1A60364B7D
:102520001B68254A12781146184601F073F90346D4
:10253000314A136018E0184BB3F900305B04284AA5
:1025400082FB03121A441212DB17D31A1A462A4BC3
:102550001A60294B1B68184A12781146184601F078
:1025600059F90346244A1360244B01221A70244B64
:1025700002221A70234B40F2DC521A800E4B1B7859
:102580001A46214B1B6819461046FEF73BF900F02E
:10259000C7BD00BF240A0020260A0020280A002008
:1025A00058010020D10900206C0900207609002084
:1025B00085010020B70B0020B00000205901002049
:1025C000340A00202C0A002040000020C10900200D
:1025D000C3090020C209002050000020200A00206A
:1025E000B7600BB6EC090020DC090020F8090020D8
:1025F000F4090020AC090020E4090020B50B0020FC
:10260000B40B0020CA010020BC0B00209F4B1B789C
:10261000002B00F085859E4BDB78013B9D4A0933FA
:1026200032F813209C4B1A809B4B1B88184602F0F3
:1026300035FA9A4B1B885B04994A82FB03121A44B1
:102640001212DB17D31A1A46964B1A60954B1B6869
:102650008E4A12781146184601F0DCF80346914A7A
:1026600013608A4B1B788F4A12681146184600F097
:1026700005FE8D4BB3F900305B04894A82FB0312DF
:102680001A441212DB17D31A1A46884B1A60874B6A
:102690001B687E4A12781146184601F0BBF80346C3
:1026A000824A1360814B1B687B4A12889B1A1A4628
:1026B0007F4B1A607F4B1B78002B4DD07E4BB3F9BC
:1026C00000305B04764A82FB03121A441212DB17B5
:1026D000D31A7A4A1360794B1B681A466B4B1B78E6
:1026E0001946104601F096F803461A46734B1A60D5
:1026F000724B1B68B3F5347F0CDA704B1B68A3F583
:102700003473002BB8BF5B42C3F500331A466C4BE1
:102710001A6006E0694B1B68A3F534731A46684BD0
:102720001A60654BB3F9003004335B045C4A82FBEA
:1027300003121A441212DB17D31A1A46614B1A609D
:10274000604B1B68514A12781146184601F062F836
:1027500003465C4A136018E0574BB3F900305B0442
:102760004F4A82FB03121A441212DB17D31A1A467D
:10277000544B1A60534B1B68444A12781146184652
:1027800001F048F803464F4A13604E4B1A68474B16
:102790001B689A4202D24C4B01221A704B4B012209
:1027A0001A704B4B02221A704A4B40F2DC521A80CC
:1027B000364B1B781A46484B1B6819461046FEF7E5
:1027C00021F800F0ADBC324B444A92E80300186097
:1027D00004331980424B1B6800225A62414B01228C
:1027E0001A70414B1B78002B03D0404B05221A7006
:1027F00002E03E4B00221A703D4B00221A70244B1F
:102800005B78013B3B4A52F82320214B9B78013BEC
:10281000394931F813301946104602F07FF8034663
:10282000364A1360364806F0D3FD194B5B785A1EC2
:10283000334B1B682F4951F82220DA62304B1B685A
:1028400000225A622F4806F0C3FD114B9B78013BD2
:10285000294A32F813202C4B1A802B4B1A88294B0B
:102860001B68DA62284B1B881A4613469B001344E8
:102870009B001A46254B1A60224B1B6800225A62A5
:102880000121052000F09CFE00F04DBCB0000020AE
:10289000340A002050000020220A0020280A0020CC
:1028A000B7600BB6F0090020240A0020E0090020E0
:1028B000FC090020D1090020260A0020F40900208C
:1028C000AC090020E8090020C8090020B50B002051
:1028D000B40B0020CA010020C00B00202C0A0020ED
:1028E000D0060020CF090020CB090020B200002034
:1028F000C709002074000020980000209C090020D7
:10290000080500201C0700206A0900208C0900200F
:102910000121062000F054FEA34B1B68A34A13605C
:10292000A34B00221A7000221021A24804F03AFDA5
:10293000A14B1B681946002000F0A0FC4FF4C871A1
:102940000020FEF78DF89D4806F06AFD9C4806F0D1
:1029500067FD9C4B06221A709B4B01221A70E2E322
:102960000121072000F02CFE964B1B78013B052B24
:1029700000F2A58001A252F823F000BF95290008BB
:10298000EF290008BF2A0008492A0008BF2A0008CA
:10299000AB2A00088D4B1B781846FDF7C7FF8C4B00
:1029A0001B78002B13D08B4B1B78002B0FD1884B3F
:1029B0001B781A4652001344DBB20133DBB21A46CD
:1029C00021218548FEF7F8F8824B01221A70804BCE
:1029D00000221A70814B01221A70814B00221A705A
:1029E000804B00221A70804B00221A7068E0774BEF
:1029F0001B781846FDF79AFF754B1B78002B13D0F8
:102A0000744B1B78002B0FD1714B1B781A46520068
:102A10001344DBB20133DBB21A4621216E48FEF7C4
:102A2000CBF86C4B01221A70694B00221A706B4B69
:102A300001221A706A4B00221A706A4B00221A7027
:102A4000694B00221A703BE0684806F0C1FC6848F8
:102A500006F0BEFC674806F0BBFC5D4B1B78002B04
:102A600013D05C4B1B78002B0FD1594B1B781A46A7
:102A700052001344DBB20133DBB21A46212156481F
:102A8000FEF79AF8534B01221A70514B00221A702C
:102A9000524B01221A70524B00221A70514B0022E5
:102AA0001A70554B00221A800AE0454806F030FDA6
:102AB000524806F02DFD414806F02AFD00E000BF17
:102AC000404B00221A70404B01221A702BE3012167
:102AD000082000F075FD0023FB80494BDB78002BBC
:102AE00030D0484B00221A60384B01221A70444BF8
:102AF0009B789BB21B02FB80414B5B789AB2FB88B0
:102B00001343FB80FB885B043F4A82FB03121A4499
:102B10001212DB17D31A1A463A4B1A60394B1B684C
:102B20002A4A12781146184600F074FE0346354AC8
:102B30001360264B1B78334A12681146184600F082
:102B40009DFBF0E2314B00221A60204B00221A70EC
:102B50002B4B9B789BB21B02FB80294B5B789AB274
:102B6000FB881343FB80FB885B04274A82FB03122C
:102B70001A441212DB17D31A1A46244B1A60234B3D
:102B80001B68124A12781146184600F043FE0346AD
:102B90001E4A13600D4B1B781C4A126811461846DA
:102BA00000F06CFBBFE200BFBC0B0020080A002055
:102BB000C909002000000240180A0020A0050020DA
:102BC00024040020B50B0020B40B0020B00000202E
:102BD0006101002059010020640100200000002054
:102BE000850100205A010020B60B00201C070020A0
:102BF00008050020D0060020820900207004002073
:102C00002C0A0020140A0020B7600BB6100A00201E
:102C10009F4B5B78002B14BF01230023DAB29D4B3E
:102C20001A700121092000F0CBFC9B4B01221A7085
:102C30009A4B09221A709A4B01221A70944B5B78B6
:102C4000002B0BD14FF4C8710020FDF709FF954808
:102C500006F0E6FB944806F0E3FB64E24FF4C8712B
:102C60000120FDF7FDFE8F4806F0DAFB8F4806F0E5
:102C7000D7FB58E28E4B864A92E803001860043373
:102C8000198001210A2000F09BFC894B5B78002B06
:102C900003D0884B01221A7045E2864B00221A703D
:102CA00041E200F06BFD844B00221A70834B1B88BD
:102CB00001339AB2814B1A8035E200F021FF764B46
:102CC00001221A707E4B00221A702CE2704B9B7806
:102CD000002B0DD07B4B00221A70012210217A4864
:102CE00004F060FB01222021784804F05BFB0CE03B
:102CF000744B01221A7000221021734804F052FB19
:102D000000222021714804F04DFB614B5B7818468E
:102D100000F048FA07E25F4B1B78002B40F002827C
:102D2000604806F07DFB604806F07AFBFAE101217D
:102D3000102000F045FC594B08221A70644B002209
:102D40001A60534B9B781B021A46614B1A60504B1A
:102D50005B781A465E4B1B6813435D4A13604D4B0C
:102D60001B78002B2AD096210120FDF779FE594BC4
:102D700000221A60564B1B685B04DB08564AA2FB14
:102D800003239B08BB60434B1B781946B86800F0CF
:102D900041FD03464F4A13603E4B1B784D4A126873
:102DA0001146184600F06AFA3A4B1B781A464B4B0C
:102DB0001B6819461046FDF725FDB4E14FF4C871B4
:102DC0000020FDF74DFE464B00221A60404B1B6869
:102DD0005B04DB08404AA2FB03239B08BB602D4B2E
:102DE0001B781946B86800F015FD03463C4A13608D
:102DF000284B1B783A4A12681146184600F03EFAF2
:102E0000244B1B781A46354B1B6819461046FDF7B4
:102E1000F9FC88E10121112000F0D2FB1D4B1B7849
:102E20001846FDF783FD1D4B00221A701C4B002233
:102E30001A7078E10121122000F0C2FB144B5B787C
:102E4000002B03D0134B01221A706CE1114B0022AE
:102E50001A7068E10121132000F0B2FB214B1B68BE
:102E6000214A13601D4B1B68204A13601E4B1B68D0
:102E70001F4A13601D4B1B681D4A536004230093B7
:102E800002231C4A02211A48FDF764FB4BE100BFF4
:102E90002C0A0020B0000020B40B0020B50B00204D
:102EA000B60B0020A00500202404002070040020A0
:102EB000340A0020B70B00205901002074090020BB
:102EC000C0090020B00B00200000024000080240B2
:102ED0001C0A00200C0A0020176CC116C00B002031
:102EE000080A0020BC0B0020000A0020040A002071
:102EF000B0090020008001080121142000F060FBCF
:102F00008C4B01221A708C4B01221A708B4B0022C1
:102F10001A708B4B5B78184600F036FD03461A4654
:102F2000884B1A70864B9B78012B07D1854B1B78F9
:102F300063F07F03DAB2834B1A7006E0814B1B7893
:102F400043F00803DAB27F4B1A707E4B1A787D4B40
:102F50005A707D4807F054F86423012279497A4871
:102F600006F081FF05227949774807F005F8DAE095
:102F700005227749744806F0FFFF01224FF40061F3
:102F8000744804F00FFA012002F0F2FE00224FF420
:102F90000061704804F006FAC5E00121172000F036
:102FA0000FFB6D4B1B686D4A13606D4B1B686B4AC2
:102FB00053600323009302236A4A02216748FDF706
:102FC000C9FAB0E0684B1B7883F00103DBB2002B39
:102FD00024D0012210215F4804F0E4F9634B002261
:102FE0001A70012220215B4804F0DCF9642002F011
:102FF000BFFE00222021574804F0D4F905225C4985
:103000005C4805F071FB0021012000F0D9FA574B14
:103010001B780133DAB2554B1A70E2E70122202106
:10302000554804F0BFF9514B00221A7001220121CA
:10303000524804F0B7F9642002F09AFE0022012100
:103040004E4804F0AFF905224D494E4805F04CFBBF
:103050000021012000F0B4FA444B1B780133DAB2AE
:10306000424B1A70E2E7404B1B7883F00103DBB25E
:10307000002B0BD005223E493E4805F035FB64236A
:1030800005223B49404806F0EEFE4CE005223C4953
:103090003C4805F029FB6423052239493A4806F0EB
:1030A000E2FE40E00023FB6002E0FB680133FB60CE
:1030B000FB68812BF9DD354808F0A0FA33E00121E7
:1030C0001A2000F07DFA324B1B684FF4FA72DA6274
:1030D000184B01221A702F4B00221A70164B012236
:1030E0001A70164B00221A70012000F0DFFB034615
:1030F0001A46144B1A70284B05221A70274B0222CD
:103100001A70114806F07CFF642301220D490E4815
:1031100006F0A9FE05220D490B4806F02DFF02E03E
:1031200000BF00E000BF1E4B00221A7000BF103726
:10313000BD4680BD85010020CB090020CC090020C0
:103140002C0A00207C09002068070020380000209D
:103150005C01002000000240BC0B0020B8090020E8
:10316000C00B002000000108B000002085090020ED
:1031700038090020400200200008024000040240FC
:1031800040090020DC010020F007002034BF0008C7
:10319000EC05002069090020B50B0020B40B0020CD
:1031A000AD0B002080B584B000AF0346FB712A4B05
:1031B0001B7883F00103DBB2002B29D00023FB60D6
:1031C00021E001222021254804F0ECF8022002F041
:1031D000CFFD00222021214804F0E4F8022002F073
:1031E000C7FD20211D4804F0F6F805221C491D48A2
:1031F00005F07AFA6423052219491B4806F033FECC
:10320000FB680133FB60FB79FA689A42D9DB1BE06B
:103210000023BB6014E00121144804F0DCF8042012
:1032200002F0A6FD05221249124805F05DFA64235A
:1032300005220F490C4806F016FEBB680133BB603F
:10324000FB79BA689A42E6DB0B4B00221A7000BF8A
:103250001037BD4680BD00BFB00000200000024016
:103260003809002040020020F0070020000402403E
:1032700040090020DC0100208409002080B582B0D4
:1032800000AF03463960FB71FB7983F00103DBB2C9
:10329000002B40D0424B1B683A689A421DD2404BEB
:1032A0001A683B68D21A3E4B1B683968CB1A03F583
:1032B00000339A4208D9012210213A4804F072F8EA
:1032C000394B00221A7066E000221021354804F0C4
:1032D00069F8354B01221A705DE0314B1A683B6882
:1032E000D31A03F500322E4B1B683968CB1A9A4269
:1032F00008D2002210212B4804F054F82A4B012256
:103300001A7048E001221021264804F04BF8264BA1
:1033100000221A703FE0254B1B683A689A421DD282
:10332000224B1A683B68D21A204B1B683968CB1AAB
:1033300003F500339A4208D9012220211C4804F0E9
:1033400031F81C4B00221A7025E000222021184879
:1033500004F028F8174B01221A701CE0134B1A686E
:103360003B68D31A03F50032104B1B683968CB1A3F
:103370009A4208D2002220210D4804F013F80D4B88
:1033800001221A7007E001222021094804F00AF8FE
:10339000084B00221A7000BF0837BD4680BD00BF31
:1033A000BC0B002000000240B00B0020C00B00202E
:1033B00000080240B10B002080B582B000AF7860F9
:1033C000391D4FF6FF730122034806F04CFD7B6860
:1033D00018460837BD4680BDF007002080B485B090
:1033E00000AF78607B681B682C4A934202D12C4B5B
:1033F00001221A707B681B682A4A934248D12A4BE3
:103400001B78002B41D00023FB60284B1B781A4609
:10341000264B5B781344254A92781344FB60FB6883
:10342000DBB2FB60214BDB781A46FB68934203D189
:103430001E4B1B79A52B06D01D4B00221A701D4B6D
:1034400002221A700DE0194B1A781B4B1B781B09CE
:10345000DBB29A4205D0164B00221A70154B01229E
:103460001A70164B1B78002B09D0144B00221A70CF
:10347000134B00221A70134B00221A7002E0104BFB
:1034800001221A70084B00221A700F4B01221A7089
:1034900000BF1437BD465DF8047B7047004800400C
:1034A000AD0B0020001001408501002038000020F5
:1034B000B40B0020C00900207C090020B1000020CE
:1034C000CC090020CB090020AC0B002080B483B0D5
:1034D00000AF78607B681B682D4A934226D12D4B44
:1034E0009B785B09DBB203F007032B4A1360294B7F
:1034F0005B78DA00284B1B681343274A1360254B7F
:103500001B78DB0203F4FC32234B1B681343224A73
:103510001360214B1B68214A53611F4B1B68C3F585
:1035200000331F4A13601F4B01221A707B681B680F
:103530001D4A934226D11D4B9B785B09DBB203F0F9
:1035400007031B4A1360194B5B78DA00184B1B68A2
:103550001343174A1360154B1B78DB0203F4FC324C
:10356000134B1B681343124A1360114B1B68114A1B
:1035700053610F4B1B68C3F500330F4A13600F4BA9
:1035800001221A7000BF0C37BD465DF8047B7047FE
:103590000034014038090020BC0B002088010020C5
:1035A000D4090020AE0B0020003C00404009002060
:1035B000C00B002004000020D8090020AF0B002021
:1035C00080B584B000AF03460A46FB711346BB7159
:1035D0005D4B00221A80FB79012B40F09A805B4BF7
:1035E00001221A705A4B1A78584B5A70594B1A7854
:1035F000564B9A70584B1B781A46544BDA70574BFF
:103600001A78524B1A71564B1A78504B5A71554BC7
:103610001A784E4B9A71534B5A784C4BDA71514B86
:103620009A784A4B1A72504B1B68DAB2474B5A725F
:103630004D4B1B681B0ADAB2444B9A724A4B1B680B
:103640001B0CDAB2414BDA72484B1B68DAB23F4BC3
:103650001A73464B1B681B0ADAB23C4B5A73434B36
:103660001B681B0CDAB2394B9A73414B1B68DAB2F8
:10367000364BDA733E4B1B681B0ADAB2334B1A74B3
:103680003B4B1B681B0CDAB2304B5A74374B5B68F0
:10369000DAB22E4B9A74354B5B681B0ADAB22B4BAD
:1036A000DA74324B5B681B0CDAB2284B1A75274B65
:1036B0000022DA77254B002283F820200023FB60CC
:1036C00016E0224AFB6813441B789AB2FB68013368
:1036D0001E49CB5C9BB21B029BB213449AB21A4B9D
:1036E0001B8813449AB2184B1A80FB680233FB60A4
:1036F000FB681D2BE5DD154B9B7F9AB2124B1B8897
:1037000013449AB2104B1A801A4B0F4A12881A802F
:1037100010E021210D48FDF733FA0C4AFB791370B4
:103720000A4ABB795370094AFB79D377074ABB79B8
:1037300082F820306423212204490F4806F093FBCD
:1037400000BF1037BD4680BD7E090020480900201B
:10375000B40B0020B50B0020B60B0020590100204F
:10376000B80B00203C0A0020D4090020B809002032
:10377000D809002067090020F007002080B582B03A
:1037800000AF0023FB801F4B0B221A701D4B002241
:10379000DA771C4B002283F8202000233B6013E0E3
:1037A000184A3B6813441B789AB23B6801331549A9
:1037B000CB5C9BB21B029BB213449AB2FB881344AE
:1037C000FB803B6802333B603B681D2BE8DD0D4B03
:1037D0009B7F9AB2FB881344FB800B4AFB881380C3
:1037E0000A4806F00DFC642321220649074806F02A
:1037F0003AFB06220649054806F0BEFB00BF083723
:10380000BD4680BD6401002083010020F007002038
:103810002C0A002080B485B000AF78600B46FB70A6
:103820000023FB60FB78002B14D01E4B1A687B68CA
:103830001344B3F5003F07D91A4B1A687B68134449
:10384000A3F50033FB6019E0164B1B687A6813443C
:10385000FB6013E0144B1A687B681344B3F5003F18
:1038600007D9114B1A687B681344A3F50033FB603A
:1038700004E00D4B1B687A681344FB60FB68002B67
:1038800001D15C23FB60FB68B3F5003F02D1FB680C
:103890005C3BFB60FB6818461437BD465DF8047B53
:1038A000704700BF040A0020000A002080B483B0E3
:1038B00000AF0346FB71FB79802B5CD0802B5CDC76
:1038C000202B47DC002B58DD013B1F2B55D801A2D4
:1038D00052F823F05B3900085F3900087B39000893
:1038E000633900087B3900087B3900087B39000800
:1038F000673900087B3900087B3900087B390008EC
:103900007B3900087B3900087B3900087B390008C7
:103910006B3900087B3900087B3900087B390008C7
:103920007B3900087B3900087B3900087B390008A7
:103930007B3900087B3900087B3900087B39000897
:103940007B3900087B3900087B3900087B39000887
:103950006F390008402B0CD00FE000230EE011233C
:103960000CE022230AE0332308E0442306E0552339
:1039700004E0662302E0772300E0012318460C37B9
:10398000BD465DF8047B704780B483B000AF03464A
:10399000FB71FB79802B5CD0802B5CDC202B47DC1F
:1039A000002B58DD013B1F2B55D801A252F823F004
:1039B000373A00083B3A0008573A00083F3A0008F7
:1039C000573A0008573A0008573A0008433A0008A7
:1039D000573A0008573A0008573A0008573A000883
:1039E000573A0008573A0008573A0008473A000883
:1039F000573A0008573A0008573A0008573A000863
:103A0000573A0008573A0008573A0008573A000852
:103A1000573A0008573A0008573A0008573A000842
:103A2000573A0008573A0008573A00084B3A00083E
:103A3000402B0CD00FE007230EE016230CE02523CB
:103A40000AE0342308E0432306E0522304E0612324
:103A500002E0702300E0012318460C37BD465DF8F4
:103A6000047B704780B400AF1F4B1B781A461E4B77
:103A70005B7813441C4A92781344DBB21A4AD2781A
:103A800093422CD1184B1B79A52B28D1174B1B78AF
:103A9000002B12D0144B1A78154B1A70124B5A780F
:103AA000134B5A70104B9A78114B9A70114B1B881C
:103AB00001339AB20F4B1A800BE00B4B1A780E4B66
:103AC0001A70094B5A780C4B5A70074B9A780A4B6C
:103AD0009A700A4B1B8801339AB2084B1A8000BFB8
:103AE000BD465DF8047B70475C0100205A01002050
:103AF000440A00206E0900203C0A002070090020C2
:103B000080B500AF21210D48FDF73AF80B4B0C2290
:103B10001A700B4B1A78094B5A70084B0C22DA7743
:103B2000074B1A78054B83F8202064232122034990
:103B3000044806F098F900BF80BD00BF4809002086
:103B4000C0090020F007002080B500AF194B1B789A
:103B5000002B16D0184B1B681A1F184B1B689A4273
:103B600025D8154B1B681A1D144B1B689A421ED38F
:103B7000104B1B781846FCF7EDFE114B00221A7013
:103B800015E0104B1B681A1F0F4B1B689A420ED88A
:103B90000C4B1B681A1D0C4B1B689A4207D3054B34
:103BA0001B781846FCF7D6FE054B00221A7000BFA2
:103BB00080BD00BFB00000200C0A0020C00B002018
:103BC000B50B0020080A0020BC0B002080B500AF18
:103BD000224B1B784B211846FCF742FF1F4B1B78EA
:103BE000002B1CD01E4B1B68A3F12E021D4B1B6823
:103BF0009A4230D81A4B1B6803F12E02194B1B68EE
:103C00009A4228D3184805F083FC184805F080FC38
:103C1000174B00221A70174B00221A701BE0164B2C
:103C20001B68A3F12E02154B1B689A4213D8124B46
:103C30001B6803F12E02114B1B689A420BD31048EC
:103C400005F066FC094805F063FC094B00221A7078
:103C5000084B00221A7000BF80BD00BFB0000020DA
:103C6000140A0020C00B002070040020A0050020D2
:103C7000B50B0020B60B0020100A0020BC0B002062
:103C80002404002080B500AF1A4B1B7883F0010399
:103C9000DBB2002B13D0184B1B68A3F12E02174B7D
:103CA0001B689A4224D8144B1B6803F12E02134B55
:103CB0001B689A421CD30F4B01221A7018E0104B5C
:103CC0001B68A3F12E020D4B1B689A4210D80C4BB7
:103CD0001B6803F12E02094B1B689A4208D309485E
:103CE00005F016FC084805F013FC084B00221A707A
:103CF00000BF80BDC9090020180A0020BC0B0020AD
:103D0000080A002024040020A0050020B50B002094
:103D100080B500AF654B1B7883F00103DBB2002B4D
:103D20002DD0634B01221A70624B1B685A1F624BE5
:103D30001B689A4223D85F4B1B685A1D5E4B1B6859
:103D40009A421CD35D4B1B781846FCF703FE5B4B75
:103D50001B785B4A126811461846FFF78FFA534BDF
:103D600001221A70574B1A88574B1A80534B1B78F5
:103D70001A46514B1B6819461046FCF743FD4B4B46
:103D80001B78002B00F0F280504B1B7883F001036E
:103D9000DBB2002B2AD0464B00221A70484B1B681E
:103DA0005A1F454B1B689A4220D8454B1B685A1D29
:103DB000414B1B689A4219D3444B01221A700522C9
:103DC0004349444806F0D8F801224FF400614248C4
:103DD00003F0E8FA414B01221A701E20FCF73EFC6A
:103DE00000224FF400613C4803F0DCFA374B1B78AB
:103DF000002B00F0BB803A4B1B7883F00103DBB251
:103E0000002B00F0B3802C4B1A68364B1B689A428B
:103E100028D3344B1B6803F12E02274B1B689A42B0
:103E200020D305222A492B4806F0A6F801224FF498
:103E30000061294803F0B6FA284B01221A701E20AF
:103E4000FCF70CFC00224FF40061234803F0AAFAAF
:103E5000254B1B8801339AB2234B1A80204B012239
:103E60001A70C5E0214B1B68043B1A46124B1B68B5
:103E70009A4263D81D4B1B6804331A460E4B1B68CD
:103E80009A425BD3194B1B68194A12889B1A002B64
:103E900030DA164B1B68164A12889B1A002BB8BFE3
:103EA0005B42C3F50033114A13602AE0C3090020C6
:103EB000B60B0020EC090020BC0B0020B000002055
:103EC000DC090020B4000020CA010020C109002044
:103ED0005C01002068070020000002405A01002019
:103EE000C2090020E409002076090020F80900201A
:103EF000200A00203F4B1B683F4A12889B1A3D4A0C
:103F0000136005223D493E4806F036F801224FF481
:103F100000613C4803F046FA3B4B01221A701E2018
:103F2000FCF79CFB00224FF40061364803F03AFA9C
:103F3000364B1B8801339AB2344B1A80344B1B78B2
:103F4000002B13D0334B1B68A3F13C02324B1B6890
:103F50009A420BD82F4B1B6803F13C022E4B1B6877
:103F60009A4203D32D4B1B682D4A13602D4B1B78AF
:103F7000002B3DD0244B1B7883F00103DBB2002BD8
:103F800036D0294B1B78002B32D1284B1B78002BC5
:103F90000FD0264B1B781A4652001344DBB2013374
:103FA000DBB21A4621212248FCF706FE1E4B0122F5
:103FB0001A701E4B00221A701E4B01221A701E4BE3
:103FC00000221A701D4B00221A701D4B01221A701C
:103FD000144B01221A700C4B00221A70194B00224C
:103FE0001A70FCF7CAFB184B1B781846FCF79EFCAE
:103FF00080BD00BFF8090020200A00205C010020DD
:1040000068070020000002405A01002076090020C5
:10401000D1090020AC090020BC0B0020DC090020E5
:10402000E4090020C209002059010020610100209C
:104030006401002000000020B50B00208501002055
:10404000B40B002058010020B000002080B500AF64
:10405000664B1B7883F00103DBB2002B2DD0644B41
:1040600001221A70634B1B685A1F634B1B689A42EC
:1040700023D8604B1B685A1D5F4B1B689A421CD3A8
:104080005E4B1B781846FCF765FC5C4B1B785C4A62
:10409000126811461846FFF7F1F8544B01221A70C6
:1040A000584B1A88584B1A80544B1B781A46524B5F
:1040B0001B6819461046FCF7A5FB4C4B1B78002BE0
:1040C00000F0F480514B1B7883F00103DBB2002B2E
:1040D0002AD0474B00221A70494B1B685A1F464B87
:1040E0001B689A4220D8464B1B685A1D424B1B68DE
:1040F0009A4219D3454B01221A700522444945487A
:1041000005F03AFF01224FF40061434803F04AF9F9
:10411000424B01221A700A20FCF7A0FA00224FF449
:1041200000613D4803F03EF9384B1B78002B00F04E
:10413000BD803B4B1B7883F00103DBB2002B00F00A
:10414000B580384B1B68A3F108022B4B1B689A42C1
:1041500028D8344B1B6803F10802274B1B689A428E
:1041600020D305222A492B4805F006FF01224FF4EF
:104170000061294803F016F9284B01221A700A2021
:10418000FCF76CFA00224FF40061234803F00AF9AF
:10419000254B1B8801339AB2234B1A80204B0122F6
:1041A0001A70C3E0214B1B68043B1A46124B1B6874
:1041B0009A4263D81D4B1B6804331A460E4B1B688A
:1041C0009A425BD3194B1B68194A12889B1A002B21
:1041D00030DA164B1B68164A12889B1A002BB8BFA0
:1041E0005B42C3F50033114A13602AE0C309002083
:1041F000B60B0020F0090020C00B0020B00000200A
:10420000E0090020B6000020CA010020C1090020FA
:104210005C01002068070020000002405A010020D5
:10422000C2090020E809002076090020FC090020CE
:10423000220A00203E4B1B683E4A12889B1A3C4AC9
:10424000136005223C493D4805F096FE01224FF4DB
:1042500000613B4803F0A6F83A4B01221A700A208D
:10426000FCF7FCF900224FF40061354803F09AF89E
:10427000354B1B8801339AB2334B1A80334B1B7872
:10428000002B13D0324B1B68A3F13C02314B1B684F
:104290009A420BD82E4B1B6803F13C022D4B1B6836
:1042A0009A4203D32C4B1B682C4A13602C4B1B786F
:1042B000002B3BD0234B1B7883F00103DBB2002B98
:1042C00034D0284B1B78002B30D1274B1B78002B88
:1042D0000FD0254B1B781A4652001344DBB2013332
:1042E000DBB21A4621212148FCF766FC1D4B012256
:1042F0001A701D4B00221A701D4B01221A701D4BA3
:1043000000221A701C4B00221A701C4B01221A70DA
:10431000134B01221A700B4B00221A70184B00220B
:104320001A70184B1B781846FCF700FB80BD00BFC5
:10433000FC090020220A00205C0100206807002000
:10434000000002405A01002076090020D109002017
:10435000AC090020C00B0020E0090020E809002083
:10436000C2090020590100206101002064010020E1
:1043700000000020B50B002085010020B40B0020B8
:1043800058010020B000002080B582B000AF994BEA
:104390001B7883F00103DBB2002B02D0954B012286
:1043A0001A70944B1B78002B00F0E580924B1B7821
:1043B00083F00103DBB2002B00F0DD808F4B1B7814
:1043C00083F00103DBB2002B21D08D4B01221A7048
:1043D0008C4B1B685A1F8C4B1B689A4217D8894B11
:1043E0001B685A1D884B1B689A4210D3874805F0FA
:1043F0008FF8874B1B78874A126811461846FEF7DC
:104400003DFF7E4B01221A70804805F009F87B4B76
:104410001B78002B00F0AF807F4B1B7883F00103EB
:10442000DBB2002B2AD0764B00221A70794B1B6826
:104430005A1F754B1B689A4220D8764B1B685A1D31
:10444000714B1B689A4219D3734B01221A700522D3
:104450007249734805F090FD01224FF400617148E4
:1044600002F0A0FF704B01221A700220FCF7F6F850
:1044700000224FF400616B4802F094FF664B1B78FA
:10448000002B78D0694B1B7883F00103DBB2002B43
:1044900071D0674B1B68A3F108025B4B1B689A4203
:1044A00034D8634B1B6803F10802574B1B689A42D0
:1044B0002CD3604B1B78002B0FD05E4B1B781A4619
:1044C00052001344DBB20133DBB21A4621215A48B1
:1044D000FCF772FB594B01221A70564B00221A70DE
:1044E000574B01221A70574B00221A704E4B002274
:1044F0001A70464805F00CF8534805F009F83E4B91
:1045000001221A703E4B01221A7034E04F4B1B6897
:10451000043B1A463C4B1B689A422CD84B4B1B68F9
:1045200004331A46384B1B689A4224D3484B1B88E5
:104530001A46464B1B681344444A13600522374908
:10454000374805F019FD01224FF40061354802F0AB
:1045500029FF354B01221A700220FCF77FF8002258
:104560004FF400612F4802F01DFF3A4B1B880133C6
:104570009AB2384B1A80204B1B78002B00F0A58094
:10458000354B1B78002B02D000F0B4F89DE01A4B9D
:104590001B78002B00F099802B4804F0B9FF2F48BE
:1045A00004F0B6FF1C4B00221A70144B00221A7044
:1045B0001E4B00221A70174B1B687B601C4A7B68DD
:1045C00013601B4B1B68134A1360254BB3F9003073
:1045D000B3F5B27F48DB224BB3F900300533002B33
:1045E000B8BF5B429AB21F4B1A801E4B4FF69862BF
:1045F0001A8041E0C6090020C4090020C309002038
:10460000B60B0020EC090020BC0B00202404002085
:10461000B0000020DC090020C10900205C0100205E
:1046200068070020000002405A010020C209002053
:10463000E4090020610100206401002059010020EC
:104640000000002085010020A0050020F8090020BE
:10465000200A002076090020C509002070040020EF
:10466000260A0020280A00201A4BB3F900309BB21A
:1046700005339AB2184B1A80174B1B885B04174AF4
:1046800082FB03121A441212DB17D31A1A46144B78
:104690001A60134B1B68134A127811461846FFF72D
:1046A000B9F803460E4A13600E4B1B780C4A126889
:1046B00011461846FEF7E2FD0B4B01221A700B481B
:1046C00004F0AEFE0A4804F0ABFE00BF0837BD465A
:1046D00080BD00BF260A0020280A0020B7600BB664
:1046E000EC090020B0000020C5090020A005002032
:1046F0002404002080B500AF6F4B1B7883F00103CA
:10470000DBB2002B21D06D4B01221A706C4B1B6861
:104710005A1F6C4B1B689A4217D8694B1B685A1D6D
:10472000684B1B689A4210D3674804F0F1FE674B50
:104730001B78674A126811461846FEF79FFD5E4BCC
:1047400001221A70604804F06BFE5B4B1B78002B53
:1047500000F0B0805F4B1B7883F00103DBB2002BCD
:104760002AD0564B00221A70594B1B685A1F554BC2
:104770001B689A4220D8564B1B685A1D514B1B6828
:104780009A4219D3534B01221A70052252495348B9
:1047900005F0F2FB01224FF40061514802F002FEE5
:1047A000504B01221A700220FBF758FF00224FF4F1
:1047B00000614B4802F0F6FD464B1B78002B79D088
:1047C000494B1B7883F00103DBB2002B72D0474BBF
:1047D0001B681A1F3B4B1B689A4236D8434B1B6819
:1047E0001A1D384B1B689A422FD3414B1B78002B64
:1047F0000FD03F4B1B781A4652001344DBB20133F3
:10480000DBB21A4621213B48FCF7D6F93A4B01228C
:104810001A70374B00221A70384B01221A70384B2D
:1048200000221A70374B00221A70374B01221A707F
:104830002D4B01221A702B4B00221A70224804F0D3
:1048400067FE324804F064FE34E0314B1B68043BE1
:104850001A461C4B1B689A422CD82D4B1B680433FC
:104860001A46184B1B689A4224D32A4B1B881A46B7
:10487000274B1B681344264A136005221649174824
:1048800005F07AFB01224FF40061154802F08AFD21
:10489000144B01221A700220FBF7E0FE00224FF4B5
:1048A00000610F4802F07EFD1B4B1B8801339AB25A
:1048B000194B1A8000BF80BDC3090020B60B002031
:1048C000EC090020BC0B002024040020B0000020D4
:1048D000DC090020C10900205C01002068070020DD
:1048E000000002405A010020C2090020E409002013
:1048F0006101002064010020590100200000002017
:10490000B50B002085010020B40B0020A00500207D
:10491000F8090020200A00207609002080B487B022
:1049200000AF786039607B680C4AA2FB0323DB0888
:104930007B613B685B00094AA2FB0323DB083B6108
:104940007A693B69B2FBF3F39BB20133FB81FB89CC
:1049500018461C37BD465DF8047B7047CDCCCCCCE7
:1049600080B400AF224B1A68224B1B689A4238D39E
:104970001F4B1B689AB21F4B1B689BB2D31A9AB28B
:104980001D4B1B8813449AB21B4B1A801A4B1B8871
:104990001A461A4B1B681344184A1360164B1B889F
:1049A000C72B1ED9164B1B881946134B1B88154A5B
:1049B000A2FB03239B099BB25B00CB1A1A46124B46
:1049C0001A600D4B1B880F4AA2FB03129209C821E3
:1049D00001FB02F29B1A9AB2074B1A800A4B1B6822
:1049E00001E0074B1B881846BD465DF8047B704705
:1049F000880900208C09002082090020C40B0020B7
:104A00006A0900201F85EB519409002080B485B00D
:104A100000AF78600B467B800023FB810023BB81C5
:104A20002EE0FB897A6813441A78BB8911461A4A2A
:104A300042F82310BB89184A52F82320FB8901331E
:104A400079680B441B781B021946BB890A4312493B
:104A500041F82320BB89104A52F82320FB890233F6
:104A600079680B441B781B041946BB890A430A4921
:104A700041F82320FB890333FB81BB890133BB81D0
:104A8000FA897B889A42CCD300BF00BF1437BD4659
:104A90005DF8047B704700BFE40A002080B582B057
:104AA00000AF0346FB80FB8840F26D12934252D068
:104AB000B3F5B77F80F2A480B62B58D0B62B00F3A5
:104AC0009F801D2B44DC002B40F39A80013B1C2B64
:104AD00000F2968001A252F823F000BFE94B0008D3
:104AE000014C0008D14B0008014C0008014C0008A3
:104AF000B94B0008014C0008014C0008014C0008AB
:104B0000014C0008014C0008014C0008014C000851
:104B1000014C0008014C0008014C0008014C000841
:104B2000014C0008014C0008014C0008014C000831
:104B3000014C0008014C0008014C0008014C000821
:104B4000014C0008014C0008014C0008A14B000872
:104B50003C2B18D054E02C4B4FF457721A802A4B40
:104B60001A882A4B1A80C820FBF7C0FF48E0264B62
:104B70004FF457721A80244B1A88244B1A80C8208D
:104B8000FBF7B4FF3CE0204B4FF4B7721A801E4B8A
:104B90001A881E4B1A804FF47A70FBF7A7FF2FE09C
:104BA000194BF4221A80184B1A88184B1A804FF4AC
:104BB0007A70FBF79BFF23E0134B32221A80124BD3
:104BC0001A88124B1A804FF47A70FBF78FFF17E0A8
:104BD0000D4B14221A800C4B1A880C4B1A804FF480
:104BE0007A70FBF783FF0BE0074B0A221A80064B13
:104BF0001A88064B1A804FF47A70FBF777FF00BFD4
:104C000000BF0837BD4680BDB6000020B4000020BC
:104C100080B500AF2D4804F07BFC2D4804F068FB04
:104C20004FF47A7001F0A4F806222A492A4805F0C8
:104C3000A3F9052229492A4803F056FD05222949EE
:104C4000294803F051FD0223284A02212848FBF796
:104C5000CFFC274B1B68274A1361254B5B68264A0C
:104C60001361234B1B68254A1360214B5B68244A60
:104C700013600223234A02212348FBF7B9FC1D4B92
:104C8000124ADA601C4B214ADA601A4B40F2DC52BD
:104C9000DA80194B40F2DC52DA80164BDB88194679
:104CA0001448FBF735FF144BDB8819461248FBF715
:104CB0002FFF174B40F2DC521A80164B01221A705C
:104CC000154804F0ADFB00BF80BD00BF24040020E8
:104CD000540500202C0A0020F0070020380900208D
:104CE0004002002040090020DC0100200080010873
:104CF000B00900208801002004000020000A0020E4
:104D0000040A002000000108B809002070040020F7
:104D1000CA010020B40B00203806002080B500AF87
:104D2000524B1B78013B082B00F2938001A252F8F2
:104D300023F000BF594D0008AF4D0008534E000846
:104D4000054E0008534E0008454E0008454E000829
:104D5000454E0008454E00080020FBF7E7FD444B98
:104D60001B78002B13D0434B1B78002B0FD1404BEB
:104D70001B781A4652001344DBB20133DBB21A46E9
:104D800021213D48FBF718FF3A4B01221A70384B9E
:104D900000221A70394B01221A70394B00221A7006
:104DA000384B00221A70384B00221A7052E0012052
:104DB000FBF7BCFD2E4B1B78002B13D02D4B1B7823
:104DC000002B0FD12A4B1B781A4652001344DBB23A
:104DD0000133DBB21A4621212748FBF7EDFE254BB4
:104DE00001221A70224B00221A70244B01221A70E1
:104DF000234B00221A70234B00221A70224B0022F0
:104E00001A7027E0214804F0E3FA214804F0E0FAA0
:104E1000204804F0DDFA21211748FBF7B1FE154BBD
:104E200000221A70124B00221A70144B01221A70C1
:104E3000134B00221A70134B00221A70164B0022DB
:104E40001A8007E00120FBF771FD0020FBF76EFDE3
:104E500000E000BF054B00221A70104B01221A70AF
:104E60000F4B1B6800225A6200BF80BDB50B0020AB
:104E70006101002059010020640100200000002091
:104E8000850100205A010020B60B00201C070020DD
:104E900008050020D006002082090020B40B002065
:104EA0003806002080B584B000AF264B264A92E831
:104EB00003001860043319800023FB810023FB806A
:104EC0000023BB6013E01F4ABB6813441B789AB2EF
:104ED000BB6801331B49CB5C9BB21B029BB21344E2
:104EE0009AB2FB891344FB81BB680233BB60BB6889
:104EF000032BE8DD134B1B799AB2124B5B799BB203
:104F00001B029BB21344FB80FA88FB899A4213D0A0
:104F10000E4804F06BFFFCF7A7FE0D4B00221A7041
:104F200006220949094805F027F80A4B1B68013396
:104F3000084A1360002300E0012318461037BD46DD
:104F400080BD00BF340A00202C0A0020F00700209A
:104F5000AD0B0020C80B002080B584B000AF786096
:104F60007B68D3F8843003F00803002B08D07B68FB
:104F70001B6808221A621B4B1B685B6ADBB2FB735F
:104F80007B68194A934229D17B68D3F8843003F0B7
:104F90000803002B0ED07B681B6808221A62124B94
:104FA0001B685B6ADBB2BB73062210490E4804F033
:104FB000E3FF13E07B681B68DB690D4A13607B68C5
:104FC000D3F884300B4A1360074804F00FFFFCF756
:104FD0004BFE06220549044804F0CEFF00BF1037FF
:104FE000BD4680BD68070020F00700202C0A002085
:104FF000A0090020A409002080B400AF72B600BF51
:10500000FEE7000080B582B000AF0F4B1B6C0E4A6C
:1050100043F0805313640C4B1B6C03F080537B6094
:105020007B68094B5B6C084A43F480435364064B2E
:105030005B6C03F480433B603B68052000F0B0FFED
:1050400000BF0837BD4680BD0038024080B58CB037
:1050500000AF786007F11C0300221A605A609A6062
:10506000DA601A617B681B68984A934240F0A0801E
:10507000974B1B6C964A43F400431364944B1B6C90
:1050800003F40043BB61BB69914B1B6B904A43F037
:10509000020313638E4B1B6B03F002037B617B697E
:1050A0008B4B1B6B8A4A43F004031363884B1B6BC7
:1050B00003F004033B613B690423FB6102233B6271
:1050C00000237B620323BB620723FB6207F11C03FF
:1050D0001946804801F0CEFE4FF44063FB61022385
:1050E0003B6200237B620323BB620623FB6207F162
:1050F0001C031946784801F0BDFE784B784A1A60C7
:10510000764B00225A60754B00229A60734B002246
:10511000DA60724B4FF480621A61704B00225A6160
:105120006E4B00229A616D4B0022DA616B4B0022BC
:105130001A626A4B00225A62684800F081FF0346F7
:10514000002B01D0FFF758FF7B68644A9A65634AD9
:105150007B689363634B644A1A60624B00225A6017
:10516000604B40229A605F4B0022DA605D4B4FF447
:1051700080621A615B4B00225A615A4B00229A618D
:10518000584B0022DA61574B00221A62554B00221D
:105190005A62544800F054FF0346002B01D0FFF739
:1051A0002BFF7B684F4A5A654E4A7B68936389E0C0
:1051B0007B681B684D4A934240F08480444B5B6C93
:1051C000434A43F400535364414B5B6C03F4005374
:1051D000FB60FB683E4B1B6B3D4A43F010031363BF
:1051E0003B4B1B6B03F01003BB60BB686423FB618C
:1051F00002233B6200237B620323BB620523FB6225
:1052000007F11C0319463A4801F034FE394B3A4A7B
:105210001A60384B4FF000625A60364B00229A6099
:10522000344B0022DA60334B4FF480621A61314B09
:1052300000225A612F4B00229A612E4B0022DA6124
:105240002C4B00221A622B4B00225A62294800F094
:10525000F7FE0346002B01D0FFF7CEFE7B68254A00
:105260009A65244A7B689363244B254A1A60234B32
:105270004FF000625A60214B40229A601F4B00227F
:10528000DA601E4B4FF480621A611C4B00225A6197
:105290001A4B00229A61194B0022DA61174B002247
:1052A0001A62164B00225A62144800F0C9FE0346E7
:1052B000002B01D0FFF7A0FE7B68104A5A650F4A09
:1052C0007B68936300BF3037BD4680BD003C004023
:1052D000003802400004024000080240A4020020FE
:1052E0001060024004030020886002400034014046
:1052F000001002406403002010640240C403002038
:105300002864024080B58EB000AF78607B681B686F
:10531000B3F1804F14D18A4B1B6C894A43F00103CF
:105320001364874B1B6C03F001037B637B6B0022D0
:1053300002211C2000F03FFE1C2000F058FEFAE085
:105340007B681B687F4A934214D17D4B1B6C7C4A5F
:1053500043F0020313647A4B1B6C03F002033B63BC
:105360003B6B002202211D2000F025FE1D2000F0D5
:105370003EFEE0E07B681B68734A934214D1704B99
:105380001B6C6F4A43F0040313646D4B1B6C03F0FA
:105390000403FB62FB6A002200211E2000F00BFECA
:1053A0001E2000F024FEC6E07B681B68674A93421B
:1053B00014D1634B1B6C624A43F008031364604BC7
:1053C0001B6C03F00803BB62BB6A00220121322080
:1053D00000F0F1FD322000F00AFEACE07B681B68B3
:1053E0005B4A93420CD1564B1B6C554A43F0100359
:1053F0001364534B1B6C03F010037B627B6A9AE0CF
:105400007B681B68534A934214D14D4B1B6C4C4A2A
:1054100043F0200313644A4B1B6C03F020033B62F0
:105420003B6A00220221372000F0C5FD372000F042
:10543000DEFD80E07B681B68474A934214D1404BF5
:105440005B6C3F4A43F4003353643D4B5B6C03F4A5
:105450000033FB61FB6903220321192000F0ABFD3F
:10546000192000F0C4FD66E07B681B683B4A93424C
:1054700014D1334B5B6C324A43F480235364304B7A
:105480005B6C03F48023BB61BB69032201211A20FA
:1054900000F091FD1A2000F0AAFD4CE07B681B682B
:1054A0002F4A934214D1264B1B6C254A43F04003EC
:1054B0001364234B1B6C03F040037B617B69032265
:1054C00001212B2000F077FD2B2000F090FD32E031
:1054D0007B681B68234A934214D1194B1B6C184AF2
:1054E00043F080031364164B1B6C03F080033B6195
:1054F0003B69012201212C2000F05DFD2C2000F0F1
:1055000076FD18E07B681B68174A934213D10C4B59
:105510001B6C0B4A43F480731364094B1B6C03F43C
:105520008073FB60FB68012201212D2000F043FD08
:105530002D2000F05CFD00BF3837BD4680BD00BFA8
:10554000003802400004004000080040000C004009
:105550000010004000140040004401400048014099
:1055600000180040001C00400020004080B5ACB096
:1055700000AF786007F19C0300221A605A609A60BD
:10558000DA601A6107F11C0380220021184605F039
:10559000BFFF7B681B687A4A934273D14023FB614B
:1055A0000023BB6507F11C03184602F0A7FC034665
:1055B000002B01D0FFF720FD724B5B6C714A43F06A
:1055C000100353646F4B5B6C03F01003BB61BB694A
:1055D0006C4B1B6B6B4A43F001031363694B1B6BF2
:1055E00003F001037B617B694FF4C063C7F89C3013
:1055F0000223C7F8A0300023C7F8A4300323C7F85C
:10560000A8300723C7F8AC3007F19C0319465E4861
:1056100001F030FC5D4B5E4A1A605C4B4FF000625B
:105620005A605A4B00229A60584B0022DA60574B5E
:105630004FF480621A61554B00225A61534B00228D
:105640009A61524B0022DA61504B4FF400321A62D9
:105650004E4B00225A624D4800F0F2FC0346002BEC
:1056600001D0FFF7C9FC7B68484A5A67474A7B6804
:10567000936300220121252000F09DFC252000F0ED
:10568000B6FC78E07B681B68424A934273D14FF4C2
:105690008073FB6100233B6607F11C03184602F090
:1056A0002DFC0346002B01D0FFF7A6FC354B1B6CED
:1056B000344A43F480231364324B1B6C03F480237D
:1056C0003B613B692F4B1B6B2E4A43F00203136374
:1056D0002C4B1B6B03F00203FB60FB684FF49843F9
:1056E000C7F89C300223C7F8A0300023C7F8A430C5
:1056F0000323C7F8A8300723C7F8AC3007F19C0391
:105700001946254801F0B6FB244B254A1A60234B65
:105710004FF000625A60214B00229A601F4B00221A
:10572000DA601E4B4FF480621A611C4B00225A61F2
:105730001A4B00229A61194B4FF48072DA61174BB1
:1057400000221A62154B00225A62144800F078FCBD
:105750000346002B01D0FFF74FFC7B680F4A5A67C6
:105760000E4A7B68936300220121272000F023FC6E
:10577000272000F03CFC00BFB037BD4680BD00BF15
:10578000001001400038024000000240780800206C
:10579000406402400048004000040240D808002055
:1057A0002860024080B582B000AF78607B681B68DB
:1057B000194A934213D1194B5B6C184A23F010031A
:1057C00053644FF4C061164801F0F0FC7B685B6FD6
:1057D000184600F0E3FC252000F017FC17E07B687A
:1057E0001B68104A934212D10C4B1B6C0B4A23F4DA
:1057F000802313644FF498410B4801F0D7FC7B6879
:105800005B6F184600F0CAFC272000F0FEFB00BFCB
:105810000837BD4680BD00BF00100140003802407F
:1058200000000240004800400004024080B400AF85
:10583000FEE780B400AFFEE780B400AFFEE780B4BF
:1058400000AFFEE780B400AFFEE780B400AF00BF5A
:10585000BD465DF8047B704780B400AF00BFBD4615
:105860005DF8047B704780B400AF00BFBD465DF8B3
:10587000047B704780B500AF00F05AFA00BF80BDCE
:1058800080B500AF024800F0D9FD00BF80BD00BF69
:10589000A402002080B500AF024800F0CFFD00BF99
:1058A00080BD00BFD808002080B500AF024800F0DE
:1058B000C5FD00BF80BD00BF0403002080B500AF60
:1058C000034B01221A70034803F052FE00BF80BD53
:1058D000CE090020EC05002080B500AFFFF71EFACE
:1058E000024803F045FE00BF80BD00BF380600201F
:1058F00080B500AF2021064801F06DFD054B1B6807
:1059000000225A62034803F033FE00BF80BD00BF8F
:10591000000002402404002080B500AF01210648A9
:1059200001F059FD054B1B6800225A62034803F041
:105930001FFE00BF80BD00BF0004024070040020B5
:1059400080B500AF034B01221A70034803F010FE2C
:1059500000BF80BDB20B0020BC04002080B500AFAA
:10596000024804F0DFFB00BF80BD00BF68070020D5
:1059700080B500AF024804F0D5FB00BF80BD00BF7A
:10598000F007002080B500AF034B01221A700348D6
:1059900003F0EEFD00BF80BDB30B002084060020A5
:1059A00080B500AF0A4B1B680133094A1360094BED
:1059B00000221A60084B1B685A6A084B1B68134484
:1059C000064A1360044803F0D3FD00BF80BD00BF4A
:1059D00078090020CF090020D00600208809002087
:1059E00080B500AF034B01221A70034803F0C0FDDD
:1059F00000BF80BDCD0900201C07002080B500AF8E
:105A0000134B1A68134B1B689A4212D2124B1B8815
:105A10001946104B1A680E4B1B68D31A03FB01F290
:105A20000E4B1B685200DA620C4B1B6800225A6254
:105A300008E00B4803F0CCFC084803F0C9FC094B14
:105A400001221A60054803F093FD00BF80BD00BF2E
:105A5000980900209C0900206A0900200805002000
:105A60001C070020C709002080B500AF0D4B1B7834
:105A700083F00103DBB2002B05D005220A490B4855
:105A800002F032FE04E0052209490A4802F02CFE29
:105A9000094B1B6800225A62074803F069FD00BFEA
:105AA00080BD00BFB0000020380900204002002067
:105AB00040090020DC010020A005002080B500AFD7
:105AC000024800F0BBFC00BF80BD00BF64030020A3
:105AD00080B500AF024800F0B1FC00BF80BD00BF40
