:020000040800F2
:1000000000000420DD5D0008A5590008AB59000878
:10001000B1590008B7590008BD5900080000000098
:10002000000000000000000000000000C3590008AC
:10003000D159000800000000DF590008ED59000800
:100040002D5E00082D5E00082D5E00082D5E000864
:100050002D5E00082D5E00082D5E00082D5E000854
:100060002D5E00082D5E00082D5E0008F95900087D
:100070000D5A00082D5E00082D5E00082D5E000858
:10008000215A00082D5E00082D5E00082D5E000834
:100090002D5E00082D5E00082D5E00082D5E000814
:1000A0002D5E0008355A0008515A00082D5E0008E0
:1000B000695A0008915A0008B95A00082D5E0008D4
:1000C0002D5E00082D5E00082D5E00082D5E0008E4
:1000D0002D5E0008D55A00082D5E0008E95A000878
:1000E0002D5E00082D5E00082D5E0008FD5A0008F8
:1000F000195B0008595B00082D5E00082D5E0008A2
:100100002D5E00082D5E0008755B00082D5E00085E
:100110002D5E00082D5E00082D5E0008E15B0008E2
:10012000355C0008495C00085D5C00082D5E000835
:100130002D5E00080000000000000000000000002C
:100140000000000000000000000000002D5E00081C
:100150002D5E00082D5E00082D5E00082D5E000853
:100160002D5E00082D5E00082D5E00082D5E000843
:100170002D5E00082D5E0008000000000000000059
:100180002D5E00082D5E00082D5E00082D5E000823
:100190002D5E00082D5E0008000000002D5E0008A6
:1001A0000000000000000000000000002D5E0008BC
:1001B0002D5E00082D5E0008000000000000000019
:1001C000000000000000000000000000000000002F
:1001D0000000000000000000000000002D5E00088C
:1001E00010B5054C237833B9044B13B10448AFF371
:1001F00000800123237010BD3001002000000000AA
:1002000098C0000808B5034B1BB103490348AFF37E
:10021000008008BD000000003401002098C00008E4
:1002200053B94AB9002908BF00281CBF4FF0FF315D
:100230004FF0FF3000F074B9ADF1080C6DE904CE59
:1002400000F006F8DDF804E0DDE9022304B07047B1
:100250002DE9F047089D04468E46002B4DD18A4279
:10026000944669D9B2FA82F252B101FA02F3C2F1AC
:10027000200120FA01F10CFA02FC41EA030E94403D
:100280004FEA1C48210CBEFBF8F61FFA8CF708FB5E
:1002900016E341EA034306FB07F199420AD91CEB36
:1002A000030306F1FF3080F01F81994240F21C8168
:1002B000023E63445B1AA4B2B3FBF8F008FB1033B0
:1002C00044EA034400FB07F7A7420AD91CEB0404E5
:1002D00000F1FF3380F00A81A74240F207816444B5
:1002E000023840EA0640E41B00261DB1D44000233A
:1002F000C5E900433146BDE8F0878B4209D9002D9E
:1003000000F0EF800026C5E9000130463146BDE827
:10031000F087B3FA83F6002E4AD18B4202D3824291
:1003200000F2F980841A61EB030301209E46002D40
:10033000E0D0C5E9004EDDE702B9FFDEB2FA82F295
:10034000002A40F09280A1EB0C014FEA1C471FFAF3
:100350008CFE0126200CB1FBF7F307FB131140EADA
:1003600001410EFB03F0884208D91CEB010103F1A7
:10037000FF3802D2884200F2CB804346091AA4B269
:10038000B1FBF7F007FB101144EA01440EFB00FE3D
:10039000A64508D91CEB040400F1FF3102D2A645A2
:1003A00000F2BB800846A4EB0E0440EA03409CE741
:1003B000C6F12007B34022FA07FC4CEA030C20FAEE
:1003C00007F401FA06F31C43F9404FEA1C4900FA0E
:1003D00006F3B1FBF9F8200C1FFA8CFE09FB18118B
:1003E00040EA014108FB0EF0884202FA06F20BD9FE
:1003F0001CEB010108F1FF3A80F08880884240F24E
:100400008580A8F102086144091AA4B2B1FBF9F091
:1004100009FB101144EA014100FB0EFE8E4508D98C
:100420001CEB010100F1FF346CD28E456AD9023811
:10043000614440EA0840A0FB0294A1EB0E01A142F6
:10044000C846A64656D353D05DB1B3EB080261EB64
:100450000E0101FA07F722FA06F3F1401F43C5E93E
:10046000007100263146BDE8F087C2F12003D84074
:100470000CFA02FC21FA03F3914001434FEA1C47B6
:100480001FFA8CFEB3FBF7F007FB10360B0C43EAA8
:10049000064300FB0EF69E4204FA02F408D91CEB58
:1004A000030300F1FF382FD29E422DD90238634456
:1004B0009B1B89B2B3FBF7F607FB163341EA0341F6
:1004C00006FB0EF38B4208D91CEB010106F1FF3845
:1004D00016D28B4214D9023E6144C91A46EA00463C
:1004E00038E72E46284605E70646E3E61846F8E6CE
:1004F0004B45A9D2B9EB020864EB0C0E0138A3E717
:100500004646EAE7204694E74046D1E7D0467BE7F7
:10051000023B614432E7304609E76444023842E76F
:10052000704700BF80B483B000AF7860084B0022F2
:100530001A60074B0222DA60054A7B685360044B5D
:1005400001229A6000BF0C37BD465DF8047B7047FE
:1005500050010020B0B586B000AFF8607A603B6013
:100560000B46FB72B86AFFF7DDFF06F0F3FA1E498F
:100570001E4806F05FFC0346002B2ED10023FB75BE
:100580003B68022B02D10423FB7504E03B68012B7E
:1005900001D10223FB750023BB7517E0BB7D9B00D7
:1005A000FA6813441B6800221C46154622462B4657
:1005B0007968386806F074FA0346002B0FD1FB7D8A
:1005C0007A6813447B60BB7D0133BB75BA7DFB7ACF
:1005D0009A42E3D306F0E0FA02E000BF00E000BF79
:1005E0001837BD46B0BD00BF4C01002050010020AF
:1005F00080B487B000AFF8607A603B600B46FB7256
:100600000023FB7500233B613B68022B02D10423CE
:10061000FB7504E03B68012B01D10223FB7500232D
:10062000BB820FE07B681B683B61BB8A9B00FA685A
:1006300013443A691A60FB7D7A6813447B60BB8A75
:100640000133BB82FB7A9BB2BA8A9A42EAD300BFDB
:1006500000BF1C37BD465DF8047B704780B483B093
:1006600000AF0346FB80094B1B6800225A6200BFA3
:10067000064B1B685A6AFB889A42F9D300BF00BF39
:100680000C37BD465DF8047B704700BF5C05002059
:1006900080B582B000AF0346FB71FB79022B02DC10
:1006A000002B2CDC64E0043B012B61D800220321E9
:1006B0000B2005F03CFD0B2005F055FD0122032128
:1006C000102005F034FD102005F04DFD002203211F
:1006D000382005F02CFD382005F045FD01220321CE
:1006E000392005F024FD392005F03DFD00220121CF
:1006F000192005F01CFD192005F035FD39E0012217
:1007000000213A2005F013FD3A2005F02CFD0122CE
:100710000021252005F00BFD252005F024FD0122F8
:100720000221372005F003FD372005F01CFD0022D3
:1007300003210B2005F0FBFC0B2005F014FD01222A
:100740000321102005F0F3FC102005F00CFD002221
:100750000321382005F0EBFC382005F004FD0122D0
:100760000321392005F0E3FC392005F0FCFC00E012
:1007700000BF00BF0837BD4680BD80B500AF002276
:1007800001210B2005F0D3FC0B2005F0ECFC00222E
:1007900001210C2005F0CBFC0C2005F0E4FC00222C
:1007A0000121102005F0C3FC102005F0DCFC012223
:1007B0000121382005F0BBFC382005F0D4FC0122D3
:1007C0000121392005F0B3FC392005F0CCFC0022D2
:1007D00001213A2005F0ABFC3A2005F0C4FC0022D0
:1007E0000121252005F0A3FC252005F0BCFC0022FA
:1007F0000221372005F09BFC372005F0B4FC00BF38
:1008000080BD000080B582B000AF03463960FB7147
:10081000FB79002B14BF01230023DBB20A21184609
:1008200000F01EF91E4B1B88184600F0C5F81D4A43
:100830003B68136001221921386800F047F803462D
:10084000194A136000221921386800F03FF8034666
:10085000164A1360164808F0A1FEFB79002B03D05E
:10086000144808F09BFE02E0134808F097FE134B73
:1008700001221A70124B1B78002B14BF0123002396
:10088000DBB283F00103DBB203F00103DAB20D4BFC
:100890001A700D4B00221A7000BF0837BD4680BD8C
:1008A000D2010020C4010020CC010020C80100209A
:1008B000A8050020780400202C040020C00100209E
:1008C000C2010020C1010020C301002080B485B016
:1008D00000AF78600B467B8013467B707B78002BE3
:1008E0000FD07A887B681344B3F5003F05D37A882C
:1008F0007B681344A3F5003312E07A887B681344C5
:100900000EE07B887A689A4207D87A887B68D31A87
:10091000FB60FB68C3F5003302E07B887A68D31A7A
:1009200018461437BD465DF8047B704780B582B029
:1009300000AF0346FB71054B1B78002B02D0044827
:1009400008F02CFE00BF0837BD4680BDC001002066
:100950008C06002080B582B000AF0346FB71FB79A6
:10096000002B03D00D4808F091FE02E00C4808F07F
:100970008DFE0C4808F08AFE0B4B00221A700B4BC0
:1009800000221A700A4B40F2DC521A80094B0022F6
:100990001A8000BF0837BD4680BD00BF7804002024
:1009A0002C040020A8050020C0010020C301002065
:1009B000D2010020D001002080B487B000AF0346F0
:1009C000FB80234B7B61234B1B885B089BB207EEAC
:1009D000903AF8EEE77AC7ED047A1F4B1B7807EEE2
:1009E000903AF8EEE77A97ED047A67EE277AC7ED4A
:1009F000047AFB8807EE903AB8EEE77AD7ED046AFE
:100A0000C6EE877AC7ED047AF7EE006A97ED047AAE
:100A1000C6EE877AFCEEE77A17EE903AFB600F4B52
:100A20001B6800225A620D4B1B689B6A01337A696E
:100A3000B2FBF3F2FB68B2FBF3F2084B1B68013A1E
:100A4000DA6200BF1C37BD465DF8047B704700BF0B
:100A500000F36F063400002036000020C40400209C
:100A600080B485B000AF03460A46FB711346BB80D5
:100A70000023FB60194BFB60194B1B6800225A6274
:100A8000184B1B6800225A62FB79002B0ED0144BC6
:100A90001B689B6A0133FA68B2FBF3F2BB88B2FBB6
:100AA000F3F20F4B1B68013ADA620DE00D4B1B6845
:100AB0009B6A0133FA68B2FBF3F2BB88B2FBF3F234
:100AC000084B1B68013ADA62074ABB88138000BFF3
:100AD0001437BD465DF8047B704700BF00F36F0616
:100AE000780400202C040020D001002080B483B0C2
:100AF00000AF0346FB80FB885A1E044B1B68DA627A
:100B000000BF0C37BD465DF8047B7047A805002088
:100B100080B483B000AF78607B68C3F500331846BB
:100B20000C37BD465DF8047B7047000080B485B08B
:100B300000AF78600B467B800023FB60144BFB60AA
:100B40007B681B78002B0ED0124B1B689B6A01330D
:100B5000FA68B2FBF3F27B88B2FBF3F20D4B1B6831
:100B6000013ADA620DE00C4B1B689B6A0133FA68AC
:100B7000B2FBF3F27B88B2FBF3F2074B1B68013A3E
:100B8000DA6200BF1437BD465DF8047B704700BFD2
:100B900000F36F06780400202C04002080B485B098
:100BA00000AF78600B46FB700023FB7307E0FB7B14
:100BB0007A68134400221A70FB7B0133FB73FA7BC3
:100BC000FB789A42F3D300BF00BF1437BD465DF8EF
:100BD000047B704780B485B000AF78600B46FB7033
:100BE0001346BB70BB78FB7307E0FB7B7A6813444A
:100BF00000221A70FB7B0133FB73FA7BFB789A426D
:100C0000F3D300BF00BF1437BD465DF8047B7047C7
:100C10002DE9B04F86B000AF78600B467B8013465D
:100C20007B707B88DAB27B78D31ADBB2013B7B73B3
:100C30004FF000024FF00003C7E904237B78FB81EB
:100C400012E0FB899B007A6813441B6800221C4653
:100C50001546D7E9042312EB040843EB0509C7E95D
:100C60000489FB890133FB817B7B9BB2FA899A4221
:100C7000E7D97A887B785B00D31ADA179A469346CD
:100C800052465B46D7E90401FFF7CAFA02460B4613
:100C90001346BB60BB6818461837BD46BDE8B08F29
:100CA00080B485B000AF786039607B681B68FB60FA
:100CB0003B681A687B681A603B68FA681A6000BF74
:100CC0001437BD465DF8047B704780B584B000AF33
:100CD00078600B467B802CE00023FB730023BB6015
:100CE0001DE0BB689B007A6813441A68BB68013337
:100CF0009B0079680B441B689A420DD9BB689B0026
:100D00007A68D018BB6801339B007A68134419468F
:100D1000FFF7C6FF0123FB73BB680133BB607B8811
:100D2000BA689A42DDDBFB7B83F00103DBB2002B68
:100D300005D17B885A1E7A80002BCDD100E000BF00
:100D400000BF1037BD4680BDF0B583B000AF05F0E1
:100D50006EF800F011FC01F04FF800F0FBFF00F01E
:100D6000BDFF00F083FF00F0D1FC00F091FC00F02B
:100D70000BFD00F057FD00F043FE00F077FE00F0A1
:100D8000ABFE00F0EDFD00F04DFF00F027FF00F09E
:100D900099FD00F0C5FE00F0E7FE00F05BFC524B51
:100DA0009B68514A43F48053936003F0CDFF4F4852
:100DB00006F038FC4E4B1B78002B0AD04D4B1B68BD
:100DC00000225A6204F02AF90346002B01D001F0F8
:100DD000A1F8494B1B78002B00F03F81474B1B8843
:100DE00001339AB2454B1A8002F0DEFE444B1B7869
:100DF000012B0BD0424B1B78022B07D0404B1B78AA
:100E0000032B03D03E4B1B78042B5FD13D4B1B784B
:100E1000002B5BD00023FB7110E0FB793A4A12787B
:100E200011463A4AD25C3A4B5A54FB790133FB7172
:100E3000354B1B780133DAB2334B1A70FB79022B36
:100E4000EBD9304B00221A70324B1B780133DAB2E7
:100E5000304B1A702F4B1B789AB22F4B1A802F4BA6
:100E60001B6801332D4A13602D4B1B8801339AB246
:100E70002B4B1A80274B1B780A2B27D1224B1B7830
:100E80001F2B23D1274B224A14461E4604F1200C67
:100E900035462346186859689A68DB680FC51034D0
:100EA00010366445F4D13346224612781A70194B35
:100EB00000221A70144B01221A701B4B01221A7067
:100EC0001A4B1B8801339AB2184B1A800C4B1B78B3
:100ED000052B40F0BF800B4B1B78002B00F0A98046
:100EE0000023BB7135E000BF002004E0D4010020E6
:100EF000C10B002040060020C00B00207A09002012
:100F0000C90B00206201002000000020580A0020C8
:100F10006C010020690100203E0A0020A009002089
:100F200074090020E00B00206101002088090020E6
:100F3000BB79964A12781146954AD25C954B5A5421
:100F4000BB790133BB71914B1B780133DAB28F4B04
:100F50001A70BB79022BEBD98F4B00221A708F4B82
:100F60001B780133DAB28D4B1A708C4B1B789AB216
:100F70008B4B1A808B4B1B6801338A4A13608A4B58
:100F80001B8801339AB2884B1A80844B1B78322B12
:100F90004FD1864808F07AFB804B1B789BB21A46EB
:100FA000520013449BB219467A4803F0B7FD7B4BBD
:100FB0001B789BB219467E48FFF787FE774B1B785C
:100FC0009BB20C2219467A48FFF722FE0346794A63
:100FD0001360724B00221A706C4B00221A70764B11
:100FE00000221A7021217548FFF7D8FD714B1B684C
:100FF000DAB2724B5A706F4B1B681B0ADAB26F4B36
:101000009A706C4B1B681B0CDAB26C4BDA706B4B32
:101010005A786A4B1A71694B9A78684B5A71674BC8
:10102000DA78664B9A71664B01221A70654B012281
:101030001A70644B1B78002B0CD0614B1B78002B73
:1010400008D1614B00221A70604B01221A705D4B6F
:1010500000221A705E4B00221A705E4B1B78002B28
:101060002AD0594B1B78013B082B21D801A252F8FA
:1010700023F000BFA5100008AB100008B110000855
:10108000B1100008B1100008B1100008B11000083C
:10109000991000089F10000802F0F8FD09E002F026
:1010A00037FE06E002F090FE03E002F08DFE00E065
:1010B00000BF484B00221A70474B1B78002B29D0E9
:1010C000414B1B78013B082B20D801A252F823F09A
:1010D00001110008071100080D1100080D1100088A
:1010E0000D1100080D1100080D110008F510000881
:1010F000FB10000802F0CAFD09E002F009FE06E05C
:1011000003F016F803E003F0C7F900E000BF324B2C
:1011100000221A70314B1B78002B00F084801F4B8B
:101120001B78002B60D0264B1B78002B5CD11A4B10
:1011300000221A70194B1B781A4652001344DBB276
:101140000133DBB21A4621211C48FFF743FD244B33
:101150001A4A14461E4604F1200C354623461868E8
:1011600059689A68DB680FC5103410366445F4D1AD
:101170003346224612781A70114B01221A70074B1F
:1011800000221A70174B01221A704CE071090020DE
:10119000580A0020600A0020620100206901002036
:1011A0003E0A0020A009002074090020F405002058
:1011B000F80A0020B00900208D0100206C010020F9
:1011C00061010020DF090020C90B0020C80B0020AE
:1011D000C00B0020C20B0020C30B0020D709002049
:1011E000E00B0020000000209C4B1B78002B1AD144
:1011F0009B4B1B78002B16D19A4B00221A709A4BEE
:1012000000221A70994B01221A70994B00221A7011
:10121000984B00221A70984B00221A60FFF7ADFA23
:10122000964808F033FA964B1B78002B1FD0954B4D
:101230001B78002B1BD0944B1B78052B17D1904BA0
:1012400000221A708F4B00221A708F4BFF221A70E7
:10125000844B04221A70854B02221A708B4B012298
:101260001A700420FFF714FA894808F097F97D4BAB
:101270001B78052B39D1824B1B78002B13D0814B67
:101280001B78002B0FD07E4B00221A707D4B002262
:101290001A700520FFF7FCF97E4B1B6800225A628A
:1012A0007C4808F07BF97C4B1B78002B1DD07A4BD7
:1012B00000221A7005227949794808F01BFF0122A3
:1012C0004FF40061774806F029F96A4B01221A7041
:1012D0000A20FFF7C3F900224FF40061714806F0BD
:1012E0001DF96C4B1B6800225A626F4B1B78002B58
:1012F00000F081806C4B00221A70644B1B78002B2D
:101300002AD06A4B00221A80694B00221A800522DB
:101310006249634808F0EEFE01224FF40061614823
:1013200006F0FCF8534B01221A700A20FFF796F9D9
:1013300000224FF400615B4806F0F0F8544B1B6844
:1013400000225A625B4808F029F9504B00221A70BB
:101350004A4808F023F948E005225049504808F06F
:10136000C9FE01224FF400614E4806F0D7F8414B08
:1013700001221A700A20FFF771F900224FF4006170
:10138000484806F0CBF83D4808F080F94A4B1B88E6
:101390001A4613461B049B1A1A46484B1A60374BD1
:1013A0001B685A6A454B1B681344444A1360424BFE
:1013B00000221A80314B1B6800225A622F4808F025
:1013C000EDF803F055FB03463D4A1360304808F042
:1013D000BDF82F4B1B683A4A1268DA622C4B1B6827
:1013E00000225A622A4808F0D9F8364B1B8801338C
:1013F0009AB2344B1A80344B1B78002B09D0334BF4
:101400001B7883F00103DBB2002B02D0304808F0D8
:10141000C5F8304B1B78002B77D02F4B1B881A4612
:101420002E4B1B8819462E4B1B880B449A425BDDC2
:101430002C4B1878294B1A88294B1B8813449BB2D4
:101440001946FFF70DFB234B00221A70204B1B6837
:1014500000225A621E4808F0A1F856E069010020F7
:1014600061010020C90B00208D010020C80B002065
:10147000D709002062010020A0090020D806002022
:10148000DA090020DB090020B2000020D909002081
:1014900024070020F4050020DD090020640100205D
:1014A0007007002000000240DC09002078090020BD
:1014B0007A090020100500208009002090090020F2
:1014C000980900207E090020C0010020C3010020EF
:1014D000C4040020C60B0020D2010020D00100204F
:1014E00034000020B00000201B4B1B781B4A1288E0
:1014F00011461846FFF7B4FA194808F0C7F8194B17
:1015000000221A70184B01221A70184B1B78002BFE
:101510003FF44DAC164B1B88322B0BD80E4B1B786F
:101520001846FFF717FA134808F0B0F80F4B0022DF
:101530001A703CE4084B1A780D4B1B88323B9BB267
:1015400019461046FFF78CFA0A4B1B6800225A62B4
:10155000064B00221A702AE4B0000020D2010020BD
:10156000C4040020C60B0020C3010020C70B0020CC
:10157000D00100208C06002080B594B000AF07F1A8
:1015800020033022002118460AF080F807F10C03EE
:1015900000221A605A609A60DA601A612B4B1B6C49
:1015A0002A4A43F080531364284B1B6C03F080538A
:1015B000BB60BB68264B1B68254A43F4404313605D
:1015C000234B1B6803F440437B607B6809233B6229
:1015D0004FF480337B6201237B630223BB634FF4B0
:1015E0008003FB6304233B64D8237B640223BB6436
:1015F0000223FB6407F12003184606F073F8034644
:10160000002B01D003F0B4FD06F01CF80346002BBC
:1016100001D003F0ADFD0F23FB6002233B610023EB
:101620007B614FF4A053BB614FF4A053FB6107F102
:101630000C030721184606F0F9FA0346002B01D0E7
:1016400003F096FD00BF5037BD4680BD0038024014
:101650000070004080B500AF0B4B0C4A1A600A4B7B
:1016600002225A60084B40F6FF72DA60064B40F6E1
:10167000FF729A60044805F084FF0346002B01D0F6
:1016800003F076FD00BF80BDD40100200030004093
:1016900080B500AF1B4B1C4A1A601A4B4FF4827284
:1016A0005A60184B00229A60164B4FF4E062DA60E1
:1016B000144B02221A61134B00225A61114B4FF452
:1016C00000729A610F4B3822DA610E4B00221A62C7
:1016D0000C4B00225A620B4B00229A62094B0722E4
:1016E000DA62084B00221A63064B08225A63054847
:1016F00007F00CF80346002B01D003F039FD00BFC2
:1017000080BD00BFE4010020003C004080B500AF78
:101710001B4B1C4A1A601A4B4FF482725A60184BCA
:1017200000229A60164B4FF4E062DA60144B0222FA
:101730001A61134B00225A61114B4FF400729A61E7
:101740000F4B3822DA610E4B00221A620C4B00223A
:101750005A620B4B00229A62094B0722DA62084B4D
:1017600000221A63064B08225A63054806F0CEFF92
:101770000346002B01D003F0FBFC00BF80BD00BF7F
:10178000480200200034014080B588B000AF07F166
:10179000100300221A605A609A60DA603B1D002232
:1017A0001A605A609A601E4B4FF080421A601C4BC0
:1017B0006B225A601A4B00229A60194B46F2A7120C
:1017C000DA60174B00221A61154B00229A61144807
:1017D00007F0F4FD0346002B01D003F0C9FC4FF4E1
:1017E00080533B6107F1100319460D4808F086F855
:1017F0000346002B01D003F0BBFC00237B600023D9
:10180000FB603B1D1946064808F0B4FA0346002B5E
:1018100001D003F0ADFC00BF2037BD4680BD00BF46
:101820002C04002080B588B000AF07F1100300221F
:101830001A605A609A60DA603B1D00221A605A6092
:101840009A601E4B1E4A1A601C4B40F237425A6087
:101850001A4B00229A60194B43F67F62DA60174BED
:1018600000221A61154B00229A61144807F0A6FD68
:101870000346002B01D003F07BFC4FF480533B6107
:1018800007F1100319460D4808F038F80346002BFD
:1018900001D003F06DFC00237B600023FB603B1D47
:1018A0001946064808F066FA0346002B01D003F0FB
:1018B0005FFC00BF2037BD4680BD00BF780400201C
:1018C0000004004080B588B000AF07F1100300228B
:1018D0001A605A609A60DA603B1D00221A605A60F2
:1018E0009A601D4B1D4A1A601B4B42F62F225A600C
:1018F000194B00229A60184BC822DA60164B00225E
:101900001A61154B00229A61134807F057FD0346F0
:10191000002B01D003F02CFC4FF480533B6107F106
:10192000100319460C4807F0E9FF0346002B01D0CD
:1019300003F01EFC00237B600023FB603B1D194667
:10194000054808F017FA0346002B01D003F010FCFD
:1019500000BF2037BD4680BDC40400200008004001
:1019600080B588B000AF07F1100300221A605A60FA
:101970009A60DA603B1D00221A605A609A601E4B22
:101980001E4A1A601C4B42F62F225A601A4B002244
:101990009A60194B4FF0FF32DA60174B00221A6140
:1019A000154B00229A61144807F008FD0346002BEE
:1019B00001D003F0DDFB4FF480533B6107F11003CE
:1019C00019460D4807F09AFF0346002B01D003F09B
:1019D000CFFB00237B600023FB603B1D19460648BC
:1019E00008F0C8F90346002B01D003F0C1FB00BF8B
:1019F0002037BD4680BD00BF10050020000C004010
:101A000080B584B000AF3B1D00221A605A609A6016
:101A1000144B154A1A60134B6B225A60114B00226B
:101A20009A60104B4FF6FF72DA600E4B00229A61FB
:101A30000C4807F0C3FC0346002B01D003F098FBD1
:101A400000237B600023FB603B1D1946054808F01E
:101A500091F90346002B01D003F08AFB00BF103739
:101A6000BD4680BD5C0500200010004080B584B0FC
:101A700000AF3B1D00221A605A609A60144B154A51
:101A80001A60134B6B225A60114B00229A60104B64
:101A90006322DA600E4B00229A610D4807F08EFC3B
:101AA0000346002B01D003F063FB00237B6000237F
:101AB000FB603B1D1946064808F05CF90346002B05
:101AC00001D003F055FB00BF1037BD4680BD00BFFD
:101AD000A80500200014004080B500AF0E4B0F4A4F
:101AE0001A600D4B45F25F425A600B4B00229A6020
:101AF000094B4FF6FF72DA60074B00221A61064B62
:101B000000229A61044807F059FC0346002B01D0DB
:101B100003F02EFB00BF80BDF4050020004401400F
:101B200080B500AF0E4B0F4A1A600D4B42F62F22C4
:101B30005A600B4B00229A60094B47F23052DA6030
:101B4000074B00221A61064B00229A61044807F0F5
:101B500035FC0346002B01D003F00AFB00BF80BD1B
:101B6000400600200048014080B584B000AF3B46ED
:101B700000221A605A609A60DA60164B164A1A60A0
:101B8000144B42F62F225A60124B00229A60114BDE
:101B90004FF4FA72DA600F4B00221A610D4B0022EB
:101BA0009A610C4807F00AFC0346002B01D003F0B1
:101BB000DFFA4FF480533B603B461946054807F077
:101BC0009DFE0346002B01D003F0D2FA00BF103770
:101BD000BD4680BD8C0600200018004080B500AFD7
:101BE0000E4B0F4A1A600D4B40F237425A600B4BB6
:101BF00000229A60094B4FF6FF72DA60074B002211
:101C00001A61064B00229A61044807F0D7FB03468D
:101C1000002B01D003F0ACFA00BF80BDD806002035
:101C2000001C004080B500AF0E4B0F4A1A600D4BF0
:101C300045F25F425A600B4B00229A60094B4FF607
:101C4000FF72DA60074B00221A61064B00229A618C
:101C5000044807F0B3FB0346002B01D003F088FAD9
:101C600000BF80BD240700200020004080B500AFE9
:101C7000184B1B689A68174B1B6842F001029A6068
:101C8000144B154A1A60134B4FF416425A60114B0D
:101C900000229A600F4B0022DA600E4B00221A617C
:101CA0000C4B0C225A610B4B00229A61094B00220B
:101CB000DA61084B00221A62064B00225A6205487C
:101CC00008F004F90346002B01D003F051FA00BFDD
:101CD00080BD00BF700700200010014080B500AF3C
:101CE000194B1B689A68184B1B6842F001029A60F6
:101CF000164B174A1A60154B4FF4E1325A60134BDA
:101D000000229A60114B0022DA60104B00221A6107
:101D10000E4B0C225A610D4B00229A610B4B002294
:101D2000DA610A4B00221A62084B00225A62002331
:101D300000220021054809F017FC0346002B01D0C2
:101D400003F016FA00BF80BD70070020F8070020DE
:101D50000048004080B582B000AF264B1B6B254A7F
:101D600043F400131363234B1B6B03F400137B60DA
:101D70007B68204B1B6B1F4A43F4800313631D4B8E
:101D80001B6B03F480033B603B68002201210B20A6
:101D900004F0CDF90B2004F0E6F9002201210C201B
:101DA00004F0C5F90C2004F0DEF900220121102016
:101DB00004F0BDF9102004F0D6F9012201213820E9
:101DC00004F0B5F9382004F0CEF9012201213920C0
:101DD00004F0ADF9392004F0C6F9002201213A20BF
:101DE00004F0A5F93A2004F0BEF900BF0837BD465B
:101DF00080BD00BF0038024080B58AB000AF07F157
:101E0000140300221A605A609A60DA601A613D4B2E
:101E10001B6B3C4A43F0100313633A4B1B6B03F0FC
:101E200010033B613B69374B1B6B364A43F0800321
:101E30001363344B1B6B03F08003FB60FB68314B77
:101E40001B6B304A43F0010313632E4B1B6B03F0F3
:101E50000103BB60BB682B4B1B6B2A4A43F0040396
:101E60001363284B1B6B03F004037B607B68254BDB
:101E70001B6B244A43F002031363224B1B6B03F0DA
:101E800002033B603B6800224FF407611E4805F0E7
:101E900045FB002220211D4805F040FB00220321C4
:101EA0001B4805F03BFB4FF407637B610123BB61DB
:101EB0000023FB6100233B6207F11403194612481B
:101EC00005F094F820237B610123BB610023FB61B3
:101ED00000233B6207F1140319460C4805F086F80D
:101EE00003237B610123BB610023FB6100233B6271
:101EF00007F114031946064805F078F800BF2837A3
:101F0000BD4680BD0038024000000240000802408B
:101F10000004024080B586B002AFA24B1B78202B94
:101F200001F2538101A252F823F000BFB11F000853
:101F3000BF1F00088D23000831200008CB310008A6
:101F40003B28000891290008BF290008412B000800
:101F50009B2B0008FF2B00082D2C0008452C0008A7
:101F6000CB310008C52C00080F2D0008A92D000852
:101F7000CB310008BD2E0008DD2E0008912F00088F
:101F800009300008CB310008333000086D300008FC
:101F90000F31000867310008CB310008CB31000851
:101FA000CB310008CB310008CB3100084D3100089F
:101FB0007D4807F0D9FFFFF791FE01F006B9052231
:101FC0007A497B4806F04EFC05227A497A4806F0A9
:101FD00049FC7A4B1B7883F00103DBB2002B21D044
:101FE000774B1B7883F00103DBB2002B1AD0754BC3
:101FF0005B6F93F83530DBB2012B13D105227249A8
:10200000704808F077F801224FF400616F4805F03E
:1020100085FA0A20FEF722FB00224FF400616B488C
:1020200005F07CFA0021012001F02EFB01F0CDB873
:102030000121032001F028FB654B00221A80654B2B
:1020400000221A805E4B01221A70634B00221A7024
:102050005A4B00221A70614B00221A70604B00220A
:102060001A70604B4F4A92E80300186004331980DD
:102070005C4B9B78013B5C4A13441B7A1AB25B4B66
:102080001A80584B5B78013B574A13441B7A9BB22A
:10209000C3F5B4739BB21AB2554B1A80534BB3F9C4
:1020A0000030B42B07D1524BB3F90030B42B02D11E
:1020B000494B01221A704B4BDB78013B4D4A0933E7
:1020C00032F813204C4B1A804B4B1B88184602F0F9
:1020D0006DFD464BB3F900309BB205339AB2474BC6
:1020E0001A80474B00221A70464B00221A70464B4A
:1020F00000221A70454B00221A70454B00221A70BC
:10210000444B00221A703D4B1B885B04424A82FB01
:1021100003121A441212DB17D31A1A463F4B1A60E5
:102120003E4B1B682D4A12781146184601F0E8FB19
:1021300003463A4A1360294B1B78384A1268114605
:10214000184601F0F3F8294BB3F900305B04324A2A
:1021500082FB03121A441212DB17D31A1A46304BB1
:102160001A602F4B1B681D4A12781146184601F061
:10217000C7FB03462A4A13601F4B1B881A46284B8D
:102180001B681344B3F5003F4ED91B4B1B881A46FE
:10219000234B1B681344A3F500331A46214B1A60E6
:1021A0004BE000BF400A0020F80700204009002053
:1021B0004802002048090020E40100208D01002091
:1021C0006001002070070020640100200000024030
:1021D000740900207E090020E0090020B0000020E2
:1021E00061010020480A002040000020380A002039
:1021F0003A0A002050000020340A00203C0A002047
:10220000D1090020D3090020D2090020D4090020E0
:10221000D5090020D6090020B7600BB6040A0020BB
:10222000F4090020100A0020494B1B881A46494B2C
:102230001B6813441A46484B1A60464B1B68444AB5
:1022400012889B1A1A46444B1A60444B1B78002B89
:102250004DD0434BB3F900305B04424A82FB03127A
:102260001A441212DB17D31A3F4A13603E4B1B6805
:102270001A463E4B1B781946104601F041FB0346B7
:102280001A46394B1A60384B1B68B3F5347F0CDAA9
:10229000354B1B68A3F53473002BB8BF5B42C3F505
:1022A00000331A46324B1A6006E02F4B1B68A3F529
:1022B00034731A462E4B1A60294BB3F9003004339D
:1022C0005B04284A82FB03121A441212DB17D31A4A
:1022D0001A46284B1A60274B1B68244A127811466D
:1022E000184601F00DFB0346224A136018E01C4B10
:1022F000B3F900305B041B4A82FB03121A4412122A
:10230000DB17D31A1A461B4B1A601A4B1B68174A65
:1023100012781146184601F0F3FA0346154A136085
:10232000154B02221A70154B02221A70144B01220F
:102330001A70144B40F2DC521A800C4B1B781A4670
:10234000114B1B6819461046FEF75CFA00F03DBFC2
:10235000340A0020F4090020100A0020E0090020BF
:102360003A0A0020B7600BB60C0A0020B00000202B
:10237000B4090020FC090020C90B0020C80B002074
:10238000CA0B0020D2010020D00B00200121022026
:1023900001F07AF99C4B00221A809C4B00221A8093
:1023A0009B4B00221A809B4B01221A709A4B0022F1
:1023B0001A709A4B00221A80994B00221A80994B6E
:1023C00000221A70984B1B78002B14BF01230023A6
:1023D000DAB2964B1A70964B00221A700120FEF763
:1023E00057F9944B944A92E803001860043319801B
:1023F000904B9B78013B914A13441B7A1AB2824B53
:102400001A808C4B5B78013B8C4A13441B7A9BB23D
:10241000C3F5B4739BB21AB27C4B1A807A4BB3F9F2
:102420000030B42B07D1794BB3F90030B42B02D173
:10243000794B01221A70744BB3F900309BB205330B
:102440009AB2734B1A807E4B00221A707D4B002289
:102450001A707D4B00221A70744B1B7883F00103B5
:10246000DBB2002B00F00C81724BDB78013B774A2A
:10247000093332F81320764B1A80754B1B881846A7
:1024800002F094FB624B1B885B04724A82FB0312CE
:102490001A441212DB17D31A1A466F4B1A606E4B8E
:1024A0001B68624A12781146184601F029FA034661
:1024B000694A13605D4B1B78674A126811461846DB
:1024C00000F034FF504BB3F900305B04614A82FBEB
:1024D00003121A441212DB17D31A1A465F4B1A6002
:1024E0005E4B1B68514A12781146184601F008FAF3
:1024F00003465A4A1360594B1B68554A12889B1A67
:102500001A46574B1A60444B1B78002B4DD03F4B5B
:10251000B3F900305B044F4A82FB03121A441212D3
:10252000DB17D31A4F4A13604E4B1B681A463F4BBA
:102530001B781946104601F0E3F903461A46494B49
:102540001A60484B1B68B3F5347F0CDA454B1B68A7
:10255000A3F53473002BB8BF5B42C3F500331A46B2
:10256000414B1A6006E03F4B1B68A3F534731A46D3
:102570003D4B1A60254BB3F9003004335B04354AF8
:1025800082FB03121A441212DB17D31A1A46374B76
:102590001A60364B1B68254A12781146184601F01E
:1025A000AFF90346314A136018E0184BB3F9003015
:1025B0005B04284A82FB03121A441212DB17D31A57
:1025C0001A462A4B1A60294B1B68184A1278114682
:1025D000184601F095F90346244A1360244B012262
:1025E0001A70244B02221A70234B40F2DC521A80DC
:1025F0000E4B1B781A46214B1B6819461046FEF7F6
:1026000001F900F0E1BD00BF380A00203A0A0020BD
:102610003C0A002060010020E0090020740900202D
:102620007E0900208D010020CB0B0020B00000208F
:1026300061010020480A0020400A002040000020DC
:10264000D1090020D3090020D20900205000002029
:10265000340A0020B7600BB6040A0020F4090020F9
:10266000100A00200C0A0020B4090020FC090020F8
:10267000C90B0020C80B0020D2010020D00B002085
:10268000A14B1B78002B00F09F85A04BDB78013B12
:102690009F4A093332F813209E4B1A809D4B1B88AA
:1026A000184602F083FA9C4B1B885B049B4A82FB12
:1026B00003121A441212DB17D31A1A46984B1A60E7
:1026C000974B1B68904A12781146184601F018F98A
:1026D0000346934A13608C4B1B78914A126811464B
:1026E000184600F023FE8F4BB3F900305B048B4A91
:1026F00082FB03121A441212DB17D31A1A468A4BB2
:102700001A60894B1B68804A12781146184601F0FE
:10271000F7F80346844A1360834B1B687D4A12888E
:102720009B1A1A46814B1A60814B1B78002B4DD0A7
:10273000804BB3F900305B04784A82FB03121A44E1
:102740001212DB17D31A7C4A13607B4B1B681A46A4
:102750006D4B1B781946104601F0D2F803461A4615
:10276000754B1A60744B1B68B3F5347F0CDA724BEF
:102770001B68A3F53473002BB8BF5B42C3F500336D
:102780001A466E4B1A6006E06B4B1B68A3F5347358
:102790001A466A4B1A60674BB3F9003004335B0486
:1027A0005E4A82FB03121A441212DB17D31A1A462E
:1027B000634B1A60624B1B68534A127811461846E5
:1027C00001F09EF803465E4A136018E0594BB3F9D6
:1027D00000305B04514A82FB03121A441212DB17C9
:1027E000D31A1A46564B1A60554B1B68464A127844
:1027F0001146184601F084F80346514A1360504BC5
:102800001A68494B1B689A4202D24E4B01221A7039
:102810004D4B01221A704D4B02221A704C4B40F264
:10282000DC521A80384B1B781A464A4B1B681946F3
:102830001046FDF7E7FF00F0C7BC344B464A92E86C
:10284000030018600433198021214448FEF7A6F9DB
:10285000434B1B6800225A62424B01221A70424BC2
:102860001B78002B03D0414B05221A7002E03F4B2E
:1028700000221A703E4B00221A70244B5B78013BF9
:102880003C4A52F82320214B9B78013B3A4931F8CE
:1028900013301946104602F0C9F80346374A136050
:1028A000374806F053FE194B5B785A1E344B1B68B1
:1028B000304951F82220DA62314B1B6800225A62FB
:1028C000304806F043FE114B9B78013B2A4A32F810
:1028D00013202D4B1A802C4B1A882A4B1B68DA6266
:1028E000294B1B881A4613469B0013449B001A462B
:1028F000264B1A60234B1B6800225A6201210520D7
:1029000000F0C2FE00F061BCB0000020480A0020C8
:1029100050000020360A00203C0A0020B7600BB6A9
:10292000080A0020380A0020F8090020140A0020B4
:10293000E00900203A0A00200C0A0020B409002017
:10294000000A0020D8090020C90B0020C80B002075
:10295000D2010020D40B0020400A00206C0100208E
:10296000D8060020DE090020DA090020B20000208D
:10297000D70900207400002098000020A40900203E
:10298000100500202407002072090020940900206F
:102990000121062000F078FE01221021AE4804F04B
:1029A000BDFDAE4B06221A70AD4B01221A70AD4B25
:1029B0001B6819460020FDF725FF00F006BC012129
:1029C000072000F061FEA54B1B78013B072B00F2AE
:1029D000AF8001A252F823F0F9290008532A000819
:1029E000312B0008AD2A0008312B00080F2B0008FE
:1029F000312B00081D2B00089B4B1B781846FDF758
:102A0000A9FF9A4B1B78002B13D0994B1B78002BF6
:102A10000FD1964B1B781A4652001344DBB2013398
:102A2000DBB21A4621219348FEF7D4F8904B0122DD
:102A30001A708E4B00221A708F4B01221A708F4B26
:102A400000221A708E4B00221A708E4B00221A70D0
:102A50006FE0854B1B781846FDF77CFF834B1B7896
:102A6000002B13D0824B1B78002B0FD17F4B1B7890
:102A70001A4652001344DBB20133DBB21A4621215D
:102A80007C48FEF7A7F87A4B01221A70774B002298
:102A90001A70794B01221A70784B00221A70784B09
:102AA00000221A70774B00221A7042E0764806F036
:102AB0004DFD764806F04AFD754806F047FD6B4B24
:102AC0001B78002B13D06A4B1B78002B0FD1674B60
:102AD0001B781A4652001344DBB20133DBB21A46AC
:102AE00021216448FEF776F8614B01221A705F4B92
:102AF00000221A70604B01221A70604B00221A707B
:102B00005F4B00221A70634B00221A8011E00020F4
:102B1000FDF720FF0120FDF71DFF0AE00020FDF773
:102B200019FF0120FDF716FF564B00221A7000E036
:102B300000BF4A4B00221A70494B01221A7044E32D
:102B40000121082000F0A0FD534B544A92E80300F5
:102B50001860043319800023FB804F4B9B789BB295
:102B60001B02FB804C4B5B789AB2FB881343FB80C3
:102B7000FB88C3F5B473FB80FB885B04484A82FB87
:102B800003121A441212DB17D31A1A46454B1A6065
:102B9000444B1B68444A136017E3404B5B78002B9F
:102BA00014BF01230023DAB22F4B1A700121092030
:102BB00000F06AFD2A4B01221A70284B09221A7074
:102BC000304B01221A70354B5B78002B0BD14FF440
:102BD000C8710020FDF744FF344806F0DFFC34489C
:102BE00006F0DCFCF1E24FF4C8710120FDF738FF7C
:102BF0002E4806F0D3FC2F4806F0D0FCE5E2264B29
:102C0000264A92E8030018600433198001210A2043
:102C100000F03AFD204B5B78002B03D0264B0122BD
:102C20001A70D2E2244B00221A70CEE200F01CFE91
:102C30000F4B00221A70214B1B8801339AB21F4B95
:102C40001A80C2E200F0FEFF054B01221A701C4BF5
:102C500000221A70B9E200BF00000240C90B002038
:102C6000C80B0020D00B0020B0000020690100201C
:102C7000610100206C010020000000208D01002077
:102C800062010020CA0B002024070020100500204C
:102C9000D80600208A090020480A0020400A0020A7
:102CA000B7600BB61C0A0020180A0020A8050020F7
:102CB0002C04002078040020CB0B00207C0900208D
:102CC000D00900209C4B9B78002B0DD09B4B002201
:102CD0001A70012210219A4804F020FC01222021C0
:102CE000984804F01BFC0CE0944B01221A7000225F
:102CF0001021934804F012FC00222021914804F096
:102D00000DFC8D4B5B78184600F0A4FA5DE20121C2
:102D10000F2000F0B9FC8C4B874A92E80300186042
:102D200004331980884B9B78FF2B1BD1864B5B7833
:102D3000FF2B08D100222021824804F0EFFB834BB7
:102D400000221A7007E0012220217E4804F0E6FBF1
:102D50007E4B01221A707E4B1B6819460120FDF73D
:102D600051FD1AE0784B5B78FF2B08D1002210212F
:102D7000734804F0D3FB714B00221A7007E0012264
:102D800010216F4804F0CAFB6C4B01221A70714B82
:102D90001B6819460020FDF735FD6F4B06221A709F
:102DA0006E4B01221A7010E2674B634A92E80300EF
:102DB0001860043319800121102000F065FC664B77
:102DC00008221A70664B00221A605F4B9B781B0228
:102DD0001A46634B1A605C4B5B781A46604B1B6863
:102DE00013435F4A13605E4B1B68C3F5B4735C4AC0
:102DF00013605B4B1B685B04DB085A4AA2FB03238E
:102E00009B08BB60584B1B78002B2BD0574B0022E4
:102E10001A604D4BDB78002B09D1554B5B68194686
:102E2000B86800F0B9FD0346504A136008E0494B0A
:102E30001B681946B86800F0AFFD03464B4A1360A3
:102E4000494B1B78494A12681146184600F06EFA41
:102E5000454B1B781A463F4B1B6819461046FDF739
:102E6000D1FCB2E1434B00221A60374BDB78002BD8
:102E700009D13F4B1B681946B86800F08DFD034629
:102E80003C4A136008E0324B1B681946B86800F0F2
:102E900083FD0346374A1360334B1B78354A12686B
:102EA0001146184600F042FA2F4B1B781A46284B61
:102EB0001B6819461046FDF7A5FC86E1012112208A
:102EC00000F0E2FB1C4B5B78002B03D0264B012269
:102ED0001A707AE1244B00221A7076E10121132046
:102EE00000F0D2FB1A4B1B68234A1360194B1B6876
:102EF000224A1360204B1B68214A13601F4B1B683A
:102F00001F4A53601E4B1B681846FDF701FE03461F
:102F10001C4A13601A4B5B681846FDF7F9FD03461F
:102F2000194A1360042300930223184A022114480B
:102F3000FDF710FB49E100BF400A0020C40B002050
:102F40000000024000080240480A0020C50B002093
:102F5000D00B0020D40B0020C90B0020C80B002090
:102F6000300A0020176CC116B0000020240A00208F
:102F7000C8090020200A0020180A00201C0A00208E
:102F8000C0090020EC090020F009002000800108A1
:102F90000121142000F078FB8F4B01221A708F4B17
:102FA00001221A708E4B00221A708E4B5B781846E5
:102FB00000F08CFD03461A468B4B1A70894B9B78A8
:102FC000012B07D1884B1B7863F07F03DAB2864B65
:102FD0001A7006E0844B1B7843F00803DAB2824B88
:102FE0001A70814B1A78804B5A70804807F0C6F8E7
:102FF000642301227C497D4806F0F3FF05227C49C9
:103000007A4807F077F8E0E005227A49774807F038
:1030100071F801224FF40061774804F07FFA012033
:1030200002F062FF00224FF40061734804F076FA68
:10303000CBE00121172000F027FB704B1B68704A82
:103040001360704B1B686E4A536005230093022384
:103050006D4A02216A48FDF77DFA6C4B1B686C4A89
:1030600013606C4B1B686A4A5360AEE06A4B1B7876
:1030700083F00103DBB2002B24D0012210215E4833
:1030800004F04CFA654B00221A70012220215A48A4
:1030900004F044FA642002F027FF00222021564861
:1030A00004F03CFA05225E495E4805F0DBFB002196
:1030B000012000F0E9FA594B1B780133DAB2574B83
:1030C0001A70E2E701222021574804F027FA534BF7
:1030D00000221A7001220121544804F01FFA6420D2
:1030E00002F002FF00220121504804F017FA0522E5
:1030F0004F49504805F0B6FB0021012000F0C4FA0A
:10310000464B1B780133DAB2444B1A70E2E7424B6C
:103110001B7883F00103DBB2002B0BD00522404962
:10312000404805F09FFB642305223D49424806F0D4
:1031300058FF4AE005223E493E4805F093FB6423D0
:1031400005223B493C4806F04CFF3EE00023FB6073
:1031500002E0FB680133FB60FB68812BF9DD374837
:1031600008F00AFB31E001211A2000F08DFA344BFF
:103170001B684FF4FA72DA62174B01221A70314B56
:1031800000221A70154B01221A70154B00221A707A
:10319000012000F02DFC03461A46134B1A702A4BEF
:1031A00005221A70294B02221A70104806F0E6FF19
:1031B000642301220C490D4806F013FF05220C4937
:1031C0000A4806F097FF00E000BF214B00221A706A
:1031D00000BF1037BD4680BD8D010020DA090020F8
:1031E000DB090020400A002084090020700700202D
:1031F000380000206401002000000240D00B0020B5
:10320000C8090020D40B002000000208E4090020B7
:10321000B8090020E8090020B00000208D09002036
:10322000400900204802002000080240000402403B
:1032300048090020E4010020F8070020B0C0000881
:10324000F405002071090020C90B0020C80B0020E4
:10325000C10B002080B584B000AF0346FB712A4B40
:103260001B7883F00103DBB2002B29D00023FB6025
:1032700021E001222021254804F050F9022002F02B
:1032800033FE00222021214804F048F9022002F0F8
:103290002BFE20211D4804F05AF905221C491D4827
:1032A00005F0E0FA6423052219491B4806F099FE4F
:1032B000FB680133FB60FB79FA689A42D9DB1BE0BB
:1032C0000023BB6014E00121144804F040F90420FD
:1032D00002F00AFE05221249124805F0C3FA6423DF
:1032E00005220F490C4806F07CFEBB680133BB6029
:1032F000FB79BA689A42E6DB0B4B00221A7000BFDA
:103300001037BD4680BD00BFB00000200000024065
:103310004009002048020020F80700200004024075
:1033200048090020E40100208C09002080B582B00B
:1033300000AF03463960FB71FB7983F00103DBB218
:10334000002B40D0424B1B683A689A421DD2404B3A
:103350001A683B68D21A3E4B1B683968CB1A03F5D2
:1033600000339A4208D9012210213A4804F0D6F8D5
:10337000394B00221A7066E000221021354804F013
:10338000CDF8354B01221A705DE0314B1A683B686D
:10339000D31A03F500322E4B1B683968CB1A9A42B8
:1033A00008D2002210212B4804F0B8F82A4B012241
:1033B0001A7048E001221021264804F0AFF8264B8D
:1033C00000221A703FE0254B1B683A689A421DD2D2
:1033D000224B1A683B68D21A204B1B683968CB1AFB
:1033E00003F500339A4208D9012220211C4804F039
:1033F00095F81C4B00221A7025E000222021184865
:1034000004F08CF8174B01221A701CE0134B1A6859
:103410003B68D31A03F50032104B1B683968CB1A8E
:103420009A4208D2002220210D4804F077F80D4B73
:1034300001221A7007E001222021094804F06EF8E9
:10344000084B00221A7000BF0837BD4680BD00BF80
:10345000D00B002000000240C40B0020D40B002041
:1034600000080240C50B002080B582B000AF786034
:10347000391D4FF6FF730122034806F0B2FD7B6849
:1034800018460837BD4680BDF807002080B485B0D7
:1034900000AF78607B681B682C4A934202D12C4BAA
:1034A00001221A707B681B682A4A934248D12A4B32
:1034B0001B78002B41D00023FB60284B1B781A4659
:1034C000264B5B781344254A92781344FB60FB68D3
:1034D000DBB2FB60214BDB781A46FB68934203D1D9
:1034E0001E4B1B79A52B06D01D4B00221A701D4BBD
:1034F00002221A700DE0194B1A781B4B1B781B091E
:10350000DBB29A4205D0164B00221A70154B0122ED
:103510001A70164B1B78002B09D0144B00221A701E
:10352000134B00221A70134B00221A7002E0104B4A
:1035300001221A70084B00221A700F4B01221A70D8
:1035400000BF1437BD465DF8047B7047004800405B
:10355000C10B0020001001408D0100203800002028
:10356000C80B0020D009002084090020B1000020F1
:10357000DB090020DA090020C00B002080B483B0F2
:1035800000AF78607B681B68314A93422AD1314B87
:103590009B785B09DBB203F007032F4A13602D4BC6
:1035A0005B78DA002C4B1B6813432B4A1360294BC2
:1035B0001B78DB0203F4FC32274B1B681343264ABB
:1035C0001360264B1B68244A1360234B1B68244A54
:1035D0005361214B1B68C3F50033224A1360224B11
:1035E00001221A707B681B68204A93422AD1204B23
:1035F0009B785B09DBB203F007031E4A13601C4B88
:103600005B78DA001B4B1B6813431A4A1360184B94
:103610001B78DB0203F4FC32164B1B681343154A7C
:103620001360154B1B68134A1360124B1B68134A37
:103630005361104B1B68C3F50033114A1360114BE3
:1036400001221A7000BF0C37BD465DF8047B70473D
:103650000034014040090020D00B0020B4000020BD
:1036600090010020E4090020C20B0020003C004033
:1036700048090020D40B0020B800002004000020DE
:10368000E8090020C30B002080B584B000AF0346DA
:103690000A46FB711346BB71664B00221A80FB7908
:1036A000012B40F0AC80644B01221A70634B1A78F6
:1036B000614B5A70624B1A785F4B9A70614B1B7862
:1036C0001A465D4BDA70604B1A785B4B1A715F4B90
:1036D0001A78594B5A715E4B1A78574B9A715C4B5A
:1036E0005A78554BDA715A4B9A78534B1A72594B98
:1036F0001B68DAB2504B5A72564B1B681B0ADAB27F
:103700004D4B9A72534B1B681B0CDAB24A4BDA7260
:10371000514B1B68DAB2484B1A734F4B1B681B0A9C
:10372000DAB2454B5A734C4B1B681B0CDAB2424B56
:103730009A734A4B1B68DAB23F4BDA73474B1B68EC
:103740001B0ADAB23C4B1A74444B1B681B0CDAB2EE
:10375000394B5A74404B5B68DAB2374B9A743E4B24
:103760005B681B0ADAB2344BDA743B4B5B681B0CA8
:10377000DAB2314B1A75304B00225A752E4B0022AB
:103780009A752D4B0022DA752B4B00221A762A4BA4
:1037900000225A76284B00229A76274B0022DA77AD
:1037A000254B002283F820200023FB6016E0224AEC
:1037B000FB6813441B789AB2FB6801331E49CB5C4B
:1037C0009BB21B029BB213449AB21A4B1B88134440
:1037D0009AB2184B1A80FB680233FB60FB681D2B02
:1037E000E5DD154B9B7F9AB2124B1B8813449AB2AE
:1037F000104B1A801A4B0F4A12881A8010E02121B0
:103800000D48FDF7CBF90C4AFB7913700A4ABB79D6
:103810005370094AFB79D377074ABB7982F8203085
:103820006423212204490F4806F0DBFB00BF103758
:10383000BD4680BD8609002050090020C80B00202D
:10384000C90B0020CA0B002061010020CC0B002016
:10385000500A0020E4090020B8090020E8090020EF
:103860006F090020F807002080B582B000AF002368
:10387000FB801F4B0B221A701D4B0022DA771C4B6A
:10388000002283F8202000233B6013E0184A3B68A5
:1038900013441B789AB23B6801331549CB5C9BB249
:1038A0001B029BB213449AB2FB881344FB803B6813
:1038B00002333B603B681D2BE8DD0D4B9B7F9AB2CA
:1038C000FB881344FB800B4AFB8813800A4806F0F0
:1038D00055FC642321220649074806F082FB062294
:1038E0000649054806F006FC00BF0837BD4680BD06
:1038F000E00B0020FF0B0020F8070020400A00200A
:1039000080B485B000AF78600B46FB700023FB608D
:10391000FB78002B14D01E4B1A687B681344B3F558
:10392000003F07D91A4B1A687B681344A3F500338C
:10393000FB6019E0164B1B687A681344FB6013E0C8
:10394000144B1A687B681344B3F5003F07D9114B39
:103950001A687B681344A3F50033FB6004E00D4B49
:103960001B687A681344FB60FB68002B01D15C2361
:10397000FB60FB68B3F5003F02D1FB685C3BFB607A
:10398000FB6818461437BD465DF8047B704700BFDE
:103990001C0A0020180A002080B485B000AF7860AF
:1039A00039600023FB607A683B681344B3F5003F3D
:1039B00006D97A683B681344A3F50033FB6003E043
:1039C0007A683B681344FB60FB68002B01D15C23E1
:1039D000FB60FB68B3F5003F02D1FB685C3BFB601A
:1039E000FB6818461437BD465DF8047B704700003D
:1039F00080B483B000AF0346FB71FB79802B5CD0B1
:103A0000802B5CDC202B47DC002B58DD013B1F2B7F
:103A100055D801A252F823F09F3A0008A33A0008B3
:103A2000BF3A0008A73A0008BF3A0008BF3A0008AA
:103A3000BF3A0008AB3A0008BF3A0008BF3A000896
:103A4000BF3A0008BF3A0008BF3A0008BF3A000872
:103A5000BF3A0008AF3A0008BF3A0008BF3A000872
:103A6000BF3A0008BF3A0008BF3A0008BF3A000852
:103A7000BF3A0008BF3A0008BF3A0008BF3A000842
:103A8000BF3A0008BF3A0008BF3A0008BF3A000832
:103A9000BF3A0008B33A0008402B0CD00FE00023D7
:103AA0000EE011230CE022230AE0332308E0442334
:103AB00006E0552304E0662302E0772300E00123BB
:103AC00018460C37BD465DF8047B704780B483B060
:103AD00000AF0346FB71FB79802B5CD0802B5CDC54
:103AE000202B47DC002B58DD013B1F2B55D801A2B2
:103AF00052F823F07B3B00087F3B00089B3B00080B
:103B0000833B00089B3B00089B3B00089B3B000855
:103B1000873B00089B3B00089B3B00089B3B000841
:103B20009B3B00089B3B00089B3B00089B3B00081D
:103B30008B3B00089B3B00089B3B00089B3B00081D
:103B40009B3B00089B3B00089B3B00089B3B0008FD
:103B50009B3B00089B3B00089B3B00089B3B0008ED
:103B60009B3B00089B3B00089B3B00089B3B0008DD
:103B70008F3B0008402B0CD00FE007230EE01623EC
:103B80000CE025230AE0342308E0432306E0522317
:103B900004E0612302E0702300E0012318460C37A3
:103BA000BD465DF8047B704780B400AF1F4B1B78A7
:103BB0001A461E4B5B7813441C4A92781344DBB2BE
:103BC0001A4AD27893422CD1184B1B79A52B28D1B5
:103BD000174B1B78002B12D0144B1A78154B1A7008
:103BE000124B5A78134B5A70104B9A78114B9A70AB
:103BF000114B1B8801339AB20F4B1A800BE00B4B11
:103C00001A780E4B1A70094B5A780C4B5A70074BA6
:103C10009A780A4B9A700A4B1B8801339AB2084B68
:103C20001A8000BFBD465DF8047B70476401002028
:103C300062010020580A002076090020500A002066
:103C40007809002080B500AF21210D48FCF7A6FFC0
:103C50000B4B0C221A700B4B1A78094B5A70084BFD
:103C60000C22DA77074B1A78054B83F8202064235F
:103C700021220349044806F0B4F900BF80BD00BF0B
:103C800050090020D0090020F807002080B500AFBF
:103C9000194B1B78002B16D0184B1B681A1F184B9A
:103CA0001B689A4225D8154B1B681A1D144B1B68BC
:103CB0009A421ED3104B1B781846FCF74BFE114B53
:103CC00000221A7015E0104B1B681A1F0F4B1B685F
:103CD0009A420ED80C4B1B681A1D0C4B1B689A425B
:103CE00007D3054B1B781846FCF734FE054B002222
:103CF0001A7000BF80BD00BFB0000020240A002061
:103D0000D40B0020C90B0020200A0020D00B00207B
:103D100080B500AF224B1B784B211846FCF7A0FE64
:103D20001F4B1B78002B1CD01E4B1B68A3F12E02CF
:103D30001D4B1B689A4230D81A4B1B6803F12E02A8
:103D4000194B1B689A4228D3184805F09FFC184865
:103D500005F09CFC174B00221A70174B00221A70BA
:103D60001BE0164B1B68A3F12E02154B1B689A42F1
:103D700013D8124B1B6803F12E02114B1B689A4299
:103D80000BD3104805F082FC094805F07FFC094B75
:103D900000221A70084B00221A7000BF80BD00BFBD
:103DA000B00000202C0A0020D40B00207804002052
:103DB000A8050020C90B0020CA0B0020280A0020FB
:103DC000D00B00202C040020F8B500AF654B1B7809
:103DD00083F00103DBB2002B2DD0634B01221A705C
:103DE000624B1B685A1F624B1B689A4223D85F4B79
:103DF0001B685A1D5E4B1B689A421CD35D4B1B7897
:103E00001846FCF7A7FD5B4B1B785B4A126811460E
:103E10001846FFF78BFA534B01221A70574B1A883A
:103E2000574B1A80534B1B781A46514B1B68194647
:103E30001046FCF7E7FC4B4B1B78002B00F0F280A0
:103E4000504B1B7883F00103DBB2002B2AD0464B8A
:103E500000221A70484B1B685A1F454B1B689A4238
:103E600020D8454B1B685A1D414B1B689A4219D3F9
:103E7000444B01221A7005224349444806F03AF99E
:103E800001224FF40061424803F048FB414B0122FC
:103E90001A701E20FCF7E2FB00224FF400613C4840
:103EA00003F03CFB374B1B78002B00F0BB803A4BF8
:103EB0001B7883F00103DBB2002B00F0B3802C4BA6
:103EC0001A68364B1B689A4228D3344B1B6803F19F
:103ED0002E02274B1B689A4220D305222A492B48E1
:103EE00006F008F901224FF40061294803F016FB9F
:103EF000284B01221A701E20FCF7B0FB00224FF461
:103F00000061234803F00AFB254B1B8801339AB25A
:103F1000234B1A80204B01221A70DAE0214B1B68D8
:103F2000043B1A46124B1B689A4263D81D4B1B6810
:103F300004331A460E4B1B689A425BD3194B1B681D
:103F4000194A12889B1A002B30DA164B1B68164A46
:103F500012889B1A002BB8BF5B42C3F50033114A8D
:103F600013602AE0D3090020CA0B0020040A0020B5
:103F7000D00B0020B0000020F4090020BC0000207D
:103F8000D2010020D1090020640100207007002028
:103F90000000024062010020D2090020FC0900203C
:103FA0007E090020100A0020340A0020494B1B68BB
:103FB000494A12889B1A474A1360052247494848D4
:103FC00006F098F801224FF40061464803F0A6FA83
:103FD000454B01221A701E20FCF740FB00224FF4D3
:103FE0000061404803F09AFA404B1B8801339AB2B3
:103FF0003E4B1A803E4B1B78002B13D03D4B1B6869
:10400000A3F13C023C4B1B689A420BD8394B1B680E
:1040100003F13C02384B1B689A4203D3374B1B68B1
:10402000374A1360374B1B78002B52D02E4B1B782E
:1040300083F00103DBB2002B4BD0334B1B78002BFA
:1040400047D1324B1B78002B24D0304B1B781A46BB
:1040500052001344DBB20133DBB21A4621212C4853
:10406000FCF7B8FD2B4B2A4A14461E4604F1200CDF
:1040700035462346186859689A68DB680FC51034BE
:1040800010366445F4D13346224612781A701E4B1E
:1040900001221A701D4B00221A701F4B01221A7048
:1040A0001E4B00221A701E4B00221A701D4B01225B
:1040B0001A70144B01221A700B4B00221A701A4B03
:1040C00000221A70FCF759FB184B1B781846FCF7B6
:1040D0002DFCF8BD100A0020340A002064010020E5
:1040E0007007002000000240620100207E090020CD
:1040F000E0090020B4090020D00B0020F4090020C2
:10410000FC090020D2090020610100206901002083
:104110006C010020E00B002000000020C90B0020F3
:104120008D010020C80B002060010020B00000209D
:10413000F8B500AF664B1B7883F00103DBB2002BB0
:104140002DD0644B01221A70634B1B685A1F634BBE
:104150001B689A4223D8604B1B685A1D5F4B1B6833
:104160009A421CD35E4B1B781846FCF7F3FB5C4B62
:104170001B785C4A126811461846FFF7D7F8544B73
:1041800001221A70584B1A88584B1A80544B1B78CE
:104190001A46524B1B6819461046FCF733FB4C4B32
:1041A0001B78002B00F0F480514B1B7883F0010347
:1041B000DBB2002B2AD0474B00221A70494B1B68F8
:1041C0005A1F464B1B689A4220D8464B1B685A1D03
:1041D000424B1B689A4219D3454B01221A700522A3
:1041E0004449454805F086FF01224FF400614348E9
:1041F00003F094F9424B01221A700A20FCF72EFAC0
:1042000000224FF400613D4803F088F9384B1B78D9
:10421000002B00F0BD803B4B1B7883F00103DBB229
:10422000002B00F0B580384B1B68A3F108022B4B24
:104230001B689A4228D8344B1B6803F10802274BAD
:104240001B689A4220D305222A492B4805F052FFC9
:1042500001224FF40061294803F060F9284B012244
:104260001A700A20FCF7FAF900224FF40061234883
:1042700003F054F9254B1B8801339AB2234B1A8063
:10428000204B01221A70D8E0214B1B68043B1A46D0
:10429000124B1B689A4263D81D4B1B6804331A46A5
:1042A0000E4B1B689A425BD3194B1B68194A128844
:1042B0009B1A002B30DA164B1B68164A12889B1A81
:1042C000002BB8BF5B42C3F50033114A13602AE0EC
:1042D000D3090020CA0B0020080A0020D40B0020BC
:1042E000B0000020F8090020BE000020D20100200C
:1042F000D109002064010020700700200000024066
:1043000062010020D2090020000A00207E0900205E
:10431000140A0020360A0020484B1B68484A1288BD
:104320009B1A464A136005224649474805F0E2FEBB
:1043300001224FF40061454803F0F0F8444B01229C
:104340001A700A20FCF78AF900224FF400613F48F6
:1043500003F0E4F83F4B1B8801339AB23D4B1A80BF
:104360003D4B1B78002B13D03C4B1B68A3F13C0248
:104370003B4B1B689A420BD8384B1B6803F13C023D
:10438000374B1B689A4203D3364B1B68364A13607F
:10439000364B1B78002B50D02D4B1B7883F001033C
:1043A000DBB2002B49D0324B1B78002B45D1314B6F
:1043B0001B78002B24D02F4B1B781A465200134435
:1043C000DBB20133DBB21A4621212B48FCF702FC99
:1043D0002A4B294A14461E4604F1200C3546234632
:1043E000186859689A68DB680FC510341036644540
:1043F000F4D13346224612781A701D4B01221A70EE
:104400001C4B00221A701E4B01221A701D4B0022F9
:104410001A701D4B00221A701C4B01221A70134B8C
:1044200001221A700A4B00221A70194B00221A70CE
:10443000184B1B781846FCF779FAF8BD140A0020CF
:10444000360A0020640100207007002000000240AE
:10445000620100207E090020E0090020B40900204C
:10446000D40B0020F8090020000A0020D209002007
:1044700061010020690100206C010020E00B002098
:1044800000000020C90B00208D010020C80B002077
:1044900060010020B000002080B582B000AF994BD1
:1044A0001B7883F00103DBB2002B02D0954B012275
:1044B0001A70944B1B78002B00F0E580924B1B7810
:1044C00083F00103DBB2002B00F0DD808F4B1B7803
:1044D00083F00103DBB2002B21D08D4B01221A7037
:1044E0008C4B1B685A1F8C4B1B689A4217D8894B00
:1044F0001B685A1D884B1B689A4210D3874805F0E9
:10450000C5F8874B1B78874A126811461846FEF794
:104510000DFF7E4B01221A70804805F03FF87B4B5F
:104520001B78002B00F0AF807F4B1B7883F00103DA
:10453000DBB2002B2AD0764B00221A70794B1B6815
:104540005A1F754B1B689A4220D8764B1B685A1D20
:10455000714B1B689A4219D3734B01221A700522C2
:104560007249734805F0C6FD01224FF4006171489D
:1045700002F0D4FF704B01221A700220FCF76EF893
:1045800000224FF400616B4802F0C8FF664B1B78B5
:10459000002B78D0694B1B7883F00103DBB2002B32
:1045A00071D0674B1B68A3F108025B4B1B689A42F2
:1045B00034D8634B1B6803F10802574B1B689A42BF
:1045C0002CD3604B1B78002B0FD05E4B1B781A4608
:1045D00052001344DBB20133DBB21A4621215A48A0
:1045E000FCF7F8FA594B01221A70564B00221A7048
:1045F000574B01221A70574B00221A704E4B002263
:104600001A70464805F042F8534805F03FF83E4B13
:1046100001221A703E4B01221A7034E04F4B1B6886
:10462000043B1A463C4B1B689A422CD84B4B1B68E8
:1046300004331A46384B1B689A4224D3484B1B88D4
:104640001A46464B1B681344444A136005223749F7
:10465000374805F04FFD01224FF40061354802F064
:104660005DFF354B01221A700220FBF7F7FF002295
:104670004FF400612F4802F051FF3A4B1B88013381
:104680009AB2384B1A80204B1B78002B00F0A58083
:10469000354B1B78002B02D000F0B4F89DE01A4B8C
:1046A0001B78002B00F099802B4804F0EFFF2F4877
:1046B00004F0ECFF1C4B00221A70144B00221A70FD
:1046C0001E4B00221A70174B1B687B601C4A7B68CC
:1046D00013601B4B1B68134A1360254BB3F9003062
:1046E000B3F5B27F48DB224BB3F900300533002B22
:1046F000B8BF5B429AB21F4B1A801E4B4FF69862AE
:104700001A8041E0D6090020D4090020D3090020F6
:10471000CA0B0020040A0020D00B00202C0400202B
:10472000B0000020F4090020D1090020640100201D
:10473000700700200000024062010020D209002022
:10474000FC090020690100206C01002061010020AB
:10475000000000208D010020A8050020100A002084
:10476000340A00207E090020D509002078040020AA
:104770003A0A00203C0A00201A4BB3F900309BB2E1
:1047800005339AB2184B1A80174B1B885B04174AE3
:1047900082FB03121A441212DB17D31A1A46144B67
:1047A0001A60134B1B68134A127811461846FFF71C
:1047B000A7F803460E4A13600E4B1B780C4A12688A
:1047C00011461846FEF7B2FD0B4B01221A700B483A
:1047D00004F0E4FE0A4804F0E1FE00BF0837BD46DD
:1047E00080BD00BF3A0A00203C0A0020B7600BB62B
:1047F000040A0020B0000020D5090020A8050020F0
:104800002C04002080B500AF6F4B1B7883F00103B0
:10481000DBB2002B21D06D4B01221A706C4B1B6850
:104820005A1F6C4B1B689A4217D8694B1B685A1D5C
:10483000684B1B689A4210D3674804F027FF674B08
:104840001B78674A126811461846FEF76FFD5E4BEB
:1048500001221A70604804F0A1FE5B4B1B78002B0C
:1048600000F0B0805F4B1B7883F00103DBB2002BBC
:104870002AD0564B00221A70594B1B685A1F554BB1
:104880001B689A4220D8564B1B685A1D514B1B6817
:104890009A4219D3534B01221A70052252495348A8
:1048A00005F028FC01224FF40061514802F036FE69
:1048B000504B01221A700220FBF7D0FE00224FF469
:1048C00000614B4802F02AFE464B1B78002B79D042
:1048D000494B1B7883F00103DBB2002B72D0474BAE
:1048E0001B681A1F3B4B1B689A4236D8434B1B6808
:1048F0001A1D384B1B689A422FD3414B1B78002B53
:104900000FD03F4B1B781A4652001344DBB20133E1
:10491000DBB21A4621213B48FCF75CF93A4B0122F5
:104920001A70374B00221A70384B01221A70384B1C
:1049300000221A70374B00221A70374B01221A706E
:104940002D4B01221A702B4B00221A70224804F0C2
:104950009DFE324804F09AFE34E0314B1B68043B64
:104960001A461C4B1B689A422CD82D4B1B680433EB
:104970001A46184B1B689A4224D32A4B1B881A46A6
:10498000274B1B681344264A136005221649174813
:1049900005F0B0FB01224FF40061154802F0BEFDA6
:1049A000144B01221A700220FBF758FE00224FF42C
:1049B00000610F4802F0B2FD1B4B1B8801339AB215
:1049C000194B1A8000BF80BDD3090020CA0B0020FC
:1049D000040A0020D00B00202C040020B00000208E
:1049E000F4090020D1090020640100207007002094
:1049F0000000024062010020D2090020FC090020D2
:104A0000690100206C0100206101002000000020ED
:104A1000C90B00208D010020C80B0020A805002034
:104A2000100A0020340A00207E09002080B487B0DC
:104A300000AF786039607B680C4AA2FB0323DB0877
:104A40007B613B685B00094AA2FB0323DB083B61F7
:104A50007A693B69B2FBF3F39BB20133FB81FB89BB
:104A600018461C37BD465DF8047B7047CDCCCCCCD6
:104A700080B400AF224B1A68224B1B689A4238D38D
:104A80001F4B1B689AB21F4B1B689BB2D31A9AB27A
:104A90001D4B1B8813449AB21B4B1A801A4B1B8860
:104AA0001A461A4B1B681344184A1360164B1B888E
:104AB000C72B1ED9164B1B881946134B1B88154A4A
:104AC000A2FB03239B099BB25B00CB1A1A46124B35
:104AD0001A600D4B1B880F4AA2FB03129209C821D2
:104AE00001FB02F29B1A9AB2074B1A800A4B1B6811
:104AF00001E0074B1B881846BD465DF8047B7047F4
:104B000090090020940900208A090020D80B002079
:104B1000720900201F85EB519C09002080B485B0EC
:104B200000AF78600B467B800023FB810023BB81B4
:104B30002EE0FB897A6813441A78BB8911461A4A19
:104B400042F82310BB89184A52F82320FB8901330D
:104B500079680B441B781B021946BB890A4312492A
:104B600041F82320BB89104A52F82320FB890233E5
:104B700079680B441B781B041946BB890A430A4910
:104B800041F82320FB890333FB81BB890133BB81BF
:104B9000FA897B889A42CCD300BF00BF1437BD4648
:104BA0005DF8047B704700BFF80A002080B582B032
:104BB00000AF0346FB80FB8840F21C7293425AD040
:104BC00040F21C72934200F3B68040F26D129342A1
:104BD0005CD0B3F5B77F80F2AE80B62B62D0B62B37
:104BE00000F3A9801D2B43DC002B40F3A480013B84
:104BF0001C2B00F2A08001A252F823F01F4D0008E8
:104C0000374D0008074D0008374D0008374D0008A4
:104C1000EF4C0008374D0008374D0008374D0008AD
:104C2000374D0008374D0008374D0008374D000854
:104C3000374D0008374D0008374D0008374D000844
:104C4000374D0008374D0008374D0008374D000834
:104C5000374D0008374D0008374D0008374D000824
:104C6000374D0008374D0008374D0008D74C000875
:104C70003C2B23D05FE0324B4FF457721A80304BFD
:104C80001A88304B1A80C820FBF730FF2C4B4FF4AA
:104C900057721A802A4B1A882A4B1A80C820FBF7B1
:104CA00025FF48E0264B4FF457721A80244B1A8890
:104CB000244B1A80C820FBF719FF3CE0204B4FF42F
:104CC000B7721A801E4B1A881E4B1A804FF47A70E6
:104CD000FBF70CFF2FE01A4BF4221A80184B1A88AE
:104CE000184B1A804FF47A70FBF700FF23E0144B47
:104CF00032221A80124B1A88124B1A804FF47A70A3
:104D0000FBF7F4FE17E00E4B14221A800C4B1A88A6
:104D10000C4B1A804FF47A70FBF7E8FE0BE0084B5F
:104D20000A221A80064B1A88064B1A804FF47A70B2
:104D3000FBF7DCFE00BF00BF0837BD4680BD00BFEB
:104D4000BE000020BC00002080B582B002AF3B480E
:104D500004F09CFC3A4804F089FB642001F0C4F89C
:104D600006223849384805F0C5F905223749384840
:104D700003F078FD05223749374803F073FD374BC0
:104D800000221A60364B00221A600520FBF7CAFB8E
:104D90000223344A02213448FBF72AFC324B1B68B9
:104DA000B3F5003F12D9304B5B68B3F5003F0DD926
:104DB0002D4B01221A602C4B01225A6005230093CF
:104DC0000223284A02212848FBF7C4FB264B1B6814
:104DD0001846FBF79DFE0346244A1360224B5B688E
:104DE0001846FBF795FE0346204A5360204B134AB2
:104DF000DA60204B204ADA601D4B40F2DC52DA8048
:104E00001C4B40F2DC52DA80194BDB8819461848FB
:104E1000FBF78CFE174BDB8819461648FBF786FE1E
:104E2000164B40F2DC521A80154B01221A701548BD
:104E300004F0B4FB00BFBD4680BD00BF2C040020C1
:104E40005C050020400A0020F807002040090020EF
:104E50004802002048090020E4010020180A002030
:104E60001C0A002000000208C8090020B809002020
:104E7000900100200400002078040020D2010020CE
:104E8000C80B00204006002080B500AF544B1B78B3
:104E9000013B082B00F2978001A252F823F000BFDB
:104EA000C54E00081B4F0008C74F0008714F00088F
:104EB000C74F0008B94F0008B94F0008B94F0008A4
:104EC000B94F00080020FBF731FD464B1B78002B43
:104ED00013D0454B1B78002B0FD1424B1B781A4641
:104EE00052001344DBB20133DBB21A4621213F48A2
:104EF000FBF770FE3C4B01221A703A4B00221A70ED
:104F00003B4B01221A703B4B00221A703A4B002295
:104F10001A703A4B00221A7056E00120FBF706FD8A
:104F2000304B1B78002B13D02F4B1B78002B0FD14D
:104F30002C4B1B781A4652001344DBB20133DBB210
:104F40001A4621212948FBF745FE274B01221A70FA
:104F5000244B00221A70264B01221A70254B002286
:104F60001A70254B00221A70244B00221A702BE075
:104F7000234804F0EBFA234804F0E8FA224804F04E
:104F8000E5FA21211948FBF709FE21211F48FBF70B
:104F900005FE154B00221A70124B00221A70144B9A
:104FA00001221A70134B00221A70134B00221A7040
:104FB000174B00221A8007E00120FBF7CBFC0020F2
:104FC000FBF7C8FC00E000BF054B00221A70114B34
:104FD00001221A70104B1B6800225A6200BF80BD6C
:104FE000C90B002069010020610100206C01002034
:104FF000000000208D01002062010020CA0B00206B
:105000002407002010050020D8060020E00B002017
:105010008A090020C80B00204006002080B584B01B
:1050200000AF264B264A92E803001860043319802B
:105030000023FB810023FB800023BB6013E01F4A99
:10504000BB6813441B789AB2BB6801331B49CB5C25
:105050009BB21B029BB213449AB2FB891344FB819F
:10506000BB680233BB60BB68032BE8DD134B1B79C5
:105070009AB2124B5B799BB21B029BB21344FB802A
:10508000FA88FB899A4213D00E4804F06DFFFCF7B2
:1050900025FE0D4B00221A7006220949094805F029
:1050A00029F80A4B1B680133084A1360002300E00B
:1050B000012318461037BD4680BD00BF480A0020B6
:1050C000400A0020F8070020C10B0020DC0B002064
:1050D00080B584B000AF78607B68D3F8843003F08B
:1050E0000803002B08D07B681B6808221A621B4B40
:1050F0001B685B6ADBB2FB737B68194A934229D158
:105100007B68D3F8843003F00803002B0ED07B6853
:105110001B6808221A62124B1B685B6ADBB2BB7306
:10512000062210490E4804F0E5FF13E07B681B6877
:10513000DB690D4A13607B68D3F884300B4A136037
:10514000074804F011FFFCF7C9FD06220549044891
:1051500004F0D0FF00BF1037BD4680BD70070020AF
:10516000F8070020400A0020A8090020AC09002010
:1051700080B400AF72B600BFFEE7000080B582B019
:1051800000AF0F4B1B6C0E4A43F0805313640C4B63
:105190001B6C03F080537B607B68094B5B6C084A97
:1051A00043F480435364064B5B6C03F480433B60E1
:1051B0003B68052000F0B0FF00BF0837BD4680BD4A
:1051C0000038024080B58CB000AF786007F11C0356
:1051D00000221A605A609A60DA601A617B681B6864
:1051E000984A934240F0A080974B1B6C964A43F438
:1051F00000431364944B1B6C03F40043BB61BB6915
:10520000914B1B6B904A43F0020313638E4B1B6B55
:1052100003F002037B617B698B4B1B6B8A4A43F073
:1052200004031363884B1B6B03F004033B613B696E
:105230000423FB6102233B6200237B620323BB62E6
:105240000723FB6207F11C031946804801F0CEFEDC
:105250004FF44063FB6102233B6200237B62032324
:10526000BB620623FB6207F11C031946784801F074
:10527000BDFE784B784A1A60764B00225A60754B17
:1052800000229A60734B0022DA60724B4FF4806206
:105290001A61704B00225A616E4B00229A616D4B6D
:1052A0000022DA616B4B00221A626A4B00225A62BA
:1052B000684800F081FF0346002B01D0FFF758FF3C
:1052C0007B68644A9A65634A7B689363634B644A6C
:1052D0001A60624B00225A60604B40229A605F4B1A
:1052E0000022DA605D4B4FF480621A615B4B002252
:1052F0005A615A4B00229A61584B0022DA61574B8F
:1053000000221A62554B00225A62544800F054FFA2
:105310000346002B01D0FFF72BFF7B684F4A5A65ED
:105320004E4A7B68936389E07B681B684D4A9342D1
:1053300040F08480444B5B6C434A43F40053536415
:10534000414B5B6C03F40053FB60FB683E4B1B6BF3
:105350003D4A43F0100313633B4B1B6B03F01003F8
:10536000BB60BB686423FB6102233B6200237B625A
:105370000323BB620523FB6207F11C0319463A486D
:1053800001F034FE394B3A4A1A60384B4FF0006254
:105390005A60364B00229A60344B0022DA60334B5D
:1053A0004FF480621A61314B00225A612F4B002268
:1053B0009A612E4B0022DA612C4B00221A622B4B91
:1053C00000225A62294800F0F7FE0346002B01D064
:1053D000FFF7CEFE7B68254A9A65244A7B68936373
:1053E000244B254A1A60234B4FF000625A60214B30
:1053F00040229A601F4B0022DA601E4B4FF48062FD
:105400001A611C4B00225A611A4B00229A61194BF7
:105410000022DA61174B00221A62164B00225A62F0
:10542000144800F0C9FE0346002B01D0FFF7A0FE90
:105430007B68104A5A650F4A7B68936300BF303718
:10544000BD4680BD003C00400038024000040240E0
:1054500000080240AC020020106002400C03002053
:105460008860024000340140001002406C030020BC
:1054700010640240CC0300202864024080B58EB046
:1054800000AF78607B681B68B3F1804F14D18A4B02
:105490001B6C894A43F001031364874B1B6C03F0B8
:1054A00001037B637B6B002202211C2000F03FFE86
:1054B0001C2000F058FEFAE07B681B687F4A93428C
:1054C00014D17D4B1B6C7C4A43F0020313647A4B6E
:1054D0001B6C03F002033B633B6B002202211D2087
:1054E00000F025FE1D2000F03EFEE0E07B681B681A
:1054F000734A934214D1704B1B6C6F4A43F0040300
:1055000013646D4B1B6C03F00403FB62FB6A002207
:1055100000211E2000F00BFE1E2000F024FEC6E03D
:105520007B681B68674A934214D1634B1B6C624AC9
:1055300043F008031364604B1B6C03F00803BB6269
:10554000BB6A00220121322000F0F1FD322000F080
:105550000AFEACE07B681B685B4A93420CD1564B59
:105560001B6C554A43F010031364534B1B6C03F040
:1055700010037B627B6A9AE07B681B68534A934204
:1055800014D14D4B1B6C4C4A43F0200313644A4B1F
:105590001B6C03F020033B623B6A00220221372090
:1055A00000F0C5FD372000F0DEFD80E07B681B6861
:1055B000474A934214D1404B5B6C3F4A43F400335B
:1055C00053643D4B5B6C03F40033FB61FB690322C6
:1055D0000321192000F0ABFD192000F0C4FD66E0A6
:1055E0007B681B683B4A934214D1334B5B6C324A55
:1055F00043F480235364304B5B6C03F48023BB6122
:10560000BB69032201211A2000F091FD1A2000F04D
:10561000AAFD4CE07B681B682F4A934214D1264BAD
:105620001B6C254A43F040031364234B1B6C03F0AF
:1056300040037B617B69032201212B2000F077FD71
:105640002B2000F090FD32E07B681B68234A9342D8
:1056500014D1194B1B6C184A43F080031364164B8A
:105660001B6C03F080033B613B69012201212C206C
:1056700000F05DFD2C2000F076FD18E07B681B68D3
:10568000174A934213D10C4B1B6C0B4A43F48073A3
:105690001364094B1B6C03F48073FB60FB680122ED
:1056A00001212D2000F043FD2D2000F05CFD00BF06
:1056B0003837BD4680BD00BF0038024000040040BE
:1056C00000080040000C00400010004000140040A2
:1056D000004401400048014000180040001C004008
:1056E0000020004080B5ACB000AF786007F19C03AB
:1056F00000221A605A609A60DA601A6107F11C038E
:1057000080220021184605F0C1FF7B681B687A4A99
:10571000934273D14023FB610023BB6507F11C0357
:10572000184602F0A9FC0346002B01D0FFF720FD2C
:10573000724B5B6C714A43F0100353646F4B5B6CAC
:1057400003F01003BB61BB696C4B1B6B6B4A43F0EE
:1057500001031363694B1B6B03F001037B617B69DE
:105760004FF4C063C7F89C300223C7F8A030002371
:10577000C7F8A4300323C7F8A8300723C7F8AC3014
:1057800007F19C0319465E4801F030FC5D4B5E4A10
:105790001A605C4B4FF000625A605A4B00229A60CC
:1057A000584B0022DA60574B4FF480621A61554B18
:1057B00000225A61534B00229A61524B0022DA6157
:1057C000504B4FF400321A624E4B00225A624D4841
:1057D00000F0F2FC0346002B01D0FFF7C9FC7B6808
:1057E000484A5A67474A7B68936300220121252073
:1057F00000F09DFC252000F0B6FC78E07B681B687B
:10580000424A934273D14FF48073FB6100233B669D
:1058100007F11C03184602F02FFC0346002B01D0B1
:10582000FFF7A6FC354B1B6C344A43F4802313640A
:10583000324B1B6C03F480233B613B692F4B1B6B8A
:105840002E4A43F0020313632C4B1B6B03F002033D
:10585000FB60FB684FF49843C7F89C300223C7F8FD
:10586000A0300023C7F8A4300323C7F8A8300723CB
:10587000C7F8AC3007F19C031946254801F0B6FB88
:10588000244B254A1A60234B4FF000625A60214B8B
:1058900000229A601F4B0022DA601E4B4FF4806298
:1058A0001A611C4B00225A611A4B00229A61194B53
:1058B0004FF48072DA61174B00221A62154B0022F6
:1058C0005A62144800F078FC0346002B01D0FFF721
:1058D0004FFC7B680F4A5A670E4A7B68936300222D
:1058E0000121272000F023FC272000F03CFC00BF12
:1058F000B037BD4680BD00BF0010014000380240F7
:10590000000002408008002040640240004800403F
:1059100000040240E00800202860024080B582B008
:1059200000AF78607B681B68194A934213D1194B0A
:105930005B6C184A23F0100353644FF4C06116489F
:1059400001F0F0FC7B685B6F184600F0E3FC25205B
:1059500000F017FC17E07B681B68104A934212D1D5
:105960000C4B1B6C0B4A23F4802313644FF49841B7
:105970000B4801F0D7FC7B685B6F184600F0CAFC4F
:10598000272000F0FEFB00BF0837BD4680BD00BFEA
:105990000010014000380240000002400048004072
:1059A0000004024080B400AFFEE780B400AFFEE721
:1059B00080B400AFFEE780B400AFFEE780B400AF74
:1059C000FEE780B400AF00BFBD465DF8047B7047C2
:1059D00080B400AF00BFBD465DF8047B704780B463
:1059E00000AF00BFBD465DF8047B704780B500AFD7
:1059F00000F05AFA00BF80BD80B500AF024800F049
:105A0000D9FD00BF80BD00BFAC02002080B500AF53
:105A1000024800F0CFFD00BF80BD00BFE0080020BD
:105A200080B500AF024800F0C5FD00BF80BD00BFDB
:105A30000C03002080B500AF034B01221A7003480D
:105A400003F054FE00BF80BDDD090020F4050020F6
:105A500080B500AFFFF718FA024803F047FE00BF19
:105A600080BD00BF4006002080B500AF2021064861
:105A700001F06DFD054B1B6800225A62034803F0DC
:105A800035FE00BF80BD00BF000002402C04002096
:105A900080B500AF0121064801F059FD054B1B6898
:105AA00000225A62034803F021FE00BF80BD00BF00
:105AB000000402407804002080B500AF034B0122AF
:105AC0001A70034803F012FE00BF80BDC60B002011
:105AD000C404002080B500AF024804F0E1FB00BF21
