:020000040800F2
:1000000000000420F1350008193300081F330008F0
:10001000253300082B3300083133000800000000AE
:10002000000000000000000000000000373300085E
:100030004533000800000000533300086133000816
:1000400041360008413600084136000841360008B4
:1000500041360008413600084136000841360008A4
:100060004136000841360008413600086D3300086B
:1000700081330008413600089533000841360008F6
:10008000A93300084136000841360008413600080F
:100090004136000841360008413600084136000864
:1000A00041360008BD3300084136000841360008DB
:1000B000D1330008E5330008413600084136000816
:1000C0004136000841360008413600084136000834
:1000D00041360008F9330008413600080D340008A5
:1000E0004136000841360008413600084136000814
:1000F0004136000841360008413600084136000804
:1001000041360008413600084136000841360008F3
:100110004136000841360008413600082134000805
:1001200035340008493400085D34000841360008C1
:100130004136000800000000000000000000000040
:100140000000000000000000000000004136000830
:100150004136000841360008713400084136000875
:100160004136000841360008413600084136000893
:100170004136000841360008000000000000000081
:100180004136000841360008413600084136000873
:1001900041360008413600080000000041360008E2
:1001A00000000000000000000000000041360008D0
:1001B0004136000841360008000000000000000041
:1001C000000000000000000000000000000000002F
:1001D00000000000000000000000000041360008A0
:1001E00010B5054C237833B9044B13B10448AFF371
:1001F00000800123237010BDB0000020000000002B
:10020000D897000808B5034B1BB103490348AFF367
:10021000008008BD00000000B4000020D89700084E
:1002200053B94AB9002908BF00281CBF4FF0FF315D
:100230004FF0FF3000F074B9ADF1080C6DE904CE59
:1002400000F006F8DDF804E0DDE9022304B07047B1
:100250002DE9F047089D04468E46002B4DD18A4279
:10026000944669D9B2FA82F252B101FA02F3C2F1AC
:10027000200120FA01F10CFA02FC41EA030E94403D
:100280004FEA1C48210CBEFBF8F61FFA8CF708FB5E
:1002900016E341EA034306FB07F199420AD91CEB36
:1002A000030306F1FF3080F01F81994240F21C8168
:1002B000023E63445B1AA4B2B3FBF8F008FB1033B0
:1002C00044EA034400FB07F7A7420AD91CEB0404E5
:1002D00000F1FF3380F00A81A74240F207816444B5
:1002E000023840EA0640E41B00261DB1D44000233A
:1002F000C5E900433146BDE8F0878B4209D9002D9E
:1003000000F0EF800026C5E9000130463146BDE827
:10031000F087B3FA83F6002E4AD18B4202D3824291
:1003200000F2F980841A61EB030301209E46002D40
:10033000E0D0C5E9004EDDE702B9FFDEB2FA82F295
:10034000002A40F09280A1EB0C014FEA1C471FFAF3
:100350008CFE0126200CB1FBF7F307FB131140EADA
:1003600001410EFB03F0884208D91CEB010103F1A7
:10037000FF3802D2884200F2CB804346091AA4B269
:10038000B1FBF7F007FB101144EA01440EFB00FE3D
:10039000A64508D91CEB040400F1FF3102D2A645A2
:1003A00000F2BB800846A4EB0E0440EA03409CE741
:1003B000C6F12007B34022FA07FC4CEA030C20FAEE
:1003C00007F401FA06F31C43F9404FEA1C4900FA0E
:1003D00006F3B1FBF9F8200C1FFA8CFE09FB18118B
:1003E00040EA014108FB0EF0884202FA06F20BD9FE
:1003F0001CEB010108F1FF3A80F08880884240F24E
:100400008580A8F102086144091AA4B2B1FBF9F091
:1004100009FB101144EA014100FB0EFE8E4508D98C
:100420001CEB010100F1FF346CD28E456AD9023811
:10043000614440EA0840A0FB0294A1EB0E01A142F6
:10044000C846A64656D353D05DB1B3EB080261EB64
:100450000E0101FA07F722FA06F3F1401F43C5E93E
:10046000007100263146BDE8F087C2F12003D84074
:100470000CFA02FC21FA03F3914001434FEA1C47B6
:100480001FFA8CFEB3FBF7F007FB10360B0C43EAA8
:10049000064300FB0EF69E4204FA02F408D91CEB58
:1004A000030300F1FF382FD29E422DD90238634456
:1004B0009B1B89B2B3FBF7F607FB163341EA0341F6
:1004C00006FB0EF38B4208D91CEB010106F1FF3845
:1004D00016D28B4214D9023E6144C91A46EA00463C
:1004E00038E72E46284605E70646E3E61846F8E6CE
:1004F0004B45A9D2B9EB020864EB0C0E0138A3E717
:100500004646EAE7204694E74046D1E7D0467BE7F7
:10051000023B614432E7304609E76444023842E76F
:10052000704700BF80B582B000AF03F08AF800F0DA
:1005300001F900F0E1FB00F07DFB00F049FB00F069
:100540000FFB00F0A3F900F063F900F0DDF900F013
:1005500029FA00F075FA00F0A9FA00F0DDFA5D481A
:1005600006F03EFC5C4806F02BFB4FF47A7003F07B
:10057000C5F8062259495A4807F05CF9052259493D
:10058000594805F019FD05225849594805F014FD50
:1005900001F0FEFD574B1A6802230221564801F074
:1005A00057FE554B1B68554A1360534B5B68544AC2
:1005B0001360544B01221A70534B1B78002B01D04F
:1005C00000F028FC514B1B78002B4BD001F038FF7A
:1005D0004F4B1B78012B0BD04D4B1B78022B07D0B8
:1005E0004B4B1B78032B03D0494B1B78042B36D184
:1005F000484B1B78002B32D00023FB7110E0FB79B5
:10060000454A12781146454AD25C454B5A54FB790B
:100610000133FB71404B1B780133DAB23E4B1A7049
:10062000FB79022BEBD93B4B00221A703D4B1B7818
:100630000133DAB23B4B1A703B4B1B8801339AB241
:10064000394B1A80374B1B780A2B08D1354B0022C7
:100650001A70314B01221A70344B01221A702B4B45
:1006600000221A70324B1B78002B2FD0284B1B789E
:10067000013B082B26D801A252F823F0B906000846
:10068000BF060008D1060008C5060008D10600080C
:10069000AD060008A7060008A1060008B30600087A
:1006A00001F03AFF15E001F081FF12E001F0D0FF08
:1006B0000FE001F07BFF0CE002F00CF809E002F023
:1006C0001DF906E01A4B00221A7075E700BF73E7A8
:1006D00000BF71E724030020BC030020D8070020DE
:1006E00028050020300700204001002038070020A6
:1006F000DC0000203800002094070020BC07002008
:10070000C007002002080020FE070020FD0700208F
:1007100003080020A307002005000020F8070020A0
:1007200064070020850700208607002005080020B8
:10073000FF07002080B594B000AF07F120033022FE
:100740000021184608F042FB07F10C0300221A6052
:100750005A609A60DA601A612B4B1B6C2A4A43F08C
:1007600080531364284B1B6C03F08053BB60BB6841
:10077000264B1B6823F44043244A43F48043136010
:10078000224B1B6803F440437B607B6801233B6280
:100790004FF480337B620223BB634FF48003FB631F
:1007A00008233B64D8237B640223BB640223FB64DD
:1007B00007F12003184604F03FFB0346002B01D04D
:1007C00002F0C4F904F0E8FA0346002B01D002F06D
:1007D000BDF90F23FB6002233B6100237B614FF4D3
:1007E0008053BB614FF48053FB6107F10C0303217D
:1007F000184604F0C5FD0346002B01D002F0A6F90F
:1008000000BF5037BD4680BD003802400070004038
:1008100080B500AF1B4B1C4A1A601A4B4FF4827212
:100820005A60184B00229A60164B4FF4E062DA606F
:10083000144B02221A61134B00225A61114B4FF4E0
:1008400000729A610F4B3822DA610E4B00221A6255
:100850000C4B00225A620B4B00229A62094B072272
:10086000DA62084B00221A63064B08225A630548D5
:1008700005F0F6FA0346002B01D002F067F900BF3D
:1008800080BD00BFDC000020003C004080B500AF10
:100890001B4B1C4A1A601A4B4FF482725A60184B59
:1008A00000229A60164B4FF4E062DA60144B022289
:1008B0001A61134B00225A61114B4FF400729A6176
:1008C0000F4B3822DA610E4B00221A620C4B0022C9
:1008D0005A620B4B00229A62094B0722DA62084BDC
:1008E00000221A63064B08225A63054805F0B8FA3D
:1008F0000346002B01D002F029F900BF80BD00BFE4
:10090000400100200034014080B588B000AF07F1FD
:10091000100300221A605A609A60DA603B1D0022C0
:100920001A605A609A601E4B4FF080421A601C4B4E
:100930006B225A601A4B00229A60194B43F67F6271
:10094000DA60174B00221A61154B00229A61144895
:1009500006F0DEF80346002B01D002F0F7F84FF462
:1009600080533B6107F1100319460D4806F070FBF8
:100970000346002B01D002F0E9F800237B6000233E
:10098000FB603B1D1946064806F094FD0346002B0C
:1009900001D002F0DBF800BF2037BD4680BD00BFAC
:1009A0002403002080B588B000AF07F110030022B7
:1009B0001A605A609A60DA603B1D00221A605A6021
:1009C0009A601D4B1D4A1A601B4B6B225A601A4BD2
:1009D00000229A60184B40F69F72DA60164B002294
:1009E0001A61154B00229A61134806F091F80346EC
:1009F000002B01D002F0AAF84FF480533B6107F1BD
:100A0000100319460C4806F023FB0346002B01D0C7
:100A100002F09CF800237B600023FB603B1D19461D
:100A2000054806F047FD0346002B01D002F08EF882
:100A300000BF2037BD4680BD700300200004004089
:100A400080B584B000AF3B1D00221A605A609A60E6
:100A5000144B154A1A60134B6B225A60114B00223B
:100A60009A60104B4FF6FF72DA600E4B00229A61CB
:100A70000C4806F04DF80346002B01D002F066F852
:100A800000237B600023FB603B1D1946054806F0F0
:100A900011FD0346002B01D002F058F800BF1037BB
:100AA000BD4680BDBC0300200010004080B584B06E
:100AB00000AF3B1D00221A605A609A60144B154A21
:100AC0001A60134B6B225A60114B00229A60104B34
:100AD0006322DA600E4B00229A610D4806F018F886
:100AE0000346002B01D002F031F800237B60002385
:100AF000FB603B1D1946064806F0DCFC0346002B54
:100B000001D002F023F800BF1037BD4680BD00BF02
:100B1000080400200014004080B500AF0E4B0F4ABF
:100B20001A600D4B42F62F225A600B4B00229A603E
:100B3000094B41F63F72DA60074B00221A61064BFF
:100B400000229A61044805F0E3FF0346002B01D020
:100B500001F0FCFF00BF80BD5404002000440140B0
:100B600080B500AF184B1B689A68174B1B6842F0A2
:100B700001029A60144B154A1A60134B4FF4164247
:100B80005A60114B00229A600F4B0022DA600E4B24
:100B900000221A610C4B0C225A610B4B00229A6105
:100BA000094B0022DA61084B00221A62064B002230
:100BB0005A62054806F02AFD0346002B01D001F0D9
:100BC000C5FF00BF80BD00BFA00400200010014091
:100BD00080B500AF154B164A1A60144B4FF41642FD
:100BE0005A60124B00229A60104B0022DA600F4BC1
:100BF00000221A610D4B0C225A610C4B00229A61A3
:100C00000A4B0022DA61094B00221A62074B0022CC
:100C10005A62002300220021044808F045F80346E8
:100C2000002B01D001F092FF00BF80BD28050020FD
:100C30000048004080B582B000AF2E4B1B6B2D4AA0
:100C400043F4001313632B4B1B6B03F400137B6003
:100C50007B68284B1B6B274A43F480031363254BA7
:100C60001B6B03F480033B603B68002200210B20D8
:100C700002F067FE0B2002F080FE002200210C2013
:100C800002F05FFE0C2002F078FE002200210E2010
:100C900002F057FE0E2002F070FE0022002110200C
:100CA00002F04FFE102002F068FE002200213820E2
:100CB00002F047FE382002F060FE002200213920B9
:100CC00002F03FFE392002F058FE002200213A20B7
:100CD00002F037FE3A2002F050FE002200214620AA
:100CE00002F02FFE462002F048FE00BF0837BD4646
:100CF00080BD00BF0038024080B58AB000AF07F168
:100D0000140300221A605A609A60DA601A613D4B3F
:100D10001B6B3C4A43F0100313633A4B1B6B03F00D
:100D200010033B613B69374B1B6B364A43F0800332
:100D30001363344B1B6B03F08003FB60FB68314B88
:100D40001B6B304A43F0010313632E4B1B6B03F004
:100D50000103BB60BB682B4B1B6B2A4A43F00403A7
:100D60001363284B1B6B03F004037B607B68254BEC
:100D70001B6B244A43F002031363224B1B6B03F0EB
:100D800002033B603B6800224FF407611E4803F0FA
:100D9000CFFF002220211D4803F0CAFF00220321BB
:100DA0001B4803F0C5FF4FF407637B610123BB6160
:100DB0000023FB6100233B6207F11403194612482C
:100DC00003F01EFD20237B610123BB610023FB6137
:100DD00000233B6207F1140319460C4803F010FD91
:100DE00003237B610123BB610023FB6100233B6282
:100DF00007F114031946064803F002FD00BF283727
:100E0000BD4680BD0038024000000240000802409C
:100E10000004024080B584B000AFA44B1B78013BB6
:100E20001F2B00F2FA8501A252F823F0AD0E000844
:100E3000030F0008291100081B1A00081B1A0008DC
:100E40001D1400081B1A000897140008A1150008BB
:100E5000AB150008CB150008D71500081B1A0008B1
:100E6000E915000833160008A516000881170008C8
:100E7000AD170008CD170008051800086118000814
:100E80001B1A00088B180008A5180008BD190008D7
:100E90001B1A00081B1A00081B1A00081B1A00085E
:100EA0001B1A00081B1A0008FB19000805228049BC
:100EB000804805F081F805227F49804805F07CF8DC
:100EC0007F4B1B7883F00103DBB2002B13D005228C
:100ED0007C497D4806F0AEFC01224FF400617B485E
:100EE00003F026FF642001F091FA00224FF4006124
:100EF000764803F01DFF0021012000F0F7FF00F00D
:100F00008CBD0121022000F0F1FF0023FB81704B1A
:100F100000221A706F4B00221A706F4B00221A8049
:100F20006E4B00221A80664B00221A706C4B002216
:100F30001A706C4B00221A706B4B5C4A92E80300EB
:100F4000186004331980684B5B78013B674A13448F
:100F50001B7AB43B002BB8BF5B427B80624B9B7813
:100F6000013B624A13441B7A9BB2B4339BB23B8071
:100F7000B7F90230042B0BDCB7F90230053B002B2C
:100F8000B8BF5B42FB81FB89C3F5B473FB8102E010
:100F90007B88053BFB81564B00221A70554B002283
:100FA0001A70554B00221A70FB895B04534A82FB6E
:100FB00003121A441212DB17D31A1A46504B1A6046
:100FC0004F4B1B68464A12781146184601F094F8B8
:100FD00003464B4A1360424B1B78494A126811463C
:100FE000184600F09DFDB7F902305B04434A82FBCE
:100FF00003121A441212DB17D31A1A46414B1A6015
:10100000404B1B68364A12781146184601F074F8B6
:1010100003463C4A13603C4B1B881A46394B1B68FD
:101020001344B3F5003F0AD9374B1B881A46354B9A
:101030001B681344A3F50033344A136007E0324BB6
:101040001B881A462F4B1B681344304A1360B7F9AC
:1010500000305B04294A82FB03121A441212DB1788
:10106000D31A1A462A4B1A60294B1B681C4A12785D
:101070001146184601F040F80346254A13601A4B02
:10108000DB78013B234A083332F813201E4B1A80C9
:10109000214B02221A70214B02221A70204805F0BF
:1010A00027FE204805F024FE00F0B7BCD80700203A
:1010B000300700204001002038070020DC0000201D
:1010C0009C070020E8070020A00400200000024048
:1010D000A1070020A2070020860700208807002023
:1010E0003E00002005080020E00700200800002046
:1010F0009E070020A00700209F070020B7600BB6C6
:10110000B8070020A8070020D407002010080020FE
:10111000B00700201800002003080020020800206B
:1011200008040020240300200121032000F0DEFE3B
:1011300000237B8000233B800023FB819B4B00220C
:101140001A809B4B00221A809A4B00221A709A4BED
:101150001B78002B14BF01230023DAB2974B1A70BF
:10116000974B00221A70974B974A92E80300186039
:1011700004331980934B5B78013B944A13441B7AE8
:10118000B43B002BB8BF5B427B808E4B9B78013B0E
:101190008E4A13441B7A9BB2B4339BB23B80B7F99F
:1011A0000230042B0BDCB7F90230053B002BB8BF33
:1011B0005B42FB81FB89C3F5B473FB8102E07B8852
:1011C000053BFB81824B00221A70824B00221A7071
:1011D000814B00221A70794B1B7883F00103DBB23C
:1011E000002B00F08A80FB895B047C4A82FB03129F
:1011F0001A441212DB17D31A1A46794B1A60784B2D
:101200001B686E4A12781146184600F075FF0346B7
:10121000734A1360694B1B78714A1268114618466D
:1012200000F07EFCB7F902305B046C4A82FB0312CB
:101230001A441212DB17D31A1A466A4B1A60694B0A
:101240001B685E4A12781146184600F055FF0346A7
:10125000644A1360644B1B881A46624B1B68134434
:10126000B3F5003F0AD9604B1B881A465D4B1B68DB
:101270001344A3F500335D4A136007E05A4B1B8803
:101280001A46584B1B681344584A1360B7F900308C
:101290005B04524A82FB03121A441212DB17D31A60
:1012A0001A46534B1A60524B1B68444A1278114637
:1012B000184600F021FF03464D4A13604C4B1A6854
:1012C000484B1B689A4202D24A4B01221A703D4B8E
:1012D000DB78013B484A083332F81320424B1A802E
:1012E000464B01221A70464B02221A70454805F0FF
:1012F000FFFC454805F0FCFC8CE3304B1B78002BD1
:1013000000F088832F4B5B78013B304A13441B7AF3
:101310001A463E4B1A602B4B5B78013B2B4A134419
:101320001B7A5B042D4A82FB03121A441212DB174C
:10133000D31A1A46354B1A60344B1B681F4A127871
:101340001146184600F0D8FE0346304A13601D4B84
:101350009B78013B1D4A13441B7A1A462C4B1A609A
:10136000184B9B78013B194A13441B7A5B041B4AB8
:1013700082FB03121A441212DB17D31A1A46244BAB
:101380001A60234B1B680D4A12781146184600F06C
:10139000B3FE03461E4A13601E4BB7221A8019483B
:1013A00005F0A6FC1C4805F0A3FC33E386070020EB
:1013B000880700209C070020060800203E0000202F
:1013C00005080020E0070020D807002008000020C2
:1013D0009E070020A00700209F070020B7600BB6E3
:1013E000B8070020A8070020D4070020100800201C
:1013F000B0070020A60700201800002003080020E6
:10140000020800200804002024030020AC0700206C
:10141000B4070020D6070020700300200121062019
:1014200000F064FD894B06221A70894B01221A7064
:10143000884B1B881A46884B1B781946104600F0CB
:101440005BFE0346854A1360844B1B68844A136025
:10145000834B1B6803F59673B3F5003F06D9804BA9
:101460001A68804B13447E4A136005E07C4B1B686E
:1014700003F596737A4A13607B4B00221A700022A0
:1014800010217A4803F054FC794805F031FC794882
:1014900005F02EFCC1E20121082000F027FD764B6B
:1014A000DB78002B36D0754B00221A806A4B012264
:1014B0001A70714B9B789BB21B029AB26F4B1A80C9
:1014C0006D4B5B789AB26D4B1B8813439AB26B4B92
:1014D0001A806A4B1B885B04694A82FB03121A4418
:1014E0001212DB17D31A1A46664B1A60654B1B683B
:1014F000594A12781146184600F0FEFD0346614A2B
:101500001360554B1B785F4A12681146184600F06D
:1015100007FB3EE04F4B00221A804F4B00221A700F
:10152000594B00221A60544B9B789BB21B029AB213
:10153000484B1A80504B5B789AB2464B1B8813433A
:101540009AB2444B1A80434B1B885B044C4A82FB83
:1015500003121A441212DB17D31A1A464A4B1A60A6
:10156000494B1B683C4A12781146184600F0C4FDEE
:101570000346454A1360384B1B78434A12681146AC
:10158000184600F0CDFA3A4805F0B2FB394805F0AC
:10159000AFFB2E4B07221A703C4B01221A703CE223
:1015A0000121092000F0A2FC37E201210A2000F00D
:1015B0009DFC314BDB78002B03D0354B01221A7098
:1015C0002BE2334B00221A7027E200F049FD314B29
:1015D00000221A7021E200F07BFF1D4B01221A70DD
:1015E0002D4B00221A7018E2234B9B78002B0DD054
:1015F0002A4B00221A70012210211C4803F098FB8C
:1016000001222021264803F093FB0CE0234B01220A
:101610001A7000221021154803F08AFB00222021B5
:101620001F4803F085FB144B5B78184600F00CFA5A
:10163000F3E1094B1B78002B40F0EE810C4805F0DC
:1016400057FB0C4805F054FBE6E100BF03080020FF
:10165000020800203C0000203E000020C4070020BB
:10166000CC0700202C01FEFFA7070020000002404D
:101670000804002024030020D8070020A40700202D
:10168000B7600BB6AC070020A807002004080020B4
:1016900006080020050800209D0700200008002003
:1016A000000802400121102000F020FCA64B082277
:1016B0001A70A64B00221A60A54B9B781B021A4693
:1016C000A24B1A60A24B5B781A46A04B1B681343CF
:1016D0009E4A13609F4B1B78002B29D09E4B002203
:1016E0001A609B4BDB78002B13D1984B1B685B0473
:1016F000DB089A4AA2FB03239B087B60964B1B687E
:10170000944A12781146184600F0F6FC0346924AB5
:101710001360904B1B78904A12681146184600F0EF
:10172000FFF98F4805F0E4FA8E4805F0E1FA74E11C
:101730008D4B00221A60864BDB78002B11D1834B36
:101740001B685B04DB08854AA2FB03239B087B60C4
:10175000804B1B781946786800F0CEFC0346824A1D
:1017600013607C4B1B78804A12681146184600F0C3
:10177000D7F97B4805F0BCFA7C4805F0B9FA4CE192
:101780000121112000F0B2FB724B1B78002B06D018
:10179000744805F025FB724805F022FB3DE17348D3
:1017A00005F01EFB6E4805F01BFB36E101211220FF
:1017B00000F09CFB664B5B78002B03D0654B01224D
:1017C0001A702AE1634B00221A7026E101211320CE
:1017D00000F08CFB664B1B68664A1360664B1B6807
:1017E000664A1360634B1B68654A1360634B1B6852
:1017F000634A5360634B1A6802230221604800F079
:10180000DDFC0AE10121142000F070FB5E4B012297
:101810001A704F4B5B78184600F08AFD03461A4653
:101820005A4B1A704A4B9B78012B06D1574B1B78A9
:1018300063F07703DAB2554B1A70544B1A78534B56
:101840005A70534806F03AF8642301224F49504831
:1018500005F067FF05224F494D4805F0EBFFDCE03E
:1018600005224D494A4805F0E5FF01224FF4006189
:101870004A4803F05DFA012001F040FF00224FF4D6
:101880000061464803F054FAC7E03E4B1A68022351
:1018900002213B4800F0DCFC3D4805F005FFFFF766
:1018A0005FF9BAE02B4B1B7883F00103DBB2002B0E
:1018B00024D001221021394803F03AFA384B002293
:1018C0001A7001222021354803F032FA642001F019
:1018D00015FF00222021314803F02AFA0522314960
:1018E000314804F069FB0021012000F0FFFA2C4B85
:1018F0001B780133DAB22A4B1A70E2E70122202169
:101900002A4803F015FA264B00221A700122012101
:10191000274803F00DFA642001F0F0FE00220121B7
:10192000234803F005FA05222249234804F044FB2A
:101930000021012000F0DAFA194B1B780133DAB2EA
:10194000174B1A70E2E700BF03080020D007002001
:10195000D80700203E000020C8070020176CC116E1
:101960000804002070030020C40700202403002086
:1019700008080020BC0700200C080020C007002039
:1019800094070020380000209C0700208C070020CE
:10199000A004002000000020E80700200000024012
:1019A000910700203007002040010020000802407D
:1019B0000004024038070020DC0000201A4B1B788E
:1019C00083F00103DBB2002B0BD005221749184826
:1019D00004F0F2FA642305221449164805F0A1FE2A
:1019E0001BE005221449154804F0E6FA6423052299
:1019F0001149104805F095FE0FE00023BB6002E09E
:101A0000BB680133BB60BB68812BF9DD0C4807F074
:101A100053FA02E000BF00E000BF0A4B00221A7038
:101A200000BF1037BD4680BD3E00002030070020BB
:101A3000400100202805002038070020DC0000209D
:101A4000F0970008FE07002080B584B000AF034681
:101A5000FB712A4B1B7883F00103DBB2002B29D0EA
:101A60000023FB6021E001222021254803F060F9DA
:101A7000022001F043FE00222021214803F058F902
:101A8000022001F03BFE20211D4803F06AF90522E7
:101A90001C491D4804F090FA6423052219491B488B
:101AA00005F03FFEFB680133FB60FB79FA689A4260
:101AB000D9DB1BE00023BB6014E00121144803F0D4
:101AC00050F9042001F01AFE05221249124804F0D0
:101AD00073FA642305220F490C4805F022FEBB6807
:101AE0000133BB60FB79BA689A42E6DB0B4B0022FC
:101AF0001A7000BF1037BD4680BD00BF3E000020F9
:101B0000000002403007002040010020280500208E
:101B10000004024038070020DC000020900700206D
:101B200080B582B000AF03463960FB71FB7983F06A
:101B30000103DBB2002B40D0424B1B683A689A424B
:101B40001DD2404B1A683B68D21A3E4B1B6839685D
:101B5000CB1A03F500339A4208D9012210213A48E2
:101B600003F0E6F8394B00221A7066E000221021DB
:101B7000354803F0DDF8354B01221A705DE0314B3A
:101B80001A683B68D31A03F500322E4B1B6839687C
:101B9000CB1A9A4208D2002210212B4803F0C8F831
:101BA0002A4B01221A7048E001221021264803F036
:101BB000BFF8264B00221A703FE0254B1B683A689D
:101BC0009A421DD2224B1A683B68D21A204B1B68DE
:101BD0003968CB1A03F500339A4208D90122202133
:101BE0001C4803F0A5F81C4B00221A7025E00022C7
:101BF0002021184803F09CF8174B01221A701CE0B2
:101C0000134B1A683B68D31A03F50032104B1B685C
:101C10003968CB1A9A4208D2002220210D4803F0DD
:101C200087F80D4B01221A7007E001222021094894
:101C300003F07EF8084B00221A7000BF0837BD463B
:101C400080BD00BF080800200000024000080020FE
:101C50000C080020000802400108002080B582B076
:101C600000AF7860391D4FF6FF730122034805F07D
:101C700058FD7B6818460837BD4680BD2805002002
:101C800080B485B000AF78607B681B68224A9342BD
:101C900002D1224B01221A707B681B68204A9342B2
:101CA00034D1204B1B78002B2DD00023FB601E4B22
:101CB0001B781A461C4B5B7813441B4A92781344DA
:101CC000FB60FB68DBB2FB60174BDB781A46FB68F6
:101CD000934203D1144B1B79A52B03D0134B002245
:101CE0001A700DE0104B1A78114B1B781B09DBB2F0
:101CF0009A4205D00D4B00221A700E4B01221A7029
:101D0000084B00221A700C4B01221A7000BF1437C6
:101D1000BD465DF8047B704700480040FE07002088
:101D2000001001409C070020000000200208002055
:101D30008C0700209D070020FD07002080B582B0A1
:101D400000AF78607B681B682B4A93421CD12B4BF9
:101D50009B785B09DBB203F00703294A1360274B2A
:101D60005B78DA00264B1B681343254A1360234B2C
:101D70001B78DB0203F4FC32214B1B681343204A1F
:101D80001360204B01221A707B681B681E4A934225
:101D90002DD11E4B9B785B09DBB203F007031C4A75
:101DA00013601A4B5B78DA00194B1B681343184A0F
:101DB0001360164B1B78DB0203F4FC32144B1B68D8
:101DC0001343134A1360134B1B685A1E104B1B68B6
:101DD0009A420CD80F4B1B685A1C0D4B1B689A4239
:101DE00005D30D4804F0FCFF0C4804F0F9FF00BFD8
:101DF0000837BD4680BD00BF0034014030070020D9
:101E000008080020FF070020003C004038070020A1
:101E10000C080020AC0700207003002008040020FC
:101E200080B582B000AF78607B681B68B3F1804FEB
:101E300007D120211F4802F094FF1F4B1B6800228E
:101E40005A627B681B681D4A934207D101211C48D6
:101E500002F087FF1B4B1B6800225A627B681B68DD
:101E6000194A934215D1194B1B7883F00103DBB259
:101E7000002B05D005221649164804F09DF804E011
:101E800005221549154804F097F8154B1B680022E8
:101E90005A627B681B68134A934206D1124804F0C9
:101EA000FFFE114B1B6800225A6200BF0837BD4677
:101EB00080BD00BF00000240240300200004004059
:101EC0000004024070030020001400403E00002087
:101ED000300700204001002038070020DC000020EF
:101EE00008040020004401405404002080B584B060
:101EF00000AF03460A46FB711346BB714C4B0022F0
:101F00001A80FB79012B77D14A4B01221A704A4B78
:101F10001A78484B5A70494B1A78464B9A70484B7E
:101F20001B781A46434BDA70464B1A78414B1A71AC
:101F3000454B1A783F4B5A71444B1A783D4B9A7176
:101F4000424B5A783B4BDA71404B9A78394B1A72B4
:101F50003F4B1B68DAB2374B5A723D4B1B681B0A6A
:101F6000DAB2344B9A723A4B1B681B0CDAB2314B23
:101F7000DA72384B1B68DAB22E4BDA73354B1B68BA
:101F80001B0ADAB22B4B1A74324B1B681B0CDAB2E9
:101F9000284B5A74274B0022DA77264B002283F80D
:101FA00020200023FB6016E0224AFB6813441B78C4
:101FB0009AB2FB6801331F49CB5C9BB21B029BB2F8
:101FC00013449AB21A4B1B8813449AB2184B1A80C6
:101FD000FB680233FB60FB681D2BE5DD154B9B7F27
:101FE0009AB2134B1B8813449AB2114B1A801A4BA6
:101FF0000F4A12881A8010E021210E4800F05EF985
:102000000C4AFB7913700B4ABB795370094AFB7970
:10201000D377084ABB7982F820306423212205490E
:102020000E4805F07EFB00BF1037BD4680BD00BFE7
:102030008E0700204007002002080020030800202F
:10204000040800200508002007080020F0070020F1
:10205000080800200C0800205F0700202805002049
:1020600080B582B000AF0023FB801F4B0B221A709B
:102070001D4B0022DA771C4B002283F8202000231E
:102080003B6013E0184A3B6813441B789AB23B68E4
:1020900001331549CB5C9BB21B029BB213449AB22D
:1020A000FB881344FB803B6802333B603B681D2B7D
:1020B000E8DD0D4B9B7F9AB2FB881344FB800B4AF3
:1020C000FB8813800A4805F0F9FB642321220649A6
:1020D000074805F026FB06220649054805F0AAFB3D
:1020E00000BF0837BD4680BD64070020830700207D
:1020F00028050020D807002080B485B000AF7860A4
:102100000B46FB700023FB60FB78002B14D01E4BAA
:102110001A687B681344B3F5003F07D91A4B1A6855
:102120007B681344A3F50033FB6019E0164B1B6872
:102130007A681344FB6013E0144B1A687B681344FD
:10214000B3F5003F07D9114B1A687B681344A3F518
:102150000033FB6004E00D4B1B687A681344FB609E
:10216000FB68002B01D15A23FB60FB68B3F5003FED
:1021700002D1FB685A3BFB60FB6818461437BD462A
:102180005DF8047B704700BFC0070020BC0700203B
:1021900080B400AF084B00221A60074B0222DA60BD
:1021A000054B03225A60044B01229A6000BFBD46D2
:1021B0005DF8047B704700BFCC000020B0B586B04E
:1021C00000AFF8607A603B600B46FB7202F0CCF81F
:1021D0001D491E4802F038FA0346002B2ED1002379
:1021E000FB753B68022B02D10423FB7504E03B68BE
:1021F000012B01D10223FB750023BB7517E0BB7DCA
:102200009B00FA6813441B6800221C4615462246B0
:102210002B467968386802F04DF80346002B0FD141
:10222000FB7D7A6813447B60BB7D0133BB75BA7D4F
:10223000FB7A9A42E3D302F0B9F802E000BF00E073
:1022400000BF1837BD46B0BD14080020CC000020E8
:1022500080B487B000AFF8607A603B600B46FB72D9
:102260000023FB7500233B613B68022B02D1042352
:10227000FB7504E03B68012B01D10223FB750023B1
:10228000BB820FE07B681B683B61BB8A9B00FA68DE
:1022900013443A691A60FB7D7A6813447B60BB8AF9
:1022A0000133BB82FB7A9BB2BA8A9A42EAD300BF5F
:1022B00000BF1C37BD465DF8047B704780B485B015
:1022C00000AF78600B46FB700023FB7307E0FB7BDD
:1022D0007A68134400221A70FB7B0133FB73FA7B8C
:1022E000FB789A42F3D300BF00BF1437BD465DF8B8
:1022F000047B704780B485B000AF78600B46FB70FC
:102300001346BB70BB78FB7307E0FB7B7A68134412
:1023100000221A70FB7B0133FB73FA7BFB789A4235
:10232000F3D300BF00BF1437BD465DF8047B704790
:1023300080B483B000AF0346FB71FB79802B5CD087
:10234000802B5CDC202B47DC002B58DD013B1F2B56
:1023500055D801A252F823F0DF230008E323000838
:10236000FF230008E7230008FF230008FF230008DD
:10237000FF230008EB230008FF230008FF230008C9
:10238000FF230008FF230008FF230008FF230008A5
:10239000FF230008EF230008FF230008FF230008A5
:1023A000FF230008FF230008FF230008FF23000885
:1023B000FF230008FF230008FF230008FF23000875
:1023C000FF230008FF230008FF230008FF23000865
:1023D000FF230008F3230008402B0CD00FE000235C
:1023E0000EE011230CE022230AE0332308E044230B
:1023F00006E0552304E0662302E0772300E0012392
:1024000018460C37BD465DF8047B704780B483B036
:1024100000AF0346FB80094B1B6800225A6200BFD5
:10242000064B1B685A6AFB889A42F9D300BF00BF6B
:102430000C37BD465DF8047B704700BFBC0300202D
:1024400080B483B000AF00237B601D4B1B781A461D
:102450001B4B5B7813441A4A927813447B607B6869
:10246000DBB27B60164BDB781A467B68934220D147
:10247000134B1B79A52B1CD1124B1B78002B0CD0B6
:102480000F4B1A78104B1A700D4B5A780E4B5A702E
:102490000B4B9A780C4B9A700BE0094B1A780B4B4C
:1024A0001A70074B5A78094B5A70054B9A78074BAC
:1024B0009A7000BF0C37BD465DF8047B704700BFC3
:1024C000E8070020A3070020F8070020F0070020FD
:1024D00080B500AF21210D48FFF7F0FE0B4B0C2219
:1024E0001A700B4B1A78094B5A70084B0C22DA778A
:1024F000074B1A78054B83F82020642321220349D7
:10250000044805F00EF900BF80BD00BF4007002061
:102510009D0700202805002080B500AF1A4B1B78CE
:10252000002B17D0194B1B681A1F194B1B689A42B6
:1025300027D8164B1B681A1D164B1B689A4220D3CE
:10254000154804F04DFC154804F04AFC144B0022D9
:102550001A7016E0134B1B681A1F0E4B1B689A4229
:102560000FD8104B1B681A1D0A4B1B689A4208D3E0
:102570000D4804F035FC094804F032FC084B0022F9
:102580001A7000BF80BD00BF3E000020C8070020B9
:102590000C08002008080020700300200804002018
:1025A00003080020C40700202403002080B500AFEA
:1025B0001D4B1B78002B1AD01C4B1B681A1F1C4B81
:1025C0001B689A422DD8194B1B681A1D184B1B68A3
:1025D0009A4226D3174804F003FC174804F000FC85
:1025E000164B00221A70164B00221A7019E0154B78
:1025F0001B681A1F144B1B689A4212D8114B1B6898
:102600001A1D114B1B689A420BD3104804F0E8FBCB
:10261000094804F0E5FB094B00221A70084B002220
:102620001A7000BF80BD00BF3E000020AC07002034
:102630000C0800207003002008040020030800207C
:1026400004080020A8070020080800202403002018
:1026500080B500AF184B1B7883F00103DBB2002B71
:1026600011D0164B1B681A1F154B1B689A4221D8B4
:10267000124B1B681A1D124B1B689A421AD30E4B41
:1026800001221A7016E00F4B1B681A1F0C4B1B68B7
:102690009A420FD80B4B1B681A1D094B1B689A42B4
:1026A00008D3094804F09CFB084804F099FB084B48
:1026B00000221A7000BF80BDA7070020CC070020B1
:1026C00008080020C407002024030020080400207C
:1026D0000308002080B500AF6F4B1B7883F0010327
:1026E000DBB2002B21D06D4B01221A706C4B1B68A2
:1026F0005A1F6C4B1B689A4217D8694B1B685A1DAE
:10270000684B1B689A4210D3674804F069FB674B1B
:102710001B78674A126811461846FFF701FA5E4BAC
:1027200001221A70604804F0E3FA5B4B1B78002B1F
:1027300000F0B0805F4B1B7883F00103DBB2002B0D
:102740002AD0564B00221A70594B1B685A1F554B02
:102750001B689A4220D8564B1B685A1D514B1B6868
:102760009A4219D3534B01221A70052252495348F9
:1027700005F060F801224FF40061514802F0D8FAE8
:10278000504B01221A700220FFF740FE00224FF446
:1027900000614B4802F0CCFA464B1B78002B79D0F5
:1027A000494B1B7883F00103DBB2002B72D0474BFF
:1027B0001B68A3F108023B4B1B689A4237D8434B76
:1027C0001B6803F10802374B1B689A422FD3404B1A
:1027D0001B78002B0FD03E4B1B781A465200134437
:1027E000DBB20133DBB21A4621213A48FFF782FD02
:1027F000394B01221A70364B00221A70374B0122D6
:102800001A70374B00221A70364B00221A70364B62
:1028100001221A702C4B01221A702A4B00221A70C6
:10282000214804F0DDFA314804F0DAFA32E0304BA6
:102830001B681A1F1B4B1B689A422BD82C4B1B681A
:102840001A1D184B1B689A4224D32A4B1B881A4620
:10285000274B1B681344264A136005221649174864
:1028600004F0E8FF01224FF40061154802F060FA1D
:10287000144B01221A700220FFF7C8FD00224FF40A
:1028800000610F4802F054FA1B4B1B8801339AB2C7
:10289000194B1A8000BF80BDA0070020040800204B
:1028A000B807002008080020240300203E00002074
:1028B000A80700209E070020E8070020A0040020B1
:1028C00000000240A30700209F070020B00700205F
:1028D000850700206407002005080020050000206F
:1028E000030800209C0700200208002008040020A4
:1028F00010080020D40700208807002080B500AF12
:102900006C4B1B7883F00103DBB2002B21D06A4BA8
:1029100001221A70694B1B685A1F694B1B689A4247
:1029200017D8664B1B685A1D654B1B689A4210D31B
:10293000644804F055FA644B1B78644A12681146E7
:102940001846FFF7EDF85B4B01221A705D4804F062
:10295000CFF9584B1B78002B00F0AA805C4B1B78FA
:1029600083F00103DBB2002B2AD0534B00221A70F4
:10297000564B1B685A1F524B1B689A4220D8534B28
:102980001B685A1D4E4B1B689A4219D3504B0122AB
:102990001A7005224F49504804F04CFF01224FF4B1
:1029A00000614E4802F0C4F94D4B01221A7002201A
:1029B000FFF72CFD00224FF40061484802F0B8F9FF
:1029C000434B1B78002B73D0464B1B7883F00103DD
:1029D000DBB2002B6CD0444B1B68A3F10802384BD0
:1029E0001B689A4231D8404B1B6803F10802344BF4
:1029F0001B689A4229D33D4B1B78002B0FD03B4BD1
:102A00001B781A4652001344DBB20133DBB21A467C
:102A100021213748FFF76EFC364B01221A70334BE9
:102A200000221A70344B01221A70344B00221A70A3
:102A30002B4B00221A70234804F0D2F9304804F0DE
:102A4000CFF9304B01221A7032E02F4B1B681A1F4E
:102A50001B4B1B689A422BD82B4B1B681A1D184B1B
:102A60001B689A4224D3294B1B881A46264B1B68A5
:102A70001344254A136005221649174804F0DAFE6C
:102A800001224FF40061154802F052F9144B012263
:102A90001A700220FFF7BAFC00224FF400610F48C1
:102AA00002F046F91A4B1B8801339AB2184B1A8070
:102AB00000BF80BDA007002004080020B807002048
:102AC00008080020240300203E000020A807002062
:102AD0009E070020E8070020A0040020000002401C
:102AE000A30700209F070020B007002085070020D3
:102AF0006407002005080020050000209C07002036
:102B000008040020A107002010080020D40700209E
:102B10008807002080B485B000AF78607B68D3F868
:102B2000843003F00803002B08D07B681B68082260
:102B30001A62054B1B685B6ADBB2FB7300BF14377C
:102B4000BD465DF8047B7047A004002080B400AF50
:102B500072B600BFFEE7000080B483B000AF0F4B39
:102B60001B6C0E4A43F0805313640C4B1B6C03F038
:102B700080537B607B68094B5B6C084A43F480435D
:102B80005364064B5B6C03F480433B603B6800BFBF
:102B90000C37BD465DF8047B704700BF003802402B
:102BA00080B58CB000AF786007F11C0300221A607A
:102BB0005A609A60DA601A617B681B68984A93428F
:102BC00040F0A080974B1B6C964A43F4004313647B
:102BD000944B1B6C03F40043BB61BB69914B1B6BB3
:102BE000904A43F0020313638E4B1B6B03F0020306
:102BF0007B617B698B4B1B6B8A4A43F00403136335
:102C0000884B1B6B03F004033B613B690423FB61AE
:102C100002233B6200237B620323BB620723FB6228
:102C200007F11C031946804801F0EAFD4FF44063A8
:102C3000FB6102233B6200237B620323BB6206230A
:102C4000FB6207F11C031946784801F0D9FD784B67
:102C5000784A1A60764B00225A60754B00229A60BF
:102C6000734B0022DA60724B4FF480621A61704B32
:102C700000225A616E4B00229A616D4B0022DA618C
:102C80006B4B00221A626A4B00225A62684800F0BD
:102C90009DFE0346002B01D0FFF758FF7B68644A76
:102CA0009A65634A7B689363634B644A1A60624B1C
:102CB00000225A60604B40229A605F4B0022DA602B
:102CC0005D4B4FF480621A615B4B00225A615A4B94
:102CD00000229A61584B0022DA61574B00221A6297
:102CE000554B00225A62544800F070FE0346002BF8
:102CF00001D0FFF72BFF7B684F4A5A654E4A7B682D
:102D0000936389E07B681B684D4A934240F084805E
:102D1000444B5B6C434A43F400535364414B5B6C3C
:102D200003F40053FB60FB683E4B1B6B3D4A43F0D2
:102D3000100313633B4B1B6B03F01003BB60BB68BA
:102D40006423FB6102233B6200237B620323BB629B
:102D50000523FB6207F11C0319463A4801F050FDB8
:102D6000394B3A4A1A60384B4FF000625A60364B82
:102D700000229A60344B0022DA60334B4FF48062B9
:102D80001A61314B00225A612F4B00229A612E4B5F
:102D90000022DA612C4B00221A622B4B00225A626D
:102DA000294800F013FE0346002B01D0FFF7CEFEAA
:102DB0007B68254A9A65244A7B689363244B254A9D
:102DC0001A60234B4FF000625A60214B40229A60F8
:102DD0001F4B0022DA601E4B4FF480621A611C4BBD
:102DE00000225A611A4B00229A61194B0022DA61C3
:102DF000174B00221A62164B00225A62144800F048
:102E0000E5FD0346002B01D0FFF7A0FE7B68104ACA
:102E10005A650F4A7B68936300BF3037BD4680BD5B
:102E2000003C00400038024000040240000802401C
:102E3000A4010020106002400402002088600240CB
:102E4000003401400010024064020020106402407F
:102E5000C40200202864024080B588B000AF7860CA
:102E60007B681B68B3F1804F14D13C4B1B6C3B4A11
:102E700043F001031364394B1B6C03F00103FB6146
:102E8000FB69002200211C2000F05BFD1C2000F0EB
:102E900074FD5EE07B681B68314A934214D12F4B6E
:102EA0001B6C2E4A43F0020313642C4B1B6C03F083
:102EB0000203BB61BB69002200211D2000F041FD1F
:102EC0001D2000F05AFD44E07B681B68254A9342B0
:102ED0000CD1224B1B6C214A43F0100313641F4B8F
:102EE0001B6C03F010037B617B6932E07B681B681D
:102EF0001D4A934214D1194B1B6C184A43F020030E
:102F00001364164B1B6C03F020033B613B690022EA
:102F10000021372000F015FD372000F02EFD18E0CD
:102F20007B681B68114A934213D10C4B5B6C0B4AB4
:102F300043F400335364094B5B6C03F40033FB60D0
:102F4000FB6800220021192000F0FBFC192000F092
:102F500014FD00BF2037BD4680BD00BF00380240D1
:102F600000040040001000400014004000440140F4
:102F700080B5ACB000AF786007F19C0300221A6006
:102F80005A609A60DA601A6107F11C0380220021FE
:102F9000184605F01BFF7B681B68534A934240F0BC
:102FA000B1804023FB610023BB6507F11C03184679
:102FB00002F00CFC0346002B01D0FFF7C7FD4B4B82
:102FC0005B6C4A4A43F010035364484B5B6C03F05C
:102FD0001003BB61BB69454B1B6B444A43F00103C3
:102FE0001363424B1B6B03F001037B617B694FF45E
:102FF000C063C7F89C300223C7F8A0300023C7F88D
:10300000A4300323C7F8A8300723C7F8AC3007F172
:103010009C031946364801F0F3FB364B364A1A60DA
:10302000344B4FF000625A60324B00229A60314BB1
:103030000022DA602F4B4FF480621A612D4B002280
:103040005A612C4B00229A612A4B0022DA61294BEB
:103050004FF400321A62274B00225A62254800F0D2
:10306000B5FC0346002B01D0FFF770FD7B68214AB9
:103070005A67204A7B689363204B214A1A601F4B92
:103080004FF000625A601D4B40229A601B4B002299
:10309000DA601A4B4FF480621A61184B00225A61B1
:1030A000164B00229A61154B0022DA61134B4FF444
:1030B00080321A62114B00225A62104800F086FCDE
:1030C0000346002B01D0FFF741FD7B680B4A1A67CE
:1030D0000A4A7B68936300220021252000F031FC1E
:1030E000252000F04AFCB6E0001001400038024004
:1030F00000000240B005002040640240100600209D
:10310000B86402407B681B68554A934240F0A38034
:103110004FF48073FB6100233B6607F11C031846E4
:1031200002F054FB0346002B01D0FFF70FFD4D4B7F
:103130001B6C4C4A43F4802313644A4B1B6C03F40E
:1031400080233B613B69474B1B6B464A43F00203BC
:103150001363444B1B6B03F00203FB60FB684FF4EB
:103160009843C7F89C300223C7F8A0300023C7F863
:10317000A4300323C7F8A8300723C7F8AC3007F101
:103180009C031946384801F03BFB384B384A1A601B
:10319000364B4FF000625A60344B00229A60334B3A
:1031A0000022DA60314B4FF480621A612F4B00220B
:1031B0005A612E4B00229A612C4B4FF48072DA61D7
:1031C0002A4B00221A62294B00225A62274800F03B
:1031D000FDFB0346002B01D0FFF7B8FC7B68234AB8
:1031E0005A67224A7B689363224B234A1A60214B19
:1031F0004FF000625A601F4B40229A601D4B002224
:10320000DA601C4B4FF480621A611A4B00225A613B
:10321000184B00229A61174B4FF48072DA61154BFC
:1032200000221A62134B00225A62124800F0CEFBB1
:103230000346002B01D0FFF789FC7B680D4A1A6713
:103240000C4A7B68936300220021272000F079FB61
:10325000272000F092FB00BFB037BD4680BD00BF05
:103260000048004000380240000402407006002080
:1032700028600240D00600205860024080B582B02D
:1032800000AF78607B681B681E4A934218D11E4BC2
:103290005B6C1D4A23F0100353644FF4C0611B485C
:1032A00001F04AFC7B685B6F184600F03DFC7B68D0
:1032B0001B6F184600F038FC252000F06CFB1CE06A
:1032C0007B681B68124A934217D10F4B1B6C0E4A46
:1032D00023F4802313644FF498410E4801F02CFC32
:1032E0007B685B6F184600F01FFC7B681B6F1846FD
:1032F00000F01AFC272000F04EFB00BF0837BD4647
:1033000080BD00BF001001400038024000000240B4
:10331000004800400004024080B400AFFEE780B4E3
:1033200000AFFEE780B400AFFEE780B400AFFEE779
:1033300080B400AFFEE780B400AF00BFBD465DF8CB
:10334000047B704780B400AF00BFBD465DF8047BCE
:10335000704780B400AF00BFBD465DF8047B704786
:1033600080B500AF00F0AAF900BF80BD80B500AF06
:10337000024800F029FD00BF80BD00BFA40100206D
:1033800080B500AF024800F01FFD00BF80BD00BF48
:103390007006002080B500AF024800F015FD00BFA8
:1033A00080BD00BFD006002080B500AF024800F00D
:1033B0000BFD00BF80BD00BF0402002080B500AF40
:1033C000024803F03DFD00BF80BD00BF5404002053
:1033D00080B500AF024803F033FD00BF80BD00BFE1
:1033E0002403002080B500AF024803F029FD00BF90
:1033F00080BD00BF7003002080B500AF024804F01C
:10340000EFFA00BF80BD00BFA004002080B500AF70
:10341000024804F0E5FA00BF80BD00BF2805002087
:1034200080B500AF024803F00BFD00BF80BD00BFB8
:103430000804002080B500AF024800F0C5FC00BFC2
:1034400080BD00BF6402002080B500AF024800F0DC
:10345000BBFC00BF80BD00BFC402002080B500AF30
:10346000024800F0B1FC00BF80BD00BFB0050020E5
:1034700080B500AF024800F0A7FC00BF80BD00BFD0
:103480001006002080B586B000AFF860B9607A60A1
:1034900000237B610AE0AFF300800146BB685A1C41
:1034A000BA60CAB21A707B6901337B617A697B6842
:1034B0009A42F0DB7B6818461837BD4680BD80B560
:1034C00086B000AFF860B9607A6000237B6109E0E4
:1034D000BB685A1CBA601B781846FEF7BFFB7B69B5
:1034E00001337B617A697B689A42F1DB7B6818461D
:1034F0001837BD4680BD80B483B000AF78604FF010
:10350000FF3318460C37BD465DF8047B704780B426
:1035100083B000AF786039603B684FF400525A6066
:10352000002318460C37BD465DF8047B704780B415
:1035300083B000AF7860012318460C37BD465DF8B4
:10354000047B704780B485B000AFF860B9607A60E2
:10355000002318461437BD465DF8047B7047000011
:1035600080B586B000AF7860144A154BD31A7B61E2
:103570007B693B61134B1B68002B02D1114B124A34
:103580001A60104B1A687B6813443A699A4207D252
:1035900005F0F2FB03460C221A604FF0FF3309E0FE
:1035A000084B1B68FB60074B1A687B681344054A8D
:1035B0001360FB6818461837BD4680BD0000042024
:1035C00000040000180800205008002080B400AF5C
:1035D000064BD3F88830054A43F47003C2F88830AC
:1035E00000BFBD465DF8047B704700BF00ED00E002
:1035F000DFF834D0FFF7EAFF0C480D490D4A0023ED
:1036000002E0D458C4500433C4188C42F9D30A4A97
:103610000A4C002301E013600432A242FBD305F000
:10362000B1FBFCF77FFF7047000004200000002082
:10363000B000002088980008B00000204C0800204E
:10364000FEE780B500AF032000F070F9002000F025
:1036500005F8FFF781FA0023184680BD80B582B0D7
:1036600000AF7860124B1A68124B1B7819464FF462
:103670007A73B3FBF1F3B2FBF3F3184600F099F958
:103680000346002B01D001230EE07B680F2B0AD8E4
:10369000002279684FF0FF3000F053F9064A7B684A
:1036A0001360002300E0012318460837BD4680BDA3
:1036B00040000020480000204400002080B400AFFB
:1036C000064B1B781A46064B1B681344044A1360CA
:1036D00000BFBD465DF8047B704700BF4800002076
:1036E0001C08002080B400AF034B1B681846BD4681
:1036F0005DF8047B704700BF1C08002080B584B0D3
:1037000000AF7860FFF7EEFFB8607B68FB60FB6896
:10371000B3F1FF3F05D00A4B1B781A46FB681344F0
:10372000FB6000BFFFF7DEFF0246BB68D31AFA68F2
:103730009A42F7D800BF00BF1037BD4680BD00BF1A
:103740004800002080B485B000AF78607B6803F04B
:103750000703FB600B4BDB68BB60BA684FF6FF03E7
:103760001340BB60FB681A02BB681A43064B134345
:10377000BB60044ABB68D36000BF1437BD465DF828
:10378000047B704700ED00E00000FA0580B400AF54
:10379000044BDB681B0A03F007031846BD465DF8BF
:1037A000047B704700ED00E080B483B000AF0346B7
:1037B000FB7197F90730002B0BDBFB7903F01F023D
:1037C000074997F907305B09012000FA02F241F836
:1037D000232000BF0C37BD465DF8047B704700BF57
:1037E00000E100E080B483B000AF0346FB7197F9BD
:1037F0000730002B12DBFB7903F01F020A4997F90F
:1038000007305B09012000FA02F2203341F823203F
:10381000BFF34F8F00BFBFF36F8F00BF00BF0C37E8
:10382000BD465DF8047B704700E100E080B483B0E2
:1038300000AF03463960FB7197F90730002B0ADBB4
:103840003B68DAB20C4997F907301201D2B20B4447
:1038500083F800230AE03B68DAB20849FB7903F0F9
:103860000F03043B1201D2B20B441A7600BF0C378F
:10387000BD465DF8047B704700E100E000ED00E02C
:1038800080B489B000AFF860B9607A60FB6803F07B
:103890000703FB61FB69C3F10703042B28BF042363
:1038A000BB61FB690433062B02D9FB69033B00E0D3
:1038B00000237B614FF0FF32BB6902FA03F3DA4366
:1038C000BB681A407B699A404FF0FF317B6901FA6F
:1038D00003F3D9437B680B40134318462437BD4696
:1038E0005DF8047B7047000080B582B000AF78605F
:1038F0007B68013BB3F1807F01D301230FE00A4ACB
:103900007B68013B53600F214FF0FF30FFF78EFFC4
:10391000054B00229A60044B07221A6000231846C8
:103920000837BD4680BD00BF10E000E080B582B022
:1039300000AF78607868FFF705FF00BF0837BD4625
:1039400080BD80B586B000AF0346B9607A60FB7376
:1039500000237B61FFF71AFF78617A68B96878699C
:10396000FFF78EFF024697F90F3011461846FFF712
:103970005DFF00BF1837BD4680BD80B582B000AF87
:103980000346FB7197F907301846FFF70DFF00BF9C
:103990000837BD4680BD80B582B000AF0346FB71DD
:1039A00097F907301846FFF71DFF00BF0837BD46DF
:1039B00080BD80B582B000AF78607868FFF794FF73
:1039C000034618460837BD4680BD000080B586B066
:1039D00000AF786000237B61FFF784FE38617B686D
:1039E000002B01D1012399E07B68022283F8352066
:1039F0007B68002283F834207B681B681A687B6828
:103A00001B6822F001021A600FE0FFF76BFE02460E
:103A10003B69D31A052B08D97B6820225A657B683D
:103A2000032283F83520032378E07B681B681B683A
:103A300003F00103002BE8D17B681B681B687B61E6
:103A40007A69384B13407B617B685A687B689B6856
:103A50001A437B68DB681A437B681B691A437B68DF
:103A60005B691A437B689B691A437B68DB691A436D
:103A70007B681B6A13437A6913437B617B685B6ACB
:103A8000042B07D17B68DA6A7B681B6B13437A6966
:103A900013437B617B681B687A691A607B681B68CB
:103AA0005B697B617B6923F007037B617B685B6AF1
:103AB0007A6913437B617B685B6A042B17D17B684F
:103AC0009B6A7A6913437B617B68DB6A002B0ED0AB
:103AD000786800F073FB0346002B08D07B68402217
:103AE0005A657B68002283F83520012316E07B6845
:103AF0001B687A695A61786800F02AFB0346FB600C
:103B00007B68DB6D3F229A40FB689A607B680022ED
:103B10005A657B68012283F8352000231846183740
:103B2000BD4680BD3F8010E080B584B000AF7860B6
:103B30007B68002B01D1012350E07B6893F835307E
:103B4000DBB2022B01D1022348E07B681B681A68B4
:103B50007B681B6822F001021A607B681B680022E8
:103B60001A607B681B6800225A607B681B68002211
:103B70009A607B681B680022DA607B681B68002201
:103B80001A617B681B6821225A61786800F0E0FAAC
:103B90000346FB607B68DB6D3F229A40FB689A60BE
:103BA0007B680022DA637B6800221A647B6800224B
:103BB0005A647B6800229A647B680022DA647B681E
:103BC00000221A657B6800225A657B68002283F810
:103BD00035207B68002283F83420002318461037F4
:103BE000BD4680BD80B586B000AFF860B9607A6030
:103BF0003B600023FB75FB689B6D3B61FB6893F8A2
:103C00003430012B01D1022348E0FB68012283F804
:103C10003420FB6893F83530DBB2012B37D1FB68D9
:103C2000022283F83520FB6800225A653B687A68D7
:103C3000B968F86800F05EFAFB68DB6D3F229A40D5
:103C40003B699A60FB681B681A68FB681B6842F056
:103C500016021A60FB681B685A69FB681B6842F011
:103C600080025A61FB681B6C002B07D0FB681B6845
:103C70001A68FB681B6842F008021A60FB681B6840
:103C80001A68FB681B6842F001021A6005E0FB68D5
:103C9000002283F834200223FB75FB7D1846183779
:103CA000BD4680BD80B584B000AF78607B689B6DF9
:103CB000FB60FFF717FDB8607B6893F83530DBB227
:103CC000022B08D07B6880225A657B68002283F82B
:103CD0003420012352E07B681B681A687B681B68EC
:103CE00022F016021A607B681B685A697B681B68A1
:103CF00022F080025A617B681B6C002B03D17B6829
:103D00009B6C002B07D07B681B681A687B681B685C
:103D100022F008021A607B681B681A687B681B68BF
:103D200022F001021A6013E0FFF7DCFC0246BB68D8
:103D3000D31A052B0CD97B6820225A657B68032295
:103D400083F835207B68002283F83420032315E0B4
:103D50007B681B681B6803F00103002BE4D17B68C0
:103D6000DB6D3F229A40FB689A607B68012283F8F2
:103D700035207B68002283F8342000231846103752
:103D8000BD4680BD80B483B000AF78607B6893F897
:103D90003530DBB2022B04D07B6880225A650123C8
:103DA0000CE07B68052283F835207B681B681A6865
:103DB0007B681B6822F001021A60002318460C374A
:103DC000BD465DF8047B704780B586B000AF786073
:103DD0000023BB608E4B1B688E4AA2FB03239B0A09
:103DE0007B617B689B6D3B613B691B68FB607B680B
:103DF000DB6D08229A40FB681340002B1AD07B68C9
:103E00001B681B6803F00403002B13D07B681B683E
:103E10001A687B681B6822F004021A607B68DB6DFD
:103E200008229A403B699A607B685B6D43F001020F
:103E30007B685A657B68DB6D01229A40FB68134002
:103E4000002B12D07B681B685B6903F08003002B9A
:103E50000BD07B68DB6D01229A403B699A607B68DE
:103E60005B6D43F002027B685A657B68DB6D042260
:103E70009A40FB681340002B12D07B681B681B68BC
:103E800003F00203002B0BD07B68DB6D04229A4009
:103E90003B699A607B685B6D43F004027B685A65FE
:103EA0007B68DB6D10229A40FB681340002B43D0E7
:103EB0007B681B681B6803F00803002B3CD07B6801
:103EC000DB6D10229A403B699A607B681B681B6817
:103ED00003F48023002B18D07B681B681B6803F455
:103EE0000023002B08D17B681B6C002B24D07B683F
:103EF0001B6C786898471FE07B689B6C002B1BD07D
:103F00007B689B6C7868984716E07B681B681B6829
:103F100003F48073002B07D17B681B681A687B68E9
:103F20001B6822F008021A607B681B6C002B03D010
:103F30007B681B6C786898477B68DB6D20229A4011
:103F4000FB681340002B00F08F807B681B681B68A8
:103F500003F01003002B00F087807B68DB6D2022CC
:103F60009A403B699A607B6893F83530DBB2052B49
:103F700036D17B681B681A687B681B6822F01602C2
:103F80001A607B681B685A697B681B6822F0800294
:103F90005A617B681B6C002B03D17B689B6C002BE8
:103FA00007D07B681B681A687B681B6822F00802D0
:103FB0001A607B68DB6D3F229A403B699A607B68A0
:103FC000012283F835207B68002283F834207B6847
:103FD0001B6D002B7ED07B681B6D7868984779E05D
:103FE0007B681B681B6803F48023002B1DD07B6853
:103FF0001B681B6803F40023002B0DD17B685B6CEE
:10400000002B31D07B685B6C786898472CE000BF50
:1040100040000020B5814E1B7B68DB6B002B23D05A
:104020007B68DB6B786898471EE07B681B681B68C1
:1040300003F48073002B0FD17B681B681A687B68C0
:104040001B6822F010021A607B68012283F8352079
:104050007B68002283F834207B68DB6B002B03D065
:104060007B68DB6B786898477B685B6D002B32D090
:104070007B685B6D03F00103002B22D07B68052277
:1040800083F835207B681B681A687B681B6822F000
:1040900001021A60BB680133BB607A699A4207D398
:1040A0007B681B681B6803F00103002BF2D100E062
:1040B00000BF7B68012283F835207B68002283F8EB
:1040C00034207B68DB6C002B05D07B68DB6C786868
:1040D000984700E000BF1837BD4680BD80B483B06C
:1040E00000AF78607B685B6D18460C37BD465DF8A5
:1040F000047B704780B485B000AFF860B9607A6027
:104100003B60FB681B681A68FB681B6822F480220E
:104110001A60FB681B683A685A60FB689B68402B12
:1041200008D1FB681B687A689A60FB681B68BA68EC
:10413000DA6007E0FB681B68BA689A60FB681B6876
:104140007A68DA6000BF1437BD465DF8047B7047BB
:1041500080B485B000AF78607B681B68DBB2103B31
:10416000134AA2FB03231B09FB60124AFB6813449A
:104170001B781A467B68DA65FB68032B08D97B68D5
:104180001B681A460C4B13401A1D7B689A6506E0A3
:104190007B681B681A46084B13407A6893657B68F6
:1041A0009B6D18461437BD465DF8047B704700BF11
:1041B000ABAAAAAA0C98000800FCFFFF80B485B047
:1041C00000AF78600023FB737B689B6ABB607B68F1
:1041D0009B69002B1FD1BB68032B56D801A252F854
:1041E00023F000BFF541000807420008F541000830
:1041F0008B4200087B68DB6A03F08073002B46D09B
:104200000123FB7343E07B68DB6AB3F1C07F40D1DD
:104210000123FB733DE07B689B69B3F5005F21D10F
:10422000BB68032B37D801A252F823F03D420008A7
:10423000434200083D420008554200080123FB7339
:1042400030E07B68DB6A03F08073002B25D001230C
:10425000FB7322E07B68DB6AB3F1C07F1FD10123CF
:10426000FB731CE0BB68022B03D9BB68032B03D094
:1042700018E00123FB7315E07B68DB6A03F08073B1
:10428000002B0ED00123FB730BE000BF0AE000BF40
:1042900008E000BF06E000BF04E000BF02E000BF8E
:1042A00000E000BFFB7B18461437BD465DF8047B79
:1042B000704700BF80B586B000AFF860B960C7E94D
:1042C0000023274B1B7D012B01D1022343E0244B0C
:1042D00001221A754CF2503000F078F80346FB7555
:1042E000FB7D002B33D1FB68032B23D801A252F8AE
:1042F00023F000BF05430008114300081D430008D8
:10430000294300083B781946B86800F021F912E00B
:104310003B881946B86800F0F5F80CE03B68194690
:10432000B86800F0C9F806E0D7E90023B86800F0E3
:104330008DF800E000BF4CF2503000F047F8034623
:10434000FB75084B1B69074A23F001031361044BFB
:1043500000221A75FB7D18461837BD4680BD00BF88
:1043600020080020003C024080B483B000AF00234E
:10437000FB710B4B1B69002B0BDA094B094A5A6086
:10438000074B094A5A60064B1B69002B01DA0123CF
:10439000FB71FB7918460C37BD465DF8047B70470E
:1043A000003C024023016745AB89EFCD80B400AFEC
:1043B000054B1B69044A43F0004313610023184670
:1043C000BD465DF8047B7047003C024080B584B078
:1043D00000AF78600023FB601A4B00229A61FFF760
:1043E00081F9F86010E07B68B3F1FF3F0CD07B6887
:1043F000002B07D0FFF776F90246FB68D31A7A68DC
:104400009A4201D2032319E00F4BDB6803F4803397
:10441000002BE8D10C4BDB6803F4F973002B03D0BD
:1044200000F0BAF8012309E0074BDB6803F0010351
:10443000002B02D0044B0122DA600023184610370B
:10444000BD4680BD20080020003C024080B485B0FD
:1044500000AFF860C7E90023164B1B69154A23F427
:1044600040731361134B1B69124A43F44073136189
:10447000104B1B690F4A43F001031361FB683A6854
:104480001A60BFF36F8F00BFD7E900014FF0000241
:104490004FF000030A000023F968043113460B6053
:1044A000BFF34F8F00BF00BF1437BD465DF8047BDC
:1044B000704700BF003C024080B483B000AF78601A
:1044C00039600F4B1B690E4A23F4407313610C4B88
:1044D0001B690B4A43F400731361094B1B69084ABB
:1044E00043F0010313617B683A681A60BFF34F8F92
:1044F00000BF00BF0C37BD465DF8047B704700BFAE
:10450000003C024080B483B000AF78600B467B80F3
:104510000E4B1B690D4A23F4407313610B4B1B694F
:104520000A4A43F480731361084B1B69074A43F03E
:10453000010313617B687A881A80BFF34F8F00BF35
:1045400000BF0C37BD465DF8047B7047003C02405D
:1045500080B483B000AF78600B46FB700D4B1B69D5
:104560000C4A23F4407313610A4B0A4A1B69136116
:10457000084B1B69074A43F0010313617B68FA7813
:104580001A70BFF34F8F00BF00BF0C37BD465DF8F8
:10459000047B7047003C024080B400AF284BDB68CE
:1045A00003F00203002B05D0264B9B6943F0200348
:1045B000244A9361224BDB6803F01003002B05D0E3
:1045C000204B9B6943F010031E4A93611C4BDB6830
:1045D00003F02003002B05D01A4B9B6943F008031E
:1045E000184A9361164BDB6803F04003002B05D09B
:1045F000144B9B6943F00403124A9361104BDB6830
:1046000003F08003002B05D00E4B9B6943F002039F
:104610000C4A93610A4BDB6803F48073002B05D0CE
:10462000084B9B6943F04003064A9361044B4FF4E7
:10463000F972DA6000BFBD465DF8047B704700BFC9
:10464000003C02402008002080B584B000AF7860B4
:1046500039600023BB602F4B1B7D012B01D102234E
:1046600053E02C4B01221A754CF25030FFF7AEFE8E
:104670000346FB73FB7B002B43D13B684FF0FF32BB
:104680001A607B681B68012B12D17B68DB68DBB288
:10469000184600F043F84CF25030FFF797FE0346FF
:1046A000FB731D4B1B691C4A23F00403136128E0B4
:1046B0007B685B68BB601CE07B68DB68DBB219462B
:1046C000B86800F051F84CF25030FFF77FFE034617
:1046D000FB73114B1B69104A23F07A031361FB7BB8
:1046E000002B03D03B68BA681A600AE0BB6801334C
:1046F000BB607B689A687B685B681344BA689A42BF
:10470000DAD3044B00221A75FB7B18461037BD46DE
:1047100080BD00BF20080020003C024080B483B070
:1047200000AF0346FB710F4B1B690E4A23F4407325
:1047300013610C4B1B690B4A43F004031361094BD3
:104740001A69FB791B021343064A43F48033136151
:10475000BFF34F8F00BF00BF0C37BD465DF8047B31
:10476000704700BF003C024080B485B000AF786065
:104770000B46FB700023FB60FB78002B02D100236B
:10478000FB6010E0FB78012B03D14FF48073FB60DA
:1047900009E0FB78022B03D14FF40073FB6002E0C9
:1047A0004FF44073FB60154B1B69144A23F44073AC
:1047B0001361124B1A691149FB6813430B610F4BCC
:1047C0001B690E4A23F0F80313610C4B1A697B68CE
:1047D000DB001343094A43F002031361074B1B69D3
:1047E000064A43F480331361BFF34F8F00BF00BF0D
:1047F0001437BD465DF8047B704700BF003C0240A3
:1048000080B489B000AF786039600023FB61002379
:104810007B6100233B610023BB610023FB6169E1F5
:104820000122FB6902FA03F37B613B681B687A692A
:1048300013403B613A697B699A4240F058813B687A
:104840005B6803F00303012B05D03B685B6803F052
:104850000303022B30D17B689B68BB61FB695B0063
:10486000032202FA03F3DB43BA691340BB613B68DE
:10487000DA68FB695B0002FA03F3BA691343BB61B0
:104880007B68BA699A607B685B68BB610122FB69DF
:1048900002FA03F3DB43BA691340BB613B685B6810
:1048A0001B0903F00102FB6902FA03F3BA6913431F
:1048B000BB617B68BA695A603B685B6803F00303BD
:1048C000032B17D07B68DB68BB61FB695B000322AD
:1048D00002FA03F3DB43BA691340BB613B689A6891
:1048E000FB695B0002FA03F3BA691343BB617B689F
:1048F000BA69DA603B685B6803F00303022B23D1DB
:10490000FB69DA087B68083253F82230BB61FB6927
:1049100003F007039B000F2202FA03F3DB43BA699B
:104920001340BB613B681A69FB6903F007039B00F6
:1049300002FA03F3BA691343BB61FB69DA087B68C7
:104940000832B96943F822107B681B68BB61FB69B8
:104950005B00032202FA03F3DB43BA691340BB6135
:104960003B685B6803F00302FB695B0002FA03F338
:10497000BA691343BB617B68BA691A603B685B68BC
:1049800003F44033002B00F0B280604B5B6C5F4A55
:1049900043F4804353645D4B5B6C03F48043FB60E2
:1049A000FB685B4AFB699B08023352F82330BB610A
:1049B000FB6903F003039B000F2202FA03F3DB43BE
:1049C000BA691340BB617B68524A93422BD07B6823
:1049D000514A934225D07B68504A93421FD07B684E
:1049E0004F4A934219D07B684E4A934213D07B685A
:1049F0004D4A93420DD07B684C4A934207D07B6866
:104A00004B4A934201D107230EE008230CE0062312
:104A10000AE0052308E0042306E0032304E0022360
:104A200002E0012300E00023FA6902F00302920091
:104A30009340BA691343BB613549FB699B08023354
:104A4000BA6941F823203B4B9B68BB613B69DB4360
:104A5000BA691340BB613B685B6803F48013002BA9
:104A600003D0BA693B691343BB61324ABB699360A7
:104A7000304BDB68BB613B69DB43BA691340BB6108
:104A80003B685B6803F40013002B03D0BA693B69F1
:104A90001343BB61274ABB69D360264B5B68BB618C
:104AA0003B69DB43BA691340BB613B685B6803F455
:104AB0000033002B03D0BA693B691343BB611D4A25
:104AC000BB6953601B4B1B68BB613B69DB43BA6925
:104AD0001340BB613B685B6803F48033002B03D059
:104AE000BA693B691343BB61124ABB691360FB6936
:104AF0000133FB61FB690F2B7FF692AE00BF00BF55
:104B00002437BD465DF8047B704700BF0038024083
:104B1000003801400000024000040240000802404A
:104B2000000C024000100240001402400018024035
:104B3000001C0240003C014080B487B000AF7860A8
:104B4000396000233B610023FB600023BB6000232E
:104B50007B61CDE001227B6902FA03F33B613A6895
:104B60003B691340FB60FA683B699A4240F0BD80A4
:104B7000654A7B699B08023352F82330BB607B692E
:104B800003F003039B000F2202FA03F3BA681340F9
:104B9000BB607B685D4A93422BD07B685C4A934242
:104BA00025D07B685B4A93421FD07B685A4A934268
:104BB00019D07B68594A934213D07B68584A934274
:104BC0000DD07B68574A934207D07B68564A934280
:104BD00001D107230EE008230CE006230AE0052399
:104BE00008E0042306E0032304E0022302E001239B
:104BF00000E000237A6902F0030292009340BA6851
:104C00009A4232D1494B1A68FB68DB43474913404B
:104C10000B60464B5A68FB68DB43444913404B60CA
:104C2000424BDA68FB68DB4340491340CB603F4BA3
:104C30009A68FB68DB433D4913408B607B6903F056
:104C400003039B000F2202FA03F3BB602E4A7B6929
:104C50009B08023352F82310BB68DA432A487B6969
:104C60009B080A40023340F823207B681A687B695E
:104C70005B00032101FA03F3DB431A407B681A60EF
:104C80007B69DA087B68083253F822107B6903F0ED
:104C900007039B000F2202FA03F3DB437A69D20871
:104CA00019407B68083243F822107B68DA687B6918
:104CB0005B00032101FA03F3DB431A407B68DA60EF
:104CC0007B685A6801217B6901FA03F3DB431A40D0
:104CD0007B685A607B689A687B695B00032101FAF4
:104CE00003F3DB431A407B689A607B6901337B6185
:104CF0007B690F2B7FF62EAF00BF00BF1C37BD4670
:104D00005DF8047B704700BF00380140000002409E
:104D10000004024000080240000C02400010024063
:104D20000014024000180240001C0240003C0140F8
:104D300080B483B000AF78600B467B8013467B70F5
:104D40007B78002B03D07A887B689A6103E07B88AC
:104D50001A047B689A6100BF0C37BD465DF8047B7E
:104D6000704780B485B000AF78600B467B807B686D
:104D70005B69FB607A88FB6813401A04FB68D943BF
:104D80007B880B401A437B689A6100BF1437BD468D
:104D90005DF8047B7047000080B582B000AF00234F
:104DA0007B60234B1B6C224A43F080531364204BDF
:104DB0001B6C03F080533B603B681E4B1B681D4A15
:104DC00043F480331360FEF78DFC786009E0FEF752
:104DD00089FC02467B68D31AB3F57A7F01D9032395
:104DE00022E0144B5B6803F48033B3F5803FEED1CF
:104DF000104B1B680F4A43F400331360FEF772FC3C
:104E0000786009E0FEF76EFC02467B68D31AB3F5C2
:104E10007A7F01D9032307E0064B5B6803F4003374
:104E2000B3F5003FEED1002318460837BD4680BDDC
:104E3000003802400070004080B586B000AF786056
:104E40000023FB757B68002B01D1012391E27B6875
:104E50001B6803F00103002B00F08780964B9B68D2
:104E600003F00C03042B0CD0934B9B6803F00C0352
:104E7000082B12D1904B5B6803F48003B3F5800FCD
:104E80000BD18D4B1B6803F40033002B6CD07B6877
:104E90005B68002B68D101236BE27B685B68B3F52C
:104EA000803F06D1844B1B68834A43F480331360F0
:104EB0002EE07B685B68002B0CD17F4B1B687E4A21
:104EC00023F4803313607C4B1B687B4A23F48023DC
:104ED00013601DE07B685B68B3F5A02F0CD1764BA7
:104EE0001B68754A43F480231360734B1B68724A36
:104EF00043F4803313600BE06F4B1B686E4A23F45E
:104F0000803313606C4B1B686B4A23F4802313605F
:104F10007B685B68002B13D0FEF7E4FB386108E088
:104F2000FEF7E0FB02463B69D31A642B01D9032349
:104F30001FE2614B1B6803F40033002BF0D014E038
:104F4000FEF7D0FB386108E0FEF7CCFB02463B6978
:104F5000D31A642B01D903230BE2574B1B6803F4CC
:104F60000033002BF0D100E000BF7B681B6803F02A
:104F70000203002B69D0504B9B6803F00C03002BFD
:104F80000BD04D4B9B6803F00C03082B1CD14A4BF4
:104F90005B6803F48003002B16D1474B1B6803F0BA
:104FA0000203002B05D07B68DB68012B01D00123B5
:104FB000DFE1414B1B6823F0F8027B681B69DB00D3
:104FC0003D4913430B6040E07B68DB68002B23D036
:104FD000394B1B68384A43F001031360FEF782FB2C
:104FE000386108E0FEF77EFB02463B69D31A022BCC
:104FF00001D90323BDE1304B1B6803F00203002BF2
:10500000F0D02D4B1B6823F0F8027B681B69DB0096
:10501000294913430B6018E0274B1B68264A23F0ED
:1050200001031360FEF75EFB386108E0FEF75AFBF0
:1050300002463B69D31A022B01D9032399E11E4B87
:105040001B6803F00203002BF0D17B681B6803F0A0
:105050000803002B38D07B685B69002B19D0164BF6
:105060005B6F154A43F001035367FEF73BFB386162
:1050700008E0FEF737FB02463B69D31A022B01D941
:10508000032376E10C4B5B6F03F00203002BF0D09F
:105090001AE0094B5B6F084A23F001035367FEF7E0
:1050A00021FB38610AE0FEF71DFB02463B69D31A7B
:1050B000022B03D903235CE100380240914B5B6F64
:1050C00003F00203002BEED17B681B6803F004039E
:1050D000002B00F0A4808B4B1B6C03F08053002B43
:1050E0000DD1884B1B6C874A43F080531364854B6A
:1050F0001B6C03F08053BB60BB680123FB75824BC4
:105100001B6803F48073002B18D17F4B1B687E4A09
:1051100043F480731360FEF7E5FA386108E0FEF7A8
:10512000E1FA02463B69D31A642B01D9032320E13B
:10513000754B1B6803F48073002BF0D07B689B6871
:10514000012B06D16F4B1B6F6E4A43F001031367AF
:105150002DE07B689B68002B0CD16A4B1B6F694A62
:1051600023F001031367674B1B6F664A23F00403A8
:1051700013671CE07B689B68052B0CD1614B1B6F90
:10518000604A43F0040313675E4B1B6F5D4A43F0B4
:10519000010313670BE05B4B1B6F5A4A23F00103BB
:1051A0001367584B1B6F574A23F0040313677B6840
:1051B0009B68002B15D0FEF795FA38610AE0FEF7E0
:1051C00091FA02463B69D31A41F28832934201D9DF
:1051D0000323CEE04B4B1B6F03F00203002BEED0FA
:1051E00014E0FEF77FFA38610AE0FEF77BFA024628
:1051F0003B69D31A41F28832934201D90323B8E0C4
:10520000404B1B6F03F00203002BEED1FB7D012B03
:1052100005D13C4B1B6C3B4A23F0805313647B68E5
:105220009B69002B00F0A480364B9B6803F00C03B5
:10523000082B6BD07B689B69022B49D1314B1B68D3
:10524000304A23F080731360FEF74CFA386108E0AF
:10525000FEF748FA02463B69D31A022B01D9032311
:1052600087E0284B1B6803F00073002BF0D17B68AC
:10527000DA697B681B6A1A437B685B6A9B011A4385
:105280007B689B6A5B08013B1B041A437B68DB6AF3
:105290001B0613431B4A43F000535360194B1B6812
:1052A000184A43F080731360FEF71CFA386108E077
:1052B000FEF718FA02463B69D31A022B01D90323E1
:1052C00057E0104B1B6803F00073002BF0D04FE049
:1052D0000C4B1B680B4A23F080731360FEF702FA35
:1052E000386108E0FEF7FEF902463B69D31A022B4B
:1052F00001D903233DE0034B1B6803F00073002B2F
:10530000F0D135E000380240007000401B4B5B6874
:10531000FB607B689B69012B28D0FB6803F480024B
:105320007B68DB699A4221D1FB6803F03F027B680E
:105330001B6A9A421AD1FA6847F6C07313407A681A
:10534000526A9201934211D1FB6803F440327B68A8
:105350009B6A5B08013B1B049A4207D1FB6803F080
:1053600070627B68DB6A1B069A4201D0012300E071
:10537000002318461837BD4680BD00BF00380240E4
:1053800080B584B000AF786039600023FB607B6833
:10539000002B01D10123D0E06A4B1B6803F00F03FF
:1053A0003A689A4210D9674B1B6823F00F0265498F
:1053B0003B6813430B60634B1B6803F00F033A68B1
:1053C0009A4201D00123B8E07B681B6803F0020316
:1053D000002B20D07B681B6803F00403002B05D052
:1053E000594B9B68584A43F4E05393607B681B68B1
:1053F00003F00803002B05D0534B9B68524A43F43B
:1054000060439360504B9B6823F0F0027B689B687D
:105410004D4913438B607B681B6803F00103002B2D
:1054200040D07B685B68012B07D1474B1B6803F4B6
:105430000033002B15D101237FE07B685B68022BD2
:1054400007D1414B1B6803F00073002B09D10123E6
:1054500073E03D4B1B6803F00203002B01D10123D5
:105460006BE0394B9B6823F003027B685B6836492D
:1054700013438B60FEF736F9F8600AE0FEF732F965
:105480000246FB68D31A41F28832934201D90323C2
:1054900053E02D4B9B6803F00C027B685B689B001C
:1054A0009A42EBD1274B1B6803F00F033A689A42EC
:1054B00010D2244B1B6823F00F0222493B68134390
:1054C0000B60204B1B6803F00F033A689A4201D02F
:1054D000012332E07B681B6803F00403002B08D033
:1054E000194B9B6823F4E0527B68DB681649134331
:1054F0008B607B681B6803F00803002B09D0124BFC
:105500009B6823F460427B681B69DB000E491343F0
:105510008B6000F021F802460B4B9B681B0903F0DF
:105520000F030A49CB5C22FA03F3094A1360094BC3
:105530001B681846FEF792F8002318461037BD4640
:1055400080BD00BF003C024000380240F4970008D4
:1055500040000020440000202DE9B04F94B000AF7F
:1055600000237B640023FB6400233B640023BB64B3
:10557000794B9B6803F00C03082B0DD0082B00F22D
:10558000E180002B02D0042B03D0DBE0734BBB6423
:10559000DBE0734BBB64D8E06F4B5B6803F03F0309
:1055A0007B646D4B5B6803F48003002B63D06A4B14
:1055B0005B689B090022BB63FA63BB6BC3F3080300
:1055C0003B6300237B63D7E90C4522462B464FF013
:1055D00000004FF00001590141EAD261500102463A
:1055E0000B462146511A3961294663EB01037B6161
:1055F0004FF000024FF00003D7E904AB59468B018E
:10560000514643EA916351468A015146B2EB010883
:10561000594663EB01094FF000024FF000034FEAD7
:10562000C90343EA58734FEAC80290469946234695
:1056300018EB0303BB602B4649EB0303FB604FF001
:1056400000024FF00003D7E9024529464B022146EC
:1056500043EAD15321464A02104619467B6C002288
:10566000BB62FA62D7E90A23FAF7DAFD02460B4673
:105670001346FB6458E0384B5B689B0900221846D0
:105680001146C0F308033B6200237B62D7E9088917
:1056900042464B464FF000004FF00001590141EAED
:1056A000D261500102460B464146B2EB010A49461F
:1056B00063EB010B4FF000024FF000034FEA8B1336
:1056C00043EA9A634FEA8A12B2EB0A0463EB0B05D2
:1056D0004FF000024FF00003EB0043EA5473E20086
:1056E00014461D464346E3183B604B4645EB030317
:1056F0007B604FF000024FF00003D7E900452946D8
:105700008B02214643EA915321468A0210461946EC
:105710007B6C0022BB61FA61D7E90623FAF780FDB2
:1057200002460B461346FB640B4B5B681B0C03F0F5
:10573000030301335B003B64FA6C3B6CB2FBF3F395
:10574000BB6402E0054BBB6400BFBB6C184650371E
:10575000BD46BDE8B08F00BF003802400024F40011
:1057600000127A0080B400AF034B1B681846BD4698
:105770005DF8047B704700BF4000002080B500AF9B
:10578000FFF7F0FF0246054B9B689B0A03F00703F7
:105790000349CB5C22FA03F3184680BD003802406F
:1057A0000498000880B500AFFFF7DCFF0246054B08
:1057B0009B685B0B03F007030349CB5C22FA03F3FE
:1057C000184680BD003802400498000880B588B0B3
:1057D00000AF786000237B6100233B610023FB6105
:1057E0000023BB617B681B6803F00103002B12D010
:1057F000654B9B68644A23F400039360624B9A688C
:105800007B68DB6A604913438B607B68DB6A002B33
:1058100001D10123FB617B681B6803F40023002B8B
:1058200017D0594BD3F88C3023F440127B685B6B54
:1058300055491343C1F88C307B685B6BB3F5801F0F
:1058400001D10123FB617B685B6B002B01D101233C
:10585000BB617B681B6803F48013002B17D04A4B95
:10586000D3F88C3023F440027B689B6B464913438A
:10587000C1F88C307B689B6BB3F5800F01D101239D
:10588000FB617B689B6B002B01D10123BB617B68B3
:105890001B6803F02003002B00F08B803A4B1B6C3D
:1058A000394A43F080531364374B1B6C03F0805329
:1058B000FB60FB68354B1B68344A43F4807313600C
:1058C000FDF710FF786108E0FDF70CFF02467B69E9
:1058D000D31A642B01D90323BCE22C4B1B6803F4BD
:1058E0008073002BF0D0284B1B6F03F440733B6197
:1058F0003B69002B35D07B689B6A03F440733A699F
:105900009A422ED0204B1B6F23F440733B611E4BF9
:105910001B6F1D4A43F4803313671B4B1B6F1A4ADE
:1059200023F480331367184A3B691367164B1B6FC8
:1059300003F00103012B14D1FDF7D4FE78610AE0D6
:10594000FDF7D0FE02467B69D31A41F288329342BA
:1059500001D903237EE20C4B1B6F03F00203002BE3
:10596000EED07B689B6A03F44073B3F5407F11D19E
:10597000054B9B6823F4F8127B68996A044B0B4033
:10598000014913438B600BE0003802400070004077
:10599000FFFCFF0FA44B9B68A34A23F4F81393600A
:1059A000A14B1A6F7B689B6AC3F30B039E49134399
:1059B0000B677B681B6803F01003002B10D09A4B19
:1059C000D3F88C30984A23F08073C2F88C30964B11
:1059D000D3F88C207B681B6B93491343C1F88C3040
:1059E0007B681B6803F48043002B0AD08E4BD3F8EE
:1059F000903023F440327B68DB6D8B491343C1F850
:105A000090307B681B6803F40043002B0AD0864B60
:105A1000D3F8903023F440227B681B6E82491343F5
:105A2000C1F890307B681B6803F48033002B0AD0E8
:105A30007D4BD3F8903023F440127B685B6E7A493B
:105A40001343C1F890307B681B6803F04003002BC0
:105A50000AD0754BD3F8903023F003027B68DB6BE0
:105A600071491343C1F890307B681B6803F08003D1
:105A7000002B0AD06C4BD3F8903023F00C027B68DB
:105A80001B6C69491343C1F890307B681B6803F4B1
:105A90008073002B0AD0644BD3F8903023F030028F
:105AA0007B685B6C60491343C1F890307B681B686E
:105AB00003F40073002B0AD05B4BD3F8903023F033
:105AC000C0027B689B6C58491343C1F890307B68D7
:105AD0001B6803F48063002B0AD0534BD3F890303B
