:020000040800F2
:1000000000000420614400086141000867410008C5
:100010006D410008734100087941000800000000AC
:100020000000000000000000000000007F41000808
:100030008D410008000000009B410008A941000814
:10004000B1440008B1440008B1440008B1440008BC
:10005000B1440008B1440008B1440008B1440008AC
:10006000B1440008B1440008B1440008B54100089B
:10007000C9410008B1440008DD410008B14400084E
:10008000F1410008B1440008B1440008B14400083F
:10009000B1440008B1440008B1440008B14400086C
:1000A000B144000805420008B1440008B14400080A
:1000B000194200082D420008B1440008B14400086C
:1000C000B1440008B1440008B1440008B14400083C
:1000D000B144000841420008B144000855420008FC
:1000E000B1440008B1440008B1440008B14400081C
:1000F000B144000869420008B1440008B144000856
:10010000B1440008B14400087D420008B144000831
:10011000B1440008B1440008B1440008914200080D
:10012000A5420008B9420008CD420008B1440008C9
:10013000B1440008000000000000000000000000C2
:10014000000000000000000000000000B1440008B2
:10015000B1440008B1440008E1420008B14400087D
:10016000B1440008B1440008B1440008B14400089B
:10017000B1440008B1440008000000000000000085
:10018000B1440008B1440008B1440008B14400087B
:10019000B1440008B144000800000000B144000868
:1001A000000000000000000000000000B144000852
:1001B000B1440008B1440008000000000000000045
:1001C000000000000000000000000000000000002F
:1001D000000000000000000000000000B144000822
:1001E00010B5054C237833B9044B13B10448AFF371
:1001F00000800123237010BDEC00002000000000EF
:1002000048A6000808B5034B1BB103490348AFF3E8
:10021000008008BD00000000F000002048A6000893
:1002200053B94AB9002908BF00281CBF4FF0FF315D
:100230004FF0FF3000F074B9ADF1080C6DE904CE59
:1002400000F006F8DDF804E0DDE9022304B07047B1
:100250002DE9F047089D04468E46002B4DD18A4279
:10026000944669D9B2FA82F252B101FA02F3C2F1AC
:10027000200120FA01F10CFA02FC41EA030E94403D
:100280004FEA1C48210CBEFBF8F61FFA8CF708FB5E
:1002900016E341EA034306FB07F199420AD91CEB36
:1002A000030306F1FF3080F01F81994240F21C8168
:1002B000023E63445B1AA4B2B3FBF8F008FB1033B0
:1002C00044EA034400FB07F7A7420AD91CEB0404E5
:1002D00000F1FF3380F00A81A74240F207816444B5
:1002E000023840EA0640E41B00261DB1D44000233A
:1002F000C5E900433146BDE8F0878B4209D9002D9E
:1003000000F0EF800026C5E9000130463146BDE827
:10031000F087B3FA83F6002E4AD18B4202D3824291
:1003200000F2F980841A61EB030301209E46002D40
:10033000E0D0C5E9004EDDE702B9FFDEB2FA82F295
:10034000002A40F09280A1EB0C014FEA1C471FFAF3
:100350008CFE0126200CB1FBF7F307FB131140EADA
:1003600001410EFB03F0884208D91CEB010103F1A7
:10037000FF3802D2884200F2CB804346091AA4B269
:10038000B1FBF7F007FB101144EA01440EFB00FE3D
:10039000A64508D91CEB040400F1FF3102D2A645A2
:1003A00000F2BB800846A4EB0E0440EA03409CE741
:1003B000C6F12007B34022FA07FC4CEA030C20FAEE
:1003C00007F401FA06F31C43F9404FEA1C4900FA0E
:1003D00006F3B1FBF9F8200C1FFA8CFE09FB18118B
:1003E00040EA014108FB0EF0884202FA06F20BD9FE
:1003F0001CEB010108F1FF3A80F08880884240F24E
:100400008580A8F102086144091AA4B2B1FBF9F091
:1004100009FB101144EA014100FB0EFE8E4508D98C
:100420001CEB010100F1FF346CD28E456AD9023811
:10043000614440EA0840A0FB0294A1EB0E01A142F6
:10044000C846A64656D353D05DB1B3EB080261EB64
:100450000E0101FA07F722FA06F3F1401F43C5E93E
:10046000007100263146BDE8F087C2F12003D84074
:100470000CFA02FC21FA03F3914001434FEA1C47B6
:100480001FFA8CFEB3FBF7F007FB10360B0C43EAA8
:10049000064300FB0EF69E4204FA02F408D91CEB58
:1004A000030300F1FF382FD29E422DD90238634456
:1004B0009B1B89B2B3FBF7F607FB163341EA0341F6
:1004C00006FB0EF38B4208D91CEB010106F1FF3845
:1004D00016D28B4214D9023E6144C91A46EA00463C
:1004E00038E72E46284605E70646E3E61846F8E6CE
:1004F0004B45A9D2B9EB020864EB0C0E0138A3E717
:100500004646EAE7204694E74046D1E7D0467BE7F7
:10051000023B614432E7304609E76444023842E76F
:10052000704700BF80B582B000AF03F0C2FF00F09B
:1005300051FA00F0C7FD00F063FD00F02FFD00F060
:10054000F5FC00F0F1FA00F0B1FA00F02BFB00F03E
:1005500077FB00F013FC00F047FC00F07BFC00F0A0
:10056000BDFB00F0BFFC00F099FC8F4807F070FB6A
:100570008E4807F05DFA4FF47A7003F0F7FF062219
:100580008B498C4808F08EF805228B498B4806F081
:100590004BFC05228A498B4806F046FC02F09AF98A
:1005A000894B1A6802230221884802F0F3F9874B2D
:1005B0001B68874A1360854B5B68864A1360864BCD
:1005C00001221A70854B1B78002B01D000F008FE29
:1005D000834B1B78002B5CD0824B1B8801339AB273
:1005E000804B1A8002F0CEFA7F4B1B78012B0BD088
:1005F0007D4B1B78022B07D07B4B1B78032B03D042
:10060000794B1B78042B41D1784B1B78002B3DD0C4
:100610000023FB7110E0FB79754A12781146754A88
:10062000D25C754B5A54FB790133FB71704B1B78CC
:100630000133DAB26E4B1A70FB79022BEBD96B4B9C
:1006400000221A706D4B1B780133DAB26B4B1A70B3
:100650006A4B1B789AB26A4B1A806A4B1B8801332B
:100660009AB2684B1A80654B1B780A2B0ED1634BEC
:1006700000221A705E4B01221A70634B01221A701D
:10068000624B1B8801339AB2604B1A80544B002294
:100690001A705F4B1B78002B2DD0534B1B78013BFE
:1006A000082B24D801A252F823F000BFE30600086B
:1006B000E9060008EF060008EF060008EF0600084C
:1006C000D7060008EF060008D1060008DD0600087E
:1006D00002F0CAFA0CE002F067FB09E002F00EFB40
:1006E00006E002F0A7FB03E002F0A4FB00E000BF7D
:1006F000474B00221A70474B1B78002B2DD03A4BEA
:100700001B78013B082B24D801A252F823F000BF2C
:10071000470700084D070008530700085307000863
:10072000530700083B070008530700083507000877
:100730004107000802F098FA0CE002F035FB09E0EE
:1007400002F0DCFA06E002F0B5FC03E002F0F4FD92
:1007500000E000BF2F4B00221A702F4B1B78002B9C
:1007600073D0264B1B78002B58D0274B1B78002BBF
:1007700054D11E4B00221A70204B1B781A4652008F
:100780001344DBB20133DBB21A4621211A4802F0CE
:1007900053F91D4B01221A70184B00221A70144B8A
:1007A00001221A7051E000BF6003002044040020C1
:1007B0001C09002048060020500800207C01002071
:1007C000580800201801002074000020BC080020F8
:1007D000F0080020F408002047090020420900200A
:1007E00041090020AE08002048090020CD08002063
:1007F000050000203C09002084080020A5080020F6
:100800001A090020A80800204A090020B808002082
:100810004309002044090020CC080020574B1B78D6
:10082000002B12D1564B1B78002B0ED1554B0022BA
:100830001A70554B00221A70544B01221A70544BF7
:1008400000221A70534B00221A70534B1B78002B56
:100850001CD0524B1B78002B18D0514B1B78052B0A
:1008600014D14D4B00221A704C4B00221A704C4B85
:10087000FF221A70434B04221A70444B02221A7052
:10088000484B01221A70484807F06AF9474B1B7819
:10089000002B3FF497AE454B00221A70414B1B785A
:1008A000002B2DD0424B00221A80424B00221A808E
:1008B000414807F0BDF805224049414807F0F2FEE3
:1008C00001224FF400613F4805F06AF9314B0122E3
:1008D0001A700A2002F03CF900224FF400613948F6
:1008E00005F05EF9344807F013F92F4B1B6800221E
:1008F0005A62354807F034F92A4B00221A7036E064
:100900002D4807F095F805222C492D4807F0CAFE1E
:1009100001224FF400612B4805F042F91D4B0122E2
:100920001A700A2002F014F900224FF400612548E1
:1009300005F036F9204807F0EBF81F4B1B685B6A9F
:10094000C72B0BD9214B1B88A3F10A02164B1B683E
:10095000DA62194B1B6800225A6204E01B4B1A88AA
:10096000114B1B68DA62104B1B6800225A62184B4D
:100970001B8801339AB2164B1A8023E6A508002083
:100980004A09002048090020C40800204709002027
:10099000CC080020CD080020D3080020D408002077
:1009A0007A000020D208002074050020D50800201D
:1009B000AC080020AE080020280500202C090020EB
:1009C000C005002000000240F8030020A608002017
:1009D000B208002080B594B000AF07F120033022A8
:1009E0000021184609F02AF907F10C0300221A60C9
:1009F0005A609A60DA601A612A4B1B6C294A43F0EC
:100A000080531364274B1B6C03F08053BB60BB689F
:100A1000254B1B68244A43F440431360224B1B6858
:100A200003F440437B607B6801233B624FF48033D7
:100A30007B620223BB634FF48003FB6304233B64AC
:100A4000D8237B640223BB640223FB6407F12003E9
:100A5000184605F029F90346002B01D002F04EFF9D
:100A600005F0D2F80346002B01D002F047FF0F2318
:100A7000FB6002233B6100237B614FF4A053BB6109
:100A80004FF4A053FB6107F10C030721184605F052
:100A9000AFFB0346002B01D002F030FF00BF503700
:100AA000BD4680BD003802400070004080B500AFF8
:100AB0001B4B1C4A1A601A4B4FF482725A60184B37
:100AC00000229A60164B4FF4E062DA60144B022267
:100AD0001A61134B00225A61114B4FF400729A6154
:100AE0000F4B3822DA610E4B00221A620C4B0022A7
:100AF0005A620B4B00229A62094B0722DA62084BBA
:100B000000221A63064B08225A63054806F0E0F8F3
:100B10000346002B01D002F0F1FE00BF80BD00BFF4
:100B200018010020003C004080B500AF1B4B1C4A60
:100B30001A601A4B4FF482725A60184B00229A6066
:100B4000164B4FF4E062DA60144B02221A61134B29
:100B500000225A61114B4FF400729A610F4B3822F8
:100B6000DA610E4B00221A620C4B00225A620B4BC8
:100B700000229A62094B0722DA62084B00221A63AC
:100B8000064B08225A63054806F0A2F80346002BDC
:100B900001D002F0B3FE00BF80BD00BF7C01002089
:100BA0000034014080B588B000AF07F11003002287
:100BB0001A605A609A60DA603B1D00221A605A601F
:100BC0009A601E4B4FF080421A601C4B6B225A6099
:100BD0001A4B00229A60194B43F67F62DA60174B7A
:100BE00000221A61154B00229A61144806F0C8FED3
:100BF0000346002B01D002F081FE4FF480533B618D
:100C000007F1100319460D4807F05AF90346002B67
:100C100001D002F073FE00237B600023FB603B1DCC
:100C20001946064807F07EFB0346002B01D002F070
:100C300065FE00BF2037BD4680BD00BF60030020B9
:100C400080B588B000AF07F1100300221A605A6027
:100C50009A60DA603B1D00221A605A609A601D4B50
:100C60001D4A1A601B4B6B225A601A4B00229A6075
:100C7000184B43F67F62DA60164B00221A61154B5F
:100C800000229A61134806F07BFE0346002B01D038
:100C900002F034FE4FF480533B6107F11003194614
:100CA0000C4807F00DF90346002B01D002F026FE98
:100CB00000237B600023FB603B1D1946054807F0BD
:100CC00031FB0346002B01D002F018FE00BF203795
:100CD000BD4680BDAC0300200004004080B588B054
:100CE00000AF07F1100300221A605A609A60DA60C0
:100CF0003B1D00221A605A609A601E4B1E4A1A6001
:100D00001C4B42F62F225A601A4B00229A60194B54
:100D10004FF0FF32DA60174B00221A61154B0022A8
:100D20009A61144806F02CFE0346002B01D002F015
:100D3000E5FD4FF480533B6107F1100319460D4860
:100D400007F0BEF80346002B01D002F0D7FD0023C8
:100D50007B600023FB603B1D1946064807F0E2FA62
:100D60000346002B01D002F0C9FD00BF2037BD466D
:100D700080BD00BFF8030020000C004080B584B0A7
:100D800000AF3B1D00221A605A609A60144B154A4E
:100D90001A60134B6B225A60114B00229A60104B61
:100DA0004FF6FF72DA600E4B00229A610C4806F093
:100DB000E7FD0346002B01D002F0A0FD00237B607D
:100DC0000023FB603B1D1946054807F0ABFA0346BC
:100DD000002B01D002F092FD00BF1037BD4680BD50
:100DE000440400200010004080B584B000AF3B1DDB
:100DF00000221A605A609A60144B154A1A60134B0D
:100E00006B225A60114B00229A60104B6322DA6009
:100E10000E4B00229A610D4806F0B2FD0346002BEE
:100E200001D002F06BFD00237B600023FB603B1DC3
:100E30001946064807F076FA0346002B01D002F067
:100E40005DFD00BF1037BD4680BD00BF900400208F
:100E50000014004080B500AF0E4B0F4A1A600D4BD6
:100E600042F62F225A600B4B00229A60094B41F642
:100E70003F72DA60074B00221A61064B00229A612A
:100E8000044806F07DFD0346002B01D002F036FD3C
:100E900000BF80BDDC0400200044014080B500AFED
:100EA0000E4B0F4A1A600D4B6B225A600B4B0022FF
:100EB0009A600A4B4FF6FF72DA60084B00221A6103
:100EC000064B00229A61054806F05AFD0346002BA6
:100ED00001D002F013FD00BF80BD00BF2805002037
:100EE000001C004080B500AF0E4B0F4A1A600D4B3E
:100EF00045F25F425A600B4B00229A60094B4FF655
:100F0000FF72DA60074B00221A61064B00229A61D9
:100F1000044806F035FD0346002B01D002F0EEFC3C
:100F200000BF80BD740500200020004080B500AFE8
:100F3000184B1B689A68174B1B6842F001029A60B5
:100F4000144B154A1A60134B4FF416425A60114B5A
:100F500000229A600F4B0022DA600E4B00221A61C9
:100F60000C4B0C225A610B4B00229A61094B002258
:100F7000DA61084B00221A62064B00225A620548C9
:100F800007F07CFA0346002B01D002F0B7FC00BF4B
:100F900080BD00BFC00500200010014080B500AF3B
:100FA000154B164A1A60144B4FF416425A60124BF6
:100FB00000229A60104B0022DA600F4B00221A6167
:100FC0000D4B0C225A610C4B00229A610A4B0022F5
:100FD000DA61094B00221A62074B00225A62002391
:100FE00000220021044808F097FD0346002B01D0A1
:100FF00002F084FC00BF80BD48060020004800408D
:1010000080B582B000AF2E4B1B6B2D4A43F400130A
:1010100013632B4B1B6B03F400137B607B68284B23
:101020001B6B274A43F480031363254B1B6B03F4AC
:1010300080033B603B68002200210B2003F0B9FBDA
:101040000B2003F0D2FB002200210C2003F0B1FBA7
:101050000C2003F0CAFB002200210E2003F0A9FBA4
:101060000E2003F0C2FB00220021102003F0A1FBA0
:10107000102003F0BAFB00220021382003F099FB76
:10108000382003F0B2FB00220021392003F091FB4D
:10109000392003F0AAFB002200213A2003F089FB4B
:1010A0003A2003F0A2FB00220021462003F081FB3E
:1010B000462003F09AFB00BF0837BD4680BD00BF45
:1010C0000038024080B58AB000AF07F11403002257
:1010D0001A605A609A60DA601A613D4B1B6B3C4A99
:1010E00043F0100313633A4B1B6B03F010033B6197
:1010F0003B69374B1B6B364A43F080031363344B19
:101100001B6B03F08003FB60FB68314B1B6B304AA9
:1011100043F0010313632E4B1B6B03F00103BB6011
:10112000BB682B4B1B6B2A4A43F004031363284B09
:101130001B6B03F004037B607B68254B1B6B244A0D
:1011400043F002031363224B1B6B03F002033B606B
:101150003B6800224FF407611E4804F021FD002285
:1011600020211D4804F01CFD002203211B4804F02F
:1011700017FD4FF407637B610123BB610023FB6113
:1011800000233B6207F114031946124804F070FA79
:1011900020237B610123BB610023FB6100233B62B1
:1011A00007F1140319460C4804F062FA03237B612B
:1011B0000123BB610023FB6100233B6207F11403A1
:1011C0001946064804F054FA00BF2837BD4680BDD2
:1011D00000380240000002400008024000040240C3
:1011E00080B584B000AFB34B1B78013B1F2B00F2DE
:1011F0008A8701A252F823F07912000845150008E9
:10120000DD12000807210008C3180008471900086C
:10121000CD190008311B0008091C0008591C0008E2
:10122000871C00089F1C000807210008B11C00084B
:10123000FB1C00087D1D0008591E0008851E0008C3
:10124000A51E0008DD1E0008451F00080721000834
:101250006F1F0008891F0008A92000080721000847
:1012600007210008072100080721000807210008BE
:1012700007210008E720000805228F498F4805F064
:10128000D3FD05228E498F4805F0CEFD8E4B1B788D
:1012900083F00103DBB2002B1AD08C4B5B6F93F809
:1012A0003530DBB2012B13D105228949874807F07D
:1012B000F9F901224FF40061864804F071FC0A201C
:1012C00001F046FC00224FF40061824804F068FC03
:1012D0000021012001F0ACF900F015BF012103202D
:1012E00001F0A6F97C4B00221A807C4B00221A8068
:1012F000754B00221A707A4B00221A70794B00222B
:101300001A70794B6B4A92E8030018600433198015
:10131000754B5B78013B754A13441B7AB43B002B39
:10132000B8BF5B421AB2724B1A806F4B9B78013B7D
:101330006E4A13441B7A9BB2B4339BB21AB26D4B04
:101340001A80694BDB78013B6B4A083332F8132073
:101350006A4B1A80664BB3F90030042B11DC644BE6
:10136000B3F90030053B002BB8BF5B429AB2644B27
:101370001A80634B1B88C3F5B4739AB2604B1A8012
:1013800007E05B4BB3F900309BB2053B9AB25C4B74
:101390001A805C4B00221A705B4B00221A705B4B68
:1013A00000221A705A4B00221A705A4B00221A70EF
:1013B000594B00221A70524B1B885B04574A82FB20
:1013C00003121A441212DB17D31A1A46544B1A602E
:1013D000534B1B68424A12781146184601F02EFA08
:1013E00003464F4A13603E4B1B784D4A1268114624
:1013F000184600F00BFF3E4BB3F900305B04474A40
:1014000082FB03121A441212DB17D31A1A46454BF9
:101410001A60444B1B68324A12781146184601F094
:101420000DFA03463F4A1360344B1B881A463D4B66
:101430001B681344B3F5003F0AD9304B1B881A468A
:10144000384B1B681344A3F50033374A136007E099
:101450002A4B1B881A46334B1B681344324A1360CD
:10146000244BB3F900305B042C4A82FB03121A446C
:101470001212DB17D31A1A462C4B1A602B4B1B681F
:10148000174A12781146184601F0D8F90346274A40
:101490001360274B02221A70264B02221A70264B29
:1014A00001221A70254806F05BFB254806F058FB20
:1014B00000F029BE1C090020500800207C010020FB
:1014C0005808002018010020C4080020C005002092
:1014D0002C09002000000240A8080020B2080020CB
:1014E000780000204A09002024090020080000207C
:1014F00014090020160900201800002010090020FF
:1015000018090020C6080020C8080020C7080020CD
:10151000C9080020CA080020CB080020B7600BB61D
:10152000E8080020D808002058090020E008002022
:1015300048090020470900204909002090040020A4
:10154000600300200121022001F072F8794B002293
:101550001A80794B00221A80784B00221A80784B2F
:1015600000221A80774B00221A80774B00221A70D3
:10157000764B1B78002B14BF01230023DAB2744B87
:101580001A70744B00221A70734B744A92E803006D
:10159000186004331980704B5B78013B704A134428
:1015A0001B7AB43B002BB8BF5B421AB2614B1A8066
:1015B000694B9B78013B6A4A13441B7A9BB2B43354
:1015C0009BB21AB25C4B1A805A4BB3F90030042B11
:1015D00011DC584BB3F90030053B002BB8BF5B4220
:1015E0009AB2564B1A80554B1B88C3F5B4739AB206
:1015F000524B1A8007E04F4BB3F900309BB2053BCA
:101600009AB24E4B1A80574B00221A70564B00224A
:101610001A70564B00221A704D4B1B7883F0010351
:10162000DBB2002B00F0BA804B4BDB78013B504A19
:10163000083332F813204F4B1A80404B1B885B0451
:101640004D4A82FB03121A441212DB17D31A1A46B0
:101650004A4B1A60494B1B683D4A1278114618469E
:1016600001F0ECF80346454A1360394B1B78434AB6
:1016700012681146184600F0C9FD2E4BB3F9003030
:101680005B043D4A82FB03121A441212DB17D31A81
:101690001A463B4B1A603A4B1B682D4A127811468A
:1016A000184601F0CBF80346354A1360314B1B88CE
:1016B0001A46334B1B681344B3F5003F0AD92D4B30
:1016C0001B881A462E4B1B681344A3F500332D4A82
:1016D000136007E0274B1B881A46294B1B681344ED
:1016E000284A1360144BB3F900305B04224A82FB92
:1016F00003121A441212DB17D31A1A46224B1A602D
:10170000214B1B68124A12781146184601F096F8D0
:1017100003461D4A13601D4B01221A701C4B022206
:101720001A701C4806F01CFA1B4806F019FA00F063
:10173000E7BC00BF1409002016090020180900208A
:10174000A8080020B2080020C40800204B0900208F
:10175000780000204A090020240900201C090020EC
:1017600008000020C6080020C8080020C708002084
:101770001800002010090020B7600BB6E808002010
:10178000D808002058090020E0080020480900205F
:10179000470900209004002060030020924B1B7832
:1017A000002B00F0AD84914BDB78013B904A08336D
:1017B00032F813208F4B1A808F4B1B885B048F4AA3
:1017C00082FB03121A441212DB17D31A1A468C4BEF
:1017D0001A608B4B1B68844A12781146184601F038
:1017E0002DF80346864A13607F4B1B78844A1268A3
:1017F0001146184600F00AFD824BB3F900305B0435
:101800007E4A82FB03121A441212DB17D31A1A46BD
:101810007D4B1A607C4B1B68734A12781146184640
:1018200001F00CF80346784A1360724B1B881A4685
:10183000754B1B681344B3F5003F0AD96D4B1B88E9
:101840001A46714B1B681344A3F500336F4A1360AB
:1018500007E0684B1B881A466B4B1B6813446B4AA6
:1018600013606B4BB3F900305B04644A82FB0312D4
:101870001A441212DB17D31A1A46664B1A60654BCC
:101880001B68594A12781146184600F0D7FF0346E4
:10189000604A13605F4B1A685B4B1B689A4202D226
:1018A0005D4B01221A705D4B01221A705C4B0222C3
:1018B0001A705C4806F054F95B4806F051F900F0E4
:1018C0001FBC4A4B594A92E8030018600433198040
:1018D000574B1B6800225A62564B1B78002B03D0D3
:1018E000554B05221A7002E0534B00221A70534BDD
:1018F00000221A70524806F00BF93C4B5B785A1ED6
:101900004F4B1B684F4951F82220DA624C4B1B6841
:1019100000225A624C4806F0FBF8344B9B78013B9E
:101920004A4A32F813204A4B1A80494B1A88464BD0
:101930001B68DA62444B1B6800225A6201210520B1
:1019400000F076FEDFE30121062000F071FE334B4C
:1019500006221A70324B01221A703E4B1B881A461F
:10196000214B1B781946104600F068FF03463A4A9F
:101970001360394B1B68394A1360384B1B6803F5F9
:101980009673B3F5003F06D9344B1A68344B1344B1
:10199000324A136005E0314B1B6803F596732F4AFA
:1019A0001360304B00221A70002210212E4804F0E0
:1019B000F7F82A4B1B681946002000F027FC19484D
:1019C00006F0CEF8294806F0CBF89CE30121072069
:1019D00000F02EFE114B1B78022B02DC002B47DCA3
:1019E0009FE0042B72D09CE07800002024090020A6
:1019F000180000201209002018090020B7600BB65B
:101A0000EC08002014090020DC0800205C090020FC
:101A100016090020E4080020D00800204809002012
:101A20004709002090040020AC0300201C0900207E
:101A300028050020D30800207A000020CC080020D0
:101A4000F803002038000020740500205C0000200E
:101A5000A6080020CE080020F80800200809002071
:101A60002C01FEFFD108002000000240600300208E
:101A7000A84806F0EDF8A84806F0EAF8A74806F0EE
:101A8000E7F8A74B1B78002B13D0A64B1B78002B35
:101A90000FD1A34B1B781A4652001344DBB201331B
:101AA000DBB21A462121A04800F0C6FF9D4B01225F
:101AB0001A709B4B00221A709C4B01221A709C4B8F
:101AC00000221A709B4B00221A702AE09A4806F0F6
:101AD0001FF89A4806F01CF8914B1B78002B13D086
:101AE000904B1B78002B0FD18D4B1B781A46520060
:101AF0001344DBB20133DBB21A4621218A4800F0DD
:101B00009BFF884B01221A70854B00221A70874B6D
:101B100001221A70864B00221A70864B00221A701E
:101B200000BF874B00221A70864B01221A70EAE22E
:101B30000121082000F07CFD0023FB80824BDB7834
:101B4000002B30D0814B00221A60814B01221A7089
:101B50007D4B9B789BB21B02FB807B4B5B789AB2E0
:101B6000FB881343FB80FB885B047A4A82FB0312E9
:101B70001A441212DB17D31A1A46744B1A60734BAD
:101B80001B68734A12781146184600F057FE034648
:101B90006E4A13606E4B1B786C4A126811461846E9
:101BA00000F034FBAFE26C4B00221A60684B00225D
:101BB0001A70654B9B789BB21B02FB80624B5B7873
:101BC0009AB2FB881343FB80FB885B04614A82FB6B
:101BD00003121A441212DB17D31A1A465E4B1A600C
:101BE0005D4B1B685A4A12781146184600F026FED3
:101BF0000346594A1360564B1B78574A12681146E0
:101C0000184600F003FB7EE24F4B5B78002B14BFBD
:101C100001230023DAB24E4B1A700121092000F093
:101C200007FD484B01221A70454B09221A704B4B95
:101C300001221A70444B5B78002B06D1374805F01F
:101C40008FFF344805F08CFF5DE2344805F088FFD3
:101C5000314805F085FF56E2414B3B4A92E80300CC
:101C600018600433198001210A2000F0E1FC3C4B8C
:101C70005B78002B03D03B4B01221A7043E2394BB7
:101C800000221A703FE200F08DFD264B00221A70F0
:101C9000354B1B8801339AB2334B1A8033E200F084
:101CA000BFFF284B01221A70304B00221A702AE223
:101CB000254B9B78002B0DD02D4B00221A70012252
:101CC00010212C4803F06CFF012220212A4803F048
:101CD00067FF0CE0264B01221A70002210212548D4
:101CE00003F05EFF00222021234803F059FF164B2A
:101CF0005B78184600F01EFA05E2154B1B78002BA6
:101D000040F00082054805F02BFF024805F028FF4F
:101D1000F8E100BF60030020AC0300209004002025
:101D2000A50800204A0900208408002005000020A2
:101D3000C4080020CD08002074050020F80300200E
:101D400048090020470900201C0900200409002040
:101D500078000020B7600BB6000900204909002078
:101D6000240900204B090020B0080020C5080020ED
:101D70004509002000000240000802400121102017
:101D800000F056FCA94B08221A70A94B00221A60D9
:101D9000A84B9B781B021A46A54B1A60A54B5B7893
:101DA0001A46A34B1B681343A14A1360A24B1B782E
:101DB000002B29D0A14B00221A609E4BDB78002B10
:101DC00013D19B4B1B685B04DB089D4AA2FB0323DA
:101DD0009B08BB60994B1B68974A127811461846BE
:101DE00000F02CFD0346954A1360934B1B78934AF1
:101DF00012681146184600F009FA924805F0B0FE44
:101E0000914805F0ADFE7EE1904B00221A60894BAF
:101E1000DB78002B11D1864B1B685B04DB08884AFA
:101E2000A2FB03239B08BB60834B1B781946B86851
:101E300000F004FD0346854A13607F4B1B78834AFC
:101E400012681146184600F0E1F97E4805F088FE58
:101E50007F4805F085FE56E10121112000F0E8FBE6
:101E6000754B1B78002B06D0774805F0F1FE7548BE
:101E700005F0EEFE47E1764805F0EAFE714805F010
:101E8000E7FE40E10121122000F0D2FB694B5B78B4
:101E9000002B03D0684B01221A7034E1664B0022FC
:101EA0001A7030E10121132000F0C2FB694B1B685E
:101EB000694A1360694B1B68694A1360664B1B686B
:101EC000684A1360664B1B68664A5360664B1A6823
:101ED00002230221634800F013FD14E101211420C4
:101EE00000F0A6FB614B01221A70614B01221A70AF
:101EF000604B00221A704F4B5B78184600F0BAFD19
:101F000003461A465C4B1A704A4B9B78012B06D14C
:101F1000594B1B7863F07703DAB2574B1A70564B64
:101F20001A78554B5A70554806F000FC642301227C
:101F30005149524806F02DFB052251494F4806F001
:101F4000B1FBE0E005224F494C4806F0ABFB012213
:101F50004FF400614C4803F023FE012002F006FB21
:101F600000224FF40061484803F01AFECBE03E4BDC
:101F70001A68022302213B4800F00CFD3F4806F09E
:101F8000CBFAFEF7D3FFBEE02B4B1B7883F00103A7
:101F9000DBB2002B24D0012210213B4803F000FECD
:101FA0003A4B00221A7001222021374803F0F8FD35
:101FB000642002F0DBFA00222021334803F0F0FD18
:101FC00005223349334804F02FFF0021012000F09F
:101FD0002FFB2E4B1B780133DAB22C4B1A70E2E741
:101FE000012220212C4803F0DBFD284B00221A702F
:101FF00001220121294803F0D3FD642002F0B6FA42
:1020000000220121254803F0CBFD05222449254863
:1020100004F00AFF0021012000F00AFB1B4B1B7893
:102020000133DAB2194B1A70E2E700BF4809002009
:102030000C0900201C09002078000020FC0800206A
:10204000176CC11690040020AC030020F808002093
:102050006003002050090020F008002054090020EF
:10206000F4080020BC08002074000020C4080020F0
:10207000D3080020D4080020B4080020C0050020A8
:10208000000000202C09002000000240BB080020B6
:10209000500800207C01002000080240000402409B
:1020A00058080020180100201A4B1B7883F0010308
:1020B000DBB2002B0BD005221749184804F0B4FE00
:1020C000642305221449164806F063FA1BE0052232
:1020D0001449154804F0A8FE64230522114910484C
:1020E00006F057FA0FE00023FB6002E0FB680133C3
:1020F000FB60FB68812BF9DD0C4807F015FE02E060
:1021000000BF00E000BF0A4B00221A7000BF10376A
:10211000BD4680BD78000020500800207C010020D2
:1021200048060020580800201801002060A600087A
:102130004209002080B584B000AF0346FB712A4BF2
:102140001B7883F00103DBB2002B29D00023FB6056
:1021500021E001222021254803F022FD022002F087
:1021600005FA00222021214803F01AFD022002F086
:10217000FDF920211D4803F02CFD05221C491D48B6
:1021800004F052FE6423052219491B4806F001FAA7
:10219000FB680133FB60FB79FA689A42D9DB1BE0EC
:1021A0000023BB6014E00121144803F012FD042059
:1021B00002F0DCF905221249124804F035FE6423CE
:1021C00005220F490C4806F0E4F9BB680133BB60F7
:1021D000FB79BA689A42E6DB0B4B00221A7000BF0B
:1021E0001037BD4680BD00BF7800002000000240CF
:1021F000500800207C010020480600200004024016
:102200005808002018010020BA08002080B582B0CC
:1022100000AF03463960FB71FB7983F00103DBB249
:10222000002B40D0424B1B683A689A421DD2404B6B
:102230001A683B68D21A3E4B1B683968CB1A03F503
:1022400000339A4208D9012210213A4803F0A8FC31
:10225000394B00221A7066E000221021354803F045
:102260009FFC354B01221A705DE0314B1A683B68C8
:10227000D31A03F500322E4B1B683968CB1A9A42E9
:1022800008D2002210212B4803F08AFC2A4B01229D
:102290001A7048E001221021264803F081FC264BE9
:1022A00000221A703FE0254B1B683A689A421DD203
:1022B000224B1A683B68D21A204B1B683968CB1A2C
:1022C00003F500339A4208D9012220211C4803F06B
:1022D00067FC1C4B00221A7025E0002220211848C0
:1022E00003F05EFC174B01221A701CE0134B1A68B6
:1022F0003B68D31A03F50032104B1B683968CB1AC0
:102300009A4208D2002220210D4803F049FC0D4BCF
:1023100001221A7007E001222021094803F040FC45
:10232000084B00221A7000BF0837BD4680BD00BFB1
:1023300050090020000002404509002054090020F7
:10234000000802404609002080B582B000AF7860E6
:10235000391D4FF6FF730122034806F01AF97B6816
:1023600018460837BD4680BD4806002080B485B0B9
:1023700000AF78607B681B682B4A934202D12B4BDD
:1023800001221A707B681B68294A934245D1294B68
:102390001B78002B3ED00023FB60274B1B781A468E
:1023A000254B5B781344244A92781344FB60FB6806
:1023B000DBB2FB60204BDB781A46FB68934203D10B
:1023C0001D4B1B79A52B03D01C4B00221A700DE06E
:1023D000194B1A781A4B1B781B09DBB29A4205D0AD
:1023E000164B00221A70174B01221A70164B1B78DD
:1023F000002B09D0144B00221A70144B00221A70C3
:10240000134B00221A7002E0104B01221A70094B84
:1024100000221A700F4B01221A7000BF1437BD46FC
:102420005DF8047B704700BF00480040420900206F
:1024300000100140C40800200000002047090020CF
:10244000B4080020C508002079000020D40800202E
:10245000D30800204109002080B483B000AF786029
:102460007B681B68234A93421CD1234B9B785B09F2
:10247000DBB203F00703214A13601F4B5B78DA00DD
:102480001E4B1B6813431D4A13601B4B1B78DB025A
:1024900003F4FC32194B1B681343184A1360184BA2
:1024A00001221A707B681B68164A93421CD1164B96
:1024B0009B785B09DBB203F00703144A1360124BED
:1024C0005B78DA00114B1B681343104A13600E4B04
:1024D0001B78DB0203F4FC320C4B1B6813430B4AE2
:1024E00013600B4B01221A7000BF0C37BD465DF81C
:1024F000047B704700340140500800205009002040
:1025000043090020003C00405808002054090020E6
:102510004409002080B582B000AF78607B681B68FA
:10252000B3F1804F07D120212C4803F052FB2C4BF4
:102530001B6800225A627B681B682A4A934207D1B3
:102540000121294803F045FB284B1B6800225A62F1
:102550007B681B68264A934215D1264B1B7883F073
:102560000103DBB2002B05D005222349234804F0E8
:102570005BFC04E005222249224804F055FC224B72
:102580001B6800225A627B681B68204A934206D16E
:102590001F4805F0BDFA1E4B1B6800225A627B687B
:1025A0001B681C4A934208D11B4805F0B1FA1B482E
:1025B00005F0AEFA1A4B01221A707B681B68194AA3
:1025C000934206D1184B01221A70184B5B6F93F897
:1025D000353000BF0837BD4680BD00BF0000024057
:1025E000600300200004004000040240AC0300200F
:1025F0000014004078000020500800207C010020DA
:1026000058080020180100209004002000440140D8
:10261000DC040020000C004074050020F8030020BA
:10262000CC08002000200040D5080020C005002074
:1026300080B584B000AF03460A46FB711346BB71F8
:102640004C4B00221A80FB79012B77D14A4B012297
:102650001A704A4B1A78484B5A70494B1A78464BB5
:102660009A70484B1B781A46434BDA70464B1A78DF
:10267000414B1A71454B1A783F4B5A71444B1A78AB
:102680003D4B9A71424B5A783B4BDA71404B9A78EA
:10269000394B1A723F4B1B68DAB2374B5A723D4BBB
:1026A0001B681B0ADAB2344B9A723A4B1B681B0C3C
:1026B000DAB2314BDA72384B1B68DAB22E4BDA736E
:1026C000354B1B681B0ADAB22B4B1A74324B1B6852
:1026D0001B0CDAB2284B5A74274B0022DA77264BB0
:1026E000002283F820200023FB6016E0224AFB68CA
:1026F00013441B789AB2FB6801331F49CB5C9BB231
:102700001B029BB213449AB21A4B1B8813449AB211
:10271000184B1A80FB680233FB60FB681D2BE5DD5C
:10272000154B9B7F9AB2134B1B8813449AB2114BE3
:102730001A801A4B0F4A12881A8010E021210E4885
:1027400000F05EF90C4AFB7913700B4ABB795370A9
:10275000094AFB79D377084ABB7982F82030642391
:10276000212205490E4805F014FF00BF1037BD4671
:1027700080BD00BFB6080020600800204709002087
:1027800048090020490900204A0900204C0900207E
:102790003409002050090020540900207F0800203F
:1027A0004806002080B582B000AF0023FB801F4B9D
:1027B0000B221A701D4B0022DA771C4B002283F883
:1027C000202000233B6013E0184A3B6813441B7829
:1027D0009AB23B6801331549CB5C9BB21B029BB29A
:1027E00013449AB2FB881344FB803B6802333B607E
:1027F0003B681D2BE8DD0D4B9B7F9AB2FB88134491
:10280000FB800B4AFB8813800A4805F08FFF642386
:1028100021220649074805F0BCFE06220649054864
:1028200005F040FF00BF0837BD4680BD840800208A
:10283000A3080020480600201C09002080B485B0B1
:1028400000AF78600B46FB700023FB60FB78002B29
:1028500014D01E4B1A687B681344B3F5003F07D9A8
:102860001A4B1A687B681344A3F50033FB6019E028
:10287000164B1B687A681344FB6013E0144B1A680C
:102880007B681344B3F5003F07D9114B1A687B6886
:102890001344A3F50033FB6004E00D4B1B687A681A
:1028A0001344FB60FB68002B01D15C23FB60FB68D9
:1028B000B3F5003F02D1FB685C3BFB60FB68184648
:1028C0001437BD465DF8047B704700BFF408002054
:1028D000F008002080B400AF084B00221A60074BBC
:1028E0000222DA60054B03225A60044B01229A60EF
:1028F00000BFBD465DF8047B704700BF08010020A3
:10290000B0B586B000AFF8607A603B600B46FB72F2
:1029100002F062FC1D491E4802F0CEFD0346002B6A
:102920002ED10023FB753B68022B02D10423FB75DB
:1029300004E03B68012B01D10223FB750023BB752A
:1029400017E0BB7D9B00FA6813441B6800221C46FD
:10295000154622462B467968386802F0E3FB0346A9
:10296000002B0FD1FB7D7A6813447B60BB7D013364
:10297000BB75BA7DFB7A9A42E3D302F04FFC02E0CA
:1029800000BF00E000BF1837BD46B0BD60090020A1
:102990000801002080B487B000AFF8607A603B6027
:1029A0000B46FB720023FB7500233B613B68022B47
:1029B00002D10423FB7504E03B68012B01D1022303
:1029C000FB750023BB820FE07B681B683B61BB8A01
:1029D0009B00FA6813443A691A60FB7D7A681344D5
:1029E0007B60BB8A0133BB82FB7A9BB2BA8A9A4274
:1029F000EAD300BF00BF1C37BD465DF8047B7047BB
:102A000080B485B000AF78600B46FB700023FB7389
:102A100007E0FB7B7A68134400221A70FB7B0133CA
:102A2000FB73FA7BFB789A42F3D300BF00BF1437E5
:102A3000BD465DF8047B704780B485B000AF786018
:102A40000B46FB701346BB70BB78FB7307E0FB7B48
:102A50007A68134400221A70FB7B0133FB73FA7B04
:102A6000FB789A42F3D300BF00BF1437BD465DF830
:102A7000047B704780B483B000AF0346FB71FB79E1
:102A8000802B5CD0802B5CDC202B47DC002B58DDBE
:102A9000013B1F2B55D801A252F823F0232B00082D
:102AA000272B0008432B00082B2B0008432B000882
:102AB000432B0008432B00082F2B0008432B000852
:102AC000432B0008432B0008432B0008432B00082E
:102AD000432B0008432B0008332B0008432B00082E
:102AE000432B0008432B0008432B0008432B00080E
:102AF000432B0008432B0008432B0008432B0008FE
:102B0000432B0008432B0008432B0008432B0008ED
:102B1000432B0008432B0008372B0008402B0CD018
:102B20000FE000230EE011230CE022230AE0332300
:102B300008E0442306E0552304E0662302E07723FF
:102B400000E0012318460C37BD465DF8047B704752
:102B500080B483B000AF0346FB80094B1B680022A2
:102B60005A6200BF064B1B685A6AFB889A42F9D327
:102B700000BF00BF0C37BD465DF8047B704700BF47
:102B80004404002080B400AF1F4B1B781A461E4B34
:102B90005B7813441C4A92781344DBB21A4AD27809
:102BA00093422CD1184B1B79A52B28D1174B1B789E
:102BB000002B12D0144B1A78154B1A70124B5A78FE
:102BC000134B5A70104B9A78114B9A70114B1B880B
:102BD00001339AB20F4B1A800BE00B4B1A780E4B55
:102BE0001A70094B5A780C4B5A70074B9A780A4B5B
:102BF0009A700A4B1B8801339AB2084B1A8000BFA7
:102C0000BD465DF8047B70472C090020CD080020EC
:102C10003C090020AA08002034090020AC0800204C
:102C200080B500AF21210D48FFF7EAFE0B4B0C22C7
:102C30001A700B4B1A78094B5A70084B0C22DA7732
:102C4000074B1A78054B83F820206423212203497F
:102C5000044805F09EFC00BF80BD00BF6008002056
:102C6000C50800204806002080B500AF1A4B1B782D
:102C7000002B17D0194B1B681A1F194B1B689A425F
:102C800027D8164B1B681A1D164B1B689A4220D377
:102C9000154804F0DDFF154804F0DAFF144B00225C
:102CA0001A7016E0134B1B681A1F0E4B1B689A42D2
:102CB0000FD8104B1B681A1D0A4B1B689A4208D389
:102CC0000D4804F0C5FF094804F0C2FF084B00227C
:102CD0001A7000BF80BD00BF78000020FC080020F3
:102CE0005409002050090020AC030020900400206B
:102CF00048090020F80800206003002080B500AFDC
:102D00001F4B1B78002B1CD01E4B1B68A3F12E02FF
:102D10001D4B1B689A4230D81A4B1B6803F12E02D8
:102D2000194B1B689A4228D3184804F091FF1848A1
:102D300004F08EFF174B00221A70174B00221A70F6
:102D40001BE0164B1B68A3F12E02154B1B689A4221
:102D500013D8124B1B6803F12E02114B1B689A42C9
:102D60000BD3104804F074FF094804F071FF094BBD
:102D700000221A70084B00221A7000BF80BD00BFED
:102D8000780000200409002054090020AC03002032
:102D90009004002048090020490900200009002073
:102DA000500900206003002080B500AF1A4B1B784B
:102DB00083F00103DBB2002B13D0184B1B68A3F187
:102DC0002E02174B1B689A4224D8144B1B6803F140
:102DD0002E02134B1B689A421CD30F4B01221A7010
:102DE00018E0104B1B68A3F12E020D4B1B689A4292
:102DF00010D80C4B1B6803F12E02094B1B689A423A
:102E000008D3094804F024FF084804F021FF084BC8
:102E100000221A7000BF80BDD108002008090020E0
:102E200050090020F80800206003002090040020D2
:102E30004809002080B500AF854B1B7883F0010363
:102E4000DBB2002B21D0834B01221A70824B1B680E
:102E50005A1F824B1B689A4217D87F4B1B685A1D1A
:102E60007E4B1B689A4210D37D4804F0F1FE7D4BE7
:102E70001B787D4A126811461846FFF7C7F9744B54
:102E800001221A70764804F06BFE714B1B78002B00
:102E900000F09F80754B1B7883F00103DBB2002BA1
:102EA0002AD06C4B00221A706F4B1B685A1F6B4B59
:102EB0001B689A4220D86C4B1B685A1D674B1B68D5
:102EC0009A4219D3694B01221A7005226849694850
:102ED00005F0E8FB01224FF40061674802F060FE54
:102EE000664B01221A700A20FFF732FE00224FF4CF
:102EF0000061614802F054FE5C4B1B78002B68D0E7
:102F00005F4B1B7883F00103DBB2002B61D0534B86
:102F10001A685C4B1B689A4228D35A4B1B6803F112
:102F20002E024E4B1B689A4220D30522504951482D
:102F300005F0B8FB01224FF400614F4802F030FE6B
:102F40004E4B01221A700A20FFF702FE00224FF4B6
:102F50000061494802F024FE4B4B1B8801339AB2B2
:102F6000494B1A80464B01221A7070E0474B1B6890
:102F70001A1F3A4B1B689A422BD8444B1B681A1DE8
:102F8000364B1B689A4224D3414B1B881A463F4B51
:102F90001B6813443D4A136005223549354805F046
:102FA00081FB01224FF40061334802F0F9FD334BFD
:102FB00001221A700A20FFF7CBFD00224FF40061B6
:102FC0002D4802F0EDFD304B1B8801339AB22E4B99
:102FD0001A802B4B1B78002B39D0284B1B7883F0A1
:102FE0000103DBB2002B32D02A4B1B78002B2ED1F1
:102FF000294B1B78002B0FD0274B1B781A46520009
:103000001344DBB20133DBB21A4621212348FFF718
:1030100013FD204B01221A701F4B00221A70204B07
:1030200001221A701F4B00221A701F4B00221A70C7
:103030001E4B01221A70124B01221A700F4B0022F4
:103040001A70074804F004FE194804F001FE80BD20
:10305000C808002049090020E80800205009002085
:103060006003002078000020D8080020C608002057
:103070002C090020C005002000000240CD080020DF
:10308000C7080020E0080020B208002058090020EE
:10309000100900204A090020A5080020840800200B
:1030A0000500002048090020C4080020470900202E
:1030B0009004002080B500AF864B1B7883F001039D
:1030C000DBB2002B21D0844B01221A70834B1B688A
:1030D0005A1F834B1B689A4217D8804B1B685A1D96
:1030E0007F4B1B689A4210D37E4804F0B1FD7E4BA3
:1030F0001B787E4A126811461846FFF787F8754B11
:1031000001221A70774804F02BFD724B1B78002BBC
:1031100000F0A180764B1B7883F00103DBB2002B1B
:103120002AD06D4B00221A70704B1B685A1F6C4BD3
:103130001B689A4220D86D4B1B685A1D684B1B6850
:103140009A4219D36A4B01221A70052269496A48CA
:1031500005F0A8FA01224FF40061684802F020FD52
:10316000674B01221A700220FFF7F2FC00224FF495
:103170000061624802F014FD5D4B1B78002B6AD0A1
:10318000604B1B7883F00103DBB2002B63D05E4BF6
:103190001B68A3F10802524B1B689A4228D85A4B6D
:1031A0001B6803F108024E4B1B689A4220D305228C
:1031B0005049514805F076FA01224FF400614F481A
:1031C00002F0EEFC4E4B01221A700220FFF7C0FC09
:1031D00000224FF40061494802F0E2FC4B4B1B888F
:1031E00001339AB2494B1A80464B01221A7070E0A3
:1031F000474B1B681A1F3A4B1B689A422BD8444B0B
:103200001B681A1D364B1B689A4224D3414B1B88FE
:103210001A463F4B1B6813443D4A1360052235494B
:10322000354805F03FFA01224FF40061334802F0BF
:10323000B7FC334B01221A700220FFF789FC0022F1
:103240004FF400612D4802F0ABFC304B1B8801337A
:103250009AB22E4B1A802B4B1B78002B39D0284B5F
:103260001B7883F00103DBB2002B32D02A4B1B7892
:10327000002B2ED1294B1B78002B0FD0274B1B780E
:103280001A4652001344DBB20133DBB21A46212145
:103290002348FFF7D1FB204B01221A70214804F08C
:1032A000D7FC104804F0D4FC1C4B00221A701E4BB3
:1032B00001221A701D4B00221A701D4B00221A7039
:1032C0001C4B01221A700F4B01221A700C4B00226A
:1032D0001A7080BDC808002049090020EC080020B1
:1032E00054090020AC03002078000020DC080020F6
:1032F000C60800202C090020C00500200000024064
:10330000CD080020C7080020E4080020B2080020F3
:103310005C090020120900204A090020A5080020AD
:1033200084080020900400200500002048090020A7
:10333000C40800204709002080B582B000AF984B38
:103340001B7883F00103DBB2002B02D0944B0122E7
:103350001A70934B1B78002B00F0E380914B1B7885
:1033600083F00103DBB2002B00F0DB808E4B1B7877
:1033700083F00103DBB2002B21D08C4B01221A70A9
:103380008B4B1B685A1F8B4B1B689A4217D8884B74
:103390001B685A1D874B1B689A4210D3864804F05D
:1033A00057FC864B1B78864A126811461846FEF772
:1033B0002DFF7D4B01221A707F4804F0D1FB7A4B20
:1033C0001B78002B00F0AD807E4B1B7883F001034F
:1033D000DBB2002B2AD0754B00221A70784B1B6889
:1033E0005A1F744B1B689A4220D8754B1B685A1D94
:1033F000704B1B689A4219D3724B01221A70052236
:103400007149724805F04EF901224FF4006170488D
:1034100002F0C6FB6F4B01221A700220FFF798FBE7
:1034200000224FF400616A4802F0BAFB654B1B783A
:10343000002B76D0684B1B7883F00103DBB2002BA6
:103440006FD0664B1B68A3F108025A4B1B689A4267
:1034500034D8624B1B6803F10802564B1B689A4232
:103460002CD35F4B1B78002B0FD05D4B1B781A467B
:1034700052001344DBB20133DBB21A462121594812
:10348000FFF7DAFA584B01221A70554B00221A70D6
:10349000564B01221A70564B00221A704D4B0022D7
:1034A0001A70454804F0D4FB524804F0D1FB3D4B60
:1034B00001221A703D4B01221A7032E04E4B1B68FC
:1034C0001A1F3C4B1B689A422BD84B4B1B681A1D8A
:1034D000384B1B689A4224D3484B1B881A46464BEC
:1034E0001B681344444A136005223749374805F0E6
:1034F000D9F801224FF40061354802F051FB354BF9
:1035000001221A700220FFF723FB00224FF4006112
:103510002F4802F045FB3A4B1B8801339AB2384BD7
:103520001A80204B1B78002B00F0A580354B1B78B0
:10353000002B02D000F0B4F89DE01A4B1B78002B52
:1035400000F099802B4804F083FB2F4804F080FBA7
:103550001C4B00221A70144B00221A701E4B0022C2
:103560001A70174B1B687B601C4A7B6813601B4BEF
:103570001B68134A1360254BB3F90030B3F5B27FD3
:1035800048DB224BB3F900300533002BB8BF5B4258
:103590009AB21F4B1A801E4B4FF698621A8041E078
:1035A000CB080020C9080020C808002049090020D5
:1035B000E808002050090020600300207800002067
:1035C000D8080020C60800202C090020C0050020D3
:1035D00000000240CD080020C7080020E0080020BD
:1035E000A5080020840800204A09002005000020CA
:1035F000C408002090040020580900201009002071
:10360000B2080020CA080020AC03002016090020E0
:10361000180900201A4BB3F900309BB205339AB257
:10362000184B1A80174B1B885B04174A82FB031246
:103630001A441212DB17D31A1A46144B1A60134B92
:103640001B68134A127811461846FFF7F7F803462D
:103650000E4A13600E4B1B780C4A1268114618462E
:10366000FEF7D4FD0B4B01221A700B4804F078FAD8
:103670000A4804F075FA00BF0837BD4680BD00BF98
:103680001609002018090020B7600BB6E8080020D2
:1036900078000020CA080020900400206003002069
:1036A00080B500AF6E4B1B7883F00103DBB2002BBB
:1036B00021D06C4B01221A706B4B1B685A1F6B4B4D
:1036C0001B689A4217D8684B1B685A1D674B1B68CA
:1036D0009A4210D3664804F0BBFA664B1B78664AE0
:1036E000126811461846FEF791FD5D4B01221A70D3
:1036F0005F4804F035FA5A4B1B78002B00F0AE807F
:103700005E4B1B7883F00103DBB2002B2AD0554BB4
:1037100000221A70584B1B685A1F544B1B689A4260
:1037200020D8554B1B685A1D504B1B689A4219D321
:10373000524B01221A7005225149524804F0B2FF3F
:1037400001224FF40061504802F02AFA4F4B012247
:103750001A700220FFF7FCF900224FF400614A487A
:1037600002F01EFA454B1B78002B77D0484B1B7894
:1037700083F00103DBB2002B70D0464B1B681A1F8D
:103780003A4B1B689A4236D8424B1B681A1D374B7E
:103790001B689A422FD3404B1B78002B0FD03E4B17
:1037A0001B781A4652001344DBB20133DBB21A46CF
:1037B00021213A48FFF740F9394B01221A70364B64
:1037C00000221A70374B01221A70374B00221A70F0
:1037D000364B00221A70364B01221A702C4B0122F4
:1037E0001A702A4B00221A70214804F031FA31482D
:1037F00004F02EFA32E0304B1B681A1F1B4B1B687B
:103800009A422BD82C4B1B681A1D184B1B689A42E6
:1038100024D32A4B1B881A46274B1B681344264A7D
:10382000136005221649174804F03CFF01224FF4AB
:103830000061154802F0B4F9144B01221A700220FD
:10384000FFF786F900224FF400610F4802F0A8F953
:103850001B4B1B8801339AB2194B1A8000BF80BDE5
:10386000C808002049090020E8080020500900206D
:103870006003002078000020D8080020C60800203F
:103880002C090020C005002000000240CD080020C7
:10389000C7080020E0080020A508002084080020B8
:1038A0004A0900200500002048090020C408002023
:1038B000470900209004002058090020100900202A
:1038C000B208002080B485B000AF78607B68D3F880
:1038D000843003F00803002B08D07B681B680822A3
:1038E0001A62054B1B685B6ADBB2FB7300BF1437BF
:1038F000BD465DF8047B7047C005002080B400AF72
:1039000072B600BFFEE7000080B483B000AF0F4B7B
:103910001B6C0E4A43F0805313640C4B1B6C03F07A
:1039200080537B607B68094B5B6C084A43F480439F
:103930005364064B5B6C03F480433B603B6800BF01
:103940000C37BD465DF8047B704700BF003802406D
:1039500080B58CB000AF786007F11C0300221A60BC
:103960005A609A60DA601A617B681B68984A9342D1
:1039700040F0A080974B1B6C964A43F400431364BD
:10398000944B1B6C03F40043BB61BB69914B1B6BF5
:10399000904A43F0020313638E4B1B6B03F0020348
:1039A0007B617B698B4B1B6B8A4A43F00403136377
:1039B000884B1B6B03F004033B613B690423FB61F1
:1039C00002233B6200237B620323BB620723FB626B
:1039D00007F11C031946804801F04AFE4FF440638A
:1039E000FB6102233B6200237B620323BB6206234D
:1039F000FB6207F11C031946784801F039FE784B49
:103A0000784A1A60764B00225A60754B00229A6001
:103A1000734B0022DA60724B4FF480621A61704B74
:103A200000225A616E4B00229A616D4B0022DA61CE
:103A30006B4B00221A626A4B00225A62684800F0FF
:103A4000FDFE0346002B01D0FFF758FF7B68644A58
:103A50009A65634A7B689363634B644A1A60624B5E
:103A600000225A60604B40229A605F4B0022DA606D
:103A70005D4B4FF480621A615B4B00225A615A4BD6
:103A800000229A61584B0022DA61574B00221A62D9
:103A9000554B00225A62544800F0D0FE0346002BDA
:103AA00001D0FFF72BFF7B684F4A5A654E4A7B686F
:103AB000936389E07B681B684D4A934240F08480A1
:103AC000444B5B6C434A43F400535364414B5B6C7F
:103AD00003F40053FB60FB683E4B1B6B3D4A43F015
:103AE000100313633B4B1B6B03F01003BB60BB68FD
:103AF0006423FB6102233B6200237B620323BB62DE
:103B00000523FB6207F11C0319463A4801F0B0FD9A
:103B1000394B3A4A1A60384B4FF000625A60364BC4
:103B200000229A60344B0022DA60334B4FF48062FB
:103B30001A61314B00225A612F4B00229A612E4BA1
:103B40000022DA612C4B00221A622B4B00225A62AF
:103B5000294800F073FE0346002B01D0FFF7CEFE8C
:103B60007B68254A9A65244A7B689363244B254ADF
:103B70001A60234B4FF000625A60214B40229A603A
:103B80001F4B0022DA601E4B4FF480621A611C4BFF
:103B900000225A611A4B00229A61194B0022DA6105
:103BA000174B00221A62164B00225A62144800F08A
:103BB00045FE0346002B01D0FFF7A0FE7B68104AAC
:103BC0005A650F4A7B68936300BF3037BD4680BD9E
:103BD000003C00400038024000040240000802405F
:103BE000E001002010600240400200208860024096
:103BF0000034014000100240A00200201064024086
:103C0000000300202864024080B58AB000AF7860CD
:103C10007B681B68B3F1804F14D15F4B1B6C5E4A0D
:103C200043F0010313645C4B1B6C03F001037B62E4
:103C30007B6A002200211C2000F0BBFD1C2000F04C
:103C4000D4FDA4E07B681B68544A934214D1524BC4
:103C50001B6C514A43F0020313644F4B1B6C03F07F
:103C600002033B623B6A002200211D2000F0A1FDFF
:103C70001D2000F0BAFD8AE07B681B68484A934229
:103C800014D1454B1B6C444A43F008031364424B68
:103C90001B6C03F00803FB61FB690022002132204A
:103CA00000F087FD322000F0A0FD70E07B681B680B
:103CB0003C4A93420CD1384B1B6C374A43F01003FB
:103CC0001364354B1B6C03F01003BB61BB695EE0F2
:103CD0007B681B68344A934214D12F4B1B6C2E4ACD
:103CE00043F0200313642C4B1B6C03F020037B6117
:103CF0007B6900220021372000F05BFD372000F0B7
:103D000074FD44E07B681B68284A934214D1224B1F
:103D10005B6C214A43F4003353641F4B5B6C03F428
:103D200000333B613B6900220021192000F041FD76
:103D3000192000F05AFD2AE07B681B681C4A934258
:103D40000CD1154B1B6C144A43F080031364124BC7
:103D50001B6C03F08003FB60FB6818E07B681B684A
:103D6000144A934213D10C4B1B6C0B4A43F48073DF
:103D70001364094B1B6C03F48073BB60BB680022A7
:103D800000212D2000F015FD2D2000F02EFD00BF9C
:103D90002837BD4680BD00BF003802400004004007
:103DA000000C00400010004000140040004401409E
:103DB000001C00400020004080B5ACB000AF78602F
:103DC00007F19C0300221A605A609A60DA601A6157
:103DD00007F11C0380220021184605F02FFF7B68A5
:103DE0001B68534A934240F0B1804023FB6100239B
:103DF000BB6507F11C03184602F020FC0346002BAC
:103E000001D0FFF77BFD4B4B5B6C4A4A43F010033C
:103E10005364484B5B6C03F01003BB61BB69454BBB
:103E20001B6B444A43F001031363424B1B6B03F0CB
:103E300001037B617B694FF4C063C7F89C300223A8
:103E4000C7F8A0300023C7F8A4300323C7F8A83070
:103E50000723C7F8AC3007F19C031946364801F038
:103E600007FC364B364A1A60344B4FF000625A60FA
:103E7000324B00229A60314B0022DA602F4B4FF414
:103E800080621A612D4B00225A612C4B00229A61EC
:103E90002A4B0022DA61294B4FF400321A62274B79
:103EA00000225A62254800F0C9FC0346002B01D0CD
:103EB000FFF724FD7B68214A5A67204A7B68936399
:103EC000204B214A1A601F4B4FF000625A601D4B75
:103ED00040229A601B4B0022DA601A4B4FF480623A
:103EE0001A61184B00225A61164B00229A61154B39
:103EF0000022DA61134B4FF480321A62114B002218
:103F00005A62104800F09AFC0346002B01D0FFF7DC
:103F1000F5FC7B680B4A1A670A4A7B6893630022A8
:103F20000021252000F045FC252000F05EFCB6E0D5
:103F3000001001400038024000000240D00600207E
:103F40004064024030070020B86402407B681B6870
:103F5000554A934240F0A3804FF48073FB610023E5
:103F60003B6607F11C03184602F068FB0346002B72
:103F700001D0FFF7C3FC4D4B1B6C4C4A43F480232C
:103F800013644A4B1B6C03F480233B613B69474B32
:103F90001B6B464A43F002031363444B1B6B03F055
:103FA0000203FB60FB684FF49843C7F89C30022380
:103FB000C7F8A0300023C7F8A4300323C7F8A830FF
:103FC0000723C7F8AC3007F19C031946384801F0C5
:103FD0004FFB384B384A1A60364B4FF000625A603C
:103FE000344B00229A60334B0022DA60314B4FF49D
:103FF00080621A612F4B00225A612E4B00229A6177
:104000002C4B4FF48072DA612A4B00221A62294B42
:1040100000225A62274800F011FC0346002B01D011
:10402000FFF76CFC7B68234A5A67224A7B689363DC
:10403000224B234A1A60214B4FF000625A601F4BFB
:1040400040229A601D4B0022DA601C4B4FF48062C4
:104050001A611A4B00225A61184B00229A61174BC1
:104060004FF48072DA61154B00221A62134B002262
:104070005A62124800F0E2FB0346002B01D0FFF722
:104080003DFC7B680D4A1A670C4A7B6893630022EB
:104090000021272000F08DFB272000F0A6FB00BFA9
:1040A000B037BD4680BD00BF004800400038024028
:1040B000000402409007002028600240F007002022
:1040C0005860024080B582B000AF78607B681B68A2
:1040D0001E4A934218D11E4B5B6C1D4A23F01003FD
:1040E00053644FF4C0611B4801F05EFC7B685B6F5A
:1040F000184600F051FC7B681B6F184600F04CFC22
:10410000252000F080FB1CE07B681B68124A93426C
:1041100017D10F4B1B6C0E4A23F4802313644FF40A
:1041200098410E4801F040FC7B685B6F184600F038
:1041300033FC7B681B6F184600F02EFC272000F034
:1041400062FB00BF0837BD4680BD00BF00100140C4
:1041500000380240000002400048004000040240D5
:1041600080B400AFFEE780B400AFFEE780B400AFDC
:10417000FEE780B400AFFEE780B400AFFEE780B496
:1041800000AF00BFBD465DF8047B704780B400AF50
:1041900000BFBD465DF8047B704780B400AF00BF30
:1041A000BD465DF8047B704780B500AF00F0BEF9F6
:1041B00000BF80BD80B500AF024800F03DFD00BFEC
:1041C00080BD00BFE001002080B500AF024800F0D4
:1041D00033FD00BF80BD00BF9007002080B500AF59
:1041E000024800F029FD00BF80BD00BFF00700209D
:1041F00080B500AF024800F01FFD00BF80BD00BFCA
:104200004002002080B500AF024803F051FD00BF1E
:1042100080BD00BFDC04002080B500AF024803F081
:1042200047FD00BF80BD00BF6003002080B500AF28
:10423000024803F03DFD00BF80BD00BFAC0300207D
:1042400080B500AF024804F003FB00BF80BD00BF93
:10425000C005002080B500AF024804F0F9FA00BFA5
:1042600080BD00BF4806002080B500AF024803F0C3
:104270001FFD00BF80BD00BF7405002080B500AFEA
:10428000024803F015FD00BF80BD00BFF803002009
:1042900080B500AF024803F00BFD00BF80BD00BF3A
:1042A0009004002080B500AF024800F0C5FC00BFBC
:1042B00080BD00BFA002002080B500AF024800F022
:1042C000BBFC00BF80BD00BF0003002080B500AF75
:1042D000024800F0B1FC00BF80BD00BFD006002046
:1042E00080B500AF024800F0A7FC00BF80BD00BF52
:1042F0003007002080B586B000AFF860B9607A6002
:1043000000237B610AE0AFF300800146BB685A1CC2
:10431000BA60CAB21A707B6901337B617A697B68C3
:104320009A42F0DB7B6818461837BD4680BD80B5E1
:1043300086B000AFF860B9607A6000237B6109E065
:10434000BB685A1CBA601B781846FDF7FDFF7B69F5
:1043500001337B617A697B689A42F1DB7B6818469E
:104360001837BD4680BD80B483B000AF78604FF091
:10437000FF3318460C37BD465DF8047B704780B4A8
:1043800083B000AF786039603B684FF400525A60E8
:10439000002318460C37BD465DF8047B704780B497
:1043A00083B000AF7860012318460C37BD465DF836
:1043B000047B704780B485B000AFF860B9607A6064
:1043C000002318461437BD465DF8047B7047000093
:1043D00080B586B000AF7860144A154BD31A7B6164
:1043E0007B693B61134B1B68002B02D1114B124AB6
:1043F0001A60104B1A687B6813443A699A4207D2D4
:1044000005F0F2FB03460C221A604FF0FF3309E07F
:10441000084B1B68FB60074B1A687B681344054A0E
:104420001360FB6818461837BD4680BD00000420A5
:1044300000040000640900209809002080B400AF47
:10444000064BD3F88830054A43F47003C2F888302D
:1044500000BFBD465DF8047B704700BF00ED00E083
:10446000DFF834D0FFF7EAFF0C480D490D4A00236E
:1044700002E0D458C4500433C4188C42F9D30A4A19
:104480000A4C002301E013600432A242FBD305F082
:10449000B1FBFCF747F87047000004200000002043
:1044A000EC000020F8A60008EC000020980900208D
:1044B000FEE780B500AF032000F070F9002000F0A7
:1044C00005F8FFF721FA0023184680BD80B582B0B9
:1044D00000AF7860124B1A68124B1B7819464FF4E4
:1044E0007A73B3FBF1F3B2FBF3F3184600F099F9DA
:1044F0000346002B01D001230EE07B680F2B0AD866
:10450000002279684FF0FF3000F053F9064A7B68CB
:104510001360002300E0012318460837BD4680BD24
:104520007C000020840000208000002080B400AFC8
:10453000064B1B781A46064B1B681344044A13604B
:1045400000BFBD465DF8047B704700BF84000020BB
:104550006809002080B400AF034B1B681846BD46B5
:104560005DF8047B704700BF6809002080B584B007
:1045700000AF7860FFF7EEFFB8607B68FB60FB6818
:10458000B3F1FF3F05D00A4B1B781A46FB68134472
:10459000FB6000BFFFF7DEFF0246BB68D31AFA6874
:1045A0009A42F7D800BF00BF1037BD4680BD00BF9C
:1045B0008400002080B485B000AF78607B6803F091
:1045C0000703FB600B4BDB68BB60BA684FF6FF0369
:1045D0001340BB60FB681A02BB681A43064B1343C7
:1045E000BB60044ABB68D36000BF1437BD465DF8AA
:1045F000047B704700ED00E00000FA0580B400AFD6
:10460000044BDB681B0A03F007031846BD465DF840
:10461000047B704700ED00E080B483B000AF034638
:10462000FB7197F90730002B0BDBFB7903F01F02BE
:10463000074997F907305B09012000FA02F241F8B7
:10464000232000BF0C37BD465DF8047B704700BFD8
:1046500000E100E080B483B000AF0346FB7197F93E
:104660000730002B12DBFB7903F01F020A4997F990
:1046700007305B09012000FA02F2203341F82320C1
:10468000BFF34F8F00BFBFF36F8F00BF00BF0C376A
:10469000BD465DF8047B704700E100E080B483B064
:1046A00000AF03463960FB7197F90730002B0ADB36
:1046B0003B68DAB20C4997F907301201D2B20B44C9
:1046C00083F800230AE03B68DAB20849FB7903F07B
:1046D0000F03043B1201D2B20B441A7600BF0C3711
:1046E000BD465DF8047B704700E100E000ED00E0AE
:1046F00080B489B000AFF860B9607A60FB6803F0FD
:104700000703FB61FB69C3F10703042B28BF0423E4
:10471000BB61FB690433062B02D9FB69033B00E054
:1047200000237B614FF0FF32BB6902FA03F3DA43E7
:10473000BB681A407B699A404FF0FF317B6901FAF0
:1047400003F3D9437B680B40134318462437BD4617
:104750005DF8047B7047000080B582B000AF7860E0
:104760007B68013BB3F1807F01D301230FE00A4A4C
:104770007B68013B53600F214FF0FF30FFF78EFF46
:10478000054B00229A60044B07221A60002318464A
:104790000837BD4680BD00BF10E000E080B582B0A4
:1047A00000AF78607868FFF705FF00BF0837BD46A7
:1047B00080BD80B586B000AF0346B9607A60FB73F8
:1047C00000237B61FFF71AFF78617A68B96878691E
:1047D000FFF78EFF024697F90F3011461846FFF794
:1047E0005DFF00BF1837BD4680BD80B582B000AF09
:1047F0000346FB7197F907301846FFF70DFF00BF1E
:104800000837BD4680BD80B582B000AF0346FB715E
:1048100097F907301846FFF71DFF00BF0837BD4660
:1048200080BD80B582B000AF78607868FFF794FFF4
:10483000034618460837BD4680BD000080B586B0E7
:1048400000AF786000237B61FFF784FE38617B68EE
:10485000002B01D1012399E07B68022283F83520E7
:104860007B68002283F834207B681B681A687B68A9
:104870001B6822F001021A600FE0FFF76BFE024690
:104880003B69D31A052B08D97B6820225A657B68BF
:10489000032283F83520032378E07B681B681B68BC
:1048A00003F00103002BE8D17B681B681B687B6168
:1048B0007A69384B13407B617B685A687B689B68D8
:1048C0001A437B68DB681A437B681B691A437B6861
:1048D0005B691A437B689B691A437B68DB691A43EF
:1048E0007B681B6A13437A6913437B617B685B6A4D
:1048F000042B07D17B68DA6A7B681B6B13437A69E8
:1049000013437B617B681B687A691A607B681B684C
:104910005B697B617B6923F007037B617B685B6A72
:104920007A6913437B617B685B6A042B17D17B68D0
:104930009B6A7A6913437B617B68DB6A002B0ED02C
:10494000786800F073FB0346002B08D07B68402298
:104950005A657B68002283F83520012316E07B68C6
:104960001B687A695A61786800F02AFB0346FB608D
:104970007B68DB6D3F229A40FB689A607B6800226F
:104980005A657B68012283F83520002318461837C2
:10499000BD4680BD3F8010E080B584B000AF786038
:1049A0007B68002B01D1012350E07B6893F8353000
:1049B000DBB2022B01D1022348E07B681B681A6836
:1049C0007B681B6822F001021A607B681B6800226A
:1049D0001A607B681B6800225A607B681B68002293
:1049E0009A607B681B680022DA607B681B68002283
:1049F0001A617B681B6821225A61786800F0E0FA2E
:104A00000346FB607B68DB6D3F229A40FB689A603F
:104A10007B680022DA637B6800221A647B680022CC
:104A20005A647B6800229A647B680022DA647B689F
:104A300000221A657B6800225A657B68002283F891
:104A400035207B68002283F8342000231846103775
:104A5000BD4680BD80B586B000AFF860B9607A60B1
:104A60003B600023FB75FB689B6D3B61FB6893F823
:104A70003430012B01D1022348E0FB68012283F886
:104A80003420FB6893F83530DBB2012B37D1FB685B
:104A9000022283F83520FB6800225A653B687A6859
:104AA000B968F86800F05EFAFB68DB6D3F229A4057
:104AB0003B699A60FB681B681A68FB681B6842F0D8
:104AC00016021A60FB681B685A69FB681B6842F093
:104AD00080025A61FB681B6C002B07D0FB681B68C7
:104AE0001A68FB681B6842F008021A60FB681B68C2
:104AF0001A68FB681B6842F001021A6005E0FB6857
:104B0000002283F834200223FB75FB7D18461837FA
:104B1000BD4680BD80B584B000AF78607B689B6D7A
:104B2000FB60FFF717FDB8607B6893F83530DBB2A8
:104B3000022B08D07B6880225A657B68002283F8AC
:104B40003420012352E07B681B681A687B681B686D
:104B500022F016021A607B681B685A697B681B6822
:104B600022F080025A617B681B6C002B03D17B68AA
:104B70009B6C002B07D07B681B681A687B681B68DE
:104B800022F008021A607B681B681A687B681B6841
:104B900022F001021A6013E0FFF7DCFC0246BB685A
:104BA000D31A052B0CD97B6820225A657B68032217
:104BB00083F835207B68002283F83420032315E036
:104BC0007B681B681B6803F00103002BE4D17B6842
:104BD000DB6D3F229A40FB689A607B68012283F874
:104BE00035207B68002283F83420002318461037D4
:104BF000BD4680BD80B483B000AF78607B6893F819
:104C00003530DBB2022B04D07B6880225A65012349
:104C10000CE07B68052283F835207B681B681A68E6
:104C20007B681B6822F001021A60002318460C37CB
:104C3000BD465DF8047B704780B586B000AF7860F4
:104C40000023BB608E4B1B688E4AA2FB03239B0A8A
:104C50007B617B689B6D3B613B691B68FB607B688C
:104C6000DB6D08229A40FB681340002B1AD07B684A
:104C70001B681B6803F00403002B13D07B681B68C0
:104C80001A687B681B6822F004021A607B68DB6D7F
:104C900008229A403B699A607B685B6D43F0010291
:104CA0007B685A657B68DB6D01229A40FB68134084
:104CB000002B12D07B681B685B6903F08003002B1C
:104CC0000BD07B68DB6D01229A403B699A607B6860
:104CD0005B6D43F002027B685A657B68DB6D0422E2
:104CE0009A40FB681340002B12D07B681B681B683E
:104CF00003F00203002B0BD07B68DB6D04229A408B
:104D00003B699A607B685B6D43F004027B685A657F
:104D10007B68DB6D10229A40FB681340002B43D068
:104D20007B681B681B6803F00803002B3CD07B6882
:104D3000DB6D10229A403B699A607B681B681B6898
:104D400003F48023002B18D07B681B681B6803F4D6
:104D50000023002B08D17B681B6C002B24D07B68C0
:104D60001B6C786898471FE07B689B6C002B1BD0FE
:104D70007B689B6C7868984716E07B681B681B68AB
:104D800003F48073002B07D17B681B681A687B686B
:104D90001B6822F008021A607B681B6C002B03D092
:104DA0007B681B6C786898477B68DB6D20229A4093
:104DB000FB681340002B00F08F807B681B681B682A
:104DC00003F01003002B00F087807B68DB6D20224E
:104DD0009A403B699A607B6893F83530DBB2052BCB
:104DE00036D17B681B681A687B681B6822F0160244
:104DF0001A607B681B685A697B681B6822F0800216
:104E00005A617B681B6C002B03D17B689B6C002B69
:104E100007D07B681B681A687B681B6822F0080251
:104E20001A607B68DB6D3F229A403B699A607B6821
:104E3000012283F835207B68002283F834207B68C8
:104E40001B6D002B7ED07B681B6D7868984779E0DE
:104E50007B681B681B6803F48023002B1DD07B68D4
:104E60001B681B6803F40023002B0DD17B685B6C6F
:104E7000002B31D07B685B6C786898472CE000BFD2
:104E80007C000020B5814E1B7B68DB6B002B23D0A0
:104E90007B68DB6B786898471EE07B681B681B6843
:104EA00003F48073002B0FD17B681B681A687B6842
:104EB0001B6822F010021A607B68012283F83520FB
:104EC0007B68002283F834207B68DB6B002B03D0E7
:104ED0007B68DB6B786898477B685B6D002B32D012
:104EE0007B685B6D03F00103002B22D07B680522F9
:104EF00083F835207B681B681A687B681B6822F082
:104F000001021A60BB680133BB607A699A4207D319
:104F10007B681B681B6803F00103002BF2D100E0E3
:104F200000BF7B68012283F835207B68002283F86C
:104F300034207B68DB6C002B05D07B68DB6C7868E9
:104F4000984700E000BF1837BD4680BD80B483B0ED
:104F500000AF78607B685B6D18460C37BD465DF826
:104F6000047B704780B485B000AFF860B9607A60A8
:104F70003B60FB681B681A68FB681B6822F4802290
:104F80001A60FB681B683A685A60FB689B68402B94
:104F900008D1FB681B687A689A60FB681B68BA686E
:104FA000DA6007E0FB681B68BA689A60FB681B68F8
:104FB0007A68DA6000BF1437BD465DF8047B70473D
:104FC00080B485B000AF78607B681B68DBB2103BB3
:104FD000134AA2FB03231B09FB60124AFB6813441C
:104FE0001B781A467B68DA65FB68032B08D97B6857
:104FF0001B681A460C4B13401A1D7B689A6506E025
:105000007B681B681A46084B13407A6893657B6877
:105010009B6D18461437BD465DF8047B704700BF92
:10502000ABAAAAAA7CA6000800FCFFFF80B485B04A
:1050300000AF78600023FB737B689B6ABB607B6872
:105040009B69002B1FD1BB68032B56D801A252F8D5
:1050500023F000BF65500008775000086550000835
:10506000FB5000087B68DB6A03F08073002B46D09E
:105070000123FB7343E07B68DB6AB3F1C07F40D15F
:105080000123FB733DE07B689B69B3F5005F21D191
:10509000BB68032B37D801A252F823F0AD500008AB
:1050A000B3500008AD500008C55000080123FB7341
:1050B00030E07B68DB6A03F08073002B25D001238E
:1050C000FB7322E07B68DB6AB3F1C07F1FD1012351
:1050D000FB731CE0BB68022B03D9BB68032B03D016
:1050E00018E00123FB7315E07B68DB6A03F0807333
:1050F000002B0ED00123FB730BE000BF0AE000BFC2
:1051000008E000BF06E000BF04E000BF02E000BF0F
:1051100000E000BFFB7B18461437BD465DF8047BFA
:10512000704700BF80B586B000AFF860B960C7E9CE
:105130000023274B1B7D012B01D1022343E0244B8D
:1051400001221A754CF2503000F078F80346FB75D6
:10515000FB7D002B33D1FB68032B23D801A252F82F
:1051600023F000BF75510008815100088D510008DF
:10517000995100083B781946B86800F021F912E00F
:105180003B881946B86800F0F5F80CE03B68194612
:10519000B86800F0C9F806E0D7E90023B86800F065
:1051A0008DF800E000BF4CF2503000F047F80346A5
:1051B000FB75084B1B69074A23F001031361044B7D
:1051C00000221A75FB7D18461837BD4680BD00BF0A
:1051D0006C090020003C024080B483B000AF002383
:1051E000FB710B4B1B69002B0BDA094B094A5A6008
:1051F000074B094A5A60064B1B69002B01DA012351
:10520000FB71FB7918460C37BD465DF8047B70478F
:10521000003C024023016745AB89EFCD80B400AF6D
:10522000054B1B69044A43F00043136100231846F1
:10523000BD465DF8047B7047003C024080B584B0F9
:1052400000AF78600023FB601A4B00229A61FFF7E1
:1052500081F9F86010E07B68B3F1FF3F0CD07B6808
:10526000002B07D0FFF776F90246FB68D31A7A685D
:105270009A4201D2032319E00F4BDB6803F4803319
:10528000002BE8D10C4BDB6803F4F973002B03D03F
:1052900000F0BAF8012309E0074BDB6803F00103D3
:1052A000002B02D0044B0122DA600023184610378D
:1052B000BD4680BD6C090020003C024080B485B032
:1052C00000AFF860C7E90023164B1B69154A23F4A9
:1052D00040731361134B1B69124A43F4407313610B
:1052E000104B1B690F4A43F001031361FB683A68D6
:1052F0001A60BFF36F8F00BFD7E900014FF00002C3
:105300004FF000030A000023F968043113460B60D4
:10531000BFF34F8F00BF00BF1437BD465DF8047B5D
:10532000704700BF003C024080B483B000AF78609B
:1053300039600F4B1B690E4A23F4407313610C4B09
:105340001B690B4A43F400731361094B1B69084A3C
:1053500043F0010313617B683A681A60BFF34F8F13
:1053600000BF00BF0C37BD465DF8047B704700BF2F
:10537000003C024080B483B000AF78600B467B8075
:105380000E4B1B690D4A23F4407313610B4B1B69D1
:105390000A4A43F480731361084B1B69074A43F0C0
:1053A000010313617B687A881A80BFF34F8F00BFB7
:1053B00000BF0C37BD465DF8047B7047003C0240DF
:1053C00080B483B000AF78600B46FB700D4B1B6957
:1053D0000C4A23F4407313610A4B0A4A1B69136198
:1053E000084B1B69074A43F0010313617B68FA7895
:1053F0001A70BFF34F8F00BF00BF0C37BD465DF87A
:10540000047B7047003C024080B400AF284BDB684F
:1054100003F00203002B05D0264B9B6943F02003C9
:10542000244A9361224BDB6803F01003002B05D064
:10543000204B9B6943F010031E4A93611C4BDB68B1
:1054400003F02003002B05D01A4B9B6943F008039F
:10545000184A9361164BDB6803F04003002B05D01C
:10546000144B9B6943F00403124A9361104BDB68B1
:1054700003F08003002B05D00E4B9B6943F0020321
:105480000C4A93610A4BDB6803F48073002B05D050
:10549000084B9B6943F04003064A9361044B4FF469
:1054A000F972DA6000BFBD465DF8047B704700BF4B
:1054B000003C02406C09002080B584B000AF7860E9
:1054C00039600023BB602F4B1B7D012B01D10223D0
:1054D00053E02C4B01221A754CF25030FFF7AEFE10
:1054E0000346FB73FB7B002B43D13B684FF0FF323D
:1054F0001A607B681B68012B12D17B68DB68DBB20A
:10550000184600F043F84CF25030FFF797FE034680
:10551000FB731D4B1B691C4A23F00403136128E035
:105520007B685B68BB601CE07B68DB68DBB21946AC
:10553000B86800F051F84CF25030FFF77FFE034698
:10554000FB73114B1B69104A23F07A031361FB7B39
:10555000002B03D03B68BA681A600AE0BB680133CD
:10556000BB607B689A687B685B681344BA689A4240
:10557000DAD3044B00221A75FB7B18461037BD4660
:1055800080BD00BF6C090020003C024080B483B0A5
:1055900000AF0346FB710F4B1B690E4A23F44073A7
:1055A00013610C4B1B690B4A43F004031361094B55
:1055B0001A69FB791B021343064A43F480331361D3
:1055C000BFF34F8F00BF00BF0C37BD465DF8047BB3
:1055D000704700BF003C024080B485B000AF7860E7
:1055E0000B46FB700023FB60FB78002B02D10023ED
:1055F000FB6010E0FB78012B03D14FF48073FB605C
:1056000009E0FB78022B03D14FF40073FB6002E04A
:105610004FF44073FB60154B1B69144A23F440732D
:105620001361124B1A691149FB6813430B610F4B4D
:105630001B690E4A23F0F80313610C4B1A697B684F
:10564000DB001343094A43F002031361074B1B6954
:10565000064A43F480331361BFF34F8F00BF00BF8E
:105660001437BD465DF8047B704700BF003C024024
:1056700080B489B000AF786039600023FB610023FB
:105680007B6100233B610023BB610023FB6169E177
:105690000122FB6902FA03F37B613B681B687A69AC
:1056A00013403B613A697B699A4240F058813B68FC
:1056B0005B6803F00303012B05D03B685B6803F0D4
:1056C0000303022B30D17B689B68BB61FB695B00E5
:1056D000032202FA03F3DB43BA691340BB613B6860
:1056E000DA68FB695B0002FA03F3BA691343BB6132
:1056F0007B68BA699A607B685B68BB610122FB6961
:1057000002FA03F3DB43BA691340BB613B685B6891
:105710001B0903F00102FB6902FA03F3BA691343A0
:10572000BB617B68BA695A603B685B6803F003033E
:10573000032B17D07B68DB68BB61FB695B0003222E
:1057400002FA03F3DB43BA691340BB613B689A6812
:10575000FB695B0002FA03F3BA691343BB617B6820
:10576000BA69DA603B685B6803F00303022B23D15C
:10577000FB69DA087B68083253F82230BB61FB69A9
:1057800003F007039B000F2202FA03F3DB43BA691D
:105790001340BB613B681A69FB6903F007039B0078
:1057A00002FA03F3BA691343BB61FB69DA087B6849
:1057B0000832B96943F822107B681B68BB61FB693A
:1057C0005B00032202FA03F3DB43BA691340BB61B7
:1057D0003B685B6803F00302FB695B0002FA03F3BA
:1057E000BA691343BB617B68BA691A603B685B683E
:1057F00003F44033002B00F0B280604B5B6C5F4AD7
:1058000043F4804353645D4B5B6C03F48043FB6063
:10581000FB685B4AFB699B08023352F82330BB618B
:10582000FB6903F003039B000F2202FA03F3DB433F
:10583000BA691340BB617B68524A93422BD07B68A4
:10584000514A934225D07B68504A93421FD07B68CF
:105850004F4A934219D07B684E4A934213D07B68DB
:105860004D4A93420DD07B684C4A934207D07B68E7
:105870004B4A934201D107230EE008230CE0062394
:105880000AE0052308E0042306E0032304E00223E2
:1058900002E0012300E00023FA6902F00302920013
:1058A0009340BA691343BB613549FB699B080233D6
:1058B000BA6941F823203B4B9B68BB613B69DB43E2
:1058C000BA691340BB613B685B6803F48013002B2B
:1058D00003D0BA693B691343BB61324ABB69936029
:1058E000304BDB68BB613B69DB43BA691340BB618A
:1058F0003B685B6803F40013002B03D0BA693B6973
:105900001343BB61274ABB69D360264B5B68BB610D
:105910003B69DB43BA691340BB613B685B6803F4D6
:105920000033002B03D0BA693B691343BB611D4AA6
:10593000BB6953601B4B1B68BB613B69DB43BA69A6
:105940001340BB613B685B6803F48033002B03D0DA
:10595000BA693B691343BB61124ABB691360FB69B7
:105960000133FB61FB690F2B7FF692AE00BF00BFD6
:105970002437BD465DF8047B704700BF0038024005
:1059800000380140000002400004024000080240CC
:10599000000C0240001002400014024000180240B7
:1059A000001C0240003C014080B487B000AF78602A
:1059B000396000233B610023FB600023BB600023B0
:1059C0007B61CDE001227B6902FA03F33B613A6817
:1059D0003B691340FB60FA683B699A4240F0BD8026
:1059E000654A7B699B08023352F82330BB607B69B0
:1059F00003F003039B000F2202FA03F3BA6813407B
:105A0000BB607B685D4A93422BD07B685C4A9342C3
:105A100025D07B685B4A93421FD07B685A4A9342E9
:105A200019D07B68594A934213D07B68584A9342F5
:105A30000DD07B68574A934207D07B68564A934201
:105A400001D107230EE008230CE006230AE005231A
:105A500008E0042306E0032304E0022302E001231C
:105A600000E000237A6902F0030292009340BA68D2
:105A70009A4232D1494B1A68FB68DB4347491340CD
:105A80000B60464B5A68FB68DB43444913404B604C
:105A9000424BDA68FB68DB4340491340CB603F4B25
:105AA0009A68FB68DB433D4913408B607B6903F0D8
:105AB00003039B000F2202FA03F3BB602E4A7B69AB
:105AC0009B08023352F82310BB68DA432A487B69EB
:105AD0009B080A40023340F823207B681A687B69E0
