:020000040800F2
:1000000000000420795A00084156000847560008AD
:100010004D560008535600085956000800000000CD
:100020000000000000000000000000005F56000813
:100030006D560008000000007B5600088956000835
:10004000C95A0008C95A0008C95A0008C95A000804
:10005000C95A0008C95A0008C95A0008C95A0008F4
:10006000C95A0008C95A0008C95A0008955600081C
:10007000A9560008C95A0008C95A0008C95A0008F8
:10008000BD560008C95A0008C95A0008C95A0008D4
:10009000C95A0008C95A0008C95A0008C95A0008B4
:1000A000C95A0008D1560008ED560008C95A000880
:1000B000055700082D57000855570008C95A000871
:1000C000C95A0008C95A0008C95A0008C95A000884
:1000D000C95A000871570008C95A00088557000816
:1000E000C95A0008C95A0008C95A00089957000897
:1000F000B5570008F5570008C95A0008C95A000842
:10010000C95A0008C95A000811580008C95A0008FD
:10011000C95A0008C95A0008C95A00087D58000881
:10012000D1580008E5580008F9580008C95A0008D5
:10013000C95A000800000000000000000000000094
:10014000000000000000000000000000C95A000884
:10015000C95A0008C95A0008C95A0008C95A0008F3
:10016000C95A0008C95A0008C95A0008C95A0008E3
:10017000C95A0008C95A0008000000000000000029
:10018000C95A0008C95A0008C95A0008C95A0008C3
:10019000C95A0008C95A000800000000C95A0008DE
:1001A000000000000000000000000000C95A000824
:1001B000C95A0008C95A00080000000000000000E9
:1001C000000000000000000000000000000000002F
:1001D000000000000000000000000000C95A0008F4
:1001E00010B5054C237833B9044B13B10448AFF371
:1001F00000800123237010BD2401002000000000B6
:1002000070BC000808B5034B1BB103490348AFF3AA
:10021000008008BD000000002801002070BC00081C
:1002200053B94AB9002908BF00281CBF4FF0FF315D
:100230004FF0FF3000F074B9ADF1080C6DE904CE59
:1002400000F006F8DDF804E0DDE9022304B07047B1
:100250002DE9F047089D04468E46002B4DD18A4279
:10026000944669D9B2FA82F252B101FA02F3C2F1AC
:10027000200120FA01F10CFA02FC41EA030E94403D
:100280004FEA1C48210CBEFBF8F61FFA8CF708FB5E
:1002900016E341EA034306FB07F199420AD91CEB36
:1002A000030306F1FF3080F01F81994240F21C8168
:1002B000023E63445B1AA4B2B3FBF8F008FB1033B0
:1002C00044EA034400FB07F7A7420AD91CEB0404E5
:1002D00000F1FF3380F00A81A74240F207816444B5
:1002E000023840EA0640E41B00261DB1D44000233A
:1002F000C5E900433146BDE8F0878B4209D9002D9E
:1003000000F0EF800026C5E9000130463146BDE827
:10031000F087B3FA83F6002E4AD18B4202D3824291
:1003200000F2F980841A61EB030301209E46002D40
:10033000E0D0C5E9004EDDE702B9FFDEB2FA82F295
:10034000002A40F09280A1EB0C014FEA1C471FFAF3
:100350008CFE0126200CB1FBF7F307FB131140EADA
:1003600001410EFB03F0884208D91CEB010103F1A7
:10037000FF3802D2884200F2CB804346091AA4B269
:10038000B1FBF7F007FB101144EA01440EFB00FE3D
:10039000A64508D91CEB040400F1FF3102D2A645A2
:1003A00000F2BB800846A4EB0E0440EA03409CE741
:1003B000C6F12007B34022FA07FC4CEA030C20FAEE
:1003C00007F401FA06F31C43F9404FEA1C4900FA0E
:1003D00006F3B1FBF9F8200C1FFA8CFE09FB18118B
:1003E00040EA014108FB0EF0884202FA06F20BD9FE
:1003F0001CEB010108F1FF3A80F08880884240F24E
:100400008580A8F102086144091AA4B2B1FBF9F091
:1004100009FB101144EA014100FB0EFE8E4508D98C
:100420001CEB010100F1FF346CD28E456AD9023811
:10043000614440EA0840A0FB0294A1EB0E01A142F6
:10044000C846A64656D353D05DB1B3EB080261EB64
:100450000E0101FA07F722FA06F3F1401F43C5E93E
:10046000007100263146BDE8F087C2F12003D84074
:100470000CFA02FC21FA03F3914001434FEA1C47B6
:100480001FFA8CFEB3FBF7F007FB10360B0C43EAA8
:10049000064300FB0EF69E4204FA02F408D91CEB58
:1004A000030300F1FF382FD29E422DD90238634456
:1004B0009B1B89B2B3FBF7F607FB163341EA0341F6
:1004C00006FB0EF38B4208D91CEB010106F1FF3845
:1004D00016D28B4214D9023E6144C91A46EA00463C
:1004E00038E72E46284605E70646E3E61846F8E6CE
:1004F0004B45A9D2B9EB020864EB0C0E0138A3E717
:100500004646EAE7204694E74046D1E7D0467BE7F7
:10051000023B614432E7304609E76444023842E76F
:10052000704700BF80B400AF084B00221A60074B31
:100530000222DA60054B04225A60044B01229A60C1
:1005400000BFBD465DF8047B704700BF440100203A
:10055000B0B586B000AFF8607A603B600B46FB72C6
:1005600006F046F91D491E4806F0B2FA0346002B74
:100570002ED10023FB753B68022B02D10423FB75AF
:1005800004E03B68012B01D10223FB750023BB75FE
:1005900017E0BB7D9B00FA6813441B6800221C46D1
:1005A000154622462B467968386806F0C7F8034698
:1005B000002B0FD1FB7D7A6813447B60BB7D013338
:1005C000BB75BA7DFB7A9A42E3D306F033F902E0B9
:1005D00000BF00E000BF1837BD46B0BD400100209D
:1005E0004401002080B487B000AFF8607A603B60BF
:1005F0000B46FB720023FB7500233B613B68022B1B
:1006000002D10423FB7504E03B68012B01D10223D6
:10061000FB750023BB820FE07B681B683B61BB8AD4
:100620009B00FA6813443A691A60FB7D7A681344A8
:100630007B60BB8A0133BB82FB7A9BB2BA8A9A4247
:10064000EAD300BF00BF1C37BD465DF8047B70478E
:1006500080B483B000AF0346FB80094B1B680022C7
:100660005A6200BF064B1B685A6AFB889A42F9D34C
:1006700000BF00BF0C37BD465DF8047B704700BF6C
:100680004005002080B582B000AF0346FB71FB79C6
:10069000022B02DC002B2CDC64E0043B012B61D834
:1006A000002203210B2005F090FB0B2005F0A9FB95
:1006B00001220321102005F088FB102005F0A1FB8A
:1006C00000220321382005F080FB382005F099FB3B
:1006D00001220321392005F078FB392005F091FB38
:1006E00000220121192005F070FB192005F089FB7B
:1006F00039E0012200213A2005F067FB3A2005F09D
:1007000080FB01220021252005F05FFB252005F05C
:1007100078FB01220221372005F057FB372005F036
:1007200070FB002203210B2005F04FFB0B2005F08E
:1007300068FB01220321102005F047FB102005F083
:1007400060FB00220321382005F03FFB382005F034
:1007500058FB01220321392005F037FB392005F031
:1007600050FB00E000BF00BF0837BD4680BD80B52C
:1007700000AF002201210B2005F027FB0B2005F024
:1007800040FB002201210C2005F01FFB0C2005F08E
:1007900038FB00220121102005F017FB102005F086
:1007A00030FB01220121382005F00FFB382005F035
:1007B00028FB01220121392005F007FB392005F033
:1007C00020FB002201213A2005F0FFFA3A2005F033
:1007D00018FB00220121252005F0F7FA252005F05D
:1007E00010FB00220221372005F0EFFA372005F038
:1007F00008FB00BF80BD000080B582B000AF03469B
:100800003960FB71FB79002B14BF01230023DBB29D
:100810000A21184600F01EF91E4B1B88184600F0EE
:10082000C5F81D4A3B68136001221921386800F0A1
:1008300047F80346194A136000221921386800F06E
:100840003FF80346164A1360164808F093FCFB79FC
:10085000002B03D0144808F08DFC02E0134808F088
:1008600089FC134B01221A70124B1B78002B14BF0A
:1008700001230023DBB283F00103DBB203F00103A9
:10088000DAB20D4B1A700D4B00221A7000BF0837F8
:10089000BD4680BDC6010020B8010020C001002077
:1008A000BC0100208C0500205C0400201004002006
:1008B000B4010020B6010020B5010020B7010020DE
:1008C00080B485B000AF78600B467B8013467B70A8
:1008D0007B78002B0FD07A887B681344B3F5003FF8
:1008E00005D37A887B681344A3F5003312E07A8835
:1008F0007B6813440EE07B887A689A4207D87A882E
:100900007B68D31AFB60FB68C3F5003302E07B8889
:100910007A68D31A18461437BD465DF8047B7047D1
:1009200080B582B000AF0346FB71054B1B78002BEE
:1009300002D0044808F01EFC00BF0837BD4680BD49
:10094000B40100207006002080B582B000AF0346DD
:10095000FB71FB79002B03D00D4808F083FC02E00B
:100960000C4808F07FFC0C4808F07CFC0B4B002284
:100970001A700B4B00221A700A4B40F2DC521A809C
:10098000094B00221A8000BF0837BD4680BD00BF5A
:100990005C040020100400208C050020B40100201D
:1009A000B7010020C6010020C401002080B487B038
:1009B00000AF0346FB80234B7B61234B1B885B0806
:1009C0009BB207EE903AF8EEE77AC7ED047A1F4B38
:1009D0001B7807EE903AF8EEE77A97ED047A67EE27
:1009E000277AC7ED047AFB8807EE903AB8EEE77AEB
:1009F000D7ED046AC6EE877AC7ED047AF7EE006A8F
:100A000097ED047AC6EE877AFCEEE77A17EE903A15
:100A1000FB600F4B1B6800225A620D4B1B689B6AE0
:100A200001337A69B2FBF3F2FB68B2FBF3F2084BD5
:100A30001B68013ADA6200BF1C37BD465DF8047BD3
:100A4000704700BF00F36F0634000020360000201E
:100A5000A804002080B485B000AF03460A46FB71AD
:100A60001346BB800023FB60194BFB60194B1B68CE
:100A700000225A62184B1B6800225A62FB79002B35
:100A80000ED0144B1B689B6A0133FA68B2FBF3F279
:100A9000BB88B2FBF3F20F4B1B68013ADA620DE040
:100AA0000D4B1B689B6A0133FA68B2FBF3F2BB88FB
:100AB000B2FBF3F2084B1B68013ADA62074ABB88C3
:100AC000138000BF1437BD465DF8047B704700BF3C
:100AD00000F36F065C04002010040020C401002015
:100AE00080B483B000AF0346FB80FB885A1E044BE2
:100AF0001B68DA6200BF0C37BD465DF8047B7047A7
:100B00008C05002080B485B000AF78600B467B80F8
:100B10000023FB60144BFB607B681B78002B0ED01E
:100B2000124B1B689B6A0133FA68B2FBF3F27B88B5
:100B3000B2FBF3F20D4B1B68013ADA620DE00C4B8D
:100B40001B689B6A0133FA68B2FBF3F27B88B2FB45
:100B5000F3F2074B1B68013ADA6200BF1437BD4657
:100B60005DF8047B704700BF00F36F065C04002053
:100B70001004002080B485B000AF78600B46FB7095
:100B80000023FB7307E0FB7B7A68134400221A7092
:100B9000FB7B0133FB73FA7BFB789A42F3D300BFF4
:100BA00000BF1437BD465DF8047B704780B485B044
:100BB00000AF78600B46FB701346BB70BB78FB73CD
:100BC00007E0FB7B7A68134400221A70FB7B013339
:100BD000FB73FA7BFB789A42F3D300BF00BF143754
:100BE000BD465DF8047B70472DE9B04F86B000AF7D
:100BF00078600B467B8013467B707B88DAB27B780B
:100C0000D31ADBB2013B7B734FF000024FF00003BD
:100C1000C7E904237B78FB8112E0FB899B007A689B
:100C200013441B6800221C461546D7E9042312EB27
:100C3000040843EB0509C7E90489FB890133FB81FB
:100C40007B7B9BB2FA899A42E7D97A887B785B00F2
:100C5000D31ADA179A46934652465B46D7E90401FF
:100C6000FFF7DEFA02460B461346BB60BB68184628
:100C70001837BD46BDE8B08F80B485B000AF78604E
:100C800039607B681B68FB603B681A687B681A6088
:100C90003B68FA681A6000BF1437BD465DF8047BF4
:100CA000704780B584B000AF78600B467B802CE045
:100CB0000023FB730023BB601DE0BB689B007A68C8
:100CC00013441A68BB6801339B0079680B441B68A6
:100CD0009A420DD9BB689B007A68D018BB68013373
:100CE0009B007A6813441946FFF7C6FF0123FB7384
:100CF000BB680133BB607B88BA689A42DDDBFB7B53
:100D000083F00103DBB2002B05D17B885A1E7A8069
:100D1000002BCDD100E000BF00BF1037BD4680BD25
:100D200080B582B000AF04F0D0FE00F0BFFB00F051
:100D3000DDFF00F089FF00F04BFF00F011FF00F035
:100D40005FFC00F01FFC00F099FC00F0E5FC00F0F7
:100D5000D1FD00F005FE00F039FE00F07BFD00F053
:100D6000DBFE00F0B5FE00F027FD00F053FE00F0C2
:100D700075FE03F0BFFE9D4B1B78002B05D09C4BEE
:100D80001B6800225A6201F03FF89A4B1B78002B37
:100D900000F00181984B1B8801339AB2964B1A8060
:100DA00002F0D2FD954B1B78012B0BD0934B1B7897
:100DB000022B07D0914B1B78032B03D08F4B1B7852
:100DC000042B46D18E4B1B78002B42D00023FB71A5
:100DD00010E0FB798B4A127811468B4AD25C8B4B20
:100DE0005A54FB790133FB71864B1B780133DAB21D
:100DF000844B1A70FB79022BEBD9814B00221A70BD
:100E0000834B1B780133DAB2814B1A70804B1B780D
:100E10009AB2804B1A80804B1B6801337E4A136064
:100E20007E4B1B8801339AB27C4B1A80784B1B781F
:100E30000A2B0ED1764B00221A70724B01221A70C7
:100E4000774B01221A70774B1B8801339AB2754B8E
:100E50001A806A4B1B78052B40F09A80684B1B78F0
:100E6000002B00F084800023BB7110E0BB796E4A38
:100E700012781146644AD25C6C4B5A54BB790133E8
:100E8000BB71694B1B780133DAB2674B1A70BB79BF
:100E9000022BEBD95A4B00221A705D4B1B780133A1
:100EA000DAB25B4B1A705A4B1B789AB2594B1A80C4
:100EB000594B1B680133584A1360584B1B88013348
:100EC0009AB2564B1A80524B1B78322B4FD158484E
:100ED00008F0C8F94E4B1B789BB21A4652001344D7
:100EE0009BB21946514803F003FD494B1B789BB256
:100EF00019465048FFF7D5FE454B1B789BB20C2294
:100F000019464C48FFF770FE03464B4A1360404BAE
:100F100000221A70444B00221A70484B00221A70AB
:100F200021213A48FFF726FE434B1B68DAB2374BC4
:100F30005A70414B1B681B0ADAB2344B9A703E4B15
:100F40001B681B0CDAB2314BDA70304B5A782F4BDE
:100F50001A712E4B9A782D4B5A712C4BDA782B4BF9
:100F60009A712F4B01221A70354B01221A70344BA3
:100F70001B78002B0CD02A4B1B78002B08D11F4B61
:100F800000221A702F4B01221A702D4B00221A706A
:100F9000184B00221A702C4B1B78002B5DD0174B7E
:100FA0001B78013B082B54D801A252F823F000BF54
:100FB000E70F00084D1000085310000853100008F8
:100FC00053100008DB0F000853100008D50F00086D
:100FD000E10F000802F02AFD3CE002F0C5FD39E017
:100FE00002F066FD36E002F005FE33E0910B0020D2
:100FF00024060020900B00205E090020990B0020A1
:101000005601002000000020280A00206001002076
:101010005D0100200E0A00208409002058090020EC
:10102000550100206C09002055090020300A0020DD
:10103000D8050020C80A0020940900208101002062
:10104000B4090020980B0020920B002002F0D2FD82
:1010500000E000BF894B00221A70894B1B78002BDF
:101060002DD0884B1B78013B082B24D801A252F8C5
:1010700023F000BFAB100008B1100008B710000843
:10108000B7100008B71000089F100008B71000083C
:1010900099100008A510000802F0C8FC0CE002F04E
:1010A00063FD09E002F004FD06E002F041FF03E009
:1010B00003F0DCF800E000BF714B00221A70724BA5
:1010C0001B78002B40D0714B1B78002B1DD0704B30
:1010D0001B78002B19D16F4B00221A706B4B1B78B9
:1010E0001A4652001344DBB20133DBB21A46212107
:1010F0006948FFF75BFD664B01221A70634B0022C3
:101100001A70664B01221A701EE0604B1B78002B90
:101110001AD15F4B1B78002B16D15A4B00221A7044
:101120005F4B00221A705F4B01221A70564B00224F
:101130001A70584B00221A705B4B00221A60FFF79E
:1011400016FB5A4808F08EF8594B1B78002B1FD01D
:10115000584B1B78002B1BD0574B1B78052B17D1F6
:10116000534B00221A70534B00221A70524BFF222D
:101170001A70444B04221A704A4B02221A704F4BC9
:1011800001221A700420FFF77DFA4D4807F0F2FFA4
:101190003C4B1B78052B39D1454B1B78002B13D0CA
:1011A000444B1B78002B0FD0414B00221A70414B4F
:1011B00000221A700520FFF765FA424B1B680022D7
:1011C0005A62404807F0D6FF3F4B1B78002B1DD0DA
:1011D0003D4B00221A7005223C493D4808F076FD3F
:1011E00001224FF400613B4805F0E6FF294B012244
:1011F0001A700A20FFF72CFA00224FF400613548DC
:1012000005F0DAFF2F4B1B6800225A62324B1B7825
:10121000002B00F0B880304B00221A70274B1B784F
:10122000002B61D02D4B00221A802D4B00221A80FA
:1012300005222649264808F049FD01224FF40061A5
:10124000244805F0B9FF134B01221A700A20FFF75A
:10125000FFF900224FF400611E4805F0ADFF184B66
:101260001B6800225A621F4807F084FF134B0022BC
:101270001A700E4807F07EFF7FE000BF920B00203F
:10128000930B0020990B0020AB0900205D0100208A
:1012900055010020560100206001002000000020C0
:1012A00081010020980B002084090020BC0600204A
:1012B000AF090020B0090020AE000020AE090020D8
:1012C00008070020D8050020B2090020580100209E
:1012D0005407002000000240B10900205C090020F2
:1012E0005E090020F404002005225C495C4808F0F7
:1012F000EDFC01224FF400615A4805F05DFF5A4BA6
:1013000001221A700A20FFF7A3F900224FF40061AE
:10131000544805F051FF554807F0A4FF544B1B8873
:101320001A4613461B049B1A1A46524B1A604F4B1F
:101330001B685A6A4F4B1B6813444E4A13604C4B50
:1013400000221A80494B1B6800225A62474807F066
:1013500011FF03F077FA0346474A1360474807F046
:10136000E1FE464B1B68444A1268DA62434B1B6835
:1013700000225A62414807F0FDFE414B1B880133B1
:101380009AB23F4B1A803F4B1B78002B09D03E4B43
:101390001B7883F00103DBB2002B02D03B4807F03F
:1013A000E9FE3B4B1B78002B31D03A4B1B881A4689
:1013B000394B1B881946394B1B880B449A4215DD63
:1013C000374B1878344B1A88344B1B8813449BB224
:1013D0001946FFF73FFB2E4B00221A702B4B1B6860
:1013E00000225A62294807F0C5FE10E02C4B1B78FA
:1013F000284A128811461846FFF72CFB234807F0AD
:1014000031FF234B00221A701F4B01221A70254B0B
:101410001B78002B3FF4AFAC1F4B1B88322B0BD833
:101420001F4B1B781846FFF78FFA1F4807F01AFF6B
:101430001C4B00221A709EE4194B1A78164B1B881D
:10144000323B9BB219461046FFF704FB164B1B6854
:1014500000225A62134B00221A708CE458010020BB
:10146000540700200000024056010020BC06002066
:1014700064090020740900207C090020080700206E
:1014800062090020B4010020B7010020A804002058
:10149000960B0020C6010020C4010020340000206B
:1014A000AC000020970B00207006002080B594B09F
:1014B00000AF07F1200330220021184609F0D2FEC8
:1014C00007F10C0300221A605A609A60DA601A6110
:1014D0002A4B1B6C294A43F080531364274B1B6C27
:1014E00003F08053BB60BB68254B1B68244A43F460
:1014F00040431360224B1B6803F440437B607B68CE
:1015000001233B624FF480337B620223BB634FF4C1
:101510008003FB6308233B64D8237B640223BB6402
:101520000223FB6407F12003184605F0C9FE0346B9
:10153000002B01D003F06AFC05F072FE0346002B7D
:1015400001D003F063FC0F23FB6002233B61002307
:101550007B614FF4A053BB614FF4A053FB6107F1D3
:101560000C030721184606F04FF90346002B01D063
:1015700003F04CFC00BF5037BD4680BD0038024030
:101580000070004080B500AF1B4B1C4A1A601A4B1C
:101590004FF482725A60184B00229A60164B4FF437
:1015A000E062DA60144B02221A61134B00225A6186
:1015B000114B4FF400729A610F4B3822DA610E4BD7
:1015C00000221A620C4B00225A620B4B00229A62D4
:1015D000094B0722DA62084B00221A63064B0822E5
:1015E0005A63054806F07EFE0346002B01D003F047
:1015F0000DFC00BF80BD00BFC8010020003C0040C2
:1016000080B500AF1B4B1C4A1A601A4B4FF4827214
:101610005A60184B00229A60164B4FF4E062DA6071
:10162000144B02221A61134B00225A61114B4FF4E2
:1016300000729A610F4B3822DA610E4B00221A6257
:101640000C4B00225A620B4B00229A62094B072274
:10165000DA62084B00221A63064B08225A630548D7
:1016600006F040FE0346002B01D003F0CFFB00BF85
:1016700080BD00BF2C0200200034014080B588B03E
:1016800000AF07F1100300221A605A609A60DA6016
:101690003B1D00221A605A609A601E4B4FF0804238
:1016A0001A601C4B6B225A601A4B00229A60194B2D
:1016B00046F2A712DA60174B00221A61154B00227E
:1016C0009A61144807F066FC0346002B01D003F032
:1016D0009DFB4FF480533B6107F1100319460D4801
:1016E00007F0F8FE0346002B01D003F08FFB002328
:1016F0007B600023FB603B1D1946064808F026F975
:101700000346002B01D003F081FB00BF2037BD460C
:1017100080BD00BF1004002080B588B000AF07F185
:10172000100300221A605A609A60DA603B1D0022A2
:101730001A605A609A601E4B1E4A1A601C4B40F297
:1017400037425A601A4B00229A60194B43F67F6267
:10175000DA60174B00221A61154B00229A61144877
:1017600007F018FC0346002B01D003F04FFB4FF4A9
:1017700080533B6107F1100319460D4807F0AAFE9C
:101780000346002B01D003F041FB00237B600023C4
:10179000FB603B1D1946064808F0D8F80346002BAD
:1017A00001D003F033FB00BF2037BD4680BD00BF32
:1017B0005C0400200004004080B588B000AF07F151
:1017C000100300221A605A609A60DA603B1D002202
:1017D0001A605A609A601D4B1D4A1A601B4B42F6F4
:1017E0002F225A60194B00229A60184BC822DA60E7
:1017F000164B00221A61154B00229A61134807F01C
:10180000C9FB0346002B01D003F000FB4FF48053CB
:101810003B6107F1100319460C4807F05BFE0346D5
:10182000002B01D003F0F2FA00237B600023FB6061
:101830003B1D1946054808F089F80346002B01D0E6
:1018400003F0E4FA00BF2037BD4680BDA8040020A5
:101850000008004080B588B000AF07F110030022F7
:101860001A605A609A60DA603B1D00221A605A6062
:101870009A601E4B1E4A1A601C4B42F62F225A6079
:101880001A4B00229A60194B4FF0FF32DA60174B67
:1018900000221A61154B00229A61144807F07AFB66
:1018A0000346002B01D003F0B1FA4FF480533B61A3
:1018B00007F1100319460D4807F00CFE0346002BF4
:1018C00001D003F0A3FA00237B600023FB603B1DE3
:1018D0001946064808F03AF80346002B01D003F0F9
:1018E00095FA00BF2037BD4680BD00BFF40400203C
:1018F000000C004080B584B000AF3B1D00221A6090
:101900005A609A60144B154A1A60134B6B225A6046
:10191000114B00229A60104B4FF6FF72DA600E4BAB
:1019200000229A610C4807F035FB0346002B01D0DA
:1019300003F06CFA00237B600023FB603B1D19461B
:10194000054808F003F80346002B01D003F05EFAC7
:1019500000BF1037BD4680BD40050020001000408C
:1019600080B584B000AF3B1D00221A605A609A60B7
:10197000144B154A1A60134B6B225A60114B00220C
:101980009A60104B6322DA600E4B00229A610D4878
:1019900007F000FB0346002B01D003F037FA0023C9
:1019A0007B600023FB603B1D1946064807F0CEFF15
:1019B0000346002B01D003F029FA00BF1037BD46C3
:1019C00080BD00BF8C0500200014004080B500AF32
:1019D0000E4B0F4A1A600D4B45F25F425A600B4B9B
:1019E00000229A60094B4FF6FF72DA60074B002223
:1019F0001A61064B00229A61044807F0CBFA0346AD
:101A0000002B01D003F002FA00BF80BDD8050020F2
:101A10000044014080B500AF0E4B0F4A1A600D4BD9
:101A200042F62F225A600B4B00229A60094B4CF26F
:101A30005032DA60074B00221A61064B00229A618D
:101A4000044807F0A7FA0346002B01D003F0DEF9A3
:101A500000BF80BD240600200048014080B584B04E
:101A600000AF3B4600221A605A609A60DA60164B5B
:101A7000164A1A60144B42F62F225A60124B00226B
:101A80009A60114B41F28832DA600F4B00221A61E2
:101A90000D4B00229A610C4807F07CFA0346002B9C
:101AA00001D003F0B3F94FF480533B603B46194635
:101AB000054807F00FFD0346002B01D003F0A6F9FF
:101AC00000BF1037BD4680BD7006002000180040E2
:101AD00080B500AF0E4B0F4A1A600D4B40F23742F3
:101AE0005A600B4B00229A60094B4FF6FF72DA6086
:101AF000074B00221A61064B00229A61044807F046
:101B000049FA0346002B01D003F080F900BF80BDE5
:101B1000BC060020001C004080B500AF0E4B0F4AF1
:101B20001A600D4B45F25F425A600B4B00229A60DF
:101B3000094B4FF6FF72DA60074B00221A61064B21
:101B400000229A61044807F025FA0346002B01D0D1
:101B500003F05CF900BF80BD0807002000200040B2
:101B600080B500AF184B1B689A68174B1B6842F092
:101B700001029A60144B154A1A60134B4FF4164237
:101B80005A60114B00229A600F4B0022DA600E4B14
:101B900000221A610C4B0C225A610B4B00229A61F5
:101BA000094B0022DA61084B00221A62064B002220
:101BB0005A62054807F076FF0346002B01D003F078
:101BC00025F900BF80BD00BF540700200010014070
:101BD00080B500AF194B1B689A68184B1B6842F020
:101BE00001029A60164B174A1A60154B4FF4E13206
:101BF0005A60134B00229A60114B0022DA60104B9E
:101C000000221A610E4B0C225A610D4B00229A6180
:101C10000B4B0022DA610A4B00221A62084B0022A9
:101C20005A62002300220021054809F089FA034680
:101C3000002B01D003F0EAF800BF80BD540700205C
:101C4000DC0700200048004080B582B000AF264B82
:101C50001B6B254A43F400131363234B1B6B03F4E4
:101C600000137B607B68204B1B6B1F4A43F480038F
:101C700013631D4B1B6B03F480033B603B68002226
:101C800001210B2004F0A1F80B2004F0BAF8002287
:101C900001210C2004F099F80C2004F0B2F8002285
:101CA0000121102004F091F8102004F0AAF801227C
:101CB0000121382004F089F8382004F0A2F801222C
:101CC0000121392004F081F8392004F09AF800222B
:101CD00001213A2004F079F83A2004F092F800BF8C
:101CE0000837BD4680BD00BF0038024080B58AB0CD
:101CF00000AF07F1140300221A605A609A60DA609C
:101D00001A613D4B1B6B3C4A43F0100313633A4B83
:101D10001B6B03F010033B613B69374B1B6B364A6F
:101D200043F080031363344B1B6B03F08003FB60B1
:101D3000FB68314B1B6B304A43F0010313632E4B9E
:101D40001B6B03F00103BB60BB682B4B1B6B2A4A68
:101D500043F004031363284B1B6B03F004037B6005
:101D60007B68254B1B6B244A43F002031363224B11
:101D70001B6B03F002033B603B6800224FF40761DA
:101D80001E4805F019FA002220211D4805F014FA1A
:101D9000002203211B4805F00FFA4FF407637B6113
:101DA0000123BB610023FB6100233B6207F11403A5
:101DB0001946124804F068FF20237B610123BB61B0
:101DC0000023FB6100233B6207F1140319460C4812
:101DD00004F05AFF03237B610123BB610023FB61F5
:101DE00000233B6207F114031946064804F04CFF38
:101DF00000BF2837BD4680BD0038024000000240C9
:101E0000000802400004024080B584B000AFA24B3D
:101E10001B78202B01F2248101A252F823F000BF8D
:101E2000A51E0008B31E000881220008251F000817
:101E3000613000082F27000879280008C928000809
:101E4000372A0008792B0008DD2B00080B2C00082E
:101E5000232C000861300008352C00087F2C000876
:101E6000972C00087D2D00089D2D0008BD2D000831
:101E70005D2E0008D52E0008613000086130000892
:101E8000FF2E0008A12F0008F92F0008613000087C
:101E900061300008613000086130000861300008DE
:101EA000DF2F00087D4807F04BFEFFF791FE01F0A1
:101EB000D7B805227A497B4806F0C0FA05227A494C
:101EC0007A4806F0BBFA7A4B1B7883F00103DBB249
:101ED000002B21D0774B1B7883F00103DBB2002B62
:101EE0001AD0754B5B6F93F83530DBB2012B13D1F1
:101EF00005227249704807F0E9FE01224FF40061A3
:101F00006F4805F059F90A20FEF7A2FB00224FF4B2
:101F100000616B4805F050F90021012001F0E6FA5C
:101F200001F09EB80121032001F0E0FA654B002288
:101F30001A80654B00221A805E4B01221A70634B97
:101F400000221A705A4B00221A70614B00221A703C
:101F5000604B00221A70604B4F4A92E803001860F1
:101F6000043319805C4B9B78013B5C4A13441B7A19
:101F70001AB25B4B1A80584B5B78013B574A1344AB
:101F80001B7A9BB2C3F5B4739BB21AB2554B1A803D
:101F9000534BB3F90030B42B07D1524BB3F9003097
:101FA000B42B02D1494B01221A704B4BDB78013B19
:101FB0004D4A083332F813204C4B1A804B4B1B8888
:101FC000184602F0DDFC464BB3F900309BB20533F6
:101FD0009AB2474B1A80474B00221A70464B002298
:101FE0001A70464B00221A70454B00221A70454B5E
:101FF00000221A70444B00221A703D4B1B885B0470
:10200000424A82FB03121A441212DB17D31A1A46F1
:102010003F4B1A603E4B1B682D4A127811461846FA
:1020200001F06AFB03463A4A1360294B1B78384A91
:1020300012681146184601F0B7F8294BB3F9003081
:102040005B04324A82FB03121A441212DB17D31AC2
:102050001A46304B1A602F4B1B681D4A12781146E6
:10206000184601F049FB03462A4A13601F4B1B88A0
:102070001A46284B1B681344B3F5003F4ED91B4B3F
:102080001B881A46234B1B681344A3F500331A46DA
:10209000214B1A604BE000BF100A0020DC07002033
:1020A000240900202C0200202C090020C801002057
:1020B0008101002054010020540700205801002015
:1020C000000002405809002062090020B5090020E4
:1020D000AC00002055010020180A0020400000201C
:1020E000080A00200A0A002050000020040A0020EC
:1020F0000C0A0020A5090020A7090020A60900203D
:10210000A8090020A9090020AA090020B7600BB681
:10211000D0090020C0090020DC090020494B1B88A1
:102120001A46494B1B6813441A46484B1A60464BE3
:102130001B68444A12889B1A1A46444B1A60444B47
:102140001B78002B4DD0434BB3F900305B04424A5F
:1021500082FB03121A441212DB17D31A3F4A136090
:102160003E4B1B681A463E4B1B781946104601F041
:10217000C3FA03461A46394B1A60384B1B68B3F54D
:10218000347F0CDA354B1B68A3F53473002BB8BFD2
:102190005B42C3F500331A46324B1A6006E02F4B00
:1021A0001B68A3F534731A462E4B1A60294BB3F9FA
:1021B000003004335B04284A82FB03121A441212D3
:1021C000DB17D31A1A46284B1A60274B1B68244A80
:1021D00012781146184601F08FFA0346224A13601E
:1021E00018E01C4BB3F900305B041B4A82FB03125E
:1021F0001A441212DB17D31A1A461B4B1A601A4BD9
:102200001B68174A12781146184601F075FA034602
:10221000154A1360154B02221A70154B02221A70D0
:10222000144B01221A70144B40F2DC521A800C4BF2
:102230001B781A46114B1B6819461046FEF7DCFA4C
:1022400000F00EBF040A0020C0090020DC090020B5
:10225000B50900200A0A0020B7600BB6D809002093
:10226000AC00002098090020C8090020990B00202C
:10227000980B00209A0B0020C6010020A00B002024
:102280000121022001F032F99C4B00221A809C4B64
:1022900000221A809B4B00221A809B4B01221A704D
:1022A0009A4B00221A709A4B00221A80994B0022F6
:1022B0001A80994B00221A70984B1B78002B14BF80
:1022C00001230023DAB2964B1A70964B00221A7043
:1022D0000120FEF7D7F9944B944A92E80300186066
:1022E00004331980904B9B78013B914A13441B7A2D
:1022F0001AB2824B1A808C4B5B78013B8C4A134498
:102300001B7A9BB2C3F5B4739BB21AB27C4B1A8092
:102310007A4BB3F90030B42B07D1794BB3F90030C5
:10232000B42B02D1794B01221A70744BB3F90030EF
:102330009BB205339AB2734B1A807E4B00221A70FF
:102340007D4B00221A707D4B00221A70744B1B7853
:1023500083F00103DBB2002B00F00C81724BDB78C1
:10236000013B774A083332F81320764B1A80754BBD
:102370001B88184602F004FB624B1B885B04724A00
:1023800082FB03121A441212DB17D31A1A466F4B40
:102390001A606E4B1B68624A12781146184601F0AB
:1023A000ABF90346694A13605D4B1B78674A1268B4
:1023B0001146184600F0F8FE504BB3F900305B04AC
:1023C000614A82FB03121A441212DB17D31A1A460F
:1023D0005F4B1A605E4B1B68514A127811461846D3
:1023E00001F08AF903465A4A1360594B1B68554A53
:1023F00012889B1A1A46574B1A60444B1B78002BC5
:102400004DD03F4BB3F900305B044F4A82FB0312BF
:102410001A441212DB17D31A4F4A13604E4B1B6833
:102420001A463F4B1B781946104601F065F90346E2
:102430001A46494B1A60484B1B68B3F5347F0CDAD7
:10244000454B1B68A3F53473002BB8BF5B42C3F543
:1024500000331A46414B1A6006E03F4B1B68A3F558
:1024600034731A463D4B1A60254BB3F900300433E0
:102470005B04354A82FB03121A441212DB17D31A8B
:102480001A46374B1A60364B1B68254A127811469C
:10249000184601F031F90346314A136018E0184B31
:1024A000B3F900305B04284A82FB03121A4412126B
:1024B000DB17D31A1A462A4B1A60294B1B68184A95
:1024C00012781146184601F017F90346244A1360A2
:1024D000244B01221A70244B02221A70234B40F223
:1024E000DC521A800E4B1B781A46214B1B6819468A
:1024F0001046FEF781F900F0B0BD00BF080A0020C9
:102500000A0A00200C0A002054010020B50900200E
:102510005809002062090020810100209B0B002047
:10252000AC00002055010020180A0020100A0020ED
:1025300040000020A5090020A7090020A6090020CE
:1025400050000020040A0020B7600BB6D00900201C
:10255000C0090020DC090020D809002098090020CB
:10256000C8090020990B0020980B0020C60100200C
:10257000A00B00209F4B1B78002B00F06E859E4B1C
:10258000DB78013B9D4A083332F813209C4B1A80BC
:102590009B4B1B88184602F0F3F99A4B1B885B048F
:1025A000994A82FB03121A441212DB17D31A1A46F5
:1025B000964B1A60954B1B688E4A12781146184646
:1025C00001F09AF80346914A13608A4B1B788F4AB0
:1025D00012681146184600F0E7FD8D4BB3F9003044
:1025E0005B04894A82FB03121A441212DB17D31AC6
:1025F0001A46884B1A60874B1B687E4A1278114630
:10260000184601F079F80346824A1360814B1B6833
:102610007B4A12889B1A1A467F4B1A607F4B1B78A5
:10262000002B4DD07E4BB3F900305B04764A82FB21
:1026300003121A441212DB17D31A7A4A1360794B29
:102640001B681A466B4B1B781946104601F054F86C
:1026500003461A46734B1A60724B1B68B3F5347FFE
:102660000CDA704B1B68A3F53473002BB8BF5B42C8
:10267000C3F500331A466C4B1A6006E0694B1B68C1
:10268000A3F534731A46684B1A60654BB3F90030F2
:1026900004335B045C4A82FB03121A441212DB17F8
:1026A000D31A1A46614B1A60604B1B68514A127864
:1026B0001146184601F020F803465C4A136018E002
:1026C000574BB3F900305B044F4A82FB03121A44A4
:1026D0001212DB17D31A1A46544B1A60534B1B685D
:1026E000444A12781146184601F006F803464F4A4C
:1026F00013604E4B1A68474B1B689A4202D24C4BF0
:1027000001221A704B4B01221A704B4B02221A7095
:102710004A4B40F2DC521A80364B1B781A46484B23
:102720001B6819461046FEF767F800F096BC324B5E
:10273000444A92E80300186004331980424B1B6836
:1027400000225A62414B01221A70414B1B78002B28
:1027500003D0404B05221A7002E03E4B00221A7053
:102760003D4B00221A70244B5B78013B3B4A52F8E8
:102770002320214B9B78013B394931F8133019460E
:10278000104602F03DF80346364A1360364806F01C
:10279000C9FC194B5B785A1E334B1B682F4951F803
:1027A0002220DA62304B1B6800225A622F4806F062
:1027B000B9FC114B9B78013B294A32F813202C4B72
:1027C0001A802B4B1A88294B1B68DA62284B1B880E
:1027D0001A4613469B0013449B001A46254B1A6069
:1027E000224B1B6800225A620121052000F07EFE68
:1027F00000F036BCAC000020180A00205000002079
:10280000060A00200C0A0020B7600BB6D40900208D
:10281000080A0020C4090020E0090020B5090020B2
:102820000A0A0020D809002098090020CC090020BD
:10283000AC090020990B0020980B0020C601002055
:10284000A40B0020100A0020BC060020B3090020C1
:10285000AF090020AE000020AB090020700000206E
:102860009400002088090020F404002008070020BC
:1028700056090020780900200121062000F036FECC
:10288000A34B1B68A34A1360A34B00221A700022BB
:102890001021A24804F090FCA14B1B6819460020AF
:1028A00000F082FC4FF4C8710020FEF7D3F89D4879
:1028B00006F060FC9C4806F05DFC9C4B06221A70FA
:1028C0009B4B01221A70CBE30121072000F00EFE82
:1028D000964B1B78013B052B00F2A58001A252F814
:1028E00023F000BFFD28000857290008272A000808
:1028F000B1290008272A0008132A00088D4B1B78ED
:102900001846FEF70DF88C4B1B78002B13D08B4B21
:102910001B78002B0FD1884B1B781A4652001344AA
:10292000DBB20133DBB21A4621218548FEF73EF9BE
:10293000824B01221A70804B00221A70814B0122B7
:102940001A70814B00221A70804B00221A70804B43
:1029500000221A7068E0774B1B781846FDF7E0FFFD
:10296000754B1B78002B13D0744B1B78002B0FD1A9
:10297000714B1B781A4652001344DBB20133DBB2B1
:102980001A4621216E48FEF711F96C4B01221A708C
:10299000694B00221A706B4B01221A706A4B00229D
:1029A0001A706A4B00221A70694B00221A703BE0C1
:1029B000684806F0B7FB684806F0B4FB674806F0C5
:1029C000B1FB5D4B1B78002B13D05C4B1B78002BAD
:1029D0000FD1594B1B781A4652001344DBB2013316
:1029E000DBB21A4621215648FEF7E0F8534B01228C
:1029F0001A70514B00221A70524B01221A70524B1E
:102A000000221A70514B00221A70554B00221A8076
:102A10000AE0454806F026FC524806F023FC4148EF
:102A200006F020FC00E000BF404B00221A70404B33
:102A300001221A7014E30121082000F057FD002341
:102A4000FB80494BDB78002B30D0484B00221A60CA
:102A5000384B01221A70444B9B789BB21B02FB80BF
:102A6000414B5B789AB2FB881343FB80FB885B0485
:102A70003F4A82FB03121A441212DB17D31A1A467A
:102A80003A4B1A60394B1B682A4A1278114618468D
:102A900000F032FE0346354A1360264B1B78334A5A
:102AA00012681146184600F07FFBD9E2314B002234
:102AB0001A60204B00221A702B4B9B789BB21B0292
:102AC000FB80294B5B789AB2FB881343FB80FB8821
:102AD0005B04274A82FB03121A441212DB17D31A33
:102AE0001A46244B1A60234B1B68124A127811466F
:102AF000184600F001FE03461E4A13600D4B1B787A
:102B00001C4A12681146184600F04EFBA8E200BFAE
:102B1000A00B0020EC090020AD09002000000240BD
:102B2000FC0900208C05002010040020990B0020D7
:102B3000980B0020AC0000205D0100205501002012
:102B400060010020000000208101002056010020CB
:102B50009A0B002008070020F4040020BC06002087
:102B60006E0900205C040020100A0020F8090020F3
:102B7000B7600BB6F40900209E4B5B78002B14BFA6
:102B800001230023DAB29C4B1A700121092000F0C6
:102B9000ADFC9A4B01221A70994B09221A70994B7D
:102BA00001221A70934B5B78002B0BD14FF4C87144
:102BB0000020FDF74FFF944806F0DCFA934806F03A
:102BC000D9FA4DE24FF4C8710120FDF743FF8E485A
:102BD00006F0D0FA8E4806F0CDFA41E28D4B854AD8
:102BE00092E8030018600433198001210A2000F0E4
:102BF0007DFC884B5B78002B03D0874B01221A7039
:102C00002EE2854B00221A702AE200F029FD834B48
:102C100000221A70824B1B8801339AB2804B1A80B3
:102C20001EE200F0DFFE754B01221A707D4B002280
:102C30001A7015E26F4B9B78002B0DD07A4B002257
:102C40001A7001221021794804F0B6FA01222021DD
:102C5000774804F0B1FA0CE0734B01221A7000229D
:102C60001021724804F0A8FA00222021704804F0D4
:102C7000A3FA604B5B78184600F02AFAF0E15E4B4D
:102C80001B78002B40F0EB815F4806F073FA5F4839
:102C900006F070FAE3E10121102000F027FC584B08
:102CA00008221A70634B00221A60524B9B781B0259
:102CB0001A46604B1A604F4B5B781A465D4B1B6897
:102CC00013435C4A13604C4B1B78002B2AD096218F
:102CD0000120FDF7BFFE584B00221A60554B1B68C0
:102CE0005B04DB08554AA2FB03239B08BB60424BF5
:102CF0001B781946B86800F0FFFC03464E4A136083
:102D00003D4B1B784C4A12681146184600F04CFAAD
:102D1000394B1B781A464A4B1B6819461046FDF77B
:102D20006BFD9DE14FF4C8710020FDF793FE454B0C
:102D300000221A603F4B1B685B04DB083F4AA2FB82
:102D400003239B08BB602C4B1B781946B86800F026
:102D5000D3FC03463B4A1360274B1B78394A126861
:102D60001146184600F020FA234B1B781A46344BC4
:102D70001B6819461046FDF73FFD71E10121112046
:102D800000F0B4FB1C4B1B781846FDF7C9FD1C4B2B
:102D900000221A701B4B00221A7061E101211220DF
:102DA00000F0A4FB134B5B78002B03D0124B0122E5
:102DB0001A7055E1104B00221A7051E101211320C5
:102DC00000F094FB204B1B68204A13601C4B1B68CF
:102DD0001F4A13601D4B1B681E4A13601C4B1B6867
:102DE0001C4A536002231C4A02211A48FDF7B0FB1B
:102DF00036E100BF100A0020AC000020980B002034
:102E0000990B00209A0B00208C0500201004002054
:102E10005C040020180A00209B0B002055010020B4
:102E200060090020A4090020940B0020000002404B
:102E300000080240000A0020F0090020176CC116AB
:102E4000A40B0020EC090020A00B0020E4090020C6
:102E5000E80900209C0900200080010801211420BD
:102E600000F044FB824B01221A70824B01221A703F
:102E7000814B00221A70814B5B78184600F0F6FCFB
:102E800003461A467E4B1A707C4B9B78012B07D168
:102E90007B4B1B7863F07F03DAB2794B1A7006E044
:102EA000774B1B7843F00803DAB2754B1A70744BFA
:102EB0001A78734B5A70734806F04CFF6423012252
:102EC0006F49704806F079FE05226F496D4806F09B
:102ED000FDFEC5E005226D496A4806F0F7FE0122B5
:102EE0004FF400616A4804F067F9012002F04AFEDD
:102EF00000224FF40061664804F05EF9B0E0654BD3
:102F00001B7883F00103DBB2002B24D001221021B7
:102F10005F4804F051F9604B00221A700122202111
:102F20005B4804F049F9642002F02CFE00222021C5
:102F3000574804F041F905225849594805F07EFAEE
:102F40000021012000F0D2FA534B1B780133DAB292
:102F5000514B1A70E2E701222021524804F02CF96B
:102F60004D4B00221A70012201214F4804F024F930
:102F7000642002F007FE002201214B4804F01CF9F6
:102F800005224A494A4805F059FA0021012000F07B
:102F9000ADFA414B1B780133DAB23F4B1A70E2E7CE
:102FA0003C4B1B7883F00103DBB2002B0BD00522D6
:102FB0003A493B4805F042FA6423052237493D4827
:102FC00006F0FBFD4CE005223849394805F036FA99
:102FD000642305223549374806F0EFFD40E0002321
:102FE000FB6002E0FB680133FB60FB68812BF9DDCD
:102FF000314808F0ADF933E001211A2000F076FAEB
:103000002E4B1B684FF4FA72DA62194B01221A70C8
:103010002B4B00221A70174B01221A70164B0022FC
:103020001A70012000F0B4FB03461A46144B1A70C4
:10303000244B05221A70244B02221A70114806F004
:1030400089FE642301220E490E4806F0B6FD0522D2
:103050000D490C4806F03AFE02E000BF00E000BF58
:103060001A4B00221A7000BF1037BD4680BD00BF4A
:1030700081010020AF090020B0090020100A0020C3
:103080006809002054070020380000205801002063
:1030900000000240AC00002071090020240900203B
:1030A0002C02002000080240000402402C090020ED
:1030B000C8010020DC07002088BC0008D8050020DB
:1030C00055090020990B0020980B0020910B00203F
:1030D00080B584B000AF0346FB712A4B1B7883F0A8
:1030E0000103DBB2002B29D00023FB6021E0012289
:1030F0002021254804F060F8022002F043FD002260
:103100002021214804F058F8022002F03BFD202144
:103110001D4804F06AF805221C491D4805F08EF987
:103120006423052219491B4806F047FDFB6801335B
:10313000FB60FB79FA689A42D9DB1BE00023BB6095
:1031400014E00121144804F050F8042002F01AFDA4
:1031500005221249124805F071F9642305220F492E
:103160000C4806F02AFDBB680133BB60FB79BA68E6
:103170009A42E6DB0B4B00221A7000BF1037BD46A7
:1031800080BD00BFAC0000200000024024090020E8
:103190002C020020DC070020000402402C09002043
:1031A000C80100207009002080B582B000AF03463E
:1031B0003960FB71FB7983F00103DBB2002B40D057
:1031C000424B1B683A689A421DD2404B1A683B68D2
:1031D000D21A3E4B1B683968CB1A03F500339A426A
:1031E00008D9012210213A4803F0E6FF394B0022AA
:1031F0001A7066E000221021354803F0DDFF354BE0
:1032000001221A705DE0314B1A683B68D31A03F54E
:1032100000322E4B1B683968CB1A9A4208D2002222
:1032200010212B4803F0C8FF2A4B01221A7048E0F6
:1032300001221021264803F0BFFF264B00221A70FE
:103240003FE0254B1B683A689A421DD2224B1A6810
:103250003B68D21A204B1B683968CB1A03F5003340
:103260009A4208D9012220211C4803F0A5FF1C4BDB
:1032700000221A7025E000222021184803F09CFF4C
:10328000174B01221A701CE0134B1A683B68D31AC3
:1032900003F50032104B1B683968CB1A9A4208D2EA
:1032A000002220210D4803F087FF0D4B01221A70E8
:1032B00007E001222021094803F07EFF084B00228D
:1032C0001A7000BF0837BD4680BD00BFA00B0020AC
:1032D00000000240940B0020A40B002000080240D4
:1032E000950B002080B582B000AF7860391D4FF695
:1032F000FF730122034806F060FC7B68184608371C
:10330000BD4680BDDC07002080B485B000AF78608A
:103310007B681B682C4A934202D12C4B01221A7005
:103320007B681B682A4A934248D12A4B1B78002BA2
:1033300041D00023FB60284B1B781A46264B5B7854
:103340001344254A92781344FB60FB68DBB2FB60B0
:10335000214BDB781A46FB68934203D11E4B1B7945
:10336000A52B06D01D4B00221A701D4B02221A708D
:103370000DE0194B1A781B4B1B781B09DBB29A42E4
:1033800005D0164B00221A70154B01221A70164BED
:103390001B78002B09D0144B00221A70134B00220B
:1033A0001A70134B00221A7002E0104B01221A709F
:1033B000084B00221A700F4B01221A7000BF1437FD
:1033C000BD465DF8047B704700480040910B00202B
:1033D000001001408101002038000020980B0020DF
:1033E000A409002068090020AD000020B0090020D9
:1033F000AF090020900B002080B483B000AF78604C
:103400007B681B682D4A934226D12D4B9B785B0924
:10341000DBB203F007032B4A1360294B5B78DA0019
:10342000284B1B681343274A1360254B1B78DB028C
:1034300003F4FC32234B1B681343224A1360214BD5
:103440001B68214A53611F4B1B68C3F500331F4A99
:1034500013601F4B01221A707B681B681D4A934240
:1034600026D11D4B9B785B09DBB203F007031B4A97
:103470001360194B5B78DA00184B1B681343174A2B
:103480001360154B1B78DB0203F4FC32134B1B68F3
:103490001343124A1360114B1B68114A53610F4BBF
:1034A0001B68C3F500330F4A13600F4B01221A70DB
:1034B00000BF0C37BD465DF8047B70470034014007
:1034C00024090020A00B002084010020B80900205E
:1034D000920B0020003C00402C090020A40B00208F
:1034E00004000020BC090020930B002080B584B0AC
:1034F00000AF03460A46FB711346BB714C4B0022DA
:103500001A80FB79012B77D14A4B01221A704A4B62
:103510001A78484B5A70494B1A78464B9A70484B68
:103520001B781A46434BDA70464B1A78414B1A7196
:10353000454B1A783F4B5A71444B1A783D4B9A7160
:10354000424B5A783B4BDA71404B9A78394B1A729E
:103550003F4B1B68DAB2374B5A723D4B1B681B0A54
:10356000DAB2344B9A723A4B1B681B0CDAB2314B0D
:10357000DA72384B1B68DAB22E4BDA73354B1B68A4
:103580001B0ADAB22B4B1A74324B1B681B0CDAB2D3
:10359000284B5A74274B0022DA77264B002283F8F7
:1035A00020200023FB6016E0224AFB6813441B78AE
:1035B0009AB2FB6801331F49CB5C9BB21B029BB2E2
:1035C00013449AB21A4B1B8813449AB2184B1A80B0
:1035D000FB680233FB60FB681D2BE5DD154B9B7F11
:1035E0009AB2134B1B8813449AB2114B1A801A4B90
:1035F0000F4A12881A8010E021210E48FDF7BAFA0E
:103600000C4AFB7913700B4ABB795370094AFB795A
:10361000D377084ABB7982F82030642321220549F8
:103620000E4806F0CAFA00BF1037BD4680BD00BF85
:103630006A09002034090020980B0020990B002013
:103640009A0B0020550100209C0B0020200A00202E
:10365000B8090020BC09002053090020DC07002025
:1036600080B582B000AF0023FB801F4B0B221A7085
:103670001D4B0022DA771C4B002283F82020002308
:103680003B6013E0184A3B6813441B789AB23B68CE
:1036900001331549CB5C9BB21B029BB213449AB217
:1036A000FB881344FB803B6802333B603B681D2B67
:1036B000E8DD0D4B9B7F9AB2FB881344FB800B4ADD
:1036C000FB8813800A4806F045FB64232122064943
:1036D000074806F072FA06220649054806F0F6FA8F
:1036E00000BF0837BD4680BD600100207F0100207B
:1036F000DC070020100A002080B485B000AF78609D
:103700000B46FB700023FB60FB78002B14D01E4B94
:103710001A687B681344B3F5003F07D91A4B1A683F
:103720007B681344A3F50033FB6019E0164B1B685C
:103730007A681344FB6013E0144B1A687B681344E7
:10374000B3F5003F07D9114B1A687B681344A3F502
:103750000033FB6004E00D4B1B687A681344FB6088
:10376000FB68002B01D15C23FB60FB68B3F5003FD5
:1037700002D1FB685C3BFB60FB6818461437BD4612
:103780005DF8047B704700BFE8090020E4090020D1
:1037900080B483B000AF0346FB71FB79802B5CD013
:1037A000802B5CDC202B47DC002B58DD013B1F2BE2
:1037B00055D801A252F823F03F38000843380008DA
:1037C0005F380008473800085F3800085F38000895
:1037D0005F3800084B3800085F3800085F38000881
:1037E0005F3800085F3800085F3800085F3800085D
:1037F0005F3800084F3800085F3800085F3800085D
:103800005F3800085F3800085F3800085F3800083C
:103810005F3800085F3800085F3800085F3800082C
:103820005F3800085F3800085F3800085F3800081C
:103830005F38000853380008402B0CD00FE00023FD
:103840000EE011230CE022230AE0332308E0442396
:1038500006E0552304E0662302E0772300E001231D
:1038600018460C37BD465DF8047B704780B483B0C2
:1038700000AF0346FB71FB79802B5CD0802B5CDCB6
:10388000202B47DC002B58DD013B1F2B55D801A214
:1038900052F823F01B3900081F3900083B39000893
:1038A000233900083B3900083B3900083B39000840
:1038B000273900083B3900083B3900083B3900082C
:1038C0003B3900083B3900083B3900083B39000808
:1038D0002B3900083B3900083B3900083B39000808
:1038E0003B3900083B3900083B3900083B390008E8
:1038F0003B3900083B3900083B3900083B390008D8
:103900003B3900083B3900083B3900083B390008C7
:103910002F390008402B0CD00FE007230EE01623B0
:103920000CE025230AE0342308E0432306E0522379
:1039300004E0612302E0702300E0012318460C3705
:10394000BD465DF8047B704780B400AF1F4B1B7809
:103950001A461E4B5B7813441C4A92781344DBB220
:103960001A4AD27893422CD1184B1B79A52B28D117
:10397000174B1B78002B12D0144B1A78154B1A706A
:10398000124B5A78134B5A70104B9A78114B9A700D
:10399000114B1B8801339AB20F4B1A800BE00B4B73
:1039A0001A780E4B1A70094B5A780C4B5A70074B09
:1039B0009A780A4B9A700A4B1B8801339AB2084BCB
:1039C0001A8000BFBD465DF8047B70475801002097
:1039D00056010020280A00205A090020200A002051
:1039E0005C09002080B500AF21210D48FDF7C2F829
:1039F0000B4B0C221A700B4B1A78094B5A70084B60
:103A00000C22DA77074B1A78054B83F820206423C1
:103A100021220349044806F0D0F800BF80BD00BF52
:103A200034090020A4090020DC07002080B500AF85
:103A3000194B1B78002B16D0184B1B681A1F184BFC
:103A40001B689A4225D8154B1B681A1D144B1B681E
:103A50009A421ED3104B1B781846FCF775FF114B8A
:103A600000221A7015E0104B1B681A1F0F4B1B68C1
:103A70009A420ED80C4B1B681A1D0C4B1B689A42BD
:103A800007D3054B1B781846FCF75EFF054B002259
:103A90001A7000BF80BD00BFAC000020F0090020FC
:103AA000A40B0020990B0020EC090020A00B0020A3
:103AB00080B500AF224B1B784B211846FCF7CAFF9C
:103AC0001F4B1B78002B1CD01E4B1B68A3F12E0232
:103AD0001D4B1B689A4230D81A4B1B6803F12E020B
:103AE000194B1B689A4228D3184805F0BBFB1848AD
:103AF00005F0B8FB174B00221A70174B00221A7002
:103B00001BE0164B1B68A3F12E02154B1B689A4253
:103B100013D8124B1B6803F12E02114B1B689A42FB
:103B20000BD3104805F09EFB094805F09BFB094BA1
:103B300000221A70084B00221A7000BF80BD00BF1F
:103B4000AC000020F8090020A40B00205C04002039
:103B50008C050020990B00209A0B0020F40900200E
:103B6000A00B00201004002080B500AF1A4B1B787A
:103B700083F00103DBB2002B13D0184B1B68A3F1B9
:103B80002E02174B1B689A4224D8144B1B6803F172
:103B90002E02134B1B689A421CD30F4B01221A7042
:103BA00018E0104B1B68A3F12E020D4B1B689A42C4
:103BB00010D80C4B1B6803F12E02094B1B689A426C
:103BC00008D3094805F04EFB084805F04BFB084BAD
:103BD00000221A7000BF80BDAD090020FC09002042
:103BE000A00B0020EC090020100400208C05002010
:103BF000990B002080B500AF654B1B7883F0010363
:103C0000DBB2002B2DD0634B01221A70624B1B6874
:103C10005A1F624B1B689A4223D85F4B1B685A1D80
:103C20005E4B1B689A421CD35D4B1B781846FCF711
:103C30008BFE5B4B1B785B4A126811461846FFF7F8
:103C4000B3FA534B01221A70574B1A88574B1A80FC
:103C5000534B1B781A46514B1B6819461046FCF70C
:103C6000CBFD4B4B1B78002B00F0F280504B1B78A8
:103C700083F00103DBB2002B2AD0464B00221A70DE
:103C8000484B1B685A1F454B1B689A4220D8454B2E
:103C90001B685A1D414B1B689A4219D3444B0122A1
:103CA0001A7005224349444806F010F801224FF4E7
:103CB0000061424803F080FA414B01221A701E2035
:103CC000FCF7C6FC00224FF400613C4803F074FA94
:103CD000374B1B78002B00F0BB803A4B1B7883F0EE
:103CE0000103DBB2002B00F0B3802C4B1A68364B7B
:103CF0001B689A4228D3344B1B6803F12E02274BD2
:103D00001B689A4220D305222A492B4805F0DEFF82
:103D100001224FF40061294803F04EFA284B01229A
:103D20001A701E20FCF794FC00224FF40061234817
:103D300003F042FA254B1B8801339AB2234B1A80B9
:103D4000204B01221A70C5E0214B1B68043B1A4628
:103D5000124B1B689A4263D81D4B1B6804331A46EA
:103D60000E4B1B689A425BD3194B1B68194A128889
:103D70009B1A002B30DA164B1B68164A12889B1AC6
:103D8000002BB8BF5B42C3F50033114A13602AE031
:103D9000A70900209A0B0020D0090020A00B0020CA
:103DA000AC000020C0090020B0000020C6010020A7
:103DB000A5090020580100205407002000000240FF
:103DC00056010020A6090020C80900206209002031
:103DD000DC090020040A00203F4B1B683F4A128880
:103DE0009B1A3D4A136005223D493E4805F06EFF8F
:103DF00001224FF400613C4803F0DEF93B4B012205
:103E00001A701E20FCF724FC00224FF40061364893
:103E100003F0D2F9364B1B8801339AB2344B1A8027
:103E2000344B1B78002B13D0334B1B68A3F13C029F
:103E3000324B1B689A420BD82F4B1B6803F13C0294
:103E40002E4B1B689A4203D32D4B1B682D4A1360DF
:103E50002D4B1B78002B3DD0244B1B7883F00103A6
:103E6000DBB2002B36D0294B1B78002B32D1284BEC
:103E70001B78002B0FD0264B1B781A465200134498
:103E8000DBB20133DBB21A4621212248FCF78EFE59
:103E90001E4B01221A701E4B00221A701E4B01226B
:103EA0001A701E4B00221A701D4B00221A701D4BF7
:103EB00001221A70144B01221A700C4B00221A7046
:103EC000194B00221A70FCF752FC184B1B7818464D
:103ED000FCF73AFD80BD00BFDC090020040A002089
:103EE0005801002054070020000002405601002025
:103EF00062090020B509002098090020A00B0020CD
:103F0000C0090020C8090020A60900205501002092
:103F10005D0100206001002000000020990B0020BE
:103F200081010020980B002054010020AC000020EB
:103F300080B500AF664B1B7883F00103DBB2002B2A
:103F40002DD0644B01221A70634B1B685A1F634BC0
:103F50001B689A4223D8604B1B685A1D5F4B1B6835
:103F60009A421CD35E4B1B781846FCF7EDFC5C4B69
:103F70001B785C4A126811461846FFF715F9544B36
:103F800001221A70584B1A88584B1A80544B1B78D0
:103F90001A46524B1B6819461046FCF72DFC4C4B39
:103FA0001B78002B00F0F480514B1B7883F0010349
:103FB000DBB2002B2AD0474B00221A70494B1B68FA
:103FC0005A1F464B1B689A4220D8464B1B685A1D05
:103FD000424B1B689A4219D3454B01221A700522A5
:103FE0004449454805F072FE01224FF40061434800
:103FF00003F0E2F8424B01221A700A20FCF728FB7A
:1040000000224FF400613D4803F0D6F8384B1B788E
:10401000002B00F0BD803B4B1B7883F00103DBB22B
:10402000002B00F0B580384B1B68A3F108022B4B26
:104030001B689A4228D8344B1B6803F10802274BAF
:104040001B689A4220D305222A492B4805F03EFEE0
:1040500001224FF40061294803F0AEF8284B0122F9
:104060001A700A20FCF7F4FA00224FF4006123488A
:1040700003F0A2F8254B1B8801339AB2234B1A8018
:10408000204B01221A70C3E0214B1B68043B1A46E7
:10409000124B1B689A4263D81D4B1B6804331A46A7
:1040A0000E4B1B689A425BD3194B1B68194A128846
:1040B0009B1A002B30DA164B1B68164A12889B1A83
:1040C000002BB8BF5B42C3F50033114A13602AE0EE
:1040D000A70900209A0B0020D4090020A40B00207F
:1040E000AC000020C4090020B2000020C60100205E
:1040F000A5090020580100205407002000000240BC
:1041000056010020A6090020CC09002062090020E9
:10411000E0090020060A00203E4B1B683E4A128838
:104120009B1A3C4A136005223C493D4805F0CEFDF0
:1041300001224FF400613B4803F03EF83A4B012264
:104140001A700A20FCF784FA00224FF40061354807
:1041500003F032F8354B1B8801339AB2334B1A8087
:10416000334B1B78002B13D0324B1B68A3F13C025E
:10417000314B1B689A420BD82E4B1B6803F13C0253
:104180002D4B1B689A4203D32C4B1B682C4A13609F
:104190002C4B1B78002B3BD0234B1B7883F0010367
:1041A000DBB2002B34D0284B1B78002B30D1274BAF
:1041B0001B78002B0FD0254B1B781A465200134456
:1041C000DBB20133DBB21A4621212148FCF7EEFCB9
:1041D0001D4B01221A701D4B00221A701D4B01222B
:1041E0001A701D4B00221A701C4B00221A701C4BB7
:1041F00001221A70134B01221A700B4B00221A7005
:10420000184B00221A70184B1B781846FCF79CFBC1
:1042100080BD00BFE0090020060A002058010020F0
:1042200054070020000002405601002062090020CF
:10423000B509002098090020A40B0020C409002023
:10424000CC090020A6090020550100205D010020B6
:104250006001002000000020990B00208101002057
:10426000980B002054010020AC00002080B582B0E3
:1042700000AF994B1B7883F00103DBB2002B02D017
:10428000954B01221A70944B1B78002B00F0E580AF
:10429000924B1B7883F00103DBB2002B00F0DD8032
:1042A0008F4B1B7883F00103DBB2002B21D08D4BA9
:1042B00001221A708C4B1B685A1F8C4B1B689A4248
:1042C00017D8894B1B685A1D884B1B689A4210D31C
:1042D000874804F0C7FF874B1B78874A126811464E
:1042E0001846FEF761FF7E4B01221A70804804F0E9
:1042F00041FF7B4B1B78002B00F0AF807F4B1B787E
:1043000083F00103DBB2002B2AD0764B00221A7017
:10431000794B1B685A1F754B1B689A4220D8764B05
:104320001B685A1D714B1B689A4219D3734B0122AB
:104330001A7005227249734805F0C8FC01224FF437
:104340000061714802F038FF704B01221A700220A0
:10435000FCF77EF900224FF400616B4802F02CFF5D
:10436000664B1B78002B78D0694B1B7883F00103D8
:10437000DBB2002B71D0674B1B68A3F108025B4BCB
:104380001B689A4234D8634B1B6803F10802574BF1
:104390001B689A422CD3604B1B78002B0FD05E4BCE
:1043A0001B781A4652001344DBB20133DBB21A46C3
:1043B00021215A48FCF7FAFB594B01221A70564B3F
:1043C00000221A70574B01221A70574B00221A70A4
:1043D0004E4B00221A70464804F044FF534804F044
:1043E00041FF3E4B01221A703E4B01221A7034E00D
:1043F0004F4B1B68043B1A463C4B1B689A422CD817
:104400004B4B1B6804331A46384B1B689A4224D323
:10441000484B1B881A46464B1B681344444A13609A
:1044200005223749374805F051FC01224FF400615D
:10443000354802F0C1FE354B01221A700220FCF70C
:1044400007F900224FF400612F4802F0B5FE3A4B05
:104450001B8801339AB2384B1A80204B1B78002BF3
:1044600000F0A580354B1B78002B02D000F0B4F88B
:104470009DE01A4B1B78002B00F099802B4804F02C
:10448000F1FE2F4804F0EEFE1C4B00221A70144B74
:1044900000221A701E4B00221A70174B1B687B609B
:1044A0001C4A7B6813601B4B1B68134A1360254B27
:1044B000B3F90030B3F5B27F48DB224BB3F90030DB
:1044C0000533002BB8BF5B429AB21F4B1A801E4BBC
:1044D0004FF698621A8041E0AA090020A80900203E
:1044E000A70900209A0B0020D0090020A00B002073
:1044F00010040020AC000020C0090020A509002005
:1045000058010020540700200000024056010020FE
:10451000A6090020C80900205D01002060010020DC
:104520005501002000000020810100208C050020A2
:10453000DC090020040A002062090020A9090020EB
:104540005C0400200A0A00200C0A00201A4BB3F970
:1045500000309BB205339AB2184B1A80174B1B8858
:104560005B04174A82FB03121A441212DB17D31A98
:104570001A46144B1A60134B1B68134A12781146E3
:104580001846FFF7B9F803460E4A13600E4B1B7826
:104590000C4A126811461846FEF706FE0B4B012224
:1045A0001A700B4804F0E6FD0A4804F0E3FD00BF72
:1045B0000837BD4680BD00BF0A0A00200C0A002053
:1045C000B7600BB6D0090020AC000020A90900207C
:1045D0008C0500201004002080B500AF6F4B1B78C5
:1045E00083F00103DBB2002B21D06D4B01221A7046
:1045F0006C4B1B685A1F6C4B1B689A4217D8694B4F
:104600001B685A1D684B1B689A4210D3674804F018
:1046100029FE674B1B78674A126811461846FEF759
:10462000C3FD5E4B01221A70604804F0A3FD5B4B92
:104630001B78002B00F0B0805F4B1B7883F00103E8
:10464000DBB2002B2AD0564B00221A70594B1B6844
:104650005A1F554B1B689A4220D8564B1B685A1D4F
:10466000514B1B689A4219D3534B01221A700522F1
:104670005249534805F02AFB01224FF4006151488A
:1046800002F09AFD504B01221A700220FBF7E0FF66
:1046900000224FF400614B4802F08EFD464B1B7820
:1046A000002B79D0494B1B7883F00103DBB2002B40
:1046B00072D0474B1B681A1F3B4B1B689A4236D877
:1046C000434B1B681A1D384B1B689A422FD3414B32
:1046D0001B78002B0FD03F4B1B781A465200134417
:1046E000DBB20133DBB21A4621213B48FCF75EFA0C
:1046F0003A4B01221A70374B00221A70384B0122B4
:104700001A70384B00221A70374B00221A70374B40
:1047100001221A702D4B01221A702B4B00221A70A5
:10472000224804F09FFD324804F09CFD34E0314BF8
:104730001B68043B1A461C4B1B689A422CD82D4B15
:104740001B6804331A46184B1B689A4224D32A4B21
:104750001B881A46274B1B681344264A1360052200
:104760001649174805F0B2FA01224FF400611548C6
:1047700002F022FD144B01221A700220FBF768FFA1
:1047800000224FF400610F4802F016FD1B4B1B88FE
:1047900001339AB2194B1A8000BF80BDA7090020CF
:1047A0009A0B0020D0090020A00B0020100400204C
:1047B000AC000020C0090020A509002058010020FD
:1047C000540700200000024056010020A6090020E6
:1047D000C80900205D010020600100205501002073
:1047E00000000020990B002081010020980B002080
:1047F0008C050020DC090020040A0020620900204A
:1048000080B487B000AF786039607B680C4AA2FB47
:104810000323DB087B613B685B00094AA2FB03239F
:10482000DB083B617A693B69B2FBF3F39BB201336E
:10483000FB81FB8918461C37BD465DF8047B704739
:10484000CDCCCCCC80B400AF224B1A68224B1B6875
:104850009A4238D31F4B1B689AB21F4B1B689BB2FE
:10486000D31A9AB21D4B1B8813449AB21B4B1A8061
:104870001A4B1B881A461A4B1B681344184A1360BC
:10488000164B1B88C72B1ED9164B1B881946134B7A
:104890001B88154AA2FB03239B099BB25B00CB1A22
:1048A0001A46124B1A600D4B1B880F4AA2FB0312CB
:1048B0009209C82101FB02F29B1A9AB2074B1A8097
:1048C0000A4B1B6801E0074B1B881846BD465DF884
:1048D000047B704774090020780900206E090020CD
:1048E000A80B0020560900201F85EB5180090020ED
:1048F00080B485B000AF78600B467B800023FB81DD
:104900000023BB812EE0FB897A6813441A78BB89A7
:1049100011461A4A42F82310BB89184A52F823203C
:10492000FB89013379680B441B781B021946BB894C
:104930000A43124941F82320BB89104A52F8232028
:10494000FB89023379680B441B781B041946BB8929
:104950000A430A4941F82320FB890333FB81BB89C1
:104960000133BB81FA897B889A42CCD300BF00BF58
:104970001437BD465DF8047B704700BFC80A0020AD
:1049800080B582B000AF0346FB80FB8840F26D1219
:10499000934252D0B3F5B77F80F2A480B62B58D0A3
:1049A000B62B00F39F801D2B44DC002B40F39A8034
:1049B000013B1C2B00F2968001A252F823F000BFAD
:1049C000CD4A0008E54A0008B54A0008E54A000853
:1049D000E54A00089D4A0008E54A0008E54A000843
:1049E000E54A0008E54A0008E54A0008E54A0008EB
:1049F000E54A0008E54A0008E54A0008E54A0008DB
:104A0000E54A0008E54A0008E54A0008E54A0008CA
:104A1000E54A0008E54A0008E54A0008E54A0008BA
:104A2000E54A0008E54A0008E54A0008E54A0008AA
:104A3000854A00083C2B18D054E02C4B4FF4B76249
:104A40001A802A4B1A882A4B1A80C820FCF748F88B
:104A500048E0264B4FF474721A80244B1A88244B7A
:104A60001A80C820FCF73CF83CE0204B4FF4B772AA
:104A70001A801E4B1A881E4B1A804FF47A70FCF76E
:104A80002FF82FE0194BF4221A80184B1A88184B74
:104A90001A804FF47A70FCF723F823E0134B32228C
:104AA0001A80124B1A88124B1A804FF47A70FCF756
:104AB00017F817E00D4B18221A800C4B1A880C4B74
:104AC0001A804FF47A70FCF70BF80BE0074B0A22C0
:104AD0001A80064B1A88064B1A804FF47A70FBF73F
:104AE000FFFF00BF00BF0837BD4680BDB2000020F9
:104AF000B000002080B500AF294804F0B3FB29487E
:104B000004F0A0FA4FF47A7001F03CF8062226492E
:104B1000264805F0DBF805222549264803F08EFCDF
:104B200005222549254803F089FCFBF7FBFC0223FD
:104B3000234A02212348FBF755FD224B1B68224ADA
:104B40001361204B5B68214A13611E4B1B68204A8E
:104B500013601C4B5B681F4A13601B4B104ADA60E2
:104B60001A4B1D4ADA60184B40F2DC52DA80174BC0
:104B700040F2DC52DA80144BDB8819461248FBF70E
:104B8000C1FF124BDB8819461048FBF7BBFF134BE4
:104B900040F2DC521A80124B01221A7000BF80BD15
:104BA0001004002040050020100A0020DC0700202F
:104BB000240900202C0200202C090020C80100201C
:104BC000008001089C0900208401002004000020CE
:104BD000E4090020E80900205C040020C601002050
:104BE000980B002080B500AF524B1B78013B082B7F
:104BF00000F2938001A252F823F000BF214C00087C
:104C0000774C00081B4D0008CD4C00081B4D0008D8
:104C10000D4D00080D4D00080D4D00080D4D00080C
:104C20000020FBF77DFE444B1B78002B13D0434B39
:104C30001B78002B0FD1404B1B781A4652001344AF
:104C4000DBB20133DBB21A4621213D48FBF7AEFF50
:104C50003A4B01221A70384B00221A70394B01224C
:104C60001A70394B00221A70384B00221A70384BD8
:104C700000221A7052E00120FBF752FE2E4B1B78E7
:104C8000002B13D02D4B1B78002B0FD12A4B1B78F8
:104C90001A4652001344DBB20133DBB21A4621211B
:104CA0002748FBF783FF254B01221A70224B002275
:104CB0001A70244B01221A70234B00221A70234BC6
:104CC00000221A70224B00221A7027E0214804F0BB
:104CD00029FA214804F026FA204804F023FA212179
:104CE0001748FBF747FF154B00221A70124B0022A2
:104CF0001A70144B01221A70134B00221A70134BB6
:104D000000221A70164B00221A8007E00120FBF7E0
:104D100007FE0020FBF704FE00E000BF054B002269
:104D20001A70104B01221A700F4B1B6800225A6236
:104D300000BF80BD990B00205D01002055010020BF
:104D400060010020000000208101002056010020A9
:104D50009A0B002008070020F4040020BC06002065
:104D60006E090020980B00202406002080B584B036
:104D700000AF78607B68D3F8843003F00803002B21
:104D800008D07B681B6808221A621B4B1B685B6A91
:104D9000DBB2FB737B68194A934229D17B68D3F855
:104DA000843003F00803002B0ED07B681B680822B8
:104DB0001A62124B1B685B6ADBB2BB730622104996
:104DC0000E4804F083FF13E07B681B68DB690D4A23
:104DD00013607B68D3F884300B4A1360074804F0F3
:104DE000AFFEFCF7F5FE06220549044804F06EFF0D
:104DF00000BF1037BD4680BD54070020DC070020EF
:104E0000100A00208C0900209009002080B400AF17
:104E100072B600BFFEE7000080B582B000AF0F4B56
:104E20001B6C0E4A43F0805313640C4B1B6C03F055
:104E300080537B607B68094B5B6C084A43F480437A
:104E40005364064B5B6C03F480433B603B68052076
:104E500000F0B0FF00BF0837BD4680BD00380240FB
:104E600080B58CB000AF786007F11C0300221A6097
:104E70005A609A60DA601A617B681B68984A9342AC
:104E800040F0A080974B1B6C964A43F40043136498
:104E9000944B1B6C03F40043BB61BB69914B1B6BD0
:104EA000904A43F0020313638E4B1B6B03F0020323
:104EB0007B617B698B4B1B6B8A4A43F00403136352
:104EC000884B1B6B03F004033B613B690423FB61CC
:104ED00002233B6200237B620323BB620723FB6246
:104EE00007F11C031946804801F0CEFE4FF44063E1
:104EF000FB6102233B6200237B620323BB62062328
:104F0000FB6207F11C031946784801F0BDFE784B9F
:104F1000784A1A60764B00225A60754B00229A60DC
:104F2000734B0022DA60724B4FF480621A61704B4F
:104F300000225A616E4B00229A616D4B0022DA61A9
:104F40006B4B00221A626A4B00225A62684800F0DA
:104F500081FF0346002B01D0FFF758FF7B68644AAE
:104F60009A65634A7B689363634B644A1A60624B39
:104F700000225A60604B40229A605F4B0022DA6048
:104F80005D4B4FF480621A615B4B00225A615A4BB1
:104F900000229A61584B0022DA61574B00221A62B4
:104FA000554B00225A62544800F054FF0346002B30
:104FB00001D0FFF72BFF7B684F4A5A654E4A7B684A
:104FC000936389E07B681B684D4A934240F084807C
:104FD000444B5B6C434A43F400535364414B5B6C5A
:104FE00003F40053FB60FB683E4B1B6B3D4A43F0F0
:104FF000100313633B4B1B6B03F01003BB60BB68D8
:105000006423FB6102233B6200237B620323BB62B8
:105010000523FB6207F11C0319463A4801F034FEF0
:10502000394B3A4A1A60384B4FF000625A60364B9F
:1050300000229A60344B0022DA60334B4FF48062D6
:105040001A61314B00225A612F4B00229A612E4B7C
:105050000022DA612C4B00221A622B4B00225A628A
:10506000294800F0F7FE0346002B01D0FFF7CEFEE3
:105070007B68254A9A65244A7B689363244B254ABA
:105080001A60234B4FF000625A60214B40229A6015
:105090001F4B0022DA601E4B4FF480621A611C4BDA
:1050A00000225A611A4B00229A61194B0022DA61E0
:1050B000174B00221A62164B00225A62144800F065
:1050C000C9FE0346002B01D0FFF7A0FE7B68104A03
:1050D0005A650F4A7B68936300BF3037BD4680BD79
:1050E000003C00400038024000040240000802403A
:1050F0009002002010600240F00200208860024010
:1051000000340140001002405003002010640240AF
:10511000B00300202864024080B58EB000AF7860F4
:105120007B681B68B3F1804F14D18A4B1B6C894A92
:1051300043F001031364874B1B6C03F001037B6393
:105140007B6B002202211C2000F03FFE1C2000F09F
:1051500058FEFAE07B681B687F4A934214D17D4B6E
:105160001B6C7C4A43F0020313647A4B1B6C03F004
:1051700002033B633B6B002202211D2000F025FE51
:105180001D2000F03EFEE0E07B681B68734A9342FE
:1051900014D1704B1B6C6F4A43F0040313646D4BC6
:1051A0001B6C03F00403FB62FB6A002200211E203B
:1051B00000F00BFE1E2000F024FEC6E07B681B689A
:1051C000674A934214D1634B1B6C624A43F0080355
:1051D0001364604B1B6C03F00803BB62BB6A0022C4
:1051E0000121322000F0F1FD322000F00AFEACE097
:1051F0007B681B685B4A93420CD1564B1B6C554A2B
:1052000043F010031364534B1B6C03F010037B62D9
:105210007B6A9AE07B681B68534A934214D14D4BDA
:105220001B6C4C4A43F0200313644A4B1B6C03F085
:1052300020033B623B6A00220221372000F0C5FDBB
:10524000372000F0DEFD80E07B681B68474A934210
:1052500014D1404B5B6C3F4A43F4003353643D4BE5
:105260005B6C03F40033FB61FB690322032119200B
:1052700000F0ABFD192000F0C4FD66E07B681B6800
:105280003B4A934214D1334B5B6C324A43F4802344
:105290005364304B5B6C03F48023BB61BB69002219
:1052A00000211A2000F091FD1A2000F0AAFD4CE028
:1052B0007B681B682F4A934214D1264B1B6C254AEE
:1052C00043F040031364234B1B6C03F040037B61EA
:1052D0007B69002200212B2000F077FD2B2000F0BD
:1052E00090FD32E07B681B68234A934214D1194B2E
:1052F0001B6C184A43F080031364164B1B6C03F0BD
:1053000080033B613B69012201212C2000F05DFDFF
:105310002C2000F076FD18E07B681B68174A93424A
:1053200013D10C4B1B6C0B4A43F480731364094B71
:105330001B6C03F48073FB60FB68012201212D20AC
:1053400000F043FD2D2000F05CFD00BF3837BD4666
:1053500080BD00BF0038024000040040000800404B
:10536000000C0040001000400014004000440140C8
:105370000048014000180040001C00400020004090
:1053800080B5ACB000AF786007F19C0300221A60D2
:105390005A609A60DA601A6107F11C0380220021CA
:1053A000184605F05FFF7B681B687A4A934273D109
:1053B0004023FB610023BB6507F11C03184602F084
:1053C00047FC0346002B01D0FFF720FD724B5B6CBE
:1053D000714A43F0100353646F4B5B6C03F010038E
:1053E000BB61BB696C4B1B6B6B4A43F001031363DE
:1053F000694B1B6B03F001037B617B694FF4C06356
:10540000C7F89C300223C7F8A0300023C7F8A430A7
:105410000323C7F8A8300723C7F8AC3007F19C0373
:1054200019465E4801F030FC5D4B5E4A1A605C4BE9
:105430004FF000625A605A4B00229A60584B00228B
:10544000DA60574B4FF480621A61554B00225A6163
:10545000534B00229A61524B0022DA61504B4FF4B9
:1054600000321A624E4B00225A624D4800F0F2FCA4
:105470000346002B01D0FFF7C9FC7B68484A5A67F6
:10548000474A7B68936300220121252000F09DFCA0
:10549000252000F0B6FC78E07B681B68424A934206
:1054A00073D14FF48073FB6100233B6607F11C034B
:1054B000184602F0CDFB0346002B01D0FFF7A6FCF7
:1054C000354B1B6C344A43F480231364324B1B6C02
:1054D00003F480233B613B692F4B1B6B2E4A43F047
:1054E000020313632C4B1B6B03F00203FB60FB688E
:1054F0004FF49843C7F89C300223C7F8A03000232C
:10550000C7F8A4300323C7F8A8300723C7F8AC3086
:1055100007F19C031946254801F0B6FB244B254AA8
:105520001A60234B4FF000625A60214B00229A60B0
:105530001F4B0022DA601E4B4FF480621A611C4B35
:1055400000225A611A4B00229A61194B4FF4807263
:10555000DA61174B00221A62154B00225A62144876
:1055600000F078FC0346002B01D0FFF74FFC7B686E
:105570000F4A5A670E4A7B68936300220121272055
:1055800000F023FC272000F03CFC00BFB037BD46F4
:1055900080BD00BF00100140003802400000024002
:1055A00064080020406402400048004000040240BB
:1055B000C40800202860024080B582B000AF786047
:1055C0007B681B68194A934213D1194B5B6C184ACC
:1055D00023F0100353644FF4C061164801F0F0FC4F
:1055E0007B685B6F184600F0E3FC252000F017FC99
:1055F00017E07B681B68104A934212D10C4B1B6C5E
:105600000B4A23F4802313644FF498410B4801F0B4
:10561000D7FC7B685B6F184600F0CAFC272000F0BF
:10562000FEFB00BF0837BD4680BD00BF0010014033
:1056300000380240000002400048004000040240E0
:1056400080B400AFFEE780B400AFFEE780B400AFE7
:10565000FEE780B400AFFEE780B400AFFEE780B4A1
:1056600000AF00BFBD465DF8047B704780B400AF5B
:1056700000BFBD465DF8047B704780B400AF00BF3B
:10568000BD465DF8047B704780B500AF00F05AFA64
:1056900000BF80BD80B500AF024800F0D9FD00BF5B
:1056A00080BD00BF9002002080B500AF024800F02E
:1056B000CFFD00BF80BD00BFC408002080B500AF93
:1056C000024800F0C5FD00BF80BD00BFF002002011
:1056D00080B500AF034B01221A70034803F0F2FDBE
:1056E00000BF80BDB2090020D805002080B500AF02
:1056F000FFF778FA024803F0E5FD00BF80BD00BF68
:105700002406002080B500AF2021064801F06DFD81
:10571000054B1B6800225A62034803F0D3FD00BF0B
:1057200080BD00BF000002401004002080B500AF23
:105730000121064801F059FD054B1B6800225A6201
:10574000034803F0BFFD00BF80BD00BF000402405E
:105750005C04002080B500AF034B01221A7003489F
:1057600003F0B0FD00BF80BD960B0020A804002010
:1057700080B500AF024804F07FFB00BF80BD00BFD2
:105780005407002080B500AF024804F075FB00BF4D
:1057900080BD00BFDC07002080B500AF034B0122B5
:1057A0001A70034803F08EFD00BF80BD970B0020E8
:1057B0007006002080B500AF0A4B1B680133094A10
:1057C0001360094B00221A60084B1B685A6A084B89
:1057D0001B681344064A1360044803F073FD00BFBE
:1057E00080BD00BF64090020B3090020BC06002072
:1057F0007409002080B500AF034B01221A700348E2
:1058000003F060FD00BF80BDB10900200807002043
:1058100080B500AF134B1A68134B1B689A4212D223
:10582000124B1B881946104B1A680E4B1B68D31A73
:1058300003FB01F20E4B1B685200DA620C4B1B6833
:1058400000225A6208E00B4803F06CFC084803F0A1
:1058500069FC094B01221A60054803F033FD00BFC3
:1058600080BD00BF8409002088090020560900205F
:10587000F404002008070020AB09002080B500AF29
:105880000D4B1B7883F00103DBB2002B05D0052202
:105890000A490B4802F0D2FD04E0052209490A48F2
:1058A00002F0CCFD094B1B6800225A62074803F046
:1058B00009FD00BF80BD00BFAC000020240900200E
:1058C0002C0200202C090020C80100208C0500209B
:1058D00080B500AF024800F0BBFC00BF80BD00BF38
:1058E0005003002080B500AF024800F0B1FC00BFBB
:1058F00080BD00BFB003002080B500AF024800F0BB
:10590000A7FC00BF80BD00BF6408002080B586B042
:1059100000AFF860B9607A6000237B610AE0AFF302
:1059200000800146BB685A1CBA60CAB21A707B6913
:1059300001337B617A697B689A42F0DB7B681846A9
:105940001837BD4680BD80B586B000AFF860B9603D
:105950007A6000237B6109E0BB685A1CBA601B783F
:105960001846FDF7BFFC7B6901337B617A697B6870
:105970009A42F1DB7B6818461837BD4680BD80B47B
:1059800083B000AF78604FF0FF3318460C37BD4648
:105990005DF8047B704780B483B000AF78603960F5
:1059A0003B684FF400525A60002318460C37BD463E
:1059B0005DF8047B704780B483B000AF786001234A
:1059C00018460C37BD465DF8047B704780B485B03F
:1059D00000AFF860B9607A60002318461437BD46FE
:1059E0005DF8047B7047000080B586B000AF78603A
:1059F000144A154BD31A7B617B693B61134B1B68BF
:105A0000002B02D1114B124A1A60104B1A687B68A6
:105A100013443A699A4207D205F0FAFB03460C2276
:105A20001A604FF0FF3309E0084B1B68FB60074B1F
:105A30001A687B681344054A1360FB6818461837D8
:105A4000BD4680BD0000042000040000AC0B002017
:105A5000E00B002080B400AF064BD3F88830054A35
:105A600043F47003C2F8883000BFBD465DF8047B84
:105A7000704700BF00ED00E0DFF834D0FFF7EAFF29
:105A80000C480D490D4A002302E0D458C450043399
:105A9000C4188C42F9D30A4A0A4C002301E013606F
:105AA0000432A242FBD305F0B9FBFBF739F970478A
:105AB00000000420000000202401002020BD000878
:105AC00024010020E00B0020FEE780B500AF03209A
:105AD00000F070F9002000F005F8FFF79DF90023B1
