:020000040800F2
:10000000000004206D2B0008DD290008E32900080A
:10001000E9290008EF290008F52900080000000080
:10002000000000000000000000000000FB290008A4
:10003000092A000800000000172A0008252A0008E5
:10004000BD2B0008BD2B0008BD2B0008BD2B0008F0
:10005000BD2B0008BD2B0008BD2B0008BD2B0008E0
:10006000BD2B0008BD2B0008BD2B0008312A00085D
:10007000452A0008BD2B0008592A0008BD2B00089E
:100080006D2A0008BD2B0008BD2B0008BD2B000801
:10009000BD2B0008BD2B0008BD2B0008BD2B0008A0
:1000A000BD2B0008812A0008BD2B0008BD2B0008CD
:1000B000952A0008A92A0008BD2B0008BD2B0008BE
:1000C000BD2B0008BD2B0008BD2B0008BD2B000870
:1000D000BD2B0008BD2A0008BD2B0008D12A00084E
:1000E000BD2B0008BD2B0008BD2B0008BD2B000850
:1000F000BD2B0008BD2B0008BD2B0008BD2B000840
:10010000BD2B0008BD2B0008BD2B0008BD2B00082F
:10011000BD2B0008BD2B0008BD2B0008E52A0008F8
:10012000F92A00080D2B0008212B0008BD2B000820
:10013000BD2B0008000000000000000000000000CF
:10014000000000000000000000000000BD2B0008BF
:10015000BD2B0008BD2B0008352B0008BD2B000867
:10016000BD2B0008BD2B0008BD2B0008BD2B0008CF
:10017000BD2B0008BD2B000800000000000000009F
:10018000BD2B0008BD2B0008BD2B0008BD2B0008AF
:10019000BD2B0008BD2B000800000000BD2B00088F
:1001A000000000000000000000000000BD2B00085F
:1001B000BD2B0008BD2B000800000000000000005F
:1001C000000000000000000000000000000000002F
:1001D000000000000000000000000000BD2B00082F
:1001E00010B5054C237833B9044B13B10448AFF371
:1001F00000800123237010BD2C00002000000000AF
:100200004C83000808B5034B1BB103490348AFF307
:10021000008008BD00000000300000204C83000872
:1002200053B94AB9002908BF00281CBF4FF0FF315D
:100230004FF0FF3000F074B9ADF1080C6DE904CE59
:1002400000F006F8DDF804E0DDE9022304B07047B1
:100250002DE9F047089D04468E46002B4DD18A4279
:10026000944669D9B2FA82F252B101FA02F3C2F1AC
:10027000200120FA01F10CFA02FC41EA030E94403D
:100280004FEA1C48210CBEFBF8F61FFA8CF708FB5E
:1002900016E341EA034306FB07F199420AD91CEB36
:1002A000030306F1FF3080F01F81994240F21C8168
:1002B000023E63445B1AA4B2B3FBF8F008FB1033B0
:1002C00044EA034400FB07F7A7420AD91CEB0404E5
:1002D00000F1FF3380F00A81A74240F207816444B5
:1002E000023840EA0640E41B00261DB1D44000233A
:1002F000C5E900433146BDE8F0878B4209D9002D9E
:1003000000F0EF800026C5E9000130463146BDE827
:10031000F087B3FA83F6002E4AD18B4202D3824291
:1003200000F2F980841A61EB030301209E46002D40
:10033000E0D0C5E9004EDDE702B9FFDEB2FA82F295
:10034000002A40F09280A1EB0C014FEA1C471FFAF3
:100350008CFE0126200CB1FBF7F307FB131140EADA
:1003600001410EFB03F0884208D91CEB010103F1A7
:10037000FF3802D2884200F2CB804346091AA4B269
:10038000B1FBF7F007FB101144EA01440EFB00FE3D
:10039000A64508D91CEB040400F1FF3102D2A645A2
:1003A00000F2BB800846A4EB0E0440EA03409CE741
:1003B000C6F12007B34022FA07FC4CEA030C20FAEE
:1003C00007F401FA06F31C43F9404FEA1C4900FA0E
:1003D00006F3B1FBF9F8200C1FFA8CFE09FB18118B
:1003E00040EA014108FB0EF0884202FA06F20BD9FE
:1003F0001CEB010108F1FF3A80F08880884240F24E
:100400008580A8F102086144091AA4B2B1FBF9F091
:1004100009FB101144EA014100FB0EFE8E4508D98C
:100420001CEB010100F1FF346CD28E456AD9023811
:10043000614440EA0840A0FB0294A1EB0E01A142F6
:10044000C846A64656D353D05DB1B3EB080261EB64
:100450000E0101FA07F722FA06F3F1401F43C5E93E
:10046000007100263146BDE8F087C2F12003D84074
:100470000CFA02FC21FA03F3914001434FEA1C47B6
:100480001FFA8CFEB3FBF7F007FB10360B0C43EAA8
:10049000064300FB0EF69E4204FA02F408D91CEB58
:1004A000030300F1FF382FD29E422DD90238634456
:1004B0009B1B89B2B3FBF7F607FB163341EA0341F6
:1004C00006FB0EF38B4208D91CEB010106F1FF3845
:1004D00016D28B4214D9023E6144C91A46EA00463C
:1004E00038E72E46284605E70646E3E61846F8E6CE
:1004F0004B45A9D2B9EB020864EB0C0E0138A3E717
:100500004646EAE7204694E74046D1E7D0467BE7F7
:10051000023B614432E7304609E76444023842E76F
:10052000704700BF80B582B000AF02F048FB00F01A
:10053000D3F800F0B3FB00F04FFB00F01BFB00F022
:10054000E1FA00F075F900F035F900F0AFF900F0CC
:10055000FBF900F047FA00F07BFA00F0AFFA4848E8
:1005600005F0FCFE474805F0E9FD4FF47A7002F013
:1005700083FB06224449454806F01AFC05224449FB
:10058000444804F0D7FF05224349444804F0D2FF11
:1005900001F030FC424B1A6802230221414801F06D
:1005A00089FC404B1B68404A13603E4B5B683F4AE6
:1005B00013603F4B01221A703E4B1B78002B01D079
:1005C00000F0FAFB3C4B1B78002BF5D03A4B002295
:1005D0001A7001F0ABFD394B1B78012B0BD0374B58
:1005E0001B78022B07D0354B1B78032B03D0334BE2
:1005F0001B78042BE0D10023FB710123BB710BE0BE
:10060000FA79BB792E49895C2E4AD154FB790133A2
:10061000FB71BB790133BB71FB79012BF0D92A4BFC
:100620001B780133DAB2284B1A70274B1B78092B41
:1006300009D1254B00221A70244B00221A70244B3A
:1006400001221A70B8E7204B1B78092B03D1214BEC
:100650001B78002B07D11C4B1B78092BACD01D4BF2
:100660001B78002BA8D0184B00221A70174B0022C1
:100670001A70174B01221A70104B00221A709BE758
:10068000A00200203803002038070020A404002026
:10069000AC060020BC000020B4060020580000205A
:1006A000180000200C070020280700202C0700203D
:1006B0005907002056070020550700205A07002040
:1006C00050070020E006002001070020020700205C
:1006D0005C0700201707002080B594B000AF07F139
:1006E000200330220021184607F028FE07F10C03F2
:1006F00000221A605A609A60DA601A612B4B1B6CF8
:100700002A4A43F080531364284B1B6C03F0805338
:10071000BB60BB68264B1B6823F44043244A43F468
:1007200080431360224B1B6803F440437B607B686B
:1007300001233B624FF480337B620223BB634FF49F
:100740008003FB6308233B64D8237B640223BB64E0
:100750000223FB6407F12003184603F02BFE034637
:10076000002B01D001F054FD03F0D4FD0346002B13
:1007700001D001F04DFD0F23FB6002233B610023FC
:100780007B614FF48053BB614FF48053FB6107F1F1
:100790000C030321184604F0B1F80346002B01D0E6
:1007A00001F036FD00BF5037BD4680BD0038024025
:1007B0000070004080B500AF1B4B1C4A1A601A4BFA
:1007C0004FF482725A60184B00229A60164B4FF415
:1007D000E062DA60144B02221A61134B00225A6164
:1007E000114B4FF400729A610F4B3822DA610E4BB5
:1007F00000221A620C4B00225A620B4B00229A62B2
:10080000094B0722DA62084B00221A63064B0822C2
:100810005A63054804F0E2FD0346002B01D001F0C5
:10082000F7FC00BF80BD00BF58000020003C004026
:1008300080B500AF1B4B1C4A1A601A4B4FF48272F2
:100840005A60184B00229A60164B4FF4E062DA604F
:10085000144B02221A61134B00225A61114B4FF4C0
:1008600000729A610F4B3822DA610E4B00221A6235
:100870000C4B00225A620B4B00229A62094B072252
:10088000DA62084B00221A63064B08225A630548B5
:1008900004F0A4FD0346002B01D001F0B9FC00BF19
:1008A00080BD00BFBC0000200034014080B588B08E
:1008B00000AF07F1100300221A605A609A60DA60F4
:1008C0003B1D00221A605A609A601E4B4FF0804216
:1008D0001A601C4B6B225A601A4B00229A60194B0B
:1008E00041F63F72DA60174B00221A61154B002265
:1008F0009A61144805F0CAFB0346002B01D001F0B1
:1009000087FC4FF480533B6107F1100319460D48F3
:1009100005F05CFE0346002B01D001F079FC0023BA
:100920007B600023FB603B1D1946064806F080F8FB
:100930000346002B01D001F06BFC00BF2037BD4601
:1009400080BD00BFA002002080B588B000AF07F1D5
:10095000100300221A605A609A60DA603B1D002280
:100960001A605A609A601D4B1D4A1A601B4B6B221D
:100970005A601A4B00229A60184B40F69F72DA6058
:10098000164B00221A61154B00229A61134805F09C
:100990007DFB0346002B01D001F03AFC4FF480535D
:1009A0003B6107F1100319460C4805F00FFE0346A2
:1009B000002B01D001F02CFC00237B600023FB60A6
:1009C0003B1D1946054806F033F80346002B01D0BD
:1009D00001F01EFC00BF2037BD4680BDEC020020A8
:1009E0000004004080B584B000AF3B1D00221A60B7
:1009F0005A609A60144B154A1A60134B6B225A6066
:100A0000114B00229A60104B4FF6FF72DA600E4BCA
:100A100000229A610C4805F039FB0346002B01D0F7
:100A200001F0F6FB00237B600023FB603B1D1946B1
:100A3000054805F0FDFF0346002B01D001F0E8FB5F
:100A400000BF1037BD4680BD3803002000100040B5
:100A500080B584B000AF3B1D00221A605A609A60D6
:100A6000144B154A1A60134B6B225A60114B00222B
:100A70009A60104B6322DA600E4B00229A610D4897
:100A800005F004FB0346002B01D001F0C1FB00235D
:100A90007B600023FB603B1D1946064805F0C8FF3C
:100AA0000346002B01D001F0B3FB00BF1037BD4659
:100AB00080BD00BF840300200014004080B500AF5B
:100AC0000E4B0F4A1A600D4B42F62F225A600B4B09
:100AD00000229A60094B41F63F72DA60074B002210
:100AE0001A61064B00229A61044805F0CFFA0346CA
:100AF000002B01D001F08CFB00BF80BDD003002093
:100B00000044014080B500AF184B1B689A68174B32
:100B10001B6842F001029A60144B154A1A60134B8D
:100B20004FF416425A60114B00229A600F4B00227C
:100B3000DA600E4B00221A610C4B0C225A610B4BEF
:100B400000229A61094B0022DA61084B00221A62E6
:100B5000064B00225A62054806F016F80346002BA1
:100B600001D001F055FB00BF80BD00BF1C04002078
:100B70000010014080B500AF154B164A1A60144BA7
:100B80004FF416425A60124B00229A60104B00221A
:100B9000DA600F4B00221A610D4B0C225A610C4B8C
:100BA00000229A610A4B0022DA61094B00221A6284
:100BB000074B00225A62002300220021044807F05C
:100BC00031FB0346002B01D001F022FB00BF80BDAA
:100BD000A40400200048004080B582B000AF2E4B36
:100BE0001B6B2D4A43F4001313632B4B1B6B03F455
:100BF00000137B607B68284B1B6B274A43F4800300
:100C00001363254B1B6B03F480033B603B6800229E
:100C100000210B2002F053F90B2002F06CF90022A6
:100C200000210C2002F04BF90C2002F064F90022A4
:100C300000210E2002F043F90E2002F05CF90022A0
:100C40000021102002F03BF9102002F054F900229C
:100C50000021382002F033F9382002F04CF900224C
:100C60000021392002F02BF9392002F044F900224A
:100C700000213A2002F023F93A2002F03CF9002248
:100C80000021462002F01BF9462002F034F900BF93
:100C90000837BD4680BD00BF0038024080B58AB02D
:100CA00000AF07F1140300221A605A609A60DA60FC
:100CB0001A613D4B1B6B3C4A43F0100313633A4BE4
:100CC0001B6B03F010033B613B69374B1B6B364AD0
:100CD00043F080031363344B1B6B03F08003FB6012
:100CE000FB68314B1B6B304A43F0010313632E4BFF
:100CF0001B6B03F00103BB60BB682B4B1B6B2A4AC9
:100D000043F004031363284B1B6B03F004037B6065
:100D10007B68254B1B6B244A43F002031363224B71
:100D20001B6B03F002033B603B6800224FF407613A
:100D30001E4803F0BBFA002220211D4803F0B6FA3A
:100D4000002203211B4803F0B1FA4FF407637B61D3
:100D50000123BB610023FB6100233B6207F1140305
:100D60001946124803F00AF820237B610123BB6176
:100D70000023FB6100233B6207F1140319460C4872
:100D800002F0FCFF03237B610123BB610023FB61B5
:100D900000233B6207F114031946064802F0EEFFF8
:100DA00000BF2837BD4680BD003802400000024029
:100DB000000802400004024080B584B000AFA14B9F
:100DC0001B78013B182B00F2DA8301A252F823F0C2
:100DD000350E0008890E00087F1500087F150008F1
:100DE0007F1500087F1500087F150008AD1000086A
:100DF00083110008AD110008CD110008D3110008BF
:100E00007F150008E51100082F120008471200089E
:100E100079130008A5130008C5130008FD13000886
:100E2000591400087F150008831400089D14000859
:100E30003F15000805228449844804F07BFB052205
:100E40008349844804F076FB834B1B7883F00103CD
:100E5000DBB2002B13D005228049814805F0A8FFA2
:100E600001224FF400617F4803F020FA642001F072
:100E7000E1F800224FF400617A4803F017FA0021EC
:100E8000012000F081FE7AE30121022000F07CFEC7
:100E9000754B1B78002B14BF01230023DAB2734B70
:100EA0001A70734B00221A70724B664A92E8030064
:100EB0001860043319806F4B5B78013B6E4A134412
:100EC0001B7AFB80694B1B7883F00103DBB2002B9C
:100ED00063D0FB88DBB2053BDBB2644A1278114673
:100EE000184601F0C1F8654B01221A70614B5B781E
:100EF000013B614A13441B7A1A46614B1A605D4BF1
:100F00005B78013B5C4A13441B7A5B045D4A82FBBD
:100F100003121A441212DB17D31A1A46584B1A60DE
:100F2000574B1B68514A12781146184600F02AFFA9
:100F30000346534A13604F4B9B78013B4E4A134480
:100F40001B7A1A46504B1A604A4B9B78013B4A4A1F
:100F500013441B7A5B044B4A82FB03121A4412129D
:100F6000DB17D31A1A46484B1A60474B1B683F4A97
:100F700012781146184600F005FF0346424A1360F6
:100F8000424BB7221A80424B00221A70414805F0AA
:100F90006DF9414805F06AF9F1E2364B5B78013BA7
:100FA000354A13441B7A1A463C4B1A60314B5B7826
:100FB000013B314A13441B7A5B04324A82FB031221
:100FC0001A441212DB17D31A1A46344B1A60334BE9
:100FD0001B68264A12781146184600F0D3FE0346D5
:100FE0002E4A1360234B9B78013B234A13441B7A00
:100FF0001A462B4B1A601F4B9B78013B1E4A134429
:101000001B7A5B041F4A82FB03121A441212DB177D
:10101000D31A1A46224B1A60214B1B68134A1278C6
:101020001146184600F0AEFE03461D4A13601D4BE4
:10103000B7221A80174805F019F91B4805F016F970
:101040009DE200BF38070020AC060020BC00002055
:10105000B406002058000020140700204807002094
:101060001C040020000002405D0700201C0000203E
:101070005C07002040070020080000205A070020DD
:1010800018070020B7600BB62007002032070020A9
:101090001607002084030020A00200201C07002067
:1010A0002407002034070020EC0200200121082042
:1010B00000F06AFDA04BDB78002B2BD09F4B012268
:1010C0001A700023BB609C4B5B781B02BB609A4B81
:1010D0009B781A46BB681343BB60BB685B04DB08A4
:1010E000974AA2FB03239B08964A1360954B1B6803
:1010F000924A12781146184600F044FE0346914A7F
:1011000013608E4B1B788F4A12681146184600F008
:10111000DDFA34E2894B00221A708B4B00221A80D0
:10112000854B5B789BB21B029AB2874B1A80824B2D
:101130009B789AB2844B1B8813439AB2824B1A80D5
:10114000814B1B885B04814A82FB03121A441212F2
:10115000DB17D31A1A467E4B1A607D4B1B68774A01
:1011600012781146184600F00DFE0346784A1360C7
:10117000724B1B78764A12681146184600F0A6FAA0
:10118000FDE16E4B1B7883F00103DBB2002B06D030
:10119000704805F06BF8704805F068F8EFE16D48AD
:1011A00005F064F86D4805F061F8E8E101210A20D6
:1011B00000F0EAFC604BDB78002B03D0684B012287
:1011C0001A70DCE1664B00221A70D8E100F096FD3F
:1011D000D5E100F0DDFF634B01221A70624B002263
:1011E0001A70CCE1544B9B78002B0DD05F4B002242
:1011F0001A70012210215E4803F058F801222021C4
:101200005C4803F053F80CE0584B01221A7000229E
:101210001021574803F04AF800222021554803F0D6
:1012200045F8454B5B78184600F0E4F9A7E1434BDD
:101230001B78002B40F0A281464805F017F846487D
:1012400005F014F89AE10121102000F09DFC3B4BC1
:101250001B78002B32D00023FB60374B5B781B02DE
:10126000FB60354B9B781A46FB681343FB60324B9F
:10127000DB78002B13D1FB685B04DB08304AA2FB50
:1012800003239B082F4A13602E4B1B682B4A1278AE
:101290001146184600F076FD03462A4A1360274B94
:1012A0001B78284A12681146184600F00FFA2948A0
:1012B00004F0DCFF294804F0D9FF60E1224B002252
:1012C0001A801D4B5B789BB21B029AB21E4B1A8090
:1012D000194B9B789AB21C4B1B8813439AB21A4B3A
:1012E0001A80154BDB78002B17D1174B1B885B043A
:1012F000164A82FB03121A441212DB17D31A1A463B
:10130000134B1A60124B1B680C4A12781146184690
:1013100000F038FD03460E4A1360084B1B780C4A58
:1013200012681146184600F0D1F90A4804F09EFFF1
:10133000094804F09BFF22E1380700201C00002030
:10134000176CC1161C07002030070020B7600BB6D1
:101350001807002084030020A0020020EC020020D7
:101360005D070020590700201507002057070020BF
:1013700000000240000802400121112000F004FC9E
:10138000824B1B78002B06D0814804F0E7FF814890
:1013900004F0E4FFF3E0804804F0E0FF7D4804F04F
:1013A000DDFFECE00121122000F0EEFB7B4B5B78CF
:1013B000002B03D0754B01221A70E0E0734B002222
:1013C0001A70DCE00121132000F0DEFB744B1B6877
:1013D000744A1360744B1B68744A1360714B1B682A
:1013E000734A1360714B1B68714A5360714B1A68E2
:1013F000022302216E4800F013FDC0E001211420F9
:1014000000F0C2FB6C4B01221A70644B5B781846EB
:1014100000F0A2FD03461A46684B1A705F4B9B789A
:10142000012B06D1654B1B7863F07703DAB2634B6F
:101430001A70624B1A78614B5A70614805F0FCFCD7
:10144000642301225D495E4805F029FC05225D49BF
:101450005B4805F0ADFC92E005225B49584805F079
:10146000A7FC01224FF40061584802F01FFF012041
:1014700001F002FC00224FF40061544802F016FF14
:101480007DE04C4B1A6802230221494800F012FD0E
:101490004B4805F0C7FBFFF735FB70E03B4B1B7873
:1014A00083F00103DBB2002B24D001221021474836
:1014B00002F0FCFE464B00221A7001222021434814
:1014C00002F0F4FE642001F0D7FB002220213F4807
:1014D00002F0ECFE05223F493F4804F02BF80021C2
:1014E000012000F051FB3A4B1B780133DAB2384B44
:1014F0001A70E2E701222021384802F0D7FE344B6F
:1015000000221A7001220121354802F0CFFE64202A
:1015100001F0B2FB00220121314802F0C7FE052292
:101520003049314804F006F80021012000F02CFB7E
:10153000274B1B780133DAB2254B1A70E2E7134BC5
:101540001B7883F00103DBB2002B0BD0052221496D
:10155000214803F0EFFF642305221E49234805F0CC
:101560009EFB0CE005221F491F4803F0E3FF6423A4
:1015700005221C491D4805F092FB00E000BF1C4BF2
:1015800000221A7000BF1037BD4680BD1C0000202D
:10159000EC02002084030020A00200203807002075
:1015A0006007002028070020640700202C07002087
:1015B0000C0700201800002014070020040700205A
:1015C0001C0400200000002048070020000002400A
:1015D00009070020AC060020BC00002000080240E3
:1015E00000040240B406002058000020A40400209B
:1015F0005607002080B584B000AF0346FB712A4B2C
:101600001B7883F00103DBB2002B29D00023FB60A1
:1016100021E001222021254802F048FE022001F0AD
:101620002BFB00222021214802F040FE022001F085
:1016300023FB20211D4802F052FE05221C491D48B3
:1016400003F078FF6423052219491B4805F027FBA6
:10165000FB680133FB60FB79FA689A42D9DB1BE037
:101660000023BB6014E00121144802F038FE04207E
:1016700001F002FB05221249124803F05BFF6423CC
:1016800005220F490C4805F00AFBBB680133BB601B
:10169000FB79BA689A42E6DB0B4B00221A7000BF56
:1016A0001037BD4680BD00BF1C0000200000024076
:1016B000AC060020BC000020A4040020000402406E
:1016C000B4060020580000200807002080B582B032
:1016D00000AF03463960FB71FB7983F00103DBB295
:1016E000002B40D0424B1B683A689A421DD2404BB7
:1016F0001A683B68D21A3E4B1B683968CB1A03F54F
:1017000000339A4208D9012210213A4802F0CEFD56
:10171000394B00221A7066E000221021354802F091
:10172000C5FD354B01221A705DE0314B1A683B68EC
:10173000D31A03F500322E4B1B683968CB1A9A4234
:1017400008D2002210212B4802F0B0FD2A4B0122C2
:101750001A7048E001221021264802F0A7FD264B0E
:1017600000221A703FE0254B1B683A689A421DD24E
:10177000224B1A683B68D21A204B1B683968CB1A77
:1017800003F500339A4208D9012220211C4802F0B7
:101790008DFD1C4B00221A7025E0002220211848E4
:1017A00002F084FD174B01221A701CE0134B1A68DB
:1017B0003B68D31A03F50032104B1B683968CB1A0B
:1017C0009A4208D2002220210D4802F06FFD0D4BF5
:1017D00001221A7007E001222021094802F066FD6B
:1017E000084B00221A7000BF0837BD4680BD00BFFD
:1017F0006007002000000240570700206407002017
:10180000000802405807002080B485B000AF78601F
:101810007B681B68224A934202D1224B01221A7034
:101820007B681B68204A934234D1204B1B78002BE5
:101830002DD00023FB601E4B1B781A461C4B5B7897
:1018400013441B4A92781344FB60FB68DBB2FB60D5
:10185000174BDB781A46FB68934203D1144B1B7974
:10186000A52B03D0134B00221A700DE0104B1A78F1
:10187000114B1B781B09DBB29A4205D00D4B00229D
:101880001A700E4B01221A70084B00221A700C4B72
:1018900001221A7000BF1437BD465DF8047B704703
:1018A00000480040560700200010014014070020A7
:1018B0000000002059070020040700201507002021
:1018C0005507002080B582B000AF78607B681B6848
:1018D000684A934240F09680674B9B785B09DBB285
:1018E00003F00703654A1360634B5B78DA00634BD0
:1018F0001B681343614A13605F4B1B78DB0203F4E0
:10190000FC325E4B1B6813435C4A13605C4B1B78D4
:10191000012B03D05A4B1B78022B5DD1594B1B78FE
:10192000002B3BD0554B1A68574B1B689A4220D36B
:1019300005225649564805F03BFA01224FF4006152
:10194000544802F0B3FC642000F074FB00224FF412
:101950000061504802F0AAFC4A4B00221A704E4B1C
:1019600001221A704D4804F0F9FC4D4804F0F6FCD1
:1019700047E005224549464805F01AFA01224FF48E
:101980000061444802F092FC642000F053FB002206
:101990004FF400613F4802F089FC32E0374B1A688F
:1019A000404B1B689A422CD3364B01221A700522F9
:1019B0003649374805F0FCF901224FF400613548FB
:1019C00002F074FC642000F035FB00224FF400614B
:1019D000304802F06BFC14E0324B1B685A1E274B58
:1019E0001B689A420ED82F4B1B685A1C234B1B684E
:1019F0009A4207D3294804F0B1FC294804F0AEFC10
:101A000000E000BF7B681B68274A93422DD1274B1B
:101A10009B785B09DBB203F00703254A1360234B75
:101A20005B78DA00224B1B681343214A13601F4B7B
:101A30001B78DB0203F4FC321D4B1B6813431C4A6A
:101A400013601C4B1B685A1E194B1B689A420CD81A
:101A5000184B1B685A1C164B1B689A4205D3164834
:101A600004F07CFC0E4804F079FC00BF0837BD464A
:101A700080BD00BF00340140AC060020600700209C
:101A80005A070020160700202007002048070020E2
:101A90001C0400200000024017070020A0020020C4
:101AA0008403002018070020003C0040B4060020FA
:101AB000640700201C070020EC02002080B582B0E3
:101AC00000AF78607B681B68B3F1804F07D120219D
:101AD0001F4802F004FC1F4B1B6800225A627B68FF
:101AE0001B681D4A934207D101211C4802F0F7FBF5
:101AF0001B4B1B6800225A627B681B68194A934281
:101B000015D1194B1B7883F00103DBB2002B05D0F4
:101B100005221649164803F00DFD04E0052215497B
:101B2000154803F007FD154B1B6800225A627B68BD
:101B30001B68134A934206D1124804F06FFB114B05
:101B40001B6800225A6200BF0837BD4680BD00BF37
:101B500000000240A00200200004004000040240F7
:101B6000EC020020001400401C000020AC06002005
:101B7000BC000020B4060020580000208403002090
:101B800000440140D003002080B584B000AF03467C
:101B90000A46FB711346BB714C4B00221A80FB793D
:101BA000012B77D14A4B01221A704A4B1A78484BC5
:101BB0005A70494B1A78464B9A70484B1B781A4614
:101BC000434BDA70464B1A78414B1A71454B1A78E1
:101BD0003F4B5A71444B1A783D4B9A71424B5A789D
:101BE0003B4BDA71404B9A78394B1A723F4B1B686A
:101BF000DAB2374B5A723D4B1B681B0ADAB2344BD0
:101C00009A723A4B1B681B0CDAB2314BDA72384BC2
:101C10001B68DAB22E4BDA73354B1B681B0ADAB23B
:101C20002B4B1A74324B1B681B0CDAB2284B5A74BC
:101C3000274B0022DA77264B002283F8202000234E
:101C4000FB6016E0224AFB6813441B789AB2FB68DB
:101C500001331F49CB5C9BB21B029BB213449AB267
:101C60001A4B1B8813449AB2184B1A80FB68023334
:101C7000FB60FB681D2BE5DD154B9B7F9AB2134B78
:101C80001B8813449AB2114B1A801A4B0F4A1288C0
:101C90001A8010E021210E4800F042F90C4AFB792D
:101CA00013700B4ABB795370094AFB79D377084A02
:101CB000BB7982F820306423212205490E4804F0C4
:101CC000EEFF00BF1037BD4680BD00BF06070020F5
:101CD000BC060020590700205A0700205B0700209F
:101CE0005C0700205E0700205007002060070020EE
:101CF00064070020DB060020A404002080B582B029
:101D000000AF0023FB801B4B0B221A70194B0022E3
:101D1000DA77184B002283F8202000233B6013E081
:101D2000154A3B6813441B789AB23B680133124949
:101D3000CB5C9BB21B029BB213449AB2FB88134448
:101D4000FB803B6802333B603B681D2BE8DD0A4BA0
:101D50009B7F9AB2FB881344FB80084AFB88138060
:101D6000642321220349064804F099FF00BF083785
:101D7000BD4680BDE0060020BC060020DB0600203A
:101D8000A404002080B483B000AF78600B46FB70E1
:101D9000FB78002B12D0154B1A687B681344B3F5FF
:101DA000003F06D9114B1A687B681344A3F5003332
:101DB00016E00E4B1A687B68134411E00C4B1A684E
:101DC0007B681344B3F5003F06D9094B1A687B685A
:101DD0001344A3F5003303E0054B1A687B681344F2
:101DE00018460C37BD465DF8047B70472C07002071
:101DF0002807002080B400AF084B00221A60074B70
:101E00000222DA60054B03225A60044B01229A60D9
:101E100000BFBD465DF8047B704700BF480000204E
:101E2000B0B586B000AFF8607A603B600B46FB72DD
:101E300001F058FD1D491E4801F0C4FE0346002B69
:101E40002ED10023FB753B68022B02D10423FB75C6
:101E500004E03B68012B01D10223FB750023BB7515
:101E600017E0BB7D9B00FA6813441B6800221C46E8
:101E7000154622462B467968386801F0D9FC03469E
:101E8000002B0FD1FB7D7A6813447B60BB7D01334F
:101E9000BB75BA7DFB7A9A42E3D301F045FD02E0BF
:101EA00000BF00E000BF1837BD46B0BD6807002086
:101EB0004800002080B487B000AFF8607A603B60D3
:101EC0000B46FB720023FB7500233B613B68022B32
:101ED00002D10423FB7504E03B68012B01D10223EE
:101EE000FB750023BB820FE07B681B683B61BB8AEC
:101EF0009B00FA6813443A691A60FB7D7A681344C0
:101F00007B60BB8A0133BB82FB7A9BB2BA8A9A425E
:101F1000EAD300BF00BF1C37BD465DF8047B7047A5
:101F200080B485B000AF78600B46FB700023FB7374
:101F300007E0FB7B7A68134400221A70FB7B0133B5
:101F4000FB73FA7BFB789A42F3D300BF00BF1437D0
:101F5000BD465DF8047B704780B483B000AF034694
:101F6000FB71FB79802B5CD0802B5CDC202B47DC69
:101F7000002B58DD013B1F2B55D801A252F823F04E
:101F8000072000080B200008272000080F20000869
:101F90002720000827200008272000081320000819
:101FA00027200008272000082720000827200008F5
:101FB00027200008272000082720000817200008F5
:101FC00027200008272000082720000827200008D5
:101FD00027200008272000082720000827200008C5
:101FE00027200008272000082720000827200008B5
:101FF0002720000827200008272000081B200008B1
:10200000402B0CD00FE000230EE011230CE0222324
:102010000AE0332308E0442306E0552304E0662366
:1020200002E0772300E0012318460C37BD465DF837
:10203000047B704780B483B000AF0346FB80094B3C
:102040001B6800225A6200BF064B1B685A6AFB8855
:102050009A42F9D300BF00BF0C37BD465DF8047B40
:10206000704700BF3803002080B582B000AF034640
:102070000A46FB711346BB71BB79002B23D0FB7959
:102080005B04244A82FB03121A441212DB17D31A90
:102090001A46214B1A60204B1B68BA791146184624
:1020A000FFF770FE03461C4A13601B4B1A68BB798E
:1020B00011461846FFF70AFB184804F0D7F81848ED
:1020C00004F0D4F822E0FB795B04124A82FB03128D
:1020D0001A441212DB17D31A1A46124B1A60114B0C
:1020E0001B68BA7911461846FFF74CFE03460D4AA5
:1020F00013600C4B1A68BB7911461846FFF7E6FAD5
:10210000064804F0B3F8084804F0B0F800BF0837F8
:10211000BD4680BDB7600BB61C07002084030020BD
:10212000EC02002018070020A002002080B483B039
:1021300000AF00237B60144B1B781A46124B5B7870
:102140001344114A927813447B607B68DBB27B6056
:102150000D4BDB781A467B6893420FD10A4B1B79F3
:10216000A52B0BD1084B1A78084B1A70064B5A78DE
:10217000064B5A70044B9A78044B9A7000BF0C3788
:10218000BD465DF8047B70474807002050070020DB
:1021900080B500AF21210D48FFF7C2FE0B4B0C228A
:1021A0001A700B4B1A78094B5A70084B0C22DA77CD
:1021B000074B1A78054B83F820206423212203491A
:1021C000044804F06CFD00BF80BD00BFBC060020C9
:1021D00015070020A404002080B485B000AF78600B
:1021E0007B68D3F8843003F00803002B08D07B68A9
:1021F0001B6808221A62054B1B685B6ADBB2FB7323
:1022000000BF1437BD465DF8047B70471C040020F6
:1022100080B400AF72B600BFFEE7000080B483B0A8
:1022200000AF0F4B1B6C0E4A43F0805313640C4BF2
:102230001B6C03F080537B607B68094B5B6C084A26
:1022400043F480435364064B5B6C03F480433B6070
:102250003B6800BF0C37BD465DF8047B704700BF8C
:102260000038024080B58CB000AF786007F11C03E5
:1022700000221A605A609A60DA601A617B681B68F3
:10228000984A934240F0A080974B1B6C964A43F4C7
:1022900000431364944B1B6C03F40043BB61BB69A4
:1022A000914B1B6B904A43F0020313638E4B1B6BE5
:1022B00003F002037B617B698B4B1B6B8A4A43F003
:1022C00004031363884B1B6B03F004033B613B69FE
:1022D0000423FB6102233B6200237B620323BB6276
:1022E0000723FB6207F11C031946804801F046FDF5
:1022F0004FF44063FB6102233B6200237B620323B4
:10230000BB620623FB6207F11C031946784801F003
:1023100035FD784B784A1A60764B00225A60754B2F
:1023200000229A60734B0022DA60724B4FF4806295
:102330001A61704B00225A616E4B00229A616D4BFC
:102340000022DA616B4B00221A626A4B00225A6249
:10235000684800F0F9FD0346002B01D0FFF758FF55
:102360007B68644A9A65634A7B689363634B644AFB
:102370001A60624B00225A60604B40229A605F4BA9
:102380000022DA605D4B4FF480621A615B4B0022E1
:102390005A615A4B00229A61584B0022DA61574B1E
:1023A00000221A62554B00225A62544800F0CCFDBC
:1023B0000346002B01D0FFF72BFF7B684F4A5A657D
:1023C0004E4A7B68936389E07B681B684D4A934261
:1023D00040F08480444B5B6C434A43F400535364A5
:1023E000414B5B6C03F40053FB60FB683E4B1B6B83
:1023F0003D4A43F0100313633B4B1B6B03F0100388
:10240000BB60BB686423FB6102233B6200237B62E9
:102410000323BB620523FB6207F11C0319463A48FC
:1024200001F0ACFC394B3A4A1A60384B4FF000626D
:102430005A60364B00229A60344B0022DA60334BEC
:102440004FF480621A61314B00225A612F4B0022F7
:102450009A612E4B0022DA612C4B00221A622B4B20
:1024600000225A62294800F06FFD0346002B01D07C
:10247000FFF7CEFE7B68254A9A65244A7B68936302
:10248000244B254A1A60234B4FF000625A60214BBF
:1024900040229A601F4B0022DA601E4B4FF480628C
:1024A0001A611C4B00225A611A4B00229A61194B87
:1024B0000022DA61174B00221A62164B00225A6280
:1024C000144800F041FD0346002B01D0FFF7A0FEA9
:1024D0007B68104A5A650F4A7B68936300BF3037A8
:1024E000BD4680BD003C0040003802400004024070
:1024F00000080240200100201060024080010020FE
:10250000886002400034014000100240E0010020D9
:1025100010640240400200202864024080B588B068
:1025200000AF78607B681B68B3F1804F14D13C4BDF
:102530001B6C3B4A43F001031364394B1B6C03F0E3
:102540000103FB61FB69002200211C2000F0B7FCA5
:102550001C2000F0D0FC5EE07B681B68314A93428F
:1025600014D12F4B1B6C2E4A43F0020313642C4BE7
:102570001B6C03F00203BB61BB69002200211D201C
:1025800000F09DFC1D2000F0B6FC44E07B681B6859
:10259000254A93420CD1224B1B6C214A43F0100375
:1025A00013641F4B1B6C03F010037B617B6932E0EB
:1025B0007B681B681D4A934214D1194B1B6C184A47
:1025C00043F020031364164B1B6C03F020033B61A4
:1025D0003B6900220021372000F071FC372000F019
:1025E0008AFC18E07B681B68114A934213D10C4B9C
:1025F0005B6C0B4A43F400335364094B5B6C03F48C
:102600000033FB60FB6800220021192000F057FC1A
:10261000192000F070FC00BF2037BD4680BD00BF10
:102620000038024000040040001000400014004048
:102630000044014080B5ACB000AF786007F19C0366
:1026400000221A605A609A60DA601A6107F11C036E
:1026500080220021184605F071FE7B681B68534AF2
:10266000934240F0B1804023FB610023BB6507F13A
:102670001C03184602F068FB0346002B01D0FFF74D
:10268000C7FD4B4B5B6C4A4A43F010035364484B05
:102690005B6C03F01003BB61BB69454B1B6B444A89
:1026A00043F001031363424B1B6B03F001037B6197
:1026B0007B694FF4C063C7F89C300223C7F8A03091
:1026C0000023C7F8A4300323C7F8A8300723C7F8AE
:1026D000AC3007F19C031946364801F04FFB364BEE
:1026E000364A1A60344B4FF000625A60324B002277
:1026F0009A60314B0022DA602F4B4FF480621A61EE
:102700002D4B00225A612C4B00229A612A4B002249
:10271000DA61294B4FF400321A62274B00225A62C9
:10272000254800F011FC0346002B01D0FFF770FD97
:102730007B68214A5A67204A7B689363204B214A71
:102740001A601F4B4FF000625A601D4B40229A6086
:102750001B4B0022DA601A4B4FF480621A61184B4F
:1027600000225A61164B00229A61154B0022DA6151
:10277000134B4FF480321A62114B00225A621048F8
:1027800000F0E2FB0346002B01D0FFF741FD7B6820
:102790000B4A1A670A4A7B689363002200212520AE
:1027A00000F08DFB252000F0A6FBB6E000100140F4
:1027B00000380240000002402C0500204064024026
:1027C0008C050020B86402407B681B68554A934220
:1027D00040F0A3804FF48073FB6100233B6607F158
:1027E0001C03184602F0B0FA0346002B01D0FFF795
:1027F0000FFD4D4B1B6C4C4A43F4802313644A4B32
:102800001B6C03F480233B613B69474B1B6B464ABF
:1028100043F002031363444B1B6B03F00203FB60A2
:10282000FB684FF49843C7F89C300223C7F8A030E8
:102830000023C7F8A4300323C7F8A8300723C7F83C
:10284000AC3007F19C031946384801F097FA384B31
:10285000384A1A60364B4FF000625A60344B0022FF
:102860009A60334B0022DA60314B4FF480621A6178
:102870002F4B00225A612E4B00229A612C4B4FF4B1
:102880008072DA612A4B00221A62294B00225A62B6
:10289000274800F059FB0346002B01D0FFF7B8FC96
:1028A0007B68234A5A67224A7B689363224B234AF8
:1028B0001A60214B4FF000625A601F4B40229A6011
:1028C0001D4B0022DA601C4B4FF480621A611A4BD8
:1028D00000225A61184B00229A61174B4FF4807204
:1028E000DA61154B00221A62134B00225A62124819
:1028F00000F02AFB0346002B01D0FFF789FC7B6820
:102900000D4A1A670C4A7B68936300220021272036
:1029100000F0D5FA272000F0EEFA00BFB037BD4630
:1029200080BD00BF00480040003802400004024063
:10293000EC050020286002404C0600205860024050
:1029400080B582B000AF78607B681B681E4A9342F6
:1029500018D11E4B5B6C1D4A23F0100353644FF4D7
:10296000C0611B4801F0A6FB7B685B6F184600F056
:1029700099FB7B681B6F184600F094FB252000F044
:10298000C8FA1CE07B681B68124A934217D10F4BB0
:102990001B6C0E4A23F4802313644FF498410E48B5
:1029A00001F088FB7B685B6F184600F07BFB7B685F
:1029B0001B6F184600F076FB272000F0AAFA00BF34
:1029C0000837BD4680BD00BF0010014000380240FE
:1029D00000000240004800400004024080B400AF04
:1029E000FEE780B400AFFEE780B400AFFEE780B43E
:1029F00000AFFEE780B400AFFEE780B400AF00BFD9
:102A0000BD465DF8047B704780B400AF00BFBD4693
:102A10005DF8047B704780B400AF00BFBD465DF831
:102A2000047B704780B500AF00F006F900BF80BDA1
:102A300080B500AF024800F085FC00BF80BD00BF3C
:102A40002001002080B500AF024800F07BFC00BFF1
:102A500080BD00BFEC05002080B500AF024800F04B
:102A600071FC00BF80BD00BF4C06002080B500AFE8
:102A7000024800F067FC00BF80BD00BF800100205D
:102A800080B500AF024803F099FC00BF80BD00BFD5
:102A9000D003002080B500AF024803F08FFC00BFD8
:102AA00080BD00BFA002002080B500AF024803F047
:102AB00085FC00BF80BD00BFEC02002080B500AFE8
:102AC000024804F04BFA00BF80BD00BF1C04002088
:102AD00080B500AF024804F041FA00BF80BD00BFDE
:102AE000A404002080B500AF024803F067FC00BFDB
:102AF00080BD00BF8403002080B500AF024800F015
:102B000021FC00BF80BD00BFE001002080B500AF08
:102B1000024800F017FC00BF80BD00BF400200204B
:102B200080B500AF024800F00DFC00BF80BD00BFC3
:102B30002C05002080B500AF024800F003FC00BF68
:102B400080BD00BF8C05002080B400AF064BD3F8D9
:102B50008830054A43F47003C2F8883000BFBD4690
:102B60005DF8047B704700BF00ED00E0DFF834D073
:102B7000FFF7EAFF0C480D490D4A002302E0D45844
:102B8000C4500433C4188C42F9D30A4A0A4C0023B7
:102B900001E013600432A242FBD305F0ABFBFDF76A
:102BA000C1FC704700000420000000202C00002021
:102BB000948300082C0000208C070020FEE780B5DD
:102BC00000AF032000F070F90F2000F005F8FFF7C8
:102BD00025FB0023184680BD80B582B000AF786029
:102BE000124B1A68124B1B7819464FF47A73B3FBD9
:102BF000F1F3B2FBF3F3184600F099F90346002B0A
:102C000001D001230EE07B680F2B0AD800227968DF
:102C10004FF0FF3000F053F9064A7B681360002341
:102C200000E0012318460837BD4680BD2000002083
:102C3000280000202400002080B400AF064B1B7841
:102C40001A46064B1B681344044A136000BFBD4676
:102C50005DF8047B704700BF280000206C0700204F
:102C600080B400AF034B1B681846BD465DF8047B7B
:102C7000704700BF6C07002080B584B000AF78605B
:102C8000FFF7EEFFB8607B68FB60FB68B3F1FF3FC6
:102C900005D00A4B1B781A46FB681344FB6000BF43
:102CA000FFF7DEFF0246BB68D31AFA689A42F7D8EC
:102CB00000BF00BF1037BD4680BD00BF2800002008
:102CC00080B485B000AF78607B6803F00703FB60D9
:102CD0000B4BDB68BB60BA684FF6FF031340BB6069
:102CE000FB681A02BB681A43064B1343BB60044AD5
:102CF000BB68D36000BF1437BD465DF8047B7047E6
:102D000000ED00E00000FA0580B400AF044BDB6882
:102D10001B0A03F007031846BD465DF8047B7047A5
:102D200000ED00E080B483B000AF0346FB7197F97B
:102D30000730002B0BDBFB7903F01F02074997F9E3
:102D400007305B09012000FA02F241F8232000BF9E
:102D50000C37BD465DF8047B704700BF00E100E022
:102D600080B483B000AF0346FB7197F90730002BA6
:102D700012DBFB7903F01F020A4997F907305B0960
:102D8000012000FA02F2203341F82320BFF34F8FD5
:102D900000BFBFF36F8F00BF00BF0C37BD465DF8AB
:102DA000047B704700E100E080B483B000AF0346CD
:102DB0003960FB7197F90730002B0ADB3B68DAB208
:102DC0000C4997F907301201D2B20B4483F8002363
:102DD0000AE03B68DAB20849FB7903F00F03043BD1
:102DE0001201D2B20B441A7600BF0C37BD465DF813
:102DF000047B704700E100E000ED00E080B489B0A2
:102E000000AFF860B9607A60FB6803F00703FB610C
:102E1000FB69C3F10703042B28BF0423BB61FB69D3
:102E20000433062B02D9FB69033B00E000237B61DE
:102E30004FF0FF32BB6902FA03F3DA43BB681A4072
:102E40007B699A404FF0FF317B6901FA03F3D94364
:102E50007B680B40134318462437BD465DF8047B5E
:102E60007047000080B582B000AF78607B68013B9E
:102E7000B3F1807F01D301230FE00A4A7B68013B55
:102E800053600F214FF0FF30FFF78EFF054B0022FC
:102E90009A60044B07221A60002318460837BD4683
:102EA00080BD00BF10E000E080B582B000AF786068
:102EB0007868FFF705FF00BF0837BD4680BD80B5C5
:102EC00086B000AF0346B9607A60FB7300237B6174
:102ED000FFF71AFF78617A68B9687869FFF78EFFA3
:102EE000024697F90F3011461846FFF75DFF00BF05
:102EF0001837BD4680BD80B582B000AF0346FB7178
:102F000097F907301846FFF70DFF00BF0837BD4699
:102F100080BD80B582B000AF0346FB7197F90730E2
:102F20001846FFF71DFF00BF0837BD4680BD80B5BE
:102F300082B000AF78607868FFF794FF03461846C8
:102F40000837BD4680BD000080B586B000AF786010
:102F500000237B61FFF784FE38617B68002B01D181
:102F6000012399E07B68022283F835207B680022E8
:102F700083F834207B681B681A687B681B6822F022
:102F800001021A600FE0FFF76BFE02463B69D31A9D
:102F9000052B08D97B6820225A657B68032283F8B9
:102FA0003520032378E07B681B681B6803F001036E
:102FB000002BE8D17B681B681B687B617A69384B02
:102FC00013407B617B685A687B689B681A437B6807
:102FD000DB681A437B681B691A437B685B691A4389
:102FE0007B689B691A437B68DB691A437B681B6AB1
:102FF00013437A6913437B617B685B6A042B07D1B7
:103000007B68DA6A7B681B6B13437A6913437B61C5
:103010007B681B687A691A607B681B685B697B61E7
:103020007B6923F007037B617B685B6A7A691343E2
:103030007B617B685B6A042B17D17B689B6A7A692A
:1030400013437B617B68DB6A002B0ED0786800F04D
:1030500073FB0346002B08D07B6840225A657B68CF
:10306000002283F83520012316E07B681B687A690B
:103070005A61786800F02AFB0346FB607B68DB6DD1
:103080003F229A40FB689A607B6800225A657B6801
:10309000012283F83520002318461837BD4680BD2D
:1030A0003F8010E080B584B000AF78607B68002B73
:1030B00001D1012350E07B6893F83530DBB2022B5D
:1030C00001D1022348E07B681B681A687B681B6893
:1030D00022F001021A607B681B6800221A607B687C
:1030E0001B6800225A607B681B6800229A607B681C
:1030F0001B680022DA607B681B6800221A617B680B
:103100001B6821225A61786800F0E0FA0346FB60F0
:103110007B68DB6D3F229A40FB689A607B680022E7
:10312000DA637B6800221A647B6800225A647B6839
:1031300000229A647B680022DA647B6800221A65A8
:103140007B6800225A657B68002283F835207B6803
:10315000002283F83420002318461037BD4680BD76
:1031600080B586B000AFF860B9607A603B6000233C
:10317000FB75FB689B6D3B61FB6893F83430012B5A
:1031800001D1022348E0FB68012283F83420FB6868
:1031900093F83530DBB2012B37D1FB68022283F87C
:1031A0003520FB6800225A653B687A68B968F86880
:1031B00000F05EFAFB68DB6D3F229A403B699A6043
:1031C000FB681B681A68FB681B6842F016021A60ED
:1031D000FB681B685A69FB681B6842F080025A61F1
:1031E000FB681B6C002B07D0FB681B681A68FB6828
:1031F0001B6842F008021A60FB681B681A68FB68CB
:103200001B6842F001021A6005E0FB68002283F8A7
:1032100034200223FB75FB7D18461837BD4680BD60
:1032200080B584B000AF78607B689B6DFB60FFF772
:1032300017FDB8607B6893F83530DBB2022B08D0FD
:103240007B6880225A657B68002283F83420012342
:1032500052E07B681B681A687B681B6822F01602C4
:103260001A607B681B685A697B681B6822F08002C1
:103270005A617B681B6C002B03D17B689B6C002B15
:1032800007D07B681B681A687B681B6822F00802FD
:103290001A607B681B681A687B681B6822F0010251
:1032A0001A6013E0FFF7DCFC0246BB68D31A052B5B
:1032B0000CD97B6820225A657B68032283F835206D
:1032C0007B68002283F83420032315E07B681B68A9
:1032D0001B6803F00103002BE4D17B68DB6D3F2208
:1032E0009A40FB689A607B68012283F835207B68EE
:1032F000002283F83420002318461037BD4680BDD5
:1033000080B483B000AF78607B6893F83530DBB26F
:10331000022B04D07B6880225A6501230CE07B6875
:10332000052283F835207B681B681A687B681B6858
:1033300022F001021A60002318460C37BD465DF8E2
:10334000047B704780B586B000AF78600023BB6017
:103350008E4B1B688E4AA2FB03239B0A7B617B6812
:103360009B6D3B613B691B68FB607B68DB6D0822E2
:103370009A40FB681340002B1AD07B681B681B68BF
:1033800003F00403002B13D07B681B681A687B686A
:103390001B6822F004021A607B68DB6D08229A40E9
:1033A0003B699A607B685B6D43F001027B685A65FC
:1033B0007B68DB6D01229A40FB681340002B12D022
:1033C0007B681B685B6903F08003002B0BD07B6874
:1033D000DB6D01229A403B699A607B685B6D43F02C
:1033E00002027B685A657B68DB6D04229A40FB68A9
:1033F0001340002B12D07B681B681B6803F002038C
:10340000002B0BD07B68DB6D04229A403B699A60ED
:103410007B685B6D43F004027B685A657B68DB6DFB
:1034200010229A40FB681340002B43D07B681B6836
:103430001B6803F00803002B3CD07B68DB6D102277
:103440009A403B699A607B681B681B6803F4802381
:10345000002B18D07B681B681B6803F40023002B2B
:1034600008D17B681B6C002B24D07B681B6C7868B0
:1034700098471FE07B689B6C002B1BD07B689B6C84
:103480007868984716E07B681B681B6803F48073B4
:10349000002B07D17B681B681A687B681B6822F0C9
:1034A00008021A607B681B6C002B03D07B681B6CC6
:1034B000786898477B68DB6D20229A40FB68134050
:1034C000002B00F08F807B681B681B6803F01003E3
:1034D000002B00F087807B68DB6D20229A403B69DF
:1034E0009A607B6893F83530DBB2052B36D17B6868
:1034F0001B681A687B681B6822F016021A607B68DA
:103500001B685A697B681B6822F080025A617B68DD
:103510001B6C002B03D17B689B6C002B07D07B6856
:103520001B681A687B681B6822F008021A607B68B7
:10353000DB6D3F229A403B699A607B68012283F8E9
:1035400035207B68002283F834207B681B6D002BBC
:103550007ED07B681B6D7868984779E07B681B6834
:103560001B6803F48023002B1DD07B681B681B683D
:1035700003F40023002B0DD17B685B6C002B31D052
:103580007B685B6C786898472CE000BF20000020C7
:10359000B5814E1B7B68DB6B002B23D07B68DB6B1C
:1035A000786898471EE07B681B681B6803F480738B
:1035B000002B0FD17B681B681A687B681B6822F0A0
:1035C00010021A607B68012283F835207B68002294
:1035D00083F834207B68DB6B002B03D07B68DB6BCC
:1035E000786898477B685B6D002B32D07B685B6D99
:1035F00003F00103002B22D07B68052283F83520DD
:103600007B681B681A687B681B6822F001021A60DD
:10361000BB680133BB607A699A4207D37B681B6839
:103620001B6803F00103002BF2D100E000BF7B68B0
:10363000012283F835207B68002283F834207B68E0
:10364000DB6C002B05D07B68DB6C7868984700E06A
:1036500000BF1837BD4680BD80B483B000AF78602E
:103660007B685B6D18460C37BD465DF8047B704780
:1036700080B485B000AFF860B9607A603B60FB68E9
:103680001B681A68FB681B6822F480221A60FB68BA
:103690001B683A685A60FB689B68402B08D1FB683E
:1036A0001B687A689A60FB681B68BA68DA6007E092
:1036B000FB681B68BA689A60FB681B687A68DA6006
:1036C00000BF1437BD465DF8047B704780B485B0F9
:1036D00000AF78607B681B68DBB2103B134AA2FB2B
:1036E00003231B09FB60124AFB6813441B781A462C
:1036F0007B68DA65FB68032B08D97B681B681A4670
:103700000C4B13401A1D7B689A6506E07B681B68AA
:103710001A46084B13407A6893657B689B6D184680
:103720001437BD465DF8047B704700BFABAAAAAA58
:103730007C83000800FCFFFF80B485B000AF786098
:103740000023FB737B689B6ABB607B689B69002BD3
:103750001FD1BB68032B56D801A252F823F000BF3B
:1037600071370008833700087137000807380008F0
:103770007B68DB6A03F08073002B46D00123FB7368
:1037800043E07B68DB6AB3F1C07F40D10123FB7368
:103790003DE07B689B69B3F5005F21D1BB68032BDB
:1037A00037D801A252F823F0B9370008BF37000814
:1037B000B9370008D13700080123FB7330E07B687C
:1037C000DB6A03F08073002B25D00123FB7322E01A
:1037D0007B68DB6AB3F1C07F1FD10123FB731CE060
:1037E000BB68022B03D9BB68032B03D018E001236D
:1037F000FB7315E07B68DB6A03F08073002B0ED04F
:103800000123FB730BE000BF0AE000BF08E000BF2C
:1038100006E000BF04E000BF02E000BF00E000BF20
:10382000FB7B18461437BD465DF8047B704700BF2C
:1038300080B586B000AFF860B960C7E90023274BB8
:103840001B7D012B01D1022343E0244B01221A7579
:103850004CF2503000F078F80346FB75FB7D002BEE
:1038600033D1FB68032B23D801A252F823F000BF09
:10387000813800088D38000899380008A5380008FC
:103880003B781946B86800F021F912E03B881946E8
:10389000B86800F0F5F80CE03B681946B86800F02D
:1038A000C9F806E0D7E90023B86800F08DF800E019
:1038B00000BF4CF2503000F047F80346FB75084B50
:1038C0001B69074A23F001031361044B00221A7598
:1038D000FB7D18461837BD4680BD00BF700700202D
:1038E000003C024080B483B000AF0023FB710B4B5F
:1038F0001B69002B0BDA094B094A5A60074B094A2E
:103900005A60064B1B69002B01DA0123FB71FB791E
:1039100018460C37BD465DF8047B7047003C0240FA
:1039200023016745AB89EFCD80B400AF054B1B6920
:10393000044A43F00043136100231846BD465DF876
:10394000047B7047003C024080B584B000AF7860D3
:103950000023FB601A4B00229A61FFF781F9F8609F
:1039600010E07B68B3F1FF3F0CD07B68002B07D0E1
:10397000FFF776F90246FB68D31A7A689A4201D2B9
:10398000032319E00F4BDB6803F48033002BE8D1ED
:103990000C4BDB6803F4F973002B03D000F0BAF88A
:1039A000012309E0074BDB6803F00103002B02D081
:1039B000044B0122DA60002318461037BD4680BD53
:1039C00070070020003C024080B485B000AFF86072
:1039D000C7E90023164B1B69154A23F44073136192
:1039E000134B1B69124A43F440731361104B1B695C
:1039F0000F4A43F001031361FB683A681A60BFF392
:103A00006F8F00BFD7E900014FF000024FF00003B5
:103A10000A000023F968043113460B60BFF34F8F8F
:103A200000BF00BF1437BD465DF8047B704700BF80
:103A3000003C024080B483B000AF786039600F4B27
:103A40001B690E4A23F4407313610C4B1B690B4A2C
:103A500043F400731361094B1B69084A43F00103E7
:103A600013617B683A681A60BFF34F8F00BF00BFD5
:103A70000C37BD465DF8047B704700BF003C024038
:103A800080B483B000AF78600B467B800E4B1B691F
:103A90000D4A23F4407313610B4B1B690A4A43F42C
:103AA00080731361084B1B69074A43F001031361DC
:103AB0007B687A881A80BFF34F8F00BF00BF0C3736
:103AC000BD465DF8047B7047003C024080B483B083
:103AD00000AF78600B46FB700D4B1B690C4A23F45A
:103AE000407313610A4B0A4A1B691361084B1B6937
:103AF000074A43F0010313617B68FA781A70BFF339
:103B00004F8F00BF00BF0C37BD465DF8047B704788
:103B1000003C024080B400AF284BDB6803F0020396
:103B2000002B05D0264B9B6943F02003244A936168
:103B3000224BDB6803F01003002B05D0204B9B6960
:103B400043F010031E4A93611C4BDB6803F0200313
:103B5000002B05D01A4B9B6943F00803184A936168
:103B6000164BDB6803F04003002B05D0144B9B6918
:103B700043F00403124A9361104BDB6803F08003A7
:103B8000002B05D00E4B9B6943F002030C4A936156
:103B90000A4BDB6803F48073002B05D0084B9B694C
:103BA00043F04003064A9361044B4FF4F972DA6024
:103BB00000BFBD465DF8047B704700BF003C02407B
:103BC0007007002080B584B000AF786039600023B2
:103BD000BB602F4B1B7D012B01D1022353E02C4BEB
:103BE00001221A754CF25030FFF7AEFE0346FB730C
:103BF000FB7B002B43D13B684FF0FF321A607B68A0
:103C00001B68012B12D17B68DB68DBB2184600F021
:103C100043F84CF25030FFF797FE0346FB731D4B01
:103C20001B691C4A23F00403136128E07B685B686E
:103C3000BB601CE07B68DB68DBB21946B86800F04B
:103C400051F84CF25030FFF77FFE0346FB73114BE7
:103C50001B69104A23F07A031361FB7B002B03D00E
:103C60003B68BA681A600AE0BB680133BB607B68D6
:103C70009A687B685B681344BA689A42DAD3044B4B
:103C800000221A75FB7B18461037BD4680BD00BF69
:103C900070070020003C024080B483B000AF0346B0
:103CA000FB710F4B1B690E4A23F4407313610C4BDD
:103CB0001B690B4A43F004031361094B1A69FB7932
:103CC0001B021343064A43F480331361BFF34F8F43
:103CD00000BF00BF0C37BD465DF8047B704700BFD6
:103CE000003C024080B485B000AF78600B46FB70AA
:103CF0000023FB60FB78002B02D10023FB6010E067
:103D0000FB78012B03D14FF48073FB6009E0FB7853
:103D1000022B03D14FF40073FB6002E04FF44073B9
:103D2000FB60154B1B69144A23F440731361124B5B
:103D30001A691149FB6813430B610F4B1B690E4A4B
:103D400023F0F80313610C4B1A697B68DB00134303
:103D5000094A43F002031361074B1B69064A43F407
:103D600080331361BFF34F8F00BF00BF1437BD46D0
:103D70005DF8047B704700BF003C024080B489B00E
:103D800000AF786039600023FB6100237B61002372
:103D90003B610023BB610023FB6169E10122FB69F8
:103DA00002FA03F37B613B681B687A6913403B614D
:103DB0003A697B699A4240F058813B685B6803F03E
:103DC0000303012B05D03B685B6803F00303022B60
:103DD00030D17B689B68BB61FB695B00032202FA00
:103DE00003F3DB43BA691340BB613B68DA68FB69E4
:103DF0005B0002FA03F3BA691343BB617B68BA69DB
:103E00009A607B685B68BB610122FB6902FA03F37D
:103E1000DB43BA691340BB613B685B681B0903F075
:103E20000102FB6902FA03F3BA691343BB617B68C1
:103E3000BA695A603B685B6803F00303032B17D031
:103E40007B68DB68BB61FB695B00032202FA03F35A
:103E5000DB43BA691340BB613B689A68FB695B004E
:103E600002FA03F3BA691343BB617B68BA69DA608B
:103E70003B685B6803F00303022B23D1FB69DA087C
:103E80007B68083253F82230BB61FB6903F00703FB
:103E90009B000F2202FA03F3DB43BA691340BB61B4
:103EA0003B681A69FB6903F007039B0002FA03F3FE
:103EB000BA691343BB61FB69DA087B680832B969E8
:103EC00043F822107B681B68BB61FB695B0003221F
:103ED00002FA03F3DB43BA691340BB613B685B68DA
:103EE00003F00302FB695B0002FA03F3BA691343B0
:103EF000BB617B68BA691A603B685B6803F4403356
:103F0000002B00F0B280604B5B6C5F4A43F480434F
:103F100053645D4B5B6C03F48043FB60FB685B4A5E
:103F2000FB699B08023352F82330BB61FB6903F045
:103F300003039B000F2202FA03F3DB43BA69134029
:103F4000BB617B68524A93422BD07B68514A9342B3
:103F500025D07B68504A93421FD07B684F4A9342DA
:103F600019D07B684E4A934213D07B684D4A9342E6
:103F70000DD07B684C4A934207D07B684B4A9342F2
:103F800001D107230EE008230CE006230AE00523F5
:103F900008E0042306E0032304E0022302E00123F7
:103FA00000E00023FA6902F0030292009340BA692C
:103FB0001343BB613549FB699B080233BA6941F879
:103FC00023203B4B9B68BB613B69DB43BA691340D1
:103FD000BB613B685B6803F48013002B03D0BA69B4
:103FE0003B691343BB61324ABB699360304BDB686A
:103FF000BB613B69DB43BA691340BB613B685B68EB
:1040000003F40013002B03D0BA693B691343BB616F
:10401000274ABB69D360264B5B68BB613B69DB43C6
:10402000BA691340BB613B685B6803F40033002B43
:1040300003D0BA693B691343BB611D4ABB69536036
:104040001B4B1B68BB613B69DB43BA691340BB6117
:104050003B685B6803F48033002B03D0BA693B698B
:104060001343BB61124ABB691360FB690133FB61F7
:10407000FB690F2B7FF692AE00BF00BF2437BD4611
:104080005DF8047B704700BF0038024000380140F3
:10409000000002400004024000080240000C024000
:1040A000001002400014024000180240001C0240B0
:1040B000003C014080B487B000AF786039600023D5
:1040C0003B610023FB600023BB6000237B61CDE0EC
:1040D00001227B6902FA03F33B613A683B691340B2
:1040E000FB60FA683B699A4240F0BD80654A7B6993
:1040F0009B08023352F82330BB607B6903F0030353
:104100009B000F2202FA03F3BA681340BB607B687E
:104110005D4A93422BD07B685C4A934225D07B68F2
:104120005B4A93421FD07B685A4A934219D07B68FE
:10413000594A934213D07B68584A93420DD07B680A
:10414000574A934207D07B68564A934201D10723CE
:104150000EE008230CE006230AE0052308E0042310
:1041600006E0032304E0022302E0012300E0002331
:104170007A6902F0030292009340BA689A4232D1FF
:10418000494B1A68FB68DB43474913400B60464BB9
:104190005A68FB68DB43444913404B60424BDA6882
:1041A000FB68DB4340491340CB603F4B9A68FB6898
:1041B000DB433D4913408B607B6903F003039B00A5
:1041C0000F2202FA03F3BB602E4A7B699B0802337D
:1041D00052F82310BB68DA432A487B699B080A40DF
:1041E000023340F823207B681A687B695B00032157
:1041F00001FA03F3DB431A407B681A607B69DA0833
:104200007B68083253F822107B6903F007039B0098
:104210000F2202FA03F3DB437A69D20819407B6864
:10422000083243F822107B68DA687B695B0003215F
:1042300001FA03F3DB431A407B68DA607B685A6853
:1042400001217B6901FA03F3DB431A407B685A6062
:104250007B689A687B695B00032101FA03F3DB4307
:104260001A407B689A607B6901337B617B690F2B05
:104270007FF62EAF00BF00BF1C37BD465DF8047B44
:10428000704700BF003801400000024000040240B7
:1042900000080240000C02400010024000140240DE
:1042A00000180240001C0240003C014080B483B072
:1042B00000AF78600B467B8013467B707B78002BC9
:1042C00003D07A887B689A6103E07B881A047B6854
:1042D0009A6100BF0C37BD465DF8047B704780B41F
:1042E00085B000AF78600B467B807B685B69FB60C4
:1042F0007A88FB6813401A04FB68D9437B880B401B
:104300001A437B689A6100BF1437BD465DF8047B91
:104310007047000080B582B000AF00237B60234B64
:104320001B6C224A43F080531364204B1B6C03F038
:1043300080533B603B681E4B1B681D4A43F480332F
:104340001360FEF78DFC786009E0FEF789FC0246F9
:104350007B68D31AB3F57A7F01D9032322E0144B8B
:104360005B6803F48033B3F5803FEED1104B1B68DC
:104370000F4A43F400331360FEF772FC786009E0E3
:10438000FEF76EFC02467B68D31AB3F57A7F01D93B
:10439000032307E0064B5B6803F40033B3F5003FEB
:1043A000EED1002318460837BD4680BD00380240D4
:1043B0000070004080B586B000AF78600023FB75C8
:1043C0007B68002B01D1012391E27B681B6803F01D
:1043D0000103002B00F08780964B9B6803F00C03D1
:1043E000042B0CD0934B9B6803F00C03082B12D1C9
:1043F000904B5B6803F48003B3F5800F0BD18D4BBA
:104400001B6803F40033002B6CD07B685B68002BC7
:1044100068D101236BE27B685B68B3F5803F06D10E
:10442000844B1B68834A43F4803313602EE07B681F
:104430005B68002B0CD17F4B1B687E4A23F48033D2
:1044400013607C4B1B687B4A23F4802313601DE0C0
:104450007B685B68B3F5A02F0CD1764B1B68754A5F
:1044600043F480231360734B1B68724A43F4803318
:1044700013600BE06F4B1B686E4A23F480331360AC
:104480006C4B1B686B4A23F4802313607B685B686A
:10449000002B13D0FEF7E4FB386108E0FEF7E0FBE9
:1044A00002463B69D31A642B01D903231FE2614BF7
:1044B0001B6803F40033002BF0D014E0FEF7D0FBB0
:1044C000386108E0FEF7CCFB02463B69D31A642B47
:1044D00001D903230BE2574B1B6803F40033002B75
:1044E000F0D100E000BF7B681B6803F00203002BE3
:1044F00069D0504B9B6803F00C03002B0BD04D4B45
:104500009B6803F00C03082B1CD14A4B5B6803F437
:104510008003002B16D1474B1B6803F00203002BCE
:1045200005D07B68DB68012B01D00123DFE1414B23
:104530001B6823F0F8027B681B69DB003D491343CD
:104540000B6040E07B68DB68002B23D0394B1B6895
:10455000384A43F001031360FEF782FB386108E03C
:10456000FEF77EFB02463B69D31A022B01D90323D7
:10457000BDE1304B1B6803F00203002BF0D02D4B44
:104580001B6823F0F8027B681B69DB002949134391
:104590000B6018E0274B1B68264A23F001031360C9
:1045A000FEF75EFB386108E0FEF75AFB02463B6906
:1045B000D31A022B01D9032399E11E4B1B6803F088
:1045C0000203002BF0D17B681B6803F00803002B6B
:1045D00038D07B685B69002B19D0164B5B6F154A8E
:1045E00043F001035367FEF73BFB386108E0FEF739
:1045F00037FB02463B69D31A022B01D9032376E12C
:104600000C4B5B6F03F00203002BF0D01AE0094B58
:104610005B6F084A23F001035367FEF721FB386103
:104620000AE0FEF71DFB02463B69D31A022B03D9B1
:1046300003235CE100380240914B5B6F03F00203FF
:10464000002BEED17B681B6803F00403002B00F005
:10465000A4808B4B1B6C03F08053002B0DD1884B37
:104660001B6C874A43F080531364854B1B6C03F02B
:104670008053BB60BB680123FB75824B1B6803F44E
:104680008073002B18D17F4B1B687E4A43F48073E4
:104690001360FEF7E5FA386108E0FEF7E1FA02463A
:1046A0003B69D31A642B01D9032320E1754B1B68A6
:1046B00003F48073002BF0D07B689B68012B06D13C
:1046C0006F4B1B6F6E4A43F0010313672DE07B684D
:1046D0009B68002B0CD16A4B1B6F694A23F00103C6
:1046E0001367674B1B6F664A23F0040313671CE0D4
:1046F0007B689B68052B0CD1614B1B6F604A43F0B4
:10470000040313675E4B1B6F5D4A43F0010313679D
:104710000BE05B4B1B6F5A4A23F001031367584BA6
:104720001B6F574A23F0040313677B689B68002BB9
:1047300015D0FEF795FA38610AE0FEF791FA0246C5
:104740003B69D31A41F28832934201D90323CEE068
:104750004B4B1B6F03F00203002BEED014E0FEF76F
:104760007FFA38610AE0FEF77BFA02463B69D31A0A
:1047700041F28832934201D90323B8E0404B1B6FCA
:1047800003F00203002BEED1FB7D012B05D13C4B46
:104790001B6C3B4A23F0805313647B689B69002B9E
:1047A00000F0A480364B9B6803F00C03082B6BD001
:1047B0007B689B69022B49D1314B1B68304A23F03F
:1047C00080731360FEF74CFA386108E0FEF748FA90
:1047D00002463B69D31A022B01D9032387E0284BF9
:1047E0001B6803F00073002BF0D17B68DA697B68EB
:1047F0001B6A1A437B685B6A9B011A437B689B6A4E
:104800005B08013B1B041A437B68DB6A1B061343EE
:104810001B4A43F000535360194B1B68184A43F07E
:1048200080731360FEF71CFA386108E0FEF718FA8F
:1048300002463B69D31A022B01D9032357E0104BE0
:104840001B6803F00073002BF0D04FE00C4B1B688B
:104850000B4A23F080731360FEF702FA386108E018
:10486000FEF7FEF902463B69D31A022B01D9032356
:104870003DE0034B1B6803F00073002BF0D135E0E3
:1048800000380240007000401B4B5B68FB607B6897
:104890009B69012B28D0FB6803F480027B68DB69ED
:1048A0009A4221D1FB6803F03F027B681B6A9A425F
:1048B0001AD1FA6847F6C07313407A68526A9201B7
:1048C000934211D1FB6803F440327B689B6A5B081A
:1048D000013B1B049A4207D1FB6803F070627B68BE
:1048E000DB6A1B069A4201D0012300E00023184630
:1048F0001837BD4680BD00BF0038024080B584B087
:1049000000AF786039600023FB607B68002B01D129
:104910000123D0E06A4B1B6803F00F033A689A4208
:1049200010D9674B1B6823F00F0265493B6813439E
:104930000B60634B1B6803F00F033A689A4201D087
:104940000123B8E07B681B6803F00203002B20D032
:104950007B681B6803F00403002B05D0594B9B6850
:10496000584A43F4E05393607B681B6803F00803E4
:10497000002B05D0534B9B68524A43F4604393602D
:10498000504B9B6823F0F0027B689B684D491343B2
:104990008B607B681B6803F00103002B40D07B68B1
:1049A0005B68012B07D1474B1B6803F40033002BD6
:1049B00015D101237FE07B685B68022B07D1414B57
:1049C0001B6803F00073002B09D1012373E03D4BFA
:1049D0001B6803F00203002B01D101236BE0394B6C
:1049E0009B6823F003027B685B68364913438B6046
:1049F000FEF736F9F8600AE0FEF732F90246FB6886
:104A0000D31A41F28832934201D9032353E02D4B4C
:104A10009B6803F00C027B685B689B009A42EBD1B9
:104A2000274B1B6803F00F033A689A4210D2244BBD
:104A30001B6823F00F0222493B6813430B60204B95
:104A40001B6803F00F033A689A4201D0012332E059
:104A50007B681B6803F00403002B08D0194B9B688C
:104A600023F4E0527B68DB68164913438B607B6854
:104A70001B6803F00803002B09D0124B9B6823F43A
:104A800060427B681B69DB000E4913438B6000F0BA
:104A900021F802460B4B9B681B0903F00F030A49E0
:104AA000CB5C22FA03F3094A1360094B1B681846D2
:104AB000FEF792F8002318461037BD4680BD00BFB0
:104AC000003C0240003802406483000820000020BF
:104AD000240000202DE9B04F94B000AF00237B6488
:104AE0000023FB6400233B640023BB64794B9B6879
:104AF00003F00C03082B0DD0082B00F2E180002BF3
:104B000002D0042B03D0DBE0734BBB64DBE0734BC0
:104B1000BB64D8E06F4B5B6803F03F037B646D4B75
:104B20005B6803F48003002B63D06A4B5B689B09CE
:104B30000022BB63FA63BB6BC3F308033B63002330
:104B40007B63D7E90C4522462B464FF000004FF01F
:104B50000001590141EAD261500102460B4621464B
:104B6000511A3961294663EB01037B614FF0000262
:104B70004FF00003D7E904AB59468B01514643EA95
:104B8000916351468A015146B2EB0108594663EBE5
:104B900001094FF000024FF000034FEAC90343EA56
:104BA00058734FEAC80290469946234618EB030310
:104BB000BB602B4649EB0303FB604FF000024FF054
:104BC0000003D7E9024529464B02214643EAD15367
:104BD00021464A02104619467B6C0022BB62FA62EB
:104BE000D7E90A23FBF71CFB02460B461346FB647E
:104BF00058E0384B5B689B09002218461146C0F309
:104C000008033B6200237B62D7E9088942464B4692
:104C10004FF000004FF00001590141EAD26150010C
:104C200002460B464146B2EB010A494663EB010BD3
:104C30004FF000024FF000034FEA8B1343EA9A63F0
:104C40004FEA8A12B2EB0A0463EB0B054FF0000245
:104C50004FF00003EB0043EA5473E20014461D4694
:104C60004346E3183B604B4645EB03037B604FF044
:104C700000024FF00003D7E9004529468B02214688
:104C800043EA915321468A02104619467B6C002262
:104C9000BB61FA61D7E90623FBF7C2FA02460B466D
:104CA0001346FB640B4B5B681B0C03F003030133DF
:104CB0005B003B64FA6C3B6CB2FBF3F3BB6402E059
:104CC000054BBB6400BFBB6C18465037BD46BDE802
:104CD000B08F00BF003802400024F40000127A00B8
:104CE00080B400AF034B1B681846BD465DF8047BDB
:104CF000704700BF2000002080B500AFFFF7F0FF35
:104D00000246054B9B689B0A03F007030349CB5CF3
:104D100022FA03F3184680BD00380240748300086D
:104D200080B500AFFFF7DCFF0246054B9B685B0BCD
:104D300003F007030349CB5C22FA03F3184680BD56
:104D4000003802407483000880B588B000AF7860F6
:104D500000237B6100233B610023FB610023BB61D7
:104D60007B681B6803F00103002B12D0654B9B6826
:104D7000644A23F400039360624B9A687B68DB6AA1
:104D8000604913438B607B68DB6A002B01D10123F0
:104D9000FB617B681B6803F40023002B17D0594B81
:104DA000D3F88C3023F440127B685B6B5549134376
:104DB000C1F88C307B685B6BB3F5801F01D1012398
:104DC000FB617B685B6B002B01D10123BB617B68BE
:104DD0001B6803F48013002B17D04A4BD3F88C3098
:104DE00023F440027B689B6B46491343C1F88C3027
:104DF0007B689B6BB3F5800F01D10123FB617B685E
:104E00009B6B002B01D10123BB617B681B6803F006
:104E10002003002B00F08B803A4B1B6C394A43F087
:104E200080531364374B1B6C03F08053FB60FB68AB
:104E3000354B1B68344A43F480731360FDF710FF51
:104E4000786108E0FDF70CFF02467B69D31A642BFA
:104E500001D90323BCE22C4B1B6803F48073002BA5
:104E6000F0D0284B1B6F03F440733B613B69002B70
:104E700035D07B689B6A03F440733A699A422ED01E
:104E8000204B1B6F23F440733B611E4B1B6F1D4A6D
:104E900043F4803313671B4B1B6F1A4A23F4803390
:104EA0001367184A3B691367164B1B6F03F0010326
:104EB000012B14D1FDF7D4FE78610AE0FDF7D0FE96
:104EC00002467B69D31A41F28832934201D9032307
:104ED0007EE20C4B1B6F03F00203002BEED07B68CD
:104EE0009B6A03F44073B3F5407F11D1054B9B6877
:104EF00023F4F8127B68996A044B0B400149134371
:104F00008B600BE00038024000700040FFFCFF0F98
:104F1000A44B9B68A34A23F4F8139360A14B1A6F28
:104F20007B689B6AC3F30B039E4913430B677B6843
:104F30001B6803F01003002B10D09A4BD3F88C3071
:104F4000984A23F08073C2F88C30964BD3F88C20AB
:104F50007B681B6B93491343C1F88C307B681B68DB
:104F600003F48043002B0AD08E4BD3F8903023F407
:104F700040327B68DB6D8B491343C1F890307B680E
:104F80001B6803F40043002B0AD0864BD3F8903003
:104F900023F440227B681B6E82491343C1F8903092
:104FA0007B681B6803F48033002B0AD07D4BD3F859
:104FB000903023F440127B685B6E7A491343C1F84A
:104FC00090307B681B6803F04003002B0AD0754BC0
:104FD000D3F8903023F003027B68DB6B71491343F5
:104FE000C1F890307B681B6803F08003002B0AD067
:104FF0006C4BD3F8903023F00C027B681B6C694932
:105000001343C1F890307B681B6803F48073002B56
:105010000AD0644BD3F8903023F030027B685B6C8D
:1050200060491343C1F890307B681B6803F4007338
:10503000002B0AD05B4BD3F8903023F0C0027B6882
:105040009B6C58491343C1F890307B681B6803F48C
:105050008063002B0AD0534BD3F8903023F4407276
:105060007B68DB6C4F491343C1F890307B681B6849
:1050700003F40063002B0AD04A4BD3F8903023F49A
:1050800040627B681B6D47491343C1F890307B68D1
:105090001B6803F48053002B0AD0424BD3F89030A6
:1050A00023F440527B685B6D3E491343C1F8903056
:1050B0007B681B6803F40053002B0AD0394BD3F8EC
:1050C000903023F440427B689B6D36491343C1F80E
:1050D00090307B681B6803F40013002B11D0314B18
:1050E000D3F8903023F000627B685B6F2D49134347
:1050F000C1F890307B685B6FB3F1006F01D1012381
:10510000BB617B681B6803F48023002B0AD0254B0E
:10511000D3F8903023F040727B68DB6E2149134353
:10512000C1F890307B681B6803F40003002B0AD0A1
:105130001C4BD3F8903023F080527B689B6F194949
:105140001343C1F890307B681B6803F08063002B29
:105150000AD0144BD3F8903023F000527B68DB6FF9
:1051600010491343C1F89030FB69012B06D07B68CE
:105170001B6803F00073002B00F09D80094B1B6837
:10518000084A23F080631360FDF76AFD78610BE045
:10519000FDF766FD02467B69D31A642B04D903230D
:1051A00016E100BF003802408B4B1B6803F0006320
:1051B000002BEDD17B681B6803F00103002B17D097
:1051C0007B68DB6A002B13D1834BD3F884301B0E32
:1051D00003F00F033B617B685B689A013B691B0628
:1051E0001A437B689B681B077B491343C1F88430D3
:1051F0007B681B6803F40023002B04D07B685B6B87
:10520000B3F5801F0AD07B681B6803F48013002B62
:1052100024D07B689B6BB3F5800F1FD16E4BD3F806
:1052200084301B0F03F007033B617B685B689A01C6
:105230007B68DB681B061A433B691B0766491343FF
:10524000C1F88430644BD3F88C3023F01F027B68A4
:10525000DB69013B60491343C1F88C307B681B68F4
:1052600003F00073002B0DD07B685B689A017B68AC
:10527000DB681B061A437B689B681B075649134370
:10528000C1F88430544B1B68534A43F08063136069
:10529000FDF7E6FC786108E0FDF7E2FC02467B6979
:1052A000D31A642B01D9032392E04B4B1B6803F004
:1052B0000063002BF0D0BB69012B40F08880464B87
:1052C0001B68454A23F080531360FDF7C9FC7861E1
:1052D00008E0FDF7C5FC02467B69D31A642B01D9AF
:1052E000032375E03C4B1B6803F00053B3F1005FF0
:1052F000EFD07B681B6803F40023002B03D07B688E
:105300005B6B002B09D07B681B6803F48013002BB8
:1053100024D07B689B6B002B20D12F4BD3F8883097
:105320001B0C03F003033B617B681B699A013B691B
:105330001B041A437B685B691B0627491343C1F8AA
:105340008830254BD3F88C3023F4F8527B681B6AE5
:10535000013B1B0220491343C1F88C307B681B685A
:1053600003F40013002B18D07B685B6FB3F1006F60
:1053700013D1194BD3F888301B0E03F00F033B6198
:105380007B681B699A017B689B691B041A433B6914
:105390001B0611491343C1F888300F4B1B680E4A96
:1053A00043F080531360FDF75BFC786108E0FDF784
:1053B00057FC02467B69D31A642B01D9032307E00B
:1053C000054B1B6803F00053B3F1005FEFD10023DE
:1053D00018462037BD4680BD0038024080B584B0F5
:1053E00000AF78607B68002B01D101239DE07B68D2
:1053F0005B6A002B08D17B685B68B3F5827F09D0BC
:105400007B680022DA6105E07B6800221A617B6814
:1054100000225A617B6800229A627B6893F85D30B3
:10542000DBB2002B06D17B68002283F85C20786811
:10543000FCF718FF7B68022283F85D207B681B68FD
:105440001A687B681B6822F040021A607B68DB6880
:10545000B3F5E06F02D90023FB6002E04FF4805304
:10546000FB607B68DB68B3F5706F07D07B68DB6837
:10547000B3F5E06F02D07B6800229A627B685B68BC
:1054800003F482727B689B6803F404431A437B68CD
:105490001B6903F002031A437B685B6903F0010395
:1054A0001A437B689B6903F400731A437B68DB69CA
:1054B00003F038031A437B681B6A03F0800342EA57
:1054C00003017B689B6A03F400527B681B680A43F4
:1054D0001A607B689B691B0C03F004027B685B6AA3
:1054E00003F010031A437B685B6B03F008031A4355
:1054F0007B68DB6803F4706342EA0301FB6803F432
:1055000080527B681B680A435A607B681B68DA69B3
:105510007B681B6822F40062DA617B6800221A66ED
:105520007B68012283F85D20002318461037BD46B2
:1055300080BD000080B584B000AFF860B96013464C
:10554000FB80FB6893F85D30DBB2012B01D00223B6
:1055500005E1BB68002B02D0FB88002B01D10123A1
:10556000FDE0FB689B68002B10D1FB685B68B3F51E
:10557000827F0BD1FB68042283F85D20FB88BA6828
:10558000B968F86800F0F6F80346E8E0FB6893F8BD
:105590005C30012B01D10223E1E0FB68012283F89A
:1055A0005C20FB68042283F85D20FB6800221A66F9
:1055B000FB68BA681A64FB68FA88A3F84420FB68A1
:1055C000FA88A3F84620FB680022DA64FB68002210
:1055D0001A65FB6800229A87FB680022DA87FB685D
:1055E0009B68B3F5004F0FD1FB681B681A68FB6816
:1055F0001B6822F040021A60FB681B681A68FB688F
:105600001B6822F480421A60FB681B685A68FB68BA
:105610001B6822F400525A60FB68DB68B3F5E06F48
:1056200008D9FB681B685A68FB681B6822F4805223
:105630005A6042E0FB681B685A68FB681B6842F4CA
:1056400080525A60FB689B6D9B69B3F5005F34D153
:10565000FB681B685A68FB681B6822F480525A601A
:10566000FB68B3F846309BB203F00103002B11D165
:10567000FB681B685A68FB681B6822F400525A607A
:10568000FB68B3F846309BB25B089AB2FB68A3F89C
:10569000462012E0FB681B685A68FB681B6842F4EE
:1056A00000525A60FB68B3F846309BB25B089BB26D
:1056B00001339AB2FB68A3F84620FB689B6D2A4A27
:1056C0001A64FB689B6D294ADA63FB689B6D284A64
:1056D000DA64FB689B6D00221A65FB68986DFB68B5
:1056E0001B680C331946FB681B6C1A46FB68B3F841
:1056F00046309BB2FDF734FD0346002B0BD0FB6810
:105700001B6E43F01002FB681A66FB68002283F8E8
:105710005C20012323E0FB681B681B6803F0400347
:10572000402B07D0FB681B681A68FB681B6842F0B7
:1057300040021A60FB68002283F85C20FB681B684B
:105740005A68FB681B6842F020025A60FB681B68BD
:105750005A68FB681B6842F001025A600023184631
:105760001037BD4680BD00BF0D5C0008D15A00084F
:10577000455C000880B586B000AFF860B9607A601B
:105780007B80FB6893F85D30FB75FB685B683B6171
:10579000FB7D012B0CD03B69B3F5827F06D1FB6802
:1057A0009B68002B02D1FB7D042B01D0022358E122
:1057B000BB68002B05D07B68002B02D07B88002BB8
:1057C00001D101234DE1FB6893F85C30012B01D13D
:1057D000022346E1FB68012283F85C20FB6893F812
:1057E0005D30DBB2042B03D0FB68052283F85D201B
:1057F000FB6800221A66FB68BA689A63FB687A88BD
:105800009A87FB687A88DA87FB687A681A64FB688B
:105810007A88A3F84420FB687A88A3F84620FB68BE
:105820000022DA64FB6800221A65FB681B685A686C
:10583000FB681B6822F4C0425A60FB68DB68B3F562
:10584000E06F08D9FB681B685A68FB681B6822F484
:1058500080525A606FE0FB681B685A68FB681B68DF
:1058600042F480525A60FB685B6D9B69B3F5005F40
:1058700026D1FB689B8F03F00103002B0FD1FB683F
:105880001B685A68FB681B6822F480425A60FB68F8
:10589000DB8F9BB25B089AB2FB68DA8710E0FB688B
:1058A0001B685A68FB681B6842F480425A60FB68B8
:1058B000DB8F9BB25B089BB201339AB2FB68DA873D
:1058C000FB689B6D9B69B3F5005F34D1FB681B6877
:1058D0005A68FB681B6822F480525A60FB68B3F870
:1058E00046309BB203F00103002B11D1FB681B680B
:1058F0005A68FB681B6822F400525A60FB68B3F8D0
:1059000046309BB25B089AB2FB68A3F8462012E0CF
:10591000FB681B685A68FB681B6842F400525A60B7
:10592000FB68B3F846309BB25B089BB201339AB276
:10593000FB68A3F84620FB6893F85D30DBB2042BCC
:1059400008D1FB689B6D494A1A64FB689B6D484A05
:10595000DA6307E0FB689B6D464A1A64FB689B6D3F
:10596000454ADA63FB689B6D444ADA64FB689B6DC9
:1059700000221A65FB68986DFB681B680C3319469A
:10598000FB681B6C1A46FB68B3F846309BB2FDF708
:10599000E7FB0346002B0BD0FB681B6E43F01002A5
:1059A000FB681A66FB68002283F85C20012358E03C
:1059B000FB681B685A68FB681B6842F001025A606A
:1059C000FB685B6D00221A64FB685B6D0022DA6382
:1059D000FB685B6D0022DA64FB685B6D00221A6570
:1059E000FB68586DFB689B6B1946FB681B680C33A2
:1059F0001A46FB68DB8F9BB2FDF7B2FB0346002B18
:105A00000BD0FB681B6E43F01002FB681A66FB6844
:105A1000002283F85C20012323E0FB681B681B68DD
:105A200003F04003402B07D0FB681B681A68FB6833
:105A30001B6842F040021A60FB68002283F85C2079
:105A4000FB681B685A68FB681B6842F020025A60BA
:105A5000FB681B685A68FB681B6842F002025A60C8
:105A6000002318461837BD4680BD00BF0D5C0008F6
:105A7000D15A0008295C00087B5B0008455C0008DF
:105A800080B483B000AF786000BF0C37BD465DF8CE
:105A9000047B704780B483B000AF786000BF0C37E0
:105AA000BD465DF8047B704780B483B000AF78607A
:105AB00000BF0C37BD465DF8047B704780B483B0EF
:105AC00000AF786000BF0C37BD465DF8047B7047BF
:105AD00080B584B000AF78607B689B6BFB60FDF79E
