:020000040800F2
:10000000000004206D4800088D4400089344000857
:10001000994400089F440008A5440008000000001F
:10002000000000000000000000000000AB440008D9
:10003000B944000800000000C7440008D544000887
:10004000BD480008BD480008BD480008BD4800087C
:10005000BD480008BD480008BD480008BD4800086C
:10006000BD480008BD480008BD480008E14400083C
:10007000F5440008BD480008BD480008BD48000818
:1000800009450008BD480008BD480008BD480008F3
:10009000BD480008BD480008BD480008BD4800082C
:1000A000BD4800081D450008BD480008BD480008BF
:1000B0003145000859450008BD480008BD48000802
:1000C000BD480008BD480008BD480008BD480008FC
:1000D000BD48000881450008BD4800089545000856
:1000E000BD480008BD480008BD480008BD480008DC
:1000F000A9450008E9450008BD480008BD480008BA
:10010000BD480008BD48000805460008BD48000875
:10011000BD480008BD480008BD48000871460008F9
:10012000C5460008D9460008ED460008BD4800084D
:10013000BD480008000000000000000000000000B2
:10014000000000000000000000000000BD480008A2
:10015000BD480008BD480008BD480008BD4800086B
:10016000BD480008BD480008BD480008BD4800085B
:10017000BD480008BD480008000000000000000065
:10018000BD480008BD480008BD480008BD4800083B
:10019000BD480008BD48000800000000BD48000838
:1001A000000000000000000000000000BD48000842
:1001B000BD480008BD480008000000000000000025
:1001C000000000000000000000000000000000002F
:1001D000000000000000000000000000BD48000812
:1001E00010B5054C237833B9044B13B10448AFF371
:1001F00000800123237010BDE800002000000000F3
:1002000060B0000808B5034B1BB103490348AFF3C6
:10021000008008BD00000000EC00002060B0000875
:1002200001F0FF01102A2BDB10F0070F08D010F8A7
:10023000013B013A8B422DD010F0070F42B3F6D1AB
:10024000F0B441EA012141EA014122F007047FF0C4
:1002500000070023F0E80256083C85EA010586EA1B
:10026000010685FA47F5A3FA87F586FA47F6A5FA57
:1002700087F68EB9EED1F0BC01F0FF0102F0070263
:1002800032B110F8013B013A83EA010313B1F8D10E
:100290000020704701387047002D06BF35460338EF
:1002A000073815F0010F07D1013015F4807F02BF28
:1002B000013015F4C03F0130F0BC0138704700BF79
:1002C00053B94AB9002908BF00281CBF4FF0FF31BD
:1002D0004FF0FF3000F074B9ADF1080C6DE904CEB9
:1002E00000F006F8DDF804E0DDE9022304B0704711
:1002F0002DE9F047089D04468E46002B4DD18A42D9
:10030000944669D9B2FA82F252B101FA02F3C2F10B
:10031000200120FA01F10CFA02FC41EA030E94409C
:100320004FEA1C48210CBEFBF8F61FFA8CF708FBBD
:1003300016E341EA034306FB07F199420AD91CEB95
:10034000030306F1FF3080F01F81994240F21C81C7
:10035000023E63445B1AA4B2B3FBF8F008FB10330F
:1003600044EA034400FB07F7A7420AD91CEB040444
:1003700000F1FF3380F00A81A74240F20781644414
:10038000023840EA0640E41B00261DB1D440002399
:10039000C5E900433146BDE8F0878B4209D9002DFD
:1003A00000F0EF800026C5E9000130463146BDE887
:1003B000F087B3FA83F6002E4AD18B4202D38242F1
:1003C00000F2F980841A61EB030301209E46002DA0
:1003D000E0D0C5E9004EDDE702B9FFDEB2FA82F2F5
:1003E000002A40F09280A1EB0C014FEA1C471FFA53
:1003F0008CFE0126200CB1FBF7F307FB131140EA3A
:1004000001410EFB03F0884208D91CEB010103F106
:10041000FF3802D2884200F2CB804346091AA4B2C8
:10042000B1FBF7F007FB101144EA01440EFB00FE9C
:10043000A64508D91CEB040400F1FF3102D2A64501
:1004400000F2BB800846A4EB0E0440EA03409CE7A0
:10045000C6F12007B34022FA07FC4CEA030C20FA4D
:1004600007F401FA06F31C43F9404FEA1C4900FA6D
:1004700006F3B1FBF9F8200C1FFA8CFE09FB1811EA
:1004800040EA014108FB0EF0884202FA06F20BD95D
:100490001CEB010108F1FF3A80F08880884240F2AD
:1004A0008580A8F102086144091AA4B2B1FBF9F0F1
:1004B00009FB101144EA014100FB0EFE8E4508D9EC
:1004C0001CEB010100F1FF346CD28E456AD9023871
:1004D000614440EA0840A0FB0294A1EB0E01A14256
:1004E000C846A64656D353D05DB1B3EB080261EBC4
:1004F0000E0101FA07F722FA06F3F1401F43C5E99E
:10050000007100263146BDE8F087C2F12003D840D3
:100510000CFA02FC21FA03F3914001434FEA1C4715
:100520001FFA8CFEB3FBF7F007FB10360B0C43EA07
:10053000064300FB0EF69E4204FA02F408D91CEBB7
:10054000030300F1FF382FD29E422DD902386344B5
:100550009B1B89B2B3FBF7F607FB163341EA034155
:1005600006FB0EF38B4208D91CEB010106F1FF38A4
:1005700016D28B4214D9023E6144C91A46EA00469B
:1005800038E72E46284605E70646E3E61846F8E62D
:100590004B45A9D2B9EB020864EB0C0E0138A3E776
:1005A0004646EAE7204694E74046D1E7D0467BE757
:1005B000023B614432E7304609E76444023842E7CF
:1005C000704700BF80B582B000AF04F078F900F04A
:1005D00077FA00F0E7FD00F093FD00F055FD00F024
:1005E0001BFD00F017FB00F0D7FA00F051FB00F004
:1005F0009DFB00F039FC00F06DFC00F0A1FC00F068
:10060000E3FB00F0E5FC00F0BFFC914807F026FD9D
:10061000904807F013FC4FF47A7004F0ADF906220D
:100620008D498E4808F044FA05228D498D4806F020
:1006300001FE05228C498D4806F0FCFD02F0A2F96E
:1006400002238B4A02218B4802F0FCF9894B1B687C
:10065000894A1360874B5B68884A1360884B012284
:100660001A70884B1B78002B01D000F029FE864BB6
:100670001B78002B61D0854B1B8801339AB2834BCA
:100680001A8002F0D7FA824B1B78012B0BD0804BDB
:100690001B78022B07D07E4B1B78032B03D07C4B9F
:1006A0001B78042B46D17B4B1B78002B42D00023B8
:1006B000FB7110E0FB79784A12781146774AD25CD8
:1006C000774B5A54FB790133FB71734B1B78013321
:1006D000DAB2714B1A70FB79022BEBD96D4B002209
:1006E0001A70704B1B780133DAB26E4B1A706D4B77
:1006F0001B789AB26C4B1A806C4B1B6801336B4AA7
:1007000013606B4B1B8801339AB2694B1A80654B9F
:100710001B780A2B0ED1634B00221A705E4B01220C
:100720001A70644B01221A70634B1B8801339AB212
:10073000614B1A80544B00221A70604B1B78002BBF
:100740002DD0534B1B78013B082B24D801A252F823
:1007500023F000BF8B0700089107000897070008E7
:1007600097070008970700087F0700089707000809
:10077000790700088507000802F0CEFA0CE002F0C5
:1007800077FB09E002F018FB06E002F0BFFB03E094
:1007900002F0BCFB00E000BF484B00221A70484B3F
:1007A0001B78002B2DD03A4B1B78013B082B24D80B
:1007B00001A252F823F000BFEF070008F507000878
:1007C000FB070008FB070008FB070008E307000819
:1007D000FB070008DD070008E907000802F09CFAA3
:1007E0000CE002F045FB09E002F0E6FA06E002F058
:1007F000CFFC03E002F00EFE00E000BF304B002211
:100800001A70304B1B78002B7DD0264B1B78002BA9
:100810005AD0284B1B78002B56D11E4B00221A7041
:10082000204B1B781A4652001344DBB20133DBB273
:100830001A4621211A4802F057F91E4B01221A705C
:10084000184B00221A70144B01221A705BE000BF93
:100850005C030020400400208008002044060020A3
:100860008C0700207801002094070020140100204C
:1008700000800108200800205408002058080020AB
:10088000AB080020A6080020A5080020EC070020E7
:10089000AC0800203108002005000020A00800203E
:1008A000C0070020E10700207E080020100800207B
:1008B000E6070020AE080020F8070020A708002067
:1008C000A808002030080020644B1B78002B1AD1A8
:1008D000634B1B78002B16D1624B00221A70624BBF
:1008E00000221A70614B01221A70614B00221A70AB
:1008F000604B00221A70604B00221A6003F0DEF891
:100900005E4807F0ABFB5E4B1B78002B1FD05D4BA6
:100910001B78002B1BD05C4B1B78052B17D1584B39
:1009200000221A70574B00221A70574BFF221A7080
:100930004C4B04221A704D4B02221A70534B012269
:100940001A70042003F04EF8514807F00FFB514B8A
:100950001B78002B3FF485AE4E4B00221A704B4B98
:100960001B78002B2AD04C4B00221A804B4B0022C4
:100970001A8005224A494B4808F09AF801224FF4A0
:100980000061494805F012FB3A4B01221A700A2017
:1009900002F036F900224FF40061434805F006FBEF
:1009A0003B4B1B6800225A62404807F0DFFA374B86
:1009B00000221A70314807F0D9FA48E00522384978
:1009C000384808F075F801224FF40061364805F008
:1009D000EDFA284B01221A700A2002F011F90022C8
:1009E0004FF40061304805F0E1FA244807F036FB87
:1009F0002F4B1B881A4613461B049B1A1A462D4B75
:100A00001A601E4B1B685A6A2A4B1B681344294AFA
:100A10001360274B00221A80184B1B6800225A6271
:100A2000164807F0A3FA03F08DF80346224A136034
:100A3000174807F073FA164B1B681F4A1268DA62F0
:100A4000134B1B6800225A62114807F08FFA1B4BA8
:100A50001B8801339AB2194B1A8002E6E107002085
:100A6000AE080020AC08002028080020AB080020B9
:100A70003008002031080020100800202405002044
:100A800037080020380800207600002036080020B3
:100A90007005002039080020EA070020EC0700203C
:100AA00090080020BC05002000000240F403002054
:100AB000F20700200008002008080020F0070020AE
:100AC00080B594B000AF07F1200330220021184612
:100AD00009F0BAFA07F10C0300221A605A609A6012
:100AE000DA601A612A4B1B6C294A43F08053136465
:100AF000274B1B6C03F08053BB60BB68254B1B6806
:100B0000244A43F440431360224B1B6803F44043E0
:100B10007B607B6801233B624FF480337B6202235E
:100B2000BB634FF48003FB6304233B64D8237B64E3
:100B30000223BB640223FB6407F12003184605F07F
:100B4000B9FA0346002B01D003F0DAF805F062FA97
:100B50000346002B01D003F0D3F80F23FB600223E0
:100B60003B6100237B614FF4A053BB614FF4A05362
:100B7000FB6107F10C030721184605F03FFD034612
:100B8000002B01D003F0BCF800BF5037BD4680BD3C
:100B9000003802400070004080B500AF1B4B1C4A7B
:100BA0001A601A4B4FF482725A60184B00229A60F6
:100BB000164B4FF4E062DA60144B02221A61134BB9
:100BC00000225A61114B4FF400729A610F4B382288
:100BD000DA610E4B00221A620C4B00225A620B4B58
:100BE00000229A62094B0722DA62084B00221A633C
:100BF000064B08225A63054806F070FA0346002B9C
:100C000001D003F07DF800BF80BD00BF14010020BB
:100C1000003C004080B500AF1B4B1C4A1A601A4BC9
:100C20004FF482725A60184B00229A60164B4FF4B0
:100C3000E062DA60144B02221A61134B00225A61FF
:100C4000114B4FF400729A610F4B3822DA610E4B50
:100C500000221A620C4B00225A620B4B00229A624D
:100C6000094B0722DA62084B00221A63064B08225E
:100C70005A63054806F032FA0346002B01D003F010
:100C80003FF800BF80BD00BF780100200034014064
:100C900080B588B000AF07F1100300221A605A60D7
:100CA0009A60DA603B1D00221A605A609A601E4BFF
:100CB0004FF080421A601C4B6B225A601A4B002284
:100CC0009A60194B46F2A712DA60174B00221A619C
:100CD000154B00229A61144807F058F80346002B80
:100CE00001D003F00DF84FF480533B6107F110037E
:100CF00019460D4807F0EAFA0346002B01D002F02E
:100D0000FFFF00237B600023FB603B1D1946064864
:100D100007F00EFD0346002B01D002F0F1FF00BFEB
:100D20002037BD4680BD00BF5C03002080B588B081
:100D300000AF07F1100300221A605A609A60DA606F
:100D40003B1D00221A605A609A601D4B1D4A1A60B2
:100D50001B4B6B225A601A4B00229A60184B43F6C9
:100D60007F62DA60164B00221A61154B00229A61ED
:100D7000134807F00BF80346002B01D002F0C0FF28
:100D80004FF480533B6107F1100319460C4807F0FC
:100D90009DFA0346002B01D002F0B2FF00237B60D6
:100DA0000023FB603B1D1946054807F0C1FC0346C4
:100DB000002B01D002F0A4FF00BF2037BD4680BD4C
:100DC000A80300200004004080B588B000AF07F100
:100DD000100300221A605A609A60DA603B1D0022FC
:100DE0001A605A609A601E4B1E4A1A601C4B42F6EB
:100DF0002F225A601A4B00229A60194B4FF0FF3293
:100E0000DA60174B00221A61154B00229A611448D0
:100E100006F0BCFF0346002B01D002F071FF4FF437
:100E200080533B6107F1100319460D4807F04EFA55
:100E30000346002B01D002F063FF00237B600023F8
:100E4000FB603B1D1946064807F072FC0346002B69
:100E500001D002F055FF00BF2037BD4680BD00BF66
:100E6000F4030020000C004080B584B000AF3B1DAF
:100E700000221A605A609A60144B154A1A60134B8C
:100E80006B225A60114B00229A60104B4FF6FF7292
:100E9000DA600E4B00229A610C4806F077FF034699
:100EA000002B01D002F02CFF00237B600023FB60AD
:100EB0003B1D1946054807F03BFC0346002B01D0BB
:100EC00002F01EFF00BF1037BD4680BD4004002069
:100ED0000010004080B584B000AF3B1D00221A60B6
:100EE0005A609A60144B154A1A60134B6B225A6071
:100EF000114B00229A60104B6322DA600E4B0022E5
:100F00009A610D4806F042FF0346002B01D002F023
:100F1000F7FE00237B600023FB603B1D194606485B
:100F200007F006FC0346002B01D002F0E9FE00BFEB
:100F30001037BD4680BD00BF8C0400200014004067
:100F400080B500AF0E4B0F4A1A600D4B42F62F22B0
:100F50005A600B4B00229A60094B4FF6FF72DA6021
:100F6000074B00221A61064B00229A61044806F0E2
:100F70000DFF0346002B01D002F0C2FE00BF80BD72
:100F8000D80400200044014080B500AF0E4B0F4A4A
:100F90001A600D4B40F237425A600B4B00229A60A8
:100FA000094B4FF6FF72DA60074B00221A61064BBD
:100FB00000229A61044806F0E9FE0346002B01D0A6
:100FC00002F09EFE00BF80BD24050020001C0040F2
:100FD00080B500AF0E4B0F4A1A600D4B45F25F42D1
:100FE0005A600B4B00229A60094B4FF6FF72DA6091
:100FF000074B00221A61064B00229A61044806F052
:10100000C5FE0346002B01D002F07AFE00BF80BD72
:10101000700500200020004080B500AF184B1B6811
:101020009A68174B1B6842F001029A60144B154AEC
:101030001A60134B4FF416425A60114B00229A600B
:101040000F4B0022DA600E4B00221A610C4B0C226F
:101050005A610B4B00229A61094B0022DA61084B5E
:1010600000221A62064B00225A62054807F00CFC67
:101070000346002B01D002F043FE00BF80BD00BF3D
:10108000BC0500200010014080B500AF194B1B6863
:101090009A68184B1B6842F001029A60164B174A77
:1010A0001A60154B4FF4E1325A60134B00229A60DC
:1010B000114B0022DA60104B00221A610E4B0C22F9
:1010C0005A610D4B00229A610B4B0022DA610A4BE8
:1010D00000221A62084B00225A62002300220021DB
:1010E000054808F01FFF0346002B01D002F008FE60
:1010F00000BF80BDBC050020440600200048004021
:1011000080B582B000AF264B1B6B254A43F4001319
:101110001363234B1B6B03F400137B607B68204B32
:101120001B6B1F4A43F4800313631D4B1B6B03F4BB
:1011300080033B603B68002201210B2003F03FFD50
:101140000B2003F058FD002201210C2003F037FD95
:101150000C2003F050FD00220121102003F02FFD90
:10116000102003F048FD01220121382003F027FD63
:10117000382003F040FD01220121392003F01FFD3A
:10118000392003F038FD002201213A2003F017FD39
:101190003A2003F030FD00BF0837BD4680BD00BFD8
:1011A0000038024080B58AB000AF07F11403002276
:1011B0001A605A609A60DA601A613D4B1B6B3C4AB8
:1011C00043F0100313633A4B1B6B03F010033B61B6
:1011D0003B69374B1B6B364A43F080031363344B38
:1011E0001B6B03F08003FB60FB68314B1B6B304AC9
:1011F00043F0010313632E4B1B6B03F00103BB6031
:10120000BB682B4B1B6B2A4A43F004031363284B28
:101210001B6B03F004037B607B68254B1B6B244A2C
:1012200043F002031363224B1B6B03F002033B608A
:101230003B6800224FF407611E4804F0B7FE00220D
:1012400020211D4804F0B2FE002203211B4804F0B7
:10125000ADFE4FF407637B610123BB610023FB619B
:1012600000233B6207F114031946124804F006FC00
:1012700020237B610123BB610023FB6100233B62D0
:1012800007F1140319460C4804F0F8FB03237B61B3
:101290000123BB610023FB6100233B6207F11403C0
:1012A0001946064804F0EAFB00BF2837BD4680BD5A
:1012B00000380240000002400008024000040240E2
:1012C00080B586B002AF9F4B1B78013B1F2B00F20D
:1012D000ED8701A252F823F05913000825160008E3
:1012E000D1130008AD220008C3190008891A0008AC
:1012F0000F1B0008931C00086B1D0008BB1D000895
:10130000E91D0008291E0008AD2200083B1E000848
:10131000FF1E0008171F0008EF1F00082720000805
:10132000472000087D200008E5200008AD220008C5
:101330000F210008AD2100084F220008AD2200084F
:10134000AD220008AD220008AD220008AD22000841
:10135000AD2200088D22000805227B497B4805F05C
:1013600069FF05227A497B4805F064FF7A4B1B78B8
:1013700083F00103DBB2002B1AD0784B5B6F93F83C
:101380003530DBB2012B13D105227549734807F0C4
:101390008FFB01224FF40061724804F007FE0A201F
:1013A00001F02EFC00224FF400616E4804F0FEFDB7
:1013B0006D4806F043FD0021012001F091F96A48D3
:1013C00006F0ACFD684B1B6800225A6200F06EBF4D
:1013D0000121032001F084F9644B00221A80644B40
:1013E00000221A805C4B00221A70624B00221A7095
:1013F000614B00221A70614B524A92E80300186058
:10140000043319805D4B5B78013B5D4A13441B7AC2
:10141000B43B002BB8BF5B421AB25A4B1A80574BF1
:101420009B78013B564A13441B7A9BB2B4339BB260
:101430001AB2554B1A80514BDB78013B534A0833A3
:1014400032F81320524B1A804E4BB3F90030042B64
:1014500011DC4C4BB3F90030053B002BB8BF5B42AD
:101460009AB24C4B1A804B4B1B88C3F5B4739AB29B
:10147000484B1A8007E0434BB3F900309BB2053B61
:101480009AB2444B1A80444B00221A70434B0022FC
:101490001A70434B00221A70424B00221A70424BC2
:1014A00000221A70414B00221A703A4B1B885B04D1
:1014B0003F4A82FB03121A441212DB17D31A1A4650
:1014C0003C4B1A603B4B1B682A4A1278114618465F
:1014D00001F00CFA0346374A1360264B1B78354A55
:1014E00012681146184600F06DFF264BB3F9003024
:1014F0005B042F4A82FB03121A441212DB17D31A21
:101500001A462D4B1A602C4B1B681A4A127811464A
:10151000184601F0EBF90346274A13601C4B1B8861
:101520001A46254B1B681344B3F5003F48D9184BA6
:101530001B881A46204B1B681344A3F500331F4A2F
:10154000136045E0800800208C070020780100200F
:10155000940700201401002028080020BC0500206A
:101560009008002000000240D8040020E607002078
:10157000F007002074000020AE080020880800203A
:1015800008000020780800207A08002018000020B9
:10159000740800207C0800202A0800202C08002065
:1015A0002B0800202D0800202E0800202F080020E6
:1015B000B7600BB64C0800203C080020BC08002097
:1015C0009A4B1B881A469A4B1B681344994A13601E
:1015D000994BB3F900305B04984A82FB03121A441A
:1015E0001212DB17D31A1A46954B1A60944B1B68DC
:1015F000944A12781146184601F078F90346904A49
:101600001360914B02221A70904B02221A70904B79
:1016100001221A708F4806F0A9FC8F4806F0A6FC3C
:1016200000F044BE0121022001F05AF88B4B002249
:101630001A80814B00221A80894B00221A80894B24
:1016400000221A80884B00221A80884B00221A70D0
:10165000874B1B78002B14BF01230023DAB2794B90
:101660001A70844B00221A70012002F0BBF9824BE1
:10167000824A92E803001860043319807E4B5B783D
:10168000013B7F4A13441B7AB43B002BB8BF5B423B
:101690001AB2724B1A80784B9B78013B784A1344FC
:1016A0001B7A9BB2B4339BB21AB2634B1A806B4B5A
:1016B000B3F90030042B11DC684BB3F90030053B63
:1016C000002BB8BF5B429AB2654B1A80644B1B88F3
:1016D000C3F5B4739AB2624B1A8007E05F4BB3F95B
:1016E00000309BB2053B9AB25D4B1A80654B0022DD
:1016F0001A70654B00221A70644B00221A70514B0D
:101700001B7883F00103DBB2002B00F0C7805A4B3B
:10171000DB78013B5E4A083332F81320434B1A80D2
:10172000484B1B785B4A127892B21146184602F079
:101730005FFA4B4B1B885B04404A82FB03121A443E
:101740001212DB17D31A1A46534B1A60524B1B68FE
:101750003C4A12781146184601F0C8F803464E4A32
:101760001360384B1B784C4A12681146184600F03B
:1017700029FE3A4BB3F900305B04304A82FB031276
:101780001A441212DB17D31A1A46294B1A60284B37
:101790001B682C4A12781146184601F0A7F8034638
:1017A000234A1360214B1B881A46214B1B681344A4
:1017B000B3F5003F0AD91D4B1B881A461C4B1B680A
:1017C0001344A3F500331B4A136007E0174B1B8833
:1017D0001A46174B1B681344164A1360164BB3F98D
:1017E00000305B04154A82FB03121A441212DB1705
:1017F000D31A1A46124B1A60114B1B68114A127801
:101800001146184601F072F803460D4A13600E4B5C
:1018100001221A700D4B02221A700E4806F0A6FB28
:101820000D4806F0A3FB00F03EBD00BF7408002089
:101830003C080020BC0800207A080020B7600BB6E6
:101840004408002074000020AC080020AB080020F1
:10185000AD0800208C0400205C03002078080020E4
:101860007C080020E6070020F00700202808002060
:10187000AF080020AE080020880800208008002063
:10188000080000202A0800202C0800202B08002037
:1018900018000020770000204C080020A34B1B7884
:1018A000002B00F00085A24BDB78013BA14A0833F6
:1018B00032F81320A04B1A80A04B1B885B04A04A6F
:1018C00082FB03121A441212DB17D31A1A469D4BDD
:1018D0001A609C4B1B68954A12781146184601F015
:1018E00005F80346974A1360904B1B78954A126897
:1018F0001146184600F066FD934BB3F900305B04C7
:101900008F4A82FB03121A441212DB17D31A1A46AB
:101910008E4B1A608D4B1B68844A1278114618460C
:1019200000F0E4FF0346894A1360834B1B881A4684
:10193000864B1B681344B3F5003F0AD97E4B1B88C6
:101940001A46824B1B681344A3F50033804A136088
:1019500007E0794B1B881A467C4B1B6813447C4A72
:1019600013607C4BB3F900305B04754A82FB0312B1
:101970001A441212DB17D31A1A46774B1A60764BA9
:101980001B686A4A12781146184600F0AFFF0346FA
:10199000714A1360704B1A686C4B1B689A4202D2F2
:1019A0006E4B01221A706E4B01221A706D4B02228F
:1019B0001A706D4806F0DAFA6C4806F0D7FA00F0B3
:1019C00072BC5B4B6A4A92E80300186004331980CA
:1019D000684B1B6800225A62674B01221A70674BE2
:1019E0001B78002B03D0664B05221A7002E0644B73
:1019F00000221A70634B00221A704D4B5B78013B3A
:101A0000614A52F823204A4B9B78013B5F4931F8E9
:101A100013301946104601F0C3FF03465C4A1360B9
:101A20005C4806F07BFA424B5B785A1E594B1B68A8
:101A3000554951F82220DA62564B1B6800225A623F
:101A4000554806F06BFA3A4B9B78013B4F4A32F807
:101A50001320524B1A80514B1A884F4B1B68DA6285
:101A60004E4B1B881A4613469B0013449B001A4694
:101A70004B4B1A60484B1B6800225A62012105201B
:101A800000F02EFE00F012BC0121062000F028FE1E
:101A9000444B1B881A46254B1B781946104600F00C
:101AA00025FF0346404A13603F4B1B683F4A1360C3
:101AB0003E4B1B6803F59673B3F5003F06D93B4BCD
:101AC0001A683B4B1344394A136005E0374B1B68D7
:101AD00003F59673354A1360364B00221A700022C4
:101AE0001021354804F062FA304B1B68194600207B
:101AF00000F068FC1C4806F039FA304806F036FA67
:101B0000174B06221A70174B01221A70CEE30121DF
:101B1000072000F0E5FD124B1B78022B02DC002BA6
:101B20004EDCAFE0042B7CD0ACE000BF74000020A2
:101B30008808002018000020760800207C0800207B
:101B4000B7600BB65008002078080020400800203D
:101B5000C00800207A08002048080020340800202F
:101B6000AC080020AB0800208C040020A803002053
:101B700080080020240500203A08002037080020B3
:101B80007600002030080020380000205C00002093
:101B900014080020F403002070050020E207002054
:101BA00004080020320800205C0800206C08002097
:101BB0002C01FEFF35080020000002405C030020DD
:101BC000A74806F04BFAA74806F048FAA64806F0E0
:101BD00045FAA64B1B78002B13D0A54B1B78002B86
:101BE0000FD1A24B1B781A4652001344DBB20133CB
:101BF000DBB21A4621219F4800F076FF9C4B012260
:101C00001A709A4B00221A709B4B01221A709B4B40
:101C100000221A709A4B00221A709A4B00221A70F6
:101C200030E0994806F07AF9984806F077F9984834
:101C300006F074F98D4B1B78002B13D08C4B1B785E
:101C4000002B0FD1894B1B781A4652001344DBB28C
:101C50000133DBB21A462121864800F045FF844B50
:101C600001221A70814B00221A70834B01221A70D4
:101C7000824B00221A70824B00221A70854B002280
:101C80001A8000BF844B00221A70844B01221A7004
:101C90000CE30121082000F023FD0023FB80804B92
:101CA000DB78002B30D07F4B00221A607E4B012264
:101CB0001A707B4B9B789BB21B02FB80784B5B7846
:101CC0009AB2FB881343FB80FB885B04774A82FB54
:101CD00003121A441212DB17D31A1A46714B1A60F8
:101CE000704B1B68704A12781146184600F0FEFDD2
:101CF00003466C4A13606C4B1B786A4A12681146A3
:101D0000184600F05FFBD1E2694B00221A60664B77
:101D100000221A70624B9B789BB21B02FB80604BC7
:101D20005B789AB2FB881343FB80FB885B045F4AB5
:101D300082FB03121A441212DB17D31A1A465C4BA9
:101D40001A605B4B1B68584A12781146184600F01F
:101D5000CDFD0346564A1360534B1B78544A126814
:101D60001146184600F02EFBA0E24D4B5B78002B8D
:101D700014BF01230023DAB24B4B1A700121092052
:101D800000F0AEFC454B01221A70434B09221A7039
:101D90003C4B01221A70424B5B78002B06D1324833
:101DA00006F0E4F82E4806F0E1F87FE22E4806F04F
:101DB000DDF82C4806F0DAF878E23E4B384A92E833
:101DC000030018600433198001210A2000F088FC08
:101DD000384B5B78002B03D0374B01221A7065E239
:101DE000354B00221A7061E2344806F027F800F003
:101DF00031FD1F4B00221A70314B1B8801339AB200
:101E00002F4B1A802D4806F089F82C4B1B685B6A13
:101E10009AB22C4B1B8813449AB22A4B1A80274B38
:101E20001B6800225A6241E200F052FF1B4B012264
:101E30001A70254B00221A7038E2194B9B78002B40
:101E40004AD0224B00221A7001221021204804F0AF
:101E5000ADF8012220211F4804F0A8F849E000BF96
:101E60005C030020A80300208C040020E107002070
:101E7000AE080020C0070020050000202808002030
:101E800031080020AD08002070050020F403002078
:101E900024050020FA070020AC080020AB08002031
:101EA000800800206808002074000020B7600BB68E
:101EB0006408002088080020AF080020D804002013
:101EC000EE070020E407002029080020A9080020D0
:101ED0000000024000080240974B01221A700022C5
:101EE0001021964804F062F800222021944804F062
:101EF0005DF8944B5B78184600F0F8F9D6E1924B08
:101F00001B78002B40F0D181904806F02FF89048C4
:101F100006F02CF8C9E10121102000F0E1FB8D4B07
:101F200008221A708C4B00221A60864B9B781B0289
:101F30001A46894B1A60834B5B781A46864B1B689E
:101F40001343854A1360804B1B78002B27D0834BAB
:101F500000221A607B4BDB78002B11D17E4B1B6873
:101F60005B04DB087E4AA2FB03239B08BB60764B25
:101F70001B781946B86800F0B9FC0346774A13602D
:101F8000714B1B78754A12681146184600F01AFA10
:101F90006E4805F0EBFF734805F0E8FF86E1724BF1
:101FA00000221A60674BDB78002B11D16A4B1B684B
:101FB0005B04DB086A4AA2FB03239B08BB60624BFD
:101FC0001B781946B86800F091FC0346664A136016
:101FD0005D4B1B78644A12681146184600F0F2F90E
:101FE0005A4805F0C3FF5A4805F0C0FF5EE10121E1
:101FF000112000F075FB544B1B78002B06D059487C
:1020000006F02CF8514806F029F805E0504806F093
:1020100025F84E4806F022F84E4B00221A70534B1A
:1020200000221A7042E10121122000F059FB454BB9
:102030005B78002B03D0444B01221A7036E1424BEF
:1020400000221A7032E10121132000F049FB484BB5
:102050001B68484A1360484B1B68484A1360454B4D
:102060001B68474A1360454B1B68454A536002236F
:10207000444A0221424800F09BFC17E10121142050
:1020800000F02EFB404B01221A70404B01221A70C7
:102090003F4B00221A702B4B5B78184600F042FD34
:1020A00003461A463B4B1A70264B9B78012B06D1F0
:1020B000384B1B7863F07703DAB2364B1A70354B26
:1020C0001A78344B5A70344806F036FD64230122E6
:1020D0003049314806F063FC052230492E4806F0AD
:1020E000E7FCE3E005222E492B4806F0E1FC012243
:1020F0004FF40061114803F059FF012002F03CFC4D
:1021000000224FF400610D4803F050FFCEE002239F
:102110001C4A0421234800F095FC224B1968214BEE
:102120005A68204B98681F4BDB68009303461E4893
:1021300007F092FFBAE000BFA908002000000240AB
:102140000008024080080020740000208C04002059
:102150005C030020AC08002070080020600800200C
:10216000176CC116A80300205C080020AD080020F1
:10217000B408002054080020B808002058080020A7
:1021800020080020008001082808002037080020CF
:1021900038080020F4070020BC05002000000020C3
:1021A00090080020C808002078B00008434B1B7836
:1021B00083F00103DBB2002B24D001221021404820
:1021C00003F0F4FE3F4B00221A70012220213C480C
:1021D00003F0ECFE642002F0CFFB002220213848FF
:1021E00003F0E4FE05223849384805F023F80021C1
:1021F000012000F075FA334B1B780133DAB2314B12
:102200001A70E2E701222021314803F0CFFE2D4B66
:1022100000221A70012201212E4803F0C7FE64201B
:1022200002F0AAFB002201212A4803F0BFFE05228A
:1022300029492A4804F0FEFF0021012000F050FA4D
:10224000204B1B780133DAB21E4B1A70E2E71B4BAE
:102250001B7883F00103DBB2002B0BD005221A4957
:102260001A4804F0E7FF6423052217491C4806F0CA
:1022700096FB1BE005221849184804F0DBFF642395
:1022800005221549164806F08AFB0FE00023FB6083
:1022900002E0FB680133FB60FB68812BF9DD11482C
:1022A00007F060FF02E000BF00E000BF0E4B00221D
:1022B0001A7000BF1037BD4680BD00BF74000020FB
:1022C00000000240FD0700208C070020780100205C
:1022D000000802400004024094070020140100207E
:1022E0004406002090B00008A608002080B584B005
:1022F00000AF0346FB712A4B1B7883F00103DBB26E
:10230000002B29D00023FB6021E001222021254859
:1023100003F04CFE022002F02FFB00222021214876
:1023200003F044FE022002F027FB20211D4803F0A9
:1023300056FE05221C491D4804F07CFF642305223B
:1023400019491B4806F02BFBFB680133FB60FB7946
:10235000FA689A42D9DB1BE00023BB6014E001213C
:10236000144803F03CFE042002F006FB052212494B
:10237000124804F05FFF642305220F490C4806F061
:102380000EFBBB680133BB60FB79BA689A42E6DB9F
:102390000B4B00221A7000BF1037BD4680BD00BF36
:1023A00074000020000002408C070020780100200B
:1023B000440600200004024094070020140100207D
:1023C000FC07002080B582B000AF03463960FB7186
:1023D000FB7983F00103DBB2002B40D0424B1B683A
:1023E0003A689A421DD2404B1A683B68D21A3E4B5B
:1023F0001B683968CB1A03F500339A4208D90122C9
:1024000010213A4803F0D2FD394B00221A7066E0E1
:1024100000221021354803F0C9FD354B01221A7006
:102420005DE0314B1A683B68D31A03F500322E4B3E
:102430001B683968CB1A9A4208D2002210212B4817
:1024400003F0B4FD2A4B01221A7048E0012210214A
:10245000264803F0ABFD264B00221A703FE0254BC7
:102460001B683A689A421DD2224B1A683B68D21AFE
:10247000204B1B683968CB1A03F500339A4208D900
:10248000012220211C4803F091FD1C4B00221A70F0
:1024900025E000222021184803F088FD174B012277
:1024A0001A701CE0134B1A683B68D31A03F500320C
:1024B000104B1B683968CB1A9A4208D2002220219F
:1024C0000D4803F073FD0D4B01221A7007E0012245
:1024D0002021094803F06AFD084B00221A7000BF52
:1024E0000837BD4680BD00BFB40800200000024090
:1024F000A9080020B808002000080240AA0800200F
:1025000080B582B000AF7860391D4FF6FF730122AD
:10251000034806F044FA7B6818460837BD4680BD7C
:102520004406002080B485B000AF78607B681B68EB
:102530002B4A934202D12B4B01221A707B681B68F5
:10254000294A934245D1294B1B78002B3ED00023CA
:10255000FB60274B1B781A46254B5B781344244AB3
:1025600092781344FB60FB68DBB2FB60204BDB78A6
:102570001A46FB68934203D11D4B1B79A52B03D050
:102580001C4B00221A700DE0194B1A781A4B1B785D
:102590001B09DBB29A4205D0164B00221A70174B6A
:1025A00001221A70164B1B78002B09D0144B002205
:1025B0001A70144B00221A70134B00221A7002E09A
:1025C000104B01221A70094B00221A700F4B012286
:1025D0001A7000BF1437BD465DF8047B704700BF1A
:1025E00000480040A60800200010014028080020F4
:1025F00000000020AB080020F4070020290800207C
:10260000750000203808002037080020A5080020A9
:1026100080B483B000AF78607B681B68234A934224
:102620001CD1234B9B785B09DBB203F00703214AE3
:1026300013601F4B5B78DA001E4B1B6813431D4A67
:1026400013601B4B1B78DB0203F4FC32194B1B6835
:102650001343184A1360184B01221A707B681B68D9
:10266000164A93421CD1164B9B785B09DBB203F0F0
:102670000703144A1360124B5B78DA00114B1B6896
:102680001343104A13600E4B1B78DB0203F4FC3239
:102690000C4B1B6813430B4A13600B4B01221A703F
:1026A00000BF0C37BD465DF8047B70470034014025
:1026B0008C070020B4080020A7080020003C004040
:1026C00094070020B8080020A808002080B483B038
:1026D00000AF786000BF0C37BD465DF8047B7047E3
:1026E00080B584B000AF03460A46FB711346BB7148
:1026F0004C4B00221A80FB79012B77D14A4B0122E7
:102700001A704A4B1A78484B5A70494B1A78464B04
:102710009A70484B1B781A46434BDA70464B1A782E
:10272000414B1A71454B1A783F4B5A71444B1A78FA
:102730003D4B9A71424B5A783B4BDA71404B9A7839
:10274000394B1A723F4B1B68DAB2374B5A723D4B0A
:102750001B681B0ADAB2344B9A723A4B1B681B0C8B
:10276000DAB2314BDA72384B1B68DAB22E4BDA73BD
:10277000354B1B681B0ADAB22B4B1A74324B1B68A1
:102780001B0CDAB2284B5A74274B0022DA77264BFF
:10279000002283F820200023FB6016E0224AFB6819
:1027A00013441B789AB2FB6801331F49CB5C9BB280
:1027B0001B029BB213449AB21A4B1B8813449AB261
:1027C000184B1A80FB680233FB60FB681D2BE5DDAC
:1027D000154B9B7F9AB2134B1B8813449AB2114B33
:1027E0001A801A4B0F4A12881A8010E021210E48D5
:1027F00000F05EF90C4AFB7913700B4ABB795370F9
:10280000094AFB79D377084ABB7982F820306423E0
:10281000212205490E4806F0C2F800BF1037BD4618
:1028200080BD00BFF60700209C070020AB080020F9
:10283000AC080020AD080020AE080020B008002041
:1028400098080020B4080020B8080020BB0700202A
:102850004406002080B582B000AF0023FB801F4BF0
:102860000B221A701D4B0022DA771C4B002283F8D2
:10287000202000233B6013E0184A3B6813441B7878
:102880009AB23B6801331549CB5C9BB21B029BB2E9
:1028900013449AB2FB881344FB803B6802333B60CD
:1028A0003B681D2BE8DD0D4B9B7F9AB2FB881344E0
:1028B000FB800B4AFB8813800A4806F03DF964232D
:1028C00021220649074806F06AF80622064905480B
:1028D00006F0EEF800BF0837BD4680BDC0070020F7
:1028E000DF070020440600208008002080B485B067
:1028F00000AF78600B46FB700023FB60FB78002B79
:1029000014D01E4B1A687B681344B3F5003F07D9F7
:102910001A4B1A687B681344A3F50033FB6019E077
:10292000164B1B687A681344FB6013E0144B1A685B
:102930007B681344B3F5003F07D9114B1A687B68D5
:102940001344A3F50033FB6004E00D4B1B687A6869
:102950001344FB60FB68002B01D15C23FB60FB6828
:10296000B3F5003F02D1FB685C3BFB60FB68184697
:102970001437BD465DF8047B704700BF580800203F
:102980005408002080B400AF084B00221A60074BA7
:102990000222DA60054B04225A60044B01229A603D
:1029A00000BFBD465DF8047B704700BF04010020F6
:1029B000B0B586B000AFF8607A603B600B46FB7242
:1029C00002F010FE1D491E4802F07CFF0346002B5A
:1029D0002ED10023FB753B68022B02D10423FB752B
:1029E00004E03B68012B01D10223FB750023BB757A
:1029F00017E0BB7D9B00FA6813441B6800221C464D
:102A0000154622462B467968386802F091FD034648
:102A1000002B0FD1FB7D7A6813447B60BB7D0133B3
:102A2000BB75BA7DFB7A9A42E3D302F0FDFD02E06A
:102A300000BF00E000BF1837BD46B0BDD808002079
:102A40000401002080B487B000AFF8607A603B607A
:102A50000B46FB720023FB7500233B613B68022B96
:102A600002D10423FB7504E03B68012B01D1022352
:102A7000FB750023BB820FE07B681B683B61BB8A50
:102A80009B00FA6813443A691A60FB7D7A68134424
:102A90007B60BB8A0133BB82FB7A9BB2BA8A9A42C3
:102AA000EAD300BF00BF1C37BD465DF8047B70470A
:102AB00080B485B000AF78600B46FB700023FB73D9
:102AC00007E0FB7B7A68134400221A70FB7B01331A
:102AD000FB73FA7BFB789A42F3D300BF00BF143735
:102AE000BD465DF8047B704780B485B000AF786068
:102AF0000B46FB701346BB70BB78FB7307E0FB7B98
:102B00007A68134400221A70FB7B0133FB73FA7B53
:102B1000FB789A42F3D300BF00BF1437BD465DF87F
:102B2000047B704780B483B000AF0346FB71FB7930
:102B3000802B5CD0802B5CDC202B47DC002B58DD0D
:102B4000013B1F2B55D801A252F823F0D32B0008CC
:102B5000D72B0008F32B0008DB2B0008F32B000811
:102B6000F32B0008F32B0008DF2B0008F32B0008E1
:102B7000F32B0008F32B0008F32B0008F32B0008BD
:102B8000F32B0008F32B0008E32B0008F32B0008BD
:102B9000F32B0008F32B0008F32B0008F32B00089D
:102BA000F32B0008F32B0008F32B0008F32B00088D
:102BB000F32B0008F32B0008F32B0008F32B00087D
:102BC000F32B0008F32B0008E72B0008402B0CD058
:102BD0000FE000230EE011230CE022230AE0332350
:102BE00008E0442306E0552304E0662302E077234F
:102BF00000E0012318460C37BD465DF8047B7047A2
:102C000080B483B000AF0346FB80094B1B680022F1
:102C10005A6200BF064B1B685A6AFB889A42F9D376
:102C200000BF00BF0C37BD465DF8047B704700BF96
:102C30004004002080B400AF1F4B1B781A461E4B87
:102C40005B7813441C4A92781344DBB21A4AD27858
:102C500093422CD1184B1B79A52B28D1174B1B78ED
:102C6000002B12D0144B1A78154B1A70124B5A784D
:102C7000134B5A70104B9A78114B9A70114B1B885A
:102C800001339AB20F4B1A800BE00B4B1A780E4BA4
:102C90001A70094B5A780C4B5A70074B9A780A4BAA
:102CA0009A700A4B1B8801339AB2084B1A8000BFF6
:102CB000BD465DF8047B7047900800203108002075
:102CC000A0080020E807002098080020EA0700205C
:102CD00080B500AF21210D48FFF7EAFE0B4B0C2217
:102CE0001A700B4B1A78094B5A70084B0C22DA7782
:102CF000074B1A78054B83F82020642321220349CF
:102D0000044805F04CFE00BF80BD00BF9C070020BA
:102D1000290800204406002080B500AF1D4B1B7819
:102D20004B21184600F064FF1A4B1B78002B17D07C
:102D3000194B1B681A1F194B1B689A4227D8164B50
:102D40001B681A1D164B1B689A4220D3154805F0C4
:102D500085F9154805F082F9144B00221A7016E027
:102D6000134B1B681A1F0E4B1B689A420FD8104B4F
:102D70001B681A1D0A4B1B689A4208D30D4805F0C0
:102D80006DF9094805F06AF9084B00221A7000BF76
:102D900080BD00BF7400002060080020B80800203B
:102DA000B4080020A80300208C040020AC080020F8
:102DB0005C0800205C03002080B500AF224B1B782C
:102DC0004B21184600F014FF1F4B1B78002B1CD022
:102DD0001E4B1B68A3F12E021D4B1B689A4230D874
:102DE0001A4B1B6803F12E02194B1B689A4228D319
:102DF000184805F033F9184805F030F9174B002250
:102E00001A70174B00221A701BE0164B1B68A3F1B7
:102E10002E02154B1B689A4213D8124B1B6803F104
:102E20002E02114B1B689A420BD3104805F016F97D
:102E3000094805F013F9094B00221A70084B0022CB
:102E40001A7000BF80BD00BF740000206808002019
:102E5000B8080020A80300208C040020AC08002043
:102E6000AD08002064080020B40800205C030020A6
:102E700080B500AF1D4B1B786421184600F0B8FEEA
:102E80001B4B1B7883F00103DBB2002B13D0194BD3
:102E90001B68A3F12E02184B1B689A4224D8154BCD
:102EA0001B6803F12E02144B1B689A421CD3104B73
:102EB00001221A7018E0114B1B68A3F12E020E4B71
:102EC0001B689A4210D80D4B1B6803F12E020A4B67
:102ED0001B689A4208D30A4805F0C0F8094805F073
:102EE000BDF8094B00221A7000BF80BD740000209D
:102EF000350800206C080020B40800205C08002081
:102F00005C0300208C040020AC08002080B500AFDA
:102F1000864B1B7883F00103DBB2002B21D0844B5E
:102F200001221A70834B1B685A1F834B1B689A42FD
:102F300017D8804B1B685A1D7F4B1B689A4210D3D1
:102F40007E4805F08BF87E4B1B787E4A126811464E
:102F50001846FFF737FA754B01221A70774805F0CB
:102F600005F8724B1B78002B00F09F80764B1B7886
:102F700083F00103DBB2002B2AD06D4B00221A70C4
:102F8000704B1B685A1F6C4B1B689A4220D86D4BC4
:102F90001B685A1D684B1B689A4219D36A4B012261
:102FA0001A70052269496A4805F082FD01224FF432
:102FB0000061684802F0FAFF674B01221A700A208C
:102FC000FFF71EFE00224FF40061624802F0EEFFA0
:102FD0005D4B1B78002B68D0604B1B7883F001039E
:102FE000DBB2002B61D0544B1A685D4B1B689A42D0
:102FF00028D35B4B1B6803F12E024F4B1B689A4290
:1030000020D305225149524805F052FD01224FF4C8
:103010000061504802F0CAFF4F4B01221A700A208B
:10302000FFF7EEFD00224FF400614A4802F0BEFFB8
:103030004C4B1B8801339AB24A4B1A80474B0122F2
:103040001A7072E0484B1B681A1F3B4B1B689A4270
:103050002BD8454B1B681A1D374B1B689A4224D34B
:10306000424B1B881A46404B1B6813443E4A136070
:1030700005223649364805F01BFD01224FF4006158
:10308000344802F093FF344B01221A700A20FFF7F4
:10309000B7FD00224FF400612E4802F087FF314B4C
:1030A0001B8801339AB22F4B1A802C4B1B78002BB4
:1030B0003BD0294B1B7883F00103DBB2002B34D0CB
:1030C0002B4B1B78002B30D12A4B1B78002B0FD0B9
:1030D000284B1B781A4652001344DBB20133DBB293
:1030E0001A4621212448FFF7FFFC214B01221A70C8
:1030F000204B00221A70214B01221A70204B002213
:103100001A70204B00221A701F4B01221A70134BA9
:1031100001221A70104B00221A7000F0CFFC0748F1
:1031200004F09CFF194804F099FF80BD2C08002092
:10313000AD0800204C080020B40800205C030020EB
:10314000740000203C0800202A080020900800207D
:10315000BC05002000000240310800202B080020A0
:1031600044080020F0070020BC080020740800205C
:10317000AE080020E1070020C00700200500002065
:10318000AC08002028080020AB0800208C04002098
:1031900080B500AF864B1B7883F00103DBB2002BB8
:1031A00021D0844B01221A70834B1B685A1F834B1A
:1031B0001B689A4217D8804B1B685A1D7F4B1B68AF
:1031C0009A4210D37E4804F049FF7E4B1B787E4A1A
:1031D000126811461846FFF7F5F8754B01221A7070
:1031E000774804F0C3FE724B1B78002B00F0A180DF
:1031F000764B1B7883F00103DBB2002B2AD06D4B9A
:1032000000221A70704B1B685A1F6C4B1B689A4245
:1032100020D86D4B1B685A1D684B1B689A4219D306
:103220006A4B01221A70052269496A4805F040FC80
:1032300001224FF40061684802F0B8FE674B01229A
:103240001A700A20FFF7DCFC00224FF4006162488C
:1032500002F0ACFE5D4B1B78002B6AD0604B1B78F4
:1032600083F00103DBB2002B63D05E4B1B68A3F13C
:103270000802524B1B689A4228D85A4B1B6803F12C
:1032800008024E4B1B689A4220D3052250495148F0
:1032900005F00EFC01224FF400614F4802F086FE5B
:1032A0004E4B01221A700A20FFF7AAFC00224FF4AD
:1032B0000061494802F07AFE4B4B1B8801339AB2F9
:1032C000494B1A80464B01221A7070E0474B1B682D
:1032D0001A1F3A4B1B689A422BD8444B1B681A1D85
:1032E000364B1B689A4224D3414B1B881A463F4BEE
:1032F0001B6813443D4A136005223549354805F0E3
:10330000D7FB01224FF40061334802F04FFE334BEC
:1033100001221A700A20FFF773FC00224FF40061AB
:103320002D4802F043FE304B1B8801339AB22E4BDE
:103330001A802B4B1B78002B39D0284B1B7883F03D
:103340000103DBB2002B32D02A4B1B78002B2ED18D
:10335000294B1B78002B0FD0274B1B781A465200A5
:103360001344DBB20133DBB21A4621212348FFF7B5
:10337000BBFB204B01221A70214804F06FFE10485D
:1033800004F06CFE1C4B00221A701E4B01221A70B6
:103390001D4B00221A701D4B00221A701C4B01227B
:1033A0001A700F4B01221A700C4B00221A7080BD4C
:1033B0002C080020AD08002050080020B80800208C
:1033C000A803002074000020400800202A080020E4
:1033D00090080020BC0500200000024031080020B9
:1033E0002B08002048080020F0070020C00800201B
:1033F00076080020AE080020E1070020C00700206A
:103400008C04002005000020AC08002028080020C3
:10341000AB08002080B582B000AF984B1B7883F0DA
:103420000103DBB2002B02D0944B01221A70934BA4
:103430001B78002B00F0E380914B1B7883F0010395
:10344000DBB2002B00F0DB808E4B1B7883F0010396
:10345000DBB2002B21D08C4B01221A708B4B1B68E6
:103460005A1F8B4B1B689A4217D8884B1B685A1DF2
:10347000874B1B689A4210D3864804F0EFFD864BB9
:103480001B78864A126811461846FEF79BFF7D4B53
:1034900001221A707F4804F069FD7A4B1B78002BDB
:1034A00000F0AD807E4B1B7883F00103DBB2002B74
:1034B0002AD0754B00221A70784B1B685A1F744B28
:1034C0001B689A4220D8754B1B685A1D704B1B68AD
:1034D0009A4219D3724B01221A700522714972481F
:1034E00005F0E6FA01224FF40061704802F05EFD3B
:1034F0006F4B01221A700220FFF782FB00224FF46B
:1035000000616A4802F052FD654B1B78002B76D0B3
:10351000684B1B7883F00103DBB2002B6FD0664B46
:103520001B68A3F108025A4B1B689A4234D8624BBD
:103530001B6803F10802564B1B689A422CD35F4B61
:103540001B78002B0FD05D4B1B781A46520013449A
:10355000DBB20133DBB21A4621215948FFF7C4FA26
:10356000584B01221A70554B00221A70564B0122FB
:103570001A70564B00221A704D4B00221A704548A3
:1035800004F06CFD524804F069FD3D4B01221A70B5
:103590003D4B01221A7032E04E4B1B681A1F3C4B08
:1035A0001B689A422BD84B4B1B681A1D384B1B6863
:1035B0009A4224D3484B1B881A46464B1B68134437
:1035C000444A136005223749374805F071FA012251
:1035D0004FF40061354802F0E9FC354B01221A70C6
:1035E0000220FFF70DFB00224FF400612F4802F08C
:1035F000DDFC3A4B1B8801339AB2384B1A80204BC2
:103600001B78002B00F0A580354B1B78002B02D0D7
:1036100000F0B4F89DE01A4B1B78002B00F0998065
:103620002B4804F01BFD2F4804F018FD1C4B002212
:103630001A70144B00221A701E4B00221A70174B7E
:103640001B687B601C4A7B6813601B4B1B68134A1A
:103650001360254BB3F90030B3F5B27F48DB224B42
:10366000B3F900300533002BB8BF5B429AB21F4B51
:103670001A801E4B4FF698621A8041E02F080020F6
:103680002D0800202C080020AD0800204C08002048
:10369000B40800205C030020740000203C080020D7
:1036A0002A08002090080020BC05002000000240ED
:1036B000310800202B08002044080020E1070020EA
:1036C000C0070020AE0800200500002028080020C8
:1036D0008C040020BC08002074080020F0070020A3
:1036E0002E080020A80300207A0800207C08002073
:1036F0001A4BB3F900309BB205339AB2184B1A80BB
:10370000174B1B885B04174A82FB03121A441212E0
:10371000DB17D31A1A46144B1A60134B1B68134A53
:10372000127811461846FFF7E1F803460E4A136077
:103730000E4B1B780C4A126811461846FEF742FEE3
:103740000B4B01221A700B4804F010FC0A4804F0DD
:103750000DFC00BF0837BD4680BD00BF7A080020C1
:103760007C080020B7600BB64C08002074000020D5
:103770002E0800208C0400205C03002080B500AFE0
:103780006E4B1B7883F00103DBB2002B21D06C4B16
:1037900001221A706B4B1B685A1F6B4B1B689A42B5
:1037A00017D8684B1B685A1D674B1B689A4210D389
:1037B000664804F053FC664B1B78664A1268114653
:1037C0001846FEF7FFFD5D4B01221A705F4804F0BA
:1037D000CDFB5A4B1B78002B00F0AE805E4B1B7864
:1037E00083F00103DBB2002B2AD0554B00221A7064
:1037F000584B1B685A1F544B1B689A4220D8554B94
:103800001B685A1D504B1B689A4219D3524B012218
:103810001A7005225149524805F04AF901224FF425
:103820000061504802F0C2FB4F4B01221A70022087
:10383000FFF7E6F900224FF400614A4802F0B6FBB8
:10384000454B1B78002B77D0484B1B7883F0010346
:10385000DBB2002B70D0464B1B681A1F3A4B1B681B
:103860009A4236D8424B1B681A1D374B1B689A4246
:103870002FD3404B1B78002B0FD03E4B1B781A46A2
:1038800052001344DBB20133DBB21A4621213A481D
:10389000FFF72AF9394B01221A70364B00221A70B1
:1038A000374B01221A70374B00221A70364B002218
:1038B0001A70364B01221A702C4B01221A702A4BB7
:1038C00000221A70214804F0C9FB314804F0C6FBFD
:1038D00032E0304B1B681A1F1B4B1B689A422BD8D7
:1038E0002C4B1B681A1D184B1B689A4224D32A4B79
:1038F0001B881A46274B1B681344264A136005226F
:103900001649174805F0D4F801224FF40061154814
:1039100002F04CFB144B01221A700220FFF770F9E1
:1039200000224FF400610F4802F040FB1B4B1B8844
:1039300001339AB2194B1A8000BF80BD2C080020B9
:10394000AD0800204C080020B40800205C030020D3
:10395000740000203C0800202A0800209008002065
:10396000BC05002000000240310800202B08002088
:1039700044080020E1070020C0070020AE08002016
:1039800005000020AC08002028080020AB0800201B
:103990008C040020BC08002074080020F0070020E0
:1039A00080B487B000AF786039607B680C4AA2FBB6
:1039B0000323DB087B613B685B00094AA2FB03230E
:1039C000DB083B617A693B69B2FBF3F39BB20133DD
:1039D000FB81FB8918461C37BD465DF8047B7047A8
:1039E000CDCCCCCC80B582B000AF0346FB71FB7967
:1039F000022B02DC002B23DC5BE0042B59D10022DC
:103A000003210B2001F0DBF80B2001F0F4F8012278
:103A10000321102001F0D3F8102001F0ECF800226F
:103A20000321382001F0CBF8382001F0E4F801221E
:103A30000321392001F0C3F8392001F0DCF839E026
:103A4000012200213A2001F0BAF83A2001F0D3F81F
:103A500001220021252001F0B2F8252001F0CBF849
:103A600001220221372001F0AAF8372001F0C3F823
:103A7000002203210B2001F0A2F80B2001F0BBF87B
:103A800001220321102001F09AF8102001F0B3F870
:103A900000220321382001F092F8382001F0ABF821
:103AA00001220321392001F08AF8392001F0A3F81E
:103AB00000E000BF00BF0837BD4680BD80B500AF45
:103AC000002201210B2001F07AF80B2001F093F87D
:103AD000002201210C2001F072F80C2001F08BF87B
:103AE00000220121102001F06AF8102001F083F873
:103AF00001220121382001F062F8382001F07BF822
:103B000001220121392001F05AF8392001F073F81F
:103B1000002201213A2001F052F83A2001F06BF81E
:103B200000220121252001F04AF8252001F063F848
:103B300000220221372001F042F8372001F05BF823
:103B400000BF80BD80B400AF224B1A68224B1B68B7
:103B50009A4238D31F4B1B689AB21F4B1B689BB20B
:103B6000D31A9AB21D4B1B8813449AB21B4B1A806E
:103B70001A4B1B881A461A4B1B681344184A1360C9
:103B8000164B1B88C72B1ED9164B1B881946134B87
:103B90001B88154AA2FB03239B099BB25B00CB1A2F
:103BA0001A46124B1A600D4B1B880F4AA2FB0312D8
:103BB0009209C82101FB02F29B1A9AB2074B1A80A4
:103BC0000A4B1B6801E0074B1B881846BD465DF891
:103BD000047B70470008002004080020FA0700203A
:103BE000C4080020E20700201F85EB510C080020CC
:103BF00080B485B000AF03460A46FB711346BB8014
:103C00000023FB60134BFB60FB79002B0ED0124BA3
:103C10001B689B6A0133FA68B2FBF3F2BB88B2FB04
:103C2000F3F20D4B1B68013ADA620DE00A4B1B6898
:103C30009B6A0133FA68B2FBF3F2BB88B2FBF3F282
:103C4000064B1B68013ADA6200BF1437BD465DF8C7
:103C5000047B704700F36F06A80300205C0300207C
:103C600080B584B000AF78607B68D3F8843003F00F
:103C70000803002B08D07B681B6808221A621B4BC4
:103C80001B685B6ADBB2FB737B68194A934229D1DC
:103C90007B68D3F8843003F00803002B0ED07B68D8
:103CA0001B6808221A62124B1B685B6ADBB2BB738B
:103CB000062210490E4804F0FBFE13E07B681B68E7
:103CC000DB690D4A13607B68D3F884300B4A1360BC
:103CD000074804F027FEFDF7D7F9062205490448F6
:103CE00004F0E6FE00BF1037BD4680BDBC050020D5
:103CF0004406002080080020180800201C0800202E
:103D000080B400AF72B600BFFEE7000080B582B09D
:103D100000AF0F4B1B6C0E4A43F0805313640C4BE7
:103D20001B6C03F080537B607B68094B5B6C084A1B
:103D300043F480435364064B5B6C03F480433B6065
:103D40003B68052000F030FF00BF0837BD4680BD4E
:103D50000038024080B58CB000AF786007F11C03DA
:103D600000221A605A609A60DA601A617B681B68E8
:103D7000984A934240F0A080974B1B6C964A43F4BC
:103D800000431364944B1B6C03F40043BB61BB6999
:103D9000914B1B6B904A43F0020313638E4B1B6BDA
:103DA00003F002037B617B698B4B1B6B8A4A43F0F8
:103DB00004031363884B1B6B03F004033B613B69F3
:103DC0000423FB6102233B6200237B620323BB626B
:103DD0000723FB6207F11C031946804801F04EFEE1
:103DE0004FF44063FB6102233B6200237B620323A9
:103DF000BB620623FB6207F11C031946784801F0F9
:103E00003DFE784B784A1A60764B00225A60754B1B
:103E100000229A60734B0022DA60724B4FF480628A
:103E20001A61704B00225A616E4B00229A616D4BF1
:103E30000022DA616B4B00221A626A4B00225A623E
:103E4000684800F001FF0346002B01D0FFF758FF40
:103E50007B68644A9A65634A7B689363634B644AF0
:103E60001A60624B00225A60604B40229A605F4B9E
:103E70000022DA605D4B4FF480621A615B4B0022D6
:103E80005A615A4B00229A61584B0022DA61574B13
:103E900000221A62554B00225A62544800F0D4FEA8
:103EA0000346002B01D0FFF72BFF7B684F4A5A6572
:103EB0004E4A7B68936389E07B681B684D4A934256
:103EC00040F08480444B5B6C434A43F4005353649A
:103ED000414B5B6C03F40053FB60FB683E4B1B6B78
:103EE0003D4A43F0100313633B4B1B6B03F010037D
:103EF000BB60BB686423FB6102233B6200237B62DF
:103F00000323BB620523FB6207F11C0319463A48F1
:103F100001F0B4FD394B3A4A1A60384B4FF0006259
:103F20005A60364B00229A60344B0022DA60334BE1
:103F30004FF480621A61314B00225A612F4B0022EC
:103F40009A612E4B0022DA612C4B00221A622B4B15
:103F500000225A62294800F077FE0346002B01D068
:103F6000FFF7CEFE7B68254A9A65244A7B689363F7
:103F7000244B254A1A60234B4FF000625A60214BB4
:103F800040229A601F4B0022DA601E4B4FF4806281
:103F90001A611C4B00225A611A4B00229A61194B7C
:103FA0000022DA61174B00221A62164B00225A6275
:103FB000144800F049FE0346002B01D0FFF7A0FE95
:103FC0007B68104A5A650F4A7B68936300BF30379D
:103FD000BD4680BD003C0040003802400004024065
:103FE00000080240DC010020106002403C0200207A
:103FF0008860024000340140001002409C02002012
:1040000010640240FC0200202864024080B58AB09F
:1040100000AF78607B681B68B3F1804F14D1634BAD
:104020001B6C624A43F001031364604B1B6C03F08A
:1040300001037B627B6A002202211C2000F0BFFD8D
:104040001C2000F0D8FDACE07B681B68584A934206
:1040500014D1564B1B6C554A43F002031364534B67
:104060001B6C03F002033B623B6A002202211D200D
:1040700000F0A5FD1D2000F0BEFD92E07B681B68EE
:104080004C4A934214D1494B1B6C484A43F00803F5
:104090001364464B1B6C03F00803FB61FB690022B1
:1040A0000121322000F08BFD322000F0A4FD78E0E9
:1040B0007B681B68404A93420CD13C4B1B6C3B4ACB
:1040C00043F010031364394B1B6C03F01003BB6106
:1040D000BB6966E07B681B68384A934214D1334B56
:1040E0001B6C324A43F020031364304B1B6C03F00B
:1040F00020037B617B6900220221372000F05FFDF5
:10410000372000F078FD4CE07B681B682C4A934216
:1041100014D1264B5B6C254A43F400335364234B84
:104120005B6C03F400333B613B69032203211920DC
:1041300000F045FD192000F05EFD32E07B681B6851
:10414000204A934214D1194B1B6C184A43F0800348
:104150001364164B1B6C03F08003FB60FB680122A9
:1041600001212C2000F02BFD2C2000F044FD18E054
:104170007B681B68144A934213D10C4B1B6C0B4A8F
:1041800043F480731364094B1B6C03F48073BB60AE
:10419000BB68012201212D2000F011FD2D2000F02F
:1041A0002AFD00BF2837BD4680BD00BF0038024051
:1041B00000040040000C00400010004000140040CB
:1041C00000440140001C00400020004080B5ACB01D
:1041D00000AF786007F19C0300221A605A609A6071
:1041E000DA601A6107F11C0380220021184605F0ED
:1041F0002BFF7B681B687A4A934273D14023FB6193
:104200000023BB6507F11C03184602F01DFC0346A2
:10421000002B01D0FFF774FD724B5B6C714A43F0C9
:10422000100353646F4B5B6C03F01003BB61BB69FD
:104230006C4B1B6B6B4A43F001031363694B1B6BA5
:1042400003F001037B617B694FF4C063C7F89C30C6
:104250000223C7F8A0300023C7F8A4300323C7F80F
:10426000A8300723C7F8AC3007F19C0319465E4815
:1042700001F004FC5D4B5E4A1A605C4B4FF000623B
:104280005A605A4B00229A60584B0022DA60574B12
:104290004FF480621A61554B00225A61534B002241
:1042A0009A61524B0022DA61504B4FF400321A628D
:1042B0004E4B00225A624D4800F0C6FC0346002BCC
:1042C00001D0FFF71DFD7B68484A5A67474A7B6863
:1042D000936300220121252000F071FC252000F0CD
:1042E0008AFC78E07B681B68424A934273D14FF4A2
:1042F0008073FB6100233B6607F11C03184602F044
:10430000A3FB0346002B01D0FFF7FAFC354B1B6CD7
:10431000344A43F480231364324B1B6C03F4802330
:104320003B613B692F4B1B6B2E4A43F00203136327
:104330002C4B1B6B03F00203FB60FB684FF49843AC
:10434000C7F89C300223C7F8A0300023C7F8A43078
:104350000323C7F8A8300723C7F8AC3007F19C0344
:104360001946254801F08AFB244B254A1A60234B45
:104370004FF000625A60214B00229A601F4B0022CE
:10438000DA601E4B4FF480621A611C4B00225A61A6
:104390001A4B00229A61194B4FF48072DA61174B65
:1043A00000221A62154B00225A62144800F04CFC9D
:1043B0000346002B01D0FFF7A3FC7B680F4A5A6726
:1043C0000E4A7B68936300220121272000F0F7FB4F
:1043D000272000F010FC00BFB037BD4680BD00BFF5
:1043E000001001400038024000000240CC060020CE
:1043F0004064024000480040000402402C070020B6
:104400002860024080B582B000AF78607B681B688E
:10441000194A934213D1194B5B6C184A23F01003CD
:1044200053644FF4C061164801F0C4FC7B685B6FB5
:10443000184600F0B7FC252000F0EBFB17E07B6886
:104440001B68104A934212D10C4B1B6C0B4A23F48D
:10445000802313644FF498410B4801F0ABFC7B6858
:104460005B6F184600F09EFC272000F0D2FB00BFD7
:104470000837BD4680BD00BF001001400038024033
:1044800000000240004800400004024080B400AF39
:10449000FEE780B400AFFEE780B400AFFEE780B473
:1044A00000AFFEE780B400AFFEE780B400AF00BF0E
:1044B000BD465DF8047B704780B400AF00BFBD46C9
:1044C0005DF8047B704780B400AF00BFBD465DF867
:1044D000047B704780B500AF00F02EFA00BF80BDAE
:1044E00080B500AF024800F0ADFD00BF80BD00BF49
:1044F000DC01002080B500AF024800F0A3FD00BF42
:1045000080BD00BF2C07002080B500AF024800F03E
:1045100099FD00BF80BD00BF3C02002080B500AF08
:10452000024803F0CBFD00BF80BD00BFD8040020CF
:1045300080B500AF2021064801F051FD054B1B68F6
:1045400000225A62034803F0B9FD00BF80BD00BFDE
:10455000000002405C03002080B500AF0121064846
:1045600001F03DFD054B1B6800225A62034803F031
:10457000A5FD00BF80BD00BF00040240A8030020CD
:1045800080B500AF024804F069FB00BF80BD00BFEA
:10459000BC05002080B500AF024804F05FFB00BFFF
:1045A00080BD00BF4406002080B500AF0A4B1B68E9
:1045B0000133094A1360094B00221A60084B1B683B
:1045C0005A6A084B1B681344064A1360044803F0F8
:1045D00075FD00BF80BD00BFF20700203A08002033
:1045E000240500200008002080B500AF034B012205
:1045F0001A70034803F062FD00BF80BD3908002037
:104600007005002080B500AF134B1A68134B1B6870
:104610009A4212D2124B1B881946104B1A680E4B45
:104620001B68D31A03FB01F20E4B1B685200DA62BF
:104630000C4B1B6800225A6208E00B4803F06EFC2A
:10464000084803F06BFC094B01221A60054803F08F
:1046500035FD00BF80BD00BF1008002014080020F9
:10466000E2070020F403002070050020300800203D
:1046700080B500AF0D4B1B7883F00103DBB2002B3C
:1046800005D005220A490B4802F0D4FD04E00522BA
:1046900009490A4802F0CEFD094B1B6800225A6204
:1046A000074803F00BFD00BF80BD00BF7400002071
:1046B0008C070020780100209407002014010020BE
:1046C0008C04002080B500AF024800F0BBFC00BFA6
:1046D00080BD00BF9C02002080B500AF024800F002
:1046E000B1FC00BF80BD00BFFC02002080B500AF60
:1046F000024800F0A7FC00BF80BD00BFCC06002030
:1047000080B586B000AFF860B9607A6000237B6145
:104710000AE0AFF300800146BB685A1CBA60CAB217
:104720001A707B6901337B617A697B689A42F0DB9E
:104730007B6818461837BD4680BD80B586B000AF8F
:10474000F860B9607A6000237B6109E0BB685A1C9D
:10475000BA601B781846FDF7D3FE7B6901337B6195
:104760007A697B689A42F1DB7B6818461837BD4648
:1047700080BD80B483B000AF78604FF0FF3318463F
:104780000C37BD465DF8047B704780B483B000AF42
:10479000786039603B684FF400525A600023184635
:1047A0000C37BD465DF8047B704780B483B000AF22
:1047B0007860012318460C37BD465DF8047B7047CE
:1047C00080B485B000AFF860B9607A600023184605
:1047D0001437BD465DF8047B7047000080B586B095
:1047E00000AF7860144A154BD31A7B617B693B613B
:1047F000134B1B68002B02D1114B124A1A60104B4D
:104800001A687B6813443A699A4207D205F0F2FBB2
:1048100003460C221A604FF0FF3309E0084B1B6877
:10482000FB60074B1A687B681344054A1360FB68FA
:1048300018461837BD4680BD000004200004000063
:10484000DC0800201009002080B400AF064BD3F82C
:104850008830054A43F47003C2F8883000BFBD4673
:104860005DF8047B704700BF00ED00E0DFF834D056
:10487000FFF7EAFF0C480D490D4A002302E0D45827
:10488000C4500433C4188C42F9D30A4A0A4C00239A
:1048900001E013600432A242FBD305F0B1FBFBF749
:1048A00091FE70470000042000000020E800002076
:1048B0005CB10008E800002010090020FEE780B588
:1048C00000AF032000F070F9002000F005F8FFF7BA
:1048D0001DFA0023184680BD80B582B000AF786015
:1048E000124B1A68124B1B7819464FF47A73B3FBBC
:1048F000F1F3B2FBF3F3184600F099F90346002BED
:1049000001D001230EE07B680F2B0AD800227968C2
:104910004FF0FF3000F053F9064A7B681360002324
:1049200000E0012318460837BD4680BD780000200E
:10493000800000207C00002080B400AF064B1B7874
:104940001A46064B1B681344044A136000BFBD4659
:104950005DF8047B704700BF80000020E008002065
:1049600080B400AF034B1B681846BD465DF8047B5E
:10497000704700BFE008002080B584B000AF7860C9
:10498000FFF7EEFFB8607B68FB60FB68B3F1FF3FA9
:1049900005D00A4B1B781A46FB681344FB6000BF26
:1049A000FFF7DEFF0246BB68D31AFA689A42F7D8CF
:1049B00000BF00BF1037BD4680BD00BF8000002093
:1049C00080B485B000AF78607B6803F00703FB60BC
:1049D0000B4BDB68BB60BA684FF6FF031340BB604C
:1049E000FB681A02BB681A43064B1343BB60044AB8
:1049F000BB68D36000BF1437BD465DF8047B7047C9
:104A000000ED00E00000FA0580B400AF044BDB6865
:104A10001B0A03F007031846BD465DF8047B704788
:104A200000ED00E080B483B000AF0346FB7197F95E
:104A30000730002B0BDBFB7903F01F02074997F9C6
:104A400007305B09012000FA02F241F8232000BF81
:104A50000C37BD465DF8047B704700BF00E100E005
:104A600080B483B000AF0346FB7197F90730002B89
:104A700012DBFB7903F01F020A4997F907305B0943
:104A8000012000FA02F2203341F82320BFF34F8FB8
:104A900000BFBFF36F8F00BF00BF0C37BD465DF88E
:104AA000047B704700E100E080B483B000AF0346B0
:104AB0003960FB7197F90730002B0ADB3B68DAB2EB
:104AC0000C4997F907301201D2B20B4483F8002346
:104AD0000AE03B68DAB20849FB7903F00F03043BB4
:104AE0001201D2B20B441A7600BF0C37BD465DF8F6
:104AF000047B704700E100E000ED00E080B489B085
:104B000000AFF860B9607A60FB6803F00703FB61EF
:104B1000FB69C3F10703042B28BF0423BB61FB69B6
:104B20000433062B02D9FB69033B00E000237B61C1
:104B30004FF0FF32BB6902FA03F3DA43BB681A4055
:104B40007B699A404FF0FF317B6901FA03F3D94347
:104B50007B680B40134318462437BD465DF8047B41
:104B60007047000080B582B000AF78607B68013B81
:104B7000B3F1807F01D301230FE00A4A7B68013B38
:104B800053600F214FF0FF30FFF78EFF054B0022DF
:104B90009A60044B07221A60002318460837BD4666
:104BA00080BD00BF10E000E080B582B000AF78604B
:104BB0007868FFF705FF00BF0837BD4680BD80B5A8
:104BC00086B000AF0346B9607A60FB7300237B6157
:104BD000FFF71AFF78617A68B9687869FFF78EFF86
:104BE000024697F90F3011461846FFF75DFF00BFE8
:104BF0001837BD4680BD80B582B000AF0346FB715B
:104C000097F907301846FFF70DFF00BF0837BD467C
:104C100080BD80B582B000AF0346FB7197F90730C5
:104C20001846FFF71DFF00BF0837BD4680BD80B5A1
:104C300082B000AF78607868FFF794FF03461846AB
:104C40000837BD4680BD000080B586B000AF7860F3
:104C500000237B61FFF784FE38617B68002B01D164
:104C6000012399E07B68022283F835207B680022CB
:104C700083F834207B681B681A687B681B6822F005
:104C800001021A600FE0FFF76BFE02463B69D31A80
:104C9000052B08D97B6820225A657B68032283F89C
:104CA0003520032378E07B681B681B6803F0010351
:104CB000002BE8D17B681B681B687B617A69384BE5
:104CC00013407B617B685A687B689B681A437B68EA
:104CD000DB681A437B681B691A437B685B691A436C
:104CE0007B689B691A437B68DB691A437B681B6A94
:104CF00013437A6913437B617B685B6A042B07D19A
:104D00007B68DA6A7B681B6B13437A6913437B61A8
:104D10007B681B687A691A607B681B685B697B61CA
:104D20007B6923F007037B617B685B6A7A691343C5
:104D30007B617B685B6A042B17D17B689B6A7A690D
:104D400013437B617B68DB6A002B0ED0786800F030
:104D500073FB0346002B08D07B6840225A657B68B2
:104D6000002283F83520012316E07B681B687A69EE
:104D70005A61786800F02AFB0346FB607B68DB6DB4
:104D80003F229A40FB689A607B6800225A657B68E4
:104D9000012283F83520002318461837BD4680BD10
:104DA0003F8010E080B584B000AF78607B68002B56
:104DB00001D1012350E07B6893F83530DBB2022B40
:104DC00001D1022348E07B681B681A687B681B6876
:104DD00022F001021A607B681B6800221A607B685F
:104DE0001B6800225A607B681B6800229A607B68FF
:104DF0001B680022DA607B681B6800221A617B68EE
:104E00001B6821225A61786800F0E0FA0346FB60D3
:104E10007B68DB6D3F229A40FB689A607B680022CA
:104E2000DA637B6800221A647B6800225A647B681C
:104E300000229A647B680022DA647B6800221A658B
:104E40007B6800225A657B68002283F835207B68E6
:104E5000002283F83420002318461037BD4680BD59
:104E600080B586B000AFF860B9607A603B6000231F
:104E7000FB75FB689B6D3B61FB6893F83430012B3D
:104E800001D1022348E0FB68012283F83420FB684B
:104E900093F83530DBB2012B37D1FB68022283F85F
:104EA0003520FB6800225A653B687A68B968F86863
:104EB00000F05EFAFB68DB6D3F229A403B699A6026
:104EC000FB681B681A68FB681B6842F016021A60D0
:104ED000FB681B685A69FB681B6842F080025A61D4
:104EE000FB681B6C002B07D0FB681B681A68FB680B
:104EF0001B6842F008021A60FB681B681A68FB68AE
:104F00001B6842F001021A6005E0FB68002283F88A
:104F100034200223FB75FB7D18461837BD4680BD43
:104F200080B584B000AF78607B689B6DFB60FFF755
:104F300017FDB8607B6893F83530DBB2022B08D0E0
:104F40007B6880225A657B68002283F83420012325
:104F500052E07B681B681A687B681B6822F01602A7
:104F60001A607B681B685A697B681B6822F08002A4
:104F70005A617B681B6C002B03D17B689B6C002BF8
:104F800007D07B681B681A687B681B6822F00802E0
:104F90001A607B681B681A687B681B6822F0010234
:104FA0001A6013E0FFF7DCFC0246BB68D31A052B3E
:104FB0000CD97B6820225A657B68032283F8352050
:104FC0007B68002283F83420032315E07B681B688C
:104FD0001B6803F00103002BE4D17B68DB6D3F22EB
:104FE0009A40FB689A607B68012283F835207B68D1
:104FF000002283F83420002318461037BD4680BDB8
:1050000080B483B000AF78607B6893F83530DBB252
:10501000022B04D07B6880225A6501230CE07B6858
:10502000052283F835207B681B681A687B681B683B
:1050300022F001021A60002318460C37BD465DF8C5
:10504000047B704780B586B000AF78600023BB60FA
:105050008E4B1B688E4AA2FB03239B0A7B617B68F5
:105060009B6D3B613B691B68FB607B68DB6D0822C5
:105070009A40FB681340002B1AD07B681B681B68A2
:1050800003F00403002B13D07B681B681A687B684D
:105090001B6822F004021A607B68DB6D08229A40CC
:1050A0003B699A607B685B6D43F001027B685A65DF
:1050B0007B68DB6D01229A40FB681340002B12D005
:1050C0007B681B685B6903F08003002B0BD07B6857
:1050D000DB6D01229A403B699A607B685B6D43F00F
:1050E00002027B685A657B68DB6D04229A40FB688C
:1050F0001340002B12D07B681B681B6803F002036F
:10510000002B0BD07B68DB6D04229A403B699A60D0
:105110007B685B6D43F004027B685A657B68DB6DDE
:1051200010229A40FB681340002B43D07B681B6819
:105130001B6803F00803002B3CD07B68DB6D10225A
:105140009A403B699A607B681B681B6803F4802364
:10515000002B18D07B681B681B6803F40023002B0E
:1051600008D17B681B6C002B24D07B681B6C786893
:1051700098471FE07B689B6C002B1BD07B689B6C67
:105180007868984716E07B681B681B6803F4807397
:10519000002B07D17B681B681A687B681B6822F0AC
:1051A00008021A607B681B6C002B03D07B681B6CA9
:1051B000786898477B68DB6D20229A40FB68134033
:1051C000002B00F08F807B681B681B6803F01003C6
:1051D000002B00F087807B68DB6D20229A403B69C2
:1051E0009A607B6893F83530DBB2052B36D17B684B
:1051F0001B681A687B681B6822F016021A607B68BD
:105200001B685A697B681B6822F080025A617B68C0
:105210001B6C002B03D17B689B6C002B07D07B6839
:105220001B681A687B681B6822F008021A607B689A
:10523000DB6D3F229A403B699A607B68012283F8CC
:1052400035207B68002283F834207B681B6D002B9F
:105250007ED07B681B6D7868984779E07B681B6817
:105260001B6803F48023002B1DD07B681B681B6820
:1052700003F40023002B0DD17B685B6C002B31D035
:105280007B685B6C786898472CE000BF7800002052
:10529000B5814E1B7B68DB6B002B23D07B68DB6BFF
:1052A000786898471EE07B681B681B6803F480736E
:1052B000002B0FD17B681B681A687B681B6822F083
:1052C00010021A607B68012283F835207B68002277
:1052D00083F834207B68DB6B002B03D07B68DB6BAF
:1052E000786898477B685B6D002B32D07B685B6D7C
:1052F00003F00103002B22D07B68052283F83520C0
:105300007B681B681A687B681B6822F001021A60C0
:10531000BB680133BB607A699A4207D37B681B681C
:105320001B6803F00103002BF2D100E000BF7B6893
:10533000012283F835207B68002283F834207B68C3
:10534000DB6C002B05D07B68DB6C7868984700E04D
:1053500000BF1837BD4680BD80B483B000AF786011
:105360007B685B6D18460C37BD465DF8047B704763
:1053700080B485B000AFF860B9607A603B60FB68CC
:105380001B681A68FB681B6822F480221A60FB689D
:105390001B683A685A60FB689B68402B08D1FB6821
:1053A0001B687A689A60FB681B68BA68DA6007E075
:1053B000FB681B68BA689A60FB681B687A68DA60E9
:1053C00000BF1437BD465DF8047B704780B485B0DC
:1053D00000AF78607B681B68DBB2103B134AA2FB0E
:1053E00003231B09FB60124AFB6813441B781A460F
:1053F0007B68DA65FB68032B08D97B681B681A4653
:105400000C4B13401A1D7B689A6506E07B681B688D
:105410001A46084B13407A6893657B689B6D184663
:105420001437BD465DF8047B704700BFABAAAAAA3B
:10543000ACB0000800FCFFFF80B485B000AF78601E
:105440000023FB737B689B6ABB607B689B69002BB6
:105450001FD1BB68032B56D801A252F823F000BF1E
:10546000715400088354000871540008075500085F
:105470007B68DB6A03F08073002B46D00123FB734B
:1054800043E07B68DB6AB3F1C07F40D10123FB734B
:105490003DE07B689B69B3F5005F21D1BB68032BBE
:1054A00037D801A252F823F0B9540008BF540008BD
:1054B000B9540008D15400080123FB7330E07B6825
:1054C000DB6A03F08073002B25D00123FB7322E0FD
:1054D0007B68DB6AB3F1C07F1FD10123FB731CE043
:1054E000BB68022B03D9BB68032B03D018E0012350
:1054F000FB7315E07B68DB6A03F08073002B0ED032
:105500000123FB730BE000BF0AE000BF08E000BF0F
:1055100006E000BF04E000BF02E000BF00E000BF03
:10552000FB7B18461437BD465DF8047B704700BF0F
:1055300080B586B000AFF860B960C7E90023274B9B
:105540001B7D012B01D1022343E0244B01221A755C
:105550004CF2503000F078F80346FB75FB7D002BD1
:1055600033D1FB68032B23D801A252F823F000BFEC
:10557000815500088D55000899550008A55500086B
:105580003B781946B86800F021F912E03B881946CB
:10559000B86800F0F5F80CE03B681946B86800F010
:1055A000C9F806E0D7E90023B86800F08DF800E0FC
:1055B00000BF4CF2503000F047F80346FB75084B33
:1055C0001B69074A23F001031361044B00221A757B
:1055D000FB7D18461837BD4680BD00BFE40800209B
:1055E000003C024080B483B000AF0023FB710B4B42
:1055F0001B69002B0BDA094B094A5A60074B094A11
:105600005A60064B1B69002B01DA0123FB71FB7901
:1056100018460C37BD465DF8047B7047003C0240DD
:1056200023016745AB89EFCD80B400AF054B1B6903
:10563000044A43F00043136100231846BD465DF859
:10564000047B7047003C024080B584B000AF7860B6
:105650000023FB601A4B00229A61FFF781F9F86082
:1056600010E07B68B3F1FF3F0CD07B68002B07D0C4
:10567000FFF776F90246FB68D31A7A689A4201D29C
:10568000032319E00F4BDB6803F48033002BE8D1D0
:105690000C4BDB6803F4F973002B03D000F0BAF86D
:1056A000012309E0074BDB6803F00103002B02D064
:1056B000044B0122DA60002318461037BD4680BD36
:1056C000E4080020003C024080B485B000AFF860E0
:1056D000C7E90023164B1B69154A23F44073136175
:1056E000134B1B69124A43F440731361104B1B693F
:1056F0000F4A43F001031361FB683A681A60BFF375
:105700006F8F00BFD7E900014FF000024FF0000398
:105710000A000023F968043113460B60BFF34F8F72
:1057200000BF00BF1437BD465DF8047B704700BF63
:10573000003C024080B483B000AF786039600F4B0A
:105740001B690E4A23F4407313610C4B1B690B4A0F
:1057500043F400731361094B1B69084A43F00103CA
:1057600013617B683A681A60BFF34F8F00BF00BFB8
:105770000C37BD465DF8047B704700BF003C02401B
:1057800080B483B000AF78600B467B800E4B1B6902
:105790000D4A23F4407313610B4B1B690A4A43F40F
:1057A00080731361084B1B69074A43F001031361BF
:1057B0007B687A881A80BFF34F8F00BF00BF0C3719
:1057C000BD465DF8047B7047003C024080B483B066
:1057D00000AF78600B46FB700D4B1B690C4A23F43D
:1057E000407313610A4B0A4A1B691361084B1B691A
:1057F000074A43F0010313617B68FA781A70BFF31C
:105800004F8F00BF00BF0C37BD465DF8047B70476B
:10581000003C024080B400AF284BDB6803F0020379
:10582000002B05D0264B9B6943F02003244A93614B
:10583000224BDB6803F01003002B05D0204B9B6943
:1058400043F010031E4A93611C4BDB6803F02003F6
:10585000002B05D01A4B9B6943F00803184A93614B
:10586000164BDB6803F04003002B05D0144B9B69FB
:1058700043F00403124A9361104BDB6803F080038A
:10588000002B05D00E4B9B6943F002030C4A936139
:105890000A4BDB6803F48073002B05D0084B9B692F
:1058A00043F04003064A9361044B4FF4F972DA6007
:1058B00000BFBD465DF8047B704700BF003C02405E
:1058C000E408002080B584B000AF78603960002320
:1058D000BB602F4B1B7D012B01D1022353E02C4BCE
:1058E00001221A754CF25030FFF7AEFE0346FB73EF
:1058F000FB7B002B43D13B684FF0FF321A607B6883
:105900001B68012B12D17B68DB68DBB2184600F004
:1059100043F84CF25030FFF797FE0346FB731D4BE4
:105920001B691C4A23F00403136128E07B685B6851
:10593000BB601CE07B68DB68DBB21946B86800F02E
:1059400051F84CF25030FFF77FFE0346FB73114BCA
:105950001B69104A23F07A031361FB7B002B03D0F1
:105960003B68BA681A600AE0BB680133BB607B68B9
:105970009A687B685B681344BA689A42DAD3044B2E
:1059800000221A75FB7B18461037BD4680BD00BF4C
:10599000E4080020003C024080B483B000AF03461E
:1059A000FB710F4B1B690E4A23F4407313610C4BC0
:1059B0001B690B4A43F004031361094B1A69FB7915
:1059C0001B021343064A43F480331361BFF34F8F26
:1059D00000BF00BF0C37BD465DF8047B704700BFB9
:1059E000003C024080B485B000AF78600B46FB708D
:1059F0000023FB60FB78002B02D10023FB6010E04A
:105A0000FB78012B03D14FF48073FB6009E0FB7836
:105A1000022B03D14FF40073FB6002E04FF440739C
:105A2000FB60154B1B69144A23F440731361124B3E
:105A30001A691149FB6813430B610F4B1B690E4A2E
:105A400023F0F80313610C4B1A697B68DB001343E6
:105A5000094A43F002031361074B1B69064A43F4EA
:105A600080331361BFF34F8F00BF00BF1437BD46B3
:105A70005DF8047B704700BF003C024080B489B0F1
:105A800000AF786039600023FB6100237B61002355
:105A90003B610023BB610023FB6169E10122FB69DB
:105AA00002FA03F37B613B681B687A6913403B6130
:105AB0003A697B699A4240F058813B685B6803F021
:105AC0000303012B05D03B685B6803F00303022B43
:105AD00030D17B689B68BB61FB695B00032202FAE3
