:020000040800F2
:100000000000042089400008893D00088F3D000859
:10001000953D00089B3D0008A13D00080000000040
:10002000000000000000000000000000A73D0008E4
:10003000B53D000800000000C33D0008D13D0008A8
:10004000D9400008D9400008D9400008D94000082C
:10005000D9400008D9400008D9400008D94000081C
:10006000D9400008D9400008D9400008DD3D00080B
:10007000F13D0008D9400008053E0008D9400008BD
:10008000193E0008D9400008D9400008D9400008AE
:10009000D9400008D9400008D9400008D9400008DC
:1000A000D94000082D3E0008D9400008D94000087A
:1000B000413E0008553E0008D9400008D9400008DC
:1000C000D9400008D9400008D9400008D9400008AC
:1000D000D9400008693E0008D94000087D3E00086C
:1000E000D9400008D9400008D9400008D94000088C
:1000F000D9400008913E0008D9400008D9400008C6
:10010000D9400008D9400008A53E0008D9400008A1
:10011000D9400008D9400008D9400008B93E00087D
:10012000CD3E0008E13E0008F53E0008D940000839
:10013000D94000080000000000000000000000009E
:10014000000000000000000000000000D94000088E
:10015000D9400008D9400008093F0008D9400008EC
:10016000D9400008D9400008D9400008D94000080B
:10017000D9400008D940000800000000000000003D
:10018000D9400008D9400008D9400008D9400008EB
:10019000D9400008D940000800000000D9400008FC
:1001A000000000000000000000000000D94000082E
:1001B000D9400008D94000080000000000000000FD
:1001C000000000000000000000000000000000002F
:1001D000000000000000000000000000D9400008FE
:1001E00010B5054C237833B9044B13B10448AFF371
:1001F00000800123237010BDEC00002000000000EF
:1002000070A2000808B5034B1BB103490348AFF3C4
:10021000008008BD00000000F000002070A200086F
:1002200053B94AB9002908BF00281CBF4FF0FF315D
:100230004FF0FF3000F074B9ADF1080C6DE904CE59
:1002400000F006F8DDF804E0DDE9022304B07047B1
:100250002DE9F047089D04468E46002B4DD18A4279
:10026000944669D9B2FA82F252B101FA02F3C2F1AC
:10027000200120FA01F10CFA02FC41EA030E94403D
:100280004FEA1C48210CBEFBF8F61FFA8CF708FB5E
:1002900016E341EA034306FB07F199420AD91CEB36
:1002A000030306F1FF3080F01F81994240F21C8168
:1002B000023E63445B1AA4B2B3FBF8F008FB1033B0
:1002C00044EA034400FB07F7A7420AD91CEB0404E5
:1002D00000F1FF3380F00A81A74240F207816444B5
:1002E000023840EA0640E41B00261DB1D44000233A
:1002F000C5E900433146BDE8F0878B4209D9002D9E
:1003000000F0EF800026C5E9000130463146BDE827
:10031000F087B3FA83F6002E4AD18B4202D3824291
:1003200000F2F980841A61EB030301209E46002D40
:10033000E0D0C5E9004EDDE702B9FFDEB2FA82F295
:10034000002A40F09280A1EB0C014FEA1C471FFAF3
:100350008CFE0126200CB1FBF7F307FB131140EADA
:1003600001410EFB03F0884208D91CEB010103F1A7
:10037000FF3802D2884200F2CB804346091AA4B269
:10038000B1FBF7F007FB101144EA01440EFB00FE3D
:10039000A64508D91CEB040400F1FF3102D2A645A2
:1003A00000F2BB800846A4EB0E0440EA03409CE741
:1003B000C6F12007B34022FA07FC4CEA030C20FAEE
:1003C00007F401FA06F31C43F9404FEA1C4900FA0E
:1003D00006F3B1FBF9F8200C1FFA8CFE09FB18118B
:1003E00040EA014108FB0EF0884202FA06F20BD9FE
:1003F0001CEB010108F1FF3A80F08880884240F24E
:100400008580A8F102086144091AA4B2B1FBF9F091
:1004100009FB101144EA014100FB0EFE8E4508D98C
:100420001CEB010100F1FF346CD28E456AD9023811
:10043000614440EA0840A0FB0294A1EB0E01A142F6
:10044000C846A64656D353D05DB1B3EB080261EB64
:100450000E0101FA07F722FA06F3F1401F43C5E93E
:10046000007100263146BDE8F087C2F12003D84074
:100470000CFA02FC21FA03F3914001434FEA1C47B6
:100480001FFA8CFEB3FBF7F007FB10360B0C43EAA8
:10049000064300FB0EF69E4204FA02F408D91CEB58
:1004A000030300F1FF382FD29E422DD90238634456
:1004B0009B1B89B2B3FBF7F607FB163341EA0341F6
:1004C00006FB0EF38B4208D91CEB010106F1FF3845
:1004D00016D28B4214D9023E6144C91A46EA00463C
:1004E00038E72E46284605E70646E3E61846F8E6CE
:1004F0004B45A9D2B9EB020864EB0C0E0138A3E717
:100500004646EAE7204694E74046D1E7D0467BE7F7
:10051000023B614432E7304609E76444023842E76F
:10052000704700BF80B582B000AF03F0D6FD00F089
:1005300033F900F085FC00F021FC00F0EDFB00F049
:10054000B3FB00F0D5F900F095F900F00FFA00F0D8
:100550005BFA00F0F5FA00F029FB00F05DFB00F01B
:10056000A1FA00F07DFB734807F086F9724807F0A6
:1005700073F84FF47A7003F00DFE06226F4970484D
:1005800007F0A4FE05226F496F4806F061FA0522C4
:100590006E496F4806F05CFA01F0C8FF6D4B1A68AF
:1005A000022302216C4802F021F86B4B1B686B4A56
:1005B0001360694B5B686A4A13606A4B01221A70C8
:1005C000694B1B78002B01D000F0C8FC674B1B78EF
:1005D000002B4BD002F002F9654B1B78012B0BD09E
:1005E000634B1B78022B07D0614B1B78032B03D086
:1005F0005F4B1B78042B36D15E4B1B78002B32D01F
:100600000023FB7110E0FB795B4A127811465B4ACC
:10061000D25C5B4B5A54FB790133FB71564B1B7810
:100620000133DAB2544B1A70FB79022BEBD9514BE0
:1006300000221A70534B1B780133DAB2514B1A70F7
:10064000514B1B8801339AB24F4B1A804D4B1B788C
:100650000A2B08D14B4B00221A70474B01221A700B
:100660004A4B01221A70414B00221A70484B1B78EA
:10067000002B2CD03E4B1B78013B082B23D801A22A
:1006800052F823F0BB060008C1060008C7060008A0
:10069000C7060008C7060008AF060008C70600081E
:1006A000A9060008B506000802F004F90CE002F003
:1006B000A1F909E002F048F906E002F0E1F903E0EF
:1006C00002F0DEF900E000BF314B00221A70314B1E
:1006D0001B78002B3FF474AF254B1B78013B082B94
:1006E00023D801A252F823F01F07000825070008AD
:1006F0002B0700082B0700082B070008130700082A
:100700002B0700080D0700081907000802F0D2F8AF
:100710000CE002F06FF909E002F016F906E002F0D1
:10072000F1FA03E002F030FC00E000BF194B0022B8
:100730001A7045E76003002044040020C40800202C
:10074000FC050020040800207C0100200C0800208B
:10075000180100207400002068080020980800207C
:100760009C080020EF080020EA080020E90800208B
:10077000F00800207808002005000020E408002090
:1007800038080020590800205A080020F2080020EC
:10079000EB080020EC08002080B594B000AF07F112
:1007A000200330220021184609F05CF807F10C0301
:1007B00000221A605A609A60DA601A612B4B1B6C37
:1007C0002A4A43F080531364284B1B6C03F0805378
:1007D000BB60BB68264B1B6823F44043244A43F4A8
:1007E00080431360224B1B6803F440437B607B68AB
:1007F00001233B624FF480337B620223BB634FF4DF
:100800008003FB6308233B64D8237B640223BB641F
:100810000223FB6407F12003184605F059F803464C
:10082000002B01D002F092FE05F002F80346002BE7
:1008300001D002F08BFE0F23FB6002233B610023FB
:100840007B614FF48053BB614FF48053FB6107F130
:100850000C030321184605F0DFFA0346002B01D0F4
:1008600002F074FE00BF5037BD4680BD0038024024
:100870000070004080B500AF1B4B1C4A1A601A4B39
:100880004FF482725A60184B00229A60164B4FF454
:10089000E062DA60144B02221A61134B00225A61A3
:1008A000114B4FF400729A610F4B3822DA610E4BF4
:1008B00000221A620C4B00225A620B4B00229A62F1
:1008C000094B0722DA62084B00221A63064B082202
:1008D0005A63054806F010F80346002B01D002F0D9
:1008E00035FE00BF80BD00BF18010020003C004065
:1008F00080B500AF1B4B1C4A1A601A4B4FF4827232
:100900005A60184B00229A60164B4FF4E062DA608E
:10091000144B02221A61134B00225A61114B4FF4FF
:1009200000729A610F4B3822DA610E4B00221A6274
:100930000C4B00225A620B4B00229A62094B072291
:10094000DA62084B00221A63064B08225A630548F4
:1009500005F0D2FF0346002B01D002F0F7FD00BFE7
:1009600080BD00BF7C0100200034014080B588B00C
:1009700000AF07F1100300221A605A609A60DA6033
:100980003B1D00221A605A609A601E4B4FF0804255
:100990001A601C4B6B225A601A4B00229A60194B4A
:1009A00043F67F62DA60174B00221A61154B002272
:1009B0009A61144806F0F8FD0346002B01D002F0BE
:1009C000C5FD4FF480533B6107F1100319460D48F4
:1009D00007F08AF80346002B01D002F0B7FD002390
:1009E0007B600023FB603B1D1946064807F0AEFA0A
:1009F0000346002B01D002F0A9FD00BF2037BD4601
:100A000080BD00BF6003002080B588B000AF07F153
:100A1000100300221A605A609A60DA603B1D0022BF
:100A20001A605A609A601D4B1D4A1A601B4B6B225C
:100A30005A601A4B00229A60184B43F67F62DA60C4
:100A4000164B00221A61154B00229A61134806F0DA
:100A5000ABFD0346002B01D002F078FD4FF480532C
:100A60003B6107F1100319460C4807F03DF80346B7
:100A7000002B01D002F06AFD00237B600023FB60A5
:100A80003B1D1946054807F061FA0346002B01D0CB
:100A900002F05CFD00BF2037BD4680BDAC030020E6
:100AA0000004004080B588B000AF07F110030022B9
:100AB0001A605A609A60DA603B1D00221A605A6020
:100AC0009A601D4B1D4A1A601B4B6B225A601A4BD1
:100AD00000229A60184B4FF0FF32DA60164B00226A
:100AE0001A61154B00229A61134806F05DFD03461A
:100AF000002B01D002F02AFD4FF480533B6107F137
:100B0000100319460C4806F0EFFF0346002B01D0F6
:100B100002F01CFD00237B600023FB603B1D194697
:100B2000054807F013FA0346002B01D002F00EFD32
:100B300000BF2037BD4680BDF8030020000C0040F8
:100B400080B584B000AF3B1D00221A605A609A60E5
:100B5000144B154A1A60134B6B225A60114B00223A
:100B60009A60104B4FF6FF72DA600E4B00229A61CA
:100B70000C4806F019FD0346002B01D002F0E6FCFC
:100B800000237B600023FB603B1D1946054807F0EE
:100B9000DDF90346002B01D002F0D8FC00BF10376E
:100BA000BD4680BD440400200010004080B584B0E4
:100BB00000AF3B1D00221A605A609A60144B154A20
:100BC0001A60134B6B225A60114B00229A60104B33
:100BD0006322DA600E4B00229A610D4806F0E4FCB5
:100BE0000346002B01D002F0B1FC00237B60002300
:100BF000FB603B1D1946064807F0A8F90346002B89
:100C000001D002F0A3FC00BF1037BD4680BD00BF7D
:100C1000900400200014004080B500AF0E4B0F4A36
:100C20001A600D4B42F62F225A600B4B00229A603D
:100C3000094B41F63F72DA60074B00221A61064BFE
:100C400000229A61044806F0AFFC0346002B01D055
:100C500002F07CFC00BF80BDDC04002000440140A9
:100C600080B500AF0E4B0F4A1A600D4B45F25F4244
:100C70005A600B4B00229A60094B4FF6FF72DA6004
:100C8000074B00221A61064B00229A61044806F0C5
:100C90008BFC0346002B01D002F058FC00BF80BD46
:100CA000280500200020004080B500AF184B1B68CD
:100CB0009A68174B1B6842F001029A60144B154A60
:100CC0001A60134B4FF416425A60114B00229A607F
:100CD0000F4B0022DA600E4B00221A610C4B0C22E3
:100CE0005A610B4B00229A61094B0022DA61084BD2
:100CF00000221A62064B00225A62054807F0D2F918
:100D00000346002B01D002F021FC00BF80BD00BFD4
:100D1000740500200010014080B500AF154B164A45
:100D20001A60144B4FF416425A60124B00229A601C
:100D3000104B0022DA600F4B00221A610D4B0C227F
:100D40005A610C4B00229A610A4B0022DA61094B6E
:100D500000221A62074B00225A620023002200215F
:100D6000044808F0EDFC0346002B01D002F0EEFB36
:100D700000BF80BDFC0500200048004080B582B067
:100D800000AF2E4B1B6B2D4A43F4001313632B4B08
:100D90001B6B03F400137B607B68284B1B6B274A9B
:100DA00043F480031363254B1B6B03F480033B6008
:100DB0003B68002200210B2003F00FFB0B2003F007
:100DC00028FB002200210C2003F007FB0C2003F07D
:100DD00020FB002200210E2003F0FFFA0E2003F07A
:100DE00018FB00220021102003F0F7FA102003F076
:100DF00010FB00220021382003F0EFFA382003F026
:100E000008FB00220021392003F0E7FA392003F023
:100E100000FB002200213A2003F0DFFA3A2003F021
:100E2000F8FA00220021462003F0D7FA462003F00A
:100E3000F0FA00BF0837BD4680BD00BF0038024051
:100E400080B58AB000AF07F1140300221A605A601F
:100E50009A60DA601A613D4B1B6B3C4A43F0100309
:100E600013633A4B1B6B03F010033B613B69374B39
:100E70001B6B364A43F080031363344B1B6B03F048
:100E80008003FB60FB68314B1B6B304A43F001036E
:100E900013632E4B1B6B03F00103BB60BB682B4B32
:100EA0001B6B2A4A43F004031363284B1B6B03F0AC
:100EB00004037B607B68254B1B6B244A43F00203D1
:100EC0001363224B1B6B03F002033B603B68002261
:100ED0004FF407611E4804F077FC002220211D48D2
:100EE00004F072FC002203211B4804F06DFC4FF457
:100EF00007637B610123BB610023FB6100233B622D
:100F000007F114031946124804F0C6F920237B6147
:100F10000123BB610023FB6100233B6207F1140343
:100F200019460C4804F0B8F903237B610123BB6127
:100F30000023FB6100233B6207F1140319460648B6
:100F400004F0AAF900BF2837BD4680BD0038024032
:100F500000000240000802400004024080B584B056
:100F600000AFB04B1B78013B1F2B00F2AB8601A2F8
:100F700052F823F0F50F0008B51200084B100008D6
:100F8000C51C0008311600089B160008C51C000887
:100F90002117000873180008C3180008F11800088A
:100FA000FD180008C51C00080F1900085919000891
:100FB000711900084D1A0008791A0008ED1A000886
:100FC000251B0008811B0008C51C0008AB1B00087E
:100FD000C51B0008671C0008C51C0008C51C0008CC
:100FE000C51C0008C51C0008C51C0008C51C00085D
:100FF000A51C000805228C498C4805F029FD052216
:101000008B498C4805F024FD8B4B1B7883F0010342
:10101000DBB2002B13D005228849894807F056F926
:1010200001224FF40061874804F0CEFB642001F0F8
:10103000BBFB00224FF40061824804F0C5FB002195
:10104000012001F021F900F03DBE0121032001F053
:101050001BF97D4B00221A807C4B00221A80764BB4
:1010600000221A707A4B00221A707A4B00221A70F2
:10107000794B6C4A92E80300186004331980764B70
:101080005B78013B754A13441B7AB43B002BB8BF15
:101090005B421AB2724B1A806F4B9B78013B6F4ACE
:1010A00013441B7A9BB2B4339BB21AB26D4B1A80B5
:1010B000694BDB78013B6C4A083332F813206B4BE9
:1010C0001A80674BB3F90030042B11DC644BB3F981
:1010D0000030053B002BB8BF5B429AB2644B1A80CC
:1010E000634B1B88C3F5B4739AB2614B1A8007E057
:1010F0005B4BB3F900309BB2053B9AB25C4B1A8054
:101100005C4B00221A705C4B00221A705B4B002271
:101110001A705B4B00221A705A4B00221A705A4BFD
:1011200000221A70524B1B885B04584A82FB031240
:101130001A441212DB17D31A1A46554B1A60544B35
:101140001B68434A12781146184601F0A3F903467A
:101150004F4A13603E4B1B784D4A126811461846A1
:1011600000F054FE3E4BB3F900305B04474A82FB6B
:1011700003121A441212DB17D31A1A46454B1A608F
:10118000444B1B68324A12781146184601F082F926
:101190000346404A1360354B1B881A463D4B1B687B
:1011A0001344B3F5003F0AD9304B1B881A46394B1C
:1011B0001B681344A3F50033374A136007E02B4B39
:1011C0001B881A46334B1B681344334A1360254B64
:1011D000B3F900305B042D4A82FB03121A44121249
:1011E000DB17D31A1A462D4B1A602C4B1B68184A72
:1011F00012781146184601F04DF90346274A13604C
:10120000274B02221A70274B02221A70264B01220A
:101210001A70264806F0B8FA254806F0B5FA00F02C
:1012200051BD00BFC4080020040800207C0100203C
:101230000C0800201801002070080020D4080020AD
:1012400074050020000002405A0800205C080020BD
:1012500078000020F2080020CC08002008000020C0
:10126000BC080020BE08002018000020B80800209C
:10127000C0080020720800207408002073080020B5
:10128000750800207608002077080020B7600BB6AC
:101290009008002080080020000900208808002015
:1012A000F0080020EF080020F10800209004002042
:1012B000600300200121022000F0E6FF794B0022AC
:1012C0001A80794B00221A80784B00221A80784BC2
:1012D00000221A80774B00221A80774B00221A7066
:1012E000764B1B78002B14BF01230023DAB2744B1A
:1012F0001A70744B00221A70734B744A92E8030000
:10130000186004331980704B5B78013B704A1344BA
:101310001B7AB43B002BB8BF5B421AB2614B1A80F8
:10132000694B9B78013B6A4A13441B7A9BB2B433E6
:101330009BB21AB25C4B1A805A4BB3F90030042BA3
:1013400011DC584BB3F90030053B002BB8BF5B42B2
:101350009AB2564B1A80554B1B88C3F5B4739AB298
:10136000524B1A8007E04F4BB3F900309BB2053B5C
:101370009AB24E4B1A80574B00221A70564B0022DD
:101380001A70564B00221A704D4B1B7883F00103E4
:10139000DBB2002B00F0BA804B4BDB78013B504AAC
:1013A000083332F813204F4B1A80404B1B885B04E4
:1013B0004D4A82FB03121A441212DB17D31A1A4643
:1013C0004A4B1A60494B1B683D4A12781146184631
:1013D00001F060F80346454A1360394B1B78434AD5
:1013E00012681146184600F011FD2E4BB3F900307B
:1013F0005B043D4A82FB03121A441212DB17D31A14
:101400001A463B4B1A603A4B1B682D4A127811461C
:10141000184601F03FF80346354A1360314B1B88EC
:101420001A46334B1B681344B3F5003F0AD92D4BC2
:101430001B881A462E4B1B681344A3F500332D4A14
:10144000136007E0274B1B881A46294B1B6813447F
:10145000284A1360144BB3F900305B04224A82FB24
:1014600003121A441212DB17D31A1A46224B1A60BF
:10147000214B1B68124A12781146184601F00AF8EF
:1014800003461D4A13601D4B01221A701C4B022299
:101490001A701C4806F078F91B4806F075F900F040
:1014A0000EBC00BFBC080020BE080020C008002001
:1014B0005A0800205C08002070080020F308002073
:1014C00078000020F2080020CC080020C40800208A
:1014D0000800002072080020740800207308002013
:1014E00018000020B8080020B7600BB69008002054
:1014F000800800200009002088080020F008002053
:10150000EF0800209004002060030020A24B1B780D
:10151000002B00F0D483A14BDB78013BA04A0833B9
:1015200032F813209F4B1A809F4B1B885B049F4A05
:1015300082FB03121A441212DB17D31A1A469C4B71
:101540001A609B4B1B68944A12781146184600F0AB
:10155000A1FF0346964A13608F4B1B78944A12688A
:101560001146184600F052FC924BB3F900305B0470
:101570008E4A82FB03121A441212DB17D31A1A4640
:101580008D4B1A608C4B1B68834A127811461846A3
:1015900000F080FF0346884A1360824B1B881A467E
:1015A000854B1B681344B3F5003F0AD97D4B1B885C
:1015B0001A46814B1B681344A3F500337F4A13601E
:1015C00007E0784B1B881A467B4B1B6813447B4A09
:1015D00013607B4BB3F900305B04744A82FB031247
:1015E0001A441212DB17D31A1A46764B1A60754B3F
:1015F0001B68694A12781146184600F04BFF0346F3
:10160000704A13606F4B1A686B4B1B689A4202D288
:101610006D4B01221A706D4B01221A706C4B022225
:101620001A706C4806F0B0F86B4806F0ADF846E367
:101630005A4B6A4A92E803001860043319806848DC
:1016400006F07AF8554B5B785A1E654B1B68654966
:1016500051F82220DA62624B1B6800225A6262480B
:1016600006F06AF84D4B5B78013B604A32F8132074
:101670005D4B1B68DA625C4B1B6800225A620121D9
:10168000052000F001FE514B04221A70544806F068
:101690007BF8554806F078F814E30121062000F0A5
:1016A000F3FD4A4B06221A70494B01221A70504B27
:1016B0001B881A46384B1B781946104600F0EAFE84
:1016C00003464C4A13604B4B1B684B4A13604A4B12
:1016D0001B6803F59673B3F5003F06D9464B1A68AD
:1016E000464B1344444A136005E0434B1B6803F523
:1016F0009673414A1360424B00221A700022102157
:10170000404804F061F83C4B1B681946002000F08B
:101710007DFB304806F038F83B4806F035F8D1E25A
:101720000121082000F0B0FD0023FB802B4BDB786B
:10173000002B6DD0354B00221A60174B01221A7016
:10174000264B9B789BB21B02FB80244B5B789AB2A2
:10175000FB881343FB80FB885B04144A82FB031263
:101760001A441212DB17D31A1A46284B1A60274B59
:101770001B68094A12781146184600F08BFE034692
:10178000224A1360044B1B78204A126811461846FF
:1017900000F03CFB96E200BF78000020CC0800205F
:1017A00018000020BA080020C0080020B7600BB65F
:1017B00094080020BC0800208408002004090020B0
:1017C000BE0800208C0800207C080020F0080020C3
:1017D000EF08002090040020AC030020C408002083
:1017E000F803002038000020280500205C000020BD
:1017F0007A080020A0080020B00800202C01FEFF7D
:101800007D0800200000024060030020AC0800209A
:10181000A14B00221A60A14B00221A70A04B9B78AA
:101820009BB21B02FB809E4B5B789AB2FB881343F2
:10183000FB80FB885B049B4A82FB03121A44121252
:10184000DB17D31A1A46944B1A60934B1B68934AC2
:1018500012781146184600F01DFE03468E4A1360AA
:101860008E4B1B788C4A12681146184600F0CEFA4F
:1018700028E28B4B5B78002B14BF01230023DAB2E4
:10188000864B1A700121092000F0FEFC864B0122D4
:101890001A70864B09221A70854B01221A70804BF0
:1018A0005B78002B06D1834805F06EFF824805F077
:1018B0006BFF07E27F4805F067FF804805F064FF93
:1018C00000E27F4B764A92E80300186004331980E7
:1018D00001210A2000F0D8FC794B5B78002B03D063
:1018E000784B01221A70EDE1764B00221A70E9E183
:1018F00000F084FD744B00221A70E3E100F0B6FFA3
:10190000694B01221A70714B00221A70DAE1644BA4
:101910009B78002B0DD06E4B00221A7001221021F3
:101920006C4803F051FF012220216B4803F04CFF6B
:101930000CE0674B01221A7000221021654803F069
:1019400043FF00222021644803F03EFF544B5B78A4
:10195000184600F0EFF9B5E1504B1B78002B40F032
:10196000B081544805F010FF534805F00DFFA8E181
:101970000121102000F088FC4C4B08221A70574BB4
:1019800000221A60464B9B781B021A46534B1A6082
:10199000434B5B781A46514B1B6813434F4A136005
:1019A0003E4B1B78002B29D04D4B00221A603C4B3C
:1019B000DB78002B13D1494B1B685B04DB08494AD9
:1019C000A2FB03239B08BB60454B1B68334A12787C
:1019D0001146184600F05EFD0346414A13602F4B46
:1019E0001B783F4A12681146184600F00FFA31483A
:1019F00005F0CAFE314805F0C7FE63E13A4B00220C
:101A00001A60274BDB78002B11D1344B1B685B0429
:101A1000DB08344AA2FB03239B08BB601F4B1B78E7
:101A20001946B86800F036FD03462F4A13601B4B79
:101A30001B782D4A12681146184600F0E7F91D4838
:101A400005F0A2FE1C4805F09FFE3BE1012111209C
:101A500000F01AFC114B1B78002B06D0174805F03C
:101A60000BFF144805F008FF2CE1134805F004FFB4
:101A7000104805F001FF25E10121122000F004FCCF
:101A8000074B5B78002B03D0044B01221A7019E13D
:101A9000024B00221A7015E1A808002078000020EF
:101AA000C4080020B7600BB6EF080020F008002043
:101AB000F10800209004002060030020AC03002007
:101AC000CC080020F3080020F20800207108002054
:101AD000ED0800200000024000080240B408002089
:101AE000A4080020176CC116A008002001211320B3
:101AF00000F0CAFB774B1B68774A1360774B1B6873
:101B0000774A1360744B1B68764A1360744B1B68EA
:101B1000744A5360744B1A6802230221714800F022
:101B20001BFDCFE00121142000F0AEFB6F4B012222
:101B30001A706F4B5B78184600F0C8FD03461A46D2
:101B40006C4B1A706A4B9B78012B06D1694B1B7842
:101B500063F07703DAB2674B1A70664B1A78654BFD
:101B60005A70654806F0F6FB642301226149624819
:101B700006F023FB052261495F4806F0A7FBA1E0C0
:101B800005225F495C4806F0A1FB01224FF4006189
:101B90005C4803F019FE012002F0FCFA00224FF429
:101BA0000061584803F010FE8CE04F4B1A68022386
:101BB00002214C4800F01AFD4F4806F0C1FAFFF729
:101BC00073F87FE0504B1B7883F00103DBB2002BEE
:101BD00024D0012210214B4803F0F6FD4B4B00228C
:101BE0001A7001222021474803F0EEFD642002F024
:101BF000D1FA00222021434803F0E6FD05224449A2
:101C0000444804F025FF0021012000F03DFB3F4B3C
:101C10001B780133DAB23D4B1A70E2E70122202132
:101C20003D4803F0D1FD394B00221A7001220121F9
:101C30003A4803F0C9FD642002F0ACFA0022012109
:101C4000364803F0C1FD05223549364804F000FF4F
:101C50000021012000F018FB2C4B1B780133DAB275
:101C60002A4B1A70E2E7284B1B7883F00103DBB2A2
:101C7000002B0BD005222649264804F0E9FE6423F8
:101C800005222349284806F098FA1BE0052224493A
:101C9000244804F0DDFE642305222149224806F091
:101CA0008CFA0FE00023FB6002E0FB680133FB606D
:101CB000FB68812BF9DD1D4807F04AFE02E000BFFA
:101CC00000E000BF1A4B00221A7000BF1037BD465B
:101CD00080BD00BFF808002098080020FC08002004
:101CE0009C08002068080020740000207008002074
:101CF000C4080020600800207405002000000020B7
:101D0000D408002000000240780000206508002070
:101D1000040800207C01002000080240000402406A
:101D20000C08002018010020FC05002088A20008F3
:101D3000EA08002080B584B000AF0346FB712A4B4F
:101D40001B7883F00103DBB2002B29D00023FB605A
:101D500021E001222021254803F036FD022002F077
:101D600019FA00222021214803F02EFD022002F062
:101D700011FA20211D4803F040FD05221C491D4891
:101D800004F066FE6423052219491B4806F015FA83
:101D9000FB680133FB60FB79FA689A42D9DB1BE0F0
:101DA0000023BB6014E00121144803F026FD042049
:101DB00002F0F0F905221249124804F049FE6423AA
:101DC00005220F490C4806F0F8F9BB680133BB60E7
:101DD000FB79BA689A42E6DB0B4B00221A7000BF0F
:101DE0001037BD4680BD00BF7800002000000240D3
:101DF000040800207C010020FC05002000040240B3
:101E00000C080020180100206408002080B582B072
:101E100000AF03463960FB71FB7983F00103DBB24D
:101E2000002B40D0424B1B683A689A421DD2404B6F
:101E30001A683B68D21A3E4B1B683968CB1A03F507
:101E400000339A4208D9012210213A4803F0BCFC21
:101E5000394B00221A7066E000221021354803F049
:101E6000B3FC354B01221A705DE0314B1A683B68B8
:101E7000D31A03F500322E4B1B683968CB1A9A42ED
:101E800008D2002210212B4803F09EFC2A4B01228D
:101E90001A7048E001221021264803F095FC264BD9
:101EA00000221A703FE0254B1B683A689A421DD207
:101EB000224B1A683B68D21A204B1B683968CB1A30
:101EC00003F500339A4208D9012220211C4803F06F
:101ED0007BFC1C4B00221A7025E0002220211848B0
:101EE00003F072FC174B01221A701CE0134B1A68A6
:101EF0003B68D31A03F50032104B1B683968CB1AC4
:101F00009A4208D2002220210D4803F05DFC0D4BBF
:101F100001221A7007E001222021094803F054FC35
:101F2000084B00221A7000BF0837BD4680BD00BFB5
:101F3000F808002000000240ED080020FC08002006
:101F400000080240EE08002080B582B000AF786043
:101F5000391D4FF6FF730122034806F02EF97B6806
:101F600018460837BD4680BDFC05002080B485B00A
:101F700000AF78607B681B68224A934202D1224BF3
:101F800001221A707B681B68204A934234D1204B8F
:101F90001B78002B2DD00023FB601E4B1B781A46AC
:101FA0001C4B5B7813441B4A92781344FB60FB681C
:101FB000DBB2FB60174BDB781A46FB68934203D118
:101FC000144B1B79A52B03D0134B00221A700DE084
:101FD000104B1A78114B1B781B09DBB29A4205D0C3
:101FE0000D4B00221A700E4B01221A70084B002272
:101FF0001A700C4B01221A7000BF1437BD465DF8F1
:10200000047B704700480040EA08002000100140AF
:102010007008002000000020EF0800206008002069
:1020200071080020E908002080B483B000AF786018
:102030007B681B68234A93421CD1234B9B785B0926
:10204000DBB203F00703214A13601F4B5B78DA0011
:102050001E4B1B6813431D4A13601B4B1B78DB028E
:1020600003F4FC32194B1B681343184A1360184BD6
:1020700001221A707B681B68164A93421CD1164BCA
:102080009B785B09DBB203F00703144A1360124B21
:102090005B78DA00114B1B681343104A13600E4B38
:1020A0001B78DB0203F4FC320C4B1B6813430B4A16
:1020B00013600B4B01221A7000BF0C37BD465DF850
:1020C000047B70470034014004080020F808002019
:1020D000EB080020003C00400C080020FC08002019
:1020E000EC08002080B582B000AF78607B681B6888
:1020F000B3F1804F07D12021474803F07EFB474BC7
:102100001B6800225A627B681B68454A934207D1CC
:102110000121444803F071FB434B1B6800225A62C3
:102120007B681B68414A934215D1414B1B7883F071
:102130000103DBB2002B05D005223E493E4804F0E6
:1021400087FC04E005223D493D4804F081FC3D4BFD
:102150001B6800225A627B681B683B4A934206D187
:102160003A4805F0E9FA394B1B6800225A627B684D
:102170001B68374A93422BD1364805F0DDFA364BBF
:102180001B78002B0FD0344B1B781A465200134497
:10219000DBB20133DBB21A462121304800F078FA75
:1021A0002F4B01221A702C4B00221A702D4B01224A
:1021B0001A702D4B00221A702C4B00221A702C4BD7
:1021C00001221A702B4B00221A702B4805F0B4FA2A
:1021D0007B681B68294A93421AD10522284929485D
:1021E00006F074F801224FF400610B4803F0ECFA9A
:1021F000204B01221A70022000F0D6FA00224FF480
:102200000061054803F0E0FA124B1B6800225A6295
:1022100000BF0837BD4680BD0000024060030020BB
:102220000004004000040240AC0300200014004001
:1022300078000020040800207C0100200C08002009
:10224000180100209004002000440140DC0400201C
:10225000000C004028050020590800203808002004
:10226000F208002005000020F0080020700800207F
:10227000EF08002078080020F8030020002000402C
:10228000D40800207405002080B584B000AF034658
:102290000A46FB711346BB714C4B00221A80FB7936
:1022A000012B77D14A4B01221A704A4B1A78484BBE
:1022B0005A70494B1A78464B9A70484B1B781A460D
:1022C000434BDA70464B1A78414B1A71454B1A78DA
:1022D0003F4B5A71444B1A783D4B9A71424B5A7896
:1022E0003B4BDA71404B9A78394B1A723F4B1B6863
:1022F000DAB2374B5A723D4B1B681B0ADAB2344BC9
:102300009A723A4B1B681B0CDAB2314BDA72384BBB
:102310001B68DAB22E4BDA73354B1B681B0ADAB234
:102320002B4B1A74324B1B681B0CDAB2284B5A74B5
:10233000274B0022DA77264B002283F82020002347
:10234000FB6016E0224AFB6813441B789AB2FB68D4
:1023500001331F49CB5C9BB21B029BB213449AB260
:102360001A4B1B8813449AB2184B1A80FB6802332D
:10237000FB60FB681D2BE5DD154B9B7F9AB2134B71
:102380001B8813449AB2114B1A801A4B0F4A1288B9
:102390001A8010E021210E4800F05EF90C4AFB790A
:1023A00013700B4ABB795370094AFB79D377084AFB
:1023B000BB7982F820306423212205490E4805F0BC
:1023C000FCFE00BF1037BD4680BD00BF6208002084
:1023D00014080020EF080020F0080020F108002079
:1023E000F2080020F4080020DC080020F808002093
:1023F000FC08002033080020FC05002080B582B0D6
:1024000000AF0023FB801F4B0B221A701D4B0022D4
:10241000DA771C4B002283F8202000233B6013E076
:10242000184A3B6813441B789AB23B68013315493C
:10243000CB5C9BB21B029BB213449AB2FB88134441
:10244000FB803B6802333B603B681D2BE8DD0D4B96
:102450009B7F9AB2FB881344FB800B4AFB88138056
:102460000A4805F077FF642321220649074805F052
:10247000A4FE06220649054805F028FF00BF0837DC
:10248000BD4680BD3808002057080020FC0500200C
:10249000C408002080B485B000AF78600B46FB70A4
:1024A0000023FB60FB78002B14D01E4B1A687B685E
:1024B0001344B3F5003F07D91A4B1A687B681344DD
:1024C000A3F50033FB6019E0164B1B687A681344D0
:1024D000FB6013E0144B1A687B681344B3F5003FAC
:1024E00007D9114B1A687B681344A3F50033FB60CE
:1024F00004E00D4B1B687A681344FB60FB68002BFB
:1025000001D15C23FB60FB68B3F5003F02D1FB689F
:102510005C3BFB60FB6818461437BD465DF8047BE6
:10252000704700BF9C0800209808002080B400AFCE
:10253000084B00221A60074B0222DA60054B032287
:102540005A60044B01229A6000BFBD465DF8047BCF
:10255000704700BF08010020B0B586B000AFF8603A
:102560007A603B600B46FB7202F04AFC1D491E4834
:1025700002F0B6FD0346002B2ED10023FB753B680D
:10258000022B02D10423FB7504E03B68012B01D12F
:102590000223FB750023BB7517E0BB7D9B00FA6827
:1025A00013441B6800221C46154622462B467968B8
:1025B000386802F0CBFB0346002B0FD1FB7D7A6815
:1025C00013447B60BB7D0133BB75BA7DFB7A9A42B5
:1025D000E3D302F037FC02E000BF00E000BF183791
:1025E000BD46B0BD080900200801002080B487B0B6
:1025F00000AFF8607A603B600B46FB720023FB750E
:1026000000233B613B68022B02D10423FB7504E0ED
:102610003B68012B01D10223FB750023BB820FE035
:102620007B681B683B61BB8A9B00FA6813443A696C
:102630001A60FB7D7A6813447B60BB8A0133BB82DE
:10264000FB7A9BB2BA8A9A42EAD300BF00BF1C371A
:10265000BD465DF8047B704780B485B000AF7860FC
:102660000B46FB700023FB7307E0FB7B7A68134487
:1026700000221A70FB7B0133FB73FA7BFB789A42D2
:10268000F3D300BF00BF1437BD465DF8047B70472D
:1026900080B485B000AF78600B46FB701346BB700A
:1026A000BB78FB7307E0FB7B7A68134400221A7047
:1026B000FB7B0133FB73FA7BFB789A42F3D300BFB9
:1026C00000BF1437BD465DF8047B704780B483B00B
:1026D00000AF0346FB71FB79802B5CD0802B5CDC68
:1026E000202B47DC002B58DD013B1F2B55D801A2C6
:1026F00052F823F07B2700087F2700089B2700085B
:10270000832700089B2700089B2700089B270008B9
:10271000872700089B2700089B2700089B270008A5
:102720009B2700089B2700089B2700089B27000881
:102730008B2700089B2700089B2700089B27000881
:102740009B2700089B2700089B2700089B27000861
:102750009B2700089B2700089B2700089B27000851
:102760009B2700089B2700089B2700089B27000841
:102770008F270008402B0CD00FE000230EE0112320
:102780000CE022230AE0332308E0442306E055232B
:1027900004E0662302E0772300E0012318460C37AB
:1027A000BD465DF8047B704780B483B000AF03463C
:1027B000FB80094B1B6800225A6200BF064B1B6856
:1027C0005A6AFB889A42F9D300BF00BF0C37BD4656
:1027D0005DF8047B704700BF4404002080B483B0E0
:1027E00000AF00237B601D4B1B781A461B4B5B78A8
:1027F00013441A4A927813447B607B68DBB27B6097
:10280000164BDB781A467B68934220D1134B1B7919
:10281000A52B1CD1124B1B78002B0CD00F4B1A7818
:10282000104B1A700D4B5A780E4B5A700B4B9A780E
:102830000C4B9A700BE0094B1A780B4B1A70074B34
:102840005A78094B5A70054B9A78074B9A7000BF1B
:102850000C37BD465DF8047B704700BFD4080020EC
:1028600078080020E4080020DC08002080B500AFD4
:1028700021210D48FFF7F0FE0B4B0C221A700B4B79
:102880001A78094B5A70084B0C22DA77074B1A78E2
:10289000054B83F82020642321220349044805F0D6
:1028A0008CFC00BF80BD00BF140800207108002010
:1028B000FC05002080B500AF1A4B1B78002B17D009
:1028C000194B1B681A1F194B1B689A4227D8164BC5
:1028D0001B681A1D164B1B689A4220D3154804F03A
:1028E000CBFF154804F0C8FF144B00221A7016E005
:1028F000134B1B681A1F0E4B1B689A420FD8104BC4
:102900001B681A1D0A4B1B689A4208D30D4804F035
:10291000B3FF094804F0B0FF084B00221A7000BF53
:1029200080BD00BF78000020A4080020FC08002023
:10293000F8080020AC03002090040020F0080020DC
:10294000A00800206003002080B500AF1F4B1B785B
:10295000002B1CD01E4B1B68A3F12E021D4B1B68C5
:102960009A4230D81A4B1B6803F12E02194B1B6890
:102970009A4228D3184804F07FFF184804F07CFFDF
:10298000174B00221A70174B00221A701BE0164BCF
:102990001B68A3F12E02154B1B689A4213D8124BE9
:1029A0001B6803F12E02114B1B689A420BD310488F
:1029B00004F062FF094804F05FFF094B00221A701F
:1029C000084B00221A7000BF80BD00BF78000020B5
:1029D000AC080020FC080020AC030020900400207C
:1029E000F0080020F1080020A8080020F8080020C6
:1029F0006003002080B500AF1A4B1B7883F0010301
:102A0000DBB2002B13D0184B1B68A3F12E02174B1F
:102A10001B689A4224D8144B1B6803F12E02134BF7
:102A20001B689A421CD30F4B01221A7018E0104BFE
:102A30001B68A3F12E020D4B1B689A4210D80C4B59
:102A40001B6803F12E02094B1B689A4208D3094800
:102A500004F012FF084804F00FFF084B00221A7020
:102A600000BF80BD7D080020B0080020F8080020CD
:102A7000A00800206003002090040020F00800203F
:102A800080B500AF864B1B7883F00103DBB2002BCF
:102A900021D0844B01221A70834B1B685A1F834B31
:102AA0001B689A4217D8804B1B685A1D7F4B1B68C6
:102AB0009A4210D37E4804F0DFFE7E4B1B787E4A9C
:102AC000126811461846FFF7A1F9754B01221A70DA
:102AD000774804F059FE724B1B78002B00F0A18060
:102AE000764B1B7883F00103DBB2002B2AD06D4BB1
:102AF00000221A70704B1B685A1F6C4B1B689A425D
:102B000020D86D4B1B685A1D684B1B689A4219D31D
:102B10006A4B01221A70052269496A4805F0D6FB02
:102B200001224FF40061684802F04EFE674B01221B
:102B30001A700220FFF738FE00224FF4006162484D
:102B400002F042FE5D4B1B78002B6AD0604B1B7875
:102B500083F00103DBB2002B63D05E4B1B68A3F153
:102B60000802524B1B689A4228D85A4B1B6803F143
:102B700008024E4B1B689A4220D305225049514807
:102B800005F0A4FB01224FF400614F4802F01CFE47
:102B90004E4B01221A700220FFF706FE00224FF46E
:102BA0000061494802F010FE4B4B1B8801339AB27A
:102BB000494B1A80464B01221A7070E0474B1B6844
:102BC0001A1F3A4B1B689A422BD8444B1B681A1D9C
:102BD000364B1B689A4224D3414B1B881A463F4B05
:102BE0001B6813443D4A136005223549354805F0FA
:102BF0006DFB01224FF40061334802F0E5FD334BD9
:102C000001221A700220FFF7CFFD00224FF400616D
:102C10002D4802F0D9FD304B1B8801339AB22E4B60
:102C20001A802B4B1B78002B39D0284B1B7883F054
:102C30000103DBB2002B32D02A4B1B78002B2ED1A4
:102C4000294B1B78002B0FD0274B1B781A465200BC
:102C50001344DBB20133DBB21A4621212348FFF7CC
:102C600017FD204B01221A701F4B00221A70204BB7
:102C700001221A701F4B00221A701F4B00221A707B
:102C80001E4B01221A70124B01221A700F4B0022A8
:102C90001A70074804F0F0FD194804F0EDFD80BDFE
:102CA00074080020F108002090080020F808002097
:102CB00060030020780000208008002072080020B7
:102CC000D40800207405002000000240780800208D
:102CD00073080020880800205C08002000090020FC
:102CE000B8080020F2080020590800203808002009
:102CF00005000020F008002070080020EF080020E8
:102D00009004002080B500AF864B1B7883F0010350
:102D1000DBB2002B21D0844B01221A70834B1B683D
:102D20005A1F834B1B689A4217D8804B1B685A1D49
:102D30007F4B1B689A4210D37E4804F09DFD7E4B6A
:102D40001B787E4A126811461846FFF75FF8754BEC
:102D500001221A70774804F017FD724B1B78002B84
:102D600000F0A180764B1B7883F00103DBB2002BCF
:102D70002AD06D4B00221A70704B1B685A1F6C4B87
:102D80001B689A4220D86D4B1B685A1D684B1B6804
:102D90009A4219D36A4B01221A70052269496A487E
:102DA00005F094FA01224FF40061684802F00CFD2E
:102DB000674B01221A700220FFF7F6FC00224FF445
:102DC0000061624802F000FD5D4B1B78002B6AD069
:102DD000604B1B7883F00103DBB2002B63D05E4BAA
:102DE0001B68A3F10802524B1B689A4228D85A4B21
:102DF0001B6803F108024E4B1B689A4220D3052240
:102E00005049514805F062FA01224FF400614F48E1
:102E100002F0DAFC4E4B01221A700220FFF7C4FCCC
:102E200000224FF40061494802F0CEFC4B4B1B8856
:102E300001339AB2494B1A80464B01221A7070E056
:102E4000474B1B681A1F3A4B1B689A422BD8444BBE
:102E50001B681A1D364B1B689A4224D3414B1B88B2
:102E60001A463F4B1B6813443D4A136005223549FF
:102E7000354805F02BFA01224FF40061334802F087
:102E8000A3FC334B01221A700220FFF78DFC0022B5
:102E90004FF400612D4802F097FC304B1B88013342
:102EA0009AB22E4B1A802B4B1B78002B39D0284B13
:102EB0001B7883F00103DBB2002B32D02A4B1B7846
:102EC000002B2ED1294B1B78002B0FD0274B1B78C2
:102ED0001A4652001344DBB20133DBB21A462121F9
:102EE0002348FFF7D5FB204B01221A70214804F03C
:102EF000C3FC104804F0C0FC1C4B00221A701E4B8F
:102F000001221A701D4B00221A701D4B00221A70EC
:102F10001C4B01221A700F4B01221A700C4B00221D
:102F20001A7080BD74080020F10800209408002069
:102F3000FC080020AC03002078000020840800205A
:102F400072080020D4080020740500200000024010
:102F500078080020730800208C0800205C080020FE
:102F600004090020BA080020F208002059080020B7
:102F7000380800209004002005000020F008002000
:102F800070080020EF08002080B582B000AF984B99
:102F90001B7883F00103DBB2002B02D0944B01229B
:102FA0001A70934B1B78002B00F0E380914B1B7839
:102FB00083F00103DBB2002B00F0DB808E4B1B782B
:102FC00083F00103DBB2002B21D08C4B01221A705D
:102FD0008B4B1B685A1F8B4B1B689A4217D8884B28
:102FE0001B685A1D874B1B689A4210D3864804F011
:102FF00043FC864B1B78864A126811461846FEF73A
:1030000005FF7D4B01221A707F4804F0BDFB7A4B0F
:103010001B78002B00F0AD807E4B1B7883F0010302
:10302000DBB2002B2AD0754B00221A70784B1B683C
:103030005A1F744B1B689A4220D8754B1B685A1D47
:10304000704B1B689A4219D3724B01221A700522E9
:103050007149724805F03AF901224FF40061704855
:1030600002F0B2FB6F4B01221A700220FFF79CFBAB
:1030700000224FF400616A4802F0A6FB654B1B7802
:10308000002B76D0684B1B7883F00103DBB2002B5A
:103090006FD0664B1B68A3F108025A4B1B689A421B
:1030A00034D8624B1B6803F10802564B1B689A42E6
:1030B0002CD35F4B1B78002B0FD05D4B1B781A462F
:1030C00052001344DBB20133DBB21A4621215948C6
:1030D000FFF7DEFA584B01221A70554B00221A7086
:1030E000564B01221A70564B00221A704D4B00228B
:1030F0001A70454804F0C0FB524804F0BDFB3D4B3C
:1031000001221A703D4B01221A7032E04E4B1B68AF
:103110001A1F3C4B1B689A422BD84B4B1B681A1D3D
:10312000384B1B689A4224D3484B1B881A46464B9F
:103130001B681344444A136005223749374805F099
:10314000C5F801224FF40061354802F03DFB354BD4
:1031500001221A700220FFF727FB00224FF40061C2
:103160002F4802F031FB3A4B1B8801339AB2384B9F
:103170001A80204B1B78002B00F0A580354B1B7864
:10318000002B02D000F0B4F89DE01A4B1B78002B06
:1031900000F099802B4804F06FFB2F4804F06CFB83
:1031A0001C4B00221A70144B00221A701E4B002276
:1031B0001A70174B1B687B601C4A7B6813601B4BA3
:1031C0001B68134A1360254BB3F90030B3F5B27F87
:1031D00048DB224BB3F900300533002BB8BF5B420C
:1031E0009AB21F4B1A801E4B4FF698621A8041E02C
:1031F000770800207508002074080020F1080020DE
:1032000090080020F80800206003002078000020CB
:103210008008002072080020D408002074050020D7
:103220000000024078080020730800208808002071
:103230005908002038080020F2080020050000206E
:10324000700800209004002000090020B808002029
:103250005C08002076080020AC030020BE08002097
:10326000C00800201A4BB3F900309BB205339AB264
:10327000184B1A80174B1B885B04174A82FB0312FA
:103280001A441212DB17D31A1A46144B1A60134B46
:103290001B68134A127811461846FFF7FBF80346DD
:1032A0000E4A13600E4B1B780C4A126811461846E2
:1032B000FEF7ACFD0B4B01221A700B4804F064FAC8
:1032C0000A4804F061FA00BF0837BD4680BD00BF60
:1032D000BE080020C0080020B7600BB69008002090
:1032E0007800002076080020900400206003002071
:1032F00080B500AF6E4B1B7883F00103DBB2002B6F
:1033000021D06C4B01221A706B4B1B685A1F6B4B00
:103310001B689A4217D8684B1B685A1D674B1B687D
:103320009A4210D3664804F0A7FA664B1B78664AA7
:10333000126811461846FEF769FD5D4B01221A70AE
:103340005F4804F021FA5A4B1B78002B00F0AE8046
:103350005E4B1B7883F00103DBB2002B2AD0554B68
:1033600000221A70584B1B685A1F544B1B689A4214
:1033700020D8554B1B685A1D504B1B689A4219D3D5
:10338000524B01221A7005225149524804F09EFF07
:1033900001224FF40061504802F016FA4F4B01220F
:1033A0001A700220FFF700FA00224FF400614A4829
:1033B00002F00AFA454B1B78002B77D0484B1B785C
:1033C00083F00103DBB2002B70D0464B1B681A1F41
:1033D0003A4B1B689A4236D8424B1B681A1D374B32
:1033E0001B689A422FD3404B1B78002B0FD03E4BCB
:1033F0001B781A4652001344DBB20133DBB21A4683
:1034000021213A48FFF744F9394B01221A70364B13
:1034100000221A70374B01221A70374B00221A70A3
:10342000364B00221A70364B01221A702C4B0122A7
:103430001A702A4B00221A70214804F01DFA3148F4
:1034400004F01AFA32E0304B1B681A1F1B4B1B6842
:103450009A422BD82C4B1B681A1D184B1B689A429A
:1034600024D32A4B1B881A46274B1B681344264A31
:10347000136005221649174804F028FF01224FF473
:103480000061154802F0A0F9144B01221A700220C5
:10349000FFF78AF900224FF400610F4802F094F917
:1034A0001B4B1B8801339AB2194B1A8000BF80BD99
:1034B00074080020F108002090080020F80800207F
:1034C000600300207800002080080020720800209F
:1034D000D408002074050020000002407808002075
:1034E00073080020880800205908002038080020B0
:1034F000F208002005000020F008002070080020DD
:10350000EF0800209004002000090020B8080020E7
:103510005C08002080B485B000AF78607B68D3F889
:10352000843003F00803002B08D07B681B68082256
:103530001A62054B1B685B6ADBB2FB7300BF143772
:10354000BD465DF8047B70477405002080B400AF71
:1035500072B600BFFEE7000080B483B000AF0F4B2F
:103560001B6C0E4A43F0805313640C4B1B6C03F02E
:1035700080537B607B68094B5B6C084A43F4804353
:103580005364064B5B6C03F480433B603B6800BFB5
:103590000C37BD465DF8047B704700BF0038024021
:1035A00080B58CB000AF786007F11C0300221A6070
:1035B0005A609A60DA601A617B681B68984A934285
:1035C00040F0A080974B1B6C964A43F40043136471
:1035D000944B1B6C03F40043BB61BB69914B1B6BA9
:1035E000904A43F0020313638E4B1B6B03F00203FC
:1035F0007B617B698B4B1B6B8A4A43F0040313632B
:10360000884B1B6B03F004033B613B690423FB61A4
:1036100002233B6200237B620323BB620723FB621E
:1036200007F11C031946804801F036FE4FF4406351
:10363000FB6102233B6200237B620323BB62062300
:10364000FB6207F11C031946784801F025FE784B10
:10365000784A1A60764B00225A60754B00229A60B5
:10366000734B0022DA60724B4FF480621A61704B28
:1036700000225A616E4B00229A616D4B0022DA6182
:103680006B4B00221A626A4B00225A62684800F0B3
:10369000E9FE0346002B01D0FFF758FF7B68644A20
:1036A0009A65634A7B689363634B644A1A60624B12
:1036B00000225A60604B40229A605F4B0022DA6021
:1036C0005D4B4FF480621A615B4B00225A615A4B8A
:1036D00000229A61584B0022DA61574B00221A628D
:1036E000554B00225A62544800F0BCFE0346002BA2
:1036F00001D0FFF72BFF7B684F4A5A654E4A7B6823
:10370000936389E07B681B684D4A934240F0848054
:10371000444B5B6C434A43F400535364414B5B6C32
:1037200003F40053FB60FB683E4B1B6B3D4A43F0C8
:10373000100313633B4B1B6B03F01003BB60BB68B0
:103740006423FB6102233B6200237B620323BB6291
:103750000523FB6207F11C0319463A4801F09CFD62
:10376000394B3A4A1A60384B4FF000625A60364B78
:1037700000229A60344B0022DA60334B4FF48062AF
:103780001A61314B00225A612F4B00229A612E4B55
:103790000022DA612C4B00221A622B4B00225A6263
:1037A000294800F05FFE0346002B01D0FFF7CEFE54
:1037B0007B68254A9A65244A7B689363244B254A93
:1037C0001A60234B4FF000625A60214B40229A60EE
:1037D0001F4B0022DA601E4B4FF480621A611C4BB3
:1037E00000225A611A4B00229A61194B0022DA61B9
:1037F000174B00221A62164B00225A62144800F03E
:1038000031FE0346002B01D0FFF7A0FE7B68104A73
:103810005A650F4A7B68936300BF3037BD4680BD51
:10382000003C004000380240000402400008024012
:10383000E001002010600240400200208860024049
:103840000034014000100240A00200201064024039
:10385000000300202864024080B58AB000AF786081
:103860007B681B68B3F1804F14D1564B1B6C554AD3
:1038700043F001031364534B1B6C03F001037B62A1
:103880007B6A002200211C2000F0A7FD1C2000F014
:10389000C0FD92E07B681B684B4A934214D1494BB0
:1038A0001B6C484A43F002031364464B1B6C03F045
:1038B00002033B623B6A002200211D2000F08DFDC7
:1038C0001D2000F0A6FD78E07B681B683F4A93420C
:1038D00014D13C4B1B6C3B4A43F008031364394B37
:1038E0001B6C03F00803FB61FB69002200213220FE
:1038F00000F073FD322000F08CFD5EE07B681B68F9
:10390000334A93420CD12F4B1B6C2E4A43F01003C9
:1039100013642C4B1B6C03F01003BB61BB694CE0C0
:103920007B681B682B4A934214D1264B1B6C254A9B
:1039300043F020031364234B1B6C03F020037B61D3
:103940007B6900220021372000F047FD372000F07E
:1039500060FD32E07B681B681F4A934214D1194B0B
:103960005B6C184A43F400335364164B5B6C03F4EE
:1039700000333B613B6900220021192000F02DFD3E
:10398000192000F046FD18E07B681B68134A93423B
:1039900013D10C4B1B6C0B4A43F480731364094B1B
:1039A0001B6C03F48073FB60FB68002200212D2058
:1039B00000F013FD2D2000F02CFD00BF2837BD4680
:1039C00080BD00BF0038024000040040000C0040F1
:1039D000001000400014004000440140002000405E
:1039E00080B5ACB000AF786007F19C0300221A608C
:1039F0005A609A60DA601A6107F11C038022002184
:103A0000184605F02FFF7B681B68534A934240F02D
:103A1000B1804023FB610023BB6507F11C031846FE
:103A200002F020FC0346002B01D0FFF78FFD4B4B2B
:103A30005B6C4A4A43F010035364484B5B6C03F0E1
:103A40001003BB61BB69454B1B6B444A43F0010348
:103A50001363424B1B6B03F001037B617B694FF4E3
:103A6000C063C7F89C300223C7F8A0300023C7F812
:103A7000A4300323C7F8A8300723C7F8AC3007F1F8
:103A80009C031946364801F007FC364B364A1A604B
:103A9000344B4FF000625A60324B00229A60314B37
:103AA0000022DA602F4B4FF480621A612D4B002206
:103AB0005A612C4B00229A612A4B0022DA61294B71
:103AC0004FF400321A62274B00225A62254800F058
:103AD000C9FC0346002B01D0FFF738FD7B68214A63
:103AE0005A67204A7B689363204B214A1A601F4B18
:103AF0004FF000625A601D4B40229A601B4B00221F
:103B0000DA601A4B4FF480621A61184B00225A6136
:103B1000164B00229A61154B0022DA61134B4FF4C9
:103B200080321A62114B00225A62104800F09AFC4F
:103B30000346002B01D0FFF709FD7B680B4A1A678B
:103B40000A4A7B68936300220021252000F045FC8F
:103B5000252000F05EFCB6E0001001400038024075
:103B6000000002408406002040640240E406002079
:103B7000B86402407B681B68554A934240F0A380BA
:103B80004FF48073FB6100233B6607F11C0318466A
:103B900002F068FB0346002B01D0FFF7D7FC4D4B2A
:103BA0001B6C4C4A43F4802313644A4B1B6C03F494
:103BB00080233B613B69474B1B6B464A43F0020342
:103BC0001363444B1B6B03F00203FB60FB684FF471
:103BD0009843C7F89C300223C7F8A0300023C7F8E9
:103BE000A4300323C7F8A8300723C7F8AC3007F187
:103BF0009C031946384801F04FFB384B384A1A608D
:103C0000364B4FF000625A60344B00229A60334BBF
:103C10000022DA60314B4FF480621A612F4B002290
:103C20005A612E4B00229A612C4B4FF48072DA615C
:103C30002A4B00221A62294B00225A62274800F0C0
:103C400011FC0346002B01D0FFF780FC7B68234A60
:103C50005A67224A7B689363224B234A1A60214B9E
:103C60004FF000625A601F4B40229A601D4B0022A9
:103C7000DA601C4B4FF480621A611A4B00225A61C1
:103C8000184B00229A61174B4FF48072DA61154B82
:103C900000221A62134B00225A62124800F0E2FB23
:103CA0000346002B01D0FFF751FC7B680D4A1A67D1
:103CB0000C4A7B68936300220021272000F08DFBD3
:103CC000272000F0A6FB00BFB037BD4680BD00BF77
:103CD0000048004000380240000402404407002031
:103CE00028600240A40700205860024080B582B0DE
:103CF00000AF78607B681B681E4A934218D11E4B48
:103D00005B6C1D4A23F0100353644FF4C0611B48E1
:103D100001F05EFC7B685B6F184600F051FC7B682D
:103D20001B6F184600F04CFC252000F080FB1CE0C7
:103D30007B681B68124A934217D10F4B1B6C0E4ACB
:103D400023F4802313644FF498410E4801F040FCA3
:103D50007B685B6F184600F033FC7B681B6F18466E
:103D600000F02EFC272000F062FB00BF0837BD46A4
:103D700080BD00BF0010014000380240000002403A
:103D8000004800400004024080B400AFFEE780B469
:103D900000AFFEE780B400AFFEE780B400AFFEE7FF
:103DA00080B400AFFEE780B400AF00BFBD465DF851
:103DB000047B704780B400AF00BFBD465DF8047B54
:103DC000704780B400AF00BFBD465DF8047B70470C
:103DD00080B500AF00F0BEF900BF80BD80B500AF78
:103DE000024800F03DFD00BF80BD00BFE0010020A3
:103DF00080B500AF024800F033FD00BF80BD00BFBA
:103E00004407002080B500AF024800F029FD00BF44
:103E100080BD00BFA407002080B500AF024800F0BD
:103E20001FFD00BF80BD00BF4002002080B500AF75
:103E3000024803F051FD00BF80BD00BFDC0400203C
:103E400080B500AF024803F047FD00BF80BD00BF52
:103E50006003002080B500AF024803F03DFD00BFC5
:103E600080BD00BFAC03002080B500AF024804F065
:103E700003FB00BF80BD00BF7405002080B500AF0C
:103E8000024804F0F9FA00BF80BD00BFFC05002025
:103E900080B500AF024803F01FFD00BF80BD00BF2A
:103EA0002805002080B500AF024803F015FD00BFD3
:103EB00080BD00BFF803002080B500AF024803F0CA
:103EC0000BFD00BF80BD00BF9004002080B500AF97
:103ED000024800F0C5FC00BF80BD00BFA00200206A
:103EE00080B500AF024800F0BBFC00BF80BD00BF42
:103EF0000003002080B500AF024800F0B1FC00BF15
:103F000080BD00BF8406002080B500AF024800F0ED
:103F1000A7FC00BF80BD00BFE406002080B586B0CE
:103F200000AFF860B9607A6000237B610AE0AFF30C
:103F300000800146BB685A1CBA60CAB21A707B691D
:103F400001337B617A697B689A42F0DB7B681846B3
:103F50001837BD4680BD80B586B000AFF860B96047
:103F60007A6000237B6109E0BB685A1CBA601B7849
:103F70001846FDF7E9FF7B6901337B617A697B684D
:103F80009A42F1DB7B6818461837BD4680BD80B485
:103F900083B000AF78604FF0FF3318460C37BD4652
:103FA0005DF8047B704780B483B000AF78603960FF
:103FB0003B684FF400525A60002318460C37BD4648
:103FC0005DF8047B704780B483B000AF7860012354
:103FD00018460C37BD465DF8047B704780B485B049
:103FE00000AFF860B9607A60002318461437BD4608
:103FF0005DF8047B7047000080B586B000AF786044
:10400000144A154BD31A7B617B693B61134B1B68C8
:10401000002B02D1114B124A1A60104B1A687B68B0
:1040200013443A699A4207D205F0F2FB03460C2288
:104030001A604FF0FF3309E0084B1B68FB60074B29
:104040001A687B681344054A1360FB6818461837E2
:10405000BD4680BD00000420000400000C090020C3
:104060004009002080B400AF064BD3F88830054AE1
:1040700043F47003C2F8883000BFBD465DF8047B8E
:10408000704700BF00ED00E0DFF834D0FFF7EAFF33
:104090000C480D490D4A002302E0D458C4500433A3
:1040A000C4188C42F9D30A4A0A4C002301E0136079
:1040B0000432A242FBD305F0B1FBFCF733FA7047A0
:1040C0000000042000000020EC00002020A30008D5
:1040D000EC00002040090020FEE780B500AF03207F
:1040E00000F070F9002000F005F8FFF735FA002322
:1040F000184680BD80B582B000AF7860124B1A6858
:10410000124B1B7819464FF47A73B3FBF1F3B2FBF1
:10411000F3F3184600F099F90346002B01D0012370
:104120000EE07B680F2B0AD8002279684FF0FF3031
:1041300000F053F9064A7B681360002300E0012376
:1041400018460837BD4680BD7C0000208400002052
:104150008000002080B400AF064B1B781A46064B47
:104160001B681344044A136000BFBD465DF8047B1E
:10417000704700BF840000201009002080B400AF09
:10418000034B1B681846BD465DF8047B704700BFB3
:104190001009002080B584B000AF7860FFF7EEFF13
:1041A000B8607B68FB60FB68B3F1FF3F05D00A4B4A
:1041B0001B781A46FB681344FB6000BFFFF7DEFF65
:1041C0000246BB68D31AFA689A42F7D800BF00BF0C
:1041D0001037BD4680BD00BF8400002080B485B08C
:1041E00000AF78607B6803F00703FB600B4BDB6874
:1041F000BB60BA684FF6FF031340BB60FB681A024E
:10420000BB681A43064B1343BB60044ABB68D360C8
:1042100000BF1437BD465DF8047B704700ED00E039
:104220000000FA0580B400AF044BDB681B0A03F002
:1042300007031846BD465DF8047B704700ED00E0BB
:1042400080B483B000AF0346FB7197F90730002BB1
:104250000BDBFB7903F01F02074997F907305B0975
:10426000012000FA02F241F8232000BF0C37BD46BE
:104270005DF8047B704700BF00E100E080B483B0CC
:1042800000AF0346FB7197F90730002B12DBFB7977
:1042900003F01F020A4997F907305B09012000FA71
:1042A00002F2203341F82320BFF34F8F00BFBFF34A
:1042B0006F8F00BF00BF0C37BD465DF8047B7047B1
:1042C00000E100E080B483B000AF03463960FB71C9
:1042D00097F90730002B0ADB3B68DAB20C4997F9F3
:1042E00007301201D2B20B4483F800230AE03B6886
:1042F000DAB20849FB7903F00F03043B1201D2B292
:104300000B441A7600BF0C37BD465DF8047B70473E
:1043100000E100E000ED00E080B489B000AFF8609B
:10432000B9607A60FB6803F00703FB61FB69C3F1C6
:104330000703042B28BF0423BB61FB690433062B4E
:1043400002D9FB69033B00E000237B614FF0FF32A1
:10435000BB6902FA03F3DA43BB681A407B699A40EF
:104360004FF0FF317B6901FA03F3D9437B680B40BF
:10437000134318462437BD465DF8047B70470000A0
:1043800080B582B000AF78607B68013BB3F1807F7D
:1043900001D301230FE00A4A7B68013B53600F21E0
:1043A0004FF0FF30FFF78EFF054B00229A60044B61
:1043B00007221A60002318460837BD4680BD00BF9B
:1043C00010E000E080B582B000AF78607868FFF759
:1043D00005FF00BF0837BD4680BD80B586B000AF81
:1043E0000346B9607A60FB7300237B61FFF71AFF15
:1043F00078617A68B9687869FFF78EFF024697F9A5
:104400000F3011461846FFF75DFF00BF1837BD4655
:1044100080BD80B582B000AF0346FB7197F90730CD
:104420001846FFF70DFF00BF0837BD4680BD80B5B9
:1044300082B000AF0346FB7197F907301846FFF7CB
:104440001DFF00BF0837BD4680BD80B582B000AFFC
:1044500078607868FFF794FF034618460837BD4632
:1044600080BD000080B586B000AF786000237B611E
:10447000FFF784FE38617B68002B01D1012399E0AE
:104480007B68022283F835207B68002283F8342081
:104490007B681B681A687B681B6822F001021A603F
:1044A0000FE0FFF76BFE02463B69D31A052B08D9D4
:1044B0007B6820225A657B68032283F8352003231A
:1044C00078E07B681B681B6803F00103002BE8D1D0
:1044D0007B681B681B687B617A69384B13407B6182
:1044E0007B685A687B689B681A437B68DB681A4361
:1044F0007B681B691A437B685B691A437B689B690D
:104500001A437B68DB691A437B681B6A13437A6929
:1045100013437B617B685B6A042B07D17B68DA6A93
:104520007B681B6B13437A6913437B617B681B6851
:104530007A691A607B681B685B697B617B6923F021
:1045400007037B617B685B6A7A6913437B617B68E5
:104550005B6A042B17D17B689B6A7A6913437B6182
:104560007B68DB6A002B0ED0786800F073FB034693
:10457000002B08D07B6840225A657B68002283F8B4
:104580003520012316E07B681B687A695A617868D8
:1045900000F02AFB0346FB607B68DB6D3F229A40FC
:1045A000FB689A607B6800225A657B68012283F869
:1045B0003520002318461837BD4680BD3F8010E0E7
:1045C00080B584B000AF78607B68002B01D10123F7
:1045D00050E07B6893F83530DBB2022B01D1022327
:1045E00048E07B681B681A687B681B6822F0010240
:1045F0001A607B681B6800221A607B681B680022B7
:104600005A607B681B6800229A607B681B680022E6
:10461000DA607B681B6800221A617B681B682122B4
:104620005A61786800F0E0FA0346FB607B68DB6D56
:104630003F229A40FB689A607B680022DA637B68BD
:1046400000221A647B6800225A647B6800229A6404
:104650007B680022DA647B6800221A657B6800228E
:104660005A657B68002283F835207B68002283F836
:104670003420002318461037BD4680BD80B586B073
:1046800000AFF860B9607A603B600023FB75FB689F
:104690009B6D3B61FB6893F83430012B01D1022301
:1046A00048E0FB68012283F83420FB6893F835303A
:1046B000DBB2012B37D1FB68022283F83520FB687F
:1046C00000225A653B687A68B968F86800F05EFABB
:1046D000FB68DB6D3F229A403B699A60FB681B6870
:1046E0001A68FB681B6842F016021A60FB681B68B8
:1046F0005A69FB681B6842F080025A61FB681B6CB8
:10470000002B07D0FB681B681A68FB681B6842F027
:1047100008021A60FB681B681A68FB681B6842F095
:1047200001021A6005E0FB68002283F834200223AE
:10473000FB75FB7D18461837BD4680BD80B584B03B
:1047400000AF78607B689B6DFB60FFF717FDB8607A
:104750007B6893F83530DBB2022B08D07B6880226F
:104760005A657B68002283F83420012352E07B687D
:104770001B681A687B681B6822F016021A607B6847
:104780001B685A697B681B6822F080025A617B684B
:104790001B6C002B03D17B689B6C002B07D07B68C4
:1047A0001B681A687B681B6822F008021A607B6825
:1047B0001B681A687B681B6822F001021A6013E00C
:1047C000FFF7DCFC0246BB68D31A052B0CD97B68CB
:1047D00020225A657B68032283F835207B680022FB
:1047E00083F83420032315E07B681B681B6803F003
:1047F0000103002BE4D17B68DB6D3F229A40FB680C
:104800009A607B68012283F835207B68002283F858
:104810003420002318461037BD4680BD80B483B0D5
:1048200000AF78607B6893F83530DBB2022B04D0A0
:104830007B6880225A6501230CE07B68052283F89F
:1048400035207B681B681A687B681B6822F00102B0
:104850001A60002318460C37BD465DF8047B70478C
:1048600080B586B000AF78600023BB608E4B1B68BC
:104870008E4AA2FB03239B0A7B617B689B6D3B6195
:104880003B691B68FB607B68DB6D08229A40FB6814
:104890001340002B1AD07B681B681B6803F00403CD
:1048A000002B13D07B681B681A687B681B6822F09A
:1048B00004021A607B68DB6D08229A403B699A60AB
:1048C0007B685B6D43F001027B685A657B68DB6D3A
:1048D00001229A40FB681340002B12D07B681B68B2
:1048E0005B6903F08003002B0BD07B68DB6D01223A
:1048F0009A403B699A607B685B6D43F002027B687B
:104900005A657B68DB6D04229A40FB681340002BDC
:1049100012D07B681B681B6803F00203002B0BD0CE
:104920007B68DB6D04229A403B699A607B685B6D13
:1049300043F004027B685A657B68DB6D10229A4065
:10494000FB681340002B43D07B681B681B6803F097
:104950000803002B3CD07B68DB6D10229A403B693A
:104960009A607B681B681B6803F48023002B18D0B7
:104970007B681B681B6803F40023002B08D17B684D
:104980001B6C002B24D07B681B6C786898471FE059
:104990007B689B6C002B1BD07B689B6C786898476E
:1049A00016E07B681B681B6803F48073002B07D13B
:1049B0007B681B681A687B681B6822F008021A6013
:1049C0007B681B6C002B03D07B681B6C7868984756
:1049D0007B68DB6D20229A40FB681340002B00F0BF
:1049E0008F807B681B681B6803F01003002B00F0AE
:1049F00087807B68DB6D20229A403B699A607B68E8
:104A000093F83530DBB2052B36D17B681B681A680A
:104A10007B681B6822F016021A607B681B685A6963
:104A20007B681B6822F080025A617B681B6C002B3C
:104A300003D17B689B6C002B07D07B681B681A68CE
:104A40007B681B6822F008021A607B68DB6D3F22DE
:104A50009A403B699A607B68012283F835207B6825
:104A6000002283F834207B681B6D002B7ED07B688E
:104A70001B6D7868984779E07B681B681B6803F4B6
:104A80008023002B1DD07B681B681B6803F4002368
:104A9000002B0DD17B685B6C002B31D07B685B6C8D
:104AA000786898472CE000BF7C000020B5814E1B41
:104AB0007B68DB6B002B23D07B68DB6B78689847C7
:104AC0001EE07B681B681B6803F48073002B0FD10A
:104AD0007B681B681A687B681B6822F010021A60EA
:104AE0007B68012283F835207B68002283F834201C
:104AF0007B68DB6B002B03D07B68DB6B78689847A7
:104B00007B685B6D002B32D07B685B6D03F001032B
:104B1000002B22D07B68052283F835207B681B6838
:104B20001A687B681B6822F001021A60BB680133B7
:104B3000BB607A699A4207D37B681B681B6803F0E5
:104B40000103002BF2D100E000BF7B68012283F853
:104B500035207B68002283F834207B68DB6C002BD7
:104B600005D07B68DB6C7868984700E000BF183799
:104B7000BD4680BD80B483B000AF78607B685B6D5C
:104B800018460C37BD465DF8047B704780B485B08D
:104B900000AFF860B9607A603B60FB681B681A6818
:104BA000FB681B6822F480221A60FB681B683A6865
:104BB0005A60FB689B68402B08D1FB681B687A68C9
:104BC0009A60FB681B68BA68DA6007E0FB681B68DC
:104BD000BA689A60FB681B687A68DA6000BF1437AD
:104BE000BD465DF8047B704780B485B000AF786047
:104BF0007B681B68DBB2103B134AA2FB03231B0933
:104C0000FB60124AFB6813441B781A467B68DA651E
:104C1000FB68032B08D97B681B681A460C4B1340B2
:104C20001A1D7B689A6506E07B681B681A46084B6C
:104C300013407A6893657B689B6D18461437BD46B0
:104C40005DF8047B704700BFABAAAAAAA4A2000823
:104C500000FCFFFF80B485B000AF78600023FB73D9
:104C60007B689B6ABB607B689B69002B1FD1BB681C
:104C7000032B56D801A252F823F000BF8D4C000838
:104C80009F4C00088D4C0008234D00087B68DB6AB0
:104C900003F08073002B46D00123FB7343E07B6855
:104CA000DB6AB3F1C07F40D10123FB733DE07B6839
:104CB0009B69B3F5005F21D1BB68032B37D801A2F4
:104CC00052F823F0D54C0008DB4C0008D54C000806
:104CD000ED4C00080123FB7330E07B68DB6A03F0D6
:104CE0008073002B25D00123FB7322E07B68DB6AF5
:104CF000B3F1C07F1FD10123FB731CE0BB68022B03
:104D000003D9BB68032B03D018E00123FB7315E024
:104D10007B68DB6A03F08073002B0ED00123FB73EA
:104D20000BE000BF0AE000BF08E000BF06E000BFE4
:104D300004E000BF02E000BF00E000BFFB7B1846BC
:104D40001437BD465DF8047B704700BF80B586B060
:104D500000AFF860B960C7E90023274B1B7D012B2A
:104D600001D1022343E0244B01221A754CF250304A
:104D700000F078F80346FB75FB7D002B33D1FB6810
:104D8000032B23D801A252F823F000BF9D4D000849
:104D9000A94D0008B54D0008C14D00083B781946E3
:104DA000B86800F021F912E03B881946B86800F0B5
:104DB000F5F80CE03B681946B86800F0C9F806E061
:104DC000D7E90023B86800F08DF800E000BF4CF28E
:104DD000503000F047F80346FB75084B1B69074A43
:104DE00023F001031361044B00221A75FB7D184662
:104DF0001837BD4680BD00BF14090020003C0240AA
:104E000080B483B000AF0023FB710B4B1B69002BF8
:104E10000BDA094B094A5A60074B094A5A60064B9C
:104E20001B69002B01DA0123FB71FB7918460C3753
:104E3000BD465DF8047B7047003C02402301674596
:104E4000AB89EFCD80B400AF054B1B69044A43F03A
:104E50000043136100231846BD465DF8047B70478C
:104E6000003C024080B584B000AF78600023FB6056
:104E70001A4B00229A61FFF781F9F86010E07B6815
:104E8000B3F1FF3F0CD07B68002B07D0FFF776F91A
:104E90000246FB68D31A7A689A4201D2032319E0CA
:104EA0000F4BDB6803F48033002BE8D10C4BDB683D
:104EB00003F4F973002B03D000F0BAF8012309E0E2
:104EC000074BDB6803F00103002B02D0044B0122E7
:104ED000DA60002318461037BD4680BD1409002053
:104EE000003C024080B485B000AFF860C7E9002301
:104EF000164B1B69154A23F440731361134B1B694E
:104F0000124A43F440731361104B1B690F4A43F07C
:104F100001031361FB683A681A60BFF36F8F00BF2B
:104F2000D7E900014FF000024FF000030A00002310
:104F3000F968043113460B60BFF34F8F00BF00BF09
:104F40001437BD465DF8047B704700BF003C02404B
:104F500080B483B000AF786039600F4B1B690E4A94
:104F600023F4407313610C4B1B690B4A43F4007329
:104F70001361094B1B69084A43F0010313617B6805
:104F80003A681A60BFF34F8F00BF00BF0C37BD46B1
:104F90005DF8047B704700BF003C024080B483B0E2
:104FA00000AF78600B467B800E4B1B690D4A23F4E3
:104FB000407313610B4B1B690A4A43F480731361FE
:104FC000084B1B69074A43F0010313617B687A8829
:104FD0001A80BFF34F8F00BF00BF0C37BD465DF88E
:104FE000047B7047003C024080B483B000AF78601F
:104FF0000B46FB700D4B1B690C4A23F44073136185
:105000000A4B0A4A1B691361084B1B69074A43F0A4
:10501000010313617B68FA781A70BFF34F8F00BFEA
:1050200000BF0C37BD465DF8047B7047003C024072
:1050300080B400AF284BDB6803F00203002B05D0DF
:10504000264B9B6943F02003244A9361224BDB6883
:1050500003F01003002B05D0204B9B6943F0100395
:105060001E4A93611C4BDB6803F02003002B05D024
:105070001A4B9B6943F00803184A9361164BDB688F
:1050800003F04003002B05D0144B9B6943F004034D
:10509000124A9361104BDB6803F08003002B05D0AC
:1050A0000E4B9B6943F002030C4A93610A4BDB6889
:1050B00003F48073002B05D0084B9B6943F0400339
:1050C000064A9361044B4FF4F972DA6000BFBD46A3
:1050D0005DF8047B704700BF003C024014090020CB
:1050E00080B584B000AF786039600023BB602F4B7F
:1050F0001B7D012B01D1022353E02C4B01221A7599
:105100004CF25030FFF7AEFE0346FB73FB7B002BE7
:1051100043D13B684FF0FF321A607B681B68012B5C
:1051200012D17B68DB68DBB2184600F043F84CF222
:105130005030FFF797FE0346FB731D4B1B691C4A5B
:1051400023F00403136128E07B685B68BB601CE00C
:105150007B68DB68DBB21946B86800F051F84CF2A6
:105160005030FFF77FFE0346FB73114B1B69104A5B
:1051700023F07A031361FB7B002B03D03B68BA68F2
:105180001A600AE0BB680133BB607B689A687B6881
:105190005B681344BA689A42DAD3044B00221A754A
:1051A000FB7B18461037BD4680BD00BF14090020A8
:1051B000003C024080B483B000AF0346FB710F4B4C
:1051C0001B690E4A23F4407313610C4B1B690B4A95
:1051D00043F004031361094B1A69FB791B02134363
:1051E000064A43F480331361BFF34F8F00BF00BF03
:1051F0000C37BD465DF8047B704700BF003C0240A1
:1052000080B485B000AF78600B46FB700023FB6074
:10521000FB78002B02D10023FB6010E0FB78012B10
:1052200003D14FF48073FB6009E0FB78022B03D1BC
:105230004FF40073FB6002E04FF44073FB60154BCA
:105240001B69144A23F440731361124B1A69114904
:10525000FB6813430B610F4B1B690E4A23F0F803E5
:1052600013610C4B1A697B68DB001343094A43F056
:1052700002031361074B1B69064A43F48033136131
:10528000BFF34F8F00BF00BF1437BD465DF8047BEE
:10529000704700BF003C024080B489B000AF786026
:1052A00039600023FB6100237B6100233B61002305
:1052B000BB610023FB6169E10122FB6902FA03F390
:1052C0007B613B681B687A6913403B613A697B6983
:1052D0009A4240F058813B685B6803F00303012B5E
:1052E00005D03B685B6803F00303022B30D17B6879
:1052F0009B68BB61FB695B00032202FA03F3DB439B
:10530000BA691340BB613B68DA68FB695B0002FA6B
:1053100003F3BA691343BB617B68BA699A607B681F
:105320005B68BB610122FB6902FA03F3DB43BA69E4
:105330001340BB613B685B681B0903F00102FB691A
:1053400002FA03F3BA691343BB617B68BA695A6016
:105350003B685B6803F00303032B17D07B68DB68B3
:10536000BB61FB695B00032202FA03F3DB43BA690A
:105370001340BB613B689A68FB695B0002FA03F368
:10538000BA691343BB617B68BA69DA603B685B68E2
:1053900003F00303022B23D1FB69DA087B68083290
:1053A00053F82230BB61FB6903F007039B000F2217
:1053B00002FA03F3DB43BA691340BB613B681A6925
:1053C000FB6903F007039B0002FA03F3BA69134376
:1053D000BB61FB69DA087B680832B96943F82210BF
:1053E0007B681B68BB61FB695B00032202FA03F365
:1053F000DB43BA691340BB613B685B6803F003029F
:10540000FB695B0002FA03F3BA691343BB617B6873
:10541000BA691A603B685B6803F44033002B00F004
:10542000B280604B5B6C5F4A43F4804353645D4BD6
:105430005B6C03F48043FB60FB685B4AFB699B0881
:10544000023352F82330BB61FB6903F003039B0076
:105450000F2202FA03F3DB43BA691340BB617B6896
:10546000524A93422BD07B68514A934225D07B68A5
:10547000504A93421FD07B684F4A934219D07B68B1
:105480004E4A934213D07B684D4A93420DD07B68BD
:105490004C4A934207D07B684B4A934201D1072381
:1054A0000EE008230CE006230AE0052308E00423AD
:1054B00006E0032304E0022302E0012300E00023CE
:1054C000FA6902F0030292009340BA691343BB6188
:1054D0003549FB699B080233BA6941F823203B4BED
:1054E0009B68BB613B69DB43BA691340BB613B68A6
:1054F0005B6803F48013002B03D0BA693B69134344
:10550000BB61324ABB699360304BDB68BB613B696E
:10551000DB43BA691340BB613B685B6803F400136B
:10552000002B03D0BA693B691343BB61274ABB69AF
:10553000D360264B5B68BB613B69DB43BA691340B0
:10554000BB613B685B6803F40033002B03D0BA698E
:105550003B691343BB611D4ABB6953601B4B1B680E
:10556000BB613B69DB43BA691340BB613B685B6865
:1055700003F48033002B03D0BA693B691343BB614A
:10558000124ABB691360FB690133FB61FB690F2B96
:105590007FF692AE00BF00BF2437BD465DF8047BA6
:1055A000704700BF00380240003801400000024050
:1055B0000004024000080240000C024000100240BB
:1055C0000014024000180240001C0240003C014050
:1055D00080B487B000AF7860396000233B6100235E
:1055E000FB600023BB6000237B61CDE001227B696F
:1055F00002FA03F33B613A683B691340FB60FA68C7
:105600003B699A4240F0BD80654A7B699B08023342
:1056100052F82330BB607B6903F003039B000F2229
:1056200002FA03F3BA681340BB607B685D4A934299
:105630002BD07B685C4A934225D07B685B4A9342BF
:105640001FD07B685A4A934219D07B68594A9342CB
:1056500013D07B68584A93420DD07B68574A9342D7
:1056600007D07B68564A934201D107230EE00823F6
:105670000CE006230AE0052308E0042306E00323E8
:1056800004E0022302E0012300E000237A6902F033
:10569000030292009340BA689A4232D1494B1A6889
:1056A000FB68DB43474913400B60464B5A68FB6875
:1056B000DB43444913404B60424BDA68FB68DB43F1
:1056C00040491340CB603F4B9A68FB68DB433D4940
:1056D00013408B607B6903F003039B000F2202FAE7
:1056E00003F3BB602E4A7B699B08023352F82310F8
:1056F000BB68DA432A487B699B080A40023340F8BA
:1057000023207B681A687B695B00032101FA03F39D
:10571000DB431A407B681A607B69DA087B680832D1
:1057200053F822107B6903F007039B000F2202FA53
:1057300003F3DB437A69D20819407B68083243F8E7
:1057400022107B68DA687B695B00032101FA03F3AE
:10575000DB431A407B68DA607B685A6801217B6909
:1057600001FA03F3DB431A407B685A607B689A684E
:105770007B695B00032101FA03F3DB431A407B687A
:105780009A607B6901337B617B690F2B7FF62EAFBB
:1057900000BF00BF1C37BD465DF8047B704700BFEB
:1057A00000380140000002400004024000080240AE
:1057B000000C024000100240001402400018024099
:1057C000001C0240003C014080B483B000AF786010
:1057D0000B467B8013467B707B78002B03D07A8846
:1057E0007B689A6103E07B881A047B689A6100BF3A
:1057F0000C37BD465DF8047B704780B485B000AFC0
:1058000078600B467B807B685B69FB607A88FB680D
:1058100013401A04FB68D9437B880B401A437B680A
:105820009A6100BF1437BD465DF8047B70470000E5
:1058300080B582B000AF00237B60234B1B6C224AF3
:1058400043F080531364204B1B6C03F080533B6088
:105850003B681E4B1B681D4A43F480331360FEF700
:105860008DFC786009E0FEF789FC02467B68D31A5C
:10587000B3F57A7F01D9032322E0144B5B6803F46C
:105880008033B3F5803FEED1104B1B680F4A43F4D1
:1058900000331360FEF772FC786009E0FEF76EFCDF
:1058A00002467B68D31AB3F57A7F01D9032307E058
:1058B000064B5B6803F40033B3F5003FEED10023E1
:1058C00018460837BD4680BD0038024000700040D1
:1058D00080B586B000AF78600023FB757B68002B35
:1058E00001D1012391E27B681B6803F00103002BC7
:1058F00000F08780964B9B6803F00C03042B0CD0C0
:10590000934B9B6803F00C03082B12D1904B5B6800
:1059100003F48003B3F5800F0BD18D4B1B6803F4A8
:105920000033002B6CD07B685B68002B68D10123AF
:105930006BE27B685B68B3F5803F06D1844B1B68E4
:10594000834A43F4803313602EE07B685B68002B4E
:105950000CD17F4B1B687E4A23F4803313607C4B51
:105960001B687B4A23F4802313601DE07B685B681F
:10597000B3F5A02F0CD1764B1B68754A43F48023F6
:105980001360734B1B68724A43F4803313600BE05F
:105990006F4B1B686E4A23F4803313606C4B1B689B
:1059A0006B4A23F4802313607B685B68002B13D061
:1059B000FEF7E4FB386108E0FEF7E0FB02463B69D6
:1059C000D31A642B01D903231FE2614B1B6803F434
:1059D0000033002BF0D014E0FEF7D0FB386108E074
:1059E000FEF7CCFB02463B69D31A642B01D9032393
:1059F0000BE2574B1B6803F40033002BF0D100E09F
:105A000000BF7B681B6803F00203002B69D0504B7A
:105A10009B6803F00C03002B0BD04D4B9B6803F0ED
:105A20000C03082B1CD14A4B5B6803F48003002B4A
:105A300016D1474B1B6803F00203002B05D07B688F
:105A4000DB68012B01D00123DFE1414B1B6823F010
:105A5000F8027B681B69DB003D4913430B6040E0A3
:105A60007B68DB68002B23D0394B1B68384A43F036
:105A700001031360FEF782FB386108E0FEF77EFB4E
:105A800002463B69D31A022B01D90323BDE1304BF7
:105A90001B6803F00203002BF0D02D4B1B6823F092
:105AA000F8027B681B69DB00294913430B6018E08F
:105AB000274B1B68264A23F001031360FEF75EFBA9
:105AC000386108E0FEF75AFB02463B69D31A022B05
:105AD00001D9032399E11E4B1B6803F00203002B3D
