:020000040800F2
:1000000000000420695E0008315A0008375A0008D1
:100010003D5A0008435A0008495A000800000000F1
:100020000000000000000000000000004F5A00081F
:100030005D5A0008000000006B5A0008795A000859
:10004000B95E0008B95E0008B95E0008B95E000834
:10005000B95E0008B95E0008B95E0008B95E000824
:10006000B95E0008B95E0008B95E0008855A00084C
:10007000995A0008B95E0008B95E0008B95E000828
:10008000AD5A0008B95E0008B95E0008B95E000804
:10009000B95E0008B95E0008B95E0008B95E0008E4
:1000A000B95E0008C15A0008DD5A0008B95E0008B0
:1000B000F55A00081D5B0008455B0008B95E0008A2
:1000C000B95E0008B95E0008B95E0008B95E0008B4
:1000D000B95E0008615B0008B95E0008755B000846
:1000E000B95E0008B95E0008B95E0008895B0008C7
:1000F000A55B0008E55B0008B95E0008B95E000872
:10010000B95E0008B95E0008015C0008B95E00082D
:10011000B95E0008B95E0008B95E00086D5C0008B1
:10012000C15C0008D55C0008E95C0008B95E000805
:10013000B95E0008000000000000000000000000A0
:10014000000000000000000000000000B95E000890
:10015000B95E0008B95E0008B95E0008B95E000823
:10016000B95E0008B95E0008B95E0008B95E000813
:10017000B95E0008B95E0008000000000000000041
:10018000B95E0008B95E0008B95E0008B95E0008F3
:10019000B95E0008B95E000800000000B95E000802
:1001A000000000000000000000000000B95E000830
:1001B000B95E0008B95E0008000000000000000001
:1001C000000000000000000000000000000000002F
:1001D000000000000000000000000000B95E000800
:1001E00010B5054C237833B9044B13B10448AFF371
:1001F00000800123237010BD3001002000000000AA
:1002000020C1000808B5034B1BB103490348AFF3F5
:10021000008008BD000000003401002020C100085B
:1002200053B94AB9002908BF00281CBF4FF0FF315D
:100230004FF0FF3000F074B9ADF1080C6DE904CE59
:1002400000F006F8DDF804E0DDE9022304B07047B1
:100250002DE9F047089D04468E46002B4DD18A4279
:10026000944669D9B2FA82F252B101FA02F3C2F1AC
:10027000200120FA01F10CFA02FC41EA030E94403D
:100280004FEA1C48210CBEFBF8F61FFA8CF708FB5E
:1002900016E341EA034306FB07F199420AD91CEB36
:1002A000030306F1FF3080F01F81994240F21C8168
:1002B000023E63445B1AA4B2B3FBF8F008FB1033B0
:1002C00044EA034400FB07F7A7420AD91CEB0404E5
:1002D00000F1FF3380F00A81A74240F207816444B5
:1002E000023840EA0640E41B00261DB1D44000233A
:1002F000C5E900433146BDE8F0878B4209D9002D9E
:1003000000F0EF800026C5E9000130463146BDE827
:10031000F087B3FA83F6002E4AD18B4202D3824291
:1003200000F2F980841A61EB030301209E46002D40
:10033000E0D0C5E9004EDDE702B9FFDEB2FA82F295
:10034000002A40F09280A1EB0C014FEA1C471FFAF3
:100350008CFE0126200CB1FBF7F307FB131140EADA
:1003600001410EFB03F0884208D91CEB010103F1A7
:10037000FF3802D2884200F2CB804346091AA4B269
:10038000B1FBF7F007FB101144EA01440EFB00FE3D
:10039000A64508D91CEB040400F1FF3102D2A645A2
:1003A00000F2BB800846A4EB0E0440EA03409CE741
:1003B000C6F12007B34022FA07FC4CEA030C20FAEE
:1003C00007F401FA06F31C43F9404FEA1C4900FA0E
:1003D00006F3B1FBF9F8200C1FFA8CFE09FB18118B
:1003E00040EA014108FB0EF0884202FA06F20BD9FE
:1003F0001CEB010108F1FF3A80F08880884240F24E
:100400008580A8F102086144091AA4B2B1FBF9F091
:1004100009FB101144EA014100FB0EFE8E4508D98C
:100420001CEB010100F1FF346CD28E456AD9023811
:10043000614440EA0840A0FB0294A1EB0E01A142F6
:10044000C846A64656D353D05DB1B3EB080261EB64
:100450000E0101FA07F722FA06F3F1401F43C5E93E
:10046000007100263146BDE8F087C2F12003D84074
:100470000CFA02FC21FA03F3914001434FEA1C47B6
:100480001FFA8CFEB3FBF7F007FB10360B0C43EAA8
:10049000064300FB0EF69E4204FA02F408D91CEB58
:1004A000030300F1FF382FD29E422DD90238634456
:1004B0009B1B89B2B3FBF7F607FB163341EA0341F6
:1004C00006FB0EF38B4208D91CEB010106F1FF3845
:1004D00016D28B4214D9023E6144C91A46EA00463C
:1004E00038E72E46284605E70646E3E61846F8E6CE
:1004F0004B45A9D2B9EB020864EB0C0E0138A3E717
:100500004646EAE7204694E74046D1E7D0467BE7F7
:10051000023B614432E7304609E76444023842E76F
:10052000704700BF80B483B000AF7860084B0022F2
:100530001A60074B0222DA60054A7B685360044B5D
:1005400001229A6000BF0C37BD465DF8047B7047FE
:1005500050010020B0B586B000AFF8607A603B6013
:100560000B46FB72B86AFFF7DDFF06F039FB1E4948
:100570001E4806F0A5FC0346002B2ED10023FB7578
:100580003B68022B02D10423FB7504E03B68012B7E
:1005900001D10223FB750023BB7517E0BB7D9B00D7
:1005A000FA6813441B6800221C46154622462B4657
:1005B0007968386806F0BAFA0346002B0FD1FB7D44
:1005C0007A6813447B60BB7D0133BB75BA7DFB7ACF
:1005D0009A42E3D306F026FB02E000BF00E000BF32
:1005E0001837BD46B0BD00BF4C01002050010020AF
:1005F00080B487B000AFF8607A603B600B46FB7256
:100600000023FB7500233B613B68022B02D10423CE
:10061000FB7504E03B68012B01D10223FB7500232D
:10062000BB820FE07B681B683B61BB8A9B00FA685A
:1006300013443A691A60FB7D7A6813447B60BB8A75
:100640000133BB82FB7A9BB2BA8A9A42EAD300BFDB
:1006500000BF1C37BD465DF8047B704780B483B093
:1006600000AF0346FB80094B1B6800225A6200BFA3
:10067000064B1B685A6AFB889A42F9D300BF00BF39
:100680000C37BD465DF8047B704700BF5C05002059
:1006900080B582B000AF0346FB71FB79022B02DC10
:1006A000002B2CDC64E0043B012B61D800220321E9
:1006B0000B2005F082FD0B2005F09BFD012203219C
:1006C000102005F07AFD102005F093FD0022032193
:1006D000382005F072FD382005F08BFD0122032142
:1006E000392005F06AFD392005F083FD0022012143
:1006F000192005F062FD192005F07BFD39E001228B
:1007000000213A2005F059FD3A2005F072FD012242
:100710000021252005F051FD252005F06AFD01226C
:100720000221372005F049FD372005F062FD002247
:1007300003210B2005F041FD0B2005F05AFD01229D
:100740000321102005F039FD102005F052FD002294
:100750000321382005F031FD382005F04AFD012243
:100760000321392005F029FD392005F042FD00E084
:1007700000BF00BF0837BD4680BD80B500AF002276
:1007800001210B2005F019FD0B2005F032FD0022A0
:1007900001210C2005F011FD0C2005F02AFD00229E
:1007A0000121102005F009FD102005F022FD012295
:1007B0000121382005F001FD382005F01AFD012245
:1007C0000121392005F0F9FC392005F012FD002245
:1007D00001213A2005F0F1FC3A2005F00AFD002243
:1007E0000121252005F0E9FC252005F002FD00226D
:1007F0000221372005F0E1FC372005F0FAFC00BFAC
:1008000080BD000080B582B000AF03463960FB7147
:10081000FB79002B14BF01230023DBB20A21184609
:1008200000F01EF91E4B1B88184600F0C5F81D4A43
:100830003B68136001221921386800F047F803462D
:10084000194A136000221921386800F03FF8034666
:10085000164A1360164808F0E5FEFB79002B03D01A
:10086000144808F0DFFE02E0134808F0DBFE134BEB
:1008700001221A70124B1B78002B14BF0123002396
:10088000DBB283F00103DBB203F00103DAB20D4BFC
:100890001A700D4B00221A7000BF0837BD4680BD8C
:1008A000D2010020C4010020CC010020C80100209A
:1008B000A8050020780400202C040020C00100209E
:1008C000C2010020C1010020C301002080B485B016
:1008D00000AF78600B467B8013467B707B78002BE3
:1008E0000FD07A887B681344B3F5003F05D37A882C
:1008F0007B681344A3F5003312E07A887B681344C5
:100900000EE07B887A689A4207D87A887B68D31A87
:10091000FB60FB68C3F5003302E07B887A68D31A7A
:1009200018461437BD465DF8047B704780B582B029
:1009300000AF0346FB71054B1B78002B02D0044827
:1009400008F070FE00BF0837BD4680BDC001002022
:100950008C06002080B582B000AF0346FB71FB79A6
:10096000002B03D00D4808F0D5FE02E00C4808F03B
:10097000D1FE0C4808F0CEFE0B4B00221A700B4B38
:1009800000221A700A4B40F2DC521A80094B0022F6
:100990001A8000BF0837BD4680BD00BF7804002024
:1009A0002C040020A8050020C0010020C301002065
:1009B000D2010020D001002080B487B000AF0346F0
:1009C000FB80234B7B61234B1B885B089BB207EEAC
:1009D000903AF8EEE77AC7ED047A1F4B1B7807EEE2
:1009E000903AF8EEE77A97ED047A67EE277AC7ED4A
:1009F000047AFB8807EE903AB8EEE77AD7ED046AFE
:100A0000C6EE877AC7ED047AF7EE006A97ED047AAE
:100A1000C6EE877AFCEEE77A17EE903AFB600F4B52
:100A20001B6800225A620D4B1B689B6A01337A696E
:100A3000B2FBF3F2FB68B2FBF3F2084B1B68013A1E
:100A4000DA6200BF1C37BD465DF8047B704700BF0B
:100A500000F36F063400002036000020C40400209C
:100A600080B485B000AF03460A46FB711346BB80D5
:100A70000023FB60194BFB60194B1B6800225A6274
:100A8000184B1B6800225A62FB79002B0ED0144BC6
:100A90001B689B6A0133FA68B2FBF3F2BB88B2FBB6
:100AA000F3F20F4B1B68013ADA620DE00D4B1B6845
:100AB0009B6A0133FA68B2FBF3F2BB88B2FBF3F234
:100AC000084B1B68013ADA62074ABB88138000BFF3
:100AD0001437BD465DF8047B704700BF00F36F0616
:100AE000780400202C040020D001002080B483B0C2
:100AF00000AF0346FB80FB885A1E044B1B68DA627A
:100B000000BF0C37BD465DF8047B7047A805002088
:100B100080B483B000AF78607B68C3F500331846BB
:100B20000C37BD465DF8047B7047000080B485B08B
:100B300000AF78600B467B800023FB60144BFB60AA
:100B40007B681B78002B0ED0124B1B689B6A01330D
:100B5000FA68B2FBF3F27B88B2FBF3F20D4B1B6831
:100B6000013ADA620DE00C4B1B689B6A0133FA68AC
:100B7000B2FBF3F27B88B2FBF3F2074B1B68013A3E
:100B8000DA6200BF1437BD465DF8047B704700BFD2
:100B900000F36F06780400202C04002080B485B098
:100BA00000AF78600B46FB700023FB7307E0FB7B14
:100BB0007A68134400221A70FB7B0133FB73FA7BC3
:100BC000FB789A42F3D300BF00BF1437BD465DF8EF
:100BD000047B704780B485B000AF78600B46FB7033
:100BE0001346BB70BB78FB7307E0FB7B7A6813444A
:100BF00000221A70FB7B0133FB73FA7BFB789A426D
:100C0000F3D300BF00BF1437BD465DF8047B7047C7
:100C10002DE9B04F86B000AF78600B467B8013465D
:100C20007B707B88DAB27B78D31ADBB2013B7B73B3
:100C30004FF000024FF00003C7E904237B78FB81EB
:100C400012E0FB899B007A6813441B6800221C4653
:100C50001546D7E9042312EB040843EB0509C7E95D
:100C60000489FB890133FB817B7B9BB2FA899A4221
:100C7000E7D97A887B785B00D31ADA179A469346CD
:100C800052465B46D7E90401FFF7CAFA02460B4613
:100C90001346BB60BB6818461837BD46BDE8B08F29
:100CA00080B485B000AF786039607B681B68FB60FA
:100CB0003B681A687B681A603B68FA681A6000BF74
:100CC0001437BD465DF8047B704780B584B000AF33
:100CD00078600B467B802CE00023FB730023BB6015
:100CE0001DE0BB689B007A6813441A68BB68013337
:100CF0009B0079680B441B689A420DD9BB689B0026
:100D00007A68D018BB6801339B007A68134419468F
:100D1000FFF7C6FF0123FB73BB680133BB607B8811
:100D2000BA689A42DDDBFB7B83F00103DBB2002B68
:100D300005D17B885A1E7A80002BCDD100E000BF00
:100D400000BF1037BD4680BD80B582B000AF05F052
:100D5000B4F800F0E1FB01F01FF800F0CBFF00F069
:100D60008DFF00F053FF00F0A1FC00F061FC00F0EB
:100D7000DBFC00F027FD00F013FE00F047FE00F062
:100D80007BFE00F0BDFD00F01DFF00F0F7FE00F05F
:100D900069FD00F095FE00F0B7FE00F02BFC454B1E
:100DA0009B68444A43F48053936003F0D9FF424860
:100DB00006F07EFC414B1B78002B0AD0404B1B6891
:100DC00000225A6204F070F90346002B01D001F0B2
:100DD00071F83C4B1B78002B00F023813A4B1B88A9
:100DE00001339AB2384B1A8002F0D2FE374B1B788F
:100DF000012B0BD0354B1B78022B07D0334B1B78C4
:100E0000032B03D0314B1B78042B46D1304B1B787E
:100E1000002B42D00023FB7110E0FB792D4A1278A1
:100E200011462D4AD25C2D4B5A54FB790133FB718C
:100E3000284B1B780133DAB2264B1A70FB79022B50
:100E4000EBD9234B00221A70254B1B780133DAB201
:100E5000234B1A70224B1B789AB2224B1A80224BDA
:100E60001B680133204A1360204B1B8801339AB260
:100E70001E4B1A801A4B1B780A2B0ED1184B0022DE
:100E80001A70144B01221A70194B01221A70194B57
:100E90001B8801339AB2174B1A800C4B1B78052B19
:100EA00040F0BC800A4B1B78002B00F0A68000238A
:100EB000BB7132E0002004E0D4010020C50B00200B
:100EC00040060020C40B00207A090020CD0B002032
:100ED00062010020000000205C0A00206C0100205C
:100EE00069010020420A0020A009002074090020A6
:100EF0006101002088090020BB798D4A12781146D3
:100F00008C4AD25C8C4B5A54BB790133BB71884BF1
:100F10001B780133DAB2864B1A70BB79022BEBD9FE
:100F2000864B00221A70864B1B780133DAB2844B51
:100F30001A70834B1B789AB2824B1A80824B1B68C3
:100F40000133814A1360814B1B8801339AB27F4B76
:100F50001A807B4B1B78322B4FD17D4808F0DAFB8F
:100F6000774B1B789BB21A46520013449BB219462A
:100F7000714803F0DFFD724B1B789BB21946754830
:100F8000FFF7A3FE6E4B1B789BB20C2219467148EB
:100F9000FFF73EFE0346704A1360694B00221A7049
:100FA000634B00221A706D4B00221A7021216C488D
:100FB000FFF7F4FD684B1B68DAB2694B5A70664B59
:100FC0001B681B0ADAB2664B9A70634B1B681B0CDA
:100FD000DAB2634BDA70624B5A78614B1A71604B2C
:100FE0009A785F4B5A715E4BDA785D4B9A715D4B24
:100FF00001221A705C4B01221A705B4B1B78002B8C
:101000000CD0584B1B78002B08D1584B00221A707B
:10101000574B01221A70544B00221A70554B002274
:101020001A70554B1B78002B2DD0504B1B78013B71
:10103000082B24D801A252F823F000BF7310000837
:10104000791000087F1000087F1000087F1000084A
:10105000671000087F100008611000086D1000087C
:1010600002F008FE0CE002F0A3FE09E002F044FEEC
:1010700006E002F0E1FE03E002F0DEFE00E000BF69
:101080003D4B00221A703D4B1B78002B2AD0374B6A
:101090001B78013B082B21D801A252F823F000BF96
:1010A000D1100008D7100008DD100008DD1000087E
:1010B000DD100008DD100008DD100008C510000874
:1010C000CB10000802F0D6FD09E002F015FE06E0A4
:1010D00003F050F803E003F0EBF900E000BF274B0A
:1010E00000221A70264B1B78002B6CD0144B1B78F7
:1010F000002B49D01B4B1B78002B45D10F4B0022F6
:101100001A700F4B1B781A4652001344DBB201339E
:10111000DBB21A4621211248FFF75CFD114B012278
:101120001A70074B00221A70164B01221A704AE0FF
:10113000710900205C0A0020640A0020620100207E
:1011400069010020420A0020A00900207409002043
:10115000F4050020FC0A0020B00900208D010020C9
:101160006C01002061010020E0090020CD0B00206F
:10117000CC0B0020C40B0020C60B0020C70B0020A6
:10118000D7090020000000209C4B1B78002B1AD1AF
:101190009B4B1B78002B16D19A4B00221A709A4B4E
:1011A00000221A70994B01221A70994B00221A7072
:1011B000984B00221A70984B00221A60FFF7DDFA54
:1011C000964808F0A7FA964B1B78002B1FD0954B3A
:1011D0001B78002B1BD0944B1B78052B17D1904B01
:1011E00000221A708F4B00221A708F4BFF221A7048
:1011F000844B04221A70854B02221A708B4B0122F9
:101200001A700420FFF744FA894808F00BFA7D4B66
:101210001B78052B39D1824B1B78002B13D0814BC7
:101220001B78002B0FD07E4B00221A707D4B0022C2
:101230001A700520FFF72CFA7E4B1B6800225A62B9
:101240007C4808F0EFF97C4B1B78002B1DD07A4BC3
:1012500000221A7005227949794808F08FFF01228F
:101260004FF40061774806F09FF96A4B01221A702B
:101270000A20FFF7F3F900224FF40061714806F0ED
:1012800093F96C4B1B6800225A626F4B1B78002B42
:1012900000F081806C4B00221A70644B1B78002B8D
:1012A0002AD06A4B00221A80694B00221A8005223C
:1012B0006249634808F062FF01224FF4006161480F
:1012C00006F072F9534B01221A700A20FFF7C6F993
:1012D00000224FF400615B4806F066F9544B1B682E
:1012E00000225A625B4808F09DF9504B00221A70A8
:1012F0004A4808F097F948E005225049504808F05C
:101300003DFF01224FF400614E4806F04DF9414B7C
:1013100001221A700A20FFF7A1F900224FF40061A0
:10132000484806F041F93D4808F0F4F94A4B1B885B
:101330001A4613461B049B1A1A46484B1A60374B31
:101340001B685A6A454B1B681344444A1360424B5E
:1013500000221A80314B1B6800225A622F4808F085
:1013600061F903F091FB03463D4A1360304808F0F1
:1013700031F92F4B1B683A4A1268DA622C4B1B6812
:1013800000225A622A4808F04DF9364B1B88013377
:101390009AB2344B1A80344B1B78002B09D0334B54
:1013A0001B7883F00103DBB2002B02D0304808F039
:1013B00039F9304B1B78002B77D02F4B1B881A46FE
:1013C0002E4B1B8819462E4B1B880B449A425BDD23
:1013D0002C4B1878294B1A88294B1B8813449BB235
:1013E0001946FFF73DFB234B00221A70204B1B6868
:1013F00000225A621E4808F015F956E069010020E3
:1014000061010020CD0B00208D010020CC0B0020BD
:10141000D709002062010020A0090020D806002082
:10142000DB090020DC090020B2000020DA090020DE
:1014300024070020F4050020DE09002064010020BC
:101440007007002000000240DD090020780900201C
:101450007A09002010050020800900209009002052
:10146000980900207E090020C0010020C30100204F
:10147000C4040020CA0B0020D2010020D0010020AB
:1014800034000020B00000201B4B1B781B4A128840
:1014900011461846FFF7E4FA194808F03BF9194BD2
:1014A00000221A70184B01221A70184B1B78002B5F
:1014B0003FF47DAC164B1B88322B0BD80E4B1B78A0
:1014C0001846FFF747FA134808F024F90F4B00229B
:1014D0001A706CE4084B1A780D4B1B88323B9BB298
:1014E00019461046FFF7BCFA0A4B1B6800225A62E5
:1014F000064B00221A705AE4B0000020D2010020EE
:10150000C4040020CA0B0020C3010020CB0B002024
:10151000D00100208C06002080B594B000AF07F108
:1015200020033022002118460AF0F4F807F10C03DA
:1015300000221A605A609A60DA601A612B4B1B6CA9
:101540002A4A43F080531364284B1B6C03F08053EA
:10155000BB60BB68264B1B68254A43F440431360BD
:10156000234B1B6803F440437B607B6809233B6289
:101570004FF480337B6201237B630223BB634FF410
:101580008003FB6308233B64D8237B640223BB6492
:101590000223FB6407F12003184606F0E9F803462E
:1015A000002B01D003F02AFE06F092F80346002B30
:1015B00001D003F023FE0F23FB6002233B610023D5
:1015C0007B614FF4A053BB614FF4A053FB6107F163
:1015D0000C030721184606F06FFB0346002B01D0D1
:1015E00003F00CFE00BF5037BD4680BD00380240FE
:1015F0000070004080B500AF0B4B0C4A1A600A4BDC
:1016000002225A60084B40F6FF72DA60064B40F641
:10161000FF729A60044805F0FAFF0346002B01D0E0
:1016200003F0ECFD00BF80BDD4010020003000407D
:1016300080B500AF1B4B1C4A1A601A4B4FF48272E4
:101640005A60184B00229A60164B4FF4E062DA6041
:10165000144B02221A61134B00225A61114B4FF4B2
:1016600000729A610F4B3822DA610E4B00221A6227
:101670000C4B00225A620B4B00229A62094B072244
:10168000DA62084B00221A63064B08225A630548A7
:1016900007F080F80346002B01D003F0AFFD00BF38
:1016A00080BD00BFE4010020003C004080B500AFD9
:1016B0001B4B1C4A1A601A4B4FF482725A60184B2B
:1016C00000229A60164B4FF4E062DA60144B02225B
:1016D0001A61134B00225A61114B4FF400729A6148
:1016E0000F4B3822DA610E4B00221A620C4B00229B
:1016F0005A620B4B00229A62094B0722DA62084BAE
:1017000000221A63064B08225A63054807F042F884
:101710000346002B01D003F071FD00BF80BD00BF68
:10172000480200200034014080B588B000AF07F1C6
:10173000100300221A605A609A60DA603B1D002292
:101740001A605A609A601E4B4FF080421A601C4B20
:101750006B225A601A4B00229A60194B46F2A7126C
:10176000DA60174B00221A61154B00229A61144867
:1017700007F068FE0346002B01D003F03FFD4FF455
:1017800080533B6107F1100319460D4808F0FAF841
:101790000346002B01D003F031FD00237B600023C2
:1017A000FB603B1D1946064808F028FB0346002B4A
:1017B00001D003F023FD00BF2037BD4680BD00BF30
:1017C0002C04002080B588B000AF07F11003002280
:1017D0001A605A609A60DA603B1D00221A605A60F3
:1017E0009A601E4B1E4A1A601C4B40F237425A60E8
:1017F0001A4B00229A60194B43F67F62DA60174B4E
:1018000000221A61154B00229A61144807F01AFE53
:101810000346002B01D003F0F1FC4FF480533B61F1
:1018200007F1100319460D4808F0ACF80346002BE9
:1018300001D003F0E3FC00237B600023FB603B1D31
:101840001946064808F0DAFA0346002B01D003F0E7
:10185000D5FC00BF2037BD4680BD00BF7804002006
:101860000004004080B588B000AF07F110030022EB
:101870001A605A609A60DA603B1D00221A605A6052
:101880009A601D4B1D4A1A601B4B42F62F225A606C
:10189000194B00229A60184BC822DA60164B0022BE
:1018A0001A61154B00229A61134807F0CBFD0346DD
:1018B000002B01D003F0A2FC4FF480533B6107F1F1
:1018C000100319460C4808F05DF80346002B01D0C0
:1018D00003F094FC00237B600023FB603B1D194652
:1018E000054808F08BFA0346002B01D003F086FC74
:1018F00000BF2037BD4680BDC40400200008004062
:1019000080B588B000AF07F1100300221A605A605A
:101910009A60DA603B1D00221A605A609A601E4B82
:101920001E4A1A601C4B42F62F225A601A4B0022A4
:101930009A60194B4FF0FF32DA60174B00221A61A0
:10194000154B00229A61144807F07CFD0346002BDA
:1019500001D003F053FC4FF480533B6107F11003B7
:1019600019460D4808F00EF80346002B01D003F08D
:1019700045FC00237B600023FB603B1D19460648A5
:1019800008F03CFA0346002B01D003F037FC00BFFF
:101990002037BD4680BD00BF10050020000C004070
:1019A00080B584B000AF3B1D00221A605A609A6077
:1019B000144B154A1A60134B6B225A60114B0022CC
:1019C0009A60104B4FF6FF72DA600E4B00229A615C
:1019D0000C4807F037FD0346002B01D003F00EFC46
:1019E00000237B600023FB603B1D1946054808F07F
:1019F00005FA0346002B01D003F000FC00BF1037AE
:101A0000BD4680BD5C0500200010004080B584B05C
:101A100000AF3B1D00221A605A609A60144B154AB1
:101A20001A60134B6B225A60114B00229A60104BC4
:101A30006322DA600E4B00229A610D4807F002FD26
:101A40000346002B01D003F0D9FB00237B60002369
:101A5000FB603B1D1946064808F0D0F90346002BF1
:101A600001D003F0CBFB00BF1037BD4680BD00BFE7
:101A7000A80500200014004080B500AF0E4B0F4AAF
:101A80001A600D4B45F25F425A600B4B00229A6080
:101A9000094B4FF6FF72DA60074B00221A61064BC2
:101AA00000229A61044807F0CDFC0346002B01D0C8
:101AB00003F0A4FB00BF80BDF405002000440140FA
:101AC00080B500AF0E4B0F4A1A600D4B42F62F2225
:101AD0005A600B4B00229A60094B47F23052DA6091
:101AE000074B00221A61064B00229A61044807F056
:101AF000A9FC0346002B01D003F080FB00BF80BD92
:101B0000400600200048014080B584B000AF3B464D
:101B100000221A605A609A60DA60164B164A1A6000
:101B2000144B42F62F225A60124B00229A60114B3E
:101B30004FF4FA72DA600F4B00221A610D4B00224B
:101B40009A610C4807F07EFC0346002B01D003F09D
:101B500055FB4FF480533B603B461946054807F060
:101B600011FF0346002B01D003F048FB00BF1037E4
:101B7000BD4680BD8C0600200018004080B500AF37
:101B80000E4B0F4A1A600D4B40F237425A600B4B16
:101B900000229A60094B4FF6FF72DA60074B002271
:101BA0001A61064B00229A61044807F04BFC034679
:101BB000002B01D003F022FB00BF80BDD80600201F
:101BC000001C004080B500AF0E4B0F4A1A600D4B51
:101BD00045F25F425A600B4B00229A60094B4FF668
:101BE000FF72DA60074B00221A61064B00229A61ED
:101BF000044807F027FC0346002B01D003F0FEFA4F
:101C000000BF80BD240700200020004080B500AF49
:101C1000184B1B689A68174B1B6842F001029A60C8
:101C2000144B154A1A60134B4FF416425A60114B6D
:101C300000229A600F4B0022DA600E4B00221A61DC
:101C40000C4B0C225A610B4B00229A61094B00226B
:101C5000DA61084B00221A62064B00225A620548DC
:101C600008F078F90346002B01D003F0C7FA00BF53
:101C700080BD00BF700700200010014080B500AF9C
:101C8000194B1B689A68184B1B6842F001029A6056
:101C9000164B174A1A60154B4FF4E1325A60134B3A
:101CA00000229A60114B0022DA60104B00221A6168
:101CB0000E4B0C225A610D4B00229A610B4B0022F5
:101CC000DA610A4B00221A62084B00225A62002392
:101CD00000220021054809F08BFC0346002B01D0AF
:101CE00003F08CFA00BF80BD70070020F8070020C9
:101CF0000048004080B582B000AF264B1B6B254AE0
:101D000043F400131363234B1B6B03F400137B603A
:101D10007B68204B1B6B1F4A43F4800313631D4BEE
:101D20001B6B03F480033B603B68002201210B2006
:101D300004F043FA0B2004F05CFA002201210C208D
:101D400004F03BFA0C2004F054FA00220121102088
:101D500004F033FA102004F04CFA0122012138205B
:101D600004F02BFA382004F044FA01220121392032
:101D700004F023FA392004F03CFA002201213A2031
:101D800004F01BFA3A2004F034FA00BF0837BD46CD
:101D900080BD00BF0038024080B58AB000AF07F1B7
:101DA000140300221A605A609A60DA601A613D4B8F
:101DB0001B6B3C4A43F0100313633A4B1B6B03F05D
:101DC00010033B613B69374B1B6B364A43F0800382
:101DD0001363344B1B6B03F08003FB60FB68314BD8
:101DE0001B6B304A43F0010313632E4B1B6B03F054
:101DF0000103BB60BB682B4B1B6B2A4A43F00403F7
:101E00001363284B1B6B03F004037B607B68254B3B
:101E10001B6B244A43F002031363224B1B6B03F03A
:101E200002033B603B6800224FF407611E4805F047
:101E3000BBFB002220211D4805F0B6FB0022032138
:101E40001B4805F0B1FB4FF407637B610123BB61C5
:101E50000023FB6100233B6207F11403194612487B
:101E600005F00AF920237B610123BB610023FB619C
:101E700000233B6207F1140319460C4805F0FCF8F7
:101E800003237B610123BB610023FB6100233B62D1
:101E900007F114031946064805F0EEF800BF28378D
:101EA000BD4680BD003802400000024000080240EC
:101EB0000004024080B586B002AFA24B1B78202BF5
:101EC00001F2638101A252F823F000BF511F000804
:101ED0005F1F00082D230008D11F00088B31000868
:101EE000DB2700082529000887290008032B0008A4
:101EF000392C00089D2C0008CB2C0008E32C00088E
:101F00008B310008F52C00083F2D0008572D0008E4
:101F10008B310008512E0008712E0008412F000857
:101F2000B92F00088B310008E32F00082930000882
:101F3000CB300008233100088B3100088B310008BA
:101F40008B3100088B3100088B3100080931000803
:101F50007D4808F04DF8FFF791FE01F016B9052213
:101F60007A497B4806F0C2FC05227A497A4806F095
:101F7000BDFC7A4B1B7883F00103DBB2002B21D030
:101F8000774B1B7883F00103DBB2002B1AD0754B23
:101F90005B6F93F83530DBB2012B13D10522724908
:101FA000704808F0EBF801224FF400616F4805F02B
:101FB000FBFA0A20FEF752FB00224FF400616B4847
:101FC00005F0F2FA0021012001F03EFB01F0DDB83E
:101FD0000121032001F038FB654B00221A80654B7C
:101FE00000221A805E4B01221A70634B00221A7085
:101FF0005A4B00221A70614B00221A70604B00226B
:102000001A70604B4F4A92E803001860043319803D
:102010005C4B9B78013B5C4A13441B7A1AB25B4BC6
:102020001A80584B5B78013B574A13441B7A9BB28A
:10203000C3F5B4739BB21AB2554B1A80534BB3F924
:102040000030B42B07D1524BB3F90030B42B02D17E
:10205000494B01221A704B4BDB78013B4D4A093347
:1020600032F813204C4B1A804B4B1B88184602F059
:10207000A9FD464BB3F900309BB205339AB2474BEA
:102080001A80474B00221A70464B00221A70464BAA
:1020900000221A70454B00221A70454B00221A701C
:1020A000444B00221A703D4B1B885B04424A82FB62
:1020B00003121A441212DB17D31A1A463F4B1A6046
:1020C0003E4B1B682D4A12781146184601F00CFC55
:1020D00003463A4A1360294B1B78384A1268114666
:1020E000184601F003F9294BB3F900305B04324A7A
:1020F00082FB03121A441212DB17D31A1A46304B12
:102100001A602F4B1B681D4A12781146184601F0C1
:10211000EBFB03462A4A13601F4B1B881A46284BC9
:102120001B681344B3F5003F4ED91B4B1B881A465E
:10213000234B1B681344A3F500331A46214B1A6046
:102140004BE000BF440A0020F807002040090020AF
:102150004802002048090020E40100208D010020F1
:102160006001002070070020640100200000024090
:10217000740900207E090020E1090020B000002041
:10218000610100204C0A0020400000203C0A002091
:102190003E0A002050000020380A0020400A00209B
:1021A000D1090020D3090020D2090020D409002041
:1021B000D5090020D6090020B7600BB6040A00201C
:1021C000F4090020100A0020494B1B881A46494B8D
:1021D0001B6813441A46484B1A60464B1B68444A16
:1021E00012889B1A1A46444B1A60444B1B78002BEA
:1021F0004DD0434BB3F900305B04424A82FB0312DB
:102200001A441212DB17D31A3F4A13603E4B1B6865
:102210001A463E4B1B781946104601F065FB0346F3
:102220001A46394B1A60384B1B68B3F5347F0CDA09
:10223000354B1B68A3F53473002BB8BF5B42C3F565
:1022400000331A46324B1A6006E02F4B1B68A3F589
:1022500034731A462E4B1A60294BB3F900300433FD
:102260005B04284A82FB03121A441212DB17D31AAA
:102270001A46284B1A60274B1B68244A12781146CD
:10228000184601F031FB0346224A136018E01C4B4C
:10229000B3F900305B041B4A82FB03121A4412128A
:1022A000DB17D31A1A461B4B1A601A4B1B68174AC6
:1022B00012781146184601F017FB0346154A1360C1
:1022C000154B02221A70154B02221A70144B012270
:1022D0001A70144B40F2DC521A800C4B1B781A46D1
:1022E000114B1B6819461046FEF78CFA00F04DBFE3
:1022F000380A0020F4090020100A0020E10900201B
:102300003E0A0020B7600BB60C0A0020B000002087
:10231000B4090020FC090020CD0B0020CC0B0020CC
:10232000CE0B0020D2010020D40B0020012102207E
:1023300001F08AF99C4B00221A809C4B00221A80E3
:102340009B4B00221A809B4B01221A709A4B002251
:102350001A709A4B00221A80994B00221A80994BCE
:1023600000221A70984B1B78002B14BF0123002306
:10237000DAB2964B1A70964B00221A700120FEF7C3
:1023800087F9944B944A92E803001860043319804B
:10239000904B9B78013B914A13441B7A1AB2824BB3
:1023A0001A808C4B5B78013B8C4A13441B7A9BB29E
:1023B000C3F5B4739BB21AB27C4B1A807A4BB3F953
:1023C0000030B42B07D1794BB3F90030B42B02D1D4
:1023D000794B01221A70744BB3F900309BB205336C
:1023E0009AB2734B1A807E4B00221A707D4B0022EA
:1023F0001A707D4B00221A70744B1B7883F0010316
:10240000DBB2002B00F00C81724BDB78013B774A8A
:10241000093332F81320764B1A80754B1B88184607
:1024200002F0D0FB624B1B885B04724A82FB0312F2
:102430001A441212DB17D31A1A466F4B1A606E4BEE
:102440001B68624A12781146184601F04DFA03469D
:10245000694A13605D4B1B78674A1268114618463B
:1024600000F044FF504BB3F900305B04614A82FB3B
:1024700003121A441212DB17D31A1A465F4B1A6062
:102480005E4B1B68514A12781146184601F02CFA2F
:1024900003465A4A1360594B1B68554A12889B1AC7
:1024A0001A46574B1A60444B1B78002B4DD03F4BBC
:1024B000B3F900305B044F4A82FB03121A44121234
:1024C000DB17D31A4F4A13604E4B1B681A463F4B1B
:1024D0001B781946104601F007FA03461A46494B85
:1024E0001A60484B1B68B3F5347F0CDA454B1B6808
:1024F000A3F53473002BB8BF5B42C3F500331A4613
:10250000414B1A6006E03F4B1B68A3F534731A4633
:102510003D4B1A60254BB3F9003004335B04354A58
:1025200082FB03121A441212DB17D31A1A46374BD6
:102530001A60364B1B68254A12781146184601F07E
:10254000D3F90346314A136018E0184BB3F9003051
:102550005B04284A82FB03121A441212DB17D31AB7
:102560001A462A4B1A60294B1B68184A12781146E2
:10257000184601F0B9F90346244A1360244B01229E
:102580001A70244B02221A70234B40F2DC521A803C
:102590000E4B1B781A46214B1B6819461046FEF756
:1025A00031F900F0EFBD00BF3C0A00203E0A0020D8
:1025B000400A002060010020E10900207409002089
:1025C0007E0900208D010020CF0B0020B0000020EC
:1025D000610100204C0A0020440A00204000002035
:1025E000D1090020D3090020D2090020500000208A
:1025F000380A0020B7600BB6040A0020F409002056
:10260000100A00200C0A0020B4090020FC09002058
:10261000CD0B0020CC0B0020D2010020D40B0020D9
:102620009F4B1B78002B00F0AD859E4BDB78013B68
:102630009D4A093332F813209C4B1A809B4B1B8810
:10264000184602F0BFFA9A4B1B885B04994A82FB3A
:1026500003121A441212DB17D31A1A46964B1A6049
:10266000954B1B688E4A12781146184601F03CF9CA
:102670000346914A13608A4B1B788F4A12681146B1
:10268000184600F033FE8D4BB3F900305B04894AE5
:1026900082FB03121A441212DB17D31A1A46884B14
:1026A0001A60874B1B687E4A12781146184601F063
:1026B0001BF90346824A1360814B1B687B4A1288D0
:1026C0009B1A1A467F4B1A607F4B1B78002B4DD00C
:1026D0007E4BB3F900305B04764A82FB03121A4446
:1026E0001212DB17D31A7A4A1360794B1B681A4609
:1026F0006B4B1B781946104601F0F6F803461A4654
:10270000734B1A60724B1B68B3F5347F0CDA704B55
:102710001B68A3F53473002BB8BF5B42C3F50033CD
:102720001A466C4B1A6006E0694B1B68A3F53473BC
:102730001A46684B1A60654BB3F9003004335B04EA
:102740005C4A82FB03121A441212DB17D31A1A4690
:10275000614B1A60604B1B68514A1278114618464B
:1027600001F0C2F803465C4A136018E0574BB3F916
:1027700000305B044F4A82FB03121A441212DB172B
:10278000D31A1A46544B1A60534B1B68444A1278AA
:102790001146184601F0A8F803464F4A13604E4B05
:1027A0001A68474B1B689A4202D24C4B01221A709E
:1027B0004B4B01221A704B4B02221A704A4B40F2CB
:1027C000DC521A80364B1B781A46484B1B68194658
:1027D0001046FEF717F800F0D5BC324B444A92E899
:1027E0000300186004331980424B1B6800225A62B0
:1027F000414B01221A70414B1B78002B03D0404BF8
:1028000005221A7002E03E4B00221A703D4B002256
:102810001A70244B5B78013B3B4A52F82320214B32
:102820009B78013B394931F813301946104602F0C4
:1028300009F90346364A1360364806F0CBFE194BB9
:102840005B785A1E334B1B682F4951F82220DA62FD
:10285000304B1B6800225A622F4806F0BBFE114B1A
:102860009B78013B294A32F813202C4B1A802B4BC2
:102870001A88294B1B68DA62284B1B881A461346B4
:102880009B0013449B001A46254B1A60224B1B6881
:1028900000225A620121052000F0D6FE00F075BC2E
:1028A000B00000204C0A0020500000203A0A00200E
:1028B000400A0020B7600BB6080A00203C0A00203E
:1028C000F8090020140A0020E10900203E0A002037
:1028D0000C0A0020B4090020000A0020D8090020BA
:1028E000CD0B0020CC0B0020D2010020D80B002003
:1028F000440A0020D8060020DF090020DB09002060
:10290000B2000020D70900207400002098000020A9
:10291000A4090020100500202407002072090020CF
:10292000940900200121062000F08EFEAB4B1B68AD
:10293000AB4A1360AA4B1B68B3F5347F06D2A84B91
:102940001A68A84B1344A84A136005E0A44B1B68FF
:10295000A3F53473A44A1360A44B00221A70A24B4F
:102960001B681946002000F0C1FCA14B06221A701A
:10297000A04B02221A70994B1B6819460020FDF7E4
:1029800041FF00F002BC0121072000F05DFE984BE2
:102990001B78013B072B00F2AC8001A252F823F018
:1029A000C12900081B2A0008F32A0008752A00081C
:1029B000F32A0008D72A0008F32A0008DF2A0008B3
:1029C0008D4B1B781846FDF7C5FF8C4B1B78002BF1
:1029D00013D08B4B1B78002B0FD1884B1B781A46DA
:1029E00052001344DBB20133DBB21A462121854881
:1029F000FEF7F0F8824B01221A70804B00221A7009
:102A0000814B01221A70814B00221A70804B0022E8
:102A10001A70804B00221A706CE0774B1B781846B6
:102A2000FDF798FF754B1B78002B13D0744B1B7868
:102A3000002B0FD1714B1B781A4652001344DBB2A6
:102A40000133DBB21A4621216E48FEF7C3F86C4B06
:102A500001221A70694B00221A706B4B01221A7006
:102A60006A4B00221A706A4B00221A70694B0022CE
:102A70001A703FE0684806F0ADFD684806F0AAFD10
:102A8000674806F0A7FD5D4B1B78002B13D05C4B0D
:102A90001B78002B0FD1594B1B781A465200134458
:102AA000DBB20133DBB21A4621215648FEF792F819
:102AB000534B01221A70514B00221A70524B0122C3
:102AC0001A70524B00221A70514B00221A70554B4B
:102AD00000221A800EE00020FDF73CFF0AE00020F3
:102AE000FDF738FF0120FDF735FF4A4B00221A7031
:102AF00000E000BF3E4B00221A703E4B01221A70CC
:102B000043E30121082000F09FFD0023FB80464B9A
:102B1000DB78002B30D0454B00221A60364B012267
:102B20001A70414B9B789BB21B02FB803E4B5B783B
:102B30009AB2FB881343FB80FB885B043C4A82FB10
:102B400003121A441212DB17D31A1A46374B1A60B3
:102B5000364B1B68284A12781146184600F0C4FE0E
:102B60000346324A1360244B1B78304A12681146E0
:102B7000184600F0BBFB08E32E4B00221A601E4BE8
:102B800000221A70284B9B789BB21B02FB80264BBD
:102B90005B789AB2FB881343FB80FB885B04244A72
:102BA00082FB03121A441212DB17D31A1A46214B66
:102BB0001A60204B1B68104A12781146184600F024
:102BC00093FE03461B4A13600B4B1B78194A12688D
:102BD0001146184600F08AFBD7E200BFD40B002054
:102BE000200A002030FD0100300A0020D909002011
:102BF000CD0B0020CC0B0020B0000020690100208C
:102C0000610100206C010020000000208D010020E7
:102C100062010020CE0B00202407002010050020B8
:102C2000D80600208A090020440A00202C0A00202F
:102C3000B7600BB6280A0020A44B5B78002B14BFAA
:102C400001230023DAB2A24B1A700121092000F0FF
:102C5000FBFCA04B01221A709F4B09221A709F4B5C
:102C600001221A70994B5B78002B0BD14FF4C8717D
:102C70000020FDF7F5FE9A4806F0D4FC994806F0CE
:102C8000D1FC82E24FF4C8710120FDF7E9FE9448BF
:102C900006F0C8FC944806F0C5FC76E2934B8B4ADC
:102CA00092E8030018600433198001210A2000F023
:102CB000CBFC8E4B5B78002B03D08D4B01221A701E
:102CC00063E28B4B00221A705FE200F0C1FD894B7A
:102CD00000221A70884B1B8801339AB2864B1A80E7
:102CE00053E200F0A3FF7B4B01221A70834B0022BA
:102CF0001A704AE2754B9B78002B0DD0804B002256
:102D00001A70012210217F4804F04EFC012220217C
:102D10007D4804F049FC0CE0794B01221A70002236
:102D20001021784804F040FC00222021764804F06D
:102D30003BFC664B5B78184600F06CFA25E2644B6E
:102D40001B78002B40F02082654806F06BFC65483C
:102D500006F068FC18E20121102000F075FC5E4BC3
:102D600008221A70694B00221A60584B9B781B028C
:102D70001A46664B1A60554B5B781A46634B1B68C4
:102D80001343624A1360614B1B685B04DB08604AB3
:102D9000A2FB03239B08BB604D4B1B78002B2BD061
:102DA0005C4B00221A60494BDB78FF2B09D15A4B50
:102DB0005B681946B86800F0E3FD0346554A1360A6
:102DC00008E0564B1B681946B86800F0D9FD034669
:102DD000504A13603E4B1B784E4A12681146184603
:102DE00000F084FA3A4B1B781A464C4B1B68194684
:102DF0001046FDF707FDC8E1494B00221A60334B2E
:102E0000DB78FF2B09D1444B1B681946B86800F0EA
:102E1000B7FD0346424A136008E0424B1B6819465F
:102E2000B86800F0ADFD03463D4A1360284B1B789F
:102E30003B4A12681146184600F058FA244B1B789A
:102E40001A46384B1B6819461046FDF7DBFC9CE11F
:102E50000121122000F0F8FB1C4B5B78002B03D003
:102E60001B4B01221A7090E1194B00221A708CE161
:102E70000121132000F0E8FB2A4B1B682A4A13604B
:102E8000264B1B68294A1360274B1B68284A13608E
:102E9000264B1B68264A5360254B1B681846FDF7D6
:102EA00037FE0346234A1360214B5B681846FDF743
:102EB0002FFE0346204A13600423009302231F4A77
:102EC00002211B48FDF746FB5FE100BF440A0020DA
:102ED000B0000020CC0B0020CD0B0020CE0B00203A
:102EE000A80500202C040020780400204C0A0020B3
:102EF000CF0B0020610100207C090020D0090020B8
:102F0000C80B00200000024000080240340A0020E4
:102F1000176CC116240A0020C8090020D80B002015
:102F2000200A0020D40B0020180A00201C0A0020D0
:102F3000C0090020EC090020F009002000800108F1
:102F40000121142000F080FB934B01221A70934B57
:102F500001221A70924B00221A70924B5B7818462D
:102F600000F0A8FD03461A468F4B1A708D4B9B78D4
:102F7000012B07D18C4B1B7863F07F03DAB28A4BAD
:102F80001A7006E0884B1B7843F00803DAB2864BD0
:102F90001A70854B1A78844B5A70844807F032F9BE
:102FA000642301228049814807F05FF805228049A7
:102FB0007E4807F0E3F8E8E005227E497B4807F009
:102FC000DDF801224FF400617B4804F0EDFA0120A6
:102FD00002F0D0FF00224FF40061774804F0E4FAD9
:102FE000D3E00121172000F02FFB744B1B68744ABB
:102FF0001360744B1B68724A5360052300930223CD
:10300000714A02216E48FDF7A5FA704B1B68704AA1
:103010001360704B1B686E4A536002236A4A022198
:103020006748FDF7E5FAB0E06B4B1B7883F00103CE
:10303000DBB2002B24D0012210215F4804F0B4FA47
:10304000664B00221A70012220215B4804F0ACFA82
:10305000642002F08FFF00222021574804F0A4FAD8
:1030600005225F495F4805F041FC0021012000F086
:10307000EBFA5A4B1B780133DAB2584B1A70E2E77D
:1030800001222021584804F08FFA544B00221A7074
:1030900001220121554804F087FA642002F06AFFFA
:1030A00000220121514804F07FFA0522504951487D
:1030B00005F01CFC0021012000F0C6FA474B1B78EC
:1030C0000133DAB2454B1A70E2E7434B1B7883F0C9
:1030D0000103DBB2002B0BD005224149414805F02A
:1030E00005FC642305223E49434806F0BEFF4CE040
:1030F00005223F493F4805F0F9FB642305223C497E
:103100003D4806F0B2FF40E00023FB6002E0FB68B0
:103110000133FB60FB68812BF9DD384808F070FB58
:1031200033E001211A2000F08FFA354B1B684FF471
:10313000FA72DA62184B01221A70324B00221A70AE
:10314000164B01221A70164B00221A70012000F053
:1031500043FC03461A46144B1A702B4B05221A7077
:103160002A4B02221A70114807F04CF864230122FE
:103170000D490E4806F079FF05220D490B4806F06F
:10318000FDFF02E000BF00E000BF214B00221A70EB
:1031900000BF1037BD4680BD8D010020DB09002037
:1031A000DC090020440A0020840900207007002068
:1031B000380000206401002000000240D40B0020F1
:1031C000C8090020D80B002000000208E4090020F4
:1031D000B8090020E8090020B00000208D09002077
:1031E000400900204802002000080240000402407C
:1031F00048090020E4010020F807002038C1000839
:10320000F405002071090020CD0B0020CC0B00201C
:10321000C50B002080B584B000AF0346FB712A4B7C
:103220001B7883F00103DBB2002B29D00023FB6065
:1032300021E001222021254804F0B6F9022002F005
:1032400099FE00222021214804F0AEF9022002F06C
:1032500091FE20211D4804F0C0F905221C491D489B
:1032600005F044FB6423052219491B4806F0FDFEC6
:10327000FB680133FB60FB79FA689A42D9DB1BE0FB
:103280000023BB6014E00121144804F0A6F90420D7
:1032900002F070FE05221249124805F027FB642354
:1032A00005220F490C4806F0E0FEBB680133BB6005
:1032B000FB79BA689A42E6DB0B4B00221A7000BF1A
:1032C0001037BD4680BD00BFB000002000000240A6
:1032D0004009002048020020F807002000040240B6
:1032E00048090020E40100208C09002080B582B04C
:1032F00000AF03463960FB71FB7983F00103DBB259
:10330000002B40D0424B1B683A689A421DD2404B7A
:103310001A683B68D21A3E4B1B683968CB1A03F512
:1033200000339A4208D9012210213A4804F03CF9AE
:10333000394B00221A7066E000221021354804F053
:1033400033F9354B01221A705DE0314B1A683B6846
:10335000D31A03F500322E4B1B683968CB1A9A42F8
:1033600008D2002210212B4804F01EF92A4B01221A
:103370001A7048E001221021264804F015F9264B66
:1033800000221A703FE0254B1B683A689A421DD212
:10339000224B1A683B68D21A204B1B683968CB1A3B
:1033A00003F500339A4208D9012220211C4804F079
:1033B000FBF81C4B00221A7025E00022202118483F
:1033C00004F0F2F8174B01221A701CE0134B1A6834
:1033D0003B68D31A03F50032104B1B683968CB1ACF
:1033E0009A4208D2002220210D4804F0DDF80D4B4E
:1033F00001221A7007E001222021094804F0D4F8C4
:10340000084B00221A7000BF0837BD4680BD00BFC0
:10341000D40B002000000240C80B0020D80B002075
:1034200000080240C90B002080B582B000AF786070
:10343000391D4FF6FF730122034806F016FE7B6824
:1034400018460837BD4680BDF807002080B485B017
:1034500000AF78607B681B682C4A934202D12C4BEA
:1034600001221A707B681B682A4A934248D12A4B72
:103470001B78002B41D00023FB60284B1B781A4699
:10348000264B5B781344254A92781344FB60FB6813
:10349000DBB2FB60214BDB781A46FB68934203D119
:1034A0001E4B1B79A52B06D01D4B00221A701D4BFD
:1034B00002221A700DE0194B1A781B4B1B781B095E
:1034C000DBB29A4205D0164B00221A70154B01222E
:1034D0001A70164B1B78002B09D0144B00221A705F
:1034E000134B00221A70134B00221A7002E0104B8B
:1034F00001221A70084B00221A700F4B01221A7019
:1035000000BF1437BD465DF8047B7047004800409B
:10351000C50B0020001001408D0100203800002064
:10352000CC0B0020D009002084090020B10000202D
:10353000DC090020DB090020C40B002080B483B02C
:1035400000AF78607B681B68314A93422AD1314BC7
:103550009B785B09DBB203F007032F4A13602D4B06
:103560005B78DA002C4B1B6813432B4A1360294B02
:103570001B78DB0203F4FC32274B1B681343264AFB
:103580001360264B1B68244A1360234B1B68244A94
:103590005361214B1B68C3F50033224A1360224B51
:1035A00001221A707B681B68204A93422AD1204B63
:1035B0009B785B09DBB203F007031E4A13601C4BC8
:1035C0005B78DA001B4B1B6813431A4A1360184BD5
:1035D0001B78DB0203F4FC32164B1B681343154ABD
:1035E0001360154B1B68134A1360124B1B68134A78
:1035F0005361104B1B68C3F50033114A1360114B24
:1036000001221A7000BF0C37BD465DF8047B70477D
:103610000034014040090020D40B0020B4000020F9
:1036200090010020E4090020C60B0020003C00406F
:1036300048090020D80B0020B8000020040000201A
:10364000E8090020C70B002080B584B000AF034616
:103650000A46FB711346BB716E4B00221A80FB7940
:10366000012B40F0BC806C4B01221A706B4B1A7816
:10367000694B5A706A4B1A78674B9A70694B1B7882
:103680001A46654BDA70684B1A78634B1A71674BB0
:103690001A78614B5A71664B1A785F4B9A71644B7A
:1036A0005A785D4BDA71624B9A785B4B1A72614BB8
:1036B0001B68DAB2584B5A725E4B1B681B0ADAB2AF
:1036C000554B9A725B4B1B681B0CDAB2524BDA7289
:1036D000594B1B68DAB2504B1A73574B1B681B0AC5
:1036E000DAB24D4B5A73544B1B681B0CDAB24A4B7F
:1036F0009A73524B1B68DAB2474BDA734F4B1B6815
:103700001B0ADAB2444B1A744C4B1B681B0CDAB21E
:10371000414B5A74484B5B68DAB23F4B9A74464B44
:103720005B681B0ADAB23C4BDA74434B5B681B0CD8
:10373000DAB2394B1A75424B1B68DAB2364B5A75FE
:103740003F4B1B681B0ADAB2334B9A753C4B1B6824
:103750001B0CDAB2304BDA753A4B1B68DAB22E4BDF
:103760001A76384B1B681B0ADAB22B4B5A76354B4C
:103770001B681B0CDAB2284B9A76274B0022DA77AB
:10378000254B002283F820200023FB6016E0224A0C
:10379000FB6813441B789AB2FB6801331E49CB5C6B
:1037A0009BB21B029BB213449AB21A4B1B88134460
:1037B0009AB2184B1A80FB680233FB60FB681D2B22
:1037C000E5DD154B9B7F9AB2124B1B8813449AB2CE
:1037D000104B1A801C4B0F4A12881A8010E02121CE
:1037E0000D48FDF7DBF90C4AFB7913700A4ABB79E7
:1037F0005370094AFB79D377074ABB7982F82030A6
:10380000642321220449114806F02FFC00BF103721
:10381000BD4680BD8609002050090020CC0B002049
:10382000CD0B0020CE0B002061010020D00B00202A
:10383000540A0020E4090020B8090020E80900200B
:10384000EC090020F00900206F090020F807002093
:1038500080B582B000AF0023FB801F4B0B221A7093
:103860001D4B0022DA771C4B002283F82020002316
:103870003B6013E0184A3B6813441B789AB23B68DC
:1038800001331549CB5C9BB21B029BB213449AB225
:10389000FB881344FB803B6802333B603B681D2B75
:1038A000E8DD0D4B9B7F9AB2FB881344FB800B4AEB
:1038B000FB8813800A4806F0A5FC642321220649F0
:1038C000074806F0D2FB06220649054806F056FCDA
:1038D00000BF0837BD4680BD6C0100208B01002071
:1038E000F8070020440A002080B485B000AF78605B
:1038F0000B46FB700023FB60FB78002B14D01E4BA3
:103900001A687B681344B3F5003F07D91A4B1A684D
:103910007B681344A3F50033FB6019E0164B1B686A
:103920007A681344FB6013E0144B1A687B681344F5
:10393000B3F5003F07D9114B1A687B681344A3F510
:103940000033FB6004E00D4B1B687A681344FB6096
:10395000FB68002B01D15C23FB60FB68B3F5003FE3
:1039600002D1FB685C3BFB60FB6818461437BD4620
:103970005DF8047B704700BF1C0A0020180A002075
:1039800080B485B000AF786039600023FB607A684E
:103990003B681344B3F5003F06D97A683B6813448B
:1039A000A3F50033FB6003E07A683B681344FB60D7
:1039B000FB68002B01D15C23FB60FB68B3F5003F83
:1039C00002D1FB685C3BFB60FB6818461437BD46C0
:1039D0005DF8047B7047000080B483B000AF0346FD
:1039E000FB71FB79802B5CD0802B5CDC202B47DCCF
:1039F000002B58DD013B1F2B55D801A252F823F0B4
:103A0000873A00088B3A0008A73A00088F3A000866
:103A1000A73A0008A73A0008A73A0008933A000816
:103A2000A73A0008A73A0008A73A0008A73A0008F2
:103A3000A73A0008A73A0008A73A0008973A0008F2
:103A4000A73A0008A73A0008A73A0008A73A0008D2
:103A5000A73A0008A73A0008A73A0008A73A0008C2
:103A6000A73A0008A73A0008A73A0008A73A0008B2
:103A7000A73A0008A73A0008A73A00089B3A0008AE
:103A8000402B0CD00FE000230EE011230CE022238A
:103A90000AE0332308E0442306E0552304E06623CC
:103AA00002E0772300E0012318460C37BD465DF89D
:103AB000047B704780B483B000AF0346FB71FB7991
:103AC000802B5CD0802B5CDC202B47DC002B58DD6E
:103AD000013B1F2B55D801A252F823F0633B00088D
:103AE000673B0008833B00086B3B0008833B0008F2
:103AF000833B0008833B00086F3B0008833B0008C2
:103B0000833B0008833B0008833B0008833B00089D
:103B1000833B0008833B0008733B0008833B00089D
:103B2000833B0008833B0008833B0008833B00087D
:103B3000833B0008833B0008833B0008833B00086D
:103B4000833B0008833B0008833B0008833B00085D
:103B5000833B0008833B0008773B0008402B0CD0D8
:103B60000FE007230EE016230CE025230AE03423A0
:103B700008E0432306E0522304E0612302E07023BF
:103B800000E0012318460C37BD465DF8047B704702
:103B900080B400AF1F4B1B781A461E4B5B78134452
:103BA0001C4A92781344DBB21A4AD27893422CD141
:103BB000184B1B79A52B28D1174B1B78002B12D043
:103BC000144B1A78154B1A70124B5A78134B5A70C3
:103BD000104B9A78114B9A70114B1B8801339AB293
:103BE0000F4B1A800BE00B4B1A780E4B1A70094BD7
:103BF0005A780C4B5A70074B9A780A4B9A700A4BBA
:103C00001B8801339AB2084B1A8000BFBD465DF88D
:103C1000047B704764010020620100205C0A0020E0
:103C200076090020540A00207809002080B500AFF2
:103C300021210D48FCF7B2FF0B4B0C221A700B4BE5
:103C40001A78094B5A70084B0C22DA77074B1A780E
:103C5000054B83F82020642321220349044806F001
:103C600004FA00BF80BD00BF50090020D009002029
:103C7000F807002080B500AF194B1B78002B16D039
:103C8000184B1B681A1F184B1B689A4225D8154BF6
:103C90001B681A1D144B1B689A421ED3104B1B78CD
:103CA0001846FCF757FE114B00221A7015E0104B16
:103CB0001B681A1F0F4B1B689A420ED80C4B1B68CF
:103CC0001A1D0C4B1B689A4207D3054B1B781846EC
:103CD000FCF740FE054B00221A7000BF80BD00BFFC
:103CE000B0000020240A0020D80B0020CD0B0020BB
:103CF000200A0020D40B002080B500AF224B1B7897
:103D00004B211846FCF7ACFE1F4B1B78002B1CD038
:103D10001E4B1B68A3F12E021D4B1B689A4230D824
:103D20001A4B1B6803F12E02194B1B689A4228D3C9
:103D3000184805F0EFFC184805F0ECFC174B002282
:103D40001A70174B00221A701BE0164B1B68A3F168
:103D50002E02154B1B689A4213D8124B1B6803F1B5
:103D60002E02114B1B689A420BD3104805F0D2FC6F
:103D7000094805F0CFFC094B00221A70084B0022BD
:103D80001A7000BF80BD00BFB00000202C0A0020C8
:103D9000D80B002078040020A8050020CD0B0020BF
:103DA000CE0B0020280A0020D40B00202C04002079
:103DB00080B500AF1A4B1B7883F00103DBB2002BF8
:103DC00013D0184B1B68A3F12E02174B1B689A42A5
:103DD00024D8144B1B6803F12E02134B1B689A4224
:103DE0001CD30F4B01221A7018E0104B1B68A3F173
:103DF0002E020D4B1B689A4210D80C4B1B6803F126
:103E00002E02094B1B689A4208D30020FCF7A2FD42
:103E1000074B00221A70074B01221A7000BF80BDA9
:103E2000D9090020300A0020D40B0020200A0020ED
:103E3000CD0B0020CC0B002080B500AF654B1B786C
:103E400083F00103DBB2002B2DD0634B01221A70EB
:103E5000624B1B685A1F624B1B689A4223D85F4B08
:103E60001B685A1D5E4B1B689A421CD35D4B1B7826
:103E70001846FCF76FFD5B4B1B785B4A12681146D6
:103E80001846FFF733FA534B01221A70574B1A8822
:103E9000574B1A80534B1B781A46514B1B681946D7
:103EA0001046FCF7AFFC4B4B1B78002B00F0F28068
:103EB000504B1B7883F00103DBB2002B2AD0464B1A
:103EC00000221A70484B1B685A1F454B1B689A42C8
:103ED00020D8454B1B685A1D414B1B689A4219D389
:103EE000444B01221A7005224349444806F046F922
:103EF00001224FF40061424803F056FB414B01227E
:103F00001A701E20FCF7AAFB00224FF400613C4807
:103F100003F04AFB374B1B78002B00F0BB803A4B79
:103F20001B7883F00103DBB2002B00F0B3802C4B35
:103F30001A68364B1B689A4228D3344B1B6803F12E
:103F40002E02274B1B689A4220D305222A492B4870
:103F500006F014F901224FF40061294803F024FB14
:103F6000284B01221A701E20FCF778FB00224FF428
:103F70000061234803F018FB254B1B8801339AB2DC
:103F8000234B1A80204B01221A70C5E0214B1B687D
:103F9000043B1A46124B1B689A4263D81D4B1B68A0
:103FA00004331A460E4B1B689A425BD3194B1B68AD
:103FB000194A12889B1A002B30DA164B1B68164AD6
:103FC00012889B1A002BB8BF5B42C3F50033114A1D
:103FD00013602AE0D3090020CE0B0020040A002041
:103FE000D40B0020B0000020F4090020BC00002009
:103FF000D2010020D10900206401002070070020B8
:104000000000024062010020D2090020FC090020CB
:104010007E090020100A0020380A00203F4B1B6850
:104020003F4A12889B1A3D4A136005223D493E488B
:1040300006F0A4F801224FF400613C4803F0B4FA02
:104040003B4B01221A701E20FCF708FB00224FF4A4
:104050000061364803F0A8FA364B1B8801339AB248
:10406000344B1A80344B1B78002B13D0334B1B6816
:10407000A3F13C02324B1B689A420BD82F4B1B68B2
:1040800003F13C022E4B1B689A4203D32D4B1B6855
:104090002D4A13602D4B1B78002B3DD0244B1B78F1
:1040A00083F00103DBB2002B36D0294B1B78002BA9
:1040B00032D1284B1B78002B0FD0264B1B781A4689
:1040C00052001344DBB20133DBB21A4621212248ED
:1040D000FCF780FD1E4B01221A701E4B00221A7045
:1040E0001E4B01221A701E4B00221A701D4B00221B
:1040F0001A701D4B01221A70144B01221A700C4BBE
:1041000000221A70194B00221A70FCF736FB184B6C
:104110001B781846FCF70AFC80BD00BF100A00207F
:10412000380A0020640100207007002000000240CF
:10413000620100207E090020E1090020B40900206E
:10414000D40B0020F4090020FC090020D209002033
:1041500061010020690100206C01002000000020A6
:10416000CD0B00208D010020CC0B00206001002031
:10417000B000002080B500AF664B1B7883F00103D0
:10418000DBB2002B2DD0644B01221A70634B1B68ED
:104190005A1F634B1B689A4223D8604B1B685A1DF9
:1041A0005F4B1B689A421CD35E4B1B781846FCF78A
:1041B000D1FB5C4B1B785C4A126811461846FFF72E
:1041C00095F8544B01221A70584B1A88584B1A8094
:1041D000544B1B781A46524B1B6819461046FCF785
:1041E00011FB4C4B1B78002B00F0F480514B1B78DB
:1041F00083F00103DBB2002B2AD0474B00221A7058
:10420000494B1B685A1F464B1B689A4220D8464BA5
:104210001B685A1D424B1B689A4219D3454B012219
:104220001A7005224449454805F0A8FF01224FF4C1
:104230000061434803F0B8F9424B01221A700A208A
:10424000FCF70CFA00224FF400613D4803F0ACF992
:10425000384B1B78002B00F0BD803B4B1B7883F064
:104260000103DBB2002B00F0B580384B1B68A3F1D3
:1042700008022B4B1B689A4228D8344B1B6803F169
:104280000802274B1B689A4220D305222A492B4853
:1042900005F074FF01224FF40061294803F084F90E
:1042A000284B01221A700A20FCF7D8F900224FF49B
:1042B0000061234803F078F9254B1B8801339AB23B
:1042C000234B1A80204B01221A70C3E0214B1B683C
:1042D000043B1A46124B1B689A4263D81D4B1B685D
:1042E00004331A460E4B1B689A425BD3194B1B686A
:1042F000194A12889B1A002B30DA164B1B68164A93
:1043000012889B1A002BB8BF5B42C3F50033114AD9
:1043100013602AE0D3090020CE0B0020080A0020F9
:10432000D80B0020B0000020F8090020BE000020BB
:10433000D2010020D1090020640100207007002074
:104340000000024062010020D2090020000A002083
:104350007E090020140A00203A0A00203E4B1B6808
:104360003E4A12889B1A3C4A136005223C493D484C
:1043700005F004FF01224FF400613B4803F014F9FB
:104380003A4B01221A700A20FCF768F900224FF418
:104390000061354803F008F9354B1B8801339AB2A8
:1043A000334B1A80334B1B78002B13D0324B1B68D6
:1043B000A3F13C02314B1B689A420BD82E4B1B6871
:1043C00003F13C022D4B1B689A4203D32C4B1B6814
:1043D0002C4A13602C4B1B78002B3BD0234B1B78B3
:1043E00083F00103DBB2002B34D0284B1B78002B69
:1043F00030D1274B1B78002B0FD0254B1B781A464A
:1044000052001344DBB20133DBB21A4621212148AA
:10441000FCF7E0FB1D4B01221A701D4B00221A70A5
:104420001D4B01221A701D4B00221A701C4B0022DA
:104430001A701C4B01221A70134B01221A700B4B7D
:1044400000221A70184B00221A70184B1B7818465D
:10445000FCF76CFA80BD00BF140A00203A0A002065
:10446000640100207007002000000240620100206B
:104470007E090020E1090020B4090020D80B0020AB
:10448000F8090020000A0020D20900206101002064
:10449000690100206C01002000000020CD0B0020ED
:1044A0008D010020CC0B002060010020B000002016
:1044B00080B582B000AF994B1B7883F00103DBB26B
:1044C000002B02D0954B01221A70944B1B78002BC5
:1044D00000F0E580924B1B7883F00103DBB2002BE8
:1044E00000F0DD808F4B1B7883F00103DBB2002BE3
:1044F00021D08D4B01221A708C4B1B685A1F8C4B9C
:104500001B689A4217D8894B1B685A1D884B1B6839
:104510009A4210D3874805F0FDF8874B1B78874AED
:10452000126811461846FEF7E1FE7E4B01221A7012
:10453000804805F077F87B4B1B78002B00F0AF80AC
:104540007F4B1B7883F00103DBB2002B2AD0764B24
:1045500000221A70794B1B685A1F754B1B689A42D0
:1045600020D8764B1B685A1D714B1B689A4219D391
:10457000734B01221A7005227249734805F0FEFD43
:1045800001224FF40061714803F00EF8704B0122D4
:104590001A700220FCF762F800224FF400616B48A9
:1045A00003F002F8664B1B78002B78D0694B1B7820
:1045B00083F00103DBB2002B71D0674B1B68A3F1C2
:1045C00008025B4B1B689A4234D8634B1B6803F1AB
:1045D0000802574B1B689A422CD3604B1B78002B68
:1045E0000FD05E4B1B781A4652001344DBB20133E6
:1045F000DBB21A4621215A48FCF7ECFA594B01224A
:104600001A70564B00221A70574B01221A70574BE2
:1046100000221A704E4B00221A70464805F07AF8B4
:10462000534805F077F83E4B01221A703E4B0122A9
:104630001A7034E04F4B1B68043B1A463C4B1B6816
:104640009A422CD84B4B1B6804331A46384B1B68D4
:104650009A4224D3484B1B881A46464B1B68134486
:10466000444A136005223749374805F087FD012287
:104670004FF40061354802F097FF354B01221A7064
:104680000220FBF7EBFF00224FF400612F4802F0FD
:104690008BFF3A4B1B8801339AB2384B1A80204B60
:1046A0001B78002B00F0A580354B1B78002B02D027
:1046B00000F0B4F89DE01A4B1B78002B00F09980B5
:1046C0002B4805F027F82F4805F024F81C4B002252
:1046D0001A70144B00221A701E4B00221A70174BCE
:1046E0001B687B601C4A7B6813601B4B1B68134A6A
:1046F0001360254BB3F90030B3F5B27F48DB224B92
:10470000B3F900300533002BB8BF5B429AB21F4BA0
:104710001A801E4B4FF698621A8041E0D60900209D
:10472000D4090020D3090020CE0B0020040A002069
:10473000D40B00202C040020B0000020F40900203D
:10474000D109002064010020700700200000024011
:1047500062010020D2090020FC090020690100202C
:104760006C01002061010020000000208D0100206C
:10477000A8050020100A0020380A00207E09002029
:10478000D5090020780400203E0A0020400A0020BD
:104790001A4BB3F900309BB205339AB2184B1A800A
:1047A000174B1B885B04174A82FB03121A44121230
:1047B000DB17D31A1A46144B1A60134B1B68134AA3
:1047C000127811461846FFF78FF803460E4A136019
:1047D0000E4B1B780C4A126811461846FEF786FDF0
:1047E0000B4B01221A700B4804F01CFF0A4804F01E
:1047F00019FF00BF0837BD4680BD00BF3E0A00203C
:10480000400A0020B7600BB6040A0020B000002068
:10481000D5090020A80500202C04002080B500AF99
:104820006F4B1B7883F00103DBB2002B21D06D4B63
:1048300001221A706C4B1B685A1F6C4B1B689A4202
:1048400017D8694B1B685A1D684B1B689A4210D3D6
:10485000674804F05FFF674B1B78674A1268114690
:104860001846FEF743FD5E4B01221A70604804F0C3
:10487000D9FE5B4B1B78002B00F0B0805F4B1B78A0
:1048800083F00103DBB2002B2AD0564B00221A70B2
:10489000594B1B685A1F554B1B689A4220D8564BE0
:1048A0001B685A1D514B1B689A4219D3534B012266
:1048B0001A7005225249534805F060FC01224FF45A
:1048C0000061514802F070FE504B01221A70022024
:1048D000FBF7C4FE00224FF400614B4802F064FE77
:1048E000464B1B78002B79D0494B1B7883F0010392
:1048F000DBB2002B72D0474B1B681A1F3B4B1B6867
:104900009A4236D8434B1B681A1D384B1B689A4293
:104910002FD3414B1B78002B0FD03F4B1B781A46EF
:1049200052001344DBB20133DBB21A4621213B486B
:10493000FCF750F93A4B01221A70374B00221A70DB
:10494000384B01221A70384B00221A70374B002264
:104950001A70374B01221A702D4B01221A702B4B03
:1049600000221A70224804F0D5FE324804F0D2FE2C
:1049700034E0314B1B68043B1A461C4B1B689A42BF
:104980002CD82D4B1B6804331A46184B1B689A42CF
:1049900024D32A4B1B881A46274B1B681344264AEC
:1049A000136005221649174805F0E8FB01224FF471
:1049B0000061154802F0F8FD144B01221A70022024
:1049C000FBF74CFE00224FF400610F4802F0ECFDB3
:1049D0001B4B1B8801339AB2194B1A8000BF80BD54
:1049E000D3090020CE0B0020040A0020D40B0020A5
:1049F0002C040020B0000020F4090020D109002080
:104A000064010020700700200000024062010020C5
:104A1000D2090020FC090020690100206C0100205F
:104A20006101002000000020CD0B00208D0100203E
:104A3000CC0B0020A8050020100A0020380A002016
:104A40007E09002080B487B000AF786039607B6851
:104A50000C4AA2FB0323DB087B613B685B00094A2D
:104A6000A2FB0323DB083B617A693B69B2FBF3F3EA
:104A70009BB20133FB81FB8918461C37BD465DF8AC
:104A8000047B7047CDCCCCCC80B400AF224B1A68ED
:104A9000224B1B689A4238D31F4B1B689AB21F4B9C
:104AA0001B689BB2D31A9AB21D4B1B8813449AB24F
:104AB0001B4B1A801A4B1B881A461A4B1B6813444F
:104AC000184A1360164B1B88C72B1ED9164B1B8820
:104AD0001946134B1B88154AA2FB03239B099BB263
:104AE0005B00CB1A1A46124B1A600D4B1B880F4AFB
:104AF000A2FB03129209C82101FB02F29B1A9AB28F
:104B0000074B1A800A4B1B6801E0074B1B881846AD
:104B1000BD465DF8047B7047900900209409002091
:104B20008A090020DC0B0020720900201F85EB5150
:104B30009C09002080B485B000AF78600B467B8074
:104B40000023FB810023BB812EE0FB897A6813449C
:104B50001A78BB8911461A4A42F82310BB89184AB1
:104B600052F82320FB89013379680B441B781B0220
:104B70001946BB890A43124941F82320BB89104AD0
:104B800052F82320FB89023379680B441B781B04FD
:104B90001946BB890A430A4941F82320FB8903339C
:104BA000FB81BB890133BB81FA897B889A42CCD3D4
:104BB00000BF00BF1437BD465DF8047B704700BFDF
:104BC000FC0A002080B582B000AF0346FB80FB8862
:104BD00040F21C7293425AD040F21C72934200F38E
:104BE000B68040F26D1293425CD0B3F5B77F80F28D
:104BF000AE80B62B62D0B62B00F3A9801D2B43DC10
:104C0000002B40F3A480013B1C2B00F2A08001A2EA
:104C100052F823F0374D00084F4D00081F4D000893
:104C20004F4D00084F4D0008074D00084F4D00083C
:104C30004F4D00084F4D00084F4D00084F4D0008E4
:104C40004F4D00084F4D00084F4D00084F4D0008D4
:104C50004F4D00084F4D00084F4D00084F4D0008C4
:104C60004F4D00084F4D00084F4D00084F4D0008B4
:104C70004F4D00084F4D00084F4D00084F4D0008A4
:104C80004F4D0008EF4C00083C2B23D05FE0324B27
:104C90004FF457721A80304B1A88304B1A80C82054
:104CA000FBF724FF2C4B4FF457721A802A4B1A88BB
:104CB0002A4B1A80C820FBF719FF48E0264B4FF417
:104CC00057721A80244B1A88244B1A80C820FBF78D
:104CD0000DFF3CE0204B4FF4B7721A801E4B1A8830
:104CE0001E4B1A804FF47A70FBF700FF2FE01A4B2F
:104CF000F4221A80184B1A88184B1A804FF47A70D5
:104D0000FBF7F4FE23E0144B32221A80124B1A8870
:104D1000124B1A804FF47A70FBF7E8FE17E00E4B47
:104D200014221A800C4B1A880C4B1A804FF47A709C
:104D3000FBF7DCFE0BE0084B0A221A80064B1A88B0
:104D4000064B1A804FF47A70FBF7D0FE00BF00BF0D
:104D50000837BD4680BD00BFBE000020BC0000205B
:104D600080B582B002AF574804F0D4FC564804F036
:104D7000C1FB642001F0FEF806225449544805F0B6
:104D8000FDF905225349544803F0B0FD052253496B
:104D9000534803F0ABFD0223524A02215248FBF76D
:104DA00027FC514B1B68B3F5003F12D94E4B5B6893
:104DB000B3F5003F0DD94C4B00221A604A4B00223C
:104DC0005A60042300930223464A02214648FBF717
:104DD000C1FB454B1B681846FBF79AFE0346434A46
:104DE0001360414B5B681846FBF792FE0346404A4E
:104DF00013603D4B1B683F4A13613B4B5B683E4A67
:104E00001361394B1B683D4A1360374B5B683C4A62
:104E100013600520FBF786FB02233A4A02213A4839
:104E2000FBF7E6FB384B1B68B3F5003F12D9364B56
:104E30005B68B3F5003F0DD9334B01221A60324B4A
:104E400001225A600523009302232E4A02212E4894
:104E5000FBF780FB2C4B1B681846FBF759FE0346FB
:104E60002A4A1360284B5B681846FBF751FE03463D
:104E7000264A53601F4B134ADA601F4B244ADA60FC
:104E80001C4B40F2DC52DA801B4B40F2DC52DA80E1
:104E9000184BDB8819461748FBF748FE164BDB8892
:104EA00019461548FBF742FE1A4B40F2DC521A80B5
:104EB000194B01221A70194804F0B4FB00BFBD461B
:104EC00080BD00BF2C0400205C050020440A0020A7
:104ED000F80700204009002048020020480900206F
:104EE000E401002000800108C0090020EC09002036
:104EF000F00900209001002004000020180A002082
:104F00001C0A002000000208C8090020B80900207F
:104F100078040020D2010020CC0B002040060020A5
:104F200080B500AF524B1B78013B082B00F29380F9
:104F300001A252F823F000BF5D4F0008B34F0008F4
:104F40005750000809500008575000084950000801
:104F50004950000849500008495000080020FBF75C
:104F6000E5FC444B1B78002B13D0434B1B78002BE4
:104F70000FD1404B1B781A4652001344DBB2013369
:104F8000DBB21A4621213D48FBF724FE3A4B0122B1
:104F90001A70384B00221A70394B01221A70394BA3
:104FA00000221A70384B00221A70384B00221A70F7
:104FB00052E00120FBF7BAFC2E4B1B78002B13D0DC
:104FC0002D4B1B78002B0FD12A4B1B781A46520011
:104FD0001344DBB20133DBB21A4621212748FBF729
:104FE000F9FD254B01221A70224B00221A70244B26
:104FF00001221A70234B00221A70234B00221A70D0
:10500000224B00221A7027E0214804F0E3FA2148DD
:1050100004F0E0FA204804F0DDFA21211748FBF7FC
:10502000BDFD154B00221A70124B00221A70144B52
:1050300001221A70134B00221A70134B00221A70AF
:10504000164B00221A8007E00120FBF783FC0020AA
:10505000FBF780FC00E000BF054B00221A70104BEC
:1050600001221A700F4B1B6800225A6200BF80BDDC
:10507000CD0B002069010020610100206C0100209F
:10508000000000208D01002062010020CE0B0020D6
:105090002407002010050020D80600208A090020DF
:1050A000CC0B00204006002080B584B000AF264B1A
:1050B000264A92E803001860043319800023FB811C
:1050C0000023FB800023BB6013E01F4ABB6813442E
:1050D0001B789AB2BB6801331B49CB5C9BB21B02A5
:1050E0009BB213449AB2FB891344FB81BB68023321
:1050F000BB60BB68032BE8DD134B1B799AB2124BE4
:105100005B799BB21B029BB21344FB80FA88FB893C
:105110009A4213D00E4804F06BFFFCF7AFFD0D4B25
:1051200000221A7006220949094805F027F80A4B9F
:105130001B680133084A1360002300E0012318466E
:105140001037BD4680BD00BF4C0A0020440A002035
:10515000F8070020C50B0020E00B002080B584B0CC
:1051600000AF78607B68D3F8843003F00803002B2D
:1051700008D07B681B6808221A621B4B1B685B6A9D
:10518000DBB2FB737B68194A934229D17B68D3F861
:10519000843003F00803002B0ED07B681B680822C4
:1051A0001A62124B1B685B6ADBB2BB7306221049A2
:1051B0000E4804F0E3FF13E07B681B68DB690D4ACF
:1051C00013607B68D3F884300B4A1360074804F0FF
:1051D0000FFFFCF753FD06220549044804F0CEFFFB
:1051E00000BF1037BD4680BD70070020F8070020C3
:1051F000440A0020A8090020AC09002080B400AFB8
:1052000072B600BFFEE7000080B582B000AF0F4B62
:105210001B6C0E4A43F0805313640C4B1B6C03F061
:1052200080537B607B68094B5B6C084A43F4804386
:105230005364064B5B6C03F480433B603B68052082
:1052400000F0B0FF00BF0837BD4680BD0038024007
:1052500080B58CB000AF786007F11C0300221A60A3
:105260005A609A60DA601A617B681B68984A9342B8
:1052700040F0A080974B1B6C964A43F400431364A4
:10528000944B1B6C03F40043BB61BB69914B1B6BDC
:10529000904A43F0020313638E4B1B6B03F002032F
:1052A0007B617B698B4B1B6B8A4A43F0040313635E
:1052B000884B1B6B03F004033B613B690423FB61D8
:1052C00002233B6200237B620323BB620723FB6252
:1052D00007F11C031946804801F0CEFE4FF44063ED
:1052E000FB6102233B6200237B620323BB62062334
:1052F000FB6207F11C031946784801F0BDFE784BAC
:10530000784A1A60764B00225A60754B00229A60E8
:10531000734B0022DA60724B4FF480621A61704B5B
:1053200000225A616E4B00229A616D4B0022DA61B5
:105330006B4B00221A626A4B00225A62684800F0E6
:1053400081FF0346002B01D0FFF758FF7B68644ABA
:105350009A65634A7B689363634B644A1A60624B45
:1053600000225A60604B40229A605F4B0022DA6054
:105370005D4B4FF480621A615B4B00225A615A4BBD
:1053800000229A61584B0022DA61574B00221A62C0
:10539000554B00225A62544800F054FF0346002B3C
:1053A00001D0FFF72BFF7B684F4A5A654E4A7B6856
:1053B000936389E07B681B684D4A934240F0848088
:1053C000444B5B6C434A43F400535364414B5B6C66
:1053D00003F40053FB60FB683E4B1B6B3D4A43F0FC
:1053E000100313633B4B1B6B03F01003BB60BB68E4
:1053F0006423FB6102233B6200237B620323BB62C5
:105400000523FB6207F11C0319463A4801F034FEFC
:10541000394B3A4A1A60384B4FF000625A60364BAB
:1054200000229A60344B0022DA60334B4FF48062E2
:105430001A61314B00225A612F4B00229A612E4B88
:105440000022DA612C4B00221A622B4B00225A6296
:10545000294800F0F7FE0346002B01D0FFF7CEFEEF
:105460007B68254A9A65244A7B689363244B254AC6
:105470001A60234B4FF000625A60214B40229A6021
:105480001F4B0022DA601E4B4FF480621A611C4BE6
:1054900000225A611A4B00229A61194B0022DA61EC
:1054A000174B00221A62164B00225A62144800F071
:1054B000C9FE0346002B01D0FFF7A0FE7B68104A0F
:1054C0005A650F4A7B68936300BF3037BD4680BD85
:1054D000003C004000380240000402400008024046
:1054E000AC020020106002400C03002088600240E3
:1054F00000340140001002406C03002010640240A0
:10550000CC0300202864024080B58EB000AF7860E4
:105510007B681B68B3F1804F14D18A4B1B6C894A9E
:1055200043F001031364874B1B6C03F001037B639F
:105530007B6B002202211C2000F03FFE1C2000F0AB
:1055400058FEFAE07B681B687F4A934214D17D4B7A
:105550001B6C7C4A43F0020313647A4B1B6C03F010
:1055600002033B633B6B002202211D2000F025FE5D
:105570001D2000F03EFEE0E07B681B68734A93420A
:1055800014D1704B1B6C6F4A43F0040313646D4BD2
:105590001B6C03F00403FB62FB6A002200211E2047
:1055A00000F00BFE1E2000F024FEC6E07B681B68A6
:1055B000674A934214D1634B1B6C624A43F0080361
:1055C0001364604B1B6C03F00803BB62BB6A0022D0
:1055D0000121322000F0F1FD322000F00AFEACE0A3
:1055E0007B681B685B4A93420CD1564B1B6C554A37
:1055F00043F010031364534B1B6C03F010037B62E6
:105600007B6A9AE07B681B68534A934214D14D4BE6
:105610001B6C4C4A43F0200313644A4B1B6C03F091
:1056200020033B623B6A00220221372000F0C5FDC7
:10563000372000F0DEFD80E07B681B68474A93421C
:1056400014D1404B5B6C3F4A43F4003353643D4BF1
:105650005B6C03F40033FB61FB6903220321192017
:1056600000F0ABFD192000F0C4FD66E07B681B680C
:105670003B4A934214D1334B5B6C324A43F4802350
:105680005364304B5B6C03F48023BB61BB69032222
:1056900001211A2000F091FD1A2000F0AAFD4CE033
:1056A0007B681B682F4A934214D1264B1B6C254AFA
:1056B00043F040031364234B1B6C03F040037B61F6
:1056C0007B69032201212B2000F077FD2B2000F0C5
:1056D00090FD32E07B681B68234A934214D1194B3A
:1056E0001B6C184A43F080031364164B1B6C03F0C9
:1056F00080033B613B69012201212C2000F05DFD0C
:105700002C2000F076FD18E07B681B68174A934256
:1057100013D10C4B1B6C0B4A43F480731364094B7D
:105720001B6C03F48073FB60FB68012201212D20B8
:1057300000F043FD2D2000F05CFD00BF3837BD4672
:1057400080BD00BF00380240000400400008004057
:10575000000C0040001000400014004000440140D4
:105760000048014000180040001C0040002000409C
:1057700080B5ACB000AF786007F19C0300221A60DE
:105780005A609A60DA601A6107F11C0380220021D6
:10579000184605F0BFFF7B681B687A4A934273D1B5
:1057A0004023FB610023BB6507F11C03184602F090
:1057B000A7FC0346002B01D0FFF720FD724B5B6C6A
:1057C000714A43F0100353646F4B5B6C03F010039A
:1057D000BB61BB696C4B1B6B6B4A43F001031363EA
:1057E000694B1B6B03F001037B617B694FF4C06362
:1057F000C7F89C300223C7F8A0300023C7F8A430B4
:105800000323C7F8A8300723C7F8AC3007F19C037F
:1058100019465E4801F030FC5D4B5E4A1A605C4BF5
:105820004FF000625A605A4B00229A60584B002297
:10583000DA60574B4FF480621A61554B00225A616F
:10584000534B00229A61524B0022DA61504B4FF4C5
:1058500000321A624E4B00225A624D4800F0F2FCB0
:105860000346002B01D0FFF7C9FC7B68484A5A6702
:10587000474A7B68936300220121252000F09DFCAC
:10588000252000F0B6FC78E07B681B68424A934212
:1058900073D14FF48073FB6100233B6607F11C0357
:1058A000184602F02DFC0346002B01D0FFF7A6FCA2
:1058B000354B1B6C344A43F480231364324B1B6C0E
:1058C00003F480233B613B692F4B1B6B2E4A43F053
:1058D000020313632C4B1B6B03F00203FB60FB689A
:1058E0004FF49843C7F89C300223C7F8A030002338
:1058F000C7F8A4300323C7F8A8300723C7F8AC3093
:1059000007F19C031946254801F0B6FB244B254AB4
:105910001A60234B4FF000625A60214B00229A60BC
:105920001F4B0022DA601E4B4FF480621A611C4B41
:1059300000225A611A4B00229A61194B4FF480726F
:10594000DA61174B00221A62154B00225A62144882
:1059500000F078FC0346002B01D0FFF74FFC7B687A
:105960000F4A5A670E4A7B68936300220121272061
:1059700000F023FC272000F03CFC00BFB037BD4600
:1059800080BD00BF0010014000380240000002400E
:1059900080080020406402400048004000040240AB
:1059A000E00800202860024080B582B000AF786037
:1059B0007B681B68194A934213D1194B5B6C184AD8
:1059C00023F0100353644FF4C061164801F0F0FC5B
:1059D0007B685B6F184600F0E3FC252000F017FCA5
:1059E00017E07B681B68104A934212D10C4B1B6C6A
:1059F0000B4A23F4802313644FF498410B4801F0C1
:105A0000D7FC7B685B6F184600F0CAFC272000F0CB
:105A1000FEFB00BF0837BD4680BD00BF001001403F
:105A200000380240000002400048004000040240EC
:105A300080B400AFFEE780B400AFFEE780B400AFF3
:105A4000FEE780B400AFFEE780B400AFFEE780B4AD
:105A500000AF00BFBD465DF8047B704780B400AF67
:105A600000BFBD465DF8047B704780B400AF00BF47
:105A7000BD465DF8047B704780B500AF00F05AFA70
:105A800000BF80BD80B500AF024800F0D9FD00BF67
:105A900080BD00BFAC02002080B500AF024800F01E
:105AA000CFFD00BF80BD00BFE008002080B500AF83
:105AB000024800F0C5FD00BF80BD00BF0C03002000
:105AC00080B500AF034B01221A70034803F052FE69
:105AD00000BF80BDDE090020F405002080B500AFC6
